:020000040000FA
:09000000021554080001038400FC
:10000B00A50280F96DE4FFFEA54860090FEF7001B2
:07001B000EA56980F3A52288
:10002300A5028078F2EFB40A09740DA51280003599
:10003300740A309811A899B8130CC2983098FDA887
:0F00430099C298B811F63099FDC299F599A52286
:10005300A5028138E1202020202057656C636F6D55
:1000630065004E6F7420656E6F75676820636F69F6
:100073006E730043686F6F736520676F6F647320DF
:1000830074696D656F757400496E73657274206170
:1000930020736D616C6C6572206F6E65004D616BD2
:1000A300652053656C656374696F6E3A0020204563
:1000B3004E54455220202043414E43454C00436F4C
:1000C3006C6C65637420636F696E730043414E43C8
:1000D300454C00496E76616C69642063686F69639F
:1000E3006500454E544552002020496E7365727475
:1000F3002062696C6C2F636F696E0050726963656F
:1001030020706169643A0043686F6F7365206F7490
:1001130068657220676F6F64733F0048617264772C
:10012300617265206572726F72002020202020208A
:1001330053656C6C6F757400202020202054686117
:100143006E6B20796F75004F7574206F6620736531
:10015300727669636500486F7070657220697320F9
:1001630077726F6E6700506C6561736520776169A4
:10017300742E2E2E00496E73756666696369656E0B
:10018300742066756E643F0054616B696E672074FA
:10019300686520676F6F64730020204368616E6732
:1001A300696E67002020204368616E676520666181
:1001B300696C65640020202020486F772061726598
:1001C30020796F752100496E707574206F746865AE
:1001D3007220636F6465002020496E707574206F10
:1001E3007468657220636F64650054616B65206198
:1001F30077617920676F6F647300202054616B65AA
:100203002061776179206368616E676573002020E0
:1002130020436F6C756D6E206572726F720053654B
:100223006C65637420616E6F74686572206F6E65B0
:100233003F004F7065726174696F6E2074696D65FC
:100243006F75740020202020526566756E64206FE0
:1002530066206661726500494F553A0020202020D0
:10026300496E7365727420636F696E0020202020CD
:10027300496E736572742062696C6C0045786163C2
:1002830074206368616E6765207265717569726554
:1002930000202045563736333620534D53205633EE
:1002A3002E35002042757920616E6F746865722067
:1002B3006F6E653F00496E73756666696369656E47
:1002C30074206368616E67650020205072696365FE
:1002D3003A002020436F6C756D6E3A004F757400C1
:1002E3004572726F720020204368616E6765203A21
:1002F30000596F75722062616C616E63653A0056D6
:100303004D44455600564D5245430025750025750D
:100313002E25750025752E2530327500564D4D530B
:100323004700256275005330303930005330303187
:1003330030004830313230005330333230004130F6
:10034300323130004130313130004430313130000E
:1003530044303131310044303130310044303231B6
:1003630030004430323131004430323031004430D7
:1003730033313000443033313100443033303100D5
:100383004330303031004330303130004325303298
:100393006275303000533034323000564D53554D72
:1003A300005230302D2530386C75005230312D25F8
:1003B30030386C75005230322D2530386C75005052
:1003C30030302D2530386C75005030312D253038C4
:1003D3006C75005630302D2530386C750056303131
:1003E3002D25303875005630322D253038750025CF
:1003F300732562782562782562782562782562788C
:1004030000257325627500257320256275202D2034
:1004130025730025732025750025732025752E254A
:10042300750025732025752E25303275002573251B
:100433007500257325752E253032750025732575B6
:100443002E25750053656C65637420616E6F746847
:100453006572206F6E65002000737461746520639C
:100463006F6465203D2025303262782020008000B3
:10047300580C800065108000761480008B14800077
:10048300A00F8000B0108000C10D8000CF06800057
:10049300D60E8000E5058000EB128000FE0B800184
:1004A3000A1380011E0E80012D0D80013B0E800179
:1004B3004A0E8001590F8001690E80017812800174
:1004C3008B1080019C0E8001A7108001B810800161
:1004D300C9108001DA128001ED0F8001FD13800243
:1004E300110F80022113800235118002471280020E
:1004F3005A0480025F0F80026F0F80027F14800214
:1005030094118002A6118002B8138002CC088002E5
:10051300D5098002DF098002E3058002E90A80022F
:10052300F40D80030205800308058F828E83EDF5A9
:10053300F0FFECFEE8FDE582600205834583600E73
:10054300A548A55CA569A56DD582F5D583F2ABF069
:10055300ECFAE8F9A522EF8DF0A4A8F0CF8CF0A473
:1005630028CE8DF0A42EFEA522BC000CBE002BEFDE
:100573008DF084FFADF0A522E4CCF875F008EF2FE1
:10058300FFEE33FEEC33FCEE9DEC984005FCEE9D54
:10059300FE0FD5F0E9E4CEFDA522EDF8F5F0EE84EB
:1005A30020D21DFEADF075F008EF2FFFED33FD40B7
:1005B30008985007D5F0F2A522C398FD0FD5F0E9AE
:1005C300A522C2D5EC30E709B2D5E4C39DFDE49C76
:1005D300FCEE30E717B2D5E4C39FFFE49EFEA512FD
:1005E30080056CC3E49DFDE49CFC8005A512800599
:1005F3006C30D507C3E49FFFE49EFEA522C5F0F847
:10060300A3E028F0C5F0F8E582158270021583E0B7
:1006130038F0A522A3F8E0C5F025F0F0E5821582B5
:1006230070021583E0C838F0E8A522EF2BFFEE3AFD
:10063300FEED39FDEC38FCA52275F008758200EF5C
:100643002FFFEE33FECD33CDCC33CCC58233C58201
:100653009BED9AEC99E58298400CF582EE9BFEEDBA
:100663009AFDEC99FC0FD5F0D6E4CEFBE4CDFAE489
:10067300CCF9A882A522B800C0B9005BBA002EEC61
:100683008BF084CFCECDFCE5F0CBF97818EF2FFFBC
:10069300EE33FEED33FDEC33FCEB33FB10D7039964
:1006A3004004EB99FB0FD8E5E4F9FAA5227818EF9B
:1006B3002FFFEE33FEED33FDEC33FCC933C910D706
:1006C300059BE99A4007EC9BFCE99AF90FD8E0E413
:1006D300C9FAE4CCFBA52275F010EF2FFFEE33FE31
:1006E300ED33FDCC33CCC833C810D7079BEC9AE865
:1006F30099400AED9BFDEC9AFCE899F80FD5F0DAE6
:10070300E4CDFBE4CCFAE4C8F9A522EB9FF5F0EACB
:100713009E42F0E99D42F0E89C45F0A522E0FCA34F
:10072300E0FDA3E0FEA3E0FFA522E493FC740193A4
:10073300FD740293FE740393FFA522E0F8A3E0F98E
:10074300A3E0FAA3E0FBA522E493F8740193F97400
:100753000293FA740393FBA5227401FF3395E0FE21
:10076300FDFCA3A3A3E0CF2FF0E582158270021551
:1007730083E0CE3EF0E582158270021583E0CD3D25
:10078300F0E582158270021583E0CC3CF0A522ECE3
:10079300F0A3EDF0A3EEF0A3EFF0A522A42582F5DC
:1007A30082E5F03583F583A522E0FBA3E0FAA3E01D
:1007B300F9A522EBF0A3EAF0A3E9F0A522E493FB69
:1007C300740193FA740293F9A522F8D0E0F58344F7
:1007D30080FBD0E0FAD0E0F9A5487012A549700E6D
:1007E300A56AA549C0E0A548C0E0C083A522A54AE3
:1007F3006860EFA56B80E1F8D0E0F5834480FBD01F
:10080300E0FAD0E0F9A5487012A549700EA56AA5D3
:1008130049C0E0A548C0E0C083A522A54AB5F005BC
:10082300A54B6860EAA56880DCE8CDFFECFEA5482F
:10083300F5F0A54CA569A56DB5F00670F17F00A58F
:100843002263F0806480D395F07FFF40027F01A58F
:1008530022E8CDF5F0FFECFEA548A55CA569A56DE2
:1008630070F6E8F9ABF0ECFAA5228F828E83EDFFE8
:10087300ECFEE8FDE58260020583458370047F009A
:10088300A522A548F5F0A54CA569A56DB5F006D53B
:1008930082F0D583ED7FFFB5F0030FA52240027FE1
:1008A30001A522EF4E6019EF60010EED89828A8364
:1008B3008BF0A558A569DFFADEF88BF0A982AA832D
:1008C300A522F8E0FBA3A3E0F925F0F0E582158269
:1008D30070021583E0FA38F0A522E52E2489F5820B
:1008E300E4341BF583E0052E22901B86302303900E
:1008F3001B89E475F001A5128008C5A54822201CB8
:10090300E77F2ED21C8018EF540F2490D43440D4A8
:10091300FF30200BEF24BFB41A0050032461FFE51E
:100923002F6002152F0532E5327002053130231096
:10093300901B86E475F001A5128008C5EFA5582227
:10094300A512800028227403D2238003E4C223F576
:100953002E901B86A5128007B6E4F52FF531F532EC
:10096300E52F60097F20A51280092280F37530FFEF
:10097300C21DC21CC21EC21FC221C222C22412082F
:10098300ECFF700E3023057F00120933AF32AE3116
:10099300A522B4255FC2D5C2201208ECFF24D0B42F
:1009A3000A00501A75F00A782F30D50508B6FF01F2
:1009B30006C6A426F620D5047002D21F80D924CF00
:1009C300B41A00EF5004C2E5D220020B4AD21D80B4
:1009D300C6D21C80C0D21E80BCD2D580BAD22180A0
:1009E300B47F20120922201E077401B52F0040F1A5
:1009F3001208DDFF120922020963D224D222809554
:100A03001208DDFB1208DDFA1208DDF94A4B700605
:100A1300791D7A0C7B80201E3AE52F60367E00E933
:100A2300C0E02EF9EAC0E03400FAA548F9D0E0FAB4
:100A3300D0E0C960060EEE653070E4C2D5EBC0E0CD
:100A4300EAC0E0E9C0E0EE120B93D0E0F9D0E0FA9F
:100A5300D0E0FBA548FF609FEBC0E0EAC0E0E9C03F
:100A6300E0120922D0E02401F9D0E03400FAD0E00A
:100A7300FBE5300460DDD530DA0209FA7B807A0BBE
:100A8300798FD21E8090791080027908C222C22405
:100A93008008D2D5790A8004790AC2D5E53004707A
:100AA30002F530E4FAFDFEFF1208DDFC7B08201D91
:100AB300131208DDFD7B10301C0A1208DDFE12083C
:100AC300DDFF7B20EC3382D592D55013C3E4301C79
:100AD300069FFFE49EFEE4201D039DFDE49CFCE4D1
:100AE300CBF8C21DEC700CCFCECDCCE824F8F87057
:100AF300F38017C3EF33FFEE33FEED33FDEC33FC2E
:100B0300EB33FB994002FB0FD8E9EB301D05F8D01E
:100B1300E0C448B21DC0E00AEC4D4E4F78207B0084
:100B230070C2EAB5300040BCC0E0120B95D0F0D0E3
:100B3300E0201D04C4C0E0C4B21DC0F012090BD0F4
:100B4300F0D5F0EB020963A5128007CD0A03530A1F
:100B5300895809D44C09D0420A8D4F0A95440A9505
:100B63004909E9430A9B550A7F460A7F450A7F479D
:100B73000C385009D82D09DC2E09FF2B09E0230975
:100B8300FD200C262A099848000009F73F3F3F0043
:100B9300790AA2D5201F14302109B910020404B91F
:100BA300080104A2D5202202500104201E68921ECF
:100BB300B52F005034C0E07F20301F197F30A21EB4
:100BC30072227221500F120BECC21EC222C221C22A
:100BD300247F30800F302103E9C0E0120922302145
:100BE30003D0E0F9D0E0B52FCC3021177F30B91016
:100BF3000C1209227F583020077F788003B908033D
:100C0300120922301E057F2D0209227F202024F89D
:100C13007F2B2022F322921E80CF286E756C6C29C5
:100C230000D21D1208DD301DF8C21D782F30D5010A
:100C330008F60209981208DDC0E0C412090BD0E0DF
:100C430012090B743A120913D21F752F04020A8971
:100C5300312E42696C6C206163636570746F723A04
:100C630000322E436F696E206163636570746F7227
:100C73003A00332E4368616E676520756E6974238D
:100C8300313A00342E4368616E676520756E69746E
:100C930023323A00352E4368616E676520756E69AD
:100CA3007423333A00362E4D6F62696C652073747A
:100CB30061747573207465737400372E534D53201C
:100CC3007465737400382E436F6C756D6E20737486
:100CD3006174757300392E436F6C756D6E20746586
:100CE3007374004F4B00457272004E6F004C697471
:100CF30074004E4F00457200456D002020202045B2
:100D03006E746572202043616E63656C0043686591
:100D1300636B696E6720636F6C756D6E202530326F
:100D2300627500506C6561736520776169742E2E5E
:100D33002E0042726F61643A202020204572726F48
:100D4300722000436F6C756D6E2025303262753AE8
:100D5300204572726F7200436F6C756D6E20253083
:100D63003262753A20536F6C646F757400436F6C15
:100D7300756D6E2025303262753A202020204F4B4E
:100D830000436865636B696E6720436F6C756D6EB6
:100D93002025303262750042726F61643A20202050
:100DA3004572726F7220202000436F6C756D6E2048
:100DB30025303262753A202020204F4B2000436FAC
:100DC300696E204163636570746F72207465737418
:100DD3002100496E7365727420636F696E3A00492E
:100DE3006E7365727420636F696E3A2025750049CE
:100DF3006E7365727420636F696E3A2025752E25B4
:100E03007500496E7365727420636F696E3A2025AD
:100E1300752E2530327500436F696E20416363651B
:100E230070746F72204F4B203F0025303262752063
:100E330000202020446576696365206973204F464E
:100E43004600706C6561736520776169742E2E2E80
:100E53000044657669636520697320627573790060
:100E63004465766963652074657374206661696C93
:100E730000564D4D534725627825627825627825C3
:100E830062782562780042757379696E672C747293
:100E93007920616761696E2100534D532053656E5C
:100EA30064204F4B2100534D532053656E642046FD
:100EB30061696C21004552524F5220636F64652073
:100EC3003D2025750044657669636520696E697404
:100ED30069616C697A696E672100800C5310800C1C
:100EE3006410800C7510800C8610800C9710800C99
:100EF300A814800CBD0A800CC80F800CD80D800C80
:100F0300E602800CE903800CED02800CF004800CF7
:100F1300F502800CE602800CF802800CFB02312EF5
:100F2300233120636F696E20747970653A00322E25
:100F3300233220636F696E20747970653A00332E13
:100F4300233320636F696E20747970653A00342E01
:100F53004D756C74692D766572643A00352E526551
:100F630066756E643A00362E42696C6C206F6E3A79
:100F730000372E4D6F62696C65206F6E3A00382E14
:100F83004368616E67652076616C75653A00392E3A
:100F930042616E6B6E6F74652D6D61783A0031300E
:100FA3002E446F75627466756C20416D743A00311E
:100FB300312E564D2049443A0031322E47534D20AD
:100FC3004E6F2E3A0031332E494F553A0031342EAD
:100FD300446563696D616C206E756D3A200031352F
:100FE3002E2331204E6F74653A0031362E23322082
:100FF3004E6F74653A0031372E2333204E6F74657C
:101003003A0031382E2334204E6F74653A0031395B
:101013002E2335204E6F74653A0032302E2336204E
:101023004E6F74653A0032312E2337204E6F74654C
:101033003A0032322E2338204E6F74653A00323331
:101043002E233120436F696E3A0032342E2332202F
:10105300436F696E3A0032352E233320436F696E36
:101063003A0032362E233420436F696E3A0032370A
:101073002E233520436F696E3A0032382E233620F3
:10108300436F696E3A0032392E474F435F6465768A
:10109300206F6E3A0025750025752E257500257580
:1010A3002E253032750025627500253262780025C1
:1010B3003032627800800F210F800F310F800F4193
:1010C3000F800F510D800F5F09800F690A800F7425
:1010D3000C800F810F800F910F800FA110800FB232
:1010E30009800FBC0B800FC807800FD00F800FE162
:1010F3000B800FED0B800FF90B8010050B80101187
:101103000B80101D0B8010290B8010350B801041B4
:101113000B80104D0B8010590B8010650B801071E4
:101123000B80107D0B8010890E0005000500050063
:101133000100010001000100050005000500050094
:101143001000010001000500050005000500050071
:101153000500050005000500050005000500050064
:10116300050001312E496E636F6D6520616E642049
:101173007061796F757400322E4D65726368616EAC
:101183006469736500332E44656C6574652072650C
:10119300636F726400312E53756D3A00322E4269CB
:1011A3006C6C3A00332E436F696E3A00342E536FE2
:1011B3006C643A00352E5061796F75743A00362E9F
:1011C3002331436F696E205061796F75743A00372C
:1011D3002E2332436F696E205061796F75743A0024
:1011E300382E2333436F696E205061796F75743ADB
:1011F30000392E2331436F696E2073756D3A0031C8
:10120300302E2332436F696E2073756D3A0031318E
:101213002E2333436F696E2073756D3A00312E535D
:101223007563636573732073756D3A00322E446F73
:1012330075627466756C2073756D3A00332E456163
:10124300636820636F6C756D6E00312E436F6C7530
:101253006D6E20636F64653A00322E537563636568
:1012630073732073756D3A00332E446F7562746621
:10127300756C2073756D3A002020204172652079CA
:101283006F752073757265203F00202020454E54F2
:10129300455220202043414E43454C00204E6F20B1
:1012A3006E6F7465204F66207472616465002575E6
:1012B3000025627500496E70757420636F64652044
:1012C3006572726F7200496E707574206F74686511
:1012D3007220636F646500256C7500256C752E257F
:1012E3006C7500256C752E2530326C750080116687
:1012F3001380117A0D8011880F8011980680119F39
:10130300078011A7078011AF078011B7098011C1AA
:10131300108011D2108011E3108011F40D8012029D
:101323000E8012110E8012200E80122F0F80123F9A
:101333000E80124D0E80125C0E80126B0F80127B9A
:101343001180128D1180129F11312E5472617920F8
:10135300636F64653A00322E456E61626C65643A70
:1013630000332E476F6F6473204D61782E3A00343B
:101373002E436F6C756D6E20313A00352E436F6CC2
:10138300756D6E20323A00362E436F6C756D6E208C
:10139300333A00372E436F6C756D6E20343A003844
:1013A3002E436F6C756D6E20353A00392E436F6C8A
:1013B300756D6E20363A0031302E436F6C756D6E4D
:1013C30020373A0031312E436F6C756D6E20383AF9
:1013D30000496E7075742070617373776F72643A2D
:1013E3000050617373776F7264206572726F72213C
:1013F30000256275002020200020002020202000EE
:10140300496E707574205472617920636F64653A14
:1014130000496E70757420636F6465206572726F26
:101423007200496E707574206F7468657220636F03
:1014330064650080134C0C8013590A8013640D807B
:1014430013720B80137E0B80138A0B8013960B8011
:1014530013A20B8013AE0B8013BA0C8013C70C803E
:1014630013D40F8013E40F000100010002000100F8
:1014730001000100010001000100010001410145DB
:1014830000420B2500004101C601410B2700420425
:1014930084000041000200C129C12AC1A6C12BC199
:1014A300A8C1274200000000412DFB00412DF70099
:1014B300412DF800C12E412DFA01412DF90041289B
:1014C300AB004123BD01412DD100412DD200412D5F
:1014D300D300412DD400412DD500412DD600C10BA1
:1014E300C10CC10DC10EC10FC110C111C112C11375
:1014F300C114C115C116412DD700014D10462D5CF5
:10150300080001009600412DA200C132014F0041A5
:101513001D1600410EB900410EB50041118601416F
:101523000EB701C12CC12D410EBB00410EBC0141C0
:1015330015870041159800410B2A00410B2B0042EF
:101543000D2C0000410D2E00410D2F00410EB00067
:1015530000A575FF07758E0378FEE4F6D8FD758147
:101563008FA575FB00759008A50280159BA50280C9
:101573007FD9E493A3F85407240CC8C333C4540F8E
:101583004420C8834004F456800146F6DFE4800B10
:101593000102040810204080901480E47E019360CF
:1015A300CCA3FF543F30E509541FFEE493A360012D
:1015B3000ECF54E0B4E01CE493FBA3E493FAA3E45A
:1015C30093F9A3E493A558A309E970010ADFF4DEB4
:1015D300F280C854C025E060254097E493A3FAE461
:1015E30093A3F8E493A3C8C582C8CAC583CAF0A36A
:1015F300C8C582C8CAC583CADFE9DEE7809DE49314
:10160300A3F8E493A34003F68001F208DFF4808B90
:10161300312E436F6C756D6E00322E41646420670A
:101623006F6F647300332E44657669636500342EEF
:10163300506172616D6574657200352E5265636F1A
:10164300726420696E717569727900362E54726105
:10165300790020202041726520796F75207375729F
:1016630065203F00202020454E5445522020204332
:10167300414E43454C002020536176696E672E2E00
:101683002E00200053617665206661696C65642CC9
:101693007265656E7465723F002020454E54455255
:1016A30020202043414E43454C00801613088016EA
:1016B3001C0B801628088016310B80163D108016EF
:1016C3004E0641545A0041542B4950523D3338344D
:1016D300303000415445300041542B435343533D74
:1016E30022484558220041542B434D47463D300084
:1016F30041542B434D4744413D36002B434D544900
:101703003A0041542B434D47533D2564003E004569
:1017130052524F520041542B434D47523D25626470
:1017230000002B434D47520041542B434D47443D4A
:101733002564004F4B003031323334353637383976
:1017430041424344454600312E436F6C756D6E2014
:10175300636F64653A00322E50726963653A0033F1
:101763002E476F6F64732072656D61696E3A003442
:101773002E436F6C756D6E207374617475733A00CC
:1017830025303262750025750025752E25750025D7
:10179300752E25303275002533627500256275007C
:1017A30080174A0E801759088017620F801772102E
:1017B3002000202020202020202020202020202046
:1017C30020202020202000496E70757420636F6CE8
:1017D300756D6E20636F64653A00496E7075742091
:1017E300636F6465206572726F7200496E70757401
:1017F300206F7468657220636F6465002020202069
:1018030020202020202020202020202020202020D5
:1018130000C2D5E830E70FB2D5E4C39BFBE49AFAE4
:10182300E499F9E498F8EC30E71BB2D5A5128018D7
:1018330050A512800679E4C39BFBE49AFAE499F974
:10184300E498F88005A51280067930D50DE4C39F8E
:10185300FFE49EFEE49DFDE49CFCA5224742323357
:1018630031320057494E31323532000D5196105204
:1018730064050505050505050504040404080807B2
:10188300FF0101010101010101020202020303063A
:10189300FF50505050505050501B1B1B1B0D0D1828
:1018A300FF09090909090909092E2E2E2E000048EE
:1018B300FF000000010000000A00000064000003B4
:1018C300E800002710000186A0000F424000989610
:1018D3008005F5E100070201009600000A001400EC
:1018E300320064000000000000000001010101005B
:1018F300000000080001009600901D0AEBF0A3EA27
:10190300F0A3E9F0A3E0FBA3E0FAA3E0F9A5487094
:10191300030219A5901D0AE0FBA3E0FAA3E0F9A5D1
:101923004870030219B2A3E0F9A3E0FAA3E0A3C944
:10193300F0A3EAF0A3E9F0901D0AA3E0FAA3E0F90B
:10194300901D13EBF0A3EAF0A3E9F0901D10E0FB68
:10195300A3E0FAA3E0F9A548FF6027A3E0FBA3E017
:10196300FAA3E0F9A5486F7019901D1175F001A550
:1019730012800600901D14E475F001A51280060084
:1019830080C9901D10E0FBA3E0FAA3E0F9A548701D
:1019930002800F901D0BE475F001A5128006000272
:1019A3001917901D0AE0FBA3E0FAA3E0F980067B78
:1019B300007A007900A522EFC39461400BEF947B7A
:1019C3005006EF24E0FF8000A522EFC394304007C8
:1019D300EF943A50028001C3A522E490159CF0A332
:1019E300F0A512808FA5900B277405F0D21AE0FFA3
:1019F30025E025E02471F582E43404F583A5128003
:101A030007C0901816A5128007B6EF25E025E0243D
:101A130074F582E43404F583E493901819F07D019E
:101A2300E4FFA51280885F751D0FE51D6026A512D2
:101A33008090B6A5128096D190159DEFF0F460EAE0
:101A430090159DE024E56008240E70DE7F0080067B
:101A53007F0180027F02A522E490159BF0900B2763
:101A6300740CA512808829A5128019DD90159BEFAF
:101A7300F07009A512808FA57F01802890159BE047
:101A8300B401047F00801D900B27741EA51280886B
:101A9300297F02A512808FB8E47FF47E01A512800E
:101AA30083307F00A522E490159BF0900B277413DD
:101AB300A512808829E4FFA5128019DDEF700EA519
:101AC3001280962EA512801AFF7F01802D7E007F43
:101AD300147D007B007A047970A5128008A6900B10
:101AE300277412A5128088297F02A512808FB8E47B
:101AF3007F64FEA5128083307F00A522900B25E032
:101B0300FEA3E0FF90159FEEF0A3EFF0E4A3F0D364
:101B1300EF9400EE940050057F00021CFC900B270D
:101B2300740BF07E007F147D007B007A047970A52E
:101B3300128008A6900B27E0FF25E025E02474F52A
:101B430082E43404F583E4939015A1F0FD7C00C096
:101B530004C005EF25E025E02471F582E43404F5A3
:101B630083A5128007C078707C047D00D007D0065F
:101B7300A51280052D9015A1E0FF2470F582E434B1
:101B830004F5837420F0900468E0FCA3E0FDEC60AE
:101B930003021CA1ED24F6603D24A67003021C354C
:101BA30024636003021CA174712FF9E43404FA7BEB
:101BB30000C003C002C0017B807A03790E901B89A9
:101BC300A5128007B690159FE0FFA3E0901B8CCF72
:101BD300F0A3EF021C8F9015A1E02471F9E4340403
:101BE300FA7B00C003C002C0017B807A03791190A5
:101BF3001B89A5128007B6900468E0FAA3E0FB9066
:101C0300159FE0FEA3E0FFAD03AC02A51280056CB7
:101C1300901B8CEEF0A3EFF090159FE0FEA3E0FF86
:101C2300AD03AC02A51280056C901B8EECF0A3ED06
:101C3300805A9015A1E02471F9E43404FA7B00C0C2
:101C430003C002C0017B807A037917901B89A51218
:101C53008007B6900468E0FAA3E0FB90159FE0FECE
:101C6300A3E0FFAD03AC02A51280056C901B8CEEC4
:101C7300F0A3EFF090159FE0FEA3E0FFAD03AC02ED
:101C8300A51280056C901B8EECF0A3EDF0D001D073
:101C930002D003A5128009499015A1E02FF09015F9
:101CA300A1E004F0D21A7B007A047970901816A58B
:101CB300128007B69015A1E0A512808858D21A9019
:101CC3000481A5128007C0901816A5128007B6904C
:101CD3000484E49314901819F07D01E4FFA51280A5
:101CE300885FE47F64FEFDFC90184A7423F0A374BC
:101CF30069F0A5128083387F00A522E490159BF03C
:101D0300A3F0A3F0A3F090159BF0A3F0D3900B26C0
:101D1300E09400900B25E0940040077F01A512801A
:101D23007FA6302907A512807F45C229302776D2A6
:101D33001AE4901793F0D21B7D01FFA51280897CD2
:101D4300C227E4F514900B28F0805A90159DE0709B
:101D530002A3E0605F90159DE0FEA3E0FF900B25DA
:101D6300EE8FF0A512800600900AF1A51280073EBF
:101D7300E4FCFDA51280062E900AF1A512800792BD
:101D8300900AF9A51280073E90159DE0FEA3E0FF9F
:101D9300E4FCFDA51280062E900AF9A51280079295
:101DA300A5128090B6A51280926F90159DEEF0A3B8
:101DB300EFF08097900427E064016003021ED9A529
:101DC3001280958CEF7003021ED9A51281307A9090
:101DD300159BEEF0A3EFF04E7008A512808FEE0274
:101DE3001ED090159BE0FEA3E0FF900B26E02FFF93
:101DF300900B25E03EFEC390042CE09F90042BE063
:101E03009E5034900B277403A5128088297F02A566
:101E130012808FB8E47FDC7E05A512808330A51283
:101E2300808FEE900B25E0FCA3E0FD4C700280490F
:101E3300AF05AE04021F9BA512813040751D0AE554
:101E43001D600FA512813071EF7007A5128090B647
:101E530080EDE51D702CA512808FEE90159BE0FFA1
:101E6300A3E090042DCFF0A3EFF0A51280DC7C90CB
:101E73000B25E07002A3E07054900B29F07F02025F
:101E83001FA290159BE0FEA3E0FF900B25EE8FF0C1
:101E9300A512800600900AF1A51280073EE4FCFD1E
:101EA300A51280062E900AF1A512800792900AF5DA
:101EB300A51280073E90159BE0FEA3E0FFE4FCFD26
:101EC300A51280062E900AF5A512800792E47F14CE
:101ED300FEA51280833090042BE0FEA3E0FFC390A5
:101EE3000B26E09F900B25E09E5003021F93E47F97
:101EF30032FEA512808330751690E5166052A51246
:101F030080926F90159DEEF0A3EFF04E603B90151D
:101F13009DE0FEA3E0FF900B25EE8FF0A512800657
:101F230000900AF1A51280073EE4FCFDA51280068D
:101F33002E900AF1A512800792900AF9A512800744
:101F43003E90159DA51280909EA5128090B680AA02
:101F5300A5128095A4A512801AFF900427E0B4016E
:101F630021751D01E51D601AA51280958CEF600790
:101F7300A512808FEE800BE47F0AFEA512808330CA
:101F830080E2E47FF47E01A5128083307F01800F1D
:101F9300900B25E0FEA3E0FFA512801B077F00A5A1
:101FA30022E490159BF0FE7F4EFD7B007A0479209E
:101FB300A5128008A6E47F64FEA512808330D21A9E
:101FC300900501A5128007C0901816A5128007B6C8
:101FD300900504A512808856D21A9004B9A51280E0
:101FE30007C0901816A5128007B69004BCE493901E
:101FF3001819F07D01E4FFA51280885FE47F64FE79
:10200300A5128083307F00A522E490159BF0A3F0F6
:10201300FE7F14FD7B007A047970A5128008A690D8
:102023000B277404F0A3E0FF70030220C67B807AC1
:10203300047904901B89A5128007B6900B27E0252D
:10204300E025E02471F582E43404F583A5128007CA
:10205300C0901B8CA5128007B6901B8FEFF07B00FE
:102063007A047970A51280094990159CEFF0D21A71
:102073007B007A047970901816A5128007B6EF04D6
:10208300A512808858900B28E0C3940A50227F023F
:10209300A512808FB890159CE0FFD21A9017937405
:1020A30001F0D21BE4FDA51280897C7F010221612E
:1020B300D21AE4901793F0D21B7D01FFA5128089F9
:1020C3007C8013D21AE4901793F0D21B7D01FFA5F5
:1020D3001280897C8075A512808FA5900B28E0FF64
:1020E300D394635005EF9400500FD21AE4A51280E5
:1020F3008816A5128082EA8052E490159BF0A3F023
:1021030090159CE0FFC39440502FEF25E025E02479
:10211300DCF582E4342BF583E0FF900B28E0B50770
:102123001090159CE0900B28F090159B7401F080A3
:102133000890159CE004F080C790159BE0701DD2B9
:102143001AA512808816A5128082EAC227E4F51424
:10215300900B28F0A37406F07F0180027F00A52274
:10216300E490159BF0302709E51460057F010223F5
:1021730061E4900B28F0900484E07002A3E0700502
:102183009001C604F09001C6E064016003022328B5
:10219300900B29E075F00684C39401500302234396
:1021A300900427E06401600302224B30264C900B1D
:1021B30027A512808829900B1BE0FF700DA3E07008
:1021C30009900B27740AF0022267EF700F900B1C23
:1021D300E06009900B277422F0022267900B1BE04A
:1021E3006009A3E07005900B278071900485E0449B
:1021F30001F0900B277410F0806A900B277426A5CA
:1022030012808829900B277423F0E490159BF0909B
:10221300159BE0FFC39403504BEF25E025E024E733
:10222300F582E4340AF583E06402601490159BE0C0
:1022330025E025E024E7F582E4340AF5837402F00F
:1022430090159BE004F080C7900B1CE07016900B78
:1022530027A512808829900B273026057421F0804A
:10226300037423F0D21A900B27E0FF25E025E02426
:1022730071F582E43404F583A5128007C090181623
:10228300A5128007B6EF25E025E02474F582E43437
:1022930004F583E493901819F07D01E4FFA51280FF
:1022A300885FE47F207E03A512808330A512812EF0
:1022B30077EF6401705ED21A900B27E0FF25E025CB
:1022C300E02471F582E43404F583A5128007C090FD
:1022D3001816A5128007B6EF25E025E02474F582D1
:1022E300E43404F583E493901819F07D01E4FFA529
:1022F3001280885FE47F207E03A512808330A512BD
:10230300812E77BF010E900484E04402F0A3E0F035
:102313007F01804AE47FF47E01A512808330E4903C
:102323000B29F0801B900B277410A5128088297F3E
:1023330002A512808FB8E47FF47E01A5128083305A
:10234300900B29E004F0A512809197BF01047F024E
:10235300800CE47FF47E01A5128083307F01A522E7
:10236300E490159BF09015B4F0A3F0A3F09015B38F
:10237300F0751690E5166052A51280926F9015B510
:10238300EEF0A3EFF04E603B9015B5E0FEA3E0FF47
:10239300900B25EE8FF0A512800600900AF1A5128E
:1023A30080073EE4FCFDA51280062E900AF1A512DB
:1023B300800792900AF9A51280073E9015B5A512E1
:1023C30080909EA5128090B680AAA5128095A490B5
:1023D3000B25E07002A3E070057F0202268E7E00CB
:1023E3007F037D007B007A15799CA5128008A6E403
:1023F30090159BF0FE7F14FD7B007A15799FA51243
:102403008008A6900B277404F0E0FF25E025E02464
:1024130074F582E43404F583E493FD7C00C004C0C6
:1024230005EF25E025E02471F582E43404F583A566
:10243300128007C0789F7C157D00D007D006A512B7
:1024430080052D900B27E025E025E02474F582E438
:102453003404F583E4939015B4F0900B28E0FFC3A4
:102463009430405190159CEFF0900B2824D0F090BD
:10247300159BE004F09015B4E0249FF9E43415A80B
:1024830001FC7D007B007A15799C7E007F01A512FB
:1024930080052DD21A7B007A15799F901816A51204
:1024A3008007B69015B4E004A5128088589015B43F
:1024B300E004F08019D21A7B007A15799F901816E0
:1024C300A5128007B69015B4E0A512808858900B2A
:1024D300277405F0D21AE0FF25E025E02471F58288
:1024E300E43404F583A5128007C0901816A5128062
:1024F30007B6EF25E025E02474F582E43404F58380
:10250300E493901819F07D01E4FFA51280885F9091
:1025130015B4E0FFD21A9017937401F0D21BE4FDB7
:10252300A512808FA0900427E0B40105A512808F27
:10253300EE9015B374FFF0E47F14FEA51280833090
:10254300A5128096D19015B3EFF0F460E49015B323
:10255300E0FF24F65002805F90159BE0FEC39402D7
:10256300504FEF2430FF749C2EF582E43415F5832D
:10257300EFF090159BE004F0C21AE0249BF9E434D9
:1025830015FA7B00901816A5128007B690181974D7
:1025930001A51280885B900B28E075F00AA4FF90D8
:1025A30015B3E02F900B28F0E47F14FEA51280836F
:1025B300309015B374FFF09015B3E0FF641B60080F
:1025C300EF640D6003022534A512808FA5D21AE4AF
:1025D300901793F0D21B7D01FFA51280897C901583
:1025E300B3E0B41B0302268390159BE0FFD3940250
:1025F3005005EF9400500CA512808824A512808208
:10260300EA807D90159BE06402600302268E90159C
:10261300B3E0640D70757FC8FEA512808330900B04
:1026230028E0700CA512808824A5128082EA8050CD
:10263300E49015B3F0A3F09015B4E0FFC3944050B9
:102643002FEF25E025E024DCF582E4342BF583E04D
:10265300FF900B28E0B507109015B4E0900B28F01D
:102663009015B37401F080089015B4E004F080C7AE
:102673009015B3E07013A512808824A5128082EA16
:10268300E4900B28F07F0180027F00A52290046B69
:10269300E064016014900B28E075F005900008A534
:1026A3001280079FE07002801B90046BE06401704E
:1026B30030900B28E075F005900005A51280079F68
:1026C300E030E21D900B27740EA512808829900B31
:1026D300277419A5128082EFE4900B28F07F028003
:1026E30038900B28E075F005900005A51280079F30
:1026F300E030E01A540A7016900B28E075F005904C
:102703000006A51280079FE0FEA3E04E7009E49047
:102713000B28F07F0180027F00A522900B27741CF9
:10272300A5128088297F02A512808FB8E47FDC7E02
:1027330005A512808330A51280A003EF6401600316
:102743000228A9900B27741DA512808829900B27B6
:102753007405A5128082EFA512808FA5A512808231
:10276300D7A5128096D190159BEFF0F460EE9015EB
:102773009BE024E56004240E70E290159BE0FF6467
:102783001B6004EFB40DD5EF641B600302289F9018
:102793000B277415A5128088297E007F147D007B8A
:1027A300007A047970A5128008A6900468E0FEA35D
:1027B300E0FFEE6003022861EF24F6603924A6608F
:1027C30035246360030228617B807A047930901B8F
:1027D30089A5128007B690051DA5128007C0901B1E
:1027E3008CA5128007B6900B25E0FFA3E0901B8F0A
:1027F300CFF0A3EF80577B807A047935901B89A5AE
:10280300128007B690051DA5128007C0901B8CA5EA
:10281300128007B6900468E0FAA3E0FB900B25E072
:10282300FEA3E0FFAD03AC02A51280056C901B8FE5
:10283300EEF0A3EFF0900B25E0FEA3E0FFAD03ACB9
:1028430002A51280056C901B91ECF0A3EDF07B00C8
:102853007A047970A51280094990159BEFF0D21A7A
:102863007B007A047970901816A5128007B690152C
:102873009BE0901819F07D01E4FFA51280885FE4C6
:102883007F2C7E01A512808330900B25E0FFA3E00F
:1028930090046ECFF0A3EFF07F01805490159BE07E
:1028A300640D704C803F900B27741DF0D21AE0FF2B
:1028B30025E025E02471F582E43404F583A5128034
:1028C30007C0901816A5128007B6EF25E025E0246F
:1028D30074F582E43404F583E49314A512808858D4
:1028E300A51280832BA512808FA5E4900B28F0FFFF
:1028F300A522E490159BF0A3F0900B277414A51266
:102903008088297E007F147D007B007A047970A57E
:10291300128008A6900468E0FEA3E0FFEE600302C5
:102923002A28EF24F6603D24A670030229C02463FD
:102933006003022A287B807A047930901B89A512D0
:102943008007B6900521A5128007C0901B8CA512A5
:102953008007B6900B25E0FFA3E0901B8FCFF0A379
:10296300EF022A177B807A04793F901B89A5128096
:1029730007B6900521A5128007C0901B8CA5128075
:1029830007B6900468E0FAA3E0FB900B25E0FEA3F2
:10299300E0FFAD03AC02A51280056C901B8FEEF037
:1029A300A3EFF0900B25E0FEA3E0FFAD03AC02A57F
:1029B3001280056C901B91ECF0A3ED80577B807A1D
:1029C300047935901B89A5128007B6900521A512BD
:1029D3008007C0901B8CA5128007B6900468E0FAAC
:1029E300A3E0FB900B25E0FEA3E0FFAD03AC02A543
:1029F3001280056C901B8FEEF0A3EFF0900B25E097
:102A0300FEA3E0FFAD03AC02A51280056C901B9101
:102A1300ECF0A3EDF07B007A047970A512800949EC
:102A230090159CEFF0D21A7B007A047970901816F7
:102A3300A5128007B690159CE0901819F07D01E46B
:102A4300FFA51280885FE47FF47E01A512808330A6
:102A5300A512809E7190159BEFF0BF070CE4F0A5C3
:102A630012809E7190159BEFF090159BE0A512804C
:102A730007CD2A91002CE0012CE0022E8D032E8D30
:102A8300042A91052E8D072EC60800002F70900B87
:102A930028E075F005900006A51280079FE0FEA3CD
:102AA300E0FFC3900B26E09FF0900B25E09EF09093
:102AB3000B27741AA512808829A51280A003EF7032
:102AC30027900428E0B40116B4011DA3E0FEA3E09F
:102AD300FFC3900B26E09F900B25E09E500A7F02D8
:102AE300A512808FB8022C387E007F147D007B00F6
:102AF3007A047970A5128008A6900468E0FEA3E02A
:102B0300FFEE6003022C0DEF24F6603D24A6700354
:102B1300022BA524636003022C0D7B807A04793099
:102B2300901B89A5128007B6900521A5128007C0C6
:102B3300901B8CA5128007B6900B25E0FFA3E090B5
:102B43001B8FCFF0A3EF022BFC7B807A04793F909D
:102B53001B89A5128007B6900521A5128007C09096
:102B63001B8CA5128007B6900468E0FAA3E0FB90E3
:102B73000B25E0FEA3E0FFAD03AC02A51280056CBC
:102B8300901B8FEEF0A3EFF0900B25E0FEA3E0FF88
:102B9300AD03AC02A51280056C901B91ECF0A3ED84
:102BA30080577B807A047935901B89A5128007B6FC
:102BB300900521A5128007C0901B8CA5128007B633
:102BC300900468E0FAA3E0FB900B25E0FEA3E0FF8E
:102BD300AD03AC02A51280056C901B8FEEF0A3EF42
:102BE300F0900B25E0FEA3E0FFAD03AC02A512803D
:102BF300056C901B91ECF0A3EDF07B007A047970E7
:102C0300A51280094990159CEFF0D21A7B007A0433
:102C13007970901816A5128007B690159CE090184D
:102C230019F07D01E4FFA51280885FE47FDC7E0557
:102C3300A51280833090046BE064016035900B280B
:102C4300E0FF75F005900008A51280079FE014F0DF
:102C530075F005EF900008A51280079FE0701390B0
:102C63000B28E075F005900005A51280079FE0444E
:102C730004F090159BE0B40513900B28E075F00564
:102C8300900005A51280079FE04402F0A51280DAA8
:102C930064900AFDA51280073E900B28E075F005AD
:102CA300900006A51280079FE0FEA3E0FFE4FCFD71
:102CB300A51280062E900AFDA512800792900B01A3
:102CC300E475F001A512800600900B28E075F00969
:102CD3009001C8A51280DA7D7F00022F72900B2726
:102CE300741CA512808829900B28E075F0059000CC
:102CF30005A51280079FE04402F0A51280A003EF10
:102D030064016003022E4DFE7F14FD7B007A04797B
:102D130070A5128008A6900468E0FEA3E0FFEE60B1
:102D230003022E2AEF24F6603D24A67003022DC26F
:102D330024636003022E2A7B807A047930901B89F6
:102D4300A5128007B6900521A5128007C0901B8CA1
:102D5300A5128007B6900B25E0FFA3E0901B8FCF51
:102D6300F0A3EF022E197B807A04793F901B89A58B
:102D7300128007B6900521A5128007C0901B8CA571
:102D8300128007B6900468E0FAA3E0FB900B25E0FD
:102D9300FEA3E0FFAD03AC02A51280056C901B8F70
:102DA300EEF0A3EFF0900B25E0FEA3E0FFAD03AC44
:102DB30002A51280056C901B91ECF0A3ED80577B6C
:102DC300807A047935901B89A5128007B690052176
:102DD300A5128007C0901B8CA5128007B6900468CB
:102DE300E0FAA3E0FB900B25E0FEA3E0FFAD03AC0C
:102DF30002A51280056C901B8FEEF0A3EFF0900BF1
:102E030025E0FEA3E0FFAD03AC02A51280056C90A4
:102E13001B91ECF0A3EDF07B007A047970A512808E
:102E2300094990159CEFF0D21A7B007A04797090CF
:102E33001816A5128007B690159CE0901819F07D1E
:102E430001E4FFA51280885F80077F02A512808FAF
:102E5300B8E47FE87E03A512808330A51280371281
:102E6300A51280DA51900B03E475F001A5128006D8
:102E730000900B28E075F0099001CAA51280DA7D55
:102E8300A51280DB427F02022F72900B27741CA5D0
:102E930012808829A51280DA51A51280A003EF7051
:102EA3000CA51280A03BEF64017013804A7F02A53A
:102EB30012808FB8E47FC47E09A5128083307F001F
:102EC300022F72900B27741CA512808829900B285F
:102ED300E075F005900005A51280079FE04404F01B
:102EE300A51280DA64A51280A003EF706BA512808F
:102EF300A03BEF64017072FE7F14FD7B007A0479BE
:102F030070A5128008A67B807A047947901B89A557
:102F1300128007B67B007A047970A5128009499064
:102F2300159CEFF0D21A7B007A047970901816A5DD
:102F3300128007B690159CE0901819F07D01E4FF0C
:102F4300A51280885FE47FC47E09A512808330A523
:102F530012801AFF7F0180177F02A512808FB8E4C9
:102F63007FC47E09A5128083307F0080027F00A585
:102F730022E490159BF0A3F0900B25E07002A3E0F0
:102F83007004FF023710900428E0640170030230DC
:102F9300E8A512809FFEEF640160030230E37F0126
:102FA300A512808FB87E007F147D007B007A0479A0
:102FB30070A5128008A6900468E0FEA3E0FFEE600F
:102FC300030230CAEF24F6603D24A6700302306288
:102FD300246360030230CA7B807A047930901B89B2
:102FE300A5128007B690051DA5128007C0901B8C03
:102FF300A5128007B6900B25E0FFA3E0901B8FCFAF
:10300300F0A3EF0230B97B807A04793F901B89A546
:10301300128007B690051DA5128007C0901B8CA5D2
:10302300128007B6900468E0FAA3E0FB900B25E05A
:10303300FEA3E0FFAD03AC02A51280056C901B8FCD
:10304300EEF0A3EFF0900B25E0FEA3E0FFAD03ACA1
:1030530002A51280056C901B91ECF0A3ED80577BC9
:10306300807A047935901B89A5128007B690051DD7
:10307300A5128007C0901B8CA5128007B690046828
:10308300E0FAA3E0FB900B25E0FEA3E0FFAD03AC69
:1030930002A51280056C901B8FEEF0A3EFF0900B4E
:1030A30025E0FEA3E0FFAD03AC02A51280056C9002
:1030B3001B91ECF0A3EDF07B007A047970A51280EC
:1030C300094990159BEFF0D21A7B007A047970902E
:1030D3001816A5128007B690159BE0A51280831ED3
:1030E3007F00023710900429E0FEA3E0FFC3900B9A
:1030F30026E09F900B25E09E50030235BBEF4E70F8
:10310300030235BBA51280A03BEF640160030234C8
:1031130051D21A900505A5128007C0901816A51262
:103123008007B6900508A512808856D21A900485A8
:10313300A5128007C0901816A5128007B6900488C0
:10314300E493901819F07D01E4FFA51280885F7560
:103153001E1EE51E70030232E7E47F32FEA51280D5
:103163008330A5128096D190159BEFF024E5600E75
:10317300240E70DEA512801AFF7F01023710A512FC
:10318300809FFEEF640160030232E27F01A512809B
:103193008FB87E007F147D007B007A047970A512BE
:1031A3008008A6900468E0FEA3E0FFEE600302320D
:1031B300B7EF24F6603D24A6700302324F24636008
:1031C300030232B77B807A047930901B89A5128081
:1031D30007B690051DA5128007C0901B8CA5128011
:1031E30007B6900B25E0FFA3E0901B8FCFF0A3EF72
:1031F3000232A67B807A04793F901B89A51280074F
:10320300B690051DA5128007C0901B8CA5128007E0
:10321300B6900468E0FAA3E0FB900B25E0FEA3E080
:10322300FFAD03AC02A51280056C901B8FEEF0A3DB
:10323300EFF0900B25E0FEA3E0FFAD03AC02A51277
:1032430080056C901B91ECF0A3ED80577B807A0492
:103253007935901B89A5128007B690051DA51280AC
:1032630007C0901B8CA5128007B6900468E0FAA3F0
:10327300E0FB900B25E0FEA3E0FFAD03AC02A5123B
:1032830080056C901B8FEEF0A3EFF0900B25E0FE12
:10329300A3E0FFAD03AC02A51280056C901B91EC7B
:1032A300F0A3EDF07B007A047970A51280094990B0
:1032B300159BEFF0D21A7B007A047970901816A54B
:1032C300128007B690159BE0901819F07D01E4FF7A
:1032D300A51280885FE47FDC7E05A5128083307FA2
:1032E30000023710A51280A003EF640160030234CB
:1032F3004C90159BF07F01A512808FB87E007F1440
:103303007D007B007A047970A5128008A69004687A
:10331300E0FEA3E0FFEE6003023421EF24F6603DFC
:1033230024A670030233B9246360030234217B8033
:103333007A047930901B89A5128007B690051DA5E4
:10334300128007C0901B8CA5128007B6900B25E056
:10335300FFA3E0901B8FCFF0A3EF0234107B807AA2
:1033630004793F901B89A5128007B690051DA5120D
:103373008007C0901B8CA5128007B6900468E0FA02
:10338300A3E0FB900B25E0FEA3E0FFAD03AC02A599
:103393001280056C901B8FEEF0A3EFF0900B25E0ED
:1033A300FEA3E0FFAD03AC02A51280056C901B9158
:1033B300ECF0A3ED80577B807A047935901B89A5C7
:1033C300128007B690051DA5128007C0901B8CA51F
:1033D300128007B6900468E0FAA3E0FB900B25E0A7
:1033E300FEA3E0FFAD03AC02A51280056C901B8F1A
:1033F300EEF0A3EFF0900B25E0FEA3E0FFAD03ACEE
:1034030002A51280056C901B91ECF0A3EDF07B00FC
:103413007A047970A51280094990159BEFF0D21AAE
:103423007B007A047970901816A5128007B6901560
:103433009BE0901819F07D01E4FFA51280885FE4FA
:103443007FDC7E05A5128083307F00023710A51232
:1034530080A003EF640160030235B690159BF07FF3
:1034630001A512808FB87E007F147D007B007A0453
:103473007970A5128008A6900468E0FEA3E0FFEE31
:10348300600302358BEF24F6603D24A670030235FA
:10349300232463600302358B7B807A047930901B8D
:1034A30089A5128007B690051DA5128007C0901B41
:1034B3008CA5128007B6900B25E0FFA3E0901B8F2D
:1034C300CFF0A3EF02357A7B807A04793F901B8992
:1034D300A5128007B690051DA5128007C0901B8C0E
:1034E300A5128007B6900468E0FAA3E0FB900B25D1
:1034F300E0FEA3E0FFAD03AC02A51280056C901BB8
:103503008FEEF0A3EFF0900B25E0FEA3E0FFAD03F9
:10351300AC02A51280056C901B91ECF0A3ED8057D3
:103523007B807A047935901B89A5128007B69005B4
:103533001DA5128007C0901B8CA5128007B69004AE
:1035430068E0FAA3E0FB900B25E0FEA3E0FFAD03E8
:10355300AC02A51280056C901B8FEEF0A3EFF090E8
:103563000B25E0FEA3E0FFAD03AC02A51280056CC2
:10357300901B91ECF0A3EDF07B007A047970A51217
:1035830080094990159BEFF0D21A7B007A04797079
:10359300901816A5128007B690159BE0901819F0A5
:1035A3007D01E4FFA51280885FE47FDC7E05A51220
:1035B3008083307F00023710A51280A003EF6401DF
:1035C300600302370E90159BF07F01A512808FB820
:1035D3007E007F147D007B007A047970A512800839
:1035E300A6900468E0FEA3E0FFEE60030236F5EF69
:1035F30024F6603D24A6700302368D246360030223
:1036030036F57B807A047930901B89A5128007B642
:1036130090051DA5128007C0901B8CA5128007B6CC
:10362300900B25E0FFA3E0901B8FCFF0A3EF0236B2
:10363300E47B807A04793F901B89A5128007B690BA
:10364300051DA5128007C0901B8CA5128007B6909C
:103653000468E0FAA3E0FB900B25E0FEA3E0FFADD6
:1036630003AC02A51280056C901B8FEEF0A3EFF064
:10367300900B25E0FEA3E0FFAD03AC02A51280058D
:103683006C901B91ECF0A3ED80577B807A04793525
:10369300901B89A5128007B690051DA5128007C04F
:1036A300901B8CA5128007B6900468E0FAA3E0FB98
:1036B300900B25E0FEA3E0FFAD03AC02A51280054D
:1036C3006C901B8FEEF0A3EFF0900B25E0FEA3E0D0
:1036D300FFAD03AC02A51280056C901B91ECF0A327
:1036E300EDF07B007A047970A51280094990159B4F
:1036F300EFF0D21A7B007A047970901816A5128025
:1037030007B690159BE0A51280831E7F00A522902B
:103713000B25E0FFA3E090046ECFF0A3EFF0E4905D
:103723000B25F0A3F0E490159DF0A3F0A3F0A3F014
:10373300A3F0A3F0A3F0A304F0A3F0A3F0E4A3F099
:10374300A51280A003EF6401600DA51280A03BBF0A
:1037530001057F00023F5AE490159DF0A3F0A3F00A
:1037630090046EE0FEA3E0FF4E70079015A7F002F1
:103773003D807B007A15799E9015ADA5128007B622
:103783007A15099015B0A5128007B67A15799DA50B
:10379300128098029015A0EFF07003023834E4F021
:1037A3009015A0E0FFC39403501DEF25E025E0240E
:1037B300E4F582E4340AF583E0FEA3E04E6008906A
:1037C30015A0E004F080D99015A0E0FF70199015C2
:1037D300A704F090046EE0FDA3E090042FCDF0A3C6
:1037E300EDF0D22B023D80EF25E025E024E0F582C9
:1037F300E4340AF583E0FEA3E0FF90046EE0FCA34B
:10380300E0FDC39FEC9E40129015A77401F0900455
:103813002FECF0A3EDF0D22B800DE490042FF0A356
:10382300F0C22B9015A7F0E490046EF0A3F0023DD4
:1038330080E49015A1F0A3F090159DE0FF700302C2
:1038430038F27A237B7E7D01A51280878EEF707616
:103853007FE87E03A512808330E49015A0F09015D5
:10386300A0E0C3940250547C237D7E7F01A5128087
:1038730086B0EF64016032902381E0FD545060070D
:103883009015A4E04404F0ED542860079015A4E0DB
:103893004402F07F01A512812D569015A1EEF0A3ED
:1038A300EFF0E49015A0F080129015A0E004F0E48E
:1038B3007FE87E03A51280833080A39015A0E0C328
:1038C3009402400980009015A4E04404F090042180
:1038D300E0FCA3E0FD9015A1E0FEA3E0FFA51280AC
:1038E3000559C390046FE09FF090046EE09EF09042
:1038F30015A1E0FEA3E0FF900B15EE8FF0A512805B
:103903000600900B09A51280073EC000900421E039
:10391300FCA3E0FD9015A1E0FEA3E0FFA512800546
:1039230059E4FCFDD000A51280062E900B09A512C8
:10393300800792900B05A51280073EC000900421DA
:10394300E0FCA3E0FD9015A1E0FEA3E0FFA512803B
:103953000559E4FCFDD000A51280062E900B05A5A9
:10396300128007929015A4E0640170030239FCE40D
:103973009015A3F09015A3E0FFC39403505FEF25C8
:10398300E025E024E6F582E4340AF583E06401707F
:10399300449015A4E0FF30E208900B1D7401F08001
:1039A3000AEF30E106900B1D7402F09015A3E02599
:1039B300E025E024E7F582E4340AF5837402F0A5F8
:1039C30012809FE09015A3E0B50712900B1DE060F5
:1039D3000CC22680089015A3E004F080979015A4EC
:1039E3007401F090159DE0FFC39015A2E09F901520
:1039F300A1E09400500302375AE49015A1F0A3F01C
:103A030090159EE0FF7003023ABA7A237B937D02FE
:103A1300A51280878EEF70767FE87E03A5128083E0
:103A230030E49015A0F09015A0E0C3940250547CAC
:103A3300237D937F02A5128086B0EF6401603290EC
:103A43002396E0FD545060079015A5E04404F0ED83
:103A5300542860079015A5E04402F07F02A5128167
:103A63002D569015A1EEF0A3EFF0E49015A0F08091
:103A7300129015A0E004F0E47FE87E03A512808392
:103A83003080A39015A0E0C39402400980009015F4
:103A9300A5E04404F0900423E0FCA3E0FD9015A10D
:103AA300E0FEA3E0FFA512800559C390046FE09FD9
:103AB300F090046EE09EF09015A1E0FEA3E0FF906D
:103AC3000B17EE8FF0A512800600900B0DA5128048
:103AD300073EC000900423E0FCA3E0FD9015A1E0A5
:103AE300FEA3E0FFA512800559E4FCFDD000A5125A
:103AF30080062E900B0DA512800792900B05A51240
:103B030080073EC000900423E0FCA3E0FD9015A1D4
:103B1300E0FEA3E0FFA512800559E4FCFDD000A55B
:103B23001280062E900B05A5128007929015A5E032
:103B330064017003023BC2E49015A3F09015A3E067
:103B4300FFC39403505DEF25E025E024E6F582E40E
:103B5300340AF583E0640270429015A5E0FF30E279
:103B630008900B1E7401F0800AEF30E106900B1EE3
:103B73007402F0A512809FE09015A3E0FEB507083C
:103B8300900B1EE06002C226EE25E025E024E7F557
:103B930082E4340AF5837402F080089015A3E004EC
:103BA300F080999015A57401F090159EE0FFC390E5
:103BB30015A2E09F9015A1E09400500302375AE448
:103BC3009015A1F0A3F090159FE0FF7003023C7ADB
:103BD3007A237BA87D03A51280878EEF70707FE820
:103BE3007E03A512808330E49015A0F09015A0E029
:103BF300C39402504EA5128086AAEF6401603290EE
:103C030023ABE0FD545060079015A6E04404F0EDAB
:103C1300542860079015A6E04402F07F03A51281A3
:103C23002D569015A1EEF0A3EFF0E49015A0F080CF
:103C3300129015A0E004F0E47FE87E03A5128083D0
:103C43003080A99015A0E0C394024009800090152C
:103C5300A6E04404F0900425E0FCA3E0FD9015A148
:103C6300E0FEA3E0FFA512800559C390046FE09F17
:103C7300F090046EE09EF09015A1E0FEA3E0FF90AB
:103C83000B19EE8FF0A512800600900B11A5128080
:103C9300073EC000900425E0FCA3E0FD9015A1E0E1
:103CA300FEA3E0FFA512800559E4FCFDD000A51298
:103CB30080062E900B11A512800792900B05A5127A
:103CC30080073EC000900425E0FCA3E0FD9015A111
:103CD300E0FEA3E0FFA512800559E4FCFDD000A59A
:103CE3001280062E900B05A5128007929015A6E070
:103CF3006401700302375AE49015A3F09015A3E012
:103D0300FFC39403505DEF25E025E024E6F582E44C
:103D1300340AF583E0640370429015A6E0FF30E2B5
:103D230008900B1F7401F0800AEF30E106900B1F1F
:103D33007402F0A512809FE09015A3E0FEB507087A
:103D4300900B1FE06002C226EE25E025E024E7F594
:103D530082E4340AF5837402F080089015A3E0042A
:103D6300F080999015A67401F090159FE0FFC39021
:103D730015A2E09F9015A1E0940002375A9015A771
:103D8300E07012900B27741BA512808829E47FD062
:103D93007E07023F53A51280DC7C900B277401A59C
:103DA30012808829900B277420F07E007F147D00F9
:103DB3007B007A047970A5128008A6900B27E0FF98
:103DC30025E025E02474F582E43404F583E493FDCF
:103DD3007C00C004C005EF25E025E02471F582E4F2
:103DE3003404F583A5128007C078707C047D00D06D
:103DF30007D006A51280052D900B27E025E025E0CE
:103E03002474F582E43404F583E4939015A3F090CD
:103E13000468E0FEA3E0FFEE6003023F2DEF24F60B
:103E2300604024A67003023EC124636003023F2D59
:103E33009015A3E02470F9E43404FA7B00C003C0B6
:103E430002C0017B807A03790E901B89A51280073B
:103E5300B690042FE0FFA3E0901B8CCFF0A3EF02FA
:103E63003F1B9015A3E02470F9E43404FA7B00C0EF
:103E730003C002C0017B807A037911901B89A512CC
:103E83008007B6900468E0FAA3E0FB90042FE0FEFD
:103E9300A3E0FFAD03AC02A51280056C901B8CEE72
:103EA300F0A3EFF090042FE0FEA3E0FFAD03AC021C
:103EB300A51280056C901B8EECF0A3ED805A901533
:103EC300A3E02470F9E43404FA7B00C003C002C009
:103ED300017B807A037917901B89A5128007B6901E
:103EE3000468E0FAA3E0FB90042FE0FEA3E0FFAD3B
:103EF30003AC02A51280056C901B8CEEF0A3EFF0CF
:103F030090042FE0FEA3E0FFAD03AC02A5128005F1
:103F13006C901B8EECF0A3EDF0D001D002D003A582
:103F2300128009499015A3E02FF0D21A7B007A047E
:103F33007970901816A5128007B69015A3E0901813
:103F430019F07D01E4FFA51280885FE47FC47E0938
:103F5300A5128083307F00A522D3900B26E0940026
:103F6300900B25E0940050030240A5900420E070DC
:103F7300030240A1A51280A003EF6401600CE4904A
:103F8300046EF0A3F07F020240A7900B27741FA5D5
:103F9300128088297E007F147D007B007A0479706B
:103FA300A5128008A67E007F147D007B007A047929
:103FB30070A5128008A6900468E0FEA3E0FFEE60FF
:103FC3000302406DEF24F6603924A6603524636054
:103FD3000302406D7B807A047930901B89A512809F
:103FE30007B690051DA5128007C0901B8CA51280F3
:103FF30007B6900B25E0FFA3E0901B8FCFF0A3EF54
:1040030080577B807A047935901B89A5128007B687
:1040130090051DA5128007C0901B8CA5128007B6C2
:10402300900468E0FAA3E0FB900B25E0FEA3E0FF19
:10403300AD03AC02A51280056C901B8FEEF0A3EFCD
:10404300F0900B25E0FEA3E0FFAD03AC02A51280C8
:10405300056C901B91ECF0A3EDF07B007A04797072
:10406300A51280094990159BEFF0D21A7B007A04C0
:104073007970901816A5128007B690159BE09018DA
:1040830019F07D01E4FFA51280885F900B25E0FF06
:10409300A3E090046ECFF0A3EFF07F0080067F01D2
:1040A30080027F02A522900B27740FA51280882916
:1040B3007F02A512808FB8E47FDC7E05A512808382
:1040C300307F00A522E490159BF0A51280DB42907F
:1040D3000485E04440F0900B27740DA512808829D5
:1040E3007F01A522E490159BF0902DF3F090000240
:1040F300F0A5128095A49001C67402F0302907A59B
:1041030012807F45C2299028AD7401F0A51280BAB0
:10411300B35007A51280459880F2E49028ADF0D201
:104123001A9004B9A5128007C0901816A51280072B
:10413300B69004BCA512808856D21A7B807A047983
:104143005A901816A5128007B69018197401F0FD3D
:10415300E4FFA51280885FA512808FA59001C67425
:1041630001F0E4900484F0A3F0D226202907A512DD
:10417300807FADD229D228E490159BF090159BE067
:10418300FFC39440505DE0FE25E025E024DCF5828A
:10419300E4342BF583E0FD75F005EE900004A512E1
:1041A30080079FE06D7034EF25E025E024DEF58283
:1041B300E4342BF583E0B4012290159BE075F00500
:1041C300900006A51280079FE0FEA3E04E700C90BE
:1041D3000484E04404F0A3E0F0800890159BE0041D
:1041E300F0809990159BE0644060028055A5128091
:1041F3009A24E490159BF090159BE0FFC3944050E4
:104203001875F005EF900005A51280079FE0541F75
:10421300F090159BE004F080DE900B1BE070032010
:10422300260D900B1CE06007900485E04402F07DAE
:1042330053E4FFA512809E86BF0207900485E044E5
:1042430040F0E4900B29F090041FF0900144F0A398
:10425300F0A5128141FA7F00A522E490159BF0A3FB
:10426300F090000075F001A512800600C3900001D4
:10427300E094E8900000E094034017E4F0A3F07D9D
:10428300517F01A512809E86BF0207900485E044FA
:1042930040F020280302456EA5128095A4900B27B9
:1042A3007410A512808829E47FF47E01A51280830F
:1042B30030900484E0FEA3E0FF30E00990159C7485
:1042C300F1F002434FEF30E10890159C74F2F08057
:1042D3007BEF30E20890159C74F3F0806FEF30E3CE
:1042E3000890159C74F4F08063EF30E40890159CFB
:1042F30074F5F08057EF30E50890159C74F6F08064
:104303004BEF30E60890159C74F7F0803FEF30E7F1
:104313000890159C74F8F08033EE30E00890159CFB
:1043230074F9F08027EE30E10890159C74FAF08060
:104333001BEE30E20890159C74FBF0800FEE901595
:104343009C30E30574FCF0800374FFF0202B030220
:10435300450B90042FE07002A3E0700302450B7B32
:10436300807A04795C901B89A5128007B690159C0E
:10437300E0901B8CF07B007A047970A512800949C8
:1043830090159BEFF0900B277420F0E0FE25E025BD
:10439300E02474F582E43404F583E493FD7C00C0E7
:1043A30004C005EE25E025E02471F582E43404F52C
:1043B30083A5128007C0C00174702FF9E43404A8E8
:1043C30001FC7D00D001D007D006A51280052D90F9
:1043D3000B27E025E025E02474F582E43404F5831B
:1043E300E493FF90159BE02FF0900468E0FEA3E0B8
:1043F300FFEE6003024507EF24F6604024A6700336
:1044030002449B2463600302450790159BE02470DC
:10441300F9E43404FA7B00C003C002C0017B807A54
:1044230003790E901B89A5128007B690042FE0FF35
:10443300A3E0901B8CCFF0A3EF0244F590159BE013
:104443002470F9E43404FA7B00C003C002C0017B8A
:10445300807A037911901B89A5128007B6900468AE
:10446300E0FAA3E0FB90042FE0FEA3E0FFAD03AC72
:1044730002A51280056C901B8CEEF0A3EFF0900464
:104483002FE0FEA3E0FFAD03AC02A51280056C9004
:104493001B8EECF0A3ED805A90159BE02470F9E499
:1044A3003404FA7B00C003C002C0017B807A037925
:1044B30017901B89A5128007B6900468E0FAA3E061
:1044C300FB90042FE0FEA3E0FFAD03AC02A5128036
:1044D300056C901B8CEEF0A3EFF090042FE0FEA38D
:1044E300E0FFAD03AC02A51280056C901B8EECF0CF
:1044F300A3EDF0D001D002D003A512800949901595
:104503009BE02FF0C22B80267B807A04795C901B82
:1045130089A5128007B690159CE0901B8CF07B0058
:104523007A047970A51280094990159BEFF0D21A8D
:104533007B007A047970901816A5128007B690153F
:104543009BE0901819F07D01E4FFA51280885FE4D9
:104553007FF47E01A512808330C2289001C67402C5
:10456300F0A51280DC7CA51280DA64900446E06436
:104573000160047F01801C900002E0700FA512808F
:10458300A082EF700790000204F08005A51280BCA2
:10459300FD7F01A522E490159EF0D217A3F0A3F0AE
:1045A300024D6090159FE06003024D70F0D217A595
:1045B30012808FA5D21A9016ADA5128007C090184D
:1045C30016A5128007B69016B0A512808856D21A87
:1045D3009016B1A5128007C0901816A5128007B6D1
:1045E3009016B4A51280895F90159C7401F0A30402
:1045F300F0201703024A7AA5128096D19015A0EFF6
:10460300F024F3700302479024F2700302478B24D3
:10461300CB70030246DF24086003024A6B90159DAA
:10462300E06402702DD21A9017937402F0D21BE447
:10463300FDFFA51280897C90159D7401F090159C57
:10464300E070067405F0024A6B90159CE014F002CA
:104653004A6BD21A90159CE0FF25E025E024ADF5C6
:1046630082E43416F583A5128007C0901816A512AC
:104673008007B6EF25E025E024B0F582E43416F593
:1046830083E493901819F07D01E4FFA51280885FFD
:1046930090159CE070057405F0800690159CE0145D
:1046A300F0D21A90159CE0FF25E025E024ADF582B9
:1046B300E43416F583A5128007C0901816A512805E
:1046C30007B6EF25E025E024B0F582E43416A51201
:1046D30080885490159D7401F0024A6B90159DE0FB
:1046E3006401701AA51280896E90159CE0B40505CB
:1046F300E4F002478290159CE004F0024782D21A4C
:1047030090159CE0FF25E025E024ADF582E4341606
:10471300F583A5128007C0901816A5128007B6EF7F
:1047230025E025E024B0F582E43416A512808854F0
:1047330090159CE0B40504E4F0800690159CE00419
:10474300F0D21A90159CE0FF25E025E024ADF58218
:10475300E43416F583A5128007C0901816A51280BD
:1047630007B6EF25E025E024B0F582E43416F5839F
:10477300E493901819F07D01E4FFA51280885F90FF
:10478300159D7402F0024A6BC217024A6BC21AE407
:10479300901793F0D21BFDA512808F9F90159CE07C
:1047A300146027147003024919147003024920147A
:1047B300700302492714700302492E240560030283
:1047C3004933A51280E44E024933E49015A0F090DA
:1047D300159E04F0D21A7B807A167955901816A587
:1047E300128007B69018197411A51280885BD21A2B
:1047F3007B807A167967901816A5128007B69018F1
:10480300197411F07D01E4FFA51280885F90159E55
:10481300E0B4011EA5128096D19015A0EFF0641BA1
:104823006010E0640D600BE47F64FEA512808330AA
:1048330080DB9015A0E0641B7003024933E49015FC
:10484300A0F09015A0E0FFC394404003024908EF95
:1048530025E025E024DEF582E4342BF583E06401D2
:1048630060030248FF9015A0E0FF75F00590000477
:10487300A51280079FE0FEEF25E025E024DCF5820A
:10488300E4342BF583E06E706290046BE0B40112A4
:104893009015A0E075F005900005A51280079FE034
:1048A30080449015A0E0FF25E025E024DFF582E4B5
:1048B300342BF583E0FE75F005EF900008A5128018
:1048C300079FEEF09015A0E0FF75F005900005A599
:1048D3001280079FE0FE30E22375F005EF9000059C
:1048E300A51280079FEE54FBF080119015A0E07590
:1048F300F005900008A51280079FE4F09015A0E052
:1049030004F0024845902DF87401F0E490159EF0F0
:104913009015A0F0801AA51280C6F18013A512800D
:10492300E554800CA512806B008005A512807015DC
:1049330090159DE0640260030249CA90159CE070E3
:1049430017D21A9016C1A5128007C0901816A51287
:104953008007B69016C4802FD21A90159CE0FF25CD
:10496300E025E024A9F582E43416F583A512800737
:10497300C0901816A5128007B6EF25E025E024ACF9
:10498300F582E43416F583A512808856D21A901561
:104993009CE0FF25E025E024ADF582E43416F583A1
:1049A300A5128007C0901816A5128007B6EF25E060
:1049B30025E024B0F582E43416F583E493901819C6
:1049C300F07D01E4024A5D90159CE0B40517D21A0C
:1049D3009016ADA5128007C0901816A5128007B6D1
:1049E3009016B0802FD21A90159CE0FF25E025E0A9
:1049F30024B1F582E43416F583A5128007C090181C
:104A030016A5128007B6EF25E025E024B4F582E46D
:104A13003416F583E493901819F07D01E4FFA51291
:104A230080885FD21A90159CE0FF25E025E024AD35
:104A3300F582E43416F583A5128007C0901816A5F5
:104A4300128007B6EF25E025E024B0F582E43416A2
:104A5300F583E493901819F0E4FDFFA51280885FB5
:104A630090159DA512808F91A5128082D77F0AA5EC
:104A730012807EAB0245F4E47F2C7E01FDFC90188E
:104A83004A7423F0A37469F0A512808338A51281B8
:104A93002D8FD21AE4901793F0D21BFDFFA512803D
:104AA300897CD21AE4901793F0D21BFD7F01A512E3
:104AB30080897C902DF8E07003302E4ED21A7B80D3
:104AC3007A167979901816A5128007B6901819747A
:104AD3000BA51280885BD21A7B807A167985901891
:104AE30016A5128007B69018197401F0FDE4FFA50E
:104AF3001280885FE47FDC7E05FDFC90184A7423F6
:104B0300F0A37469F0A512808338902DF8E0700348
:104B1300024BD7A51280DA64E47F64FEA51280837A
:104B2300307E017F407D007B007A1579A1A512803C
:104B330008A67F807E027D087C007538157539A133
:104B4300A51280D888E490159EF090159EE0FF751D
:104B5300F0059015A5A51280079FE0FE75F005EFFF
:104B6300900008A51280079FE06E705790159EE095
:104B730075F0059015A2A51280079FE0FE75F0055C
:104B8300EF900005A51280079FE0B5063690159EAD
:104B9300E075F0059015A3A51280079FE0FCA3E044
:104BA300FD75F005EF900006A51280079FE0FEA3B8
:104BB300E0B5050FEEB5040B90159EE004F0E0643C
:104BC30040708790159EE064406004A37401F0E494
:104BD300902DF8F0202E03024CCBA51280DC7CE450
:104BE3007F64FEA5128083307E007F4E7D007B00B4
:104BF3007A1679E1A5128008A67F807E017D087C64
:104C0300007538167539E1753A00753B4EA512806B
:104C1300D88E9016E1E0FF900420E06F6003024C11
:104C2300C39016E2E0FEA3E0FF900421E06E700360
:104C3300A3E06F6003024CC39016E4E0FEA3E0FF21
:104C4300900423E06E7003A3E06F70749016E6E0A7
:104C5300FEA3E0FF900425E06E7003A3E06F706095
:104C63009016E8E0FF900427E06F70549016E9E097
:104C7300FF900428E06F70489016EAE0FEA3E0FF7F
:104C8300900429E0B50639A3E0B507349016ECE0AB
:104C9300FEA3E0FF90042BE0B50625A3E0B50720B3
:104CA3009016F0E0FEA3E0FF90042FE0B50611A3F9
:104CB300E0B5070C90172EE0FF90046DE06F6006DF
:104CC30090159F7401F0C22E90159FE07003024D62
:104CD30067A512808FA5D21A7B807A1679879018E0
:104CE30016A5128007B69018197414A51280885B54
:104CF300D21A7B807A16799C901816A5128007B673
:104D03009018197410F07D01E4FFA51280885F7577
:104D13001D0FE490159EF0E51D603BA5128090B633
:104D2300A5128096D19015A0EFF0F460EA9015A03B
:104D3300E024E56010240E70DEE490159FF09015DA
:104D43009E04F0800A90159F7401F090159EF090D8
:104D5300159EE0B401C1E51D60030245A690159FB1
:104D6300F00245A690159F7401F00245A6A50280A6
:104D73008FA590174AEDF0901749EFF0E490174B89
:104D8300F0EF14602014602F14604414605924045D
:104D93006003024E17900B1BE0FF30E7028050EFD9
:104DA30030E06C8062900B1CE0FF30E7028040EF44
:104DB30030E00280528058900B1DE0FF30E7028004
:104DC3002EEF30E1028034EF30E002803A804090F1
:104DD3000B1EE0FF30E7028016EF30E102801CEF8C
:104DE30030E00280228028900B1FE0FF30E708901C
:104DF300174B7402F0801DEF30E10890174B7403DA
:104E0300F08011EF30E00890174B7401F08005E457
:104E130090174BF0301903024EFD901749E0FF2520
:104E2300E025E024E0F582E4340EF583E493FD7C91
:104E330000C004C005EF25E025E024DDF582E4345D
:104E43000EF583A5128007C0784C7C177D00D00730
:104E5300D006A51280052D90174BE0FF25E025E035
:104E63002404F582E4340FF583E493FD7C00C0044D
:104E7300C005EF25E025E02401F582E4340FF58336
:104E8300A5128007C0C001901749E025E025E02462
:104E9300E0F582E4340EF583E493244CF9E434170B
:104EA300A801FC7D00D001D007D006A51280052DF6
:104EB30090174AE0FDD21A7B007A17794C901816A6
:104EC300A5128007B690174BE025E025E02404F5F2
:104ED30082E4340FF583E493FF901749E025E0253E
:104EE300E024E0F582E4340EF583E4932F9018195F
:104EF300F0E4FFA51280885F800590174BE0FFA5C3
:104F03002290172FE0FF7D01901748EDF09017478F
:104F1300EFF06405601CE0FF64076016EF6408604F
:104F230011EF6406600CA3E0FDC219A512804D7554
:104F33008041901748E0FDD21A901747E0FF25E023
:104F430025E024DDF582E4340EF583A5128007C045
:104F5300901816A5128007B6EF25E025E024E0F5AA
:104F630082E4340EF583E493901819F0E4FFA5125C
:104F730080885FA522E4901771F0A3F0A3F0A3F05B
:104F8300A37408F0A37402F090177814F0E4A3F06C
:104F930090177774FFF0A512808FA5A51280896EF4
:104FA3009017767402F0E4901771F0901771E0FF98
:104FB300C39440501D75F005EF900004A5128007BF
:104FC3009FE0600E901779E004F0901771E004F011
:104FD30080D9901778E070030253157E007F157D0A
:104FE300007B007A177947A5128008A67E007F15FB
:104FF3007D007B007A17795CA5128008A6E49017E0
:1050030072F0901771F0901774E0901771F0901789
:1050130075E0FF901771E0FEC39F40030252979023
:105023001774E02404FDE433FCEEC39DEC6480F8C4
:105033007480984003025153901771E075F0059006
:105043000004A51280079FE0700302528E9017722E
:10505300E075F005A42447F9741735F0FA7B00C016
:1050630003C002C0017B807A0E792D901B89A512A3
:105073008007B6901771E075F005900004A51280C3
:10508300079FE0901B8CF0D001D002D003A51280C3
:105093000949E4901773F0901771E0FF75F00590DC
:1050A3000008A51280079FE070069017737403F041
:1050B30075F005EF900005A51280079FE0FF540FE0
:1050C300901773F020E004E4F08045901773E0FE3E
:1050D30030E0057401F08038EE30E1089017737406
:1050E30002F0802CEE30E2089017737403F08020F6
:1050F300EE30E31C30E313901771E075F005900078
:1051030005A51280079FEF54F0F09017737404F015
:10511300901773E0FF25E025E02414F582E4340FB3
:10512300F583E493FD7C00C004C005EF25E025E092
:105133002411F582E4340FF583A5128007C0C00162
:10514300901772E075F005A4244AF9741702527699
:10515300901779E0FF901771E0FEC39F400302525E
:105163009775F005EE900004A51280079FE0700389
:1051730002528E901772E075F005A42448F9741753
:1051830035F0FA7B00C003C002C0017B807A0E7940
:105193002D901B89A5128007B6901771E075F00555
:1051A300900004A51280079FE0901B8CF0D001D0E3
:1051B30002D003A512800949E4901773F090177188
:1051C300E0FF75F005900008A51280079FE07006C8
:1051D3009017737403F075F005EF900005A5128026
:1051E300079FE0FF540F901773F020E004E4F08072
:1051F30045901773E0FE30E0057401F08038EE301F
:10520300E1089017737402F0802CEE30E2089017D7
:10521300737403F08020EE30E31C9017737404F072
:1052230030E313901771E075F005900005A5128027
:10523300079FEF54F0F0901773E0FF25E025E0247B
:1052430014F582E4340FF583E493FD7C00C004C0BD
:1052530005EF25E025E02411F582E4340FF583A55D
:10526300128007C0C001901772E075F005A4244BAB
:10527300F9741735F0A801FC7D00D001D007D006E2
:10528300A51280052D901772E004F0901771E004C9
:10529300F00250117B007A177947A512800010EFB6
:1052A3004E70127B007A17795CA512800010EF4EC6
:1052B30070030253B7D21A7B007A177947901816F6
:1052C300A5128007B69018197414A51280885BD2B2
:1052D3001A7B007A17795C901816A5128007B6908E
:1052E3001772E024FC75F005A4901819F07D01E411
:1052F300FFA51280885F901776E014FDD21A9017ED
:10530300937402F0D21BE4FFA51280897CE490170A
:1053130078F0A5128096D1901777EFF024E570030B
:105323000253B724CB60462408707A901776E0B412
:10533300021AD21A9017937402F0D21BE4FDFFA550
:105343001280897C9017767401F08059901774E06D
:10535300D394004050901774E024FCF0A3E024FCA5
:10536300F09017787401F0901776F08038901776E4
:10537300E0B4010DA51280896E9017767402F08057
:1053830024901779E0FF901775E0C39F501790178B
:1053930074E02404F0A3E02404F09017787401F07F
:1053A30090177604F0A5128082D77F0AA512807E1B
:1053B300AB024FD5A522901747EFF0A3EDF0E49091
:1053C300175EF0A3F0901812F0A3F0FE7F15FD7B9B
:1053D300007A177949A5128008A6900446E0640173
:1053E30060567B807A0E7934901B89A5128007B6AC
:1053F3007B007A177949A51280094990175FEFF06E
:10540300901748E014FDD21A7B007A177949901857
:1054130016A5128007B690175FE0901819F0E4FF05
:10542300A51280885FE47FDC7E05A512808330901F
:105433000B237480F0025759901747E0640160030F
:105443000255177B807A0E7945901B89A512800738
:10545300B67B007A177949A51280094990175FEF47
:10546300F0901748E014FDD21A7B007A177949901F
:105473001816A5128007B690175FE0901819F0E48C
:10548300FFA51280885FE47FF47E01A5128083303C
:10549300A5128131C290175EEFF0BF03087B807ABB
:1054A3000E7954800A90175EE07B807A0E796390C0
:1054B3001B89A5128007B67B007A177949A512804C
:1054C300094990175FEFF0901748E014FDD21A7B5B
:1054D300007A177949901816A5128007B690175FBE
:1054E300E0901819F0E4FFA51280885FE47FDC7E6A
:1054F30005A512808330901748E014FDD21A900E50
:10550300F1A5128007C0901816A5128007B6900E59
:10551300F402574CA51280AF7B40030256DF7B8019
:105523007A0E7945901B89A5128007B67B007A17FE
:105533007949A51280094990175FEFF0901748E069
:1055430014FDD21A7B007A177949901816A5128098
:1055530007B690175FE0901819F0E4FFA512808852
:105563005FE47FF47E01A5128083307E007FA07DFF
:10557300007B007A177972A5128008A67B807A0EC9
:105583007974901B89A5128007B6900431E0901BB3
:105593008CF0900432E0901B8DF0900433E0901B6C
:1055A3008EF0900434E0901B8FF0900435E0901B54
:1055B30090F0900436E0901B91F07B007A1779729B
:1055C300A512800949901770E4F0A3740AF078607B
:1055D3007C177D007B007A0479367E007F10A5124C
:1055E30080052D7B007A177960A512814013EF6443
:1055F3000170097B807A0E79890256E5E490175E83
:10560300F07FF47E01A512808330A5128141CD90F5
:10561300175EEFF06011E47F32FEA51280833090B5
:10562300175EE0640260E390175EE070267B807A89
:105633000E799C901B89A5128007B67B007A177997
:1056430049A51280094990175FEFF0E4900B23F00E
:10565300025702A5128141F0901812EEF0A3EFF069
:105663007B807A0E79A9901B89A5128007B67B00EF
:105673007A177949A51280094990175FEFF09017BF
:1056830048E014FDD21A7B007A177949901816A5C1
:10569300128007B690175FE0901819F0E4FFA51287
:1056A30080885FE47FDC7E05A5128083307B807A6F
:1056B3000E79B8901B89A5128007B6901812E0FFE7
:1056C300A3E0901B8CCFF0A3EFF07B007A1779490E
:1056D300A51280094990175FEFF080237B807A0E33
:1056E30079C8901B89A5128007B67B007A17794980
:1056F300A51280094990175FEFF0E4900B23F09017
:105703001748E014FDD21A7B007A177949901816CE
:10571300A5128007B690175FE0901819F0E4FFA573
:105723001280885FE47FDC7E05A5128083309017AA
:1057330048E014FDD21A900EF5A5128007C0901808
:1057430016A5128007B6900EF8E493901819F0E4AA
:10575300FFA51280885FA522901738E0FDD2197F3C
:105763000190173CEFF0A3EDF0E4901754F0FE7FA7
:1057730016FD7B007A17793EA5128008A690173D87
:10578300E06403607AE0FF25E025E024A6F582E4E7
:105793003417F583E493FD7C00C004C005EF25E0D6
:1057A30025E024A3F582E43417F583A5128007C00E
:1057B300783E7C177D00D007D006A51280052D30DA
:1057C3001905A51280DDC490173CE0FDD21A7B00B9
:1057D3007A17793E901816A5128007B690173DE008
:1057E30025E025E024A6F582E43417F583E493FF4E
:1057F300901754E0FEEF2E901819F0E40258B520EC
:105803001939D21A90173DE0FF25E025E024A3F5CE
:1058130082E43417F583A5128007C0901816A512E9
:105823008007B6EF25E025E024A6F582E43417F5DA
:1058330083E493901819F0E4FD807790173DE0FF1F
:1058430025E025E024A6F582E43417F583E493FDEF
:105853007C00C004C005EF25E025E024A3F582E425
:105863003417F583A5128007C0783E7C177D00D0DE
:1058730007D006A51280052DA51280DDC490173C24
:10588300E0FDD21A7B007A17793E901816A5128094
:1058930007B690173DE025E025E024A6F582E43421
:1058A30017F583E493FF901754E0FEEF2E90181939
:1058B300F0E4FFA51280885FA522901733EFF0A3D1
:1058C300EDF0E490173FF0A37405F07E007F0A7DAE
:1058D300007B007A177935A5128008A6901733E06C
:1058E300FF64017057EF25E025E024A3F582E4343B
:1058F30017F583A5128007C0C003C002C001EF25BE
:10590300E025E024A6F582E43417F583E493FD90C3
:105913001734E0901759F07B007A177935A3A51255
:105923008007B67A17794090175DA5128007B6D025
:1059330001D002D003A51280CC5C8059901733E0CC
:10594300FF25E025E024A3F582E43417F583A512AF
:105953008007C0C003C002C001EF25E025E024A6F4
:10596300F582E43417F583E493FD901734E0901740
:1059730072F07B007A177935A3A5128007B67A17E0
:105983007940901776A5128007B6D001D002D003D4
:10599300A51280CFB790173FEFF0A512808FA59087
:1059A300173FE064017031C21A901793F0D21BFDC8
:1059B300FFA51280897C901733E0FF7A177B35901F
:1059C300175A7417F0A37440F0D21AE4FDFCA51221
:1059D30080DDF1A512808FA5C3A522901739E0FDC4
:1059E300D219E4FF90173EEFF0A3EDF0E4A3F0FE2D
:1059F3007F2CFD7B007A2D79A3A5128008A62019A0
:105A030037D21A90173FE0FF25E025E024B8F5824E
:105A1300E43410F583A5128007C0901816A51280F0
:105A230007B6EF25E025E024BBF582E43410A51288
:105A33008088547F00025B3B90173FE0FF25E02501
:105A4300E024BBF582E43410F583E493FD7C00C0CD
:105A530004C005EF25E025E024B8F582E43410F511
:105A630083A5128007C078A37C2D7D00D007D006C4
:105A7300A51280052D90173FE0FF25E025E024BB0C
:105A8300F582E43410F583E49324A3F582E4342D02
:105A9300AD82FC90175A7417F0A37440F0C21AE455
:105AA300FBFAA51281000090173EE0FDD21A7B009D
:105AB3007A2D79A3901816A5128007B690173FE0A8
:105AC30025E025E024BBF582E43410F583E493FF5D
