:020000040000FA
:09000000021262080001038400F1
:10000B00A50280FA6BE4FFFEA54860090FEF7001B3
:07001B000EA56980F3A52288
:10002300A502806E36EFB40A09740DA5128000355F
:10003300740A309811A899B8130CC2983098FDA887
:0F00430099C298B811F63099FDC299F599A52286
:10005300A50281090C20202020BBB6D3ADB9E2C193
:10006300D90020202020C1E3C7AEB2BBD7E32020B4
:1000730020200020202020D1A1D4F1C9CCC6B7B3C1
:10008300ACCAB120202020002020C7EBB2E5C8EB8A
:10009300B8FCD0A1C3E6B6EED6BDB1D200CAE4C85F
:1000A300EBC9CCC6B7B1E0BAC53A2000C8B7B6A809
:1000B300454E54455220C8A1CFFB43414E43454CC6
:1000C3000020202020C7EBC8A1C1E3C7AE00C8A110
:1000D300CFFB43414E43454C0020202020CAE4C8B7
:1000E300EBB4EDCEF300C8B7B6A8454E5445520065
:1000F3002020C7EBCDB6C8EBD6BDB1D2BBF2D3B28D
:10010300B1D200BFCDBBA7D3E0B6EE3A2000D1A158
:10011300D4F1C6E4CBFCC9CCC6B7C2F03F20002063
:10012300202020BBFAC6F7B9CAD5CF002020202053
:10013300C9CCC6B7D2D1CADBCDEA0020202020200B
:1001430020D0BB2020D0BB00202020202020D4DDC5
:10015300CDA3B7FECEF10020202020D5D2C1E3C627
:10016300F7B9CAD5CF0020202020C7EBC9D4BAF2F3
:100173002E2E2E00BDF0B6EEB2BBD7E32C20BCD39F
:10018300C7AEC2F03F2000D5FDD4DAC8A1C9CCC6A2
:10019300B7A3ACC7EBC9D4BAF200D5FDD4DAD5D234
:1001A300C1E3C7AEA3ACC7EBC9D4BAF20020202089
:1001B30020D5D2C1E3CAA7B0DC0020202020486F9D
:1001C300772061726520796F752100C7EBCAE4C897
:1001D300EBC6E4CBFCC9CCC6B7B1E0BAC50020205E
:1001E3002020C7EBC8A1D7DFC9CCC6B70020202089
:1001F30020C7EBC8A1D7DFC1E3C7AE00C9CCC6B7E0
:10020300BBF5B5C0B9CAD5CF002020D1A1D4F1C662
:10021300E4CBFCC9CCC6B7C2F03F0020202020208D
:1002230020B2D9D7F7B3ACCAB10020202020D5FD26
:10023300D4DACDCBBFEE00C7B7BFEE3A0020202003
:1002430020C7EBCDB6C8EBD3B2B1D200202020201B
:10025300C7EBB2E5C8EBD6BDB1D200B2BBD5D2C1B4
:10026300E3A3ACB9BAC2F2C7EBCDB6B1D20020203A
:1002730045563736333620534D532056332E3300ED
:100283002020BBB9D2AAB9BAC2F2C9CCC6B7C2F050
:100293003F00202020202020CEDEC1E3B1D2002069
:1002A300202020B5A5BCDB3A00BBF5B5C03A200041
:1002B300CEDEBBF5002020B9CAD5CF002020D5D291
:1002C300C1E320203A002020C4E3B5C4D3E0B6EE56
:1002D3003A00564D44455600564D52454300257548
:1002E3000025752E25750025752E2530327500568F
:1002F3004D4D53470025627500533030393000535C
:100303003030313000483031323000533033323006
:10031300004130323130004130313130004430312E
:100323003130004430313131004430313031004418
:1003330030323130004430323131004430323031E8
:1003430000443033313000443033313100443033F2
:1003530030310043303030310043303031300043EE
:100363002530326275303000533034323000564D10
:1003730053554D005230302D2530386C75005230B6
:10038300312D2530386C75005230322D2530386CC4
:1003930075005030302D2530386C75005030312DBC
:1003A3002530386C75005630302D2530386C75008B
:1003B3005630312D25303875005630322D253038E2
:1003C3007500257325627825627825627825627821
:1003D30025627800257325627500257320256275D3
:1003E300202D2025730025732025750025732025D6
:1003F300752E2530327500257325750025732575F7
:100403002E2530327500257325752E257500D1A153
:10041300D4F1C6E4CBFCC9CCC6B7002000D7B4CC1A
:10042300ACB4FAC2EB203D20253032627820008044
:1004330000580C800065108000761480008B1480B7
:1004430000A00E8000AF148000C40C8000D10A808D
:1004530000DC0C8000E9098000F3128001060A80A9
:100463000111108001220C80012F0E80013E0C80AF
:10047300014B0E80015A0E8001690D8001771280B5
:10048300018A1280019D128001B00C8001BD108091
:1004930001CE128001CE128001E10E8001F00E80A8
:1004A30001FF0C80020C1180021E0E80022D0C80B5
:1004B300023A058002400E80024F0E80025E1280D7
:1004C300027111800283118002950C8002A20980BF
:1004D30002AC068002B3048002B8088002BF098020
:1004E30002C90B8002D5058002DB058F828E83ED66
:1004F300F5F0FFECFEE8FDE58260020583458360CD
:100503000EA548A55CA569A56DD582F5D583F2AB8B
:10051300F0ECFAE8F9A522EF8DF0A4A8F0CF8CF067
:10052300A428CE8DF0A42EFEA522BC000CBE002B69
:10053300EF8DF084FFADF0A522E4CCF875F008EF61
:100543002FFFEE33FEEC33FCEE9DEC984005FCEE02
:100553009DFE0FD5F0E9E4CEFDA522EDF8F5F0EE12
:100563008420D21DFEADF075F008EF2FFFED33FDB3
:100573004008985007D5F0F2A522C398FD0FD5F097
:10058300E9A522C2D5EC30E709B2D5E4C39DFDE469
:100593009CFCEE30E717B2D5E4C39FFFE49EFEA5B3
:1005A3001280052DC3E49DFDE49CFC8005A512800B
:1005B300052D30D507C3E49FFFE49EFEA522C5F0B9
:1005C300F8A3E028F0C5F0F8E582158270021583E0
:1005D300E038F0A522A3F8E0C5F025F0F0E5821598
:1005E3008270021583E0C838F0E8A522EF2BFFEEF6
:1005F3003AFEED39FDEC38FCA52275F00875820052
:10060300EF2FFFEE33FECD33CDCC33CCC58233C5D4
:10061300829BED9AEC99E58298400CF582EE9BFE65
:10062300ED9AFDEC99FC0FD5F0D6E4CEFBE4CDFAC0
:10063300E4CCF9A882A522B800C0B9005BBA002EA9
:10064300EC8BF084CFCECDFCE5F0CBF97818EF2F0F
:10065300FFEE33FEED33FDEC33FCEB33FB10D7033E
:10066300994004EB99FB0FD8E5E4F9FAA522781831
:10067300EF2FFFEE33FEED33FDEC33FCC933C9102E
:10068300D7059BE99A4007EC9BFCE99AF90FD8E060
:10069300E4C9FAE4CCFBA52275F010EF2FFFEE338B
:1006A300FEED33FDCC33CCC833C810D7079BEC9A8F
:1006B300E899400AED9BFDEC9AFCE899F80FD5F018
:1006C300DAE4CDFBE4CCFAE4C8F9A522EB9FF5F01C
:1006D300EA9E42F0E99D42F0E89C45F0A522E0FC49
:1006E300A3E0FDA3E0FEA3E0FFA522E493FC7401D5
:1006F30093FD740293FE740393FFA522E0F8A3E035
:10070300F9A3E0FAA3E0FBA522E493F8740193F9BB
:10071300740293FA740393FBA5227401FF3395E0EB
:10072300FEFDFCA3A3A3E0CF2FF0E58215827002A8
:100733001583E0CE3EF0E582158270021583E0CD8D
:100743003DF0E582158270021583E0CC3CF0A522D2
:10075300ECF0A3EDF0A3EEF0A3EFF0A522A4258225
:10076300F582E5F03583F583A522E0FBA3E0FAA348
:10077300E0F9A522EBF0A3EAF0A3E9F0A522E493C4
:10078300FB740193FA740293F9A522F8D0E0F58380
:100793004480FBD0E0FAD0E0F9A5487012A5497077
:1007A3000EA56AA549C0E0A548C0E0C083A522A55F
:1007B3004A6860EFA56B80E1F8D0E0F5834480FBE5
:1007C300D0E0FAD0E0F9A5487012A549700EA56AE9
:1007D300A549C0E0A548C0E0C083A522A54AB5F05D
:1007E30005A54B6860EAA56880DCE8CDFFECFEA5B3
:1007F30048F5F0A54CA569A56DB5F00670F17F002D
:10080300A52263F0806480D395F07FFF40027F01CF
:10081300A522E8CDF5F0FFECFEA548A55CA569A5EA
:100823006D70F6E8F9ABF0ECFAA5228F828E83EDBA
:10083300FFECFEE8FDE58260020583458370047FDB
:1008430000A522A548F5F0A54CA569A56DB5F00650
:10085300D582F0D583ED7FFFB5F0030FA5224002CB
:100863007F01A522EF4E6019EF60010EED89828AA8
:10087300838BF0A558A569DFFADEF88BF0A982AA6D
:1008830083A522F8E0FBA3A3E0F925F0F0E58215A8
:100893008270021583E0FA38F0A522E52C24CEF508
:1008A30082E4341AF583E0052C22901ACB3014032A
:1008B300901ACEE475F001A512800886A54822207F
:1008C3000DE77F2ED20D8018EF540F2490D43440BF
:1008D300D4FF30110BEF24BFB41A0050032461FF7F
:1008E300E52D6002152D0530E5307002052F30141B
:1008F30010901ACBE475F001A512800886EFA55875
:1009030022A512800028227403D2148003E4C214A7
:10091300F52C901ACBA512800777E4F52DF52FF56A
:1009230030E52D60097F20A5128008E380F3752E42
:10093300FFC20EC20DC20FC210C212C213C21512E1
:1009430008ADFF700E3014057F001208F4AF30AE0F
:100953002FA522B4255FC2D5C2111208ADFF24D042
:10096300B40A00501A75F00A782D30D50508B6FF81
:100973000106C6A426F620D5047002D21080D9241D
:10098300CFB41A00EF5004C2E5D211020B0BD20E02
:1009930080C6D20D80C0D20F80BCD2D580BAD2120D
:1009A30080B47F201208E3200F077401B52D0040A7
:1009B300F112089EFF1208E3020924D215D2138014
:1009C3009512089EFB12089EFA12089EF94A4B7074
:1009D3000679DE7A0B7B80200F3AE52D60367E00A8
:1009E300E9C0E02EF9EAC0E03400FAA548F9D0E006
:1009F300FAD0E0C960060EEE652E70E4C2D5EBC0F6
:100A0300E0EAC0E0E9C0E0EE120B54D0E0F9D0E038
:100A1300FAD0E0FBA548FF609FEBC0E0EAC0E0E945
:100A2300C0E01208E3D0E02401F9D0E03400FAD0AA
:100A3300E0FBE52E0460DDD52EDA0209BB7B807A6C
:100A43000B7950D20F8090791080027908C213C2BB
:100A5300158008D2D5790A8004790AC2D5E52E0417
:100A63007002F52EE4FAFDFEFF12089EFC7B0820BF
:100A73000E1312089EFD7B10300D0A12089EFE1203
:100A8300089EFF7B20EC3382D592D55013C3E4300C
:100A93000D069FFFE49EFEE4200E039DFDE49CFCF7
:100AA300E4CBF8C20EEC700CCFCECDCCE824F8F832
:100AB30070F38017C3EF33FFEE33FEED33FDEC33FA
:100AC300FCEB33FB994002FB0FD8E9EB300E05F842
:100AD300D0E0C448B20EC0E00AEC4D4E4F78207B04
:100AE3000070C2EAB52E0040BCC0E0120B56D0F035
:100AF300D0E0200E04C4C0E0C4B20EC0F01208CC93
:100B0300D0F0D5F0EB020924A51280078E09C45357
:100B13000A4A5809954C0991420A4E4F0A56440A0B
:100B2300564909AA430A5C550A40460A40450A4009
:100B3300470BF95009992D099D2E09C02B09A123B3
:100B430009BE200BE72A095948000009B83F3F3F77
:100B530000790AA2D5201014301209B91002040436
:100B6300B9080104A2D5201302500104200F689292
:100B73000FB52D005034C0E07F203010197F30A214
:100B83000F72137212500F120BADC20FC213C212A7
:100B9300C2157F30800F301203E9C0E01208E33042
:100BA3001203D0E0F9D0E0B52DCC3012177F30B965
:100BB300100C1208E37F583011077F788003B908BF
:100BC300031208E3300F057F2D0208E37F20201571
:100BD300F87F2B2013F322920F80CF286E756C6C55
:100BE3002900D20E12089E300EF8C20E782D30D591
:100BF3000108F602095912089EC0E0C41208CCD0BD
:100C0300E01208CC743A1208D4D210752D04020AEB
:100C13004A3120D6BDB1D2C6F7D7B4CCAC3A200006
:100C23003220D3B2B1D2C6F7D7B4CCAC3A2000331A
:100C3300202331D5D2C1E3C6F7D7B4CCAC3A2000D8
:100C430034202332D5D2C1E3C6F7D7B4CCAC3A2093
:100C53000035202333D5D2C1E3C6F7D7B4CCAC3AA1
:100C630020003620CAD6BBFAC4A3BFE9D7B4CCACA4
:100C7300B2E2CAD4003720B6CCD0C5B2E2CAD4009F
:100C83003820BBF5B5C0D7B4CCAC003920BBF5B523
:100C9300C0BCECB2E200D5FDB3A300B9CAD5CF0006
:100CA300CEDE00B2BBD7E300BDFB00B6D400B4ED8B
:100CB30000C8B7B6A8456E74657220C8A1CFFB43C0
:100CC300616E63656C00D5FDD4DABCECB2E220251D
:100CD3003032627520BBF5B5C00020202020C7EB61
:100CE300C9D4B5C82E2E2E002020BBF5B5C0B0E563
:100CF3003A20B9CAD5CF202020002020BBF5B5C0AB
:100D030025303262753A20B9CAD5CF202020002081
:100D130020BBF5B5C02025303262753A2020D5FDC1
:100D2300B3A3200020202020D3B2B1D2C6F7B2E271
:100D3300CAD400C7EBCDB6B1D23A00D2D1CDB6C832
:100D4300EBBDF0B6EE3A20257500D2D1CDB6C8EB97
:100D5300BDF0B6EE3A2025752E257500D2D1CDB65D
:100D6300C8EBBDF0B6EE3A2025752E25303275005E
:100D73002020D3B2B1D2C6F7CAC7B7F1D5FDB3A30A
:100D83003F002530326275200020202020C4A3BFFD
:100D9300E9C3BBD3D0BFAAC6F400C4A3BFE9D5FD42
:100DA300C3A6A3ACC9D4BAF3D4D9CAD400C4A3BFCD
:100DB300E9B2E2CAD4CAA7B0DC00C4A3BFE9D5FD37
:100DC300B3A300564D4D53472562782562782562BB
:100DD3007825627825627800B2E2CAD4B6CCD0C551
:100DE300B7A2CBCDB3C9B9A600B2E2CAD4B6CCD0B0
:100DF300C5B7A2CBCDCAA7B0DC00B9CAD5CFB4FA68
:100E0300C2EB203D20257500D5FDD4DAB3F5CABC6D
:100E1300BBAFA3ACC9D4BAF3D4D9CAD400800C14E1
:100E23000E800C230E800C3210800C4310800C5467
:100E330010800C6512800C780A800C830A800C8E5B
:100E43000A800C9904800C9E04800CA302800CA6DB
:100E530004800CAB02800CAE02800CB102800CA3A8
:100E6300023120BBF5B1D2CAD5D6A7003220C9CCF6
:100E7300C6B7003320C7E5BFD5BCC7C2BC0031200D
:100E8300BBF5B1D2D7DCCAD5C8EB3A003220D6BD08
:100E9300B1D2CAD5C8EB3A003320D3B2B1D2CAD546
:100EA300C8EB3A003420BDBBD2D7D7DCBDF0B6EED9
:100EB3003A003520D5D2C1E3D7DCBDF0B6EE3A0017
:100EC30036202331B3F6B1D2D7DCBDF0B6EE3A000B
:100ED30037202332B3F6B1D2D7DCBDF0B6EE3A00F9
:100EE30038202333B3F6B1D2D7DCBDF0B6EE3A00E7
:100EF30039202331B3F6B1D2C3B6CAFD3A0031303B
:100F030020202332B3F6B1D2C3B6CAFD3A00313141
:100F130020202333B3F6B1D2C3B6CAFD3A00312041
:100F2300B3C9B9A6BDBBD2D7B4CECAFD3A003220ED
:100F3300D2C9CECABDBBD2D7B4CECAFD3A00332084
:100F4300B5A5BBF5B5C0BDBBD2D7CDB3BCC60031CB
:100F530020BBF5B5C0B1E0BAC53A003220B3C9B978
:100F6300A6BDBBD2D7CDB3BCC63A003320D2C9CEBF
:100F7300CABDBBD2D7B4CECAFD3A002020C4E3C851
:100F8300B7B6A8C2F03F00C8B7B6A8454E544552FD
:100F930020C8A1CFFB43414E43454C002020C3BB97
:100FA300D3D0BDBBD2D7BCC7C2BC00257500256258
:100FB3007500B1E0BAC5CAE4C8EBB4EDCEF300C71F
:100FC300EBCAE4C8EBC6E4CBFCB1E0BAC500256CC0
:100FD3007500256C752E256C7500256C752E2530D6
:100FE300326C7500800E640A800E6F06800E760ADE
:100FF300800E810D800E8F0B800E9B0B800EA70D34
:10100300800EB50D800EC30F800ED30F800EE30F3D
:10101300800EF30D800F010F800F110F800F210F32
:10102300800F310F800F4110800F520B800F5E0F26
:10103300800F6E0F800F7E0B800F8A14800F9F0E20
:1010430031202331D5D2C1E3C6F7C3E6D6B53A0082
:1010530032202332D5D2C1E3C6F7C3E6D6B53A0070
:1010630033202333D5D2C1E3C6F7C3E6D6B53A005E
:101073003420D4CAD0EDB6E0B4CEB9BAC2F23A0045
:101083003520B2BBC2F2BBF5CDCBB1D23A0036208C
:10109300BFAAC6F4D6BDB1D2C6F73A003720BFAA5D
:1010A300C6F4CAD6BBFAC4A3BFE93A003820D3E0DA
:1010B300B6EECFC2CFDE3A003920CAD5B1D2C9CFFE
:1010C300CFDE3A0031302020D2C9CECABDF0B6EE11
:1010D3003A0031312020BBFAC6F7B1E0BAC53A2055
:1010E3000031322047534DBAC5C2EB3A00313320A9
:1010F30020C7B7CCF53A0025750025752E25750058
:1011030025752E25303275002562750025326278EB
:10111300002530326278008010430F8010530F8017
:1011230010630F8010730F8010830D8010910D805A
:10113300109F0F8010AF0B8010BB0B8010C70D806A
:1011430010D50D8010E40B8010F009000500050098
:101153000500010001000100010005000500050074
:1011630005001000013120B2E3BCDCB1E0BAC53A9E
:10117300003220CAC7B7F1C6F4D3C33A003320D72D
:10118300EEB4F3B4E6BBF5C1BF3A003420B5DAD20E
:10119300BBBBF5B5C03A003520B5DAB6FEBBF5B535
:1011A300C03A003620B5DAC8FDBBF5B5C03A003702
:1011B30020B5DACBC4BBF5B5C03A003820B5DACEDA
:1011C300E5BBF5B5C03A003920B5DAC1F9BBF5B5D1
:1011D300C03A0031302020B5DAC6DFBBF5B5C03ADE
:1011E3000031312020B5DAB0CBBBF5B5C03A0025CC
:1011F300627500CAE4C8EBB2E3BCDCB1E0BAC53A3D
:1012030000B1E0BAC5CAE4C8EBB4EDCEF300C7EB56
:10121300CAE4C8EBC6E4CBFCB1E0BAC500801168F0
:101223000B8011740B8011800D80118E0B80119A2D
:101233000B8011A60B8011B20B8011BE0B8011CA5B
:101243000B8011D60D8011E40D0001000100020096
:10125300010001000100010001000100010001A5DE
:1012630075FF07758E0378FEE4F6D8FD75818DA5AD
:1012730075FB00759008A5028012A9A5028087EF6F
:10128300E493A3F85407240CC8C333C4540F442075
:10129300C8834004F456800146F6DFE4800B010264
:1012A3000408102040809013D0E47E019360CCA307
:1012B300FF543F30E509541FFEE493A360010ECFB2
:1012C30054E0B4E01CE493FBA3E493FAA3E493F99E
:1012D300A3E493A558A309E970010ADFF4DEF280C1
:1012E300C854C025E060254097E493A3FAE493A390
:1012F300F8E493A3C8C582C8CAC583CAF0A3C8C506
:1013030082C8CAC583CADFE9DEE7809DE493A3F8F8
:10131300E493A34003F68001F208DFF4808B312EBF
:10132300BBF5B5C0B2CECAFD00322ECCEDBBF50085
:10133300332EC9E8B1B8B9DCC0ED00342ECFB5CD3A
:10134300B3B2CECAFD00352EBDBBD2D7BCC7C2BC1B
:1013530000362EBBF5BCDCC5E4D6C300202020201C
:10136300C4E3C8B7B6A8CCEDBBF5C2F03F00C8B71D
:10137300B6A8454E54455220C8A1CFFB43414E4326
:10138300454C002020D5FDD4DAB1A3B4E6002000FB
:10139300B1A3B4E6CAA7B0DCA3ACD6D8D0C2C9E81F
:1013A300D6C33F002020454E5445522020204341C0
:1013B3004E43454C008013210A80132C06801333BF
:1013C3000A80133E0A8013490A8013540A410143D9
:1013D30000420A7C00004101C401410A7E0042032D
:1013E300DC000041000000C11AC11BC197C11CC130
:1013F30099C118412D2500412D2100412D2200C105
:1014030022412D2401412D23004127F000412302D5
:1014130001014B10462CA1080001009600412CE766
:1014230000C126014D00411C5B00410E1000410E1E
:101433000C004110DD01410E0E01C120C121410EFE
:101443001200410E13014114DE004114EF00410A62
:101453008100410A8200420C830000410C85004157
:101463000C8600410E07000041545A0041542B4999
:1014730050523D33383430300041544530004154EC
:101483002B435343533D22484558220041542B4399
:101493004D47463D300041542B434D4744413D3673
:1014A300002B434D54493A0041542B434D47533D80
:1014B3002564003E004552524F520041542B434D88
:1014C30047523D25626400002B434D47520041546F
:1014D3002B434D47443D2564004F4B00303132339D
:1014E300343536373839414243444546003120BB11
:1014F300F5B5C0B1E0BAC53A20003220B5A5BCDBD2
:101503003A20003320C9CCC6B7D3E0C1BF3A20008C
:101513003420BBF5B5C0D7B4CCAC3A20002530326B
:1015230062750025750025752E25750025752E25F8
:10153300303275002533627500256275008014F022
:101543000C8014FD088015060C8015130C20002058
:101553002020202020202020202020202020202088
:1015630020202000C7EBCAE4C8EBB1E0BAC53A209B
:1015730000B1E0BAC5CAE4C8EBB4EDCEF300C7EBE3
:10158300CAE4C8EBC6E4CBFCB1E0BAC50020202016
:101593002020202020202020202020202020202048
:1015A3002000C2D5E830E70FB2D5E4C39BFBE49A31
:1015B300FAE499F9E498F8EC30E71BB2D5A5128068
:1015C30015E1A51280063AE4C39BFBE49AFAE49979
:1015D300F9E498F88005A51280063A30D50DE4C3E6
:1015E3009FFFE49EFEE49DFDE49CFCA5224742325E
:1015F3003331320057494E31323532000D51961096
:1016030052640505050505050505040404040808D9
:1016130007FF0101010101010101020202020303AB
:1016230006FF50505050505050501B1B1B1B0D0DAC
:1016330018FF09090909090909092E2E2E2E000090
:1016430048FF000000010000000A000000640000E1
:1016530003E800002710000186A0000F4240009815
:10166300968005F5E10007020100960000010002E3
:101673000005000A001400320064000000000101AC
:1016830001000000080001009600901C4FEBF0A33E
:10169300EAF0A3E9F0A3E0FBA3E0FAA3E0F9A5488D
:1016A3007003021736901C4FE0FBA3E0FAA3E0F9A6
:1016B300A5487003021743A3E0F9A3E0FAA3E0A34C
:1016C300C9F0A3EAF0A3E9F0901C4FA3E0FAA3E06A
:1016D300F9901C58EBF0A3EAF0A3E9F0901C55E055
:1016E300FBA3E0FAA3E0F9A548FF6027A3E0FBA36F
:1016F300E0FAA3E0F9A5486F7019901C5675F00144
:10170300A5128005C1901C59E475F001A51280054E
:10171300C180C9901C55E0FBA3E0FAA3E0F9A548FA
:101723007002800F901C50E475F001A5128005C172
:101733000216A8901C4FE0FBA3E0FAA3E0F9800691
:101743007B007A007900A522EFC39461400BEF94EC
:101753007B5006EF24E0FF8000A522EFC3943040C6
:1017630007EF943A50028001C3A522E49014F3F0EA
:10177300A3F0A512807E13900A7E7405F0D20BE0CD
:10178300FF25E025E02432F582E43404F583A51235
:1017930080078190175BA512800777EF25E025E08E
:1017A3002435F582E43404F583E49390175EF07DE9
:1017B30001E4FFA512807938751D0FE51D6026A58C
:1017C3001280C5A7A51280825B9014F4EFF0F46039
:1017D300EA9014F4E024E56008240E70DE7F0080B4
:1017E300067F0180027F02A522900A7CE0FEA3E02F
:1017F300FF9014F6EEF0A3EFF0E4A3F0D3EF940020
:10180300EE940050057F000219CF900A7E740BF00E
:101813007E007F147D007B007A0379C8A5128008BF
:1018230067900A7EE0FF25E025E02435F582E43465
:1018330004F583E4939014F8F0FD7C00C004C00524
:10184300EF25E025E02432F582E43404F583A51284
:1018530080078178C87C037D00D007D006A512805D
:1018630004EE9014F8E0FF24C8F582E43403F58312
:101873007420F07C007D64E46003021974ED24F6A7
:10188300603D24A6700302191324636003021974D4
:1018930074C92FF9E43403FA7B00C003C002C0010A
:1018A3007B807A0279E1901ACEA512800777901493
:1018B300F6E0FFA3E0901AD1CFF0A3EF02196290F4
:1018C30014F8E024C9F9E43403FA7B00C003C0022E
:1018D300C0017B807A0279E4901ACEA51280077743
:1018E3009014F6E0FAA3E0FB7C007D64FFAE02A552
:1018F3001280052D901AD1EEF0A3EFF07C007D64E9
:10190300AF03AE02A51280052DA3ECF0A3ED804F2B
:101913009014F8E024C9F9E43403FA7B00C003C04F
:1019230002C0017B807A0279EA901ACEA512800761
:10193300779014F6E0FAA3E0FB7C007D64FFAE022F
:10194300A51280052D901AD1EEF0A3EFF07C007D57
:1019530064AF03AE02A51280052DA3ECF0A3EDF056
:10196300D001D002D003A51280090A9014F8E02F09
:10197300F09014F8E004F0D20B7B007A0379C8905E
:10198300175BA5128007779014F8E0A512807931D0
:10199300D20B900442A51280078190175BA5128099
:1019A3000777900445E4931490175EF07D01E4FFFC
:1019B300A512807938E47F64FEFDFC90178F7422B2
:1019C300F0A374AEF0A5128076D17F00A522E49037
:1019D30014F2F0FE7F28FD7B007A03799EA5128026
:1019E3000867E47F64FEA5128076C9D20B9004C217
:1019F300A51280078190175BA5128007779004C515
:101A0300A51280792FD20B90047AA51280078190BA
:101A1300175BA51280077790047DE49390175EF01F
:101A23007D01E4FFA512807938E47F64FEA512806E
:101A330076C97F00A522E49014F2F0A3F0FE7F1490
:101A4300FD7B007A0379C8A512800867900A7E742B
:101A530004F0A3E0FF7003021AF37B807A0379D7C3
:101A6300901ACEA512800777900A7EE025E025E044
:101A73002432F582E43404F583A512800781901A99
:101A8300D1A512800777901AD4EFF07B007A0379FF
:101A9300C8A51280090A9014F3EFF0D20B7B007AE9
:101AA3000379C890175BA512800777EF04A512800E
:101AB3007931900A7FE0C3940A50227F02A51280F5
:101AC3007FB69014F3E0FFD20B9016D87401F0D2D6
:101AD3000CE4FDA512807A557F01021B8ED20BE424
:101AE3009016D8F0D20C7D01FFA512807A55801391
:101AF300D20BE49016D8F0D20C7D01FFA512807AA8
:101B0300558075A512807E13900A7FE0FFD39463FE
:101B13005005EF9400500FD20BE4A5128078EFA587
:101B2300128076838052E49014F2F0A3F09014F3C1
:101B3300E0FFC39440502FEF25E025E02421F582F8
:101B4300E4342BF583E0FF900A7FE0B5071090148F
:101B5300F3E0900A7FF09014F27401F0800890147F
:101B6300F3E004F080C79014F2E0701DD20BA512CD
:101B73008078EFA512807683C218E4F514900A7F6B
:101B8300F0A37406F07F0180027F00A522E4901485
:101B9300F2F0301809E51460057F01021D8CE49012
:101BA3000A7FF09003DCE07002A3E070059001C4AB
:101BB30004F09001C4E064016003021D53900A80A5
:101BC300E075F00684C394015003021D6E9003A5D3
:101BD300E064016003021C7830174C900A7EA51262
:101BE300807902900A73E0FF700DA3E07009900AF8
:101BF3007E740AF0021C94EF700F900A74E060097F
:101C0300900A7E7422F0021C94900A73E06009A388
:101C1300E07005900A7E80719003DDE04401F0904E
:101C23000A7E7410F0806A900A7E7426A512807969
:101C330002900A7E7423F0E49014F2F09014F2E020
:101C4300FFC39403504BEF25E025E0243FF582E4E6
:101C5300340AF583E0640260149014F2E025E02571
:101C6300E0243FF582E4340AF5837402F09014F221
:101C7300E004F080C7900A74E07016900A7EA51203
:101C8300807902900A7E3017057421F08003742353
:101C9300F0D20B900A7EE0FF25E025E02432F582A6
:101CA300E43404F583A51280078190175BA51280A5
:101CB3000777EF25E025E02435F582E43404F58346
:101CC300E49390175EF07D01E4FFA512807938E478
:101CD3007F64FEA5128076C9A51281033EEF6401DD
:101CE300705DD20B900A7EE0FF25E025E02432F5FB
:101CF30082E43404F583A51280078190175BA51253
:101D0300800777EF25E025E02435F582E43404F5F8
:101D130083E49390175EF07D01E4FFA51280793888
:101D2300E47F64FEA5128076C9A51281033EBF013C
:101D33000E9003DCE04402F0A3E0F07F01804AE46C
:101D43007FF47E01A5128076C9E4900A80F0801B9F
:101D5300900A7E7410A5128079027F02A512807FFB
:101D6300B6E47FF47E01A5128076C9900A80E00470
:101D7300F0A51280832FBF01047F02800CE47FF45F
:101D83007E01A5128076C97F01A522E49014F2F0AA
:101D9300A3F0A3F0A3F09014F2F0A3F0D3900A7D84
:101DA300E09400900A7CE0940040077F01A5128034
:101DB300AFE5301A07A512807E1DC21A2018030250
:101DC3001E5CD20BE49016D8F0D20C7D01FFA51255
:101DD300807A55C218E4F514900A7FF0807B901442
:101DE300F4E0FEA3E0FF4E7003021E6C7C007D64F2
:101DF300A51280051A900A7CEE8FF0A5128005C10A
:101E0300900A49A5128006FFC0009014F4E0FEA3D7
:101E1300E0FFA51280051AE4FDD000A5128005EFAE
:101E2300900A49A512800753900A51A5128006FF14
:101E3300C0009014F4E0FEA3E0FF7C007D64A512D3
:101E430080051AE4FDD000A5128005EF900A51A584
:101E530012800753A51280C5A7A512808241901452
:101E6300F4EEF0A3EFF0021DE19003A5E06401603E
:101E730003021FC6A5128087E6EF7003021FC6A5E3
:101E830012806C179014F2EEF0A3EFF04E7008A5D9
:101E93001280783F021FBD9014F2E0FEA3E0FF7CA6
:101EA300007D64A51280051A900A7DE02FFF900A39
:101EB3007CE03EFEC39003AAE09F9003A9E09E50FE
:101EC30034900A7E7403A5128079027F02A51280E2
:101ED3007FB6E47FDC7E05A5128076C9A5128078E3
:101EE3003F900A7CE0FCA3E0FD4C70028053AF05F9
:101EF300AE040220B9A51280AE73751D0AE51D60FC
:101F03000FA51281069DEF7007A51280C5A780ED6E
:101F1300E51D7036A51280783F9014F2E0FEA3E031
:101F2300FF7C007D64A51280051A9003ABEEF0A33D
:101F3300EFF0A51280CCEC900A7CE07002A3E07075
:101F430079900A80F07F020220C09014F2E0FEA391
:101F5300E0FF7C007D64A51280051A900A7CEE8F59
:101F6300F0A5128005C1900A49A5128006FFC000A2
:101F73009014F2E0FEA3E0FFA51280051AE4FDD061
:101F830000A5128005EF900A49A512800753900A15
:101F93004DA5128006FFC0009014F2E0FEA3E0FFFF
:101FA3007C007D64A51280051AE4FDD000A5128093
:101FB30005EF900A4DA512800753E47F14FEA51286
:101FC3008076C99003A9E0FEA3E0FFC3900A7DE0F9
:101FD3009F900A7CE09E50030220B1E47F32FEA56D
:101FE300128076C9751690E5167003022071A5124A
:101FF3008082419014F4EEF0A3EFF04E60689014E9
:10200300F4E0FEA3E0FF7C007D64A51280051A9036
:102013000A7CEE8FF0A5128005C1900A49A51280B3
:1020230006FFC0009014F4E0FEA3E0FFA5128005B4
:102033001AE4FDD000A5128005EF900A49A512808D
:102043000753900A51A5128006FFC0009014F4E0D4
:10205300FEA3E0FF7C007D64A51280051AE4FDD099
:1020630000A51280C597A51280C5A7021FEAA51275
:10207300808012A5128017EC9003A5E0B4012175AE
:102083001D01E51D601AA5128087E6EF6007A51202
:1020930080783F800BE47F0AFEA5128076C980E238
:1020A300E47FF47E01A5128076C97F01800F900A38
:1020B3007CE0FEA3E0FFA5128017F47F00A522E4D5
:1020C3009014F2F090150BF0A3F0A3F090150AF022
:1020D300751690E516700302215DA512808241906A
:1020E300150CEEF0A3EFF04E606890150CE0FEA324
:1020F300E0FF7C007D64A51280051A900A7CEE8FB8
:10210300F0A5128005C1900A49A5128006FFC00000
:1021130090150CE0FEA3E0FFA51280051AE4FDD0A4
:1021230000A5128005EF900A49A512800753900A73
:1021330051A5128006FFC00090150CE0FEA3E0FF3E
:102143007C007D64A51280051AE4FDD000A51280F1
:10215300C597A51280C5A70220D6A512808012902C
:102163000A7CE07002A3E070057F0202241E7E0059
:102173007F037D007B007A1479F3A512800867E45E
:102183009014F2F0FE7F14FD7B007A1479F6A51209
:10219300800867900A7E7404F0E0FF25E025E024C0
:1021A30035F582E43404F583E493FD7C00C004C078
:1021B30005EF25E025E02432F582E43404F583A518
:1021C3001280078178F67C147D00D007D006A51213
:1021D3008004EE900A7EE025E025E02435F582E4D4
:1021E3003404F583E49390150BF0900A7FE0FFC36A
:1021F300943040519014F3EFF0900A7F24D0F09084
:1022030014F2E004F090150BE024F6F9E43414A87A
:1022130001FC7D007B007A1479F37E007F01A51217
:102223008004EED20B7B007A1479F690175BA5122B
:1022330080077790150BE004A51280793190150B78
:10224300E004F08019D20B7B007A1479F690175BC7
:10225300A51280077790150BE0A512807931900ABB
:102263007E7405F0D20BE0FF25E025E02432F582F1
:10227300E43404F583A51280078190175BA51280CF
:102283000777EF25E025E02435F582E43404F58370
:10229300E49390175EF07D01E4FFA51280793890F6
:1022A300150BE0FFD20B9016D87401F0D20CE4FDAD
:1022B300A512807E0E9003A5E0B40105A5128078D7
:1022C3003F90150A74FFF0E47F14FEA5128076C9CF
:1022D300A51280825B90150AEFF0F460E490150A72
:1022E300E0FF24F65002805F9014F2E0FEC39402F4
:1022F300504FEF2430FF74F32EF582E43414F5834A
:10230300EFF09014F2E004F0C20BE024F2F9E434AD
:1023130014FA7B0090175BA51280077790175E7401
:1023230001A512807934900A7FE075F00AA4FF902A
:10233300150AE02F900A7FF0E47F14FEA512807641
:10234300C990150A74FFF090150AE0FF641B60083A
:10235300EF640D60030222C4A512807E13D20BE446
:102363009016D8F0D20C7D01FFA512807A559015F6
:102373000AE0B41B030224139014F2E0FFD3940287
:102383005005EF9400500CA5128078FDA5128076BD
:1023930083807D9014F2E06402600302241E901592
:1023A3000AE0640D70757FC8FEA5128076C9900A95
:1023B3007FE0700CA5128078FDA512807683805093
:1023C300E490150AF0A3F090150BE0FFC39440507E
:1023D3002FEF25E025E02421F582E4342BF583E07B
:1023E300FF900A7FE0B5071090150BE0900A7FF08D
:1023F30090150A7401F0800890150BE004F080C773
:1024030090150AE07013A5128078FDA512807683DB
:10241300E4900A7FF07F0180027F00A522900A7F6B
:10242300E075F005900006A512800760E0701D902E
:102433000A7E740EA512807902900A7E7419A51281
:10244300807688E4900A7FF07F028038900A7FE0EC
:1024530075F005900003A512800760E030E01A5480
:102463000A7016900A7FE075F005900004A51280AB
:102473000760E0FEA3E04E7009E4900A7FF07F015D
:1024830080027F00A522900A7E741CA51280790227
:102493007F02A512807FB6E47FDC7E05A5128076DD
:1024A300C9A512808F8BEF64016003022605900A91
:1024B3007E741DA512807902900A7E7405A5128090
:1024C3007688A512807E13A51280870EA5128082BE
:1024D3005B9014F2EFF0F460EE9014F2E024E56008
:1024E30004240E70E29014F2E0FF641B6004EFB466
:1024F3000DD5EF641B60030225FB900A7E7415A5BE
:10250300128079027E007F147D007B007A0379C8F4
:10251300A5128008677E007F64E460030225BDEF97
:1025230024F6603924A66035246360030225BD7B4D
:10253300807A0379FA901ACEA5128007779004DE89
:10254300A512800781901AD1A512800777900A7C83
:10255300E0FFA3E0901AD4CFF0A3EF804C7B807A06
:102563000379FF901ACEA5128007779004DEA51297
:10257300800781901AD1A512800777900A7CE0FA30
:10258300A3E0FB7C007D64FFAE02A51280052D90C5
:102593001AD4EEF0A3EFF07C007D64AF03AE02A586
:1025A3001280052DA3ECF0A3EDF07B007A0379C82C
:1025B300A51280090A9014F2EFF0D20B7B007A0384
:1025C30079C890175BA5128007779014F2E09017F3
:1025D3005EF07D01E4FFA512807938E47F2C7E0153
:1025E300A5128076C9900A7CE0FFA3E09003C6CFD2
:1025F300F0A3EFF07F0180559014F2E0640D704D6D
:102603008040900A7E741DF0D20BE0FF25E025E0A8
:102613002432F582E43404F583A5128007819017F0
:102623005BA512800777EF25E025E02435F582E4EA
:102633003404F583E49324FDA512807931A5128037
:1026430076C4A512807E13E4900A7FF0FFA522E4EE
:102653009014F2F0A3F0900A7E7414A5128079020C
:102663007E007F147D007B007A0379C8A512800861
:10267300677E007F64E4600302276BEF24F6603D0E
:1026830024A6700302270E2463600302276B7B805A
:102693007A0379FA901ACEA5128007779004E2A5FF
:1026A30012800781901AD1A512800777900A7CE0E7
:1026B300FFA3E0901AD4CFF0A3EF02275A7B807ACE
:1026C300047909901ACEA5128007779004E2A51227
:1026D300800781901AD1A512800777900A7CE0FACF
:1026E300A3E0FB7C007D64FFAE02A51280052D9064
:1026F3001AD4EEF0A3EFF07C007D64AF03AE02A525
:102703001280052DA3ECF0A3ED804C7B807A037936
:10271300FF901ACEA5128007779004E2A5128007D6
:1027230081901AD1A512800777900A7CE0FAA3E082
:10273300FB7C007D64FFAE02A51280052D901AD4A8
:10274300EEF0A3EFF07C007D64AF03AE02A5128030
:10275300052DA3ECF0A3EDF07B007A0379C8A51255
:1027630080090A9014F3EFF0D20B7B007A0379C847
:1027730090175BA5128007779014F3E090175EF033
:102783007D01E4FFA512807938E47FF47E01A51270
:102793008076C9A51280AA599014F2EFF0BF070CF6
:1027A300E4F0A51280AA599014F2EFF09014F2E02D
:1027B300A51280078E27D10029FE0129FE022B795D
:1027C300032B790427D1052B790700002C0B900AE2
:1027D3007FE075F005900004A512800760E0FEA37A
:1027E300E0FFC3900A7DE09FF0900A7CE09EF090AA
:1027F3000A7E741AA512807902A512808F8BEF705E
:10280300279003A6E0B40116B4011DA3E0FEA3E0E4
:10281300FFC3900A7DE09F900A7CE09E500A7F02EE
:10282300A512807FB602295E7E007F147D007B00A7
:102833007A0379C8A5128008677E007F64E4600389
:10284300022933EF24F6603D24A670030228D62420
:102853006360030229337B807A0379FA901ACEA549
:10286300128007779004E2A512800781901AD1A500
:1028730012800777900A7CE0FFA3E0901AD4CFF090
:10288300A3EF0229227B807A047909901ACEA5123C
:102893008007779004E2A512800781901AD1A512D0
:1028A300800777900A7CE0FAA3E0FB7C007D64FF5D
:1028B300AE02A51280052D901AD4EEF0A3EFF07CA2
:1028C300007D64AF03AE02A51280052DA3ECF0A337
:1028D300ED804C7B807A0379FF901ACEA512800796
:1028E300779004E2A512800781901AD1A512800780
:1028F30077900A7CE0FAA3E0FB7C007D64FFAE02E4
:10290300A51280052D901AD4EEF0A3EFF07C007D84
:1029130064AF03AE02A51280052DA3ECF0A3EDF086
:102923007B007A0379C8A51280090A9014F3EFF0AB
:10293300D20B7B007A0379C890175BA512800777C7
:102943009014F3E090175EF07D01E4FFA512807907
:1029530038E47FDC7E05A5128076C9900A7FE0FF0C
:1029630075F005900006A512800760E014F075F07D
:1029730005EF900006A512800760E07013900A7FB0
:10298300E075F005900003A512800760E04404F0B1
:102993009014F2E0B40513900A7FE075F0059000FF
:1029A30003A512800760E04402F0A51280CCD39007
:1029B3000A55A5128006FF900A7FE075F005900086
:1029C30004A512800760E0FEA3E0FFE4FCFDA5126E
:1029D3008005EF900A55A512800753900A59E475B4
:1029E300F001A5128005C1900A7FE075F007900100
:1029F300C6A51280CD4C7F00022C0D900A7E741C5C
:102A0300A512807902A512808F78EF64016003021A
:102A13002B3EFE7F14FD7B007A0379C8A512800844
:102A2300677E007F64E46003022B1BEF24F6603DA6
:102A330024A67003022ABE24636003022B1B7B803F
:102A43007A0379FA901ACEA5128007779004E2A54B
:102A530012800781901AD1A512800777900A7CE033
:102A6300FFA3E0901AD4CFF0A3EF022B0A7B807A66
:102A7300047909901ACEA5128007779004E2A51273
:102A8300800781901AD1A512800777900A7CE0FA1B
:102A9300A3E0FB7C007D64FFAE02A51280052D90B0
:102AA3001AD4EEF0A3EFF07C007D64AF03AE02A571
:102AB3001280052DA3ECF0A3ED804C7B807A037983
:102AC300FF901ACEA5128007779004E2A512800723
:102AD30081901AD1A512800777900A7CE0FAA3E0CF
:102AE300FB7C007D64FFAE02A51280052D901AD4F5
:102AF300EEF0A3EFF07C007D64AF03AE02A512807D
:102B0300052DA3ECF0A3EDF07B007A0379C8A512A1
:102B130080090A9014F3EFF0D20B7B007A0379C893
:102B230090175BA5128007779014F3E090175EF07F
:102B33007D01E4FFA51280793880077F02A512800A
:102B43007FB6E47FE87E03A5128076C9A5128032A2
:102B5300E3900A5BE475F001A5128005C1900A7F3A
:102B6300E075F0079001C7A51280CD4CA51280B582
:102B73003F7F02022C0D900A7E741CA512807902FD
:102B8300A512808F78EF706BA512808FC3EF64015D
:102B93007072FE7F14FD7B007A0379C8A51280084A
:102BA300677B807A047911901ACEA5128007777B10
:102BB300007A0379C8A51280090A9014F3EFF0D2C2
:102BC3000B7B007A0379C890175BA5128007779077
:102BD30014F3E090175EF07D01E4FFA512807938CD
:102BE300E47FC47E09A5128076C9A5128017EC7F05
:102BF3000180177F02A512807FB6E47FC47E09A5FA
:102C0300128076C97F0080027F00A522E49014F22F
:102C1300F0A3F0900A7CE07002A3E07004FF02329C
:102C2300E19003A6E064017003022D1CE49014F20A
:102C3300F0A512808F8BEF64016003022D177F01D3
:102C4300A512807FB67E007F147D007B007A037916
:102C5300C8A5128008677E007F64E46003022CFE2F
:102C6300EF24F6603924A6603524636003022CFE4A
:102C73007B807A0379FA901ACEA5128007779004A5
:102C8300DEA512800781901AD1A512800777900ADA
:102C93007CE0FFA3E0901AD4CFF0A3EF804C7B80BD
:102CA3007A0379FF901ACEA5128007779004DEA5E8
:102CB30012800781901AD1A512800777900A7CE0D1
:102CC300FAA3E0FB7C007D64FFAE02A51280052D14
:102CD300901AD4EEF0A3EFF07C007D64AF03AE0254
:102CE300A51280052DA3ECF0A3EDF07B007A037908
:102CF300C8A51280090A9014F2EFF0D20B7B007A78
:102D03000379C890175BA5128007779014F2E0A5AA
:102D1300128076B77F000232E19003A7E0FEA3E0C2
:102D2300FFC3900A7DE09F900A7CE09E500302312E
:102D3300A6EF4E70030231A6A512808FC3EF640184
:102D43006003023056D20B9004C6A512800781900F
:102D5300175BA5128007779004C9A51280792FD23B
:102D63000B900446A51280078190175BA51280077C
:102D730077900449E49390175EF07D01E4FFA51278
:102D8300807938751E1EE51E7003022F06E47F321C
:102D9300FEA5128076C9A51280825B9014F2EFF033
:102DA30024E5600E240E70DEA5128017EC7F01026D
:102DB30032E1E49014F2F0A512808F8BEF6401608E
:102DC30003022F017F01A512807FB67E007F147D51
:102DD300007B007A0379C8A5128008677E007F64B0
:102DE300E46003022ED6EF24F6603D24A6700302AE
:102DF3002E7924636003022ED67B807A0379FA90BE
:102E03001ACEA5128007779004DEA5128007819061
:102E13001AD1A512800777900A7CE0FFA3E0901AED
:102E2300D4CFF0A3EF022EC57B807A0379FF901AEB
:102E3300CEA5128007779004DEA512800781901A31
:102E4300D1A512800777900A7CE0FAA3E0FB7C000F
:102E53007D64FFAE02A51280052D901AD4EEF0A377
:102E6300EFF07C007D64AF03AE02A51280052DA3B5
:102E7300ECF0A3ED804C7B807A0379FF901ACEA50A
:102E8300128007779004DEA512800781901AD1A5DE
:102E930012800777900A7CE0FAA3E0FB7C007D6454
:102EA300FFAE02A51280052D901AD4EEF0A3EFF029
:102EB3007C007D64AF03AE02A51280052DA3ECF068
:102EC300A3EDF07B007A0379C8A51280090A901458
:102ED300F2EFF0D20B7B007A0379C890175BA5124F
:102EE3008007779014F2E090175EF07D01E4FFA570
:102EF30012807938E47FDC7E05A5128076C97F00D5
:102F03000232E1A512808F8BEF640160030230511E
:102F13009014F2F07F01A512807FB67E007F147DAE
:102F2300007B007A0379C8A5128008677E007F645E
:102F3300E46003023026EF24F6603D24A67003020A
:102F43002FC9246360030230267B807A0379FA90C9
:102F53001ACEA5128007779004DEA5128007819010
:102F63001AD1A512800777900A7CE0FFA3E0901A9C
:102F7300D4CFF0A3EF0230157B807A0379FF901A48
:102F8300CEA5128007779004DEA512800781901AE0
:102F9300D1A512800777900A7CE0FAA3E0FB7C00BE
:102FA3007D64FFAE02A51280052D901AD4EEF0A326
:102FB300EFF07C007D64AF03AE02A51280052DA364
:102FC300ECF0A3ED804C7B807A0379FF901ACEA5B9
:102FD300128007779004DEA512800781901AD1A58D
:102FE30012800777900A7CE0FAA3E0FB7C007D6403
:102FF300FFAE02A51280052D901AD4EEF0A3EFF0D8
:103003007C007D64AF03AE02A51280052DA3ECF016
:10301300A3EDF07B007A0379C8A51280090A901406
:10302300F2EFF0D20B7B007A0379C890175BA512FD
:103033008007779014F2E090175EF07D01E4FFA51E
:1030430012807938E47FDC7E05A5128076C97F0083
:103053000232E1A512808F8BEF640160030231A17C
:103063009014F2F07F01A512807FB67E007F147D5D
:10307300007B007A0379C8A5128008677E007F640D
:10308300E46003023176EF24F6603D24A670030268
:103093003119246360030231767B807A0379FA90D5
:1030A3001ACEA5128007779004DEA51280078190BF
:1030B3001AD1A512800777900A7CE0FFA3E0901A4B
:1030C300D4CFF0A3EF0231657B807A0379FF901AA6
:1030D300CEA5128007779004DEA512800781901A8F
:1030E300D1A512800777900A7CE0FAA3E0FB7C006D
:1030F3007D64FFAE02A51280052D901AD4EEF0A3D5
:10310300EFF07C007D64AF03AE02A51280052DA312
:10311300ECF0A3ED804C7B807A0379FF901ACEA567
:10312300128007779004DEA512800781901AD1A53B
:1031330012800777900A7CE0FAA3E0FB7C007D64B1
:10314300FFAE02A51280052D901AD4EEF0A3EFF086
:103153007C007D64AF03AE02A51280052DA3ECF0C5
:10316300A3EDF07B007A0379C8A51280090A9014B5
:10317300F2EFF0D20B7B007A0379C890175BA512AC
:103183008007779014F2E090175EF07D01E4FFA5CD
:1031930012807938E47FDC7E05A5128076C97F0032
:1031A3000232E1A512808F8BEF640160030232DFEC
:1031B3009014F2F07F01A512807FB67E007F147D0C
:1031C300007B007A0379C8A5128008677E007F64BC
:1031D300E460030232C6EF24F6603D24A6700302C6
:1031E3003269246360030232C67B807A0379FA90E2
:1031F3001ACEA5128007779004DEA512800781906E
:103203001AD1A512800777900A7CE0FFA3E0901AF9
:10321300D4CFF0A3EF0232B57B807A0379FF901A03
:10322300CEA5128007779004DEA512800781901A3D
:10323300D1A512800777900A7CE0FAA3E0FB7C001B
:103243007D64FFAE02A51280052D901AD4EEF0A383
:10325300EFF07C007D64AF03AE02A51280052DA3C1
:10326300ECF0A3ED804C7B807A0379FF901ACEA516
:10327300128007779004DEA512800781901AD1A5EA
:1032830012800777900A7CE0FAA3E0FB7C007D6460
:10329300FFAE02A51280052D901AD4EEF0A3EFF035
:1032A3007C007D64AF03AE02A51280052DA3ECF074
:1032B300A3EDF07B007A0379C8A51280090A901464
:1032C300F2EFF0D20B7B007A0379C890175BA5125B
:1032D3008007779014F2E0A5128076B77F00A522CD
:1032E300900A7CE0FFA3E09003C6CFF0A3EFF0E4E5
:1032F300900A7CF0A3F0E49014F4F0A3F0A3F0A3FD
:10330300F0A3F0A3F0A3F0A304F0A3F0A3F0E4A3CD
:10331300F0A512808F8BEF6401600DA512808FC31F
:10332300BF01057F00023B11E49014F4F0A3F0A366
:10333300F09003C6E0FEA3E0FF4E70079014FEF08A
:103343000239517B007A1479F5901504A512800790
:10335300777A1409901507A5128007777A1479F400
:10336300A5128089319014F7EFF07003023405E45D
:10337300F09014F7E0FFC39403501DEF25E025E020
:10338300243CF582E4340AF583E0FEA3E04E6008B2
:103393009014F7E004F080D99014F7E0FF701990CF
:1033A30014FE04F09003C6E0FDA3E09003ADCDF05E
:1033B300A3EDF0D21C023951EF25E025E02438F5C6
:1033C30082E4340AF583E0FEA3E0FF9003C6E0FC49
:1033D300A3E0FDC39FEC9E40129014FE7401F09095
:1033E30003ADECF0A3EDF0D21C800DE49003ADF03F
:1033F300A3F0C21C9014FEF0E49003C6F0A3F00205
:103403003951E49014F8F0A3F09014F4E0FF700342
:103413000234C37A227BC37D01A51280CB4BEF70AC
:10342300767FE87E03A5128076C9E49014F7F090C6
:1034330014F7E0C3940250547C227DC37F01A5128C
:103443008075C4EF640160329022C6E0FD54506081
:10345300079014FBE04404F0ED542860079014FB3C
:10346300E04402F07F01A51280FF929014F8EEF081
:10347300A3EFF0E49014F7F080129014F7E004F057
:10348300E47FE87E03A5128076C980A39014F7E059
:10349300C39402400980009014FBE04404F09003BD
:1034A3009FE0FCA3E0FD9014F8E0FEA3E0FFA5126B
:1034B30080051AC39003C7E09FF09003C6E09EF017
:1034C3009014F8E0FEA3E0FF900A6DEE8FF0A512D2
:1034D3008005C1900A61A5128006FFC00090039F7A
:1034E300E0FCA3E0FD9014F8E0FEA3E0FFA512804A
:1034F300051AE4FCFDD000A5128005EF900A61A532
:1035030012800753900A5DA5128006FFC000900346
:103513009FE0FCA3E0FD9014F8E0FEA3E0FFA512FA
:1035230080051AE4FCFDD000A5128005EF900A5D2A
:10353300A5128007539014FBE0640170030235CD9C
:10354300E49014FAF09014FAE0FFC39403505FEF91
:1035530025E025E0243EF582E4340AF583E06401A6
:1035630070449014FBE0FF30E208900A757401F098
:10357300800AEF30E106900A757402F09014FAE0C5
:1035830025E025E0243FF582E4340AF5837402F054
:10359300A512808F5A9014FAE0B50712900A75E0CD
:1035A300600CC21780089014FAE004F0809790141E
:1035B300FB7401F09014F4E0FFC39014F9E09F90C2
:1035C30014F8E09400500302332BE49014F8F0A3B2
:1035D300F09014F5E0FF700302368B7A227BD87DDE
:1035E30002A51280CB4BEF70767FE87E03A5128095
:1035F30076C9E49014F7F09014F7E0C394025054A2
:103603007C227DD87F02A5128075C4EF64016032ED
:103613009022DBE0FD545060079014FCE04404F07A
:10362300ED542860079014FCE04402F07F02A512D9
:1036330080FF929014F8EEF0A3EFF0E49014F7F00B
:1036430080129014F7E004F0E47FE87E03A5128073
:1036530076C980A39014F7E0C394024009800090D8
:1036630014FCE04404F09003A1E0FCA3E0FD9014FB
:10367300F8E0FEA3E0FFA51280051AC39003C7E09C
:103683009FF09003C6E09EF09014F8E0FEA3E0FFE5
:10369300900A6FEE8FF0A5128005C1900A65A512FE
:1036A3008006FFC0009003A1E0FCA3E0FD9014F8A6
:1036B300E0FEA3E0FFA51280051AE4FCFDD000A5FF
:1036C300128005EF900A65A512800753900A5DA545
:1036D300128006FFC0009003A1E0FCA3E0FD90145C
:1036E300F8E0FEA3E0FFA51280051AE4FCFDD0007C
:1036F300A5128005EF900A5DA5128007539014FC74
:10370300E064017003023793E49014FAF09014FA22
:10371300E0FFC39403505DEF25E025E0243EF582EE
:10372300E4340AF583E0640270429014FCE0FF3055
:10373300E208900A767401F0800AEF30E106900AFD
:10374300767402F0A512808F5A9014FAE0FEB50742
:1037530008900A76E06002C217EE25E025E0243FD8
:10376300F582E4340AF5837402F080089014FAE0D9
:1037730004F080999014FC7401F09014F5E0FFC3F9
:103783009014F9E09F9014F8E09400500302332B57
:10379300E49014F8F0A3F09014F6E0FF70030238FD
:1037A3004B7A227BED7D03A51280CB4BEF70707FAC
:1037B300E87E03A5128076C9E49014F7F09014F71D
:1037C300E0C39402504EA5128075BEEF64016032CF
:1037D3009022F0E0FD545060079014FDE04404F0A3
:1037E300ED542860079014FDE04402F07F03A51216
:1037F30080FF929014F8EEF0A3EFF0E49014F7F04A
:1038030080129014F7E004F0E47FE87E03A51280B1
:1038130076C980A99014F7E0C39402400980009010
:1038230014FDE04404F09003A3E0FCA3E0FD901436
:10383300F8E0FEA3E0FFA51280051AC39003C7E0DA
:103843009FF09003C6E09EF09014F8E0FEA3E0FF23
:10385300900A71EE8FF0A5128005C1900A69A51236
:103863008006FFC0009003A3E0FCA3E0FD9014F8E2
:10387300E0FEA3E0FFA51280051AE4FCFDD000A53D
:10388300128005EF900A69A512800753900A5DA57F
:10389300128006FFC0009003A3E0FCA3E0FD901498
:1038A300F8E0FEA3E0FFA51280051AE4FCFDD000BA
:1038B300A5128005EF900A5DA5128007539014FDB1
:1038C300E06401700302332BE49014FAF09014FACD
:1038D300E0FFC39403505DEF25E025E0243EF5822D
:1038E300E4340AF583E0640370429014FDE0FF3092
:1038F300E208900A777401F0800AEF30E106900A3B
:10390300777402F0A512808F5A9014FAE0FEB5077F
:1039130008900A77E06002C217EE25E025E0243F15
:10392300F582E4340AF5837402F080089014FAE017
:1039330004F080999014FD7401F09014F6E0FFC335
:103943009014F9E09F9014F8E0940002332B901444
:10395300FEE07012900A7E741BA512807902E47F48
:10396300D07E07023B0AA51280CCEC900A7E74013C
:10397300A512807902900A7E7420F07E007F147D68
:10398300007B007A0379C8A512800867900A7EE05D
:10399300FF25E025E02435F582E43404F583E49340
:1039A300FD7C00C004C005EF25E025E02432F5824C
:1039B300E43404F583A51280078178C87C037D0075
:1039C300D007D006A5128004EE900A7EE025E025FC
:1039D300E02435F582E43404F583E4939014FAF09B
:1039E3007E007F64E46003023AE4EF24F66040243F
:1039F300A67003023A8324636003023AE49014FA44
:103A0300E024C8F9E43403FA7B00C003C002C00118
:103A13007B807A0279E1901ACEA512800777900312
:103A2300ADE0FFA3E0901AD1CFF0A3EF023AD2901A
:103A330014FAE024C8F9E43403FA7B00C003C0029B
:103A4300C0017B807A0279E4901ACEA512800777B1
:103A53009003ADE0FAA3E0FB7C007D64FFAE02A51A
:103A63001280052D901AD1EEF0A3EFF07C007D6457
:103A7300AF03AE02A51280052DA3ECF0A3ED804F9A
:103A83009014FAE024C8F9E43403FA7B00C003C0BD
:103A930002C0017B807A0279EA901ACEA5128007D0
:103AA300779003ADE0FAA3E0FB7C007D64FFAE02F8
:103AB300A51280052D901AD1EEF0A3EFF07C007DC6
:103AC30064AF03AE02A51280052DA3ECF0A3EDF0C5
:103AD300D001D002D003A51280090A9014FAE02F76
:103AE300F0D20B7B007A0379C890175BA51280078D
:103AF300779014FAE090175EF07D01E4FFA5128041
:103B03007938E47FC47E09A5128076C97F00A52297
:103B1300E49014F2F0900A7E7413A512807902E403
:103B2300FFA51280176EEF700EA5128087F9A512FC
:103B33008017EC7F01802D7E007F147D007B007A4F
:103B43000379C8A512800867900A7E7412A51280B3
:103B530079027F02A512807FB6E47F64FEA51280FE
:103B630076C97F00A522E49014F2F0900A7E740CCB
:103B7300A512807902A51280176E9014F2EFF070EF
:103B830009A512807E137F0180289014F2E0B4010E
:103B9300047F00801D900A7E741EA5128079027F27
:103BA30002A512807FB6E47FF47E01A5128076C958
:103BB3007F00A522D3900A7DE09400900A7CE094D4
:103BC300005003023CF190039EE07003023CEDA51C
:103BD30012808F8BEF6401600CE49003C6F0A3F0B6
:103BE3007F02023CF3900A7E741FA5128079027E45
:103BF300007F147D007B007A0379C8A512800867D3
:103C03007E007F147D007B007A0379C8A5128008AB
:103C1300677E007F64E46003023CB9EF24F66039F9
:103C230024A6603524636003023CB97B807A037960
:103C3300FA901ACEA5128007779004DEA5128007AA
:103C430081901AD1A512800777900A7CE0FFA3E048
:103C5300901AD4CFF0A3EF804C7B807A0379FF9046
:103C63001ACEA5128007779004DEA51280078190F3
:103C73001AD1A512800777900A7CE0FAA3E0FB7CB7
:103C8300007D64FFAE02A51280052D901AD4EEF0DC
:103C9300A3EFF07C007D64AF03AE02A51280052D77
:103CA300A3ECF0A3EDF07B007A0379C8A512800999
:103CB3000A9014F2EFF0D20B7B007A0379C89017C5
:103CC3005BA5128007779014F2E090175EF07D01F8
:103CD300E4FFA512807938900A7CE0FFA3E090030B
:103CE300C6CFF0A3EFF07F0080067F0180027F0242
:103CF300A522900A7E740FA5128079027F02A51275
:103D0300807FB6E47FDC7E05A5128076C97F00A59F
:103D130022E4FFA51280B53FE4FF75F005EF9000A4
:103D230003A5128007607408F00FEFB440EC900312
:103D3300DDE04440F0900A7E740DA5128079027F85
:103D430001A522E49014F2F0902D1DF0900000F0F4
:103D5300A5128080129001C47402F0301A07A512D4
:103D6300807E1DC21A9027F27401F0A51280AFEC79
:103D73005007A51280418C80F2E49027F2F0D20B19
:103D830090047AA51280078190175BA512800777AC
:103D930090047DA51280792FD20B7B807A04791E43
:103DA30090175BA51280077790175E7401F0FDE40E
:103DB300FFA512807938A512807E139001C4740187
:103DC300F0E49003DCF0A3F0D217201A07A51280C9
:103DD3007FECD21AD219E49014F2F09014F2E0FFBF
:103DE300C39440505DE0FE25E025E02421F582E404
:103DF300342BF583E0FD75F005EE900002A51280EB
:103E03000760E06D7034EF25E025E02423F582E4BC
:103E1300342BF583E0B401229014F2E075F00590A1
:103E23000004A512800760E0FEA3E04E700C90032F
:103E3300DCE04404F0A3E0F080089014F2E004F026
:103E430080999014F2E0644060028042A512808B56
:103E530053E49014F2F09014F2E0FFC3944050182E
:103E630075F005EF900003A512800760E0541FF082
:103E73009014F2E004F080DE900A73E070032017E0
:103E83000D900A74E060079003DDE04402F0E490D3
:103E93000A80F090039DF0900142F0A3F0A51281F7
:103EA30015FF7F00A522E49014F2F0A3F02019037C
:103EB300024162A512808012900A7E7410A51280BE
:103EC3007902E47FF47E01A5128076C99003DCE0D9
:103ED300FEA3E0FF30E0089014F374F1F0807BEF71
:103EE30030E1089014F374F2F0806FEF30E2089041
:103EF30014F374F3F08063EF30E3089014F374F475
:103F0300F08057EF30E4089014F374F5F0804BEF32
:103F130030E5089014F374F6F0803FEF30E6089034
:103F230014F374F7F08033EF30E7089014F374F868
:103F3300F08027EE30E0089014F374F9F0801BEE64
:103F430030E1089014F374FAF0800FEE9014F3301C
:103F5300E20574FBF0800374FFF0201C030240FFB2
:103F63009003ADE07002A3E070030240FF7B807A10
:103F7300047920901ACEA5128007779014F3E0906D
:103F83001AD1F07B007A0379C8A51280090A90142C
:103F9300F2EFF0900A7E7420F0E0FE25E025E024A5
:103FA30035F582E43404F583E493FD7C00C004C05A
:103FB30005EE25E025E02432F582E43404F583A5FB
:103FC30012800781C00174C82FF9E43403A801FCEF
:103FD3007D00D001D007D006A5128004EE900A7EA2
:103FE300E025E025E02435F582E43404F583E49309
:103FF300FF9014F2E02FF07E007F64E46003024040
:10400300FBEF24F6604024A6700302409A24636009
:10401300030240FB9014F2E024C8F9E43403FA7B72
:1040230000C003C002C0017B807A0279E1901ACEFE
:10403300A5128007779003ADE0FFA3E0901AD1CFDC
:10404300F0A3EF0240E99014F2E024C8F9E434034A
:10405300FA7B00C003C002C0017B807A0279E4903E
:104063001ACEA5128007779003ADE0FAA3E0FB7C9C
:10407300007D64FFAE02A51280052D901AD1EEF0EB
:10408300A3EFF07C007D64AF03AE02A51280052D83
:10409300A3ECF0A3ED804F9014F2E024C8F9E434CC
:1040A30003FA7B00C003C002C0017B807A0279EA75
:1040B300901ACEA5128007779003ADE0FAA3E0FB38
:1040C3007C007D64FFAE02A51280052D901AD1EE0F
:1040D300F0A3EFF07C007D64AF03AE02A512800570
:1040E3002DA3ECF0A3EDF0D001D002D003A51280F4
:1040F300090A9014F2E02FF0C21C80267B807A0418
:104103007920901ACEA5128007779014F3E0901AC5
:10411300D1F07B007A0379C8A51280090A9014F2C2
:10412300EFF0D20B7B007A0379C890175BA512805E
:1041330007779014F2E090175EF07D01E4FFA5127B
:10414300807938E47FF47E01A5128076C9C2199084
:1041530001C47402F0A51280CCECA51280CCD390DC
:1041630003C4E0640160047F01801C900000E070E0
:104173000FA51280900AEF700790000004F08005ED
:10418300A512809ED87F01A522E49014F5F0D208F1
:10419300A3F0A3F002493A9014F6E0600302494AFF
:1041A300F0D208A512807E13D20B9013B8A512800B
:1041B300078190175BA5128007779013BBA5128028
:1041C300792FD20B9013BCA51280078190175BA5A2
:1041D300128007779013BFA512807A389014F37476
:1041E30001F0A304F0200803024654A51280825B69
:1041F3009014F7EFF024F3700302438424F2700366
:1042030002437F24CB70030242D324086003024697
:10421300459014F4E06402702DD20B9016D874020A
:10422300F0D20CE4FDFFA512807A559014F47401CA
:10423300F09014F3E070067405F00246459014F311
:10424300E014F0024645D20B9014F3E0FF25E0257D
:10425300E024B8F582E43413F583A5128007819036
:10426300175BA512800777EF25E025E024BBF582D5
:10427300E43413F583E49390175EF07D01E4FFA526
:10428300128079389014F3E070057405F08006907D
:1042930014F3E014F0D20B9014F3E0FF25E025E0D3
:1042A30024B8F582E43413F583A5128007819017AF
:1042B3005BA512800777EF25E025E024BBF582E4B8
:1042C3003413A51280792D9014F47401F00246453D
:1042D3009014F4E06401701AA512807A479014F3E5
:1042E300E0B40505E4F00243769014F3E004F00231
:1042F3004376D20B9014F3E0FF25E025E024B8F5D4
:1043030082E43413F583A51280078190175BA5120D
:10431300800777EF25E025E024BBF582E43413A57D
:104323001280792D9014F3E0B40504E4F080069034
:1043330014F3E004F0D20B9014F3E0FF25E025E042
:1043430024B8F582E43413F583A51280078190170E
:104353005BA512800777EF25E025E024BBF582E417
:104363003413F583E49390175EF07D01E4FFA51207
:104373008079389014F47402F0024645C20802466C
:1043830045C20BE49016D8F0D20CFDA512807E0D29
:104393009014F3E01460271470030244F3147003C1
:1043A3000244FA1470030245011470030245082401
:1043B30005600302450DA51280D40D02450DE4905E
:1043C30014F7F09014F504F0D20B7B807A13795F25
:1043D30090175BA51280077790175E7411A5128062
:1043E3007934D20B7B807A13797190175BA5128095
:1043F300077790175E7414F07D01E4FFA5128079AE
:10440300389014F5E0B4011EA51280825B9014F776
:10441300EFF0641B6010E0640D600BE47F64FEA5A5
:10442300128076C980DB9014F7E0641B70030245A9
:104433000DE49014F7F09014F7E0FFC394404003A9
:104443000244E2EF25E025E02423F582E4342BF552
:1044530083E0640160030244D99014F7E0FF75F030
:1044630005900002A512800760E0FEEF25E025E03D
:104473002421F582E4342BF583E06E70489014F721
:10448300E025E025E02424F582E4342BF583E0FEE7
:1044930075F005EF900006A512800760EEF090140A
:1044A300F7E0FF75F005900003A512800760E0FEBA
:1044B30030E22375F005EF900003A512800760EE4C
:1044C30054FBF080119014F7E075F005900006A5F9
:1044D30012800760E4F09014F7E004F0024439908E
:1044E3002D227401F0E49014F5F09014F7F0801A83
:1044F300A51280BC588013A51280E3B8800CA512C6
:104503008059388005A51280EF529014F4E06402BC
:1045130060030245A49014F3E07017D20B9013CC00
:10452300A51280078190175BA5128007779013CFA0
:10453300802FD20B9014F3E0FF25E025E024B4F59F
:1045430082E43413F583A51280078190175BA512CB
:10455300800777EF25E025E024B7F582E43413F5EF
:1045630083A51280792FD20B9014F3E0FF25E02569
:10457300E024B8F582E43413F583A5128007819013
:10458300175BA512800777EF25E025E024BBF582B2
:10459300E43413F583E49390175EF07D01E402465F
:1045A300379014F3E0B40517D20B9013B8A512801B
:1045B300078190175BA5128007779013BB802FD2DA
:1045C3000B9014F3E0FF25E025E024BCF582E434EE
:1045D30013F583A51280078190175BA512800777D7
:1045E300EF25E025E024BFF582E43413F583E4935B
:1045F30090175EF07D01E4FFA512807938D20B900D
:1046030014F3E0FF25E025E024B8F582E43413F544
:1046130083A51280078190175BA512800777EF258A
:10462300E025E024BBF582E43413F583E49390178B
:104633005EF0E4FDFFA5128079389014F4A5128092
:104643007DFFA51280870E7F0AA51280BE4C024112
:10465300E8E47F2C7E01FDFC90178F7422F0A37495
:10466300AEF0A5128076D1A51280AEA4D20BE49051
:1046730016D8F0D20CFDFFA512807A55D20BE49028
:1046830016D8F0D20CFD7F01A512807A55902D2209
:10469300E0700330224ED20B7B807A137986901719
:1046A3005BA51280077790175E740AA51280793490
:1046B300D20B7B807A13799190175BA512800777D1
:1046C30090175E7401F0FDE4FFA512807938E47F52
:1046D300DC7E05FDFC90178F7422F0A374AEF0A569
:1046E300128076D1902D22E070030247B1A512808B
:1046F300CCD3E47F64FEA5128076C97E017F407D22
:10470300007B007A1479F8A5128008677F807E0207
:104713007D087C007536147537F8A51280B670E4F1
:104723009014F5F09014F5E0FF75F0059014FCA5D6
:1047330012800760E0FE75F005EF900006A5128079
:104743000760E06E70579014F5E075F0059014F96A
:10475300A512800760E0FE75F005EF900003A51237
:10476300800760E0B506369014F5E075F005901407
:10477300FAA512800760E0FCA3E0FD75F005EF9059
:104783000004A512800760E0FEA3E0B5050FEEB5B7
:10479300040B9014F5E004F0E0644070879014F586
:1047A300E064406004A37401F0E4902D22F0202221
:1047B300030248A5A51280CCECE47F64FEA5128019
:1047C30076C97E007F287D007B007A167938A51292
:1047D3008008677F807E017D087C007536167537FB
:1047E30038753800753928A51280B676901638E0EA
:1047F300FF90039EE06F600302489D901639E0FE30
:10480300A3E0FF90039FE06E7003A3E06F600302D9
:10481300489D90163BE0FEA3E0FF9003A1E06E707D
:1048230003A3E06F707490163DE0FEA3E0FF9003D6
:10483300A3E06E7003A3E06F706090163FE0FF90FB
:1048430003A5E06F7054901640E0FF9003A6E06F5D
:104853007048901641E0FEA3E0FF9003A7E0B50681
:1048630039A3E0B50734901643E0FEA3E0FF9003BD
:10487300A9E0B50625A3E0B50720901647E0FEA3FF
:10488300E0FF9003ADE0B50611A3E0B5070C901669
:104893005FE0FF9003C5E06F60069014F67401F0CB
:1048A300C2229014F6E07003024941A512807E13E0
:1048B300D20B7B807A13799390175BA512800777CD
:1048C30090175E7413A512807934D20B7B807A1310
:1048D30079A790175BA51280077790175E7410F085
:1048E3007D01E4FFA512807938751D0FE49014F55E
:1048F300F0E51D603BA51280C5A7A51280825B90E1
:1049030014F7EFF0F460EA9014F7E024E560102464
:104913000E70DEE49014F6F09014F504F0800A9023
:1049230014F67401F09014F5F09014F5E0B401C19D
:10493300E51D600302419A9014F6F002419A901427
:10494300F67401F002419AA502807E1390168FED52
:10495300F090168EEFF0E4901690F0EF14602014B0
:10496300602F146044146059240460030249F190D9
:104973000A73E0FF30E7028050EF30E06C80629012
:104983000A74E0FF30E7028040EF30E0028052809B
:1049930058900A75E0FF30E702802EEF30E1028085
:1049A30034EF30E002803A8040900A76E0FF30E74F
:1049B300028016EF30E102801CEF30E0028022809B
:1049C30028900A77E0FF30E7089016907402F08091
:1049D3001DEF30E1089016907403F08011EF30E082
:1049E300089016907401F08005E4901690F0300A58
:1049F30003024AD790168EE0FF25E025E02423F535
:104A030082E4340EF583E493FD7C00C004C005EF1B
:104A130025E025E02420F582E4340EF583A51280F9
:104A2300078178917C167D00D007D006A5128004FB
:104A3300EE901690E0FF25E025E02447F582E4346C
:104A43000EF583E493FD7C00C004C005EF25E0254B
:104A5300E02444F582E4340EF583A512800781C077
:104A63000190168EE025E025E02423F582E4340E40
:104A7300F583E4932491F9E43416A801FC7D00D076
:104A830001D007D006A5128004EE90168FE0FDD268
:104A93000B7B007A16799190175BA51280077790AC
:104AA3001690E025E025E02447F582E4340EF583F3
:104AB300E493FF90168EE025E025E02423F582E4BD
:104AC300340EF583E4932F90175EF0E4FFA5128074
:104AD30079388005901690E0FFA522901674E0FFC8
:104AE3007D0190168DEDF090168CEFF06405601C3F
:104AF300E0FF64076016EF64086011EF6406600C62
:104B0300A3E0FDC20AA51280494F804190168DE0B3
:104B1300FDD20B90168CE0FF25E025E02420F582E2
:104B2300E4340EF583A51280078190175BA51280EC
:104B33000777EF25E025E02423F582E4340EF5839F
:104B4300E49390175EF0E4FFA512807938A522E480
:104B53009016B6F0A3F0A3F0A3F0A3740AF0A37425
:104B630002F09016BD14F0E4A3F09016BC74FFF0AD
:104B7300A512807E13A512807A479016BB7402F0AB
:104B8300E49016B6F09016B6E0FFC39440501D753E
:104B9300F005EF900002A512800760E0600E90160A
:104BA300BEE004F09016B6E004F080D99016BDE0A4
:104BB3007003024EEF7E007F157D007B007A16792D
:104BC3008CA5128008677E007F157D007B007A1616
:104BD30079A1A512800867E49016B7F09016B6F095
:104BE3009016B9E09016B6F09016BAE0FF9016B69C
:104BF300E0FEC39F4003024E719016B9E02405FD09
:104C0300E433FCEEC39DEC6480F8748098400302A7
:104C13004D2D9016B6E075F005900002A5128007A1
:104C230060E07003024E689016B7E075F004A424A8
:104C33008CF9741635F0FA7B00C003C002C0017B07
:104C4300807A0D7985901ACEA5128007779016B6D3
:104C5300E075F005900002A512800760E0901AD17C
:104C6300F0D001D002D003A51280090AE49016B84F
:104C7300F09016B6E0FF75F005900006A5128007C8
:104C830060E070069016B87403F075F005EF9000BD
:104C930003A512800760E0FF540F9016B8F020E0E0
:104CA30004E4F080459016B8E0FE30E0057401F0AE
:104CB3008038EE30E1089016B87402F0802CEE30A4
:104CC300E2089016B87403F08020EE30E31C30E362
:104CD300139016B6E075F005900003A512800760E7
:104CE300EF54F0F09016B87404F09016B8E0FF2576
:104CF300E025E02457F582E4340EF583E493FD7C4C
:104D030000C004C005EF25E025E02454F582E43417
:104D13000EF583A512800781C0019016B7E075F0E8
:104D230004A4248EF97416024E509016BEE0FF9030
:104D330016B6E0FEC39F4003024E7175F005EE9078
:104D43000002A512800760E07003024E689016B758
:104D5300E075F004A4248DF9741635F0FA7B00C0D5
:104D630003C002C0017B807A0D7985901ACEA5120B
:104D73008007779016B6E075F005900002A51280C3
:104D83000760E0901AD1F0D001D002D003A51280C1
:104D9300090AE49016B8F09016B6E0FF75F0059096
:104DA3000006A512800760E070069016B87403F041
:104DB30075F005EF900003A512800760E0FF540F24
:104DC3009016B8F020E004E4F080459016B8E0FEB9
:104DD30030E0057401F08038EE30E1089016B874C5
:104DE30002F0802CEE30E2089016B87403F08020B5
:104DF300EE30E31C9016B87404F030E3139016B64B
:104E0300E075F005900003A512800760EF54F0F001
:104E13009016B8E0FF25E025E02457F582E4340E30
:104E2300F583E493FD7C00C004C005EF25E025E095
:104E33002454F582E4340EF583A512800781C00162
:104E43009016B7E075F004A4248FF9741635F0A812
:104E530001FC7D00D001D007D006A5128004EE909E
:104E630016B7E004F09016B6E004F0024BEB7B00BB
:104E73007A16798CA512800010EF4E70127B007A9F
:104E83001679A1A512800010EF4E7003024F91D244
:104E93000B7B007A16798C90175BA51280077790AD
:104EA300175E7414A512807934D20B7B007A1679BD
:104EB300A190175BA5128007779016B7E024FB2516
:104EC300E025E090175EF07D01E4FFA512807938BC
:104ED3009016BBE014FDD20B9016D87402F0D20CDE
:104EE300E4FFA512807A55E49016BDF0A5128082E6
:104EF3005B9016BCEFF024E57003024F9124CB6066
:104F0300462408707A9016BBE0B4021AD20B9016AE
:104F1300D87402F0D20CE4FDFFA512807A559016E6
:104F2300BB7401F080599016B9E0D39400405090BF
:104F330016B9E024FBF0A3E024FBF09016BD740146
:104F4300F09016BBF080389016BBE0B4010DA512AB
:104F5300807A479016BB7402F080249016BEE0FF5F
:104F63009016BAE0C39F50179016B9E02405F0A33A
:104F7300E02405F09016BD7401F09016BB04F0A573
:104F83001280870E7F0AA51280BE4C024BAFA5226A
:104F930090168CEFF0A3EDF0E49016A3F0A3F0903D
:104FA3001757F0A3F0FE7F15FD7B007A16798EA5C7
:104FB300128008679003C4E0640160567B807A0D19
:104FC300798C901ACEA5128007777B007A16798E9A
:104FD300A51280090A9016A4EFF090168DE014FD37
:104FE300D20B7B007A16798E90175BA51280077718
:104FF3009016A4E090175EF0E4FFA512807938E4E0
:105003007FDC7E05A5128076C9900A7B7480F0024E
:10501300533E90168CE0640160030250FC7B807A5F
:105023000C79DD901ACEA5128007777B007A16796A
:105033008EA51280090A9016A4EFF090168DE01445
:10504300FDD20B7B007A16798E90175BA512800731
:10505300779016A4E090175EF0E4FFA512807938EC
:10506300E47FF47E01A5128076C9A5128106AD9076
:1050730016A3EFF0BF03087B807A0D799D8015900E
:1050830016A3E0B401087B807A0D79B080067B809B
:105093007A0D79BD901ACEA5128007777B007A1618
:1050A300798EA51280090A9016A4EFF090168DE070
:1050B30014FDD20B7B007A16798E90175BA51280B4
:1050C30007779016A4E090175EF0E4FFA5128079AD
:1050D30038E47FDC7E05A5128076C990168DE01436
:1050E300FDD20B900E34A51280078190175BA51299
:1050F300800777900E37025331A512809EC140037B
:105103000252C47B807A0C79DD901ACEA5128007F7
:10511300777B007A16798EA51280090A9016A4EF80
:10512300F090168DE014FDD20B7B007A16798E90E9
:10513300175BA5128007779016A4E090175EF0E442
:10514300FFA512807938E47FF47E01A5128076C929
:105153007E007FA07D007B007A1679B7A5128008B8
:10516300677B807A0D79C6901ACEA5128007779057
:1051730003AFE0901AD1F09003B0E0901AD2F09010
:1051830003B1E0901AD3F09003B2E0901AD4F090F8
:1051930003B3E0901AD5F09003B4E0901AD6F07BF5
:1051A300007A1679B7A51280090A9016B5E4F0A320
:1051B300740AF078A57C167D007B007A0379B47EAF
:1051C300007F10A5128004EE7B007A1679A5A51244
:1051D3008115A6EF640170097B807A0D799D0252D7
:1051E300CAE49016A3F07FF47E01A5128076C9A5C8
:1051F300128115D29016A3EFF06011E47F32FEA561
:10520300128076C99016A3E0640260E39016A3E0CF
:1052130070267B807A0D79DB901ACEA512800777F2
:105223007B007A16798EA51280090A9016A4EFF0F6
:10523300E4900A7BF00252E7A5128115F590175707
:10524300EEF0A3EFF07B807A0D79EC901ACEA512E5
:105253008007777B007A16798EA51280090A90164B
:10526300A4EFF090168DE014FDD20B7B007A167933
:105273008E90175BA5128007779016A4E090175EB7
:10528300F0E4FFA512807938E47FDC7E05A5128067
:1052930076C97B807A0D79FD901ACEA512800777A7
:1052A300901757E0FFA3E0901AD1CFF0A3EFF07B64
:1052B300007A16798EA51280090A9016A4EFF08061
:1052C300237B807A0E790B901ACEA5128007777B09
:1052D300007A16798EA51280090A9016A4EFF0E4DD
:1052E300900A7BF090168DE014FDD20B7B007A16AA
:1052F300798E90175BA5128007779016A4E090171C
:105303005EF0E4FFA512807938E47FDC7E05A51208
:105313008076C990168DE014FDD20B900E38A5123D
:1053230080078190175BA512800777900E3BE4936B
:1053330090175EF0E4FFA512807938A52290167DC0
:10534300E0FDD20A7F01901681EFF0A3EDF0E49027
:105353001699F0FE7F16FD7B007A167983A51280DD
:105363000867901682E06403607AE0FF25E025E099
:105373002443F582E43415F583E493FD7C00C004F3
:10538300C005EF25E025E02440F582E43415F583DC
:10539300A51280078178837C167D00D007D006A5EF
:1053A300128004EE300A05A51280CD9F901681E08D
:1053B300FDD20B7B007A16798390175BA5128007C9
:1053C30077901682E025E025E02443F582E4341546
:1053D300F583E493FF901699E0FEEF2E90175EF0AD
:1053E300E402549A200A39D20B901682E0FF25E09A
:1053F30025E02440F582E43415F583A51280078166
:1054030090175BA512800777EF25E025E02443F58D
:1054130082E43415F583E49390175EF0E4FD80771E
:10542300901682E0FF25E025E02443F582E434155D
:10543300F583E493FD7C00C004C005EF25E025E07F
:105443002440F582E43415F583A51280078178831F
:105453007C167D00D007D006A5128004EEA512802D
:10546300CD9F901681E0FDD20B7B007A1679839055
:10547300175BA512800777901682E025E025E024CC
:1054830043F582E43415F583E493FF901699E0FE27
:10549300EF2E90175EF0E4FFA512807938A52290D5
:1054A3001678EFF0A3EDF0E4901684F0A37405F002
:1054B3007E007F0A7D007B007A16797AA512800828
:1054C30067901678E0FF64017057EF25E025E0242C
:1054D30040F582E43415F583A512800781C003C02B
:1054E30002C001EF25E025E02443F582E43415F5FD
:1054F30083E493FD901679E090169EF07B007A1674
:10550300797AA3A5128007777A1679859016A2A5D2
:1055130012800777D001D002D003A51280C7E080A4
:1055230059901678E0FF25E025E02440F582E43425
:1055330015F583A512800781C003C002C001EF25C2
:10554300E025E02443F582E43415F583E493FD90EC
:105553001679E09016B7F07B007A16797AA3A51234
:105563008007777A1679859016BBA512800777D0C6
:1055730001D002D003A51280BFE3901684EFF0A5FB
:1055830012807E13901684E064017031C20B901672
:10559300D8F0D20CFDFFA512807A55901678E0FF63
:1055A3007A167B7A90169F7416F0A37485F0D20B4B
:1055B300E4FDFCA51280CDCCA512807E13C3A522E9
:1055C30090167EE0FDD20AE4FF901683EFF0A3ED80
:1055D300F0E4A3F0FE7F2CFD7B007A2C79E8A51282
:1055E300800867200A37D20B901684E0FF25E02558
:1055F300E0241AF582E43411F583A5128007819023
:10560300175BA512800777EF25E025E0241DF582BF
:10561300E43411A51280792D7F000257209016845F
:10562300E0FF25E025E0241DF582E43411F583E451
:1056330093FD7C00C004C005EF25E025E0241AF5A6
:1056430082E43411F583A51280078178E87C2C7DF0
:1056530000D007D006A5128004EE901684E0FF2543
:10566300E025E0241DF582E43411F583E49324E876
:10567300F582E4342CAD82FC90169F7416F0A3746B
:1056830085F0C20BE4FBFAA51280D513901683E0D4
:10569300FDD20B7B007A2C79E890175BA51280076B
:1056A30077901684E025E025E0241DF582E434118B
:1056B300F583E493FF901685E0FEEF2E90175EF0DE
:1056C300E4FFA512807938901684E0FF25E025E0F9
:1056D300241DF582E43411F583E493FE901685E0EE
:1056E300FDEE2D24E8F582E4342CF583E4F0EF2578
:1056F300E025E0241DF582E43411F583E493FF2DC6
:10570300FDE433FCD3ED9414EC64809480400C905E
:105713001685E0FEEF2E24ECFF80027F00A5229089
:105723001678EFF0A3EDF0E4901698F0A3F0C20919
:10573300901678E0FF25E0244EF582E43411F583DA
:10574300740193901699F0EF601864016014EF648C
:1057530002600FEF6407600AEF64086005EF6409F5
:10576300705B901678E0FF25E025E0241AF582E4CB
:105773003411F583A512800781C003C002C001EF75
:1057830025E025E0241DF582E43411F583E493FD3F
:10579300901679E090169EF07B007A16797AA3A58D
:1057A300128007777A1679999016A2A51280077747
:1057B300D001D002D003A51280C7E080599016789B
:1057C300E0FF25E025E0241AF582E43411F583A5F2
:1057D30012800781C003C002C001EF25E025E02449
:1057E3001DF582E43411F583E493FD901679E0907E
:1057F30016B7F07B007A16797AA3A5128007777A19
:105803001679999016BBA512800777D001D002D0E4
:1058130003A51280BFE3901698EFF0A512807E13C4
:10582300901698E064017031C20B9016D8F0D20C38
:10583300FDFFA512807A55901678E0FF7A167B7AE1
:1058430090169F7416F0A37499F0D20BE4FDFCA597
:105853001280D513A512807E13A209A522D20B9024
:105863001037A51280078190175BA51280077790E8
:10587300103AA51280792FD20B90103BA512800706
:105883008190175BA51280077790103EE4939017E1
:105893005EF07D01E4FFA512807938751E06E51ED2
:1058A3007003025936A51280825BEF641B700302FA
:1058B3005936EF640D705FFE7F2AFD7B007A0A790B
:1058C30049A5128008677E017FC07D007B007A01B5
:1058D30079C5A512800867E4FFEF25E025E02421C0
:1058E300F582E4342BF583E0FE75F007EF9001C5F4
:1058F300A512800760EEF00FEFB440DDA51280B56E
:105903003FA51280CD54A51280C5A7E47F64FEA5F0
:10591300128076C9801DA51280C5A7E47F64FEFDB1
:10592300FC90178F7422F0A374AEF0A5128076D189
:105933000258A1A522D209E4901676F0A512807E22
:1059430013D20B900FE7A51280078190175BA51266
:10595300800777900FEAA51280792FD20B900FEB77
:10596300A51280078190175BA512800777900FEE31
:10597300A512807A389016747401F0A304F02009FC
:1059830003025C9EA51280825B901676EFF024F3EF
:105993007003025B1C24F27003025B1724CB7003B9
:1059A300025A6924086003025C81901675E0640260
:1059B300702AD20B9016D87402F0D20CE4FDFFA526
:1059C30012807A559016757401F0901674E0700386
:1059D300025B11901674E014F0025C81D20B9016F6
:1059E30074E0FF25E025E024E7F582E4340FF58336
:1059F300A51280078190175BA512800777EF25E03A
:105A030025E024EAF582E4340FF583E49390175EEE
:105A1300F07D01E4FFA512807938901674E07005DB
:105A23007402F08006901674E014F0D20B90167492
:105A3300E0FF25E025E024E7F582E4340FF583A5B4
:105A43001280078190175BA512800777EF25E02569
:105A5300E024EAF582E4340FA51280792D901675BF
:105A63007401F0025C81901675E06401701CA5124C
:105A7300807A47901674E0B40204E4F0800690162E
:105A830074E004F0901675025B11D20B901674E06B
:105A9300FF25E025E024E7F582E4340FF583A51222
:105AA30080078190175BA512800777EF25E025E03B
:105AB30024EAF582E4340FA51280792D901674E060
:105AC300B40204E4F08006901674E004F0D20B9064
