:020000040000FA
:09000000021476080001038400DB
:10000B00A502810D03E4FFFEA54860090FEF700107
:07001B000EA56980F3A52288
:10002300A502806C9FEFB40A09740DA512800035F8
:10003300740A309811A899B8130CC2983098FDA887
:0F00430099C298B811F63099FDC299F599A52286
:10005300A50281283820202020BBB6D3ADB9E2C148
:10006300D90020202020C1E3C7AEB2BBD7E32020B4
:1000730020200020202020D1A1D4F1C9CCC6B7B3C1
:10008300ACCAB120202020002020C7EBB2E5C8EB8A
:10009300B8FCD0A1C3E6B6EED6BDB1D200CAE4C85F
:1000A300EBC9CCC6B7B1E0BAC53A2000C8B7B6A809
:1000B300454E54455220C8A1CFFB43414E43454CC6
:1000C3000020202020C7EBC8A1C1E3C7AE00C8A110
:1000D300CFFB43414E43454C0020202020CAE4C8B7
:1000E300EBB4EDCEF300C8B7B6A8454E5445520065
:1000F3002020C7EBCDB6C8EBD6BDB1D2BBF2D3B28D
:10010300B1D200BFCDBBA7D3E0B6EE3A2000D1A158
:10011300D4F1C6E4CBFCC9CCC6B7C2F03F20002063
:10012300202020BBFAC6F7B9CAD5CF002020202053
:10013300C9CCC6B7D2D1CADBCDEA0020202020200B
:1001430020D0BB2020D0BB00202020202020D4DDC5
:10015300CDA3B7FECEF10020202020D5D2C1E3C627
:10016300F7B9CAD5CF0020202020C7EBC9D4BAF2F3
:100173002E2E2E00BDF0B6EEB2BBD7E32C20BCD39F
:10018300C7AEC2F03F2000D5FDD4DAC8A1C9CCC6A2
:10019300B7A3ACC7EBC9D4BAF200D5FDD4DAD5D234
:1001A300C1E3C7AEA3ACC7EBC9D4BAF20020202089
:1001B30020D5D2C1E3CAA7B0DC0020202020486F9D
:1001C300772061726520796F752100C7EBCAE4C897
:1001D300EBC6E4CBFCC9CCC6B7B1E0BAC50020205E
:1001E3002020C7EBC8A1D7DFC9CCC6B70020202089
:1001F30020C7EBC8A1D7DFC1E3C7AE00C9CCC6B7E0
:10020300BBF5B5C0B9CAD5CF002020D1A1D4F1C662
:10021300E4CBFCC9CCC6B7C2F03F0020202020208D
:1002230020B2D9D7F7B3ACCAB10020202020D5FD26
:10023300D4DACDCBBFEE00C7B7BFEE3A0020202003
:1002430020C7EBCDB6C8EBD3B2B1D200202020201B
:10025300C7EBB2E5C8EBD6BDB1D200B2BBD5D2C1B4
:10026300E3A3ACB9BAC2F2C7EBCDB6B1D20020203A
:1002730045563736333620534D532056332E3300ED
:100283002020BBB9D2AAB9BAC2F2C9CCC6B7C2F050
:100293003F00202020202020CEDEC1E3B1D2002069
:1002A300202020B5A5BCDB3A00BBF5B5C03A200041
:1002B300CEDEBBF5002020B9CAD5CF002020D5D291
:1002C300C1E320203A002020C4E3B5C4D3E0B6EE56
:1002D3003A00564D44455600564D52454300257548
:1002E3000025752E25750025752E2530327500568F
:1002F3004D4D53470025627500533030393000535C
:100303003030313000483031323000533033323006
:10031300004130323130004130313130004430312E
:100323003130004430313131004430313031004418
:1003330030323130004430323131004430323031E8
:1003430000443033313000443033313100443033F2
:1003530030310043303030310043303031300043EE
:100363002530326275303000533034323000564D10
:1003730053554D005230302D2530386C75005230B6
:10038300312D2530386C75005230322D2530386CC4
:1003930075005030302D2530386C75005030312DBC
:1003A3002530386C75005630302D2530386C75008B
:1003B3005630312D25303875005630322D253038E2
:1003C3007500257325627825627825627825627821
:1003D30025627800257325627500257320256275D3
:1003E300202D2025730025732025750025732025D6
:1003F300752E2530327500257325750025732575F7
:100403002E2530327500257325752E257500D1A153
:10041300D4F1C6E4CBFCC9CCC6B7002000D7B4CC1A
:10042300ACB4FAC2EB203D20253032627820008044
:1004330000580C800065108000761480008B1480B7
:1004430000A00E8000AF148000C40C8000D10A808D
:1004530000DC0C8000E9098000F3128001060A80A9
:100463000111108001220C80012F0E80013E0C80AF
:10047300014B0E80015A0E8001690D8001771280B5
:10048300018A1280019D128001B00C8001BD108091
:1004930001CE128001CE128001E10E8001F00E80A8
:1004A30001FF0C80020C1180021E0E80022D0C80B5
:1004B300023A058002400E80024F0E80025E1280D7
:1004C300027111800283118002950C8002A20980BF
:1004D30002AC068002B3048002B8088002BF098020
:1004E30002C90B8002D5058002DB058F828E83ED66
:1004F300F5F0FFECFEE8FDE58260020583458360CD
:100503000EA548A55CA569A56DD582F5D583F2AB8B
:10051300F0ECFAE8F9A522EF8DF0A4A8F0CF8CF067
:10052300A428CE8DF0A42EFEA522BC000CBE002B69
:10053300EF8DF084FFADF0A522E4CCF875F008EF61
:100543002FFFEE33FEEC33FCEE9DEC984005FCEE02
:100553009DFE0FD5F0E9E4CEFDA522EDF8F5F0EE12
:100563008420D21DFEADF075F008EF2FFFED33FDB3
:100573004008985007D5F0F2A522C398FD0FD5F097
:10058300E9A522C2D5EC30E709B2D5E4C39DFDE469
:100593009CFCEE30E717B2D5E4C39FFFE49EFEA5B3
:1005A3001280052DC3E49DFDE49CFC8005A512800B
:1005B300052D30D507C3E49FFFE49EFEA522C5F0B9
:1005C300F8A3E028F0C5F0F8E582158270021583E0
:1005D300E038F0A522A3F8E0C5F025F0F0E5821598
:1005E3008270021583E0C838F0E8A522EF2BFFEEF6
:1005F3003AFEED39FDEC38FCA52275F00875820052
:10060300EF2FFFEE33FECD33CDCC33CCC58233C5D4
:10061300829BED9AEC99E58298400CF582EE9BFE65
:10062300ED9AFDEC99FC0FD5F0D6E4CEFBE4CDFAC0
:10063300E4CCF9A882A522B800C0B9005BBA002EA9
:10064300EC8BF084CFCECDFCE5F0CBF97818EF2F0F
:10065300FFEE33FEED33FDEC33FCEB33FB10D7033E
:10066300994004EB99FB0FD8E5E4F9FAA522781831
:10067300EF2FFFEE33FEED33FDEC33FCC933C9102E
:10068300D7059BE99A4007EC9BFCE99AF90FD8E060
:10069300E4C9FAE4CCFBA52275F010EF2FFFEE338B
:1006A300FEED33FDCC33CCC833C810D7079BEC9A8F
:1006B300E899400AED9BFDEC9AFCE899F80FD5F018
:1006C300DAE4CDFBE4CCFAE4C8F9A522EB9FF5F01C
:1006D300EA9E42F0E99D42F0E89C45F0A522E0FC49
:1006E300A3E0FDA3E0FEA3E0FFA522E493FC7401D5
:1006F30093FD740293FE740393FFA522E0F8A3E035
:10070300F9A3E0FAA3E0FBA522E493F8740193F9BB
:10071300740293FA740393FBA5227401FF3395E0EB
:10072300FEFDFCA3A3A3E0CF2FF0E58215827002A8
:100733001583E0CE3EF0E582158270021583E0CD8D
:100743003DF0E582158270021583E0CC3CF0A522D2
:10075300ECF0A3EDF0A3EEF0A3EFF0A522A4258225
:10076300F582E5F03583F583A522E0FBA3E0FAA348
:10077300E0F9A522EBF0A3EAF0A3E9F0A522E493C4
:10078300FB740193FA740293F9A522F8D0E0F58380
:100793004480FBD0E0FAD0E0F9A5487012A5497077
:1007A3000EA56AA549C0E0A548C0E0C083A522A55F
:1007B3004A6860EFA56B80E1F8D0E0F5834480FBE5
:1007C300D0E0FAD0E0F9A5487012A549700EA56AE9
:1007D300A549C0E0A548C0E0C083A522A54AB5F05D
:1007E30005A54B6860EAA56880DCE8CDFFECFEA5B3
:1007F30048F5F0A54CA569A56DB5F00670F17F002D
:10080300A52263F0806480D395F07FFF40027F01CF
:10081300A522E8CDF5F0FFECFEA548A55CA569A5EA
:100823006D70F6E8F9ABF0ECFAA5228F828E83EDBA
:10083300FFECFEE8FDE58260020583458370047FDB
:1008430000A522A548F5F0A54CA569A56DB5F00650
:10085300D582F0D583ED7FFFB5F0030FA5224002CB
:100863007F01A522EF4E6019EF60010EED89828AA8
:10087300838BF0A558A569DFFADEF88BF0A982AA6D
:1008830083A522F8E0FBA3A3E0F925F0F0E58215A8
:100893008270021583E0FA38F0A522E52E2400F5D4
:1008A30082E4341BF583E0052E22901AFD302303E6
:1008B300901B00E475F001A512800886A54822204C
:1008C3001CE77F2ED21C8018EF540F2490D43440A1
:1008D300D4FF30200BEF24BFB41A0050032461FF70
:1008E300E52F6002152F0532E53270020531302302
:1008F30010901AFDE475F001A512800886EFA55843
:1009030022A512800028227403D2238003E4C22389
:10091300F52E901AFDA512800777E4F52FF531F532
:1009230032E52F60097F20A5128008E380F375303C
:10093300FFC21DC21CC21EC21FC221C222C2241278
:1009430008ADFF700E3023057F001208F4AF32AEFE
:1009530031A522B4255FC2D5C2201208ADFF24D031
:10096300B40A00501A75F00A782F30D50508B6FF7F
:100973000106C6A426F620D5047002D21F80D9240E
:10098300CFB41A00EF5004C2E5D220020B0BD21DE4
:1009930080C6D21C80C0D21E80BCD2D580BAD221E0
:1009A30080B47F201208E3201E077401B52F004096
:1009B300F112089EFF1208E3020924D224D22280F6
:1009C3009512089EFB12089EFA12089EF94A4B7074
:1009D3000679DE7A0B7B80201E3AE52F60367E0097
:1009E300E9C0E02EF9EAC0E03400FAA548F9D0E006
:1009F300FAD0E0C960060EEE653070E4C2D5EBC0F4
:100A0300E0EAC0E0E9C0E0EE120B54D0E0F9D0E038
:100A1300FAD0E0FBA548FF609FEBC0E0EAC0E0E945
:100A2300C0E01208E3D0E02401F9D0E03400FAD0AA
:100A3300E0FBE5300460DDD530DA0209BB7B807A68
:100A43000B7950D21E8090791080027908C222C29D
:100A5300248008D2D5790A8004790AC2D5E5300406
:100A63007002F530E4FAFDFEFF12089EFC7B0820BD
:100A73001D1312089EFD7B10301C0A12089EFE12E5
:100A8300089EFF7B20EC3382D592D55013C3E4300C
:100A93001C069FFFE49EFEE4201D039DFDE49CFCD9
:100AA300E4CBF8C21DEC700CCFCECDCCE824F8F823
:100AB30070F38017C3EF33FFEE33FEED33FDEC33FA
:100AC300FCEB33FB994002FB0FD8E9EB301D05F833
:100AD300D0E0C448B21DC0E00AEC4D4E4F78207BF5
:100AE3000070C2EAB5300040BCC0E0120B56D0F033
:100AF300D0E0201D04C4C0E0C4B21DC0F01208CC75
:100B0300D0F0D5F0EB020924A51280078E09C45357
:100B13000A4A5809954C0991420A4E4F0A56440A0B
:100B2300564909AA430A5C550A40460A40450A4009
:100B3300470BF95009992D099D2E09C02B09A123B3
:100B430009BE200BE72A095948000009B83F3F3F77
:100B530000790AA2D5201F14302109B91002040418
:100B6300B9080104A2D5202202500104201E689274
:100B73001EB52F005034C0E07F20301F197F30A2F4
:100B83001E72227221500F120BADC21EC222C2214D
:100B9300C2247F30800F302103E9C0E01208E33024
:100BA3002103D0E0F9D0E0B52FCC3021177F30B945
:100BB300100C1208E37F583020077F788003B908B0
:100BC300031208E3301E057F2D0208E37F20202453
:100BD300F87F2B2022F322921E80CF286E756C6C37
:100BE3002900D21D12089E301DF8C21D782F30D562
:100BF3000108F602095912089EC0E0C41208CCD0BD
:100C0300E01208CC743A1208D4D21F752F04020ADA
:100C13004A31202331D5D2C1E3C6F7C3E6D6B53A6C
:100C23000032202332D5D2C1E3C6F7C3E6D6B53AA4
:100C33000033202333D5D2C1E3C6F7C3E6D6B53A92
:100C4300003420D4CAD0EDB6E0B4CEB9BAC2F23A79
:100C5300003520B2BBC2F2BBF5CDCBB1D23A0036E0
:100C630020BFAAC6F4D6BDB1D2C6F73A003720BF1B
:100C7300AAC6F4CAD6BBFAC4A3BFE93A003820D344
:100C8300E0B6EECFC2CFDE3A003920CAD5B1D2C921
:100C9300CFCFDE3A0031302020D2C9CECABDF0B664
:100CA300EE3A0031312020BBFAC6F7B1E0BAC53ABB
:100CB300200031322047534DBAC5C2EB3A003133DD
:100CC3002020C7B7CCF53A0031342E20D0A1CAB5C5
:100CD300E33A0031352E202331D6BDB1D2C3E6D657
:100CE300B53A0031362E202332D6BDB1D2C3E6D673
:100CF300B53A0031372E202333D6BDB1D2C3E6D661
:100D0300B53A0031382E202334D6BDB1D2C3E6D64E
:100D1300B53A0031392E202335D6BDB1D2C3E6D63C
:100D2300B53A0032302E202336D6BDB1D2C3E6D633
:100D3300B53A0032312E202337D6BDB1D2C3E6D621
:100D4300B53A0032322E202338D6BDB1D2C3E6D60F
:100D5300B53A0032332E202331D3B2B1D2C3E6D613
:100D6300B53A0032342E202332D3B2B1D2C3E6D601
:100D7300B53A0032352E202333D3B2B1D2C3E6D6EF
:100D8300B53A0032362E202334D3B2B1D2C3E6D6DD
:100D9300B53A0032372E202335D3B2B1D2C3E6D6CB
:100DA300B53A0032382E202336D3B2B1D2C3E6D6B9
:100DB300B53A0025750025752E25750025752E2558
:100DC3003032750025627500253262780025303295
:100DD300627800800C140F800C240F800C340F8079
:100DE3000C440F800C540D800C620D800C700F802E
:100DF3000C800B800C8C0B800C980D800CA60D8046
:100E03000CB50B800CC109800CCB0B800CD60F806A
:100E13000CE60F800CF60F800D060F800D160F8069
:100E23000D260F800D360F800D460F800D560F8057
:100E33000D660F800D760F800D860F800D960F8047
:100E43000DA60F00050005000500010001000100CB
:100E53000100050005000500050010000100010068
:100E63000500050005000500050005000500050057
:100E730005000500050005000500053120D6BDB1BC
:100E8300D2C6F7D7B4CCAC3A20003220D3B2B1D219
:100E9300C6F7D7B4CCAC3A200033202331D5D2C126
:100EA300E3C6F7D7B4CCAC3A200034202332D5D2F2
:100EB300C1E3C6F7D7B4CCAC3A200035202333D5F1
:100EC300D2C1E3C6F7D7B4CCAC3A20003620CAD699
:100ED300BBFAC4A3BFE9D7B4CCACB2E2CAD40037DF
:100EE30020B6CCD0C5B2E2CAD4003820BBF5B5C019
:100EF300D7B4CCAC003920BBF5B5C0BCECB2E20032
:100F0300D5FDB3A300B9CAD5CF00CEDE00B2BBD79F
:100F1300E300BDFB00B6D400B4ED00C8B7B6A845E6
:100F23006E74657220C8A1CFFB43616E63656C006C
:100F3300D5FDD4DABCECB2E220253032627520BB99
:100F4300F5B5C00020202020C7EBC9D4B5C82E2E8C
:100F53002E002020BBF5B5C0B0E53A20B9CAD5CFE5
:100F6300202020002020BBF5B5C025303262753A21
:100F730020B9CAD5CF202020002020BBF5B5C02042
:100F830025303262753A2020D5FDB3A320002020FE
:100F93002020D3B2B1D2C6F7B2E2CAD400C7EBCD98
:100FA300B6B1D23A00D2D1CDB6C8EBBDF0B6EE3A67
:100FB30020257500D2D1CDB6C8EBBDF0B6EE3A20F0
:100FC30025752E257500D2D1CDB6C8EBBDF0B6EE92
:100FD3003A2025752E25303275002020D3B2B1D2A8
:100FE300C6F7CAC7B7F1D5FDB3A33F0025303262B8
:100FF30075200020202020C4A3BFE9C3BBD3D0BFEA
:10100300AAC6F400C4A3BFE9D5FDC3A6A3ACC9D443
:10101300BAF3D4D9CAD400C4A3BFE9B2E2CAD4CACA
:10102300A7B0DC00C4A3BFE9D5FDB3A300564D4D63
:101033005347256278256278256278256278256290
:101043007800B2E2CAD4B6CCD0C5B7A2CBCDB3C96F
:10105300B9A600B2E2CAD4B6CCD0C5B7A2CBCDCA2A
:10106300A7B0DC00B9CAD5CFB4FAC2EB203D202526
:101073007500D5FDD4DAB3F5CABCBBAFA3ACC9D4F4
:10108300BAF3D4D9CAD400800E7E0E800E8D0E80A2
:101093000E9C10800EAD10800EBE10800ECF1280FD
:1010A3000EE20A800EED0A800EF80A800F03048018
:1010B3000F0804800F0D02800F1004800F150280AB
:1010C3000F1802800F1B02800F0D023120BBF5B1F8
:1010D300D2CAD5D6A7003220C9CCC6B7003320C7A1
:1010E300E5BFD5BCC7C2BC003120BBF5B1D2D7DC4C
:1010F300CAD5C8EB3A003220D6BDB1D2CAD5C8EBA7
:101103003A003320D3B2B1D2CAD5C8EB3A00342067
:10111300BDBBD2D7D7DCBDF0B6EE3A003520D5D271
:10112300C1E3D7DCBDF0B6EE3A0036202331B3F687
:10113300B1D2D7DCBDF0B6EE3A0037202332B3F696
:10114300B1D2D7DCBDF0B6EE3A0038202333B3F684
:10115300B1D2D7DCBDF0B6EE3A0039202331B3F675
:10116300B1D2C3B6CAFD3A00313020202332B3F6E0
:10117300B1D2C3B6CAFD3A00313120202333B3F6CE
:10118300B1D2C3B6CAFD3A003120B3C9B9A6BDBBBB
:10119300D2D7B4CECAFD3A003220D2C9CECABDBB23
:1011A300D2D7B4CECAFD3A003320B5A5BBF5B5C03E
:1011B300BDBBD2D7CDB3BCC6003120BBF5B5C0B1E2
:1011C300E0BAC53A003220B3C9B9A6BDBBD2D7CD68
:1011D300B3BCC63A003320D2C9CECABDBBD2D7B442
:1011E300CECAFD3A002020C4E3C8B7B6A8C2F03F78
:1011F30000C8B7B6A8454E54455220C8A1CFFB43FB
:10120300414E43454C002020C3BBD3D0BDBBD2D7F6
:10121300BCC7C2BC0025750025627500B1E0BAC524
:10122300CAE4C8EBB4EDCEF300C7EBCAE4C8EBC61F
:10123300E4CBFCB1E0BAC500256C7500256C752EB6
:10124300256C7500256C752E2530326C7500801069
:10125300CE0A8010D9068010E00A8010EB0D8010B2
:10126300F90B8011050B8011110D80111F0D8011D9
:101273002D0F80113D0F80114D0F80115D0D8011D9
:101283006B0F80117B0F80118B0F80119B0F8011CF
:10129300AB108011BC0B8011C80F8011D80F8011C7
:1012A300E80B8011F4148012090E3120B2E3BCDC88
:1012B300B1E0BAC53A003220CAC7B7F1C6F4D3C306
:1012C3003A003320D7EEB4F3B4E6BBF5C1BF3A001E
:1012D3003420B5DAD2BBBBF5B5C03A003520B5DA58
:1012E300B6FEBBF5B5C03A003620B5DAC8FDBBF58E
:1012F300B5C03A003720B5DACBC4BBF5B5C03A0068
:101303003820B5DACEE5BBF5B5C03A003920B5DAF9
:10131300C1F9BBF5B5C03A0031302020B5DAC6DFDC
:10132300BBF5B5C03A0031312020B5DAB0CBBBF5FF
:10133300B5C03A0025627500CAE4C8EBB2E3BCDC71
:10134300B1E0BAC53A00B1E0BAC5CAE4C8EBB4ED3E
:10135300CEF300C7EBCAE4C8EBC6E4CBFCB1E0BAFA
:10136300C5008012AD0B8012B90B8012C50D80121F
:10137300D30B8012DF0B8012EB0B8012F70B801361
:10138300030B80130F0B80131B0D8013290D00011A
:101393000001000200010001000100010001000141
:1013A3000001000141014300420A9F00004101C4C2
:1013B30001410AA1004203FF000041000000C129CE
:1013C300C12AC1A6C12BC1A8C127412D7200412D3D
:1013D3006E00412D6F00C12E412D7101412D700012
:1013E3004128220041233401412D4800412D490069
:1013F300412D4A00412D4B00412D4C00412D4D0004
:10140300C10BC10CC10DC10EC10FC110C111C1125D
:10141300C113C114C115C116412D4E00014D104613
:101423002CD3080001009600412D1900C132014F51
:1014330000411C8D00410E3300410E2F004111006D
:1014430001410E3101C12CC12D410E3500410E3633
:10145300014115010041151200410AA400410AA5EA
:1014630000420CA60000410CA800410CA900410E4B
:101473002A0000A575FF07758E0378FEE4F6D8FDF4
:1014830075818FA575FB00759008A5028014BDA515
:1014930002808FE1E493A3F85407240CC8C333C438
:1014A300540F4420C8834004F456800146F6DFE419
:1014B300800B01020408102040809013A7E47E01F2
:1014C3009360CCA3FF543F30E509541FFEE493A37C
:1014D30060010ECF54E0B4E01CE493FBA3E493FA61
:1014E300A3E493F9A3E493A558A309E970010ADFE0
:1014F300F4DEF280C854C025E060254097E493A34E
:10150300FAE493A3F8E493A3C8C582C8CAC583CAFF
:10151300F0A3C8C582C8CAC583CADFE9DEE7809DD8
:10152300E493A3F8E493A34003F68001F208DFF405
:10153300808B312EBBF5B5C0B2CECAFD00322ECCA6
:10154300EDBBF500332EC9E8B1B8B9DCC0ED00340A
:101553002ECFB5CDB3B2CECAFD00352EBDBBD2D78B
:10156300BCC7C2BC00362EBBF5BCDCC5E4D6C30089
:1015730020202020C4E3C8B7B6A8CCEDBBF5C2F049
:101583003F00C8B7B6A8454E54455220C8A1CFFB6B
:1015930043414E43454C002020D5FDD4DAB1A3B4DA
:1015A300E6002000B1A3B4E6CAA7B0DCA3ACD6D84A
:1015B300D0C2C9E8D6C33F002020454E544552202F
:1015C300202043414E43454C008015350A80154089
:1015D300068015470A8015520A80155D0A80156832
:1015E3000A41545A0041542B4950523D3338343048
:1015F3003000415445300041542B435343533D2263
:10160300484558220041542B434D47463D30004145
:10161300542B434D4744413D36002B434D54493AE7
:101623000041542B434D47533D2564003E00455232
:10163300524F520041542B434D47523D25626400A3
:10164300002B434D47520041542B434D47443D2506
:1016530064004F4B0030313233343536373839413B
:101663004243444546003120BBF5B5C0B1E0BAC59D
:101673003A20003220B5A5BCDB3A20003320C9CC88
:10168300C6B7D3E0C1BF3A20003420BBF5B5C0D7FD
:10169300B4CCAC3A200025303262750025750025A4
:1016A300752E25750025752E25303275002533627C
:1016B3007500256275008016690C80167608801601
:1016C3007F0C80168C0C200020202020202020203E
:1016D30020202020202020202020202000C7EBCA0B
:1016E300E4C8EBB1E0BAC53A2000B1E0BAC5CAE438
:1016F300C8EBB4EDCEF300C7EBCAE4C8EBC6E4CB4A
:10170300FCB1E0BAC500202020202020202020208A
:101713002020202020202020202000C2D5E830E7F0
:101723000FB2D5E4C39BFBE49AFAE499F9E498F881
:10173300EC30E71BB2D5A51280175AA51280063AE2
:10174300E4C39BFBE49AFAE499F9E498F88005A5CD
:101753001280063A30D50DE4C39FFFE49EFEE49D5C
:10176300FDE49CFCA5224742323331320057494EF7
:1017730031323532000D51961052640505050505C9
:1017830005050504040404080807FF01010101011C
:1017930001010102020202030306FF5050505050A0
:1017A3005050501B1B1B1B0D0D18FF09090909097C
:1017B3000909092E2E2E2E000048FF00000001000B
:1017C30000000A00000064000003E8000027100086
:1017D3000186A0000F42400098968005F5E10007BE
:1017E3000201009600000100020005000A00140037
:1017F3003200640000000001010100000008000144
:10180300009600901C81EBF0A3EAF0A3E9F0A3E0BB
:10181300FBA3E0FAA3E0F9A54870030218AF901CFC
:1018230081E0FBA3E0FAA3E0F9A54870030218BC2A
:10183300A3E0F9A3E0FAA3E0A3C9F0A3EAF0A3E9C4
:10184300F0901C81A3E0FAA3E0F9901C8AEBF0A3CB
:10185300EAF0A3E9F0901C87E0FBA3E0FAA3E0F928
:10186300A548FF6027A3E0FBA3E0FAA3E0F9A5489E
:101873006F7019901C8875F001A5128005C1901C2A
:101883008BE475F001A5128005C180C9901C87E027
:10189300FBA3E0FAA3E0F9A5487002800F901C8235
:1018A300E475F001A5128005C1021821901C81E0A6
:1018B300FBA3E0FAA3E0F980067B007A007900A598
:1018C30022EFC39461400BEF947B5006EF24E0FFBB
:1018D3008000A522EFC394304007EF943A50028072
:1018E30001C3A522E4901516F0A3F0A512807F98FA
:1018F300900AA17405F0D21AE0FF25E025E0243216
:10190300F582E43404F583A51280078190178DA531
:1019130012800777EF25E025E02435F582E43404CF
:10192300F583E493901790F07D01E4FFA51280788E
:1019330052751D0FE51D6026A5128076F8A512804D
:10194300B67D901517EFF0F460EA901517E024E5E3
:101953006008240E70DE7F0080067F0180027F0214
:10196300A522E4901515F0900AA1740CA5128078B5
:101973001CA5128018E7901515EFF07009A51280C9
:101983007F987F018028901515E0B401047F0080C3
:101993001D900AA1741EA51280781C7F02A51280D7
:1019A300B642E47FF47E01A5128075327F00A52242
:1019B300E4901515F0900AA17413A51280781CE425
:1019C300FFA5128018E7EF700EA5128087F9A51204
:1019D300801A097F01802D7E007F147D007B007AB1
:1019E3000379EBA512800867900AA17412A51280EF
:1019F300781C7F02A51280B642E47F64FEA51280A4
:101A030075327F00A522900A9FE0FEA3E0FF9015A8
:101A130019EEF0A3EFF0E4A3F0D3EF9400EE9400FB
:101A230050057F00021BC9900AA1740BF07E007F52
:101A3300147D007B007A0379EBA512800867900A76
:101A4300A1E0FF25E025E02435F582E43404F583A5
:101A5300E49390151BF0FD7C00C004C005EF25E066
:101A630025E02432F582E43404F583A5128007814E
:101A730078EB7C037D00D007D006A5128004EE909E
:101A8300151BE0FF24EBF582E43403F5837420F0A7
:101A93007C007D01E46003021B6EED24F6603A24B2
:101AA300A6607724636003021B6E74EC2FF9E434A1
:101AB30003FA7B00C003C002C0017B807A0279E194
:101AC300901B00A512800777901519E0FFA3E09003
:101AD3001B03CFF0A3EF021B5C90151BE024ECF972
:101AE300E43403FA7B00C003C002C0017B807A02A6
:101AF30079E4901B00A512800777901519E0FEA3E7
:101B0300E0FF901B03EEF0A3EFF07C007D01A51234
:101B130080052DA3ECF0A3ED803F90151BE024EC92
:101B2300F9E43403FA7B00C003C002C0017B807A6E
:101B33000279EA901B00A512800777901519E0FE41
:101B4300A3E0FF901B03EEF0A3EFF07C007D01A563
:101B53001280052DA3ECF0A3EDF0D001D002D00349
:101B6300A51280090A90151BE02FF090151BE004C5
:101B7300F0D21A7B007A0379EB90178DA5128007B8
:101B83007790151BE0A51280784BD21A900442A5DA
:101B93001280078190178DA512800777900445E482
:101BA3009314901790F07D01E4FFA512807852E41E
:101BB3007F64FEFDFC9017C17422F0A374E0F0A5CE
:101BC3001280753A7F00A522E4901515F0A3F0A3C7
:101BD300F0A3F0901515F0A3F0D3900AA0E09400C1
:101BE300900A9FE0940040077F01A512808FD230B6
:101BF3002907A512807FA2C229302776D21AE49042
:101C0300170AF0D21B7D01FFA51280796FC227E46A
:101C1300F514900AA2F0805A901517E07002A3E021
:101C2300605F901517E0FEA3E0FF900A9FEE8FF030
:101C3300A5128005C1900A6CA5128006FFE4FCFD85
:101C4300A5128005EF900A6CA512800753900A74C1
:101C5300A5128006FF901517E0FEA3E0FFE4FCFD4C
:101C6300A5128005EF900A74A512800753A5128070
:101C730076F8A512808D42901517EEF0A3EFF08051
:101C8300979003A5E064016003021DA6A512808E50
:101C93004EEF7003021DA6A512811C53901515EE7D
:101CA300F0A3EFF04E7008A512808000021D9D90F6
:101CB3001515E0FEA3E0FF900AA0E02FFF900A9F16
:101CC300E03EFEC39003AAE09F9003A9E09E503438
:101CD300900AA17403A51280781C7F02A51280B616
:101CE30042E47FDC7E05A512807532A51280800058
:101CF300900A9FE0FCA3E0FD4C70028049AF05AE63
:101D030004021E68A5128087A5751D0AE51D600FD4
:101D1300A51280FFCBEF7007A5128076F880EDE562
:101D23001D702CA512808000901515E0FFA3E09094
:101D330003ABCFF0A3EFF0A51280D3E7900A9FE0A7
:101D43007002A3E07054900AA3F07F02021E6F900A
:101D53001515E0FEA3E0FF900A9FEE8FF0A5128019
:101D630005C1900A6CA5128006FFE4FCFDA5128054
:101D730005EF900A6CA512800753900A70A5128094
:101D830006FF901515E0FEA3E0FFE4FCFDA512801D
:101D930005EF900A70A512800753E47F14FEA51285
:101DA3008075329003A9E0FEA3E0FFC3900AA0E090
:101DB3009F900A9FE09E5003021E60E47F32FEA5BF
:101DC30012807532751690E5166052A512808D4209
:101DD300901517EEF0A3EFF04E603B901517E0FE61
:101DE300A3E0FF900A9FEE8FF0A5128005C1900A31
:101DF3006CA5128006FFE4FCFDA5128005EF900A96
:101E03006CA512800753900A74A5128006FF9015E3
:101E130017A5128076E0A5128076F880AAA5128015
:101E230087D6A512801A099003A5E0B40121751D78
:101E330001E51D601AA512808E4EEF6007A5128082
:101E43008000800BE47F0AFEA51280753280E2E4F5
:101E53007FF47E01A5128075327F01800F900A9F67
:101E6300E0FEA3E0FFA512801A117F00A522E490F3
:101E73001515F0FE7F4BFD7B007A03799EA512803A
:101E83000867E47F64FEA512807532D21A9004C2FB
:101E9300A51280078190178DA5128007779004C53E
:101EA300A512807849D21A90047AA51280078190EE
:101EB300178DA51280077790047DE493901790F017
:101EC3007D01E4FFA512807852E47F64FEA51280B1
:101ED30075327F00A522E4901515F0A3F0FE7F1460
:101EE300FD7B007A0379EBA512800867900AA17441
:101EF30004F0A3E0FF7003021F937B807A0379D77A
:101F0300901B00A512800777900AA1E025E025E049
:101F13002432F582E43404F583A512800781901BF3
:101F230003A512800777901B06EFF07B007A0379F5
:101F3300EBA51280090A901516EFF0D21A7B007AEE
:101F43000379EB90178DA512800777EF04A5128014
:101F5300784B900AA2E0C3940A50227F02A5128014
:101F6300B642901516E0FFD21A90170A7401F0D208
:101F73001BE4FDA51280796F7F0102202ED21AE4A3
:101F830090170AF0D21B7D01FFA51280796F801391
:101F9300D21AE490170AF0D21B7D01FFA5128079B3
:101FA3006F8075A512807F98900AA2E0FFD3946397
:101FB3005005EF9400500FD21AE4A512807809A5BA
:101FC300128074EC8052E4901515F0A3F09015166E
:101FD300E0FFC39440502FEF25E025E02453F58222
:101FE300E4342BF583E0FF900AA2E0B507109015C7
:101FF30016E0900AA2F09015157401F08008901570
:1020030016E004F080C7901515E0701DD21AA512D2
:10201300807809A5128074ECC227E4F514900AA213
:10202300F0A37406F07F0180027F00A522E49015DF
:1020330015F0302709E51460057F0102222CE49096
:102043000AA2F09003FFE07002A3E070059001C4C0
:1020530004F09001C4E0640160030221F3900AA339
:10206300E075F00684C39401500302220E9003A589
:10207300E06401600302211830264C900AA1A512E6
:1020830080781C900A96E0FF700DA3E07009900A17
:10209300A1740AF0022134EF700F900A97E06009EF
:1020A300900AA17422F0022134900A96E06009A3F9
:1020B300E07005900AA18071900400E04401F09063
:1020C3000AA17410F0806A900AA17426A512807880
:1020D3001C900AA17423F0E4901515F0901515E0F7
:1020E300FFC39403504BEF25E025E02462F582E41F
:1020F300340AF583E064026014901515E025E025A9
:10210300E02462F582E4340AF5837402F090151535
:10211300E004F080C7900A97E07016900AA1A51218
:1021230080781C900AA13026057421F08003742363
:10213300F0D21A900AA1E0FF25E025E02432F582CF
:10214300E43404F583A51280078190178DA51280CE
:102153000777EF25E025E02435F582E43404F583A1
:10216300E493901790F07D01E4FFA512807852E488
:102173007F64FEA512807532A51280FFC4EF64014F
:10218300705DD21A900AA1E0FF25E025E02432F524
:1021930082E43404F583A51280078190178DA5127C
:1021A300800777EF25E025E02435F582E43404F554
:1021B30083E493901790F07D01E4FFA51280785299
:1021C300E47F64FEA512807532A51280FFC4BF01AF
:1021D3000E9003FFE04402F0A3E0F07F01804AE4A5
:1021E3007FF47E01A512807532E4900AA3F0801B70
:1021F300900AA17410A51280781C7F02A51280B6E4
:1022030042E47FF47E01A512807532900AA3E004B4
:10221300F0A512808BE0BF01047F02800CE47FF401
:102223007E01A5128075327F01A522E4901515F079
:1022330090152EF0A3F0A3F090152DF0751690E5F0
:10224300166052A512808D4290152FEEF0A3EFF089
:102253004E603B90152FE0FEA3E0FF900A9FEE8FA8
:10226300F0A5128005C1900A6CA5128006FFE4FC5C
:10227300FDA5128005EF900A6CA512800753900A02
:1022830074A5128006FF90152FA5128076E0A51283
:102293008076F880AAA5128087D6900A9FE0700204
:1022A300A3E070057F020225597E007F037D007B3A
:1022B300007A157916A512800867E4901515F0FECB
:1022C3007F14FD7B007A157919A512800867900A9F
:1022D300A17404F0E0FF25E025E02435F582E43421
:1022E30004F583E493FD7C00C004C005EF25E025DD
:1022F300E02432F582E43404F583A5128007817863
:10230300197C157D00D007D006A5128004EE900A33
:10231300A1E025E025E02435F582E43404F583E4E7
:102323009390152EF0900AA2E0FFC3943040519091
:102333001516EFF0900AA224D0F0901515E004F0E2
:1023430090152EE02419F9E43415A801FC7D007BD7
:10235300007A1579167E007F01A5128004EED21A49
:102363007B007A15791990178DA512800777901540
:102373002EE004A51280784B90152EE004F080190E
:10238300D21A7B007A15791990178DA512800777D9
:1023930090152EE0A51280784B900AA17405F0D217
:1023A3001AE0FF25E025E02432F582E43404F583C6
:1023B300A51280078190178DA512800777EF25E07E
:1023C30025E02435F582E43404F583E493901790F3
:1023D300F07D01E4FFA51280785290152EE0FFD224
:1023E3001A90170A7401F0D21BE4FDA512807F93A3
:1023F3009003A5E0B40105A51280800090152D740B
:10240300FFF0E47F14FEA512807532A51280B67D1D
:1024130090152DEFF0F460E490152DE0FF24F650B5
:1024230002805F901515E0FEC39402504FEF2430F5
:10243300FF74162EF582E43415F583EFF09015152D
:10244300E004F0C21AE02415F9E43415FA7B009095
:10245300178DA5128007779017907401A5128078C5
:102463004E900AA2E075F00AA4FF90152DE02F907C
:102473000AA2F0E47F14FEA51280753290152D7424
:10248300FFF090152DE0FF641B6008EF640D6003FF
:102493000223FFA512807F98D21AE490170AF0D284
:1024A3001B7D01FFA51280796F90152DE0B41B03EE
:1024B30002254E901515E0FFD394025005EF9400CA
:1024C300500CA512807817A5128074EC807D9015AE
:1024D30015E06402600302255990152DE0640D7028
:1024E300757FC8FEA512807532900AA2E0700CA514
:1024F30012807817A5128074EC8050E490152DF0AB
:10250300A3F090152EE0FFC39440502FEF25E02554
:10251300E02453F582E4342BF583E0FF900AA2E034
:10252300B5071090152EE0900AA2F090152D7401B6
:10253300F0800890152EE004F080C790152DE07010
:1025430013A512807817A5128074ECE4900AA2F008
:102553007F0180027F00A522900AA2E075F005901A
:102563000006A512800760E0701D900AA1740EA5F5
:102573001280781C900AA17419A5128074F1E4905A
:102583000AA2F07F028038900AA2E075F00590005D
:1025930003A512800760E030E01A540A7016900A0F
:1025A300A2E075F005900004A512800760E0FEA389
:1025B300E04E7009E4900AA2F07F0180027F00A53B
:1025C30022900AA1741CA51280781C7F02A5128098
:1025D300B642E47FDC7E05A512807532A512809693
:1025E30059EF6401600302272D900AA1741DA512FF
:1025F30080781C900AA17405A5128074F1A512803D
:102603007F98A512808B11A51280B67D901515EFCA
:10261300F0F460EE901515E024E56004240E70E2FA
:10262300901515E0FF641B6004EFB40DD5EF641B38
:102633006003022723900AA17415A51280781C7EDB
:10264300007F147D007B007A0379EBA51280086775
:102653007E007F01E460030226E5EF24F660362462
:10266300A660322463707B7B807A0379FA901B0027
:10267300A5128007779004DEA512800781901B03C3
:10268300A512800777900A9FE0FFA3E0901B06CF77
:10269300F0A3EF803C7B807A0379FF901B00A512A7
:1026A3008007779004DEA512800781901B03A51293
:1026B300800777900A9FE0FEA3E0FF901B06EEF0F1
:1026C300A3EFF07C007D01A51280052DA3ECF0A300
:1026D300EDF07B007A0379EBA51280090A901515BA
:1026E300EFF0D21A7B007A0379EB90178DA5128055
:1026F3000777901515E0901790F07D01E4FFA51280
:10270300807852E47F2C7E01A512807532900A9F57
:10271300E0FFA3E09003E9CFF0A3EFF07F01805542
:10272300901515E0640D704D8040900AA1741DF062
:10273300D21AE0FF25E025E02432F582E43404F5E3
:1027430083A51280078190178DA512800777EF2547
:10275300E025E02435F582E43404F583E49324FD95
:10276300A51280784BA51280752DA512807F98E461
:10277300900AA2F0FFA522E4901515F0A3F0900AA9
:10278300A17414A51280781C7E007F147D007B0049
:102793007A0379EBA5128008677E007F01E460036A
:1027A30002286FEF24F6603924A660732463600364
:1027B30002286F7B807A0379FA901B00A5128007A9
:1027C300779004E2A512800781901B03A51280076E
:1027D30077900A9FE0FFA3E0901B06CFF0A3EF8062
:1027E3007A7B807A047909901B00A5128007779081
:1027F30004E2A512800781901B03A512800777903E
:102803000A9FE0FEA3E0FF901B06EEF0A3EFF07C2F
:10281300007D01A51280052DA3ECF0A3ED803C7B88
:10282300807A0379FF901B00A5128007779004E25A
:10283300A512800781901B03A512800777900A9F3A
:10284300E0FEA3E0FF901B06EEF0A3EFF07C007D1B
:1028530001A51280052DA3ECF0A3EDF07B007A0314
:1028630079EBA51280090A901516EFF0D21A7B00B6
:102873007A0379EB90178DA512800777901516E0F0
:10288300901790F07D01E4FFA512807852E47FF465
:102893007E01A512807532A51280B0F0901515EF58
:1028A300F0BF070CE4F0A51280B0F0901515EFF01F
:1028B300901515E0A51280078E28D5002ADE012A7F
:1028C300DE022C35032C350428D5052C35070000F2
:1028D3002CC7900AA2E075F005900004A5128007AA
:1028E30060E0FEA3E0FFC3900AA0E09FF0900A9F80
:1028F300E09EF0900AA1741AA51280781CA512809C
:102903009659EF70279003A6E0B40116B4011DA3F6
:10291300E0FEA3E0FFC3900AA0E09F900A9FE09E21
:10292300500A7F02A51280B642022A3E7E007F141F
:102933007D007B007A0379EBA5128008677E007F18
:1029430001E46003022A13EF24F6603924A66073BE
:1029530024636003022A137B807A0379FA901B00B5
:10296300A5128007779004E2A512800781901B03CC
:10297300A512800777900A9FE0FFA3E0901B06CF84
:10298300F0A3EF807A7B807A047909901B00A5126B
:102993008007779004E2A512800781901B03A5129C
:1029A300800777900A9FE0FEA3E0FF901B06EEF0FE
:1029B300A3EFF07C007D01A51280052DA3ECF0A30D
:1029C300ED803C7B807A0379FF901B00A512800782
:1029D300779004E2A512800781901B03A51280075C
:1029E30077900A9FE0FEA3E0FF901B06EEF0A3EFB3
:1029F300F07C007D01A51280052DA3ECF0A3EDF082
:102A03007B007A0379EBA51280090A901516EFF083
:102A1300D21A7B007A0379EB90178DA51280077782
:102A2300901516E0901790F07D01E4FFA5128078D1
:102A330052E47FDC7E05A512807532900AA2E0FF86
:102A430075F005900006A512800760E014F075F09C
:102A530005EF900006A512800760E07013900AA2AC
:102A6300E075F005900003A512800760E04404F0D0
:102A7300901515E0B40513900AA2E075F0059000D7
:102A830003A512800760E04402F0A51280CF909066
:102A93000A78A5128006FF900AA2E075F00590005F
:102AA30004A512800760E0FEA3E0FFE4FCFDA5128D
:102AB3008005EF900A78A512800753900A7CE4758D
:102AC300F001A5128005C1900AA2E075F0079001FC
:102AD300C6A51280D4607F00022CC9900AA1741C81
:102AE300A51280781CA512809646EF64016003024C
:102AF3002BFAFE7F14FD7B007A0379EBA512800885
:102B0300677E007F01E46003022BD7EF24F6603970
:102B130024A6607324636003022BD77B807A037936
:102B2300FA901B00A5128007779004E2A512800794
:102B330081901B03A512800777900A9FE0FFA3E013
:102B4300901B06CFF0A3EF807A7B807A04790990FB
:102B53001B00A5128007779004E2A51280078190DD
:102B63001B03A512800777900A9FE0FEA3E0FF9066
:102B73001B06EEF0A3EFF07C007D01A51280052D6E
:102B8300A3ECF0A3ED803C7B807A0379FF901B00DC
:102B9300A5128007779004E2A512800781901B039A
:102BA300A512800777900A9FE0FEA3E0FF901B0623
:102BB300EEF0A3EFF07C007D01A51280052DA3ECC0
:102BC300F0A3EDF07B007A0379EBA51280090A905C
:102BD3001516EFF0D21A7B007A0379EB90178DA5C7
:102BE30012800777901516E0901790F07D01E4FFAF
:102BF300A51280785280077F02A51280B642E47F37
:102C0300E87E03A512807532A5128032FC900A7EFD
:102C1300E475F001A5128005C1900AA2E075F007E2
:102C23009001C7A51280D460A51280D4477F020209
:102C33002CC9900AA1741CA51280781CA512809639
:102C430046EF706BA512809691EF64017072FE7F60
:102C530014FD7B007A0379EBA5128008677B807AE9
:102C6300047911901B00A5128007777B007A037902
:102C7300EBA51280090A901516EFF0D21A7B007AA1
:102C83000379EB90178DA512800777901516E090C6
:102C93001790F07D01E4FFA512807852E47FC47E93
:102CA30009A512807532A512801A097F0180177F4A
:102CB30002A51280B642E47FC47E09A51280753254
:102CC3007F0080027F00A522E4901515F0A3F09009
:102CD3000A9FE07002A3E07004FF0232FA9003A699
:102CE300E064017003022DC5E4901515F0A5128070
:102CF3009659EF64016003022DC07F01A51280B6CF
:102D0300427E007F147D007B007A0379EBA512805D
:102D130008677E007F01E46003022DA7EF24F660BD
:102D23003624A660322463707B7B807A0379FA9021
:102D33001B00A5128007779004DEA51280078190FF
:102D43001B03A512800777900A9FE0FFA3E0901B67
:102D530006CFF0A3EF803C7B807A0379FF901B00C2
:102D6300A5128007779004DEA512800781901B03CC
:102D7300A512800777900A9FE0FEA3E0FF901B0651
:102D8300EEF0A3EFF07C007D01A51280052DA3ECEE
:102D9300F0A3EDF07B007A0379EBA51280090A908A
:102DA3001515EFF0D21A7B007A0379EB90178DA5F6
:102DB30012800777901515E0A5128075207F000219
:102DC30032FA9003A7E0FEA3E0FFC3900AA0E09FBE
:102DD300900A9FE09E50030231E3EF4E70030231ED
:102DE300E3A512809691EF640160030230B7D21A13
:102DF3009004C6A51280078190178DA512800777CE
:102E03009004C9A512807849D21A900446A512806D
:102E1300078190178DA512800777900449E493905A
:102E23001790F07D01E4FFA512807852751E1EE510
:102E33001E7003022F8BE47F32FEA512807532A52C
:102E43001280B67D901515EFF024E5600E240E7008
:102E5300DEA512801A097F010232FAE4901515F0FB
:102E6300A512809659EF64016003022F867F01A5A6
:102E73001280B6427E007F147D007B007A0379EBDB
:102E8300A5128008677E007F01E46003022F5BEFD9
:102E930024F6603924A6607324636003022F5B7BEE
:102EA300807A0379FA901B00A5128007779004DEDD
:102EB300A512800781901B03A512800777900A9FB4
:102EC300E0FFA3E0901B06CFF0A3EF807A7B807A2C
:102ED3000379FF901B00A5128007779004DEA512EB
:102EE300800781901B03A512800777900A9FE0FE5D
:102EF300A3E0FF901B06EEF0A3EFF07C007D01A59D
:102F03001280052DA3ECF0A3ED803C7B807A03793E
:102F1300FF901B00A5128007779004DEA51280079F
:102F230081901B03A512800777900A9FE0FEA3E020
:102F3300FF901B06EEF0A3EFF07C007D01A512804D
:102F4300052DA3ECF0A3EDF07B007A0379EBA5123A
:102F530080090A901515EFF0D21A7B007A0379EBFA
:102F630090178DA512800777901515E0901790F0B4
:102F73007D01E4FFA512807852E47FDC7E05A51273
:102F83008075327F000232FAA512809659EF6401F0
:102F930060030230B2901515F07F01A51280B6428E
:102FA3007E007F147D007B007A0379EBA5128008F5
:102FB300677E007F01E46003023087EF24F6603907
:102FC30024A66073246360030230877B807A0379CD
:102FD300FA901B00A5128007779004DEA5128007E4
:102FE30081901B03A512800777900A9FE0FFA3E05F
:102FF300901B06CFF0A3EF807A7B807A0379FF9052
:103003001B00A5128007779004DEA512800781902C
:103013001B03A512800777900A9FE0FEA3E0FF90B1
:103023001B06EEF0A3EFF07C007D01A51280052DB9
:10303300A3ECF0A3ED803C7B807A0379FF901B0027
:10304300A5128007779004DEA512800781901B03E9
:10305300A512800777900A9FE0FEA3E0FF901B066E
:10306300EEF0A3EFF07C007D01A51280052DA3EC0B
:10307300F0A3EDF07B007A0379EBA51280090A90A7
:103083001515EFF0D21A7B007A0379EB90178DA513
:1030930012800777901515E0901790F07D01E4FFFB
:1030A300A512807852E47FDC7E05A5128075327FFD
:1030B300000232FAA512809659EF640160030231CF
:1030C300DE901515F07F01A51280B6427E007F14B5
:1030D3007D007B007A0379EBA5128008677E007F71
:1030E30001E460030231B3EF24F6603924A6607370
:1030F300246360030231B37B807A0379FA901B0067
:10310300A5128007779004DEA512800781901B0328
:10311300A512800777900A9FE0FFA3E0901B06CFDC
:10312300F0A3EF807A7B807A0379FF901B00A512CE
:103133008007779004DEA512800781901B03A512F8
:10314300800777900A9FE0FEA3E0FF901B06EEF056
:10315300A3EFF07C007D01A51280052DA3ECF0A365
:10316300ED803C7B807A0379FF901B00A5128007DA
:10317300779004DEA512800781901B03A5128007B8
:1031830077900A9FE0FEA3E0FF901B06EEF0A3EF0B
:10319300F07C007D01A51280052DA3ECF0A3EDF0DA
:1031A3007B007A0379EBA51280090A901515EFF0DD
:1031B300D21A7B007A0379EB90178DA512800777DB
:1031C300901515E0901790F07D01E4FFA51280782B
:1031D30052E47FDC7E05A5128075327F000232FA4D
:1031E300A512809659EF640160030232F890151519
:1031F300F07F01A51280B6427E007F147D007B0024
:103203007A0379EBA5128008677E007F01E46003EF
:103213000232DFEF24F6603924A66073246360036F
:103223000232DF7B807A0379FA901B00A5128007B4
:10323300779004DEA512800781901B03A5128007F7
:1032430077900A9FE0FFA3E0901B06CFF0A3EF80E7
:103253007A7B807A0379FF901B00A5128007779011
:1032630004DEA512800781901B03A51280077790C7
:103273000A9FE0FEA3E0FF901B06EEF0A3EFF07CB5
:10328300007D01A51280052DA3ECF0A3ED803C7B0E
:10329300807A0379FF901B00A5128007779004DEE4
:1032A300A512800781901B03A512800777900A9FC0
:1032B300E0FEA3E0FF901B06EEF0A3EFF07C007DA1
:1032C30001A51280052DA3ECF0A3EDF07B007A039A
:1032D30079EBA51280090A901515EFF0D21A7B003D
:1032E3007A0379EB90178DA512800777901515E077
:1032F300A5128075207F00A522900A9FE0FFA3E01E
:103303009003E9CFF0A3EFF0E4900A9FF0A3F0E479
:10331300901517F0A3F0A3F0A3F0A3F0A3F0A3F08C
:10332300A304F0A3F0A3F0E4A3F0A512809659EF51
:103333006401600DA512809691BF01057F00023BD9
:1033430007E4901517F0A3F0A3F09003E9E0FEA3C0
:10335300E0FF4E7007901521F002396A7B007A1561
:103363007918901527A5128007777A150990152AE1
:10337300A5128007777A157917A512808FFF90150C
:103383001AEFF0700302341EE4F090151AE0FFC345
:103393009403501DEF25E025E0245FF582E4340A11
:1033A300F583E0FEA3E04E600890151AE004F08078
:1033B300D990151AE0FF701990152104F09003E9D4
:1033C300E0FDA3E09003ADCDF0A3EDF0D22B0239E5
:1033D3006AEF25E025E0245BF582E4340AF583E017
:1033E300FEA3E0FF9003E9E0FCA3E0FDC39FEC9E96
:1033F30040129015217401F09003ADECF0A3EDF0B1
:10340300D22B800DE49003ADF0A3F0C22B901521D5
:10341300F0E49003E9F0A3F002396AE490151BF09D
:10342300A3F0901517E0FF70030234DC7A227BF5DA
:103433007D01A512807685EF70767FE87E03A51265
:10344300807532E490151AF090151AE0C394025077
:10345300547C227DF57F01A51280742DEF640160F9
:10346300329022F8E0FD5450600790151EE04404AA
:10347300F0ED5428600790151EE04402F07F01A58B
:10348300128117DA90151BEEF0A3EFF0E490151AF2
:10349300F0801290151AE004F0E47FE87E03A51291
:1034A30080753280A390151AE0C39402400980000E
:1034B30090151EE04404F090039FE0FCA3E0FD9010
:1034C300151BE0FEA3E0FFA51280051AC39003EAD3
:1034D300E09FF09003E9E09EF090151BE0FEA3E06F
:1034E300FF900A90EE8FF0A5128005C1900A84A583
:1034F300128006FFC00090039FE0FCA3E0FD90153F
:103503001BE0FEA3E0FFA51280051AE4FCFDD0003A
:10351300A5128005EF900A84A512800753900A80B4
:10352300A5128006FFC00090039FE0FCA3E0FD907E
:10353300151BE0FEA3E0FFA51280051AE4FCFDD0F5
:1035430000A5128005EF900A80A5128007539015FD
:103553001EE0640170030235E6E490151DF090153A
:103563001DE0FFC39403505FEF25E025E02461F5E0
:1035730082E4340AF583E06401704490151EE0FF91
:1035830030E208900A987401F0800AEF30E1069067
:103593000A987402F090151DE025E025E02462F5F9
:1035A30082E4340AF5837402F0A5128096289015FC
:1035B3001DE0B50712900A98E0600CC226800890BF
:1035C300151DE004F0809790151E7401F0901517F7
:1035D300E0FFC390151CE09F90151BE0940050037F
:1035E300023344E490151BF0A3F0901518E0FF702C
:1035F300030236A47A237B0A7D02A512807685EF27
:1036030070767FE87E03A512807532E490151AF078
:1036130090151AE0C3940250547C237D0A7F02A5BF
:103623001280742DEF6401603290230DE0FD54503D
:10363300600790151FE04404F0ED542860079015CF
:103643001FE04402F07F02A5128117DA90151BEEEA
:10365300F0A3EFF0E490151AF0801290151AE0042D
:10366300F0E47FE87E03A51280753280A390151ADB
:10367300E0C394024009800090151FE04404F090D9
:1036830003A1E0FCA3E0FD90151BE0FEA3E0FFA572
:103693001280051AC39003EAE09FF09003E9E09ECD
:1036A300F090151BE0FEA3E0FF900A92EE8FF0A5C9
:1036B300128005C1900A88A5128006FFC0009003FE
:1036C300A1E0FCA3E0FD90151BE0FEA3E0FFA51223
:1036D30080051AE4FCFDD000A5128005EF900A884E
:1036E300A512800753900A80A5128006FFC00090A0
:1036F30003A1E0FCA3E0FD90151BE0FEA3E0FFA502
:103703001280051AE4FCFDD000A5128005EF900A93
:1037130080A51280075390151FE0640170030237E0
:10372300ACE490151DF090151DE0FFC39403505DAC
:10373300EF25E025E02461F582E4340AF583E064B3
:1037430002704290151FE0FF30E208900A9974015D
:10375300F0800AEF30E106900A997402F0A5128016
:10376300962890151DE0FEB50708900A99E06002BF
:10377300C226EE25E025E02462F582E4340AF583CF
:103783007402F0800890151DE004F0809990151FD5
:103793007401F0901518E0FFC390151CE09F90157D
:1037A3001BE094005003023344E490151BF0A3F094
:1037B300901519E0FF70030238647A237B1F7D03A1
:1037C300A512807685EF70707FE87E03A512807561
:1037D30032E490151AF090151AE0C39402504EA5E6
:1037E30012807427EF64016032902322E0FD54506D
:1037F3006007901520E04404F0ED5428600790150D
:1038030020E04402F07F03A5128117DA90151BEE26
:10381300F0A3EFF0E490151AF0801290151AE0046B
:10382300F0E47FE87E03A51280753280A990151A13
:10383300E0C3940240098000901520E04404F09016
:1038430003A3E0FCA3E0FD90151BE0FEA3E0FFA5AE
:103853001280051AC39003EAE09FF09003E9E09E0B
:10386300F090151BE0FEA3E0FF900A94EE8FF0A505
:10387300128005C1900A8CA5128006FFC000900338
:10388300A3E0FCA3E0FD90151BE0FEA3E0FFA5125F
:1038930080051AE4FCFDD000A5128005EF900A8C88
:1038A300A512800753900A80A5128006FFC00090DE
:1038B30003A3E0FCA3E0FD90151BE0FEA3E0FFA53E
:1038C3001280051AE4FCFDD000A5128005EF900AD2
:1038D30080A512800753901520E064017003023322
:1038E30044E490151DF090151DE0FFC39403505D53
:1038F300EF25E025E02461F582E4340AF583E064F2
:10390300037042901520E0FF30E208900A9A740198
:10391300F0800AEF30E106900A9A7402F0A5128053
:10392300962890151DE0FEB50708900A9AE06002FC
:10393300C226EE25E025E02462F582E4340AF5830D
:103943007402F0800890151DE004F0809990152012
:103953007401F0901519E0FFC390151CE09F9015BA
:103963001BE09400023344901521E07012900AA1E9
:10397300741BA51280781CE47FD07E07023B00A550
:103983001280D3E7900AA17401A51280781C900AD3
:10399300A17420F07E007F147D007B007A0379EB15
:1039A300A512800867900AA1E0FF25E025E02435F1
:1039B300F582E43404F583E493FD7C00C004C00580
:1039C300EF25E025E02432F582E43404F583A512E3
:1039D30080078178EB7C037D00D007D006A5128099
:1039E30004EE900AA1E025E025E02435F582E434D5
:1039F30004F583E49390151DF07E007F01E46003DA
:103A0300023ADAEF24F6603D24A6607A2463600369
:103A1300023ADA90151DE024EBF9E43403FA7B0053
:103A2300C003C002C0017B807A0279E1901B00A52C
:103A3300128007779003ADE0FFA3E0901B03CFF064
:103A4300A3EF023AC890151DE024EBF9E43403FA1E
:103A53007B00C003C002C0017B807A0279E4901B23
:103A630000A5128007779003ADE0FEA3E0FF901B53
:103A730003EEF0A3EFF07C007D01A51280052DA3DA
:103A8300ECF0A3ED803F90151DE024EBF9E4340343
:103A9300FA7B00C003C002C0017B807A0279EA90FE
:103AA3001B00A5128007779003ADE0FEA3E0FF9013
:103AB3001B03EEF0A3EFF07C007D01A51280052D22
:103AC300A3ECF0A3EDF0D001D002D003A51280093E
:103AD3000A90151DE02FF0D21A7B007A0379EB9040
:103AE300178DA51280077790151DE0901790F07D34
:103AF30001E4FFA512807852E47FC47E09A51280F9
:103B030075327F00A522D3900AA0E09400900A9F0B
:103B1300E094005003023C3090039EE07003023CAB
:103B23002CA512809659EF6401600CE49003E9F030
:103B3300A3F07F02023C32900AA1741FA512807881
:103B43001C7E007F147D007B007A0379EBA5128035
:103B530008677E007F147D007B007A0379EBA51252
:103B63008008677E007F01E46003023BF8EF24F6E0
:103B7300603624A660322463707B7B807A0379FAF3
:103B8300901B00A5128007779004DEA512800781A1
:103B9300901B03A512800777900A9FE0FFA3E09094
:103BA3001B06CFF0A3EF803C7B807A0379FF901B49
:103BB30000A5128007779004DEA512800781901B71
:103BC30003A512800777900A9FE0FEA3E0FF901BF6
:103BD30006EEF0A3EFF07C007D01A51280052DA376
:103BE300ECF0A3EDF07B007A0379EBA51280090AD0
:103BF300901515EFF0D21A7B007A0379EB90178DAD
:103C0300A512800777901515E0901790F07D01E4D9
:103C1300FFA512807852900A9FE0FFA3E09003E98A
:103C2300CFF0A3EFF07F0080067F0180027F02A523
:103C330022900AA1740FA51280781C7F02A512801E
:103C4300B642E47FDC7E05A5128075327F00A52293
:103C5300E4FFA51280D447E4FF75F005EF9000035D
:103C6300A5128007607408F00FEFB440EC900400D5
:103C7300E04440F0900AA1740DA51280781C7F01E6
:103C8300A522E4901515F0902D6AF0900000F0A5A0
:103C9300128087D69001C47402F0302907A51280E0
:103CA3007FA2C2299028247401F0A51280B808507D
:103CB30007A5128040A880F2E4902824F0D21A903D
:103CC300047AA51280078190178DA512800777903B
:103CD300047DA512807849D21A7B807A04791E90DC
:103CE300178DA5128007779017907401F0FDE4FFFC
:103CF300A512807852A512807F989001C47401F0B8
:103D0300E49003FFF0A3F0D226202907A512808EAA
:103D13007BD229D228E4901515F0901515E0FFC346
:103D23009440505DE0FE25E025E02453F582E43421
:103D33002BF583E0FD75F005EE900002A5128007D8
:103D430060E06D7034EF25E025E02455F582E4341E
:103D53002BF583E0B40122901515E075F005900072
:103D630004A512800760E0FEA3E04E700C9003FFF1
:103D7300E04404F0A3E0F08008901515E004F0801F
:103D830099901515E0644060028042A5128092214B
:103D9300E4901515F0901515E0FFC3944050187585
:103DA300F005EF900003A512800760E0541FF09028
:103DB3001515E004F080DE900A96E0700320260DCE
:103DC300900A97E06007900400E04402F0E4900A50
:103DD300A3F090039DF0900142F0A3F0A51281326D
:103DE300057F00A522E4901515F0A3F02028030217
:103DF300407EA5128087D6900AA17410A512807800
:103E03001CE47FF47E01A5128075329003FFE0FE6F
:103E1300A3E0FF30E00890151674F1F0807BEF30DB
:103E2300E10890151674F2F0806FEF30E2089015F8
:103E33001674F3F08063EF30E30890151674F4F012
:103E43008057EF30E40890151674F5F0804BEF308F
:103E5300E50890151674F6F0803FEF30E6089015EC
:103E63001674F7F08033EF30E70890151674F8F006
:103E73008027EE30E00890151674F9F0801BEE30C1
:103E8300E10890151674FAF0800FEE90151630E2E3
:103E93000574FBF0800374FFF0202B0302401B909A
:103EA30003ADE07002A3E0700302401B7B807A0441
:103EB3007920901B00A512800777901516E0901BC0
:103EC30003F07B007A0379EBA51280090A9015159C
:103ED300EFF0900AA17420F0E0FE25E025E0243500
:103EE300F582E43404F583E493FD7C00C004C0054B
:103EF300EE25E025E02432F582E43404F583A512AF
:103F0300800781C00174EB2FF9E43403A801FC7D21
:103F130000D001D007D006A5128004EE900AA1E0DC
:103F230025E025E02435F582E43404F583E493FFAA
:103F3300901515E02FF07E007F01E4600302401727
:103F4300EF24F6603D24A6607A24636003024017E1
:103F5300901515E024EBF9E43403FA7B00C003C0A9
:103F630002C0017B807A0279E1901B00A5128007D1
:103F7300779003ADE0FFA3E0901B03CFF0A3EF0224
:103F83004005901515E024EBF9E43403FA7B00C0F7
:103F930003C002C0017B807A0279E4901B00A51262
:103FA3008007779003ADE0FEA3E0FF901B03EEF0E4
:103FB300A3EFF07C007D01A51280052DA3ECF0A3F7
:103FC300ED803F901515E024EBF9E43403FA7B0010
:103FD300C003C002C0017B807A0279EA901B00A56E
:103FE300128007779003ADE0FEA3E0FF901B03EE82
:103FF300F0A3EFF07C007D01A51280052DA3ECF06A
:10400300A3EDF0D001D002D003A51280090A9015C8
:1040130015E02FF0C22B80267B807A047920901B39
:1040230000A512800777901516E0901B03F07B0024
:104033007A0379EBA51280090A901515EFF0D21ACD
:104043007B007A0379EB90178DA512800777901583
:1040530015E0901790F07D01E4FFA512807852E4FB
:104063007FF47E01A512807532C2289001C47402C8
:10407300F0A51280D3E7A51280CF909003C4E0642B
:104083000160047F01801C900000E0700FA5128086
:1040930096D8EF700790000004F08005A51280A564
:1040A300587F01A522E4901518F0D217A3F0A3F0CE
:1040B300024856901519E06003024866F0D217A52E
:1040C30012807F98D21A9015CCA512800781901781
:1040D3008DA5128007779015CFA512807849D21A43
:1040E3009015D0A51280078190178DA512800777B0
:1040F3009015D3A5128079529015167401F0A3047C
:10410300F0201703024570A51280B67D90151AEFB3
:10411300F024F370030242A024F2700302429B24B2
:10412300CB70030241EF2408600302456190151729
:10413300E06402702DD21A90170A7402F0D21BE4C5
:10414300FDFFA51280796F9015177401F090151675
:10415300E070067405F0024561901516E014F00254
:104163004561D21A901516E0FF25E025E024CCF531
:1041730082E43415F583A51280078190178DA5126B
:10418300800777EF25E025E024CFF582E43415F5A9
:1041930083E493901790F07D01E4FFA51280785299
:1041A300901516E070057405F08006901516E0145E
:1041B300F0D21A901516E0FF25E025E024CCF58215
:1041C300E43415F583A51280078190178DA512801D
:1041D3000777EF25E025E024CFF582E43415A51217
:1041E3008078479015177401F0024561901517E028
:1041F3006401701AA512807961901516E0B4050563
:10420300E4F0024292901516E004F0024292D21AB0
:10421300901516E0FF25E025E024CCF582E4341563
:10422300F583A51280078190178DA512800777EF7C
:1042330025E025E024CFF582E43415A512807847E4
:10424300901516E0B40504E4F08006901516E0041A
:10425300F0D21A901516E0FF25E025E024CCF58274
:10426300E43415F583A51280078190178DA512807C
:104273000777EF25E025E024CFF582E43415F583B5
:10428300E493901790F07D01E4FFA512807852909B
:1042930015177402F0024561C217024561C21AE4A0
:1042A30090170AF0D21BFDA512807F92901516E09D
:1042B30014602714700302440F147003024416148D
:1042C300700302441D147003024424240560030296
:1042D3004429A51280CD91024429E490151AF09047
:1042E300151804F0D21A7B807A15797390178DA56F
:1042F300128007779017907411A51280784ED21A06
:104303007B807A15798590178DA512800777901792
:10431300907414F07D01E4FFA51280785290151873
:10432300E0B4011EA51280B67D90151AEFF0641B50
:104333006010E0640D600BE47F64FEA512807532AB
:1043430080DB90151AE0641B7003024429E4901586
:104353001AF090151AE0FFC3944040030243FEEFA6
:1043630025E025E02455F582E4342BF583E0640150
:1043730060030243F590151AE0FF75F00590000203
:10438300A512800760E0FEEF25E025E02453F582C7
:10439300E4342BF583E06E704890151AE025E02590
:1043A300E02456F582E4342BF583E0FE75F005EF47
:1043B300900006A512800760EEF090151AE0FF75D5
:1043C300F005900003A512800760E0FE30E223753C
:1043D300F005EF900003A512800760EE54FBF08018
:1043E3001190151AE075F005900006A5128007607C
:1043F300E4F090151AE004F0024355902D6F740118
:10440300F0E4901518F090151AF0801AA51280BFE9
:10441300D48013A51280FC47800CA51280643C80D5
:1044230005A512810907901517E064026003024491
:10443300C0901516E07017D21A9015E0A5128007E8
:104443008190178DA5128007779015E3802FD21ADC
:10445300901516E0FF25E025E024C8F582E4341525
:10446300F583A51280078190178DA512800777EF3A
:1044730025E025E024CBF582E43415F583A51280ED
:104483007849D21A901516E0FF25E025E024CCF5F3
:1044930082E43415F583A51280078190178DA51248
:1044A300800777EF25E025E024CFF582E43415F586
:1044B30083E493901790F07D01E402455390151621
:1044C300E0B40517D21A9015CCA512800781901776
:1044D3008DA5128007779015CF802FD21A901516CD
:1044E300E0FF25E025E024D0F582E43415F583A52B
:1044F3001280078190178DA512800777EF25E0259D
:10450300E024D3F582E43415F583E493901790F017
:104513007D01E4FFA512807852D21A901516E0FFB0
:1045230025E025E024CCF582E43415F583A512803B
:10453300078190178DA512800777EF25E025E024EA
:10454300CFF582E43415F583E493901790F0E4FDFE
:10455300FFA512807852901517A512807F84A512AB
:10456300808B117F0AA51280C1C8024104E47F2C0D
:104573007E01FDFC9017C17422F0A374E0F0A51234
:1045830080753AA512811813D21AE490170AF0D253
:104593001BFDFFA51280796FD21AE490170AF0D29F
:1045A3001BFD7F01A51280796F902D6FE0700330A2
:1045B3002E4ED21A7B807A15799A90178DA5128088
:1045C3000777901790740AA51280784ED21A7B80D1
:1045D3007A1579A590178DA5128007779017907497
:1045E30001F0FDE4FFA512807852E47FDC7E05FD37
:1045F300FC9017C17422F0A374E0F0A51280753A01
:10460300902D6FE070030246CDA51280CF90E47F1A
:1046130064FEA5128075327E017F407D007B007AA7
:1046230015791BA5128008677F807E027D087C00B8
:1046330075381575391BA51280D0C1E4901518F093
:10464300901518E0FF75F00590151FA512800760FF
:10465300E0FE75F005EF900006A512800760E06E9E
:104663007057901518E075F00590151CA51280077A
:1046730060E0FE75F005EF900003A512800760E08F
:10468300B50636901518E075F00590151DA5128036
:104693000760E0FCA3E0FD75F005EF900004A512B0
:1046A300800760E0FEA3E0B5050FEEB5040B90159F
:1046B30018E004F0E064407087901518E0644060EF
:1046C30004A37401F0E4902D6FF0202E030247C180
:1046D300A51280D3E7E47F64FEA5128075327E00C5
:1046E3007F4B7D007B007A16795BA5128008677F7C
:1046F300807E017D087C0075381675395B753A003C
:10470300753B4BA51280D0C790165BE0FF90039ECC
:10471300E06F60030247B990165CE0FEA3E0FF90F0
:10472300039FE06E7003A3E06F60030247B9901626
:104733005EE0FEA3E0FF9003A1E06E7003A3E06FD1
:104743007074901660E0FEA3E0FF9003A3E06E7028
:1047530003A3E06F7060901662E0FF9003A5E06F23
:104763007054901663E0FF9003A6E06F70489016B4
:1047730064E0FEA3E0FF9003A7E0B50639A3E0B52C
:104783000734901666E0FEA3E0FF9003A9E0B506A8
:1047930025A3E0B5072090166AE0FEA3E0FF90038F
:1047A300ADE0B50611A3E0B5070C9016A5E0FF90A8
:1047B30003E8E06F60069015197401F0C22E90159E
:1047C30019E0700302485DA512807F98D21A7B809E
:1047D3007A1579A790178DA5128007779017907493
:1047E30013A51280784ED21A7B807A1579BB901765
:1047F3008DA5128007779017907410F07D01E4FF68
:10480300A512807852751D0FE4901518F0E51D6010
:104813003BA5128076F8A51280B67D90151AEFF0AD
:10482300F460EA90151AE024E56010240E70DEE4CB
:10483300901519F090151804F0800A901519740159
:10484300F0901518F0901518E0B401C1E51D600350
:104853000240B6901519F00240B69015197401F094
:104863000240B6A502807F989016C1EDF09016C065
:10487300EFF0E49016C2F0EF14602014602F146080
:10488300441460592404600302490D900A96E0FF22
:1048930030E7028050EF30E06C8062900A97E0FFCF
:1048A30030E7028040EF30E00280528058900A984F
:1048B300E0FF30E702802EEF30E1028034EF30E09A
:1048C30002803A8040900A99E0FF30E7028016EFB9
:1048D30030E102801CEF30E00280228028900A9AA7
:1048E300E0FF30E7089016C27402F0801DEF30E15C
:1048F300089016C27403F08011EF30E0089016C2DE
:104903007401F08005E49016C2F03019030249F3F4
:104913009016C0E0FF25E025E0248DF582E43410F5
:10492300F583E493FD7C00C004C005EF25E025E09A
:10493300248AF582E43410F583A51280078178C3B5
:104943007C167D00D007D006A5128004EE9016C217
:10495300E0FF25E025E024B1F582E43410F583E49B
:1049630093FD7C00C004C005EF25E025E024AEF5EF
:1049730082E43410F583A512800781C0019016C02C
:10498300E025E025E0248DF582E43410F583E493FB
:1049930024C3F9E43416A801FC7D00D001D007D06C
:1049A30006A5128004EE9016C1E0FDD21A7B007AB0
:1049B3001679C390178DA5128007779016C2E0254C
:1049C300E025E024B1F582E43410F583E493FF900D
:1049D30016C0E025E025E0248DF582E43410F5834C
:1049E300E4932F901790F0E4FFA51280785280058E
:1049F3009016C2E0FFA5229016A6E0FF7D01901657
:104A0300BFEDF09016BEEFF06405601CE0FF640795
:104A13006016EF64086011EF6406600CA3E0FDC24A
:104A230019A51280486B80419016BFE0FDD21A9001
:104A330016BEE0FF25E025E0248AF582E43410F574
:104A430083A51280078190178DA512800777EF2524
:104A5300E025E0248DF582E43410F583E493901788
:104A630090F0E4FFA512807852A522E49016E8F0B6
:104A7300A3F0A3F0A3F0A3740AF0A37402F09016BA
:104A8300EF14F0E4A3F09016EE74FFF0A512807F0C
:104A930098A5128079619016ED7402F0E49016E8FF
:104AA300F09016E8E0FFC39440501D75F005EF90B9
:104AB3000002A512800760E0600E9016F0E004F09B
:104AC3009016E8E004F080D99016EFE07003024EF0
:104AD3000B7E007F157D007B007A1679BEA51280C0
:104AE30008677E007F157D007B007A1679D3A512B7
:104AF300800867E49016E9F09016E8F09016EBE072
:104B03009016E8F09016ECE0FF9016E8E0FEC39FE5
:104B13004003024D8D9016EBE02405FDE433FCEEDB
:104B2300C39DEC6480F87480984003024C4990164E
:104B3300E8E075F005900002A512800760E07003BD
:104B4300024D849016E9E075F004A424BEF97416AE
:104B530035F0FA7B00C003C002C0017B807A0F7975
:104B6300EF901B00A5128007779016E8E075F0051B
:104B7300900002A512800760E0901B03F0D001D0E3
:104B830002D003A51280090AE49016EAF09016E811
:104B9300E0FF75F005900006A512800760E070063F
:104BA3009016EA7403F075F005EF900003A51280E8
:104BB3000760E0FF540F9016EAF020E004E4F08071
:104BC300459016EAE0FE30E0057401F08038EE30DF
:104BD300E1089016EA7402F0802CEE30E208901699
:104BE300EA7403F08020EE30E31C30E3139016E800
:104BF300E075F005900003A512800760EF54F0F014
:104C03009016EA7404F09016EAE0FF25E025E0240C
:104C1300C1F582E43410F583E493FD7C00C004C045
:104C230005EF25E025E024BEF582E43410F583A5E5
:104C330012800781C0019016E9E075F004A424C036
:104C4300F97416024D6C9016F0E0FF9016E8E0FE42
:104C5300C39F4003024D8D75F005EE900002A5122F
:104C6300800760E07003024D849016E9E075F0045C
:104C7300A424BFF9741635F0FA7B00C003C002C048
:104C8300017B807A0F79EF901B00A5128007779044
:104C930016E8E075F005900002A512800760E09029
:104CA3001B03F0D001D002D003A51280090AE490BF
:104CB30016EAF09016E8E0FF75F005900006A512DD
:104CC300800760E070069016EA7403F075F005EF54
:104CD300900003A512800760E0FF540F9016EAF0DE
:104CE30020E004E4F080459016EAE0FE30E005742D
:104CF30001F08038EE30E1089016EA7402F0802C5F
:104D0300EE30E2089016EA7403F08020EE30E31CE4
:104D13009016EA7404F030E3139016E8E075F0059A
:104D2300900003A512800760EF54F0F09016EAE0BC
:104D3300FF25E025E024C1F582E43410F583E493F4
:104D4300FD7C00C004C005EF25E025E024BEF5820C
:104D5300E43410F583A512800781C0019016E9E0C1
:104D630075F004A424C1F9741635F0A801FC7D0084
:104D7300D001D007D006A5128004EE9016E9E00416
:104D8300F09016E8E004F0024B077B007A1679BE38
:104D9300A512800010EF4E70127B007A1679D3A50E
:104DA30012800010EF4E7003024EADD21A7B007AD0
:104DB3001679BE90178DA5128007779017907414FB
:104DC300A51280784ED21A7B007A1679D390178D6C
:104DD300A5128007779016E9E024FB25E025E090F3
:104DE3001790F07D01E4FFA5128078529016EDE054
:104DF30014FDD21A90170A7402F0D21BE4FFA51215
:104E030080796FE49016EFF0A51280B67D9016EED0
:104E1300EFF024E57003024EAD24CB604624087006
:104E23007A9016EDE0B4021AD21A90170A7402F0BF
:104E3300D21BE4FDFFA51280796F9016ED7401F08B
:104E430080599016EBE0D3940040509016EBE02489
:104E5300FBF0A3E024FBF09016EF7401F09016ED45
:104E6300F080389016EDE0B4010DA51280796190C1
:104E730016ED7402F080249016F0E0FF9016ECE03B
:104E8300C39F50179016EBE02405F0A3E02405F030
:104E93009016EF7401F09016ED04F0A512808B11BB
:104EA3007F0AA51280C1C8024ACBA5229016BEEF85
:104EB300F0A3EDF0E49016D5F0A3F0901789F0A3DA
:104EC300F0FE7F15FD7B007A1679C0A51280086776
:104ED3009003C4E0640160567B807A0F79F6901BDF
:104EE30000A5128007777B007A1679C0A512800986
:104EF3000A9016D6EFF09016BFE014FDD21A7B008D
:104F03007A1679C090178DA5128007779016D6E090
:104F1300901790F0E4FFA512807852E47FDC7E05C1
:104F2300A512807532900A9E7480F002525A901630
:104F3300BEE0640160030250187B807A0F794790CA
:104F43001B00A5128007777B007A1679C0A5128013
:104F5300090A9016D6EFF09016BFE014FDD21A7B23
:104F6300007A1679C090178DA5128007779016D610
:104F7300E0901790F0E4FFA512807852E47FF47E6E
:104F830001A512807532A512811CF19016D5EFF0A0
:104F9300BF03087B807A10790780159016D5E0B49B
:104FA30001087B807A10791A80067B807A10792732
:104FB300901B00A5128007777B007A1679C0A51293
:104FC30080090A9016D6EFF09016BFE014FDD21AAE
:104FD3007B007A1679C090178DA5128007779016FB
:104FE300D6E0901790F0E4FFA512807852E47FDCBE
:104FF3007E05A5128075329016BFE014FDD21A907B
:10500300109EA51280078190178DA51280077790B7
:1050130010A102524DA51280A5C740030251E07BA7
:10502300807A0F7947901B00A5128007777B007A5F
:105033001679C0A51280090A9016D6EFF09016BF14
:10504300E014FDD21A7B007A1679C090178DA51251
:105053008007779016D6E0901790F0E4FFA51280B2
:105063007852E47FF47E01A5128075327E007FA022
:105073007D007B007A1679E9A5128008677B807A28
:10508300107930901B00A5128007779003AFE09052
:105093001B03F09003B0E0901B04F09003B1E09089
:1050A3001B05F09003B2E0901B06F09003B3E09071
:1050B3001B07F09003B4E0901B08F07B007A16798D
:1050C300E9A51280090A9016E7E4F0A3740AF078C0
:1050D300D77C167D007B007A0379B47E007F10A510
:1050E300128004EE7B007A1679D7A512813166EF20
:1050F300640170097B807A1079070251E6E4901607
:10510300D5F07FF47E01A512807532A5128131D8C6
:105113009016D5EFF06011E47F32FEA51280753250
:105123009016D5E0640260E39016D5E070267B808C
:105133007A107945901B00A5128007777B007A16B9
:1051430079C0A51280090A9016D6EFF0E4900A9E62
:10515300F0025203A5128131FB901789EEF0A3EF01
:10516300F07B807A107956901B00A5128007777B1D
:10517300007A1679C0A51280090A9016D6EFF0902E
:1051830016BFE014FDD21A7B007A1679C090178DF2
:10519300A5128007779016D6E0901790F0E4FFA54C
:1051A30012807852E47FDC7E05A5128075327B8005
:1051B3007A107967901B00A512800777901789E012
:1051C300FFA3E0901B03CFF0A3EFF07B007A1679E7
:1051D300C0A51280090A9016D6EFF080237B807A4F
:1051E300107975901B00A5128007777B007A1679DA
:1051F300C0A51280090A9016D6EFF0E4900A9EF03B
:105203009016BFE014FDD21A7B007A1679C090176E
:105213008DA5128007779016D6E0901790F0E4FFE3
:10522300A512807852E47FDC7E05A512807532904A
:1052330016BFE014FDD21A9010A2A5128007819028
:10524300178DA5128007779010A5E493901790F01F
:10525300E4FFA512807852A5229016AFE0FDD21983
:105263007F019016B3EFF0A3EDF0E49016CBF0FEC0
:105273007F16FD7B007A1679B5A512800867901614
:10528300B4E06403607AE0FF25E025E024BCF58206
:10529300E43416F583E493FD7C00C004C005EF25D8
:1052A300E025E024B9F582E43416F583A5128007DE
:1052B3008178B57C167D00D007D006A5128004EE58
:1052C300301905A51280D4B39016B3E0FDD21A7B32
:1052D300007A1679B590178DA5128007779016B4CA
:1052E300E025E025E024BCF582E43416F583E4935D
:1052F300FF9016CBE0FEEF2E901790F0E40253B62A
:10530300201939D21A9016B4E0FF25E025E024B91C
:10531300F582E43416F583A51280078190178DA5D5
:1053230012800777EF25E025E024BCF582E43416EC
:10533300F583E493901790F0E4FD80779016B4E042
:10534300FF25E025E024BCF582E43416F583E493DD
:10535300FD7C00C004C005EF25E025E024B9F582FB
:10536300E43416F583A51280078178B57C167D0099
:10537300D007D006A5128004EEA51280D4B39016F0
:10538300B3E0FDD21A7B007A1679B590178DA5127A
:105393008007779016B4E025E025E024BCF582E48D
:1053A3003416F583E493FF9016CBE0FEEF2E9017AF
:1053B30090F0E4FFA512807852A5229016AAEFF090
:1053C300A3EDF0E49016B6F0A37405F07E007F0A17
:1053D3007D007B007A1679ACA5128008679016AA27
:1053E300E0FF64017057EF25E025E024B9F582E47E
:1053F3003416F583A512800781C003C002C001EFF4
:1054030025E025E024BCF582E43416F583E493FD1E
:105413009016ABE09016D0F07B007A1679ACA3A57A
:10542300128007777A1679B79016D4A5128007777A
:10543300D001D002D003A5128081CE80599016AA44
:10544300E0FF25E025E024B9F582E43416F583A5D1
:1054530012800781C003C002C001EF25E025E024CC
:10546300BCF582E43416F583E493FD9016ABE0902B
:1054730016E9F07B007A1679ACA3A5128007777A38
:105483001679B79016EDA512800777D001D002D018
:1054930003A5128084339016B6EFF0A512807F988F
:1054A3009016B6E064017031C21A90170AF0D21B4D
:1054B300FDFFA51280796F9016AAE0FF7A167BACE8
:1054C3009016D17416F0A374B7F0D21AE4FDFCA5BC
:1054D3001280D4E0A512807F98C3A5229016B0E075
:1054E300FDD219E4FF9016B5EFF0A3EDF0E4A3F0BD
:1054F300FE7F2CFD7B007A2D791AA5128008672088
:105503001937D21A9016B6E0FF25E025E024D6F528
:1055130082E4340DF583A51280078190178DA512BF
:10552300800777EF25E025E024D9F582E4340DA543
:10553300128078477F0002563C9016B6E0FF25E0C4
:1055430025E024D9F582E4340DF583E493FD7C0052
:10555300C004C005EF25E025E024D6F582E4340D30
:10556300F583A512800781781A7C2D7D00D007D0A2
:1055730006A5128004EE9016B6E0FF25E025E02490
:10558300D9F582E4340DF583E493241AF582E434E7
:105593002DAD82FC9016D17416F0A374B7F0C21A25
:1055A300E4FBFAA51280DB019016B5E0FDD21A7B6D
:1055B300007A2D791A90178DA5128007779016B669
:1055C300E025E025E024D9F582E4340DF583E49366
:1055D300FF9016B7E0FEEF2E901790F0E4FFA512B0
:1055E3008078529016B6E0FF25E025E024D9F582B5
:1055F300E4340DF583E493FE9016B7E0FDEE2D241D
:105603001AF582E4342DF583E4F0EF25E025E02458
:10561300D9F582E4340DF583E493FF2DFDE433FCE7
:10562300D3ED9414EC64809480400C9016B7E0FEA4
:10563300EF2E24ECFF80027F00A5229016AAEFF044
:10564300A3EDF0E49016CAF0A3F0C2189016AAE0F6
:10565300FF25E02446F582E4340EF583740193902C
:1056630016CBF0EF601864016014EF6402600FEF73
:105673006407600AEF64086005EF6409705B9016C5
:10568300AAE0FF25E025E024D6F582E4340DF58376
:10569300A512800781C003C002C001EF25E025E009
:1056A30024D9F582E4340DF583E493FD9016ABE041
:1056B3009016D0F07B007A1679ACA3A512800777F9
:1056C3007A1679CB9016D4A512800777D001D00231
:1056D300D003A5128081CE80599016AAE0FF25E061
:1056E30025E024D6F582E4340DF583A512800781E5
:1056F300C003C002C001EF25E025E024D9F582E410
:10570300340DF583E493FD9016ABE09016E9F07B3E
:10571300007A1679ACA3A5128007777A1679CB9015
:1057230016EDA512800777D001D002D003A5128011
:1057330084339016CAEFF0A512807F989016CAE0C2
:1057430064017031C21A90170AF0D21BFDFFA51233
:1057530080796F9016AAE0FF7A167BAC9016D1740D
:1057630016F0A374CBF0D21AE4FDFCA51280DB0182
:10577300A512807F98A218A522D21A9012A1A51271
:1057830080078190178DA5128007779012A4A51228
:10579300807849D21A9012A5A51280078190178D9F
:1057A300A5128007779012A8E493901790F07D01DB
:1057B300E4FFA512807852751E06E51E7003025899
:1057C30052A51280B67DEF641B7003025852EF643A
:1057D3000D705FFE7F2AFD7B007A0A796CA512802B
:1057E30008677E017FC07D007B007A0179C5A51221
:1057F300800867E4FFEF25E025E02453F582E434D5
:105803002BF583E0FE75F007EF9001C5A512800725
:1058130060EEF00FEFB440DDA51280D447A51280EF
:10582300D468A5128076F8E47F64FEA512807532F1
:10583300801DA5128076F8E47F64FEFDFC9017C1FD
:105843007422F0A374E0F0A51280753A0257BDA547
:10585300229016A9E0FD7F019016ADEFF0A3EDF0C5
:10586300E4A3F09016C4F0A3F0A3F0FE7F14FD7B35
:10587300007A1679B0A5128008679016AEE0FF256E
:10588300E025E0248CF582E43412F583E493FD7C77
:1058930000C004C005EF25E025E02489F582E43447
:1058A30012F583A51280078178B07C167D00D0079E
:1058B300D006A5128004EE9016AEE014602A0470A0
:1058C3006890128CE49324B0F9E43416FA7B00C098
:1058D30003C002C0017B807A127918901B00A512C5
:1058E300800777900A7C8025901290E49324B0F986
:1058F300E43416FA7B00C003C002C0017B807A1235
:105903007918901B00A512800777900A7EE0FFA309
:10591300E0901B03CFF0A3EFF0D001D002D003A59A
:105923001280090A9016AFEFF09016ADE0FDD21A7F
:105933007B007A1679B090178DA5128007779016A1
:10594300AEE025E025E0248CF582E43412F583E40F
:1059530093FF9016AFE0FEEF2E901790F0E4FFA5B3
:10596300028078529016ADE0FF9016B3E0FB7D0104
:105973009016B4EFF0A3EDF0A3EBF0E4A3F0FE7FF9
:1059830014FD7B007A1679B8A5128008679016B4C7
:10599300E0FF25E025E02498F582E43412F583E462
:1059A30093FD7C00C004C005EF25E025E02495F5B8
:1059B30082E43412F583A51280078178B87C167DC2
:1059C30000D007D006A5128004EE9016B4E0FF14B1
:1059D3006062147003025A9224026003025B00EFB8
:1059E30025E025E02498F582E43412F583E493243A
:1059F300B8F9E43416FA7B00C003C002C0017B800F
:105A03007A12791B901B00A5128007779016B6E0D7
:105A130075F0079001C5A512800760E0901B03F0A5
:105A2300D001D002D003A51280090A9016B77402E0
:105A3300F0025B009016B4E025E025E02498F5829F
:105A4300E43412F583E49324B8F9E43416FA7B00C2
:105A5300C003C002C0017B807A12791B901B00A592
:105A6300128007779016B6E075F0079001C6A5126D
:105A7300800760E0901B03F0D001D002D003A51291
:105A830080090A9016B6E075F0079001C680599018
:105A930016B4E025E025E02498F582E43412F5837A
:105AA300E49324B8F9E43416FA7B00C003C002C0BF
:105AB300017B807A12791B901B00A51280077790D7
:105AC30016B6E075F0079001C7A512800760E09055
