:020000040000FA
:10000000021A07080001009600A522A502808C3282
:10001000E4FFFEA54860090FEF70010EA56980F3AB
:02002000A52217
:10002300A5028064BFEFB40A09740DA512800035E0
:10003300740A309811A899B8130CC2983098FDA887
:0F00430099C298B811F63099FDC299F599A52286
:10005300A502813B72202020202020BBB6D3ADB95E
:10006300E2C1D9002020C1E3C7AEB2BBD7E3202051
:1000730020200020202020D1A1D4F1C9CCC6B7B3C1
:10008300ACCAB120202020002020C7EBB2E5C8EB8A
:10009300B8FCD0A1C3E6B6EED6BDB1D2002020C7CE
:1000A300EBD1A1BBF5BBF2BCCCD0F8CDB6B1D2211C
:1000B30000C8B7B6A8454E54455220C8A1CFFB434C
:1000C300414E43454C0020202020C7EBC8A1C1E38B
:1000D300C7AE00C8A1CFFB43414E43454C0020208F
:1000E3002020CAE4C8EBB4EDCEF300C8B7B6A845E8
:1000F3004E544552002020C7EBCDB6C8EBD6BDB158
:10010300D2BBF2D3B2B1D200BFCDBBA7D3E0B6EE20
:100113003A00D1A1D4F1C6E4CBFCC9CCC6B7C2F036
:100123003F200020202020BBFAC6F7B9CAD5CF0054
:100133002020C9CCC6B7D2D1CADBCDEA002020200B
:10014300202020D0BBD0BB2100202020202020D481
:10015300DDCDA3B7FECEF10020202020D5D2C1E310
:10016300C6F7B9CAD5CF002020C7EBC9D4BAF22E3F
:100173002E2E00BDF0B6EEB2BBD7E32C20BCD3C706
:10018300AEC2F03F20002020D5FDD4DAB3F6BBF594
:100193002E2E2E002020D5FDD4DAD5D2C1E32E2E6B
:1001A3002E0020202020D5D2C1E3CAA7B0DC002036
:1001B300202020486F772061726520796F752100B8
:1001C300C7EBCAE4C8EBC6E4CBFCC9CCC6B7B1E005
:1001D300BAC5002020C7EBD1A1D4F1C6E4CBFCC93A
:1001E300CCC6B7002020C7EBC8A1BBF52E2E2E002E
:1001F3002020C7EBC8A1D7DFCDCBB1D22E2E2E0046
:100203002020C9CCC6B7BBF5B5C0B9CAD5CF00202D
:1002130020D1A1D4F1C6E4CBFCC9CCC6B7C2F03F10
:1002230000202020202020B2D9D7F7B3ACCAB100D8
:1002330020202020D5FDD4DACDCBBFEE00C7B7BF39
:10024300EE3A0020202020C7EBCDB6C8EBD3B2B1E5
:10025300D20020202020C7EBB2E5C8EBD6BDB1D237
:1002630000B2BBD5D2C1E3A3ACB9BAC2F2C7EBCDDE
:10027300B6B1D20020204556373733362D554220AC
:1002830056312E3633002020BBB9D2AAB9BAC2F2F6
:10029300C9CCC6B7C2F03F00202020202020CEDEEC
:1002A300C1E3B1D2002020C9CCC6B7BCDBB8F13A58
:1002B300002020CBF9D1A1C9CCC6B7D4DDCAB10087
:1002C300C8B1BBF5002020B9CAD5CF002020CDCBC3
:1002D300B1D2BDF0B6EE3A002020B5B1C7B0BDF043
:1002E300B6EE3A002020C7EBCBA2BFA82E2E2E00DD
:1002F3002020CDB6B1D22D3ED1A1BBF52D3EC8A154
:10030300BBF52020002020CCF9BFA82D3ED1A1BBF6
:10031300F52D3EC8A1BBF52020002020BFA8D3E0C7
:10032300B6EEB2BBD7E32E2E2E002020B6C1BFA857
:10033300CAA7B0DC2E2E2E002020BFA8D3E0B6EE35
:100343003A002020BDF0B6EEB2BBD7E32E2E2E002E
:10035300202020202020CFD6BDF0CFFBB7D1002016
:100363002020202020CBA2BFA8CFFBB7D100202084
:10037300C7EBD1A1BBF52100564D44455600564D60
:100383005245430025750025752E25750025752ECC
:1003930025303275002573202575002573202575BA
:1003A3002E25750025732025752E253032750025E1
:1003B30073257500257325752E2575002573257501
:1003C3002E25303275002573256C75002573256C39
:1003D300752E256C75002573256C752E2530326CB2
:1003E30075002000B4FAC2EB3D253032627820005C
:1003F3008000580E8000670E8000761480008B14F6
:100403008000A0138000B4148000C90C8000D60AB9
:100413008000E10C8000EE098000F81280010B09D6
:10042300800115108001260C8001330C8001400BE4
:1004330080014C0E80015B0E80016A0B80017612F5
:100443008001890D8001970D8001A50C8001B210F8
:100453008001C3128001D6108001E70B8001F30FE6
:100463008002030E800212118002240E8002330CDC
:10047300800240058002460E8002550E80026412FF
:10048300800277118002891180029B0C8002A80BE5
:100493008002B40E8002C3048002C8088002CF0B1E
:1004A3008002DB0B8002E70B8002F3148003081445
:1004B30080031D0F80032D0D80033B098003450D31
:1004C3008003530E8003620E8003710980037B0552
:1004D300800381058F828E83EDF5F0FFECFEE8FD4E
:1004E300E582600205834583600EA548A55CA56986
:1004F300A56DD582F5D583F2ABF0ECFAE8F9A52228
:10050300EF8DF0A4A8F0CF8CF0A428CE8DF0A42E0C
:10051300FEA522BC000CBE002BEF8DF084FFADF0D6
:10052300A522E4CCF875F008EF2FFFEE33FEEC3391
:10053300FCEE9DEC984005FCEE9DFE0FD5F0E9E442
:10054300CEFDA522EDF8F5F0EE8420D21DFEADF030
:1005530075F008EF2FFFED33FD4008985007D5F0F5
:10056300F2A522C398FD0FD5F0E9A522C2D5EC3040
:10057300E709B2D5E4C39DFDE49CFCEE30E717B276
:10058300D5E4C39FFFE49EFEA512800516C3E49D38
:10059300FDE49CFC8005A51280051630D507C3E455
:1005A3009FFFE49EFEA522C5F0F8A3E028F0C5F066
:1005B300F8E582158270021583E038F0A522A3F8CE
:1005C300E0C5F025F0F0E582158270021583E0C8DE
:1005D30038F0E8A522EF2BFFEE3AFEED39FDEC38BB
:1005E300FCA522E88FF0A4CC8BF0A42CFCE98EF0C0
:1005F300A42CFC8AF0EDA42CFCEA8EF0A4CDA8F088
:100603008BF0A42DCC3825F0FDE98FF0A42CCD354B
:10061300F0FCEB8EF0A4FEA9F0EB8FF0A4CFC5F0B5
:100623002ECD39FEE43CFCEAA42DCE35F0FDE43CAE
:10063300FCA52275F008758200EF2FFFEE33FECD87
:1006430033CDCC33CCC58233C5829BED9AEC99E58F
:100653008298400CF582EE9BFEED9AFDEC99FC0F1F
:10066300D5F0D6E4CEFBE4CDFAE4CCF9A882A522FA
:10067300B800C0B9005BBA002EEC8BF084CFCECDAE
:10068300FCE5F0CBF97818EF2FFFEE33FEED33FDE9
:10069300EC33FCEB33FB10D703994004EB99FB0FCE
:1006A300D8E5E4F9FAA5227818EF2FFFEE33FEED33
:1006B30033FDEC33FCC933C910D7059BE99A4007D6
:1006C300EC9BFCE99AF90FD8E0E4C9FAE4CCFBA56A
:1006D3002275F010EF2FFFEE33FEED33FDCC33CC5C
:1006E300C833C810D7079BEC9AE899400AED9BFDE5
:1006F300EC9AFCE899F80FD5F0DAE4CDFBE4CCFAF8
:10070300E4C8F9A522EB9FF5F0EA9E42F0E99D4289
:10071300F0E89C45F0A522E0FCA3E0FDA3E0FEA3E6
:10072300E0FFA522E493FC740193FD740293FE742D
:100733000393FFA522E0F8A3E0F9A3E0FAA3E0FB0B
:10074300A522E493F8740193F9740293FA74039362
:10075300FBA5227401FF3395E0FEFDFCA3A3A3E0F8
:10076300CF2FF0E582158270021583E0CE3EF0E5CF
:1007730082158270021583E0CD3DF0E5821582700B
:10078300021583E0CC3CF0A522ECF0A3EDF0A3EE40
:10079300F0A3EFF0A522A42582F582E5F03583F5D9
:1007A30083A522E0FBA3E0FAA3E0F9A522EBF0A3E3
:1007B300EAF0A3E9F0A522E493FB740193FA74022F
:1007C30093F9A522F8D0E0F5834480FBD0E0FAD07A
:1007D300E0F9A5487012A549700EA56AA549C0E0C5
:1007E300A548C0E0C083A522A54A6860EFA56B8039
:1007F300E1F8D0E0F5834480FBD0E0FAD0E0F9A53E
:10080300487012A549700EA56AA549C0E0A548C065
:10081300E0C083A522A54AB5F005A54B6860EAA50B
:100823006880DC8F828E83EDFFECFEE8FDE582605D
:10083300020583458370047F00A522A548F5F0A532
:100843004CA569A56DB5F006D582F0D583ED7FFF84
:10085300B5F0030FA52240027F01A522EF4E6019D8
:10086300EF60010EED89828A838BF0A558A569DFBD
:10087300FADEF88BF0A982AA83A522F8E0FBA3A3F2
:10088300E0F925F0F0E582158270021583E0FA386D
:10089300F0A522312ED6BDB1D2C6F7D7B4CCAC3A2F
:1008A3002000322ED3B2B1D2C6F7D7B4CCAC3A20A3
:1008B30000332E2331D5D2C1E3C6F7D7B4CCAC3A3B
:1008C3002000342E2332D5D2C1E3C6F7D7B4CCAC43
:1008D3003A2000352E2333D5D2C1E3C6F7D7B4CCA3
:1008E300AC3A2000362ECAD6BBFAC4A3BFE9D7B4AC
:1008F300CCACB2E2CAD400372EB6CCD0C5B2E2CA71
:10090300D400382EBBF5B5C0D7B4CCAC00392EBB60
:10091300F5B5C0BCECB2E20031302E20BBF5B5C05A
:10092300B2E2CAD4BDE1B9FB0031312E20D1A1BB63
:10093300F5B0B4C5A5BCECB2E20031322E20D3CE63
:10094300CFB7B0B4C5A5BCECB2E20031332E20CD95
:10095300CBB1D2B0B4C5A5BCECB2E20031342E2089
:10096300B6C1BFA8C6F7B2E2CAD43A200031352EC9
:1009730020D1B9CBF5BBFAB2E2CAD40031362E206E
:10098300D5B9CABEB5C6B2E2CAD400D5FDB3A30079
:10099300B9CAD5CF00CEDE00B2BBD7E300CEB4B226
:1009A300E2CAD400C8B1BBF500C8B7B6A8454E54D7
:1009B300455220C8A1CFFB43414E43454C00C0DB09
:1009C300BCC6B2E2CAD4B4CECAFD3A20257500BB78
:1009D300F5B5C02530326275B9CAD5CFB4CECAFDDC
:1009E3003A257500D5FDD4DABCECB2E220253032CD
:1009F300627520BBF5B5C00020202020C7EBC9D409
:100A0300B5C82E2E2E002020BBF5B5C0B0E53A2088
:100A1300B9CAD5CF202020002020BBF5B5C0253092
:100A23003262753A20B9CAD5CF202020002020BBDE
:100A3300F5B5C025303262753A20CEDEBBF52020F5
:100A430020002020BBF5B5C02025303262753A2046
:100A530020D5FDB3A3200020202020D3B2B1D2C6DD
:100A6300F7B2E2CAD400C7EBCDB6B1D23A00202028
:100A7300B1D2B6B7D2D1C2FA2C20C7EBB4A6C0ED1F
:100A83002100D2D1CDB6C8EBBDF0B6EE3A20257524
:100A930000D2D1CDB6C8EBBDF0B6EE3A2025752E07
:100AA300257500D2D1CDB6C8EBBDF0B6EE3A202500
:100AB300752E25303275002020D3B2B1D2C6F7CAC5
:100AC300C7B7F1D5FDB3A33F00257300D5B9CABE9F
:100AD300B5C600D1B9CBF5BBFA0020202573B2E22D
:100AE300CAD400312DB4F2BFAA2020322DB9D8B117
:100AF300D5002573D2D1B4F2BFAAA3ACC7EBC8B754
:100B0300C8CF002573D2D1B9D8B1D5A3ACC7EBC830
:100B1300B7C8CF00C7EBB2BBD2AACBE6D2E2B9D8F3
:100B2300B1D5C9E8B1B8A3A10020202020D6BDB11A
:100B3300D2C6F7B2E2CAD4002020D6BDB1D2C6F7DE
:100B4300CAC7B7F1D5FDB3A33F0020202020B0B41E
:100B5300C5A5B2E2CAD42100CAE4C8EBB0B4C5A5A6
:100B63003A00CAE4C8EBB0B4C5A53A2025627500C3
:100B730020202020D3CECFB7B0B4C5A5B2E2CAD4CB
:100B83002100D3D0BCFCB0B4CFC22C20D4F2C3F923
:100B9300BDD0D2BBC9F90020202020CDCBB1D2B02B
:100BA300B4C5A5B2E2CAD42100BBF5B5C025303225
:100BB30062753A202573008008960E8008A50E8082
:100BC30008B4108008C5108008D6108008E712808A
:100BD30008FA0A8009050A8009100A80091B108097
:100BE300092C1080093D1080094E1080095F108088
:100BF30009700E80097F0E80098E0480099304809A
:100C030009980280099B048009A00680098E04804C
:100C13000993048009A704E527246FF582E43422AD
:100C2300F583E005272290226C301A0390226FE4AB
:100C330075F001A51280087EA548222013E77F2EB8
:100C4300D2138018EF540F2490D43440D4FF3017BC
:100C53000BEF24BFB41A0050032461FFE5286002A0
:100C63001528052BE52B7002052A301A1090226CEB
:100C7300E475F001A51280087EEFA55822A5128025
:100C83000028227403D21A8003E4C21AF5279022A3
:100C93006CA5128007B0E4F528F52AF52BE528604A
:100CA300097F20A512800C5F80F37529FFC214C24F
:100CB30013C215C216C218C219C21B120C29FF7027
:100CC3000E301A057F00120C70AF2BAE2AA522B48A
:100CD300255FC2D5C217120C29FF24D0B40A0050D5
:100CE3001A75F00A782830D50508B6FF0106C6A4A0
:100CF30026F620D5047002D21680D924CFB41A0068
:100D0300EF5004C2E5D217020E87D21480C6D21365
:100D130080C0D21580BCD2D580BAD21880B47F20CF
:100D2300120C5F2015077401B5280040F1120C1A4C
:100D3300FF120C5F020CA0D21BD2198095120C1A61
:100D4300FB120C1AFA120C1AF94A4B7006795A7AEA
:100D53000F7B8020153AE52860367E00E9C0E02E3F
:100D6300F9EAC0E03400FAA548F9D0E0FAD0E0C9C6
:100D730060060EEE652970E4C2D5EBC0E0EAC0E080
:100D8300E9C0E0EE120ED0D0E0F9D0E0FAD0E0FBFB
:100D9300A548FF609FEBC0E0EAC0E0E9C0E0120CA9
:100DA3005FD0E02401F9D0E03400FAD0E0FBE5297C
:100DB3000460DDD529DA020D377B807A0E79CCD237
:100DC300158090791080027908C219C21B8008D25D
:100DD300D5790A8004790AC2D5E529047002F52978
:100DE300E4FAFDFEFF120C1AFC7B08201413120C0C
:100DF3001AFD7B1030130A120C1AFE120C1AFF7B19
:100E030020EC3382D592D55013C3E43013069FFFF1
:100E1300E49EFEE42014039DFDE49CFCE4CBF8C2B5
:100E230014EC700CCFCECDCCE824F8F870F3801717
:100E3300C3EF33FFEE33FEED33FDEC33FCEB33FB5B
:100E4300994002FB0FD8E9EB301405F8D0E0C44811
:100E5300B214C0E00AEC4D4E4F78207B0070C2EA1A
:100E6300B5290040BCC0E0120ED2D0F0D0E020146F
:100E730004C4C0E0C4B214C0F0120C48D0F0D5F0E2
:100E8300EB020CA0A5128007C70D40530DC6580DE9
:100E9300114C0D0D420DCA4F0DD2440DD2490D26F2
:100EA300430DD8550DBC460DBC450DBC470F7550C1
:100EB3000D152D0D192E0D3C2B0D1D230D3A200F55
:100EC300632A0CD54800000D343F3F3F00790AA246
:100ED300D5201614301809B910020404B908010406
:100EE300A2D52019025001042015689215B52800D7
:100EF3005034C0E07F203016197F30A2157219726A
:100F030018500F120F29C215C219C218C21B7F3005
:100F1300800F301803E9C0E0120C5F301803D0E0F3
:100F2300F9D0E0B528CC3018177F30B9100C120C6B
:100F33005F7F583017077F788003B90803120C5F6F
:100F43003015057F2D020C5F7F20201BF87F2B209F
:100F530019F322921580CF286E756C6C2900D21478
:100F6300120C1A3014F8C214782830D50108F6028E
:100F73000CD5120C1AC0E0C4120C48D0E0120C4875
:100F8300743A120C50D216752804020DC6312E2362
:100F930031D5D2C1E3C6F7C3E6D6B53A00322E2324
:100FA30032D5D2C1E3C6F7C3E6D6B53A00332E2312
:100FB30033D5D2C1E3C6F7C3E6D6B53A00342ED44F
:100FC300CAD0EDB6E0B4CEB9BAC2F23A00352EB209
:100FD300BBC2F2BBF5CDCBB1D23A00362EBFAAC607
:100FE300F4D6BDB1D2C6F73A00372EBFAAC6F4CAAB
:100FF300D6BBFAC4A3BFE93A00382ED3E0B6EECF8E
:10100300C2CFDE3A00392ECAD5B1D2C9CFCFDE3A2C
:101013000031302E20D2C9CECABDF0B6EE3A00312F
:10102300312E20BBFAC6F7B1E0BAC53A20003132FF
:101033002E47534DBAC5C2EB3A0031332E20C7B702
:10104300CCF53A0031342E20D0A1CAFDB5E33A00E5
:1010530031352E202331D6BDB1D23A0031362E2080
:101063002332D6BDB1D23A0031372E202333D6BD39
:10107300B1D23A0031382E202334D6BDB1D23A0052
:1010830031392E202335D6BDB1D23A0032302E204D
:101093002336D6BDB1D23A0032312E202337D6BD06
:1010A300B1D23A0032322E202338D6BDB1D23A0023
:1010B30032332E202331D3B2B1D23A0032342E2030
:1010C3002332D3B2B1D23A0032352E202333D3B2F6
:1010D300B1D23A0032362E202334D3B2B1D23A0001
:1010E30032372E202335D3B2B1D23A0032382E20F4
:1010F3002336D3B2B1D23A0032392E20BFAAC6F476
:10110300B3F6BBF5C8B7C8CF3A0033302E20BDBB0A
:10111300D2D7CAB1BCE43A0033312E20B2BBD5D208
:10112300C1E3C4A3CABD3A0033322E20BFAAC6F41A
:10113300D3B2B1D2C6F73A0033332E20BFAAC6F4D6
:10114300B9ABBDBBBFA83A0033342E20B6C1BFA88C
:10115300CAB1BCE43A0033352E20D4DDB4E6D6BDA3
:10116300B1D2C4A3CABD3A0033362E20CEE5D4AAE9
:10117300D6BDB1D2D4DDB4E63A0033372E20CAAEA1
:10118300D4AAD6BDB1D2D4DDB4E63A0033382E208A
:10119300BFAAC6F441434443C4A3BFE93A0025753B
:1011A3000025752E25750025752E253032750025F1
:1011B3006275002532627800253032627800800F34
:1011C300900F800FA00F800FB00F800FC00F800F04
:1011D300D00D800FDE0D800FEC0F800FFC0B801005
:1011E300080B8010140D8010220D8010310B80101D
:1011F3003D098010470B8010530B80105F0B80104C
:101203006B0B8010770B8010830B80108F0B80107B
:101213009B0B8010A70B8010B30B8010BF0B8010AB
:10122300CB0B8010D70B8010E30B8010EF0B8010DB
:10123300FB1180110D0D80111B0F80112B0F8011DD
:101243003B0F80114B0D8011591180116B118011CF
:101253007D1180118F1100050005000500010001BB
:101263000001000100050005000500050010000154
:101273000001000500050005000500050005000547
:101283000005000500050005000500050005000137
:10129300000500010001000100020001000100013E
:1012A3000001410185004213120000410207014180
:1012B300131400420579000041000200C120C1213E
:1012C300C19DC122C19FC11E410000004100010018
:1012D300412D6D00412D6500412D6600412D6700B4
:1012E300C125412D6C01412D6B00411BD000412DC7
:1012F3002E00412D2F00412D3000C100412D320021
:10130300412D3300412D3400412D3500412D360050
:10131300412D3700C103C104C105C106C107C1087E
:10132300C109C10AC10BC10CC10DC10E412D380049
:10133300462CBB080001009600412D0100C1290184
:101343001500412D6E00411C1500411C1100411C6C
:101353001901411C1301C123C124411C1700620060
:10136300263E00008005800F000A801B001E00142B
:10137300801180330036003C80390028802D80277F
:10138300002280630066006C80690078807D80772E
:10139300007200508055805F005A804B004E00441D
:1013A300804180C300C600CC80C900D880DD80D7CF
:1013B30000D200F080F580FF00FA80EB00EE00E43D
:1013C30080E100A080A580AF00AA80BB00BE00B46E
:1013D30080B180930096009C80990088808D8087DF
:1013E300008281830186018C81890198819D819787
:1013F300019201B081B581BF01BA81AB01AE01A4F5
:1014030081A101E081E581EF01EA81FB01FE01F4A5
:1014130081F181D301D601DC81D901C881CD81C796
:1014230001C201408145814F014A815B015E015444
:10143300815181730176017C81790168816D8167B6
:10144300016281230126012C81290138813D8137E5
:10145300013201108115811F011A810B010E010454
:10146300810183030306030C83090318831D831778
:10147300031203308335833F033A832B032E032464
:10148300832103608365836F036A837B037E037415
:10149300837183530356035C83590348834D834706
:1014A300034203C083C583CF03CA83DB03DE03D4B4
:1014B30083D183F303F603FC83F903E883ED83E726
:1014C30003E283A303A603AC83A903B883BD83B755
:1014D30003B203908395839F039A838B038E0384C4
:1014E300838102808285828F028A829B029E02947C
:1014F300829182B302B602BC82B902A882AD82A7EE
:1015030002A282E302E602EC82E902F882FD82F79C
:1015130002F202D082D582DF02DA82CB02CE02C48B
:1015230082C182430246024C82490258825D82573D
:10153300025202708275827F027A826B026E0264AB
:10154300826102208225822F022A823B023E0234DC
:10155300823182130216021C82190208820D82074D
:10156300020200CFB5CDB3D5FDD4DAC6F4B6AF2CA5
:1015730020C7EBC9D4B5C80020202020C4E3C8B7D6
:10158300B6A8B8FCB8C4C2F03F00C8B7B6A8454E69
:1015930054455220C8A1CFFB43414E43454C00D58F
:1015A300FDD4DAB8FCB8C4C9CCC6B7D3E0C1BF2EEA
:1015B3002E2E00C9CCC6B7D3E0C1BFB8FCB8C4CA8D
:1015C300A7B0DC2100C9CCC6B7D3E0C1BFB8FCB813
:1015D300C4B3C9B9A62100D5FDD4DAB8FCB8C4C9CF
:1015E300CCC6B7BCDBB8F12E2E2E00C9CCC6B7BC17
:1015F300DBB8F1B8FCB8C4CAA7B0DC2100C9CCC6BB
:10160300B7BCDBB8F1B8FCB8C4B3C9B9A621002094
:10161300202020C4E3C8B7B6A8CCEDC2FAC2F03F7D
:1016230000D5FDD4DACCEDC2FA2E2E2E00CCEDC2BD
:10163300FAB2D9D7F7CAA7B0DC2100CCEDC2FAB20F
:10164300D9D7F7B3C9B9A62100CAE4C8EBB2E3BC42
:10165300DCB1E0BAC53A00B1E0BAC5CAE4C8EBB43C
:10166300EDCEF300C7EBCAE4C8EBC6E4CBFCB1E0B4
:10167300BAC500C4E3C8B7B6A8CCEDC2FAB4CBB2BE
:10168300E3BCDCC2F03F00D5FDD4DACCEDC2FAB541
:10169300B1C7B0B2E3BCDC2E2E2E00B2E3BCDCCC6F
:1016A300EDC2FAB2D9D7F7CAA7B0DC2100B2E3BCC6
:1016B300DCCCEDC2FAB2D9D7F7B3C9B9A62100255C
:1016C3007300B2B9D3B2B1D200C8A1D6BDB1D200B2
:1016D3002020C4E3C8B7B6A82573C2F03F0020207A
:1016E300D5FDD4DA2573002573CAA7B0DC21002504
:1016F30073B3C9B9A6210020202020C4E3C8B7B61C
:10170300A8CDACB2BDC2F03F00D5FDD4DACDACB2AA
:10171300BD2C20C7EBC9D4B5C82E2E2E00CDACB23C
:10172300BDB2D9D7F7B3C9B9A621002020C4E3C8F5
:10173300B7B6A8C7E5B5E3C2F03F00D5FDD4DAC715
:10174300E5B5E32C20C7EBC9D4B5C82E2E2E00C7B0
:10175300E5B5E3CDEAB1CFA3ACC7EBBACBB6D421A1
:1017630000C7E5B5E3BDF0B6EE3A20257500C7E541
:10177300B5E3BDF0B6EE3A2025752E257500C7E515
:10178300B5E3BDF0B6EE3A2025752E25303275004F
:10179300312EBBF5B5C0B2CECAFD00322EBCD3C2CA
:1017A300FAC8ABB2BFBBF5B5C000332EB2B9D3B2E2
:1017B300B1D2CDEAB3C900342EC8ABCFB5CDB3CDCA
:1017C300ACB2BD00352EBCD3C2FAB2E3BCDCBBF570
:1017D300B5C000362EC8A1D6BDB1D2CDEAB3C9007B
:1017E300372E3520BDC7D3B2B1D2C7E5B5E3003834
:1017F3002E3120D4AAD3B2B1D2C7E5B5E300392E36
:10180300C9E8B1B8B9DCC0ED0031302E20CFB5CD79
:10181300B3B2CECAFD0031312E20BDBBD2D7BCC777
:10182300C2BC0031322E20BBF5BCDCC5E4D6C300FC
:1018330031332E20B3F6B3A7C4ACC8CFC5E4D6C3A7
:101843000031342E20B4D3BBFACCEDBBF5002020FD
:10185300C8B7B6A8B3F6B3A7C5E4D6C3C2F03F0072
:10186300C8B7B6A8454E54455220C8A1CFFB434143
:101873004E43454C0030002020D5FDD4DAB1A3B44B
:10188300E6002000B1A3B4E6CAA7B0DCA3ACD6D867
:10189300D0C2C9E8D6C33F002020454E544552204C
:1018A300202043414E43454C008017930A80179EE6
:1018B3000E8017AD0C8017BA0C8017C70E8017D691
:1018C3000C8017E30E8017F20E8018010A80180CA3
:1018D3000C8018190C8018260C80183310801844BB
:1018E3000C312EB2E3BCDCB1E0BAC53A00322ECAE9
:1018F300C7B7F1C6F4D3C33A00332ED7EEB4F3B46B
:10190300E6BBF5C1BF3A00342EB5DAD2BBBBF5B5A1
:10191300C03A00352EB5DAB6FEBBF5B5C03A00368F
:101923002EB5DAC8FDBBF5B5C03A00372EB5DACB14
:10193300C4BBF5B5C03A00382EB5DACEE5BBF5B574
:10194300C03A00392EB5DAC1F9BBF5B5C03A00315A
:10195300302E20B5DAC6DFBBF5B5C03A0031312EE3
:1019630020B5DAB0CBBBF5B5C03A00C7EBCAE4C8C3
:10197300EBC3DCC2EB3A00C3DCC2EBB4EDCEF32124
:101983000025627500202020002000202020200058
:10199300CAE4C8EBB2E3BCDCB1E0BAC53A00B1E0DB
:1019A300BAC5CAE4C8EBB4EDCEF300C7EBCAE4C8CA
:1019B300EBC6E4CBFCB1E0BAC5008018E40B801899
:1019C300F00B8018FC0D80190A0B8019160B801977
:1019D300220B80192E0B80193A0B8019460B8019A4
:1019E300520D8019600D80196E0B80197A09000160
:1019F30000010002000100010001000100010001DB
:101A030000010001A575FF07758E0378FEE4F6D883
:101A1300FD758187A575FB00759008A502801A4E98
:101A2300A5028088F4E493A3F85407240CC8C333B5
:101A3300C4540F4420C8834004F456800146F6DFA3
:101A4300E4800B01020408102040809012A5E47E7C
:101A5300019360CCA3FF543F30E509541FFEE49388
:101A6300A360010ECF54E0B4E01CE493FBA3E49322
:101A7300FAA3E493F9A3E493A558A309E970010A2F
:101A8300DFF4DEF280C854C025E060254097E4937C
:101A9300A3FAE493A3F8E493A3C8C582C8CAC58391
:101AA300CAF0A3C8C582C8CAC583CADFE9DEE78016
:101AB3009DE493A3F8E493A34003F68001F208DFC7
:101AC300F4808B312EBBF5B5C0B1E0BAC53A200026
:101AD300322EC9CCC6B7D3E0C1BF3A2000332EB5EE
:101AE300A5BCDB3A2000342EBBF5B5C0D7B4CCACD3
:101AF3003A2000352EC9CCC6B7B1E0BAC53A2000AA
:101B03002530326275002533627500257500257511
:101B13002E25750025752E2530327500256275003A
:101B23002532627500BBF5B5C02530326275D3E04E
:101B3300C1BFA3BA00801AC60C801AD30C801AE066
:101B430008801AE90C801AF60C200020202020209F
:101B530020202020202020202020202020202000A2
:101B6300C7EBCAE4C8EBB1E0BAC53A2000B1E0BAAA
:101B7300C5CAE4C8EBB4EDCEF300C7EBCAE4C8EBC7
:101B8300C6E4CBFCB1E0BAC50020202020202020F1
:101B93002020202020202020202020202000C2D50B
:101BA300E830E70FB2D5E4C39BFBE49AFAE499F972
:101BB300E498F8EC30E71BB2D5A512801BDDA51223
:101BC300800673E4C39BFBE49AFAE499F9E498F87A
:101BD3008005A51280067330D50DE4C39FFFE49EF4
:101BE300FEE49DFDE49CFCA52247423233313200E2
:101BF30057494E31323532000D5196105264050566
:101C030005050505050504040404080807FF01018B
:101C130001010101010102020202030306FF505008
:101C23005050505050501B1B1B1B0D0D18FF090922
:101C33000909090909092E2E2E2E000048FF00006C
:101C430000010000000A00000064000003E8000037
:101C53002710000186A0000F42400098968005F5EA
:101C6300E10008000100960008000100960008004A
:101C730001009600A5128145BE901312E0FEA3E079
:101C8300FF902022EEF0A3EFF0E4A3F0A3F0A3F083
:101C930090055AE0B40113900558E0FEA3E0FF90CD
:101CA3002022EE8FF0A5128005AAD3902023E09482
:101CB30000902022E0940050057F00021F569013ED
:101CC30014742CF07E007F147D007B007A05796507
:101CD300A51280085F901314E0FF25E025E024F6A9
:101CE300F582E43403F583E493902024F0FD7C0033
:101CF300C004C005EF25E025E024F3F582E43403B6
:101D0300F583A5128007BA78657C057D00D007D0DE
:101D130006A5128004D7902024E0FF2465F582E411
:101D23003405F5837420F090032BE0FCA3E0FDEC75
:101D33006003021E42ED24F6603D24A67003021DDB
:101D4300D624636003021E4274662FF9E43405FA55
:101D53007B00C003C002C0017B807A037987902295
:101D63006FA5128007B0902022E0FFA3E0902272BB
:101D7300CFF0A3EF021E30902024E02466F9E43470
:101D830005FA7B00C003C002C0017B807A03798A15
:101D930090226FA5128007B090032BE0FAA3E0FB1B
:101DA300902022E0FEA3E0FFAD03AC02A512800564
:101DB30016902272EEF0A3EFF0902022E0FEA3E053
:101DC300FFAD03AC02A512800516902274ECF0A3BC
:101DD300ED805A902024E02466F9E43405FA7B0070
:101DE300C003C002C0017B807A03799090226FA563
:101DF300128007B090032BE0FAA3E0FB902022E0CF
:101E0300FEA3E0FFAD03AC02A5128005169022727B
:101E1300EEF0A3EFF0902022E0FEA3E0FFAD03ACD1
:101E230002A512800516902274ECF0A3EDF0D00108
:101E3300D002D003A512800C86902024E02FF090CE
:101E43002024E004F0D2137B007A05796590226E9A
:101E5300A5128007B0902024E0A51280855B900234
:101E6300EEE0FEA3E0FFC3902023E09F902022E05A
:101E73009E40509013147436F0D213E0FF25E025F2
:101E8300E024F3F582E43403F583A5128007BA90C6
:101E9300226EA5128007B0EF25E025E024F6F58237
:101EA300E43403F583E493902271F07D01E4FFA50C
:101EB3001280856290055AE064017048A51280770C
:101EC300E380419013147404F0D213E0FF25E0255E
:101ED300E024F3F582E43403F583A5128007BA9076
:101EE300226EA5128007B0EF25E025E024F6F582E7
:101EF300E43403F583E493902271F07D01E4FFA5BC
:101F030012808562E47F64FEFDFC9022A27416F0C9
:101F1300A37450F0A512806E289015F4E0B4011A52
:101F23009015F6E0FCA3E0FDE4FFA512813DE7E494
:101F33009015F4F09015F6F0A3F09015F5E0B401C8
:101F430010A512813DDDE49015F5F09015F8F0A38E
:101F5300F07F00A522E490201CF0FE7F57FD7B005C
:101F63007A0279E3A51280085F7E037F357D007BCB
:101F7300007A137916A51280085F7E037FDE7D0049
:101F83007B007A0F7925A51280085F9015417401B3
:101F9300F0A3F07E027F297D007B007A03793AA5C6
:101FA3001280085F9005427401F07E037F137D0069
:101FB3007B007A0B79E5A51280085FE47F64A512A4
:101FC300806E1FD213900483A5128007BA90226EED
:101FD300A5128007B0900486A512808559D213906C
:101FE300043BA5128007BA90226EA5128007B09019
:101FF300043EE493902271F07D01E4FFA5128085F5
:1020030062E47F64A512806E1F7F00A522E4902006
:102013001CF0A3F0A3F0A3F0FE7F14FD7B007A0570
:102023007965A51280085F901544E0FF75F037903D
:102033000F2AA512800799E0D39400401875F03752
:10204300EF900F5BA512800799E0FFF460199013DE
:1020530015EFF08012901544E075F037900F5BA5F3
:102063001280079974FFF0901544E075F037900FD4
:102073005BA512800799E0F47002802D901315E0A0
:1020830075F006900008A512800799E07002801988
:10209300901315E075F006900005A512800799E0EE
:1020A300FF540A7004EF20E041901314740EA5123C
:1020B30080852C9013147419F0D213E0FF25E025CA
:1020C300E024F3F582E43403F583A5128007BA9084
:1020D300226EA5128007B0EF25E025E024F6F582F5
:1020E300E43403F583E4930223F49013147427F088
:1020F30090032BE0FEA3E0FFEE6003022252EF24E5
:10210300F6605724A670030221D0246360030222E1
:10211300527B807A03799890226FA5128007B09042
:102123001314E025E025E024F3F582E43403F5837A
:10213300A5128007BA902272A5128007B0901315DA
:10214300E075F006900006A512800799E0FFA3E072
:10215300902275CFF0A3EF0222417B807A03799E10
:1021630090226FA5128007B0901314E025E025E0BC
:1021730024F3F582E43403F583A5128007BA902291
:1021830072A5128007B0901315E075F00690000653
:10219300A512800799E0FAA3E0FB90032BE0FCA3D0
:1021A300E0FDAF03AE02A512800516902275EEF096
:1021B300A3EFF090032BE0FCA3E0FDAF03AE02A579
:1021C30012800516902277ECF0A3ED80717B807A64
:1021D3000379A790226FA5128007B0901314E0250E
:1021E300E025E024F3F582E43403F583A5128007A8
:1021F300BA902272A5128007B0901315E075F0060D
:10220300900006A512800799E0FAA3E0FB90032B48
:10221300E0FCA3E0FDAF03AE02A5128005169022F9
:1022230075EEF0A3EFF090032BE0FCA3E0FDAF030A
:10223300AE02A512800516902277ECF0A3EDF07B99
:10224300007A057965A512800C8690201CEFF0A515
:102253001280801BC21EE4902D56F090164B74061C
:10226300F0900333E0640160030223C1901310E094
:1022730054FB60030223C1901315E075F006900030
:1022830006A512800799E0FEA3E0D39400EE940024
:1022930050030223C1D2137B007A05796590226E25
:1022A300A5128007B090201CE0902271F07D01E41C
:1022B300FFA51280856290201E742DA51280852CA7
:1022C300900334E0FF7E007C037DE8A512800503C4
:1022D300E4FCFDA512806E22900F23E475F001A5A6
:1022E300128005AA901315E075F006900006A5125A
:1022F300800799E0FEA3E0FF900F23E0FCA3E0FD3D
:10230300A51281624A90201FEFF07076900DF2E0E3
:1023130064A07045A51280A795A51281536F9013F1
:1023230015E075F006900006A512800799E0FCA35E
:10233300E0FD7F02A512813DE7901315E075F006DD
:10234300900006A512800799E0FFA3E0901312CF37
:10235300F0A3EFF07F01022423900DF2E064A1705B
:10236300079013147430801F900DF2E0FF64A56092
:102373000AEF64A66005EF64A7706E9013147431BE
:1023830080059013147431F0D213E0FF25E025E0AB
:1023930024F3F582E43403F583A5128007BA90226F
:1023A3006EA5128007B0EF25E025E024F6F582E460
:1023B3003403F583E493902271F0E4FD801BD21380
:1023C3007B007A05796590226EA5128007B0902074
:1023D3001CE0902271F07D01E4FFA512808562E488
:1023E3007FD07E07A512806E20E4901315F0FF8046
:1023F3002F902271F07D01E4FFA512808562E47FB6
:10240300D07E07A512806E20A51280801BC21EE419
:10241300902D56F0901315F090164B7406F07F0034
:10242300A522E490201CF0900579E07002A3E070EF
:102433000590020704F0900207E06401600302259F
:1024430035901534E0640160030224E3C39015332F
:10245300E094F4901532E0940150030224E3E4F095
:10246300A3F0900333E064017047901310E054FB32
:10247300703F9013147435A51280852CA512806EBD
:102483001C901314742FA512806DE0A51280FFE930
:10249300EF64016003022546D213901314A5128042
:1024A3006DE3A51280FFE9EF640160030225468016
:1024B300739013147434A51280852CA512806DCAF1
:1024C300A51280FFE9EF64017079D213901314A56C
:1024D30012806DE3A51280FFE9EF6401706580440B
:1024E300901534E06401705BC3901533E094FA9067
:1024F3001532E09400404C9013147434A512808577
:102503002CA512806DCAA51280FFE9EF6401703318
:10251300D213901314A512806DE3A51280FFE9EF87
:102523006401701F900579E04402F0A3E0F07F019D
:10253300802A9013147410A51280852C7F02A51293
:1025430080A35990164BE004F0A51280AB5EBF0147
:10255300047F028007A512806E1C7F01A522E490F0
:10256300201CF0A3F0A3F0A3F090201CF0A3F090A4
:102573000542E064016016D3901313E094009013B6
:1025830012E0940040077F01A51280B907302007AD
:10259300A51280880CC220201E03022629D211E432
:1025A30090226EF0D2127D01FFA51280B1C6C21E29
:1025B300E4902D56F0901315F0806B90201EE07080
:1025C30002A3E0607090201EE0FEA3E0FF901312D0
:1025D300EE8FF0A5128005AA900EF9A51280073898
:1025E300E4FCFDA5128005D8900EF9A51280078C96
:1025F300900F01A51280073890201EE0FEA3E0FF94
:10260300E4FCFDA5128005D8900F01A51280078C6C
:102613009015F47401F090201EA51280AA14E47F93
:10262300C8A512806E1FA51280AD9190201EEEF0FA
:10263300A3EFF080869002EAE064016003022715AD
:10264300900542E064016003022715900551E0FF05
:1026530020E203022715900557E020E00302271527
:102663009002EEE0FCA3E0FDC3901313E09D9013F2
:1026730012E09C4003022715EF54FB900551F090A4
:102683000557E054FEF0900554E0FFA3E090201CB2
:10269300CFF0A3EFF090201CE0FEA3E0FF90131215
:1026A300EE8FF0A5128005AA900EF9A512800738C7
:1026B300E4FCFDA5128005D8900EF9A51280078CC5
:1026C300900EFDA51280073890201CE0FEA3E0FFCA
:1026D300E4FCFDA5128005D8900EFDA51280078CA1
:1026E3009015F57401F090201CE0FEA3E0FF901517
:1026F300F8EE8FF0A5128005AA900330E0FFA3E067
:10270300901523CFF0A3EFF09005617401F0A3744B
:1027130068F09002EAE064016003022870900542C9
:10272300E064017003022870A51280ADC2EF70034C
:10273300022870A51281320190201CEEF0A3EFF065
:102743004E7008A5128077FA02286890201CE0FEDC
:10275300A3E0FF901313E02FFF901312E03EFEC39C
:102763009002EFE09F9002EEE09E503490131474B9
:1027730003A51280852C7F02A51280A359E47FDC78
:102783007E05A512806E20A5128077FA901312E0C1
:10279300FCA3E0FD4C70028050AF05AE0402298F0C
:1027A300A5128131C7902D62740AF0902D62E0600A
:1027B3000FA5128131F8EF7007A51280AA3380EBC1
:1027C300902D62E0702CA5128077FA90201CE0FF18
:1027D300A3E09002F0CFF0A3EFF0A51280BD6290CA
:1027E3001312E07002A3E0707C90164BF07F02029C
:1027F300299690201CE0FEA3E0FF901312EE8FF0C9
:10280300A5128005AA900EF9A512800738E4FCFDF5
:10281300A5128005D8900EF9A51280078C900EFDA5
:10282300A51280073890201CE0FEA3E0FFE4FCFD26
:10283300A5128005D8900EFDA51280078C9015F582
:102843007401F090201CE0FEA3E0FF9015F8EE8FDA
:10285300F0A5128005AA900330E0FFA3E0901523B2
:10286300CFF0A3EFF0E47F14A512806E1F9002EE69
:10287300E0FEA3E0FFC3901313E09F901312E09ECA
:102883005003022987A512806E1C902D587490F076
:10289300902D58E07003022935A51280AD91902048
:1028A3001EEEF0A3EFF04E700302292D90201EE0E0
:1028B300FEA3E0FF901312EE8FF0A5128005AA90FD
:1028C3000EF9A512800738E4FCFDA5128005D89007
:1028D3000EF9A51280078C900F01A512800738907E
:1028E300201EE0FEA3E0FFE4FCFDA5128005D890C6
:1028F3000F01A51280078C9015F47401F090201E2F
:10290300E0FEA3E0FF9015F6EE8FF0A5128005AA76
:10291300900330E0FFA3E0901523CFF0A3EFF090F6
:102923002D587490F0A51280AA33A51280AA330201
:102933002893A5128075F9A512801C7CA5128145E8
:10294300BE9002EAE06401702D900542E0640160EC
:1029530025902D627401F0902D62E06019A512801C
:10296300ADC2EF6007A5128077FA800AE47F0AA55B
:1029730012806E1F80E1E47FF47E01A512806E2039
:102983007F01800F901312E0FEA3E0FFA512801CCD
:10299300847F00A522901544E0FF75F037900F2A3D
:1029A300A512800799E0D39400402275F037EF9089
:1029B3000F5BA512800799E0FFF46023901544E0B4
:1029C300FE901315EFF0900206EEF080129015447E
:1029D300E075F037900F5BA51280079974FFF090B4
:1029E3001544E075F037900F5BA512800799E0F46A
:1029F30070028012901315E075F006900008A5127E
:102A0300800799E07066901314740EA51280852CCC
:102A13009013147419F0D213E0FF25E025E024F39A
:102A2300F582E43403F583A5128007BA90226EA5DC
:102A3300128007B0EF25E025E024F6F582E43403A5
:102A4300F583E493902271F07D01E4FFA512808564
:102A530062E47FD07E07A512806E20E4901315F008
:102A6300901537E04401F07F02022B0E901315E01E
:102A730075F006900005A512800799E030E0045434
:102A83000A6067901314740EA51280852C9013149A
:102A93007419F0D213E0FF25E025E024F3F582E476
:102AA3003403F583A5128007BA90226EA51280071E
:102AB300B0EF25E025E024F6F582E43403F583E462
:102AC30093902271F07D01E4FFA512808562E47F7B
:102AD300D07E07A512806E20E4901315F090153771
:102AE300E04401F0E4901315801A901315E075F09B
:102AF30006900006A512800799E0FEA3E04E700938
:102B0300901315F0F07F0180027F00A522E490204E
:102B13001CF0A3F0A3F0A3F090055AE0B4011890C1
:102B23000558E0FEA3E0FF901313E02FFF9013126C
:102B3300E03E90201D800B901312E0FFA3E0902055
:102B43001DCFF0A3EFF0901315E075F0069000068B
:102B5300A512800799E0FEA3E0FF90201DE0FCA3EF
:102B6300E0FDD3EF9DEE9C5003022D1A90131474D5
:102B730033A51280852C9013147427F090032BE057
:102B8300FEA3E0FFEE6003022CDEEF24F660572481
:102B9300A67003022C5C24636003022CDE7B807A24
:102BA30003799890226FA5128007B0901314E02543
:102BB300E025E024F3F582E43403F583A5128007CE
:102BC300BA902272A5128007B0901315E075F00633
:102BD300900006A512800799E0FFA3E0902275CF2D
:102BE300F0A3EF022CCD7B807A03799E90226FA510
:102BF300128007B0901314E025E025E024F3F5825A
:102C0300E43403F583A5128007BA902272A51280DB
:102C130007B0901315E075F006900006A512800723
:102C230099E0FAA3E0FB90032BE0FCA3E0FDAF03E4
:102C3300AE02A512800516902275EEF0A3EFF09078
:102C4300032BE0FCA3E0FDAF03AE02A51280051643
:102C5300902277ECF0A3ED80717B807A0379A790C3
:102C6300226FA5128007B0901314E025E025E0241D
:102C7300F3F582E43403F583A5128007BA90227238
:102C8300A5128007B0901315E075F006900006A515
:102C930012800799E0FAA3E0FB90032BE0FCA3E08A
:102CA300FDAF03AE02A512800516902275EEF0A3C8
:102CB300EFF090032BE0FCA3E0FDAF03AE02A512FF
:102CC300800516902277ECF0A3EDF07B007A05796E
:102CD30065A512800C8690201CEFF0D2137B007A3E
:102CE30005796590226EA5128007B090201CE090B4
:102CF3002271F07D01E4FFA512808562E47FDC7E12
:102D030005A512806E20E4901315F0901537E0446A
:102D130001F07F01022E5690055AE0640160030220
:102D23002E24A512815CDB90201FEFF06003022D9F
:102D3300ED900558E0FFA3E090201DCFF0A3EFF046
:102D430090201DE0FEA3E0FF901312EE8FF0A5127A
:102D53008005AA900EF9A512800738E4FCFDA512A0
:102D63008005D8900EF9A51280078C900EFDA51250
:102D730080073890201DE0FEA3E0FFE4FCFDA512D0
:102D83008005D8900EFDA51280078C9015F574016F
:102D9300F090201DE0FEA3E0FF9015F8EE8FF0A564
:102DA300128005AAE490055AF0900558F0A3F0901C
:102DB30015F4E0B4011A9015F6E0FCA3E0FDE4FF7E
:102DC300A512813DE7E49015F4F09015F6F0A3F019
:102DD3009015F5E064017062A512813DDDE4901564
:102DE300F5F09015F8F0A3F08050E490055AF090B8
:102DF3000558F0A3F0A512801C7C901315E075F024
:102E030006900006A512800799E0FEA3E0FF901349
:102E130012E0FCA3E0FDD3EF9DEE9C401D7F0180FB
:102E2300329002EAE0B40112900542E0B4010B9043
:102E33000557E030E0047F018019E4900557F090D6
:102E43000551F07F2C7E01A512806E20A51280789B
:102E5300CD7F00A5227F0190201FEFF0E4A3F0A314
:102E6300F0A3F0A5128078CDA5128075F990201FEC
:102E7300E06003022FA89013147414A51280852C0C
:102E83007E007F147D007B007A057965A51280089A
:102E93005F90032BE0FEA3E0FFEE6003022FA5EF9C
:102EA30024F6603D24A67003022F3D2463600302D1
:102EB30031007B807A0379B290226FA5128007B02C
:102EC3009004A3A5128007BA902272A5128007B0BE
:102ED300901312E0FFA3E0902275CFF0A3EF022F2F
:102EE300947B807A0379B790226FA5128007B09004
:102EF30004A3A5128007BA902272A5128007B0908E
:102F0300032BE0FAA3E0FB901312E0FEA3E0FFAD76
:102F130003AC02A512800516902275EEF0A3EFF024
:102F2300901312E0FEA3E0FFAD03AC02A5128005EF
:102F330016902277ECF0A3ED80577B807A0379BF5C
:102F430090226FA5128007B09004A3A5128007BA40
:102F5300902272A5128007B090032BE0FAA3E0FB46
:102F6300901312E0FEA3E0FFAD03AC02A5128005AF
:102F730016902275EEF0A3EFF0901312E0FEA3E09B
:102F8300FFAD03AC02A512800516902277ECF0A3E7
:102F9300EDF07B007A057965A512800C86902021DF
:102FA300EFF002310090201FE06402600302314F12
:102FB3009013147414A51280852C7E007F147D0059
:102FC3007B007A057965A51280085F90032BE0FEEC
:102FD300A3E0FFEE6003023100EF24F6603A24A67B
:102FE3007003023084246360030231007B807A0320
:102FF30079C990226FA5128007B09004BBA51280F7
:1030030007BA902272A5128007B0900DF4A5128022
:10301300071A9022750230EB7B807A0379CF9022D6
:103023006FA5128007B09004BBA5128007BA902247
:1030330072A5128007B090032BE0FEA3E0FFFBAA6A
:1030430006E4F9F8900DF4A51280071AA51280067C
:1030530073902275A51280078C90032BE0FEA3E0EA
:10306300FFFBAA06E4F9F8900DF4A51280071AA550
:1030730012800673AC00AD01AE02AF0390227980DB
:10308300677B807A0379D990226FA5128007B0906D
:1030930004BBA5128007BA902272A5128007B090D4
:1030A300032BE0FEA3E0FFFBAA06E4F9F8900DF47E
:1030B300A51280071AA512800673902275A51280A7
:1030C300078C90032BE0FEA3E0FFFBAA06E4F9F8CC
:1030D300900DF4A51280071AA512800673AC00ADFB
:1030E30001AE02AF03902279A51280078C7B007A90
:1030F300057965A512800C86902021EFF0D2137B11
:10310300007A05796590226EA5128007B090202180
:10311300E0902271F07D01E4FFA512808562E47FD7
:1031230064A512806E1F901315E0FF901600F0E463
:10313300A3F075F006EF900006A512800799E0FF53
:10314300A3E0901602CFF0A3EFF0802990201FE0B8
:10315300640170219013147414A51280852C7F02CE
:10316300A51280A359E47F64A512806E1F901600F8
:10317300E0901315F0E49015FFF0A5128078CDA52B
:103183001280C359902020EFF0BF0704E40236D128
:10319300902020E0A5128007C731B800348F013496
:1031A3008F0236610336610431B805366107368D07
:1031B30008000036DF90201FE06003B40221901363
:1031C30015E075F006900006A512800799E0FEA3AE
:1031D300E0FFC3901313E09FF0901312E09EF09072
:1031E300201FE0B40122901602E0FEA3E0FF90133B
:1031F30012E0FCA3E0FDC39FEC9E400CED9FFFECAF
:103203009E901312F0A3EFF0901314741AA512807A
:10321300852C90201FE06003023398A51280981D2F
:10322300EF70279002EBE0B40116B4011DA3E0FE9A
:10323300A3E0FFC3901313E09F901312E09E500A84
:103243007F02A51280A3590233987E007F147D006C
:103253007B007A057965A51280085F90032BE0FE59
:10326300A3E0FFEE600302336FEF24F6603D24A674
:1032730070030233072463600302336F7B807A0396
:1032830079B290226FA5128007B09004A3A5128093
:1032930007BA902272A5128007B0901312E0FFA321
:1032A300E0902275CFF0A3EF02335E7B807A03793F
:1032B300B790226FA5128007B09004A3A5128007D0
:1032C300BA902272A5128007B090032BE0FAA3E014
:1032D300FB901312E0FEA3E0FFAD03AC02A5128046
:1032E3000516902275EEF0A3EFF0901312E0FEA303
:1032F300E0FFAD03AC02A512800516902277ECF037
:10330300A3ED80577B807A0379BF90226FA512804B
:1033130007B09004A3A5128007BA902272A5128069
:1033230007B090032BE0FAA3E0FB901312E0FEA397
:10333300E0FFAD03AC02A512800516902275EEF0F6
:10334300A3EFF0901312E0FEA3E0FFAD03AC02A5E0
:1033530012800516902277ECF0A3EDF07B007A053E
:103363007965A512800C86902021EFF0D2137B00A3
:103373007A05796590226EA5128007B0902021E02E
:10338300902271F07D01E4FFA512808562E47FC87D
:10339300A512806E1F901315E0FF75F006900008CC
:1033A300A512800799E014F075F006EF900008A5C8
:1033B30012800799E07013901315E075F0069000E2
:1033C30005A512800799E04404F0902020E0B4059D
:1033D30013901315E075F006900005A51280079968
:1033E300E04402F0A512809F4B900F05A5128007C1
:1033F30038901315E075F006900006A51280079922
:10340300E0FEA3E0FFE4FCFDA5128005D8900F05C4
:10341300A51280078C900F09E475F001A5128005B1
:10342300AAA512809EFA90201FE0B401059016060B
:103433008003901605A51281480DE49015FFF0A3B3
:10344300E0FDA3E0FBA3E0FFA3E0902026CFF0A3E1
:10345300EFF0E4FFA512815097901521E4F0A374D7
:1034630064F0901521E07002A3E0601BA51280A90F
:10347300175008E4FDFFA51280A7BBA51280D64F05
:10348300902022EFF080DB7F00023700A5128085B9
:1034930027901315E075F006900005A51280079993
:1034A300E04402F090201FE0FF6007640260030223
:1034B3003626A51280981DEF64016003023605FECF
:1034C3007F14FD7B007A057965A51280085F900360
:1034D3002BE0FEA3E0FFEE60030235E2EF24F6608B
:1034E3003D24A6700302357A246360030235E27B30
:1034F300807A0379B290226FA5128007B09004A35B
:10350300A5128007BA902272A5128007B0901312F9
:10351300E0FFA3E0902275CFF0A3EF0235D17B80CB
:103523007A0379B790226FA5128007B09004A3A500
:10353300128007BA902272A5128007B090032BE085
:10354300FAA3E0FB901312E0FEA3E0FFAD03AC028D
:10355300A512800516902275EEF0A3EFF0901312DA
:10356300E0FEA3E0FFAD03AC02A512800516902296
:1035730077ECF0A3ED80577B807A0379BF90226FBD
:10358300A5128007B09004A3A5128007BA902272F7
:10359300A5128007B090032BE0FAA3E0FB9013126F
:1035A300E0FEA3E0FFAD03AC02A512800516902256
:1035B30075EEF0A3EFF0901312E0FEA3E0FFAD036E
:1035C300AC02A512800516902277ECF0A3EDF07BF8
:1035D300007A057965A512800C86902021EFF0D240
:1035E300137B007A05796590226EA5128007B0904F
:1035F3002021E0902271F07D01E4FFA51280856215
:1036030080077F02A51280A359E47FE87E03A512F9
:10361300806E20901312E0FFA3E0900563CFA51204
:10362300803D8FA512809F38900F0BE475F001A5A4
:10363300128005AAA512809EFAA512809ED1902021
:103643001FE0B401059016068003901605E0FFA560
:103653001281480FA51281507C7F02023700A51208
:10366300808527A512809F3890201FE0B401059024
:1036730016068003901605E0FFA51281480FA512D8
:1036830081507CE47FC47E09803BA512808527900E
:103693001315E075F006900005A512800799E04424
:1036A30004F0A512809F4B90201FE0B401059016F3
:1036B300068003901605A51281480DA51281507C42
:1036C300E47FE87E03A512806E207F00802FF0A5A3
:1036D3001280C359902020EFF0023193901600E03E
:1036E300FDA3E0FBA3E0FFA3E0902026CFF0A3EF30
:1036F300F09015FFE0FFA5128150977F00A522E40B
:1037030090201CF0A3F0A3F0A51280A9175008E4A1
:10371300FDFFA51280A7BBA51280D64F90201EEFF8
:10372300F0901312E07002A3E07004FF023D899051
:1037330002EBE064016014A512809818BF01077FB3
:1037430001A51280A3597F00023D899002ECE0FE9F
:10375300A3E0FFC3901313E09F901312E09E500366
:10376300023C22EF4E7003023C22A512809855EFD3
:1037730064016003023AB8D213900487A51280074C
:10378300BA90226EA5128007B090048AA512808594
:1037930059D213900407A5128007BA90226EA5127E
:1037A3008007B090040AE493902271F07D01E4FF56
:1037B300A512808562902D63741EF0902D63E070D6
:1037C3000302394EA512806E1CA51280A10A902017
:1037D3001CEFF024E5600E240E70E0A512801C7C23
:1037E3007F01023D89A512809818EF6401600302EE
:1037F30039497F01A51280A3597E007F147D007B88
:10380300007A057965A51280085F90032BE0FEA37B
:10381300E0FFEE600302391EEF24F6603D24A6703C
:10382300030238B62463600302391E7B807A03796E
:10383300B290226FA5128007B090049FA512800753
:10384300BA902272A5128007B0901312E0FFA3E092
:10385300902275CFF0A3EF02390D7B807A0379B7FD
:1038630090226FA5128007B090049FA5128007BA1B
:10387300902272A5128007B090032BE0FAA3E0FB1D
:10388300901312E0FEA3E0FFAD03AC02A512800586
:1038930016902275EEF0A3EFF0901312E0FEA3E072
:1038A300FFAD03AC02A512800516902277ECF0A3BE
:1038B300ED80577B807A0379BF90226FA512800732
:1038C300B090049FA5128007BA902272A5128007B8
:1038D300B090032BE0FAA3E0FB901312E0FEA3E009
:1038E300FFAD03AC02A512800516902275EEF0A37E
:1038F300EFF0901312E0FEA3E0FFAD03AC02A512BC
:10390300800516902277ECF0A3EDF07B007A057921
:1039130065A512800C8690201CEFF0D2137B007AF1
:1039230005796590226EA5128007B090201CE09067
:103933002271F07D01E4FFA512808562E47FDC7EC5
:1039430005A512806E207F00023D89A51280981D77
:10395300EF64016003023AB390201CF07F01A512CB
:1039630080A3597E007F147D007B007A057965A5CD
:103973001280085F90032BE0FEA3E0FFEE600302DA
:103983003A88EF24F6603D24A67003023A202463AC
:103993006003023A887B807A0379B290226FA51282
:1039A3008007B090049FA5128007BA902272A512D7
:1039B3008007B0901312E0FFA3E0902275CFF0A32D
:1039C300EF023A777B807A0379B790226FA5128052
:1039D30007B090049FA5128007BA902272A51280A7
:1039E30007B090032BE0FAA3E0FB901312E0FEA3D1
:1039F300E0FFAD03AC02A512800516902275EEF030
:103A0300A3EFF0901312E0FEA3E0FFAD03AC02A519
:103A130012800516902277ECF0A3ED80577B807A15
:103A23000379BF90226FA5128007B090049FA5125F
:103A33008007BA902272A5128007B090032BE0FA98
:103A4300A3E0FB901312E0FEA3E0FFAD03AC02A5DD
:103A530012800516902275EEF0A3EFF0901312E09A
:103A6300FEA3E0FFAD03AC02A512800516902277FA
:103A7300ECF0A3EDF07B007A057965A512800C8646
:103A830090201CEFF0D2137B007A05796590226EAB
:103A9300A5128007B090201CE0902271F07D01E414
:103AA300FFA512808562E47FDC7E05A512806E206F
:103AB3007F00023D89A51280981DEF640160030217
:103AC3003C1D90201CF07F01A51280A3597E007F2E
:103AD300147D007B007A057965A51280085F900349
:103AE3002BE0FEA3E0FFEE6003023BF2EF24F6605F
:103AF3003D24A67003023B8A24636003023BF27BEE
:103B0300807A0379B290226FA5128007B090049F48
:103B1300A5128007BA902272A5128007B0901312E3
:103B2300E0FFA3E0902275CFF0A3EF023BE17B809F
:103B33007A0379B790226FA5128007B090049FA5EE
:103B4300128007BA902272A5128007B090032BE06F
:103B5300FAA3E0FB901312E0FEA3E0FFAD03AC0277
:103B6300A512800516902275EEF0A3EFF0901312C4
:103B7300E0FEA3E0FFAD03AC02A512800516902280
:103B830077ECF0A3ED80577B807A0379BF90226FA7
:103B9300A5128007B090049FA5128007BA902272E5
:103BA300A5128007B090032BE0FAA3E0FB90131259
:103BB300E0FEA3E0FFAD03AC02A512800516902240
:103BC30075EEF0A3EFF0901312E0FEA3E0FFAD0358
:103BD300AC02A512800516902277ECF0A3EDF07BE2
:103BE300007A057965A512800C8690201CEFF0D22F
:103BF300137B007A05796590226EA5128007B09039
:103C0300201CE0902271F07D01E4FFA51280856203
:103C1300E47FDC7E05A512806E207F00023D89A52E
:103C23001280981DEF64016003023D8790201CF011
:103C33007F01A51280A3597E007F147D007B007A4B
:103C4300057965A51280085F90032BE0FEA3E0FFD2
:103C5300EE6003023D5CEF24F6603D24A670030290
:103C63003CF424636003023D5C7B807A0379B29069
:103C7300226FA5128007B090049FA5128007BA9007
:103C83002272A5128007B0901312E0FFA3E09022E6
:103C930075CFF0A3EF023D4B7B807A0379B7902277
:103CA3006FA5128007B090049FA5128007BA9022D7
:103CB30072A5128007B090032BE0FAA3E0FB9013E8
:103CC30012E0FEA3E0FFAD03AC02A512800516903F
:103CD3002275EEF0A3EFF0901312E0FEA3E0FFAD28
:103CE30003AC02A512800516902277ECF0A3ED80B9
:103CF300577B807A0379BF90226FA5128007B0901B
:103D0300049FA5128007BA902272A5128007B09073
:103D1300032BE0FAA3E0FB901312E0FEA3E0FFAD58
:103D230003AC02A512800516902275EEF0A3EFF006
:103D3300901312E0FEA3E0FFAD03AC02A5128005D1
:103D430016902277ECF0A3EDF07B007A057965A558
:103D530012800C8690201CEFF0D2137B007A057939
:103D63006590226EA5128007B090201CE09022710E
:103D7300F07D01E4FFA512808562E47FD07E07A574
:103D830012806E207F00A522900563EEF0A3EFF072
:103D9300E4901312F0A3F0E4902023F0A3F0A3F037
:103DA300A3F0A3F0A3F0A3F0A304F0A3F0A3F0E423
:103DB300A3F0A3F0A51280981DEF6401600DA51276
:103DC300809855BF01057F000247C8901314741BE8
:103DD300A51280852CA512806E1C7E007F147D00A9
:103DE3007B007A057965A51280085F90032BE0FEBE
:103DF300A3E0FFEE6003023EFFEF24F6603D24A63E
:103E03007003023E9724636003023EFF7B807A03C4
:103E130079B290226FA5128007B090049FA51280FB
:103E230007BA902272A5128007B0900563E0FFA342
:103E3300E0902275CFF0A3EF023EEE7B807A037908
:103E4300B790226FA5128007B090049FA512800738
:103E5300BA902272A5128007B090032BE0FAA3E078
:103E6300FB900563E0FEA3E0FFAD03AC02A5128067
:103E73000516902275EEF0A3EFF0900563E0FEA324
:103E8300E0FFAD03AC02A512800516902277ECF09B
:103E9300A3ED80577B807A0379BF90226FA51280B0
:103EA30007B090049FA5128007BA902272A51280D2
:103EB30007B090032BE0FAA3E0FB900563E0FEA3B9
:103EC300E0FFAD03AC02A512800516902275EEF05B
:103ED300A3EFF0900563E0FEA3E0FFAD03AC02A502
:103EE30012800516902277ECF0A3EDF07B007A05A3
:103EF3007965A512800C86902029EFF0D2137B0000
:103F03007A05796590226EA5128007B0902029E08A
:103F1300A512806E0F9015367401F0E49015EEF043
:103F2300A3F0A3F0A3F0A51280A9175008E4FDFFA6
:103F3300A51280A7BBA51280D64F90202EEFF0E4E8
:103F4300902023F0A3F0A3F0900563E0FEA3E0FF2D
:103F53004E700790202DF00245AB7B007A20792428
:103F6300902034A5128007B07A2009902037A5123B
:103F73008007B07A207923A512808FF6902026EF50
:103F8300F0700302401CE4F0902026E0FFC394038A
:103F9300501DEF25E025E024D9F582E4340BF583A9
:103FA300E0FEA3E04E6008902026E004F080D99064
:103FB3002026E0FF701990202D04F0900563E0FDAA
:103FC300A3E09002F2CDF0A3EDF0D2220245ABEFD5
:103FD30025E025E024D5F582E4340BF583E0FEA348
:103FE300E0FF900563E0FCA3E0FDC39FEC9E40125D
:103FF30090202D7401F09002F2ECF0A3EDF0D222A8
:10400300800DE49002F2F0A3F0C22290202DF0E4A0
:10401300900563F0A3F00245ABE4902027F0A3F0F2
:10402300902023E0FF70030240E27E007A167B6556
:104033007D01A512806F5EEF7074A512806611E496
:10404300902026F0902026E0C3940250567C167DE3
:10405300657F01A5128069CBEF6401603F9016680C
:10406300E0FD5450600790202AE04404F0ED30E571
:104073000790202AE04402F0901668E030E30790AE
:10408300202AE04408F07F01A5128130BF90202749
:10409300EEF0A3EFF0E4902026F08007A5128066EF
:1040A3000B80A1902026E0C3940240098000902059
:1040B3002AE04404F09002E4E0FCA3E0FD90202712
:1040C300E0FEA3E0FFA512800503C3900564E09F13
:1040D300F0900563E09EF09015EEEEF0A3EFF09004
:1040E3002027E0FEA3E0FF900F1DEE8FF0A51280C6
:1040F30005AA900F11A512800738C0009002E4E0D2
:10410300FCA3E0FD902027E0FEA3E0FFA5128005BD
:1041130003E4FCFDD000A5128005D8900F11A51271
:1041230080078C900F0DA512800738C0009002E421
:10413300E0FCA3E0FD902027E0FEA3E0FFA51280B2
:104143000503E4FCFDD000A5128005D8900F0DA552
:104153001280078C90202AE0640170030241F9E485
:10416300902029F0902029E0FFC39403506CEF25A1
:10417300E025E024DBF582E4340BF583E064017091
:104183005190202AE0FF30E2079013057401801755
:10419300EF30E3079013057404800C90202AE0307D
:1041A300E11A9013057402F0902029E025E025E040
:1041B30024DCF582E4340BF5837402F0A5128097B6
:1041C300FA902029E0B50712901305E0600CC21D98
:1041D3008008902029E004F0808A90202A7401F05E
:1041E300902023E0FFC3902028E09F902027E094B5
:1041F300005003023F29E4902027F0A3F0902024ED
:10420300E0FF70030242BF7E007A167B7A7D02A52F
:1042130012806F5EEF7074A512806611E490202601
:10422300F0902026E0C3940250567C167D7A7F02DC
:10423300A5128069CBEF6401603F90167DE0FD54C9
:1042430050600790202BE04404F0ED30E507902008
:104253002BE04402F090167DE030E30790202BE042
:104263004408F07F02A5128130BF902027EEF0A30F
:10427300EFF0E4902026F08007A51280660B80A162
:10428300902026E0C394024009800090202BE04454
:1042930004F09002E6E0FCA3E0FD902027E0FEA3FB
:1042A300E0FFA512800503C3900564E09FF090052D
:1042B30063E09EF09015F0EEF0A3EFF0902027E07E
:1042C300FEA3E0FF900F1FEE8FF0A5128005AA90CA
:1042D3000F15A512800738C0009002E6E0FCA3E0AA
:1042E300FD902027E0FEA3E0FFA512800503E4FC78
:1042F300FDD000A5128005D8900F15A51280078C5C
:10430300900F0DA512800738C0009002E6E0FCA3D1
:10431300E0FD902027E0FEA3E0FFA512800503E463
:10432300FCFDD000A5128005D8900F0DA5128007C3
:104333008C90202BE0640170030243D6E490202983
:10434300F0902029E0FFC39403506CEF25E025E0B3
:1043530024DBF582E4340BF583E064027051902092
:104363002BE0FF30E20790130674018017EF30E370
:10437300079013067404800C90202BE030E11A9010
:1043830013067402F0902029E025E025E024DCF5F3
:1043930082E4340BF5837402F0A5128097FA90201F
:1043A30029E0B50712901306E0600CC21D80089047
:1043B3002029E004F0808A90202B7401F0902024BF
:1043C300E0FFC3902028E09F902027E09400500353
:1043D300023F29E4902027F0A3F0902025E0FF700E
:1043E300030244967E007A167B8F7D03A512806FAD
:1043F3005EEF706EA512806611E4902026F0902087
:1044030026E0C394025050A5128069C5EF64016091
:104413003F901692E0FD5450600790202CE0440436
:10442300F0ED30E50790202CE04402F0901692E086
:1044330030E30790202CE04408F07F03A51281307D
:10444300BF902027EEF0A3EFF0E4902026F0800742
:10445300A51280660B80A7902026E0C39402400932
:10446300800090202CE04404F09002E8E0FCA3E0FC
:10447300FD902027E0FEA3E0FFA512800503C39073
:104483000564E09FF0900563E09EF09015F2EEF076
:10449300A3EFF0902027E0FEA3E0FF900F21EE8F23
:1044A300F0A5128005AA900F19A512800738C00045
:1044B3009002E8E0FCA3E0FD902027E0FEA3E0FFEC
:1044C300A512800503E4FCFDD000A5128005D89059
:1044D3000F19A51280078C900F0DA512800738C005
:1044E300009002E8E0FCA3E0FD902027E0FEA3E0BB
:1044F300FFA512800503E4FCFDD000A5128005D8BA
:10450300900F0DA51280078C90202CE0640170039E
:10451300023F29E4902029F0902029E0FFC394036F
:10452300506CEF25E025E024DBF582E4340BF583C2
:10453300E06403705190202CE0FF30E207901307F2
:1045430074018017EF30E3079013077404800C9015
:10455300202CE030E11A9013077402F0902029E038
:1045630025E025E024DCF582E4340BF5837402F0C6
:10457300A5128097FA902029E0B50712901307E05F
:10458300600CC21D8008902029E004F0808A9020EE
:104593002C7401F0902025E0FFC3902028E09F9029
:1045A3002027E09400023F299015EEE0FCA3E0FDF4
:1045B300D39400EC9400500E9015F1E09400901504
:1045C300F0E09400401A9015F0E0FAA3E0FBE4FF5A
:1045D300A512814FE8E49015EEF0A3F0A3F0A3F049
:1045E30090202DE070030247ABA51280BD629013AB
:1045F300147401A51280852C9013147420F07E008E
:104603007F147D007B007A057965A51280085F9091
:104613001314E0FF25E025E024F6F582E43403F5E6
:1046230083E493FD7C00C004C005EF25E025E0246E
:10463300F3F582E43403F583A5128007BA78657C29
:10464300057D00D007D006A5128004D7901314E08F
:1046530025E025E024F6F582E43403F583E4939022
:104663002029F090032BE0FEA3E0FFEE6003024756
:1046730081EF24F6604024A670030247152463608B
:1046830003024781902029E02465F9E43405FA7B8D
:1046930000C003C002C0017B807A03798790226F38
:1046A300A5128007B09002F2E0FFA3E0902272CF40
:1046B300F0A3EF02476F902029E02465F9E4340565
:1046C300FA7B00C003C002C0017B807A03798A9021
:1046D300226FA5128007B090032BE0FAA3E0FB90B2
:1046E30002F2E0FEA3E0FFAD03AC02A512800516C3
:1046F300902272EEF0A3EFF09002F2E0FEA3E0FF4F
:10470300AD03AC02A512800516902274ECF0A3ED64
:10471300805A902029E02465F9E43405FA7B00C02F
:1047230003C002C0017B807A03799090226FA512A7
:104733008007B090032BE0FAA3E0FB9002F2E0FEC7
:10474300A3E0FFAD03AC02A512800516902272EE22
:10475300F0A3EFF09002F2E0FEA3E0FFAD03AC02A2
:10476300A512800516902274ECF0A3EDF0D001D0D1
:1047730002D003A512800C86902029E02FF0D213DB
:104783007B007A05796590226EA5128007B0902090
:1047930029E0902271F07D01E4FFA5128085627FFC
:1047A300D07E07A51280661590032DE06401601387
:1047B300901305E090057A6006E04408F08004E079
:1047C30054F7F07F00A522E490201CF0A512809EF0
:1047D300D190057AE04440F0901314740DA5128033
:1047E300852C7F01A522E490201CF0902D5DF09094
:1047F3000002F0A5128075F99002077402F03020D0
:1048030007A51280880CC220901BE77401F0E49086
:10481300153AF0FBFAFD7F05A512813E66A51280CD
:104823004C3C90153A7401F0E4FBFAFD7F06A512A7
:10483300813E66E490055AF0900558F0A3F0901B72
:10484300E7F0D21390043BA5128007BA90226EA51D
:10485300128007B090043EA512808559D2137B8045
:104863007A0379E590226EA5128007B090227174C5
:1048730001F0FDE4FFA512808562A51280801B90E4
:1048830002077401F0E4900579F0A3F0D21D202013
:1048930007A51280800CD220D21F90201CE0644018
:1048A30060028055A512809218E490201CF090209D
:1048B3001CE0FFC39440501875F006EF900005A567
:1048C30012800799E0541FF090201CE004F080DE72
:1048D300901303E07003201D0D901304E060079014
:1048E300057AE04402F07D53E4FFA51280C36EBF56
:1048F300020790057AE04440F0E490164BF09002F2
:10490300E2F0900184F0A3F0FFA522E490201CF0D4
:10491300A3F0201F03024C1AA5128075F9901314FB
:104923007410A51280852CE47F64A512806E1F90FD
:104933000579E0FEA3E0FF30E00990201D74F1F05B
:104943000249F4EF30E10990201D74F2F00249F4BA
:10495300EF30E20990201D74F3F00249F4EF30E3E5
:104963000990201D74F4F00249F4EF30E40890201C
:104973001D74F5F0807BEF30E50890201D74F6F090
:10498300806FEF30E60890201D74F7F08063EF30FE
:10499300E70890201D74F8F08057EE30E00890206F
:1049A3001D74F9F0804BEE30E10890201D74FAF08D
:1049B300803FEE30E20890201D74FBF08033EE3030
:1049C300E30890201D74FCF08027EE30E40890206B
:1049D3001D74FDF0801BEE30E50890201D74FEF081
:1049E300800FEE90201D30E60574E1F0800374FF24
:1049F300F0202203024BB09002F2E07002A3E070B9
:104A030003024BB07B807A0379E790226FA5128073
:104A130007B090201DE0902272F07B007A05796543
:104A2300A512800C8690201CEFF09013147420F0D4
:104A3300E0FE25E025E024F6F582E43403F583E483
:104A430093FD7C00C004C005EE25E025E024F3F5CA
:104A530082E43403F583A5128007BAC00174652F7D
:104A6300F9E43405A801FC7D00D001D007D006A5E8
:104A7300128004D7901314E025E025E024F6F58294
:104A8300E43403F583E493FF90201CE02FF09003BC
:104A93002BE0FEA3E0FFEE6003024BACEF24F660D5
:104AA3004024A67003024B4024636003024BAC9086
:104AB300201CE02465F9E43405FA7B00C003C0023E
:104AC300C0017B807A03798790226FA5128007B09B
:104AD3009002F2E0FFA3E0902272CFF0A3EF024B2B
:104AE3009A90201CE02465F9E43405FA7B00C003A6
:104AF300C002C0017B807A03798A90226FA512805D
:104B030007B090032BE0FAA3E0FB9002F2E0FEA3D0
:104B1300E0FFAD03AC02A512800516902272EEF001
:104B2300A3EFF09002F2E0FEA3E0FFAD03AC02A519
:104B330012800516902274ECF0A3ED805A90201C8D
:104B4300E02465F9E43405FA7B00C003C002C00128
:104B53007B807A03799090226FA5128007B090032F
:104B63002BE0FAA3E0FB9002F2E0FEA3E0FFAD032B
:104B7300AC02A512800516902272EEF0A3EFF0901E
:104B830002F2E0FEA3E0FFAD03AC02A5128005161E
:104B9300902274ECF0A3EDF0D001D002D003A51263
:104BA300800C8690201CE02FF0C22280267B807A26
:104BB3000379E790226FA5128007B090201DE09043
:104BC3002272F07B007A057965A512800C8690200D
:104BD3001CEFF0D2137B007A05796590226EA51243
:104BE3008007B090201CE0902271F07D01E4FFA5C6
:104BF30012808562E47F64A512806E1F900001E03D
:104C030004F0E0C394024004C21FE4F0900207746E
:104C130002F0A51280801B900309E0B401179000F5
:104C230002E0700CA512807FF4EF700404F080059D
:104C3300A51280AFE87F01A522E490201FF0D20FD8
:104C4300A3F0A3F002532B902020E0600302533B18
:104C5300F0D20FA51280801BD2139018ACA512803E
:104C630007BA90226EA5128007B09018AFA51280E4
:104C73008559D2139018B0A5128007BA90226EA559
:104C8300128007B09018B3E493902271F07D01E491
:104C9300FFA512808562A51280B1B890201D740112
:104CA300F0A304F0200F0302502DA51280A10A9057
:104CB3002021EFF024F37003024E4324F270030229
:104CC3004E3E24CB7003024D922408600302501C15
:104CD30090201EE06402702DD21190226E7402F0B7
:104CE300D212E4FDFFA51280B1C690201E7401F01C
:104CF30090201DE07006740DF002501C90201DE002
:104D030014F002501CD21390201DE0FF25E025E093
:104D130024ACF582E43418F583A5128007BA9022F7
:104D23006EA5128007B0EF25E025E024AFF582E4FD
:104D33003418F583E493902271F07D01E4FFA5120A
:104D430080856290201DE07005740DF08006902030
:104D53001DE014F0D21390201DE0FF25E025E02490
:104D6300ACF582E43418F583A5128007BA90226E5D
:104D7300A5128007B0EF25E025E024AFF582E434E7
:104D830018A51280855790201E7401F002501C90C4
:104D9300201EE06401701AA51280B1B890201DE0B6
:104DA300B40D05E4F0024E3590201DE004F0024EF0
:104DB30035D21390201DE0FF25E025E024ACF582D9
:104DC300E43418F583A5128007BA90226EA51280E9
:104DD30007B0EF25E025E024AFF582E43418A512EF
:104DE30080855790201DE0B40D04E4F080069020E8
:104DF3001DE004F0D21390201DE0FF25E025E02400
:104E0300ACF582E43418F583A5128007BA90226EBC
:104E1300A5128007B0EF25E025E024AFF582E43446
:104E230018F583E493902271F07D01E4FFA51280CD
:104E3300856290201E7402F002501CC20F02501CA7
:104E4300C211E490226EF0D212FDFFA51280B1C60A
:104E5300A51280801B90201DE0A5128007C74E86F7
:104E6300004E8D014E94024E98034E9F044EA605AC
:104E73004EAF084EB6094EBD0B4EC40C4ECB0D00C3
:104E8300004ED0A51280F15D8043A512814ED280E1
:104E93003C7F018010A5128157288031A51280A57F
:104EA3005D802A7F02A5128155368021A51280B22A
:104EB3002A801AA51280F3648013A512805C4880AF
:104EC3000CA51280B91B8005A51280F25090201EFC
:104ED300E064026003024F6790201DE07017D21355
:104EE3009018E0A5128007BA90226EA5128007B031
:104EF3009018E3802FD21390201DE0FF25E025E0DA
:104F030024A8F582E43418F583A5128007BA902209
:104F13006EA5128007B0EF25E025E024ABF582E40F
:104F23003418F583A512808559D21390201DE0FF14
:104F330025E025E024ACF582E43418F583A512803E
:104F430007BA90226EA5128007B0EF25E025E02472
:104F5300AFF582E43418F583E493902271F07D0178
:104F6300E4024FFA90201DE0B40D17D2139018AC51
:104F7300A5128007BA90226EA5128007B09018AFD1
:104F8300802FD21390201DE0FF25E025E024B0F50B
:104F930082E43418F583A5128007BA90226EA51215
:104FA3008007B0EF25E025E024B3F582E43418F55B
:104FB30083E493902271F07D01E4FFA51280856262
:104FC300D21390201DE0FF25E025E024ACF582E418
:104FD3003418F583A5128007BA90226EA5128007B4
:104FE300B0EF25E025E024AFF582E43418F583E43F
:104FF30093902271F0E4FDFFA51280856290201E3C
:10500300E014FDD21190226E7402F0D212E4FFA5D7
:105013001280B1C6A51280801BA512807F757F0AFE
:105023007E00A512807FB1024CA7E47F2C7E01FD98
:10503300FC9022A27416F0A37450F0A512806E287F
:10504300A5128130F8D211E490226EF0D212FDFF46
:10505300A51280B1C6D211E490226EF0D212FD7F68
:1050630001A51280B1C6902D66E0700330254ED2A3
:10507300137B807A18797A90226EA5128007B090FC
:105083002271740AA51280855ED2137B807A187907
:105093008590226EA5128007B09022717401F0FDF5
:1050A300E4FFA512808562E47FC47E09FDFC9022A3
:1050B300A27416F0A37450F0A512806E28902D668A
:1050C300E0700302519CA512809F64E47F64A512E3
:1050D300806E1FA512809F4BE47F64A512806E1F14
:1050E3007E017F807D007B007A207922A5128008D3
:1050F3005F7F807E027D087C0075372075382275BE
:105103003901753A80A512809C76E490201FF090B7
:10511300201FE0FF75F006902026A512800799E076
:10512300FE75F006EF900008A512800799E06E70F7
:105133005790201FE075F006902023A51280079951
:10514300E0FE75F006EF900005A512800799E0B523
:10515300063690201FE075F006902024A5128007E4
:1051630099E0FCA3E0FD75F006EF900006A5128020
:105173000799E0FEA3E0B5050FEEB5040B90201FE1
:10518300E004F0E06440708790201FE06440600416
:10519300A37401F0E4902D66F020250302528FA53D
:1051A3001280BD62E47F64A512806E1F7E007F576C
:1051B3007D007B007A2179A2A51280085F7F807E23
:1051C300017D087C007537217538A2753900753A61
:1051D30057A512809C769021A2E0FF9002E3E06F36
:1051E30060030252879021A3E0FEA3E0FF9002E454
:1051F300E06E7003A3E06F60030252879021A5E085
:10520300FEA3E0FF9002E6E06E7003A3E06F70740C
:105213009021A7E0FEA3E0FF9002E8E06E7003A3F5
:10522300E06F70609021A9E0FF9002EAE06F705494
:105233009021AAE0FF9002EBE06F70489021ABE071
:10524300FEA3E0FF9002ECE0B50639A3E0B5073416
:105253009021ADE0FEA3E0FF9002EEE0B50625A3AA
:10526300E0B507209021B1E0FEA3E0FF9002F2E059
:10527300B50611A3E0B5070C9021F8E0FF900339C0
:10528300E06F60069020207401F0C225902020E09A
:105293007003025332A51280801BD2137B807A18CD
:1052A300798790226EA5128007B09022717413A59E
:1052B3001280855ED2137B807A18799B90226EA52B
:1052C300128007B09022717410F07D01E4FFA512E3
:1052D300808562902D62740FF0E490201FF0902D72
:1052E30062E0603BA51280AA33A51280A10A902038
:1052F30021EFF0F460E8902021E024E56010240E13
:1053030070DCE4902020F090201F04F0800A9020AD
:10531300207401F090201FF090201FE0B401BF9093
:105323002D62E06003024C4A902020F0024C4A9028
:1053330020207401F0024C4AA50280801B902214A5
:10534300EDF0902213EFF0E4902215F0EF14602BB0
:1053530014603A14605314606C24F770030253EA28
:10536300240D600302540C901303E0FF30E7028026
:105373007EEF20E0030254070253FF901304E0FF83
:1053830030E702806AEF30E0028071807790130586
:10539300E0FF30E7028058EF540660028036901336
:1053A30005E030E0028055805B901306E0FF30E7B4
:1053B30002803CEF54066002801A901306E030E04E
:1053C300028039803F901307E0FF30E7028020EF2F
:1053D300540660089022157403F0802D901307E0A3
:1053E30030E0028017801D901310E0FF30E7089033
:1053F30022157402F08012EF540360089022157492
:1054030001F08005E4902215F03011030254F2906C
:105413002213E0FF25E025E024BDF582E4340BF5FB
:1054230083E493FD7C00C004C005EF25E025E02460
:10543300BAF582E4340BF583A5128007BA78167C9B
:10544300227D00D007D006A5128004D7902215E054
:10545300FF25E025E024FDF582E4340BF583E49396
:10546300FD7C00C004C005EF25E025E024FAF582A9
:10547300E4340BF583A5128007BAC001902213E030
:1054830025E025E024BDF582E4340BF583E4932481
:1054930016F9E43422A801FC7D00D001D007D00620
:1054A300A5128004D7902214E0FDD2137B007A2248
:1054B300791690226EA5128007B0902215E025E0A0
:1054C30025E024FDF582E4340BF583E493FF902279
:1054D30013E025E025E024BDF582E4340BF583E4F5
:1054E300932F902271F0E4FFA512808562800590CE
:1054F3002215E0FFA5229021F9E0FF7D0190221201
:10550300EDF0902211EFF0601BE0FF64016015EFF6
:1055130064026010EF6403600BEF64046006EF60E5
:1055230003B40D11902211E0FFA3E0FDC211A512F7
:105533008053408041902212E0FDD213902211E06B
:10554300FF25E025E024BAF582E4340BF583A512A8
:105553008007BA90226EA5128007B0EF25E025E000
:1055630024BDF582E4340BF583E493902271F0E4D7
:10557300FFA512808562A522902202E0FDD2117F51
:1055830001902206EFF0A3EDF0E490221EF0FE7FDF
:1055930016FD7B007A227908A51280085F90220706
:1055A300E06403607AE0FF25E025E0243BF582E434
:1055B300341BF583E493FD7C00C004C005EF25E0B4
:1055C30025E02438F582E4341BF583A5128007BA5D
:1055D30078087C227D00D007D006A5128004D7303E
:1055E3001105A51280E958902206E0FDD2137B0035
:1055F3007A22790890226EA5128007B0902207E0E4
:1056030025E025E0243BF582E4341BF583E493FF96
:1056130090221EE0FEEF2E902271F0E40256D52078
:105623001139D213902207E0FF25E025E02438F555
:1056330082E4341BF583A5128007BA90226EA5126B
:105643008007B0EF25E025E0243BF582E4341BF529
:1056530083E493902271F0E4FD8077902207E0FFCA
:1056630025E025E0243BF582E4341BF583E493FD38
:105673007C00C004C005EF25E025E02438F582E472
:10568300341BF583A5128007BA78087C227D00D0ED
:1056930007D006A5128004D7A51280E958902206E8
:1056A300E0FDD2137B007A22790890226EA5128046
:1056B30007B0902207E025E025E0243BF582E4349F
:1056C3001BF583E493FF90221EE0FEEF2E902271E0
:1056D300F0E4FFA512808562A5229021FDEFF0A3DF
:1056E300EDF0E4902209F0A37405F07E007F0A7DBB
:1056F300007B007A2179FFA51280085F9021FDE0ED
:10570300FF64027057EF25E025E02438F582E43486
:105713001BF583A5128007BAC003C002C001EF25A1
:10572300E025E0243BF582E4341BF583E493FD900C
:1057330021FEE0902223F07B007A2179FFA3A512BA
:105743008007B07A22790A902227A5128007B0D069
:1057530001D002D003A51280E0C980599021FDE059
:10576300FF25E025E02438F582E4341BF583A512F8
:105773008007BAC003C002C001EF25E025E0243B47
:10578300F582E4341BF583E493FD9021FEE090223F
:105793003CF07B007A2179FFA3A5128007B07A221F
:1057A300790A902240A5128007B0D001D002D0031D
:1057B300A51280DE0A902209EFF0A51280801B90CB
:1057C3002209E064017031C21190226EF0D212FD01
:1057D300FFA51280B1C69021FDE0FF7A217BFF90E7
:1057E30022267422F0A3740AF0D212E4FDFCA5125F
:1057F30080E985A51280801BC3A522902203E0FDCA
:10580300D211E4FF902208EFF0A3EDF0E4A3F0FE41
:105813007F2CFD7B007A2D7902A51280085F201171
:1058230037D213902209E0FF25E025E024C1F58259
:10583300E43411F583A5128007BA90226EA5128075
:1058430007B0EF25E025E024C4F582E43411A51266
:105853008085577F0002595B902209E0FF25E025F0
:10586300E024C4F582E43411F583E493FD7C00C0A5
:1058730004C005EF25E025E024C1F582E43411F5E9
:1058830083A5128007BA78027C2D7D00D007D0064D
:10589300A5128004D7902209E0FF25E025E024C467
:1058A300F582E43411F583E4932402F582E4342D84
:1058B300AD82FC9022247422F0A3740AF0C212E495
:1058C300FBFAA512810000902208E0FDD2137B00B1
:1058D3007A2D790290226EA5128007B0902209E0FA
:1058E30025E025E024C4F582E43411F583E493FF35
:1058F30090220AE0FEEF2E902271F0E4FFA51280C1
:105903008562902209E0FF25E025E024C4F582E4C6
:105913003411F583E493FE90220AE0FDEE2D240278
:10592300F582E4342DF583E4F0EF25E025E024C48B
:10593300F582E43411F583E493FF2DFDE433FCD3C6
:10594300ED9414EC64809480400C90220AE0FEEF06
:105953002E24ECFF80027F00A5229021FDEFF0A30F
:10596300EDF0E490221DF0A3F0C2109021FDE0FFC2
:1059730025E02459F582E43412F5837401939022CF
:105983001EF0EF601864016014EF6402600FEF64AF
:1059930007600AEF64086005EF6409705B9021FDFE
:1059A300E0FF25E025E024C1F582E43411F583A569
:1059B300128007BAC003C002C001EF25E025E0242E
:1059C300C4F582E43411F583E493FD9021FEE09065
:1059D3002223F07B007A2179FFA3A5128007B07AF6
:1059E30022791E902227A5128007B0D001D002D0C1
:1059F30003A51280E0C980599021FDE0FF25E02531
:105A0300E024C1F582E43411F583A5128007BAC0FE
:105A130003C002C001EF25E025E024C4F582E4348D
:105A230011F583E493FD9021FEE090223CF07B008E
:105A33007A2179FFA3A5128007B07A22791E9022DA
:105A430040A5128007B0D001D002D003A51280DE9A
:105A53000A90221DEFF0A51280801B90221DE064A6
:105A6300017031C21190226EF0D212FDFFA5128097
:105A7300B1C69021FDE0FF7A217BFF90222474229E
:105A8300F0A3741EF0D212E4FDFCA512810000A560
:105A93001280801BA210A522902221E0FDD2117F4B
:105AA30001902225EFF0A3EDF0201102C211E49042
:105AB300223DF0FE7F16FD7B007A227927A5128016
:105AC300085F902226E0FF25E025E024C0F582E46C
