:020000040000FA
:10000000021B86080001009600A522A50281383E49
:10001000E4FFFEA54860090FEF70010EA56980F3AB
:02002000A52217
:10002300A502806F69EFB40A09740DA5128000352B
:10003300740A309811A899B8130CC2983098FDA887
:0F00430099C298B811F63099FDC299F599A52286
:10005300A502814EC6202020202020BBB6D3ADB9F7
:10006300E2C1D900202020202020C1E3C7AEB2BBCB
:10007300D7E30020202020D1A1D4F1C9CCC6B7B347
:10008300ACCAB120202020002020C7EBB2E5C8EB8A
:10009300B8FCD0A1C3E6B6EED6BDB1D2002020C7CE
:1000A300EBD1A1BBF5BBF2BCCCD0F8CDB6B1D2211C
:1000B30000C8B7B6A8454E54455220C8A1CFFB434C
:1000C300414E43454C0020202020C7EBC8A1C1E38B
:1000D300C7AE00C8A1CFFB43414E43454C0020208F
:1000E3002020CAE4C8EBB4EDCEF300C8B7B6A845E8
:1000F3004E544552002020C7EBCDB6C8EBD6BDB158
:10010300D2BBF2D3B2B1D200BFCDBBA7D3E0B6EE20
:100113003A00D1A1D4F1C6E4CBFCC9CCC6B7C2F036
:100123003F200020202020BBFAC6F7B9CAD5CF0054
:100133002020C9CCC6B7D2D1CADBCDEA002020200B
:10014300202020D0BBD0BB2100202020202020D481
:10015300DDCDA3B7FECEF10020202020D5D2C1E310
:10016300C6F7B9CAD5CF002020C7EBC9D4BAF22E3F
:100173002E2E00BDF0B6EEB2BBD7E32C20BCD3C706
:10018300AEC2F03F20002020D5FDD4DAB3F6BBF594
:100193002E2E2E002020D5FDD4DAD5D2C1E32E2E6B
:1001A3002E0020202020D5D2C1E3CAA7B0DC002036
:1001B300202020486F772061726520796F752100B8
:1001C300C7EBCAE4C8EBC6E4CBFCC9CCC6B7B1E005
:1001D300BAC5002020C7EBD1A1D4F1C6E4CBFCC93A
:1001E300CCC6B7002020C7EBC8A1BBF52E2E2E002E
:1001F3002020C7EBC8A1D7DFCDCBB1D22E2E2E0046
:100203002020C9CCC6B7BBF5B5C0B9CAD5CF00202D
:1002130020D1A1D4F1C6E4CBFCC9CCC6B7C2F03F10
:1002230000202020202020B2D9D7F7B3ACCAB100D8
:1002330020202020D5FDD4DACDCBBFEE00C7B7BF39
:10024300EE3A0020202020C7EBCDB6C8EBD3B2B1E5
:10025300D20020202020C7EBB2E5C8EBD6BDB1D237
:1002630000B2BBD5D2C1E3A3ACB9BAC2F2C7EBCDDE
:10027300B6B1D2004556373733362D5542204D445B
:10028300422056312E363737002020BBB9D2AAB9C7
:10029300BAC2F2C9CCC6B7C2F03F0020202020204A
:1002A30020CEDEC1E3B1D2002020C9CCC6B7BCDB6F
:1002B300B8F13A002020CBF9D1A1C9CCC6B7D4DD1F
:1002C300CAB100C8B1BBF5002020B9CAD5CF002000
:1002D30020CDCBB1D2BDF0B6EE3A002020B5B1C7E8
:1002E300B0BDF0B6EE3A002020C7EBCBA2BFA82EDC
:1002F3002E2E002020CDB6B1D22D3ED1A1BBF52D9F
:100303003EC8A1BBF52020002020CCF9BFA82D3E7C
:10031300D1A1BBF52D3EC8A1BBF52020002020BFF5
:10032300A8D3E0B6EEB2BBD7E32E2E2E002020B624
:10033300C1BFA8CAA7B0DC2E2E2E002020BFA8D391
:10034300E0B6EE3A002020BDF0B6EEB2BBD7E32E06
:100353002E2E00202020202020CFD6BDF0CFFBB7AB
:10036300D100202020202020CBA2BFA8CFFBB7D1D3
:10037300002020C7EBD1A1BBF521002020B1BEBBDB
:10038300FAD4DDCDA3CFD6BDF0BDBBD2D700564D39
:1003930044455600564D5245430025750025752E9C
:1003A30025750025752E253032750025732025759A
:1003B3000025732025752E25750025732025752EA0
:1003C30025303275002573257500257325752E2577
:1003D3007500257325752E25303275002573256C20
:1003E30075002573256C752E256C75002573256C9A
:1003F300752E2530326C75002000257300C7EBD3B2
:10040300C3C6E4CBFCD6A7B8B6B7BDCABDB9BACE8E
:10041300EF002020005B25303262785D20202573B9
:10042300008000580E8000670E8000761480008BD9
:10043300148000A0138000B4148000C90C8000D67F
:100443000A8000E10C8000EE098000F81280010BA5
:1004530009800115108001260C8001330C800140B6
:100463000B80014C0E80015B0E80016A0B800176CC
:10047300128001890D8001970D8001A50C8001B2C6
:10048300108001C3128001D6108001E70B8001F3B5
:100493000F8002030E800212118002240E800233A9
:1004A3000C800240058002460E8002550E800264D5
:1004B300128002771480028C1180029E0C8002ABA2
:1004C3000B8002B70E8002C6048002CB088002D2E2
:1004D3000B8002DE0B8002EA0B8002F61480030B12
:1004E300148003200F8003300D80033E09800348EE
:1004F3000D8003560E8003650E8003740980037E0E
:10050300128003910580039705312ED6BDB1D2C663
:10051300F7D7B4CCAC3A2000322ED3B2B1D2C6F75F
:10052300D7B4CCAC3A2000332ECEE5BDC7D5D2C16B
:10053300E33A2000342ED2BBD4AAD5D2C1E33A2069
:1005430000352E2333D5D2C1E3C6F7D7B4CCAC3AAA
:100553002000362ECAD6BBFAC4A3BFE9D7B4CCACAD
:10056300B2E2CAD400372EB6CCD0C5B2E2CAD400A8
:10057300382EBBF5B5C0D7B4CCAC00392EBBF5B51E
:10058300C0D7B4CCACBFECCBD9B2E9D1AF003130DA
:100593002E20BBF5B5C0BCECB2E20031312E20BB3E
:1005A300F5B5C0B2E2CAD4BDE1B9FB0031322E20A9
:1005B300D1A1BBF5B0B4C5A5BCECB2E20031332E7A
:1005C30020D3CECFB7B0B4C5A5BCECB2E200313472
:1005D3002E20CDCBB1D2B0B4C5A5BCECB2E2003174
:1005E300352E20B6C1BFA8C6F7B2E2CAD43A20005E
:1005F30031362E20D1B9CBF5BBFAB2E2CAD40031E1
:10060300372E20D5B9CABEB5C6B2E2CAD400D5FDCD
:10061300B3A300B9CAD5CF00CEDE00B2BBD7E30087
:10062300CEB400D5FD00B9CA00C8B100C8B7B6A89A
:10063300454E54455220C8A1CFFB43414E43454C40
:1006430000C0DBBCC6B2E2CAD4B4CECAFD3A202590
:100653007500BBF5B5C02530326275B9CAD5CFB4C4
:10066300CECAFD3A257500D5FDD4DABCECB2E22042
:10067300253032627520BBF5B5C00020202020C78D
:10068300EBC9D4B5C82E2E2E002020BBF5B5C0B0C3
:10069300E53A20B9CAD5CF202020002020BBF5B5EC
:1006A300C025303262753A20B9CAD5CF2020200048
:1006B3002020BBF5B5C025303262753A20CEDEBBB3
:1006C300F5202020002020BBF5B5C0202530326264
:1006D300753A2020D5FDB3A3200020202020D3B2DB
:1006E300B1D2C6F7B2E2CAD400C7EBCDB6B1D23AA3
:1006F300002020B1D2B6B7D2D1C2FA2C20C7EBB4B6
:10070300A6C0ED2100D2D1CDB6C8EBBDF0B6EE3A0E
:1007130020257500D2D1CDB6C8EBBDF0B6EE3A2098
:1007230025752E257500D2D1CDB6C8EBBDF0B6EE3A
:100733003A2025752E25303275002020D3B2B1D250
:10074300C6F7CAC7B7F1D5FDB3A33F00257300D5DC
:10075300B9CABEB5C600D1B9CBF5BBFA0020202576
:1007630073B2E2CAD400312DB4F2BFAA2020322DD5
:10077300B9D8B1D5002573D2D1B4F2BFAAA3ACC7FF
:10078300EBC8B7C8CF002573D2D1B9D8B1D5A3ACC4
:10079300C7EBC8B7C8CF00C7EBB2BBD2AACBE6D270
:1007A300E2B9D8B1D5C9E8B1B8A3A100202020206F
:1007B300D6BDB1D2C6F7B2E2CAD4002020D6BDB1AD
:1007C300D2C6F7CAC7B7F1D5FDB3A33F002020CEE9
:1007D300E5BDC7CDCBB1D2A3ACD2BBB4CEC1BDC3F3
:1007E300B6002020D2BBD4AACDCBB1D2A3ACD2BB0E
:1007F300B4CEC1BDC3B60020202020B0B4C5A5B27D
:10080300E2CAD42100CAE4C8EBB0B4C5A53A00CA11
:10081300E4C8EBB0B4C5A53A2025627500202020BA
:1008230020D3CECFB7B0B4C5A5B2E2CAD42100D38A
:10083300D0BCFCB0B4CFC22C20D4F2C3F9BDD0D20B
:10084300BBC9F90020202020CDCBB1D2B0B4C5A5BF
:10085300B2E2CAD4210025750025752E2575002521
:10086300752E2530327500BBF5B5C0253032627563
:100873003A20257300CEDEB9CAD5CFBBF5B5C0008B
:10088300B9CAD5CFBBF5B5C02530326275B8F6000D
:100893002530326275200080050C0E80051B0E800A
:1008A300052A0C8005370C800544108005551280FD
:1008B30005680A8005730A80057E128005910C8005
:1008C300059E108005AF108005C0108005D11080F3
:1008D30005E2108005F30E8006020E8006110480E7
:1008E30006160480061B0280061E0480062302806F
:1008F3000626028006290280062C028F828E83ED53
:10090300F5F0FFECFEE8FDE58260020583458360B8
:100913000EA548A55CA569A56DD582F5D583F2AB77
:10092300F0ECFAE8F9A522EF8DF0A4A8F0CF8CF053
:10093300A428CE8DF0A42EFEA522BC000CBE002B55
:10094300EF8DF084FFADF0A522E4CCF875F008EF4D
:100953002FFFEE33FEEC33FCEE9DEC984005FCEEEE
:100963009DFE0FD5F0E9E4CEFDA522EDF8F5F0EEFE
:100973008420D21DFEADF075F008EF2FFFED33FD9F
:100983004008985007D5F0F2A522C398FD0FD5F083
:10099300E9A522C2D5EC30E709B2D5E4C39DFDE455
:1009A3009CFCEE30E717B2D5E4C39FFFE49EFEA59F
:1009B3001280093DC3E49DFDE49CFC8005A51280E3
:1009C300093D30D507C3E49FFFE49EFEA522C5F091
:1009D300F8A3E028F0C5F0F8E582158270021583CC
:1009E300E038F0A522A3F8E0C5F025F0F0E5821584
:1009F3008270021583E0C838F0E8A522EF2BFFEEE2
:100A03003AFEED39FDEC38FCA522E88FF0A4CC8B3F
:100A1300F0A42CFCE98EF0A42CFC8AF0EDA42CFCB1
:100A2300EA8EF0A4CDA8F08BF0A42DCC3825F0FDF0
:100A3300E98FF0A42CCD35F0FCEB8EF0A4FEA9F0E9
:100A4300EB8FF0A4CFC5F02ECD39FEE43CFCEAA435
:100A53002DCE35F0FDE43CFCA52275F0087582002F
:100A6300EF2FFFEE33FECD33CDCC33CCC58233C570
:100A7300829BED9AEC99E58298400CF582EE9BFE01
:100A8300ED9AFDEC99FC0FD5F0D6E4CEFBE4CDFA5C
:100A9300E4CCF9A882A522B800C0B9005BBA002E45
:100AA300EC8BF084CFCECDFCE5F0CBF97818EF2FAB
:100AB300FFEE33FEED33FDEC33FCEB33FB10D703DA
:100AC300994004EB99FB0FD8E5E4F9FAA5227818CD
:100AD300EF2FFFEE33FEED33FDEC33FCC933C910CA
:100AE300D7059BE99A4007EC9BFCE99AF90FD8E0FC
:100AF300E4C9FAE4CCFBA52275F010EF2FFFEE3327
:100B0300FEED33FDCC33CCC833C810D7079BEC9A2A
:100B1300E899400AED9BFDEC9AFCE899F80FD5F0B3
:100B2300DAE4CDFBE4CCFAE4C8F9A522EB9FF5F0B7
:100B3300EA9E42F0E99D42F0EC6480C864809845E7
:100B4300F0A522EB9FF5F0EA9E42F0E99D42F0E822
:100B53009C45F0A522E0FCA3E0FDA3E0FEA3E0FF9B
:100B6300A522E493FC740193FD740293FE74039332
:100B7300FFA522E0F8A3E0F9A3E0FAA3E0FBA52296
:100B8300E493F8740193F9740293FA740393FBA545
:100B9300227401FF3395E0FEFDFCA3A3A3E0CF2F56
:100BA300F0E582158270021583E0CE3EF0E58215F2
:100BB3008270021583E0CD3DF0E582158270021547
:100BC30083E0CC3CF0A522ECF0A3EDF0A3EEF0A380
:100BD300EFF0A522A42582F582E5F03583F583A500
:100BE30022E0FBA3E0FAA3E0F9A522EBF0A3EAF0ED
:100BF300A3E9F0A522E493FB740193FA740293F939
:100C0300A522F8D0E0F5834480FBD0E0FAD0E0F9E8
:100C1300A5487012A549700EA56AA549C0E0A5486C
:100C2300C0E0C083A522A54A6860EFA56B80E1F808
:100C3300D0E0F5834480FBD0E0FAD0E0F9A548701A
:100C430012A549700EA56AA549C0E0A548C0E0C039
:100C530083A522A54AB5F005A54B6860EAA568807F
:100C6300DC8F828E83EDFFECFEE8FDE582600205FA
:100C730083458370047F00A522A548F5F0A54CA504
:100C830069A56DB5F006D582F0D583ED7FFFB5F08C
:100C9300030FA52240027F01A522EF4E6019EF60EA
:100CA300010EED89828A838BF0A558A569DFFADEF0
:100CB300F88BF0A982AA83A522F8E0FBA3A3E0F9AD
:100CC30025F0F0E582158270021583E0FA38F0A56D
:100CD30022E5272449F582E43426F583E00527221B
:100CE300902646301A03902649E475F001A5128038
:100CF3000CBCA548222013E77F2ED2138018EF5493
:100D03000F2490D43440D4FF30170BEF24BFB41A10
:100D13000050032461FFE52860021528052BE52B0D
:100D23007002052A301A10902646E475F001A512C8
:100D3300800CBCEFA55822A512800028227403D290
:100D43001A8003E4C21AF527902646A512800BEEFB
:100D5300E4F528F52AF52BE52860097F20A5128004
:100D63000D1980F37529FFC214C213C215C216C22E
:100D730018C219C21B120CE3FF700E301A057F0054
:100D8300120D2AAF2BAE2AA522B4255FC2D5C217F6
:100D9300120CE3FF24D0B40A00501A75F00A782825
:100DA30030D50508B6FF0106C6A426F620D5047083
:100DB30002D21680D924CFB41A00EF5004C2E5D270
:100DC30017020F41D21480C6D21380C0D21580BC43
:100DD300D2D580BAD21880B47F20120D19201507FE
:100DE3007401B5280040F1120CD4FF120D19020D45
:100DF3005AD21BD2198095120CD4FB120CD4FA12BE
:100E03000CD4F94A4B700679147A107B8020153A7A
:100E1300E52860367E00E9C0E02EF9EAC0E0340040
:100E2300FAA548F9D0E0FAD0E0C960060EEE6529CC
:100E330070E4C2D5EBC0E0EAC0E0E9C0E0EE120F17
:100E43008AD0E0F9D0E0FAD0E0FBA548FF609FEB41
:100E5300C0E0EAC0E0E9C0E0120D19D0E02401F9D6
:100E6300D0E03400FAD0E0FBE5290460DDD529DACF
:100E7300020DF17B807A0F7986D2158090791080EC
:100E8300027908C219C21B8008D2D5790A80047975
:100E93000AC2D5E529047002F529E4FAFDFEFF1222
:100EA3000CD4FC7B08201413120CD4FD7B103013DC
:100EB3000A120CD4FE120CD4FF7B20EC3382D592A1
:100EC300D55013C3E43013069FFFE49EFEE42014C1
:100ED300039DFDE49CFCE4CBF8C214EC700CCFCE74
:100EE300CDCCE824F8F870F38017C3EF33FFEE336B
:100EF300FEED33FDEC33FCEB33FB994002FB0FD8E3
:100F0300E9EB301405F8D0E0C448B214C0E00AECB1
:100F13004D4E4F78207B0070C2EAB5290040BCC01B
:100F2300E0120F8CD0F0D0E0201404C4C0E0C4B2AF
:100F330014C0F0120D02D0F0D5F0EB020D5AA51239
:100F4300800C050DFA530E80580DCB4C0DC7420E85
:100F5300844F0E8C440E8C490DE0430E92550E7651
:100F6300460E76450E7647102F500DCF2D0DD32EFE
:100F73000DF62B0DD7230DF420101D2A0D8F4800DD
:100F8300000DEE3F3F3F00790AA2D520161430181A
:100F930009B910020404B9080104A2D520190250AA
:100FA30001042015689215B528005034C0E07F2055
:100FB3003016197F30A21572197218500F120FE3F1
:100FC300C215C219C218C21B7F30800F301803E943
:100FD300C0E0120D19301803D0E0F9D0E0B528CCE9
:100FE3003018177F30B9100C120D197F58301707BE
:100FF3007F788003B90803120D193015057F2D0280
:101003000D197F20201BF87F2B2019F322921580C6
:10101300CF286E756C6C2900D214120CD43014F8DE
:10102300C214782830D50108F6020D8F120CD4C0F3
:10103300E0C4120D02D0E0120D02743A120D0AD26E
:1010430016752804020E80312E2331D5D2C1E3C692
:10105300F7C3E6D6B53A00322E2332D5D2C1E3C662
:10106300F7C3E6D6B53A00332E2333D5D2C1E3C650
:10107300F7C3E6D6B53A00342ED4CAD0EDB6E0B401
:10108300CEB9BAC2F23A00352EB2BBC2F2BBF5CD2D
:10109300CBB1D23A00362EBFAAC6F4D6BDB1D2C662
:1010A300F73A00372EBFAAC6F4CAD6BBFAC4A3BF09
:1010B300E93A00382ED3E0B6EECFC2CFDE3A00399C
:1010C3002ECAD5B1D2C9CFCFDE3A0031302E20D2CD
:1010D300C9CECABDF0B6EE3A0031312E20BBFAC6F6
:1010E300F7B1E0BAC53A200031322E47534DBAC5A5
:1010F300C2EB3A0031332E20C7B7CCF53A00313476
:101103002E20D0A1CAFDB5E33A0031352E2023317C
:10111300D6BDB1D23A0031362E202332D6BDB1D25C
:101123003A0031372E202333D6BDB1D23A003138BD
:101133002E202334D6BDB1D23A0031392E202335A7
:10114300D6BDB1D23A0032302E202336D6BDB1D22D
:101153003A0032312E202337D6BDB1D23A00323293
:101163002E202338D6BDB1D23A0032332E2023317C
:10117300D3B2B1D23A0032342E202332D3B2B1D219
:101183003A0032352E202333D3B2B1D23A0032366D
:101193002E202334D3B2B1D23A0032372E20233556
:1011A300D3B2B1D23A0032382E202336D3B2B1D2E1
:1011B3003A0032392E20BFAAC6F4B3F6BBF5C8B73E
:1011C300C8CF3A0033302E20BDBBD2D7CAB1BCE45E
:1011D3003A0033312E20B2BBD5D2C1E3C4A3CABD7A
:1011E3003A0033322E20BFAAC6F4D3B2B1D2C6F727
:1011F3003A0033332E20BFAAC6F4B9ABBDBBBFA898
:101203003A0033342E20B6C1BFA8CAB1BCE43A00B9
:1012130033352E20D4DDB4E6D6BDB1D2C4A3CABDC6
:101223003A0033362E20CEE5D4AAD6BDB1D2D4DDD2
:10123300B4E63A0033372E20CAAED4AAD6BDB1D213
:10124300D4DDB4E63A0033382E20BFAAC6F44143B6
:101253004443C4A3BFE93A0025750025752E2575BF
:101263000025752E25303275002562750025326202
:10127300780025303262780080104A0F80105A0FB0
:1012830080106A0F80107A0F80108A0D8010980DDD
:101293008010A60F8010B60B8010C20B8010CE0DED
:1012A3008010DC0D8010EB0B8010F7098011010B0F
:1012B30080110D0B8011190B8011250B8011310B3F
:1012C30080113D0B8011490B8011550B8011610B6F
:1012D30080116D0B8011790B8011850B8011910B9F
:1012E30080119D0B8011A90B8011B5118011C70DC1
:1012F3008011D50F8011E50F8011F50F8012050DB8
:101303008012131180122511801237118012491196
:1013130000050005000500010001000100010005B2
:10132300000500050005001000010001000500058F
:101333000005000500050005000500050005000582
:10134300000500050005000500010005000100017E
:1013530000010002000100010001000141018500BC
:101363004213C90000410207014113CB00420601A9
:10137300000041000200C120C121C19DC122C19FC3
:10138300C11E4100000041000100412E2700412EF3
:101393001F00412E2000412E2100C125412E260190
:1013A300412E2500411C9D00412DE800412DE900FF
:1013B300412DEA00C100412DEC00412DED00412DEE
:1013C300EE00412DEF00412DF000412DF100C1034E
:1013D300C104C105C106C107C108C109C10AC10BC6
:1013E300C10CC10DC10E412DF200462D750800013F
:1013F300009600412DBB00C129011500412E280094
:10140300411CE200411CDE00411CE601411CE001DD
:10141300C123C124411CE400620026F800008005BA
:10142300800F000A801B001E0014801180330036D9
:10143300003C80390028802D8027002280630066CD
:10144300006C80690078807D807700720050805541
:10145300805F005A804B004E0044804180C300C629
:1014630000CC80C900D880DD80D700D200F080F5A1
:1014730080FF00FA80EB00EE00E480E100A080A58D
:1014830080AF00AA80BB00BE00B480B180930096F9
:10149300009C80990088808D8087008281830186EB
:1014A300018C81890198819D8197019201B081B559
:1014B30081BF01BA81AB01AE01A481A101E081E545
:1014C30081EF01EA81FB01FE01F481F181D301D6B1
:1014D30001DC81D901C881CD81C701C201408145A9
:1014E300814F014A815B015E015481518173017611
:1014F300017C81790168816D816701628123012605
:10150300012C81290138813D813701320110811578
:10151300811F011A810B010E01048101830303065C
:10152300030C83090318831D8317031203308335C8
:10153300833F033A832B032E0324832103608365B4
:10154300836F036A837B037E037483718353035620
:10155300035C83590348834D8347034203C083C518
:1015630083CF03CA83DB03DE03D483D183F303F680
:1015730003FC83F903E883ED83E703E283A303A674
:1015830003AC83A903B883BD83B703B203908395E8
:10159300839F039A838B038E0384838102808285D6
:1015A300828F028A829B029E0294829182B302B648
:1015B30002BC82B902A882AD82A702A282E302E63C
:1015C30002EC82E902F882FD82F702F202D082D5B0
:1015D30082DF02DA82CB02CE02C482C18243024698
:1015E300024C82490258825D825702520270827510
:1015F300827F027A826B026E0264826102208225FC
:10160300822F022A823B023E023482318213021667
:10161300021C82190208820D8207020200CFB5CD97
:10162300B3D5FDD4DAC6F4B6AF2C20C7EBC9D4B515
:10163300C800D5FDD4DAB8FCB8C4C9CCC6B7D3E06A
:10164300C1BF2E2E2E00C9CCC6B7D3E0C1BFB8FC94
:10165300B8C4CAA7B0DC2100C9CCC6B7D3E0C1BFA8
:10166300B8FCB8C4B3C9B9A6210020202020C4E324
:10167300C8B7B6A8B8FCB8C4C2F03F00C8B7B6A88C
:10168300454E54455220C8A1CFFB43414E43454CE0
:1016930000D5FDD4DAB8FCB8C4C9CCC6B7BCDBB836
:1016A300F12E2E2E00C9CCC6B7BCDBB8F1B8FCB8FE
:1016B300C4CAA7B0DC2100C9CCC6B7BCDBB8F1B83B
:1016C300FCB8C4B3C9B9A6210020202020C4E3C8B4
:1016D300B7B6A8CCEDC2FAC2F03F00D5FDD4DACC40
:1016E300EDC2FA2E2E2E00CCEDC2FAB2D9D7F7CA2C
:1016F300A7B0DC2100CCEDC2FAB2D9D7F7B3C9B990
:10170300A62100CAE4C8EBB2E3BCDCB1E0BAC53A37
:1017130000B1E0BAC5CAE4C8EBB4EDCEF300C7EB41
:10172300CAE4C8EBC6E4CBFCB1E0BAC500C4E3C865
:10173300B7B6A8CCEDC2FAB4CBB2E3BCDCC2F03F7F
:1017430000D5FDD4DACCEDC2FAB5B1C7B0B2E3BC73
:10175300DC2E2E2E00B2E3BCDCCCEDC2FAB2D9D71C
:10176300F7CAA7B0DC2100B2E3BCDCCCEDC2FAB20D
:10177300D9D7F7B3C9B9A62100257300B2B9D3B23B
:10178300B1D200C8A1D6BDB1D2002020C4E3C8B7EE
:10179300B6A82573C2F03F002020D5FDD4DA257307
:1017A300002573CAA7B0DC21002573B3C9B9A621EC
:1017B3000020202020C4E3C8B7B6A8CDACB2BDC278
:1017C300F03F00D5FDD4DACDACB2BD2C20C7EBC9B8
:1017D300D4B5C82E2E2E00CDACB2BDB2D9D7F7B337
:1017E300C9B9A621002020C4E3C8B7B6A8C7E5B588
:1017F300E3C2F03F00D5FDD4DAC7E5B5E32C20C73B
:10180300EBC9D4B5C82E2E2E00C7E5B5E3CDEAB19A
:10181300CFA3ACC7EBBACBB6D42100C7E5B5E3BDC4
:10182300F0B6EE3A20257500C7E5B5E3BDF0B6EE98
:101833003A2025752E257500C7E5B5E3BDF0B6EE54
:101843003A2025752E2530327500312EBBF5B5C0F3
:10185300B2CECAFD00322EBBF5B5C0D7B4CCACBFF7
:10186300ECCBD9B2E9D1AF00332EBCD3C2FAC8ABAB
:10187300B2BFBBF5B5C000342EB2B9D3B2B1D2CD2D
:10188300EAB3C900352EC8ABCFB5CDB3CDACB2BD2D
:1018930000362EBCD3C2FAB2E3BCDCBBF5B5C00044
:1018A300372EC8A1D6BDB1D2CDEAB3C900382EC9EF
:1018B300E8B1B8B9DCC0ED00392ECFB5CDB3B2CEA7
:1018C300CAFD0031302E20BBF5BCDCC5E4D6C30015
:1018D30031312E20B3F6B3A7C4ACC8CFC5E4D6C309
:1018E3000031322E20B4D3BBFACCEDBBF50031333B
:1018F3002E20BBF5B5C0BCECB2E20031342E20BDC6
:10190300BBD2D7BCC7C2BC002020C8B7B6A8B3F6A9
:10191300B3A7C5E4D6C3C2F03F00C8B7B6A8454EC7
:1019230054455220C8A1CFFB43414E43454C0030A0
:10193300002020D5FDD4DAB1A3B4E6002000B1A382
:10194300B4E6CAA7B0DCA3ACD6D8D0C2C9E8D6C324
:101953003F002020454E54455220202043414E4312
:10196300454C0080184D0A8018581280186B0E8061
:10197300187A0C8018870C8018940E8018A30C809A
:1019830018B00C8018BB0C8018C60C8018D31080BC
:1019930018E40C8018F10C8018FE0C312EB2E3BC55
:1019A300DCB1E0BAC53A00322ECAC7B7F1C6F4D3E8
:1019B300C33A00332ED7EEB4F3B4E6BBF5C1BF3A56
:1019C30000342EB5DAD2BBBBF5B5C03A00352EB51F
:1019D300DAB6FEBBF5B5C03A00362EB5DAC8FDBBA4
:1019E300F5B5C03A00372EB5DACBC4BBF5B5C03A6E
:1019F30000382EB5DACEE5BBF5B5C03A00392EB5C1
:101A0300DAC1F9BBF5B5C03A0031302E20B5DAC6DC
:101A1300DFBBF5B5C03A0031312E20B5DAB0CBBB10
:101A2300F5B5C03A00C7EBCAE4C8EBC3DCC2EB3A76
:101A330000C3DCC2EBB4EDCEF321002562750020B8
:101A430020200020002020202000CAE4C8EBB2E3BD
:101A5300BCDCB1E0BAC53A00B1E0BAC5CAE4C8EB30
:101A6300B4EDCEF300C7EBCAE4C8EBC6E4CBFCB1DC
:101A7300E0BAC50080199E0B8019AA0B8019B60D18
:101A83008019C40B8019D00B8019DC0B8019E80B6B
:101A93008019F40B801A000B801A0C0D801A1A0D92
:101AA300801A280B801A340900010001000200018A
:101AB30000010001000100010001000100012020DC
:101AC300C4E3C8B7B6A8C2F03F00C8B7B6A8454E2E
:101AD30054455220C8A1CFFB43414E43454C0020FF
:101AE30020C3BBD3D0BDBBD2D7BCC7C2BC00D6BDFD
:101AF300CAD53A00CFD6D6BDCAD53A003159CAD5D0
:101B03003A00CFD63159CAD53A00354ACAD53A0038
:101B1300CFD6354ACAD53A003159D5D23A00CFD6B5
:101B23003159D5D23A00354AD5D23A00CFD6354AC3
:101B3300D5D23A0025303575202573256C752E25B1
:101B430030326C7500256C752E2530326C75008033
:101B53001AC10B801ACD14801AE20E801AF1068086
:101B63001AF708801AFF06801B0508801B0D0680E4
:101B73001B1308801B1B06801B2108801B29068062
:101B83001B2F08A575FF07758E0378FEE4F6D8FDB5
:101B9300758187A575FB00759008A502801BCDA5EF
:101BA3000280A09FE493A3F85407240CC8C333C452
:101BB300540F4420C8834004F456800146F6DFE402
:101BC300800B010204081020408090135FE47E0123
:101BD3009360CCA3FF543F30E509541FFEE493A365
:101BE30060010ECF54E0B4E01CE493FBA3E493FA4A
:101BF300A3E493F9A3E493A558A309E970010ADFC9
:101C0300F4DEF280C854C025E060254097E493A336
:101C1300FAE493A3F8E493A3C8C582C8CAC583CAE8
:101C2300F0A3C8C582C8CAC583CADFE9DEE7809DC1
:101C3300E493A3F8E493A34003F68001F208DFF4EE
:101C4300808B312EBBF5B5C0B1E0BAC53A20003266
:101C53002EC9CCC6B7D3E0C1BF3A2000332EB5A5F9
:101C6300BCDB3A2000342EBBF5B5C0D7B4CCAC3ABC
:101C73002000352EC9CCC6B7B1E0BAC53A2000253D
:101C83003032627500253362750025750025752E87
:101C930025750025752E25303275002562750025C2
:101CA30032627500BBF5B5C02530326275D3E0C131
:101CB300BFA3BA00801C450C801C520C801C5F081B
:101CC300801C680C801C750C200020202020202004
:101CD300202020202020202020202020202000C77A
:101CE300EBCAE4C8EBB1E0BAC53A2000B1E0BAC52B
:101CF300CAE4C8EBB4EDCEF300C7EBCAE4C8EBC645
:101D0300E4CBFCB1E0BAC500202020202020202015
:101D130020202020202020202020202000C2D5E8C1
:101D230030E70FB2D5E4C39BFBE49AFAE499F9E4F4
:101D330098F8EC30E71BB2D5A512801D5CA5128084
:101D43000A9AE4C39BFBE49AFAE499F9E498F880CD
:101D530005A512800A9A30D50DE4C39FFFE49EFEC9
:101D6300E49DFDE49CFCA522474232333132005707
:101D7300494E31323532000D519610526405050536
:101D8300050505050504040404080807FF0101010E
:101D9300010101010102020202030306FF50505038
:101DA30050505050501B1B1B1B0D0D18FF090909E8
:101DB30009090909092E2E2E2E000048FF000000F4
:101DC300010000000A00000064000003E80000278F
:101DD30010000186A0000F42400098968005F5E1AF
:101DE3000008000100960000000000000000000051
:101DF30000000000000001000000000200030408CE
:101E03000001009600080001009600A512815541CB
:101E13009013C9E0FEA3E0FF90261CEEF0A3EFF0C1
:101E2300E4A3F0A3F0A3F09005E2E0B4011390055E
:101E3300E0E0FEA3E0FF90261CEE8FF0A5128009E0
:101E4300D1D390261DE0940090261CE09400500509
:101E53007F0002212D9013CB742CF07E007F147D24
:101E6300007B007A0579EDA512800C9D9013CBE0E1
:101E7300FF25E025E02427F582E43404F583E49389
:101E830090261EF0FD7C00C004C005EF25E025E090
:101E93002424F582E43404F583A512800BF878ED4D
:101EA3007C057D00D007D006A5128008FE90261E73
:101EB300E0FF24EDF582E43405F5837420F090030C
:101EC300B3E0FCA3E0FDEC6003021FD9ED24F66050
:101ED3003D24A67003021F6D24636003021FD9749F
:101EE300EE2FF9E43405FA7B00C003C002C0017B86
:101EF300807A03799D902649A512800BEE90261CCB
:101F0300E0FFA3E090264CCFF0A3EF021FC790267B
:101F13001EE024EEF9E43405FA7B00C003C002C0DE
:101F2300017B807A0379A0902649A512800BEE905D
:101F330003B3E0FAA3E0FB90261CE0FEA3E0FFADB1
:101F430003AC02A51280093D90264CEEF0A3EFF0FE
:101F530090261CE0FEA3E0FFAD03AC02A5128009AE
:101F63003D90264EECF0A3ED805A90261EE024EE21
:101F7300F9E43405FA7B00C003C002C0017B807A18
:101F83000379A6902649A512800BEE9003B3E0FADD
:101F9300A3E0FB90261CE0FEA3E0FFAD03AC02A58B
:101FA3001280093D90264CEEF0A3EFF090261CE042
:101FB300FEA3E0FFAD03AC02A51280093D90264EBF
:101FC300ECF0A3EDF0D001D002D003A512800D40B8
:101FD30090261EE02FF090261EE004F0D2137B0023
:101FE3007A0579ED902648A512800BEE90261EE027
:101FF300A5128076A7900376E0FEA3E0FFC39026A8
:102003001DE09F90261CE09E40509013CB7436F049
:10201300D213E0FF25E025E02424F582E43404F51F
:1020230083A512800BF8902648A512800BEEEF25AE
:10203300E025E02427F582E43404F583E493902635
:102043004BF07D01E4FFA5128076AE9005E2E064DB
:10205300017048A5128077AB80419013CB7404F0D4
:10206300D213E0FF25E025E02424F582E43404F5CF
:1020730083A512800BF8902648A512800BEEEF255E
:10208300E025E02427F582E43404F583E4939026E5
:102093004BF07D01E4FFA5128076AEE47F64FEFD84
:1020A300FC90267C7417F0A3741DF0A5128090E0B9
:1020B3009016AFE0B4011A9016B1E0FCA3E0FDE482
:1020C300FFA51280C5FAE49016AFF09016B1F0A305
:1020D300F09016B0E0B4011A9016B3E0FCA3E0FD53
:1020E3007F01A51280C5FAE49016B0F09016B3F004
:1020F300A3F09016B5E0B4011A9016B7E0FCA3E084
:10210300FD7F64A51280C5FAE49016B5F09016B76A
:10211300F0A3F09016B6E0B4010EA51280C5F2E468
:102123009016B6F0A3F0A3F07F00A522E49023F16C
:10213300F0FE7F57FD7B007A03796BA512800C9D1F
:102143007E037F4B7D007B007A1379CDA512800C33
:102153009D7E037FDE7D007B007A0F79DBA51280F5
:102163000C9D9015FC7401F0A3F07E027F297D0085
:102173007B007A0379C2A512800C9D9005CA740175
:10218300F07E037F137D007B007A0C796DA51280AE
:102193000C9DE47F64A5128090D77E007F887D002C
:1021A3007B007A0279E2A512800C9DD211E490267D
:1021B30048F0D212FDFFA51280978ED211E490262B
:1021C30048F0D212FD7F01A51280978ED21390049E
:1021D300B4A512800BF8902648A512800BEE90044C
:1021E300B7A5128076A5D21390046CA512800BF8C4
:1021F300902648A512800BEE90046FE49390264B33
:10220300F07D01E4FFA5128076AEE47F64A5128021
:1022130090D77F00A522A512807F5AE49023F2F085
:10222300A3F0A3F0A3F0A3F0A3F0A3F0A3F0A3F013
:10223300A3F0A3A512816C799023F5EFF0640160FC
:1022430003022365900355E0FF25E024A4F582E40F
:102253003403F583E0FDA3E09023F2CDF0A3EDF08A
:10226300EF703B900356E0FF7E0090035AEEF0A31D
:10227300EFF0900355E025E024A4F582E43403F560
:1022830083E0FCA3E0FDA51280092A90035EEEF033
:10229300A3EFF0900361E02FFF900360803E900373
:1022A30055E0B40140A3E0FF7E0090035CEEF0A391
:1022B300EFF0900355E025E024A4F582E43403F520
:1022C30083E0FCA3E0FDA51280092A900360EEF0F1
:1022D300A3EFF090035FE02FFF90035EE03E9003D7
:1022E30062F0A3EFF09023F77401F09023F4F090E1
:1022F30023F2E0FEA3E0FF9013C9EE8FF0A5128056
:1023030009D1900F81A512800B76E4FCFDA5128004
:1023130009FF900F81A512800BCA900F85A512802B
:102323000B769023F2E0FEA3E0FFE4FCFDA5128010
:1023330009FF900F85A512800BCA9016AF7401F0A8
:102343009023F2E0FEA3E0FF9016B1EE8FF0A5120A
:102353008009D19003B8E0FFA3E09015DACFF0A392
:10236300EFF09023F7E06401600302242990035502
:10237300E025E024A4F582E43403F583E0FEA3E042
:10238300FF9003A4E0FCA3E0FDEFB5052DEEB5043B
:1023930029900FA7A512800B76900355E025E02422
:1023A300A4F582E43403F583E0FEA3E0FFE4FCFD3F
:1023B300A5128009FF900FA7804B900355E025E0FD
:1023C30024A4F582E43403F583E0FEA3E0FF900345
:1023D300A6E0FCA3E0FDEFB50530EEB5042C900FAD
:1023E300B1A512800B76900355E025E024A4F58275
:1023F300E43403F583E0FEA3E0FFE4FCFDA51280D3
:1024030009FF900FB1A512800BCA7E007F247D00C7
:102413007B007A03792EA512800C9DE4900353F080
:10242300900355F0A3F0900372E064016003022768
:10243300399005CAE064016003022723A51281686D
:10244300549023F5EFF0640160030227399005D916
:10245300E054FEF09005DFE04401F0900360E0FEFD
:10246300A3E0FF90035FE02FFF90035EE03EFE904A
:102473000376E0FCA3E0FDD39FEC9E9023FA500A81
:10248300ECF0A3EDF0E4A3F08009EEF0A3EFF0A3EA
:102493007401F0900354E025E02494F582E43403BE
:1024A300F583E0FEA3E0FF9013CAE02FFF9013C96A
:1024B300E03EFEC39023FBE09F9023FAE09E40039F
:1024C30002254CE4FFA512809AC39023F5EFF09008
:1024D30005DFE054FEF09023FCE09013CB70107402
:1024E30003A5128076787F02A512809459804874E0
:1024F30001A5128076789013CB7403F0D213E0FF1A
:1025030025E025E02424F582E43404F583A5128034
:102513000BF8902648A512800BEEEF25E025E0246A
:1025230027F582E43404F583E49390264BF07D0190
:10253300E4FFA5128076AEE47FDC7E05A5128090D1
:10254300D8A512801E13022739E49023F6F09003D6
:10255300BDE064017065900354E0FF25E02494F529
:1025630082E43403F583E0FCA3E064644C604C90A4
:1025730003BEE07019EF25E02494F582E43403F5FB
:1025830083E0FEA3E064F47003EE64016020900333
:10259300BFE07021900354E025E02494F582E434F5
:1025A30003F583E0FEA3E0FFBE030ABFE807E49060
:1025B30023F6F080069023F67401F09023F6E06092
:1025C300559005E27401F0900354E025E02494F55E
:1025D30082E43403F583E0FEA3E0FF9005E0EEF030
:1025E300A3EFF09016B57401F09016B7EEF0A3EFD9
:1025F300F0A512801E0E9003B8E0FFA3E09015DA59
:10260300CFF0A3EFF09023F47401F09005E9F0A369
:102613007468F00227399005D9E054FBF09005DF88
:10262300E054FEF07F01A512809AC39023F5EFF0EA
:1026330060030227399015DEF0A37403F09015DED2
:10264300E07002A3E07003022739A51280C67990D7
:1026530023F5EFF06401600302271B900354E02588
:10266300E02494F582E43403F583E0FFA3E09023B0
:10267300F8CFF0A3EFF09023F8E0FEA3E0FF901370
:10268300C9EE8FF0A5128009D1900F81A512800B9E
:1026930076E4FCFDA5128009FF900F81A512800B43
:1026A300CA900F9DA512800B769023F8E0FEA3E05D
:1026B300FFE4FCFDA5128009FF900F9DA512800B7E
:1026C300CA9016B07401F09023F8E0FEA3E0FF90E7
:1026D30016B3EE8FF0A5128009D19003B8E0FFA3E3
:1026E300E09015DACFF0A3EFF09005E97401F0A3C1
:1026F3007468F07E007F247D007B007A03790AA54D
:1027030012800C9DE4900352F0900354F090035711
:10271300F09023F404F0801EA5128070C8022640B6
:10272300A512814594EF60069023F47401F0E47FD1
:102733000AA5128090D79023F4E0704A9015F0E038
:1027430030E03F54FEF09005E2E0B401209005E054
:10275300E0FCA3E0FD9013C9E0FEA3E0FF2DFDEE36
:102763003CFCC3ED9401EC9400401780109013C916
:10277300E0FEA3E0FFC39401EE94004005A51280A0
:102783001E1B7F0080027F01A522E49023F1F0A3AA
:10279300F0A3F0A3F0FE7F14FD7B007A0579EDA58D
:1027A30012800C9D9015FFE0FF75F037900FE0A5A8
:1027B30012800BD7E0D39400401875F037EF9010D8
:1027C30011A512800BD7E0FFF460199013CCEFF042
:1027D30080129015FFE075F037901011A512800B51
:1027E300D774FFF09015FFE075F037901011A51224
:1027F300800BD7E0F47002802D9013CCE075F006C7
:10280300900008A512800BD7E0700280199013CCBA
:10281300E075F006900005A512800BD7E0FF540A7F
:102823007004EF20E0419013CB740EA512807678EC
:102833009013CB7419F0D213E0FF25E025E0242494
:10284300F582E43404F583A512800BF8902648A59D
:1028530012800BEEEF25E025E02427F582E4340413
:10286300F583E493022BC79013CB7427F09003B343
:10287300E0FEA3E0FFEE60030229CFEF24F66057EA
:1028830024A6700302294D246360030229CF7B80B1
:102893007A0379AE902649A512800BEE9013CBE014
:1028A30025E025E02424F582E43404F583A5128091
:1028B3000BF890264CA512800BEE9013CCE075F02C
:1028C30006900006A512800BD7E0FFA3E090264FE9
:1028D300CFF0A3EF0229BE7B807A0379B490264917
:1028E300A512800BEE9013CBE025E025E02424F520
:1028F30082E43404F583A512800BF890264CA512CC
:10290300800BEE9013CCE075F006900006A51280C4
:102913000BD7E0FAA3E0FB9003B3E0FCA3E0FDAF29
:1029230003AE02A51280093D90264FEEF0A3EFF00F
:102933009003B3E0FCA3E0FDAF03AE02A512800950
:102943003D902651ECF0A3ED80717B807A0379BD35
:10295300902649A512800BEE9013CBE025E025E0ED
:102963002424F582E43404F583A512800BF8902621
:102973004CA512800BEE9013CCE075F00690000688
:10298300A512800BD7E0FAA3E0FB9003B3E0FCA30E
:10299300E0FDAF03AE02A51280093D90264FEEF095
:1029A300A3EFF09003B3E0FCA3E0FDAF03AE02A5F9
:1029B3001280093D902651ECF0A3EDF07B007A05DF
:1029C30079EDA512800D409023F1EFF0A5128094CC
:1029D300A7C21EE4902E10F09017187406F090030F
:1029E300BBE064016003022B419013C6E054FB601B
:1029F30003022B419013CCE075F006900006A5125C
:102A0300800BD7E0FEA3E0D39400EE9400500302C2
:102A13002B41D2137B007A0579ED902648A51280CD
:102A23000BEE9023F1E090264BF07D01E4FFA5121D
:102A33008076AE9023F3742DA5128076789003BC34
:102A4300E0FF7E007C037DE8A51280092AE4FCFDFB
:102A5300A5128090DA900F9BE475F001A51280090E
:102A6300D19013CCE075F006900006A512800BD729
:102A7300E0FEA3E0FF900F9BE0FCA3E0FDA5128125
:102A83006DF49023F4EFF07079900E7AE064A07007
:102A930045A51280A4D1A51281604F9013CCE07597
:102AA300F006900006A512800BD7E0FCA3E0FD7FA3
:102AB30002A51280C5FA9013CCE075F006900006CB
:102AC300A512800BD7E0FFA3E09013C9CFF0A3EFCB
:102AD300F07F01022BF6900E7AE064A17007901349
:102AE300CB74308022900E7AE0FF64A5600DEF6412
:102AF300A66008EF64A76003022BBF9013CB743169
:102B030080059013CB7431F0D213E0FF25E025E06C
:102B13002424F582E43404F583A512800BF890266F
:102B230048A512800BEEEF25E025E02427F582E48B
:102B33003404F583E49390264BF0E4FD806E900219
:102B430007E06401604B901717E064017043901332
:102B5300CCE075F006900006A512800BD7E0FEA32B
:102B6300E0D39400EE94004028D2137B007A0579D9
:102B7300ED902648A512800BEE9023F1E090264BB2
:102B8300F07D01E4FFA5128076AEE47F887E13809A
:102B930026D2137B007A0579ED902648A512800B87
:102BA300EE9023F1E090264BF07D01E4FFA5128027
:102BB30076AEE47FD07E07A5128090D8E49013CC44
:102BC300F0FF802F90264BF07D01E4FFA512807665
:102BD300AEE47FD07E07A5128090D8A5128094A77B
:102BE300C21EE4902E10F09013CCF09017187406C8
:102BF300F07F00A522E49023F1F0900601E070023B
:102C0300A3E0700590020704F0900207E0640160FE
:102C130003022D0B9015EDE064016003022CB9C390
:102C23009015ECE094F49015EBE094015003022C22
:102C3300B9E4F0A3F09003BBE0640170479013C6BE
:102C4300E054FB703F9013CB7435A512807678A5C2
:102C5300128090D49013CB742FA512809098A51254
:102C630080FFF0EF64016003022D2CD2139013CB8D
:102C7300A51280909BA51280FFF0EF640160030210
:102C83002D2C80769013CB7434A512807678A51200
:102C9300809082A51280FFF0EF64016003022D2C67
:102CA300D2139013CBA51280909BA51280FFF0EF57
:102CB3006401707580449015EDE06401706BC390FE
:102CC30015ECE094FA9015EBE09400405C9013CB84
:102CD3007434A512807678A512809082A51280FFA5
:102CE300F0EF64017043D2139013CBA51280909B35
:102CF300A51280FFF0EF6401702F900601E04402FB
:102D0300F0A3E0F07F01803A900207E064016019CC
:102D1300901717E0640160119013CB7410A5128013
:102D230076787F02A512809459901718E004F0A5D5
:102D33001280221EBF01047F028007A5128090D457
:102D43007F01A522E49023F1F0A3F0A3F0A3F0A365
:102D5300F0A3F0A3F0A3F09023F1F0A3F09005CA41
:102D6300E064016016D39013CAE094009013C9E0A5
:102D7300940040077F01A51280B787302007A51272
:102D830080A030C220301E1CD211E4902648F0D21D
:102D9300127D01FFA51280978EC21EE4902E10F0C3
:102DA3009013CCF0900372E064016003022F029051
:102DB30005CAE064017003022F02A512814594EF56
:102DC3007003022F02A5128145A69023F1EEF0A312
:102DD300EFF04E7008A512808FE0022EFA9023F1D7
:102DE300E0FEA3E0FF9013CAE02FFF9013C9E03E7B
:102DF300FEC3900377E09F900376E09E50349013D8
:102E0300CB7403A5128076787F02A512809459E4CF
:102E13007FDC7E05A5128090D8A512808FE09013E9
:102E2300C9E0FCA3E0FD4C70028050AF05AE040284
:102E33002F7CA512814563902E1C740AF0902E1CE2
:102E4300E0600FA51281459DEF7007A512807F5F9B
:102E530080EB902E1CE0702CA512808FE09023F164
:102E6300E0FFA3E0900378CFF0A3EFF0A51280CBAF
:102E73005C9013C9E07002A3E0707C901718F07F98
:102E830002022F839023F1E0FEA3E0FF9013C9EE2B
:102E93008FF0A5128009D1900F81A512800B76E4E3
:102EA300FCFDA5128009FF900F81A512800BCA902B
:102EB3000F9DA512800B769023F1E0FEA3E0FFE4C3
:102EC300FCFDA5128009FF900F9DA512800BCA90EF
:102ED30016B07401F09023F1E0FEA3E0FF9016B367
:102EE300EE8FF0A5128009D19003B8E0FFA3E09024
:102EF30015DACFF0A3EFF0E47F14A5128090D7E4A6
:102F03009023F7F09023F5F0A3F0900376E0FEA36F
:102F1300E0FFC39013CAE09F9013C9E09E4052A5FF
:102F2300128097F5A512801E13A5128155419003B7
:102F330072E06401702D9005CAE064016025902E53
:102F43001C7401F0902E1CE06019A512814594EFCA
:102F53006007A512808FE0800AE47F0AA5128090A3
:102F6300D780E1E47FF47E01A5128090D87F0180B1
:102F73000F9013C9E0FEA3E0FFA512801E1B7F0084
:102F8300A5229015FFE0FF75F037900FE0A51280A2
:102F93000BD7E0D39400402275F037EF901011A5C2
:102FA30012800BD7E0FFF460239015FFE0FE90132F
:102FB300CCEFF0900206EEF080129015FFE075F072
:102FC30037901011A512800BD774FFF09015FFE016
:102FD30075F037901011A512800BD7E0F4700280C2
:102FE300129013CCE075F006900008A512800BD761
:102FF300E070669013CB740EA5128076789013CB95
:103003007419F0D213E0FF25E025E02424F582E4CF
:103013003404F583A512800BF8902648A512800B83
:10302300EEEF25E025E02427F582E43404F583E47C
:103033009390264BF07D01E4FFA5128076AEE47FEA
:10304300D07E07A5128090D8E49013CCF09015F0B1
:10305300E04401F07F020230FB9013CCE075F006F0
:10306300900005A512800BD7E030E004540A606796
:103073009013CB740EA5128076789013CB7419F04D
:10308300D213E0FF25E025E02424F582E43404F59F
:1030930083A512800BF8902648A512800BEEEF252E
:1030A300E025E02427F582E43404F583E4939026B5
:1030B3004BF07D01E4FFA5128076AEE47FD07E075E
:1030C300A5128090D8E49013CCF09015F0E0440161
:1030D300F0E49013CC801A9013CCE075F0069000C6
:1030E30006A512800BD7E0FEA3E04E70099013CC27
:1030F300F0F07F0180027F00A522E49023F1F0A38A
:10310300F0A3F0A3F0A3F09005E2E0B4011690055C
:10311300E0E0FEA3E0FF9013CAE02FFF9013C9E0A5
:103123003EFE80089013C9E0FEA3E0FF9013CCE0BD
:1031330075F006900006A512800BD7E0FCA3E0D340
:103143009FEC9E50030232F69013CB7433A512808A
:1031530076789013CB7427F09003B3E0FEA3E0FFDF
:10316300EE60030232BAEF24F6605724A67003021E
:103173003238246360030232BA7B807A0379AE90DB
:103183002649A512800BEE9013CBE025E025E02421
:1031930024F582E43404F583A512800BF890264CC1
:1031A300A512800BEE9013CCE075F006900006A5F7
:1031B30012800BD7E0FFA3E090264FCFF0A3EF02DE
:1031C30032A97B807A0379B4902649A512800BEE4D
:1031D3009013CBE025E025E02424F582E43404F5C4
:1031E30083A512800BF890264CA512800BEE90134A
:1031F300CCE075F006900006A512800BD7E0FAA389
:10320300E0FB9003B3E0FCA3E0FDAF03AE02A51225
:1032130080093D90264FEEF0A3EFF09003B3E0FC5E
:10322300A3E0FDAF03AE02A51280093D902651EC49
:10323300F0A3ED80717B807A0379BD902649A512B6
:10324300800BEE9013CBE025E025E02424F582E407
:103253003404F583A512800BF890264CA512800B3D
:10326300EE9013CCE075F006900006A512800BD704
:10327300E0FAA3E0FB9003B3E0FCA3E0FDAF03AEF1
:1032830002A51280093D90264FEEF0A3EFF09003C4
:10329300B3E0FCA3E0FDAF03AE02A51280093D90AD
:1032A3002651ECF0A3EDF07B007A0579EDA51280B1
:1032B3000D409023F1EFF0D2137B007A0579ED9066
:1032C3002648A512800BEE9023F1E090264BF07D6B
:1032D30001E4FFA5128076AEE47FDC7E05A51280B3
:1032E30090D8E49013CCF09015F0E04401F07F0106
:1032F3000234E19005E2E0640160030234D77F0108
:10330300A512809AC39023F4EFF0600302348190F6
:1033130015DEF0A37403F09015DEE07002A3E070F5
:103323000302341FA51280C6799023F5EFF06401E0
:1033330060030234179005E0E0FFA3E09023F2CF8F
:10334300F0A3EFF09023F2E0FEA3E0FF9013C9EEA9
:103353008FF0A5128009D1900F81A512800B76E41E
:10336300FCFDA5128009FF900F81A512800BCA9066
:103373000F9DA512800B769023F2E0FEA3E0FFE4FD
:10338300FCFDA5128009FF900F9DA512800BCA902A
:1033930016B07401F09023F2E0FEA3E0FF9016B3A1
:1033A300EE8FF0A5128009D17E007F247D007B0083
:1033B3007A03790AA512800C9DE4900352F09003DE
:1033C30054F0900357F09005E2F09005E0F0A3F07D
:1033D3009016AFE0B4011A9016B1E0FCA3E0FDE44F
:1033E300FFA51280C5FAE49016AFF09016B1F0A3D2
:1033F300F09016B0E0B401249016B3E0FCA3E0FD16
:103403007F01A51280C5FAE49016B0F09016B3F0D0
:10341300A3F08008A5128070C802331A9015DEE06D
:103423007002A3E060030234D79005E2F09005E058
:10343300F0A3F09016B604F0E4A3F0A3F09016B650
:10344300E0B4010EA51280C5F2E49016B6F0A3F025
:10345300A3F0A512801E139013CCE075F006900024
:1034630006A512800BD7E0FEA3E0FF9013C9E0FC92
:10347300A3E0FDD3EF9DEE9C405A7F018060E49072
:1034830005E2F09005E0F0A3F09016B604F0E4A393
:10349300F0A3F09016B6E0B4010EA51280C5F2E4D5
:1034A3009016B6F0A3F0A3F0A512801E139013CCD0
:1034B300E075F006900006A512800BD7E0FEA3E0AE
:1034C300FF9013C9E0FCA3E0FDD3EF9DEE9C400405
:1034D3007F01800AE49005DFF09005D9F0FFA52273
:1034E3007F019023F4EFF0E4A3F0A3A5128097F2F9
:1034F3009017167401F09023F4E0600302363190C4
:1035030013CB7414A5128076787E007F147D007B24
:10351300007A0579EDA512800C9D9003B3E0FEA31C
:10352300E0FFEE600302362EEF24F6603D24A67022
:10353300030235C6246360030237897B807A0379EB
:10354300C8902649A512800BEE9004D4A512800BD7
:10355300F890264CA512800BEE9013C9E0FFA3E070
:1035630090264FCFF0A3EF02361D7B807A0379CDEF
:10357300902649A512800BEE9004D4A512800BF877
:1035830090264CA512800BEE9003B3E0FAA3E0FB68
:103593009013C9E0FEA3E0FFAD03AC02A5128009BE
:1035A3003D90264FEEF0A3EFF09013C9E0FEA3E0A9
:1035B300FFAD03AC02A51280093D902651ECF0A3A8
:1035C300ED80577B807A0379D5902649A512800B2D
:1035D300EE9004D4A512800BF890264CA512800B14
:1035E300EE9003B3E0FAA3E0FB9013C9E0FEA3E07F
:1035F300FFAD03AC02A51280093D90264FEEF0A368
:10360300EFF09013C9E0FEA3E0FFAD03AC02A512F7
:1036130080093D902651ECF0A3EDF07B007A05790B
:10362300EDA512800D409023F6EFF0023789902329
:10363300F4E0640260030237D89013CB7414A5122C
:103643008076787E007F147D007B007A0579EDA576
:1036530012800C9D9003B3E0FEA3E0FFEE60030233
:103663003789EF24F6603A24A6700302370D2463EA
:1036730060030237897B807A0379DF902649A5129C
:10368300800BEE9004ECA512800BF890264CA5124B
:10369300800BEE900E7CA512800B5890264F0237BC
:1036A300747B807A0379E5902649A512800BEE900E
:1036B30004ECA512800BF890264CA512800BEE901B
:1036C30003B3E0FEA3E0FFFBAA06E4F9F8900E7C47
:1036D300A512800B58A512800A9A90264FA5128036
:1036E3000BCA9003B3E0FEA3E0FFFBAA06E4F9F8DC
:1036F300900E7CA512800B58A512800A9AAC00ADDF
:1037030001AE02AF0390265380677B807A0379EF83
:10371300902649A512800BEE9004ECA512800BF8BD
:1037230090264CA512800BEE9003B3E0FEA3E0FFBE
:10373300FBAA06E4F9F8900E7CA512800B58A5129B
:10374300800A9A90264FA512800BCA9003B3E0FE1D
:10375300A3E0FFFBAA06E4F9F8900E7CA512800B08
:1037630058A512800A9AAC00AD01AE02AF039026B1
:1037730053A512800BCA7B007A0579EDA512800D43
:10378300409023F6EFF0D2137B007A0579ED902673
:1037930048A512800BEE9023F6E090264BF07D01B6
:1037A300E4FFA5128076AEE47F64A5128090D790E3
:1037B30013CCE0FF9016BFF0E4A3F075F006EF9092
:1037C3000006A512800BD7E0FFA3E09016C1CFF04F
:1037D300A3EFF080299023F4E0640170219013CBD0
:1037E3007414A5128076787F02A512809459E47F21
:1037F30064A5128090D79016BFE09013CCF0E490AC
:1038030016BEA51280D9639023F5EFF0BF0704E439
:10381300023D429023F5E0A512800C05383B003BA6
:1038230009013B09023CD2033CD204383B053CD29C
:10383300073CFE0800003D4F9023F4E06003B40210
:10384300219013CCE075F006900006A512800BD7EB
:10385300E0FEA3E0FFC39013CAE09FF09013C9E01A
:103863009EF09023F4E0B401229016C1E0FEA3E0A1
:10387300FF9013C9E0FCA3E0FDC39FEC9E400CED59
:103883009FFFEC9E9013C9F0A3EFF09013CB741A33
:10389300A5128076789023F4E06003023A1BA51208
:1038A30080AF73EF7027900373E0B40116B4011D6A
:1038B300A3E0FEA3E0FFC39013CAE09F9013C9E007
:1038C3009E500A7F02A512809459023A1B7E007F04
:1038D300147D007B007A0579EDA512800C9D900381
:1038E300B3E0FEA3E0FFEE60030239F2EF24F660DB
:1038F3003D24A6700302398A246360030239F27BF4
:10390300807A0379C8902649A512800BEE9004D4DF
:10391300A512800BF890264CA512800BEE9013C9CC
:10392300E0FFA3E090264FCFF0A3EF0239E17B80C5
:103933007A0379CD902649A512800BEE9004D4A585
:1039430012800BF890264CA512800BEE9003B3E087
:10395300FAA3E0FB9013C9E0FEA3E0FFAD03AC02C2
:10396300A51280093D90264FEEF0A3EFF09013C906
:10397300E0FEA3E0FFAD03AC02A51280093D902653
:1039830051ECF0A3ED80577B807A0379D5902649DB
:10399300A512800BEE9004D4A512800BF890264C50
:1039A300A512800BEE9003B3E0FAA3E0FB9013C9DA
:1039B300E0FEA3E0FFAD03AC02A51280093D902613
:1039C3004FEEF0A3EFF09013C9E0FEA3E0FFAD03C9
:1039D300AC02A51280093D902651ECF0A3EDF07BDB
:1039E300007A0579EDA512800D409023F6EFF0D211
:1039F300137B007A0579ED902648A512800BEE9093
:103A030023F6E090264BF07D01E4FFA5128076AE0D
:103A1300E47FC8A5128090D79013CCE0FF75F00621
:103A2300900008A512800BD7E014F075F006EF9014
:103A33000008A512800BD7E070139013CCE075F04B
:103A430006900005A512800BD7E04404F09023F5FF
:103A5300E0B405139013CCE075F006900005A512B1
:103A6300800BD7E04402F0A512809FDB900F89A55D
:103A730012800B769013CCE075F006900006A51229
:103A8300800BD7E0FEA3E0FFE4FCFDA5128009FF55
:103A9300900F89A512800BCA900F8DA51280CB5170
:103AA3009023F4E0B401059016C580039016C4A5D5
:103AB30012815836E49016BEF0A3E0FDA3E0FBA309
:103AC300E0FFA3E09023FBCFF0A3EFF0E4FFA51208
:103AD300815D339015D8E4F0A37464F09015D8E0B9
:103AE3007002A3E0601BA5128077E65008E4FDFF97
:103AF300A51280A3B5A51280BDC49023F7EFF08073
:103B0300DB7F00023D70A5128076739013CCE075C5
:103B1300F006900005A512800BD7E04402F0902335
:103B2300F4E0FF600764026003023CA0A51280AFCB
:103B330073EF64016003023C7FFE7F14FD7B007A18
:103B43000579EDA512800C9D9003B3E0FEA3E0FF81
:103B5300EE6003023C5CEF24F6603D24A670030292
:103B63003BF424636003023C5C7B807A0379C89056
:103B73002649A512800BEE9004D4A512800BF89071
:103B8300264CA512800BEE9013C9E0FFA3E090260C
:103B93004FCFF0A3EF023C4B7B807A0379CD902685
:103BA30049A512800BEE9004D4A512800BF8902641
:103BB3004CA512800BEE9003B3E0FAA3E0FB901345
:103BC300C9E0FEA3E0FFAD03AC02A51280093D905E
:103BD300264FEEF0A3EFF09013C9E0FEA3E0FFAD94
:103BE30003AC02A51280093D902651ECF0A3ED80B1
:103BF300577B807A0379D5902649A512800BEE90E6
:103C030004D4A512800BF890264CA512800BEE90DD
:103C130003B3E0FAA3E0FB9013C9E0FEA3E0FFAD1A
:103C230003AC02A51280093D90264FEEF0A3EFF0FE
:103C33009013C9E0FEA3E0FFAD03AC02A512800917
:103C43003D902651ECF0A3EDF07B007A0579EDA5CC
:103C530012800D409023F6EFF0D2137B007A0579A2
:103C6300ED902648A512800BEE9023F6E090264BAC
:103C7300F07D01E4FFA5128076AE80077F02A512D6
:103C8300809459E47FE87E03A5128090D89013C9ED
:103C9300E0FFA3E09005EBCFA512803D76A512804F
:103CA3009FC8900F8FA51280CB51A512809E1F90A5
:103CB30023F4E0B401059016C580039016C4E0FF19
:103CC300A512815838A512815D187F02023D70A5A7
:103CD30012807673A512809FC89023F4E0B4010587
:103CE3009016C580039016C4E0FFA512815838A52D
:103CF30012815D18E47FC47E09803BA51280767330
:103D03009013CCE075F006900005A512800BD7E068
:103D13004404F0A512809FDB9023F4E0B4010590E6
:103D230016C580039016C4A512815836A512815D6D
:103D330018E47FE87E03A5128090D87F00802EA52B
:103D43001280D9639023F5EFF00238169016BFE086
:103D5300FDA3E0FBA3E0FFA3E09023FBCFF0A3EFE1
:103D6300F09016BEE0FFA512815D337F00A522907F
:103D730005EBEEF0A3EFF0E49013C9F0A3F0E490A9
:103D830023F8F0A3F0A3F0A3F0A3F0A3F0A3F0A310
:103D930004F0A3F0A3F0E4A3F0A3F0902405F0A3B0
:103DA300F0A5128077ABA512809811900377E024D9
:103DB300C8FF900376E03400FED39005ECE09F90BB
:103DC30005EBE09E4005EEF0A3EFF09013CB741BE0
:103DD300A512807678A5128090D47E007F147D0092
:103DE3007B007A0579EDA512800C9D9003B3E0FE6C
:103DF300A3E0FFEE6003023EFFEF24F6603D24A63E
:103E03007003023E9724636003023EFF7B807A03C4
:103E130079C8902649A512800BEE9004D0A5128094
:103E23000BF890264CA512800BEE9005EBE0FFA358
:103E3300E090264FCFF0A3EF023EEE7B807A03792A
:103E4300CD902649A512800BEE9004D0A512800BCD
:103E5300F890264CA512800BEE9003B3E0FAA3E092
:103E6300FB9005EBE0FEA3E0FFAD03AC02A51280DF
:103E7300093D90264FEEF0A3EFF09005EBE0FEA393
:103E8300E0FFAD03AC02A51280093D902651ECF092
:103E9300A3ED80577B807A0379D5902649A51280BC
:103EA3000BEE9004D0A512800BF890264CA512803F
:103EB3000BEE9003B3E0FAA3E0FB9005EBE0FEA367
:103EC300E0FFAD03AC02A51280093D90264FEEF052
:103ED300A3EFF09005EBE0FEA3E0FFAD03AC02A57A
:103EE3001280093D902651ECF0A3EDF07B007A059A
:103EF30079EDA512800D409023FEEFF0D2137B00E5
:103F03007A0579ED902648A512800BEE9023FEE00A
:103F1300A5128090C79015EF7401F0E49016A9F0F4
:103F2300A3F0A3F0A3F09005EBE0FEA3E0FF7C0079
:103F33007D32A51280093D902405EFF0A512816D15
:103F4300B8902404EFF0600302419FA3E0FFC31382
:103F53002414FEE433901710F0A3CEF0901710E072
:103F63007002A3E0700302419F7B007A247906A5C7
:103F73001280CD60902404EFF060030241937B0034
:103F83007A037953902617A512800BEE7A03792EC4
:103F9300A51280CDBE902404EFF0BF01BF90035360
:103FA300E06401600302406890032EE0FF90036425
:103FB300E4F0A3EFF0E4A3F0A3F0900364E0FAA32A
:103FC300E0FB7C007D32FFAE02A51280092A901629
:103FD300A9EEF0A3EFF07D647F007E00A5128009B7
:103FE3002AA3EEF0A3EFF09016A9E0FEA3E0FFC32F
:103FF3009005ECE09FFF9005EBE09EFE9016ABE092
:10400300FCA3E0FDC3EF9DFFEE9C9005EBF0A3EF57
:10401300F0900F95EA8BF0A5128009D1900FBBA504
:1040230012800B769016A9E0FEA3E0FFE4FCFDA549
:10403300128009FF900FBBA512800BCA900F91A5A8
:1040430012800B769016A9E0FEA3E0FFE4FCFDA529
:10405300128009FF900F91A512800BCA900F97E46D
:10406300F5F0024144900353E0D394015003023F1F
:104073005F90032EE0FF900364E4F0A3EFF090035E
:104083002FE0FF900366E4F0A3EFF0900364E0FAFF
:10409300A3E0FB7C007D32FFAE02A51280092A90CB
:1040A30016A9EEF0A3EFF0900366E0FEA3E0FF7D18
:1040B30064A51280092A9016ABEEF0A3EFF09016D8
:1040C300A9E0FEA3E0FFC39005ECE09FFF9005EBA2
:1040D300E09EFE9016ABE0FCA3E0FDC3EF9DFFEE78
:1040E3009C9005EBF0A3EFF0900F95EA8BF0A512EF
:1040F3008009D1900FBBA512800B769016A9E0FE24
:10410300A3E0FFE4FCFDA5128009FF900FBBA512FD
:10411300800BCA900F91A512800B769016A9E0FE32
:10412300A3E0FFE4FCFDA5128009FF900F91A51207
:10413300800BCA900366E0FEA3E0FF900F97EE8F1B
:10414300F0A5128009D1900FC5A512800B769016A9
:10415300ABE0FEA3E0FFE4FCFDA5128009FF900F96
:10416300C5A512800BCA900F91A512800B769016ED
:10417300ABE0FEA3E0FFE4FCFDA5128009FF900F76
:1041830091A512800BCAE4901710F0A3F0023F5FD1
:104193007FE87E03A5128070CC023F5F9005EBE0C1
:1041A300FEA3E0FFD39400EE940040129024027427
:1041B30001F090037AEEF0A3EFF0D2228005E490B1
:1041C3002402F09016A9E0FCA3E0FDD39400EC9444
:1041D30000500E9016ACE094009016ABE0940040B3
:1041E3001A9016ABE0FAA3E0FBE4FFA512815C840E
:1041F300E49016A9F0A3F0A3F0A3F0902402E070DA
:10420300030243C6A51280CB5C9013CB7401A512A5
:104213008076789013CB7420F07E007F147D007B32
:10422300007A0579EDA512800C9D9013CBE0FF2554
:10423300E025E02427F582E43404F583E493FD7C50
:1042430000C004C005EF25E025E02424F582E43412
:1042530004F583A512800BF878ED7C057D00D0076B
:10426300D006A5128008FE9013CBE025E025E024BC
:1042730027F582E43404F583E4939023FEF090035E
:10428300B3E0FEA3E0FFEE600302439CEF24F6607D
:104293004024A670030243302463600302439C90CE
:1042A30023FEE024EDF9E43405FA7B00C003C002E9
:1042B300C0017B807A03799D902649A512800BEE7D
:1042C30090037AE0FFA3E090264CCFF0A3EF0243E4
:1042D3008A9023FEE024EDF9E43405FA7B00C00361
:1042E300C002C0017B807A0379A0902649A5128081
:1042F3000BEE9003B3E0FAA3E0FB90037AE0FEA396
:10430300E0FFAD03AC02A51280093D90264CEEF010
:10431300A3EFF090037AE0FEA3E0FFAD03AC02A5A8
:104323001280093D90264EECF0A3ED805A9023FEB7
:10433300E024EDF9E43405FA7B00C003C002C001B8
:104343007B807A0379A6902649A512800BEE900311
:10435300B3E0FAA3E0FB90037AE0FEA3E0FFAD0332
:10436300AC02A51280093D90264CEEF0A3EFF0902D
:10437300037AE0FEA3E0FFAD03AC02A51280093D82
:1043830090264EECF0A3EDF0D001D002D003A5129D
:10439300800D409023FEE02FF0D2137B007A057945
:1043A300ED902648A512800BEE9023FEE090264B5D
:1043B300F07D01E4FFA5128076AE7FD07E07A512C3
:1043C3008070CC7FF47E01A5128070CCA512816B26
:1043D300499003B5E064016033900359E0701DC355
:1043E30090035BE0940390035AE09400400E900323
:1043F30063E094F4900362E094015009900602E0B4
:104403004408F08007900602E054F7F07F00A522ED
:10441300E49023F1F0A512809E1F900602E0444031
:10442300F09013C8E04401F09013CB740DA51280F3
:1044330076787F01A522E49023F4F0A3F0A3F09013
:104443002E17F0900002F0A5128097F590020774E2
:1044530002F0302007A51280A030C220901CB47453
:1044630001F0E4900601F0A3F09015F5F0FBFAFDDE
:104473007F05A51280FBD0A512814EB9A512804AF3
:104483000EA51280A0A940EF9015F57401F0E4FB8E
:10449300FAFD7F06A51280FBD0E49005E2F09005BB
:1044A300E0F0A3F0901CB4F0D21390046CA512803A
:1044B3000BF8902648A512800BEE90046FA512808E
:1044C30076A5D2137B807A0379FB902648A51280C8
:1044D3000BEE90264B7401F0FDE4FFA5128076AE3F
:1044E300A5128094A79002077401F0E4900601F0EE
:1044F300A3F0D21D202007A51280A008D220D21F2E
:10450300A51280A7FB9013B9E07003201D0D901333
:10451300BAE06007900602E04402F07D53E4FFA591
:104523001280D979BF020E900602E04440F0901346
:10453300C8E04401F0E4901718F090036AF090018A
:1045430084F0A3F0A512814A9D9023F5EEF0A3EF2A
:10455300F07F00A522E49023F1F0A3F0201F0302D3
:1045630049ECA5128097F57E007F147D007B007ACD
:104573002379F3A512800C9D900602E030E00790AA
:1045830023F274F18028900602E030E1079023F2D1
:1045930074F2801A900602E030E2079023F274F37B
:1045A300800C900602E030E31D9023F274F4F07B5C
:1045B300807A0379FD902649A512800BEE7B807AE1
:1045C30004790002474F900602E030E41D9023F285
:1045D30074F5F07B807A0379FD902649A512800B50
:1045E300EE7B807A04791502474F900602E030E5AE
:1045F3001D9023F274F6F07B807A0379FD902649AF
:10460300A512800BEE7B807A04791502474F900642
:1046130002E030E61D9023F274F7F07B807A037991
:10462300FD902649A512800BEE7B807A0479150252
:10463300474F900602E030E71D9023F274F8F07BB9
:10464300807A0379FD902649A512800BEE7B807A50
:1046530004791502474F900601E030E01D9023F2E4
:1046630074F9F07B807A0379FD902649A512800BBB
:10467300EE7B807A04791502474F900601E030E122
:104683001D9023F274FAF07B807A0379FD9026491A
:10469300A512800BEE7B807A04791502474F9006B2
:1046A30001E030E21D9023F274FBF07B807A037902
:1046B300FD902649A512800BEE7B807A04791502C2
:1046C300474F900601E030E31C9023F274FCF07B2B
:1046D300807A0379FD902649A512800BEE7B807AC0
:1046E3000479158067900601E030E41C9023F2748E
:1046F300FDF07B807A0379FD902649A512800BEEAD
:104703007B807A0479158044900601E030E51C90A3
:1047130023F274FEF07B807A0379FD902649A5127B
:10472300800BEE7B807A0479158021900601E0905E
:1047330023F230E62C74E1F07B807A0379FD902636
:1047430049A512800BEE7B807A04791590264CA53F
:1047530012800BEE7B007A2379F3A512800D408043
:104763000374FFF09023F2E0FF64F1600FEF64F253
:10477300600AEF64F36005EF64F4702C9013CB745C
:1047830037A512807678E47FC8A5128090D77B8006
:104793007A0379FD902649A512800BEE7B007A23DC
:1047A30079F390264C0249A09013CB7410A5128084
:1047B3007678E47FC8A5128090D72022030249832C
:1047C30090037AE07002A3E070030249837B807A4E
:1047D300047918902649A512800BEE9023F2E090FD
:1047E300264CF07B007A2379F3A3A512800BEE7A93
:1047F3000579EDA512800D409023F1EFF09013CBD6
:104803007420F0E0FE25E025E02427F582E434045B
:10481300F583E493FD7C00C004C005EE25E025E0AC
:104823002424F582E43404F583A512800BF8C00137
:1048330074ED2FF9E43405A801FC7D00D001D00705
:10484300D006A5128008FE9013CBE025E025E024D6
:1048530027F582E43404F583E493FF9023F1E02FFA
:10486300F09003B3E0FEA3E0FFEE600302497FEFA5
:1048730024F6604024A670030249132463600302F4
:10488300497F9023F1E024EDF9E43405FA7B00C07D
:1048930003C002C0017B807A03799D902649A5124B
:1048A300800BEE90037AE0FFA3E090264CCFF0A3B9
:1048B300EF02496D9023F1E024EDF9E43405FA7B2E
:1048C30000C003C002C0017B807A0379A09026490F
:1048D300A512800BEE9003B3E0FAA3E0FB90037AFA
:1048E300E0FEA3E0FFAD03AC02A51280093D9026D4
:1048F3004CEEF0A3EFF090037AE0FEA3E0FFAD03EC
:10490300AC02A51280093D90264EECF0A3ED805A2F
:104913009023F1E024EDF9E43405FA7B00C003C0F1
:1049230002C0017B807A0379A6902649A512800BE9
:10493300EE9003B3E0FAA3E0FB90037AE0FEA3E07A
:10494300FFAD03AC02A51280093D90264CEEF0A307
:10495300EFF090037AE0FEA3E0FFAD03AC02A512F3
:1049630080093D90264EECF0A3EDF0D001D002D0AB
:1049730003A512800D409023F1E02FF0C222803076
:104983007B807A047918902649A512800BEE902338
:10499300F2E090264CF07B007A2379F3A3A51280F2
:1049A3000BEE7A0579EDA512800D409023F1EFF01F
:1049B300D2137B007A0579ED902648A512800BEE81
:1049C3009023F1E090264BF07D01E4FFA512807661
:1049D300AEE47F2C7E01A5128090D8900000E00405
:1049E300F0E0C394024002E4F0900391E0B40117B5
:1049F300900002E0700CA51280B064EF700404F024
:104A03008005A51280B7D47F01A522E49023F9F095
:104A1300D20FA3F0A3F002512A9023FAE06003021D
:104A2300513AF0D20FA5128094A7D213901966A51C
:104A330012800BF8902648A512800BEE901969A5F9
:104A4300128076A5D21390196AA512800BF89026CE
:104A530048A512800BEE90196DE49390264BF07DE0
:104A630001E4FFA5128076AEA5128097809023F70C
:104A73007401F0A304F0200F03024E2CA51280A4AE
:104A8300FE9023FBEFF024F37003024C1524F27025
:104A930003024C1024CB7003024B6424086003020E
:104AA3004E1B9023F8E06402702DD21190264874B7
:104AB30002F0D212E4FDFFA51280978E9023F874C2
:104AC30001F09023F7E07006740DF0024E1B902363
:104AD300F7E014F0024E1BD2139023F7E0FF25E01A
:104AE30025E02466F582E43419F583A512800BF8DA
:104AF300902648A512800BEEEF25E025E02469F50A
:104B030082E43419F583E49390264BF07D01E4FFAE
:104B1300A5128076AE9023F7E07005740DF0800641
:104B23009023F7E014F0D2139023F7E0FF25E0255C
:104B3300E02466F582E43419F583A512800BF8901E
:104B43002648A512800BEEEF25E025E02469F582C7
:104B5300E43419A5128076A39023F87401F0024E71
:104B63001B9023F8E06401701AA5128097809023AC
:104B7300F7E0B40D05E4F0024C079023F7E004F0EE
:104B8300024C07D2139023F7E0FF25E025E02466CB
:104B9300F582E43419F583A512800BF8902648A515
:104BA30012800BEEEF25E025E02469F582E4341949
:104BB300A5128076A39023F7E0B40D04E4F08006F9
:104BC3009023F7E004F0D2139023F7E0FF25E025CC
:104BD300E02466F582E43419F583A512800BF8907E
:104BE3002648A512800BEEEF25E025E02469F58227
:104BF300E43419F583E49390264BF07D01E4FFA59B
:104C0300128076AE9023F87402F0024E1BC20F029C
:104C13004E1BC211E4902648F0D212FDFFA512806C
:104C2300978EA5128094A79023F7E0A512800C0518
:104C33004C61004C6D014C74024C80034C84044C59
:104C43008B054C97064CA0074CA7084CAE094CB5F6
:104C53000A4CBC0B4CC30C4CCA0D00004CCFA51224
:104C6300815F92A51280F8658062A5128054CA8084
:104C73005BA512815F92A512814DA3804F7F0180B6
:104C830015A5128165198044A512815F92A5128032
:104C9300921380387F02A512816215802FA512809E
:104CA300E4E38028A512812A818021A5128066F27F
:104CB300801AA51280C70B8013A51280F95B800CA4
:104CC300A51280D46B8005A512812BD69023F8E022
:104CD30064026003024D669023F7E07017D21390CD
:104CE300199AA512800BF8902648A512800BEE9016
:104CF300199D802FD2139023F7E0FF25E025E024B0
:104D030062F582E43419F583A512800BF8902648E6
:104D1300A512800BEEEF25E025E02465F582E4344F
:104D230019F583A5128076A5D2139023F7E0FF250A
:104D3300E025E02466F582E43419F583A512800B9F
:104D4300F8902648A512800BEEEF25E025E02469B4
:104D5300F582E43419F583E49390264BF07D01E466
:104D6300024DF99023F7E0B40D17D213901966A5FD
:104D730012800BF8902648A512800BEE90196980DB
:104D83002FD2139023F7E0FF25E025E0246AF58274
:104D9300E43419F583A512800BF8902648A51280F8
:104DA3000BEEEF25E025E0246DF582E43419F5835D
:104DB300E49390264BF07D01E4FFA5128076AED2FA
:104DC300139023F7E0FF25E025E02466F582E43421
:104DD30019F583A512800BF8902648A512800BEED7
:104DE300EF25E025E02469F582E43419F583E493A3
:104DF30090264BF0E4FDFFA5128076AE9023F8E0F9
:104E030014FDD2119026487402F0D212E4FFA512C9
:104E130080978EA5128094A7A512807F5A7F0A7E61
:104E230000A512807174024A79E47F2C7E01FDFC97
:104E330090267C7417F0A3741DF0A5128090E0A552
:104E43001281447BD211E4902648F0D212FDFFA5D3
:104E53001280978ED211E4902648F0D212FD7F0182
:104E6300A51280978E902E20E0700330254ED2132A
:104E73007B807A197934902648A512800BEE902610
:104E83004B740AA5128076AAD2137B807A19793FD4
:104E9300902648A512800BEE90264B7401F0FDE49A
:104EA300FFA5128076AEE47FC47E09FDFC90267CCC
:104EB3007417F0A3741DF0A5128090E0902E20E0EB
:104EC3007003024F9BA51280F047E47F64A5128014
:104ED30090D7A512809FDBE47F64A5128090D77ED4
:104EE300017F807D007B007A2379FCA512800C9DD5
:104EF3007F807E027D087C007537237538FC753909
:104F030001753A80A51280B455E49023F9F09023FB
:104F1300F9E0FF75F006902400A512800BD7E0FEA0
:104F230075F006EF900008A512800BD7E06E70575E
:104F33009023F9E075F0069023FDA512800BD7E0CE
:104F4300FE75F006EF900005A512800BD7E0B506BD
:104F5300369023F9E075F0069023FEA512800BD757
:104F6300E0FCA3E0FD75F006EF900006A512800BB0
:104F7300D7E0FEA3E0B5050FEEB5040B9023F9E0EF
:104F830004F0E0644070879023F9E064406004A378
:104F93007401F0E4902E20F020250302508EA51218
:104FA30080CB5CE47F64A5128090D77E007F577D21
:104FB300007B007A25797CA512800C9D7F807E0181
:104FC3007D087C0075372575387C753900753A572F
:104FD300A51280B45590257CE0FF90036BE06F60D1
:104FE3000302508690257DE0FEA3E0FF90036CE072
:104FF3006E7003A3E06F600302508690257FE0FE8E
:10500300A3E0FF90036EE06E7003A3E06F707490F3
:105013002581E0FEA3E0FF900370E06E7003A3E040
:105023006F7060902583E0FF900372E06F7054907F
:105033002584E0FF900373E06F7048902585E0FEC0
:10504300A3E0FF900374E0B50639A3E0B5073490FD
:105053002587E0FEA3E0FF900376E0B50625A3E0F5
:10506300B5072090258BE0FEA3E0FF90037AE0B51F
:105073000611A3E0B5070C9025D2E0FF9003C1E031
:105083006F60069023FA7401F0C2259023FAE07052
:1050930003025131A5128094A7D2137B807A197928
:1050A30041902648A512800BEE90264B7413A5124F
:1050B3008076AAD2137B807A197955902648A51257
:1050C300800BEE90264B7410F07D01E4FFA5128057
:1050D30076AE902E1C740FF0E49023F9F0902E1C02
:1050E300E0603BA512807F5FA51280A4FE9023FBA6
:1050F300EFF0F460E89023FBE024E56010240E70E9
:10510300DCE49023FAF09023F904F0800A9023FA68
:105113007401F09023F9F09023F9E0B401BF902ECD
:105123001CE06003024A1C9023FAF0024A1C9023FD
:10513300FA7401F0024A1CA5028094A79025EEEDB3
:10514300F09025EDEFF0E49025EFF0902610F0EFCE
:1051530014602014602814603814605C24F6607AAC
:10516300240E60030251FF900358E020E003025134
:10517300FA807C900359E030E002807380799003D9
:1051830059E030E0028011E49025EFF090035E8057
:1051930019900359E030E00A90260EE4F0A304F0DE
:1051A300805AE49025EFF0900360E0FFA3E090269F
:1051B3000ECFF0A3EFF080449013BDE0FF30E70281
:1051C3008020EF540660089025EF7403F0802D9043
:1051D30013BDE030E0028017801D9013C6E0FF305E
:1051E300E7089025EF7402F08012EF5403600890F3
:1051F30025EF7401F08005E49025EFF030110302F0
:1052030054419025EDE0FF25E025E0249DF582E45F
:105213003408F583E493FD7C00C004C005EF25E06A
:1052230025E0249AF582E43408F583A512800BF86F
:1052330078F07C257D00D007D006A5128008FE906B
:1052430025EDE0FF64026008EF6403600302539EF0
:105253009025EFE0600302539E9003B3E0FEA3E0CA
:10526300FFEE600302533BEF24F6602A24A6606F2F
:105273002463600302533B7B807A08795990264963
:10528300A512800BEE90260EE0FFA3E090264CCFF4
:10529300F0A3EF0253297B807A08795C902649A515
:1052A30012800BEE9003B3E0FAA3E0FB90260EE02E
:1052B300FEA3E0FFAD03AC02A51280093D90264C8E
:1052C300EEF0A3EFF090260EE0FEA3E0FFAD03ACFB
:1052D30002A51280093D90264EECF0A3ED80477B9A
:1052E300807A087962902649A512800BEE9003B369
:1052F300E0FAA3E0FB90260EE0FEA3E0FFAD03ACD3
:1053030002A51280093D90264CEEF0A3EFF0902603
:105313000EE0FEA3E0FFAD03AC02A51280093D90B1
:10532300264EECF0A3EDF07B007A267904A51280DB
:105333000D40902610E02FF0902610E0FF7E0090A5
:1053430025EDE025E025E0249DF582E43408F5838E
:10535300E49324F0F9E43425A801FC7D007B007A72
:10536300267904A5128008FE9025EEE0FDD2137B7A
:10537300007A2579F0902648A512800BEE9025ED52
:10538300E025E025E0249DF582E43408F583E493E9
:10539300FF902610E0FEEF2E0254349025EFE0FF3D
:1053A30025E025E024E1F582E43408F583E493FD68
:1053B3007C00C004C005EF25E025E024DEF582E48F
:1053C3003408F583A512800BF8C0019025EDE02584
:1053D300E025E0249DF582E43408F583E49324F08A
:1053E300F9E43425A801FC7D00D001D007D006A53F
:1053F300128008FE9025EEE0FDD2137B007A25791A
:10540300F0902648A512800BEE9025EFE025E025CD
:10541300E024E1F582E43408F583E493FF9025ED7D
:10542300E025E025E0249DF582E43408F583E49348
:105433002F90264BF0E4FFA5128076AE80059025D1
:10544300EFE0FFA5229025D3E0FF7D019025ECED51
:10545300F09025EBEFF0601BE0FF64016015EF6453
:10546300026010EF6403600BEF64046006EF6003F7
:10547300B40E119025EBE0FFA3E0FDC211A512804D
:10548300513F80419025ECE0FDD2139025EBE0FFE6
:1054930025E025E0249AF582E43408F583A51280FB
:1054A3000BF8902648A512800BEEEF25E025E024AB
:1054B3009DF582E43408F583E49390264BF0E4FFF2
:1054C300A5128076AEA522E4902615F0A3F0A3F0F2
:1054D300A3F0A3740AF0A37402F090261C14F0E462
:1054E300A3F0A3F0902633F0FE7FC2FD7B007A0287
:1054F3007908A512800C9DE4902615F0902615E0FE
:10550300FFC39440504175F006EF900005A512804B
:105513000BD7E0540A6028902615E025E025E02407
:10552300F7F582E43429F583E0FF90261EE0240A90
:10553300F582E43402F583EFF090261EE004F09048
:105543002615E004F080B57E007F147D007B007A91
:1055530026791FA512800C9D90261EE070107B807B
:105563007A087978902649A512800BEE80167B8005
:105573007A087983902649A512800BEE90261EE0C7
:1055830090264CF07B007A26791FA512800D40905F
:105593002633EFF0D2137B007A26791F902648A595
:1055A30012800BEE902633E0A5128076A77F02A52A
:1055B30012809459E47FB87E0BA5128090D8902670
:1055C3001BA51280977890261A7402F0E490261592
:1055D300F0902615E0FFC39440501D75F006EF9040
:1055E3000004A512800BD7E0600E90261DE004F0A6
:1055F300902615E004F080D990261CE07003025831
:10560300F77E007F157D007B007A2579EBA512805C
:105613000C9D7E007F157D007B007A267900A51204
:10562300800C9DE4902616F0902615F0902618E045
:10563300902615F0902619E0FF902615E0FEC39FF3
:105643004003025879902618E02405FDE433FCEE6C
:10565300C39DEC6480F874809840030257579026EA
:1056630015E075F006900004A512800BD7E07003D7
:10567300025870902616E075F004A424EBF9742503
:1056830035F0FA7B00C003C002C0017B807A087941
:1056930093902649A512800BEE902615E075F0062F
:1056A300900004A512800BD7E090264CF0D001D0D7
:1056B30002D003A512800D40E4902617F090261522
:1056C300E075F006900005A512800BD7E0FF700689
:1056D300902617F0803EEF540A6008902617740254
:1056E300F08031902615E0FF75F006900005A512B5
:1056F300800BD7E020E20F75F006EF900008A512AB
:10570300800BD7E070089026177403F0800690266C
:10571300177401F0902617E0FF25E025E024F1F54A
:1057230082E43408F583E493FD7C00C004C005EFF4
:1057330025E025E024EEF582E43408F583A5128004
:105743000BF8C001902616E075F004A424EDF9745B
:105753002502585890261DE0FF902615E0FEC39FB2
:10576300400302587975F006EE900004A512800BF1
:10577300D7E07003025870902616E075F004A42455
:10578300ECF9742535F0FA7B00C003C002C0017B3D
:10579300807A087993902649A512800BEE902615FE
:1057A300E075F006900004A512800BD7E090264C1C
:1057B300F0D001D002D003A512800D40E49026174B
:1057C300F0902615E075F006900005A512800BD722
:1057D300E0FF7006902617F0803EEF540A600890B1
:1057E30026177402F08031902615E0FF75F00690BD
:1057F3000005A512800BD7E020E20F75F006EF90AD
:105803000008A512800BD7E070089026177403F0E8
:1058130080069026177401F0902617E0FF25E025F7
:10582300E024F1F582E43408F583E493FD7C00C0C1
:1058330004C005EF25E025E024EEF582E43408F505
:1058430083A512800BF8C001902616E075F004A41E
:1058530024EEF9742535F0A801FC7D00D001D007B2
:10586300D006A5128008FE902616E004F0902615B7
:10587300E004F00256377B007A2579EBA51280000D
:1058830010EF4E70127B007A267900A5128000106B
:10589300EF4E700302599BD2137B007A2579EB906C
:1058A3002648A512800BEE90264B7414A512807621
:1058B300AAD2137B007A267900902648A512800B82
:1058C300EE902616E024FB25E025E090264BF07DA4
:1058D30001E4FFA5128076AE90261AE014FDD211E2
:1058E3009026487402F0D212E4FFA51280978EE44A
:1058F30090261CF0A51280A4FE90261BEFF024E551
:10590300700302599B24CB60462408707A90261AB0
:10591300E0B4021AD2119026487402F0D212E4FDC8
:10592300FFA51280978E90261A7401F08059902655
:1059330018E0D394004050902618E024FBF0A3E035
:1059430024FBF090261C7401F090261AF080389006
:10595300261AE0B4010DA51280978090261A7402CE
:10596300F0802490261DE0FF902619E0C39F501776
:10597300902618E02405F0A3E02405F090261C747B
:1059830001F090261A04F0A512807F5A7F0A7E0048
:10599300A5128071740255FBA5229025DCE0FDD28F
:1059A300117F019025E0EFF0A3EDF0E49025F9F0ED
:1059B300A3F09025F8F0FE7F16FD7B007A2579E2AF
:1059C300A512800C9D9025E1E064037003025A6ADE
:1059D300E0FF25E025E024BAF582E4341CF583E4F6
:1059E30093FD7C00C004C005EF25E025E024B7F556
:1059F30082E4341CF583A512800BF878E27C257DC4
:105A030000D007D006A5128008FE301105A512802C
:105A1300F0609025E1E0FF25E025E024BAF582E47B
:105A2300341CF583E493FE9025F8E0FCEE2C24E28D
:105A3300F582E43425F583E4F09025E0E0FDD2130C
:105A43007B007A2579E2902648A512800BEEEF259C
:105A5300E025E024BAF582E4341CF583E4932C902A
:105A6300264BF0E4025B3B20113AD2139025E1E090
:105A7300FF25E025E024B7F582E4341CF583A51265
:105A8300800BF8902648A512800BEEEF25E025E069
:105A930024BAF582E4341CF583E49390264BF0E4B6
:105AA300FD025B3B9025E1E0FF25E025E024BAF50C
:105AB30082E4341CF583E493FD7C00C004C005EF4D
:105AC30025E025E024B7F582E4341CF583A5128094
