:020000040000FA
:10000000021B1C080001009600A522A5028128BF42
:10001000E4FFFEA54860090FEF70010EA56980F3AB
:02002000A52217
:10002300A50280627EEFB40A09740DA51280003523
:10003300740A309811A899B8130CC2983098FDA887
:0F00430099C298B811F63099FDC299F599A52286
:10005300A5028144D2202020202020BBB6D3ADB9F5
:10006300E2C1D9002020C1E3C7AEB2BBD7E3202051
:1000730020200020202020D1A1D4F1C9CCC6B7B3C1
:10008300ACCAB120202020002020C7EBB2E5C8EB8A
:10009300B8FCD0A1C3E6B6EED6BDB1D2002020C7CE
:1000A300EBD1A1BBF5BBF2BCCCD0F8CDB6B1D2211C
:1000B30000C8B7B6A8454E54455220C8A1CFFB434C
:1000C300414E43454C0020202020C7EBC8A1C1E38B
:1000D300C7AE00C8A1CFFB43414E43454C0020208F
:1000E3002020CAE4C8EBB4EDCEF300C8B7B6A845E8
:1000F3004E544552002020C7EBCDB6C8EBD6BDB158
:10010300D2BBF2D3B2B1D200BFCDBBA7D3E0B6EE20
:100113003A00D1A1D4F1C6E4CBFCC9CCC6B7C2F036
:100123003F200020202020BBFAC6F7B9CAD5CF0054
:100133002020C9CCC6B7D2D1CADBCDEA002020200B
:10014300202020D0BBD0BB2100202020202020D481
:10015300DDCDA3B7FECEF10020202020D5D2C1E310
:10016300C6F7B9CAD5CF002020C7EBC9D4BAF22E3F
:100173002E2E00BDF0B6EEB2BBD7E32C20BCD3C706
:10018300AEC2F03F20002020D5FDD4DAB3F6BBF594
:100193002E2E2E002020D5FDD4DAD5D2C1E32E2E6B
:1001A3002E0020202020D5D2C1E3CAA7B0DC002036
:1001B300202020486F772061726520796F752100B8
:1001C300C7EBCAE4C8EBC6E4CBFCC9CCC6B7B1E005
:1001D300BAC5002020C7EBD1A1D4F1C6E4CBFCC93A
:1001E300CCC6B7002020C7EBC8A1BBF52E2E2E002E
:1001F3002020C7EBC8A1D7DFCDCBB1D22E2E2E0046
:100203002020C9CCC6B7BBF5B5C0B9CAD5CF00202D
:1002130020D1A1D4F1C6E4CBFCC9CCC6B7C2F03F10
:1002230000202020202020B2D9D7F7B3ACCAB100D8
:1002330020202020D5FDD4DACDCBBFEE00C7B7BF39
:10024300EE3A0020202020C7EBCDB6C8EBD3B2B1E5
:10025300D20020202020C7EBB2E5C8EBD6BDB1D237
:1002630000B2BBD5D2C1E3A3ACB9BAC2F2C7EBCDDE
:10027300B6B1D2004556373733362D5542204D445B
:10028300422056312E3636002020BBB9D2AAB9BA45
:10029300C2F2C9CCC6B7C2F03F00202020202020E4
:1002A300CEDEC1E3B1D2002020C9CCC6B7BCDBB8D7
:1002B300F13A002020CBF9D1A1C9CCC6B7D4DDCA0D
:1002C300B100C8B1BBF5002020B9CAD5CF002020AA
:1002D300CDCBB1D2BDF0B6EE3A002020B5B1C7B058
:1002E300BDF0B6EE3A002020C7EBCBA2BFA82E2E5E
:1002F3002E002020CDB6B1D22D3ED1A1BBF52D3E8F
:10030300C8A1BBF52020002020CCF9BFA82D3ED1E9
:10031300A1BBF52D3EC8A1BBF52020002020BFA81E
:10032300D3E0B6EEB2BBD7E32E2E2E002020B6C10B
:10033300BFA8CAA7B0DC2E2E2E002020BFA8D3E072
:10034300B6EE3A002020BDF0B6EEB2BBD7E32E2EB8
:100353002E00202020202020CFD6BDF0CFFBB7D108
:1003630000202020202020CBA2BFA8CFFBB7D100A4
:100373002020C7EBD1A1BBF52100564D44455600C3
:10038300564D5245430025750025752E25750025CC
:10039300752E2530327500257320257500257320B1
:1003A30025752E25750025732025752E253032756C
:1003B300002573257500257325752E257500257376
:1003C30025752E25303275002573256C7500257330
:1003D300256C752E256C75002573256C752E2530BF
:1003E300326C75002000B4FAC2EB3D2530326278DE
:1003F30020008000580E8000670E80007614800075
:100403008B148000A0138000B4148000C90C8000FA
:10041300D60A8000E10C8000EE098000F81280010A
:100423000B09800115108001260C8001330C80011B
:10043300400B80014C0E80015B0E80016A0B800132
:1004430076128001890D8001970D8001A50C800132
:10045300B2108001C3128001D6108001E70B800126
:10046300F30F8002030E800212118002240E800219
:10047300330C800240058002460E8002550E800236
:1004830064128002771380028B1180029D0C80021C
:10049300AA0B8002B60E8002C5048002CA0880023D
:1004A300D10B8002DD0B8002E90B8002F51480037F
:1004B3000A1480031F0F80032F0D80033D0980035F
:1004C300470D8003550E8003640E80037309800378
:1004D3007D05800383058F828E83EDF5F0FFECFEAF
:1004E300E8FDE582600205834583600EA548A55CAF
:1004F300A569A56DD582F5D583F2ABF0ECFAE8F9E1
:10050300A522EF8DF0A4A8F0CF8CF0A428CE8DF017
:10051300A42EFEA522BC000CBE002BEF8DF084FFA1
:10052300ADF0A522E4CCF875F008EF2FFFEE33FE13
:10053300EC33FCEE9DEC984005FCEE9DFE0FD5F0F0
:10054300E9E4CEFDA522EDF8F5F0EE8420D21DFE00
:10055300ADF075F008EF2FFFED33FD40089850071D
:10056300D5F0F2A522C398FD0FD5F0E9A522C2D597
:10057300EC30E709B2D5E4C39DFDE49CFCEE30E723
:1005830017B2D5E4C39FFFE49EFEA512800518C3EE
:10059300E49DFDE49CFC8005A51280051830D50779
:1005A300C3E49FFFE49EFEA522C5F0F8A3E028F074
:1005B300C5F0F8E582158270021583E038F0A522B4
:1005C300A3F8E0C5F025F0F0E582158270021583EB
:1005D300E0C838F0E8A522EF2BFFEE3AFEED39FD37
:1005E300EC38FCA522E88FF0A4CC8BF0A42CFCE91A
:1005F3008EF0A42CFC8AF0EDA42CFCEA8EF0A4CDA2
:10060300A8F08BF0A42DCC3825F0FDE98FF0A42CB5
:10061300CD35F0FCEB8EF0A4FEA9F0EB8FF0A4CF68
:10062300C5F02ECD39FEE43CFCEAA42DCE35F0FD19
:10063300E43CFCA52275F008758200EF2FFFEE3332
:10064300FECD33CDCC33CCC58233C5829BED9AEC42
:1006530099E58298400CF582EE9BFEED9AFDEC99AC
:10066300FC0FD5F0D6E4CEFBE4CDFAE4CCF9A882B6
:10067300A522B800C0B9005BBA002EEC8BF084CF82
:10068300CECDFCE5F0CBF97818EF2FFFEE33FEED7E
:1006930033FDEC33FCEB33FB10D703994004EB99A8
:1006A300FB0FD8E5E4F9FAA5227818EF2FFFEE3314
:1006B300FEED33FDEC33FCC933C910D7059BE99A32
:1006C3004007EC9BFCE99AF90FD8E0E4C9FAE4CCC3
:1006D300FBA52275F010EF2FFFEE33FEED33FDCCBB
:1006E30033CCC833C810D7079BEC9AE899400AED7E
:1006F3009BFDEC9AFCE899F80FD5F0DAE4CDFBE426
:10070300CCFAE4C8F9A522EB9FF5F0EA9E42F0E9A2
:100713009D42F0EC6480C864809845F0A522EB9F6D
:10072300F5F0EA9E42F0E99D42F0E89C45F0A522EF
:10073300E0FCA3E0FDA3E0FEA3E0FFA522E493FC1D
:10074300740193FD740293FE740393FFA522E0F8F2
:10075300A3E0F9A3E0FAA3E0FBA522E493F8740174
:1007630093F9740293FA740393FBA5227401FF3384
:1007730095E0FEFDFCA3A3A3E0CF2FF0E582158255
:1007830070021583E0CE3EF0E58215827002158378
:10079300E0CD3DF0E582158270021583E0CC3CF09C
:1007A300A522ECF0A3EDF0A3EEF0A3EFF0A522A4B5
:1007B3002582F582E5F03583F583A522E0FBA3E0EE
:1007C300FAA3E0F9A522EBF0A3EAF0A3E9F0A5224E
:1007D300E493FB740193FA740293F9A522F8D0E031
:1007E300F5834480FBD0E0FAD0E0F9A5487012A568
:1007F30049700EA56AA549C0E0A548C0E0C083A51D
:1008030022A54A6860EFA56B80E1F8D0E0F5834448
:1008130080FBD0E0FAD0E0F9A5487012A549700E2C
:10082300A56AA549C0E0A548C0E0C083A522A54AA2
:10083300B5F005A54B6860EAA56880DC8F828E83DE
:10084300EDFFECFEE8FDE58260020583458370045D
:100853007F00A522A548F5F0A54CA569A56DB5F0C7
:1008630006D582F0D583ED7FFFB5F0030FA52240B7
:10087300027F01A522EF4E6019EF60010EED898220
:100883008A838BF0A558A569DFFADEF88BF0A9827D
:10089300AA83A522F8E0FBA3A3E0F925F0F0E58203
:1008A300158270021583E0FA38F0A522312ED6BDE9
:1008B300B1D2C6F7D7B4CCAC3A2000322ED3B2B102
:1008C300D2C6F7D7B4CCAC3A2000332ECEE5BDC7A1
:1008D300D5D2C1E3D7B4CCAC3A2000342ED2BBD4AA
:1008E300AAD5D2C1E3D7B4CCAC3A2000352E2333FA
:1008F300D5D2C1E3C6F7D7B4CCAC3A2000362ECA62
:10090300D6BBFAC4A3BFE9D7B4CCACB2E2CAD40015
:10091300372EB6CCD0C5B2E2CAD400382EBBF5B55B
:10092300C0D7B4CCAC00392EBBF5B5C0BCECB2E239
:100933000031302E20BBF5B5C0B2E2CAD4BDE1B957
:10094300FB0031312E20D1A1BBF5B0B4C5A5BCEC61
:10095300B2E20031322E20D3CECFB7B0B4C5A5BC9E
:10096300ECB2E20031332E20CDCBB1D2B0B4C5A569
:10097300BCECB2E20031342E20B6C1BFA8C6F7B238
:10098300E2CAD43A200031352E20D1B9CBF5BBFAD7
:10099300B2E2CAD40031362E20D5B9CABEB5C6B22A
:1009A300E2CAD400D5FDB3A300B9CAD5CF00CEDEC9
:1009B30000B2BBD7E300CEB4B2E2CAD400C8B1BB25
:1009C300F500C8B7B6A8454E54455220C8A1CFFB81
:1009D30043414E43454C00C0DBBCC6B2E2CAD4B46B
:1009E300CECAFD3A20257500BBF5B5C0253032626D
:1009F30075B9CAD5CFB4CECAFD3A257500D5FDD495
:100A0300DABCECB2E220253032627520BBF5B5C00A
:100A13000020202020C7EBC9D4B5C82E2E2E0020DD
:100A230020BBF5B5C0B0E53A20B9CAD5CF20202008
:100A3300002020BBF5B5C025303262753A20B9CA13
:100A4300D5CF202020002020BBF5B5C02530326251
:100A5300753A20CEDEBBF5202020002020BBF5B563
:100A6300C02025303262753A2020D5FDB3A3200083
:100A730020202020D3B2B1D2C6F7B2E2CAD400C735
:100A8300EBCDB6B1D23A002020B1D2B6B7D2D1C2A3
:100A9300FA2C20C7EBB4A6C0ED2100D2D1CDB6C845
:100AA300EBBDF0B6EE3A20257500D2D1CDB6C8EB3A
:100AB300BDF0B6EE3A2025752E257500D2D1CDB600
:100AC300C8EBBDF0B6EE3A2025752E253032750001
:100AD3002020D3B2B1D2C6F7CAC7B7F1D5FDB3A3AD
:100AE3003F00257300D5B9CABEB5C600D1B9CBF551
:100AF300BBFA0020202573B2E2CAD400312DB4F230
:100B0300BFAA2020322DB9D8B1D5002573D2D1B4D4
:100B1300F2BFAAA3ACC7EBC8B7C8CF002573D2D125
:100B2300B9D8B1D5A3ACC7EBC8B7C8CF00C7EBB230
:100B3300BBD2AACBE6D2E2B9D8B1D5C9E8B1B8A342
:100B4300A10020202020D6BDB1D2C6F7B2E2CAD47C
:100B5300002020D6BDB1D2C6F7CAC7B7F1D5FDB3C1
:100B6300A33F002020CEE5BDC7CDCBB1D2A3ACD2ED
:100B7300BBB4CEC1BDC3B6002020D2BBD4AACDCB5B
:100B8300B1D2A3ACD2BBB4CEC1BDC3B6002020202A
:100B930020B0B4C5A5B2E2CAD42100CAE4C8EBB000
:100BA300B4C5A53A00CAE4C8EBB0B4C5A53A20253C
:100BB30062750020202020D3CECFB7B0B4C5A5B234
:100BC300E2CAD42100D3D0BCFCB0B4CFC22C20D411
:100BD300F2C3F9BDD0D2BBC9F90020202020CDCB70
:100BE300B1D2B0B4C5A5B2E2CAD42100257500259F
:100BF300752E25750025752E2530327500BBF5B58C
:100C0300C025303262753A202573008008AF0E800C
:100C130008BE0E8008CD108008DE108008EF10801B
:100C23000900128009130A80091E0A8009290A8013
:100C33000934108009451080095610800967108017
:100C43000978108009890E8009980E8009A704800D
:100C530009AC048009B1028009B4048009B9068093
:100C630009A7048009AC048009C004E527243EF5E4
:100C730082E43426F583E005272290263B301A03CD
:100C830090263EE475F001A512800897A54822201E
:100C930013E77F2ED2138018EF540F2490D43440DF
:100CA300D4FF30170BEF24BFB41A0050032461FFA5
:100CB300E52860021528052BE52B7002052A301A5A
:100CC3001090263BE475F001A512800897EFA55814
:100CD30022A512800028227403D21A8003E4C21AC8
:100CE300F52790263BA5128007C9E4F528F52AF5D8
:100CF3002BE52860097F20A512800CB380F37529AA
:100D0300FFC214C213C215C216C218C219C21B12E3
:100D13000C7DFF700E301A057F00120CC4AF2BAE92
:100D23002AA522B4255FC2D5C217120C7DFF24D099
:100D3300B40A00501A75F00A782830D50508B6FFB2
:100D43000106C6A426F620D5047002D21680D92443
:100D5300CFB41A00EF5004C2E5D217020EDBD2144F
:100D630080C6D21380C0D21580BCD2D580BAD21827
:100D730080B47F20120CB32015077401B5280040FE
:100D8300F1120C6EFF120CB3020CF4D21BD21980B9
:100D930095120C6EFB120C6EFA120C6EF94A4B7024
:100DA3000679AE7A0F7B8020153AE52860367E00FF
:100DB300E9C0E02EF9EAC0E03400FAA548F9D0E032
:100DC300FAD0E0C960060EEE652970E4C2D5EBC027
:100DD300E0EAC0E0E9C0E0EE120F24D0E0F9D0E091
:100DE300FAD0E0FBA548FF609FEBC0E0EAC0E0E972
:100DF300C0E0120CB3D0E02401F9D0E03400FAD003
:100E0300E0FBE5290460DDD529DA020D8B7B807ACE
:100E13000F7920D2158090791080027908C219C207
:100E23001B8008D2D5790A8004790AC2D5E5290442
:100E33007002F529E4FAFDFEFF120C6EFC7B08201C
:100E43001413120C6EFD7B1030130A120C6EFE127B
:100E53000C6EFF7B20EC3382D592D55013C3E43064
:100E630013069FFFE49EFEE42014039DFDE49CFC17
:100E7300E4CBF8C214EC700CCFCECDCCE824F8F858
:100E830070F38017C3EF33FFEE33FEED33FDEC3326
:100E9300FCEB33FB994002FB0FD8E9EB301405F868
:100EA300D0E0C448B214C0E00AEC4D4E4F78207B2A
:100EB3000070C2EAB5290040BCC0E0120F26D0F092
:100EC300D0E0201404C4C0E0C4B214C0F0120C9CDF
:100ED300D0F0D5F0EB020CF4A5128007E00D94538B
:100EE3000E1A580D654C0D61420E1E4F0E26440E10
:100EF30026490D7A430E2C550E10460E10450E1042
:100F0300470FC9500D692D0D6D2E0D902B0D7123BB
:100F13000D8E200FB72A0D294800000D883F3F3F53
:100F230000790AA2D5201614301809B91002040456
:100F3300B9080104A2D520190250010420156892B2
:100F430015B528005034C0E07F203016197F30A239
:100F53001572197218500F120F7DC215C219C218DB
:100F6300C21B7F30800F301803E9C0E0120CB3308E
:100F73001803D0E0F9D0E0B528CC3018177F30B98A
:100F8300100C120CB37F583017077F788003B90811
:100F930003120CB33015057F2D020CB37F20201BE9
:100FA300F87F2B2019F322921580CF286E756C6C75
:100FB3002900D214120C6E3014F8C214782830D5DC
:100FC3000108F6020D29120C6EC0E0C4120C9CD06D
:100FD300E0120C9C743A120CA4D216752804020E6B
:100FE3001A312E2331D5D2C1E3C6F7C3E6D6B53ABB
:100FF30000322E2332D5D2C1E3C6F7C3E6D6B53AC3
:1010030000332E2333D5D2C1E3C6F7C3E6D6B53AB0
:1010130000342ED4CAD0EDB6E0B4CEB9BAC2F23A97
:1010230000352EB2BBC2F2BBF5CDCBB1D23A0036FE
:101033002EBFAAC6F4D6BDB1D2C6F73A00372EBF2B
:10104300AAC6F4CAD6BBFAC4A3BFE93A00382ED362
:10105300E0B6EECFC2CFDE3A00392ECAD5B1D2C93F
:10106300CFCFDE3A0031302E20D2C9CECABDF0B682
:10107300EE3A0031312E20BBFAC6F7B1E0BAC53AD9
:10108300200031322E47534DBAC5C2EB3A003133FB
:101093002E20C7B7CCF53A0031342E20D0A1CAFD9B
:1010A300B5E33A0031352E202331D6BDB1D23A0013
:1010B30031362E202332D6BDB1D23A0031372E201D
:1010C3002333D6BDB1D23A0031382E202334D6BDD6
:1010D300B1D23A0031392E202335D6BDB1D23A00F0
:1010E30032302E202336D6BDB1D23A0032312E20F3
:1010F3002337D6BDB1D23A0032322E202338D6BDA3
:10110300B1D23A0032332E202331D3B2B1D23A00D6
:1011130032342E202332D3B2B1D23A0032352E20CC
:101123002333D3B2B1D23A0032362E202334D3B292
:10113300B1D23A0032372E202335D3B2B1D23A009E
:1011430032382E202336D3B2B1D23A0032392E2090
:10115300BFAAC6F4B3F6BBF5C8B7C8CF3A0033305D
:101163002E20BDBBD2D7CAB1BCE43A0033312E2006
:10117300B2BBD5D2C1E3C4A3CABD3A0033322E20D9
:10118300BFAAC6F4D3B2B1D2C6F73A0033332E2086
:10119300BFAAC6F4B9ABBDBBBFA83A0033342E20F7
:1011A300B6C1BFA8CAB1BCE43A0033352E20D4DDA2
:1011B300B4E6D6BDB1D2C4A3CABD3A0033362E209D
:1011C300CEE5D4AAD6BDB1D2D4DDB4E63A003337E6
:1011D3002E20CAAED4AAD6BDB1D2D4DDB4E63A002D
:1011E30033382E20BFAAC6F441434443C4A3BFE906
:1011F3003A0025750025752E25750025752E253099
:10120300327500256275002532627800253032621E
:101213007800800FE40F800FF40F8010040F80100C
:10122300140F8010240D8010320D8010400F801099
:10123300500B80105C0B8010680D8010760D8010B1
:10124300850B8010910980109B0B8010A70B8010D9
:10125300B30B8010BF0B8010CB0B8010D70B80100B
:10126300E30B8010EF0B8010FB0B8011070B801139
:10127300130B80111F0B80112B0B8011370B801167
:10128300430B80114F118011610D80116F0F80117D
:101293007F0F80118F0F80119F0D8011AD11801171
:1012A300BF118011D1118011E31100050005000564
:1012B3000001000100010001000500050005000513
:1012C30000100001000100050005000500050005F0
:1012D30000050005000500050005000500050005E3
:1012E30000050001000500010001000100020001EA
:1012F300000100010001410184004213C5000041C7
:101303000206014113C7004205FE0000410001002F
:10131300C120C121C19DC122C19FC11E4100000046
:10132300412E1C00412E1400412E1500412E1600A3
:10133300C125412E1B01412E1A00411C9500412D50
:10134300DD00412DDE00412DDF00C100412DE10014
:10135300412DE200412DE300412DE400412DE50044
:10136300412DE600C103C104C105C106C107C1087F
:10137300C109C10AC10BC10CC10DC10E412DE7004A
:10138300462D6A080001009600412DB000C12901D5
:101393001500412E1D00411CDA00411CD600411CE2
:1013A300DE01411CD801C123C124411CDC006200C1
:1013B30026ED00008005800F000A801B001E00142C
:1013C300801180330036003C80390028802D80272F
:1013D300002280630066006C80690078807D8077DE
:1013E300007200508055805F005A804B004E0044CD
:1013F300804180C300C600CC80C900D880DD80D77F
:1014030000D200F080F580FF00FA80EB00EE00E4EC
:1014130080E100A080A580AF00AA80BB00BE00B41D
:1014230080B180930096009C80990088808D80878E
:10143300008281830186018C81890198819D819736
:10144300019201B081B581BF01BA81AB01AE01A4A4
:1014530081A101E081E581EF01EA81FB01FE01F455
:1014630081F181D301D601DC81D901C881CD81C746
:1014730001C201408145814F014A815B015E0154F4
:10148300815181730176017C81790168816D816766
:10149300016281230126012C81290138813D813795
:1014A300013201108115811F011A810B010E010404
:1014B300810183030306030C83090318831D831728
:1014C300031203308335833F033A832B032E032414
:1014D300832103608365836F036A837B037E0374C5
:1014E300837183530356035C83590348834D8347B6
:1014F300034203C083C583CF03CA83DB03DE03D464
:1015030083D183F303F603FC83F903E883ED83E7D5
:1015130003E283A303A603AC83A903B883BD83B704
:1015230003B203908395839F039A838B038E038473
:10153300838102808285828F028A829B029E02942B
:10154300829182B302B602BC82B902A882AD82A79D
:1015530002A282E302E602EC82E902F882FD82F74C
:1015630002F202D082D582DF02DA82CB02CE02C43B
:1015730082C182430246024C82490258825D8257ED
:10158300025202708275827F027A826B026E02645B
:10159300826102208225822F022A823B023E02348C
:1015A300823182130216021C82190208820D8207FD
:1015B300020200CFB5CDB3D5FDD4DAC6F4B6AF2C55
:1015C30020C7EBC9D4B5C800D5FDD4DAB8FCB8C47C
:1015D300C9CCC6B7D3E0C1BF2E2E2E00C9CCC6B727
:1015E300D3E0C1BFB8FCB8C4CAA7B0DC2100C9CCE2
:1015F300C6B7D3E0C1BFB8FCB8C4B3C9B9A621000C
:1016030020202020C4E3C8B7B6A8B8FCB8C4C2F0F1
:101613003F00C8B7B6A8454E54455220C8A1CFFBDA
:1016230043414E43454C00D5FDD4DAB8FCB8C4C998
:10163300CCC6B7BCDBB8F12E2E2E00C9CCC6B7BCC6
:10164300DBB8F1B8FCB8C4CAA7B0DC2100C9CCC66A
:10165300B7BCDBB8F1B8FCB8C4B3C9B9A621002044
:10166300202020C4E3C8B7B6A8CCEDC2FAC2F03F2D
:1016730000D5FDD4DACCEDC2FA2E2E2E00CCEDC26D
:10168300FAB2D9D7F7CAA7B0DC2100CCEDC2FAB2BF
:10169300D9D7F7B3C9B9A62100CAE4C8EBB2E3BCF2
:1016A300DCB1E0BAC53A00B1E0BAC5CAE4C8EBB4EC
:1016B300EDCEF300C7EBCAE4C8EBC6E4CBFCB1E064
:1016C300BAC500C4E3C8B7B6A8CCEDC2FAB4CBB26E
:1016D300E3BCDCC2F03F00D5FDD4DACCEDC2FAB5F1
:1016E300B1C7B0B2E3BCDC2E2E2E00B2E3BCDCCC1F
:1016F300EDC2FAB2D9D7F7CAA7B0DC2100B2E3BC76
:10170300DCCCEDC2FAB2D9D7F7B3C9B9A62100250B
:101713007300B2B9D3B2B1D200C8A1D6BDB1D20061
:101723002020C4E3C8B7B6A82573C2F03F00202029
:10173300D5FDD4DA2573002573CAA7B0DC210025B3
:1017430073B3C9B9A6210020202020C4E3C8B7B6CB
:10175300A8CDACB2BDC2F03F00D5FDD4DACDACB25A
:10176300BD2C20C7EBC9D4B5C82E2E2E00CDACB2EC
:10177300BDB2D9D7F7B3C9B9A621002020C4E3C8A5
:10178300B7B6A8C7E5B5E3C2F03F00D5FDD4DAC7C5
:10179300E5B5E32C20C7EBC9D4B5C82E2E2E00C760
:1017A300E5B5E3CDEAB1CFA3ACC7EBBACBB6D42151
:1017B30000C7E5B5E3BDF0B6EE3A20257500C7E5F1
:1017C300B5E3BDF0B6EE3A2025752E257500C7E5C5
:1017D300B5E3BDF0B6EE3A2025752E2530327500FF
:1017E300312EBBF5B5C0B2CECAFD00322EBCD3C27A
:1017F300FAC8ABB2BFBBF5B5C000332EB2B9D3B292
:10180300B1D2CDEAB3C900342EC8ABCFB5CDB3CD79
:10181300ACB2BD00352EBCD3C2FAB2E3BCDCBBF51F
:10182300B5C000362EC8A1D6BDB1D2CDEAB3C9002A
:10183300372E3520BDC7D3B2B1D2C7E5B5E30038E3
:101843002E3120D4AAD3B2B1D2C7E5B5E300392EE5
:10185300C9E8B1B8B9DCC0ED0031302E20CFB5CD29
:10186300B3B2CECAFD0031312E20BDBBD2D7BCC727
:10187300C2BC0031322E20BBF5BCDCC5E4D6C300AC
:1018830031332E20B3F6B3A7C4ACC8CFC5E4D6C357
:101893000031342E20B4D3BBFACCEDBBF5002020AD
:1018A300C8B7B6A8B3F6B3A7C5E4D6C3C2F03F0022
:1018B300C8B7B6A8454E54455220C8A1CFFB4341F3
:1018C3004E43454C0030002020D5FDD4DAB1A3B4FB
:1018D300E6002000B1A3B4E6CAA7B0DCA3ACD6D817
:1018E300D0C2C9E8D6C33F002020454E54455220FC
:1018F300202043414E43454C008017E30A8017EEF6
:101903000E8017FD0C80180A0C8018170E801826FD
:101913000C8018330E8018420E8018510A80185C10
:101923000C8018690C8018760C801883108018942A
:101933000C312EB2E3BCDCB1E0BAC53A00322ECA98
:10194300C7B7F1C6F4D3C33A00332ED7EEB4F3B41A
:10195300E6BBF5C1BF3A00342EB5DAD2BBBBF5B551
:10196300C03A00352EB5DAB6FEBBF5B5C03A00363F
:101973002EB5DAC8FDBBF5B5C03A00372EB5DACBC4
:10198300C4BBF5B5C03A00382EB5DACEE5BBF5B524
:10199300C03A00392EB5DAC1F9BBF5B5C03A00310A
:1019A300302E20B5DAC6DFBBF5B5C03A0031312E93
:1019B30020B5DAB0CBBBF5B5C03A00C7EBCAE4C873
:1019C300EBC3DCC2EB3A00C3DCC2EBB4EDCEF321D4
:1019D3000025627500202020002000202020200008
:1019E300CAE4C8EBB2E3BCDCB1E0BAC53A00B1E08B
:1019F300BAC5CAE4C8EBB4EDCEF300C7EBCAE4C87A
:101A0300EBC6E4CBFCB1E0BAC5008019340B8019F6
:101A1300400B80194C0D80195A0B8019660B8019E5
:101A2300720B80197E0B80198A0B8019960B801913
:101A3300A20D8019B00D8019BE0B8019CA090001CF
:101A4300000100020001000100010001000100018A
:101A5300000100012020C4E3C8B7B6A8C2F03F00CC
:101A6300C8B7B6A8454E54455220C8A1CFFB434141
:101A73004E43454C002020C3BBD3D0BDBBD2D7BC03
:101A8300C7C2BC00D6BDCAD53A00CFD6D6BDCAD5CB
:101A93003A003159CAD53A00CFD63159CAD53A009E
:101AA300354ACAD53A00CFD6354ACAD53A00315954
:101AB300D5D23A00CFD63159D5D23A00354AD5D20C
:101AC3003A00CFD6354AD5D23A0025303575202590
:101AD30073256C752E2530326C7500256C752E259B
:101AE30030326C7500801A570B801A6314801A7891
:101AF3000E801A8706801A8D08801A9506801A9B15
:101B030008801AA306801AA908801AB106801AB79A
:101B130008801ABF06801AC508A575FF07758E03CE
:101B230078FEE4F6D8FD758187A575FB00759008EE
:101B3300A502801B63A502808F75E493A3F8540765
:101B4300240CC8C333C4540F4420C8834004F45640
:101B5300800146F6DFE4800B010204081020408078
:101B63009012F9E47E019360CCA3FF543F30E50962
:101B7300541FFEE493A360010ECF54E0B4E01CE4D1
:101B830093FBA3E493FAA3E493F9A3E493A558A3E3
:101B930009E970010ADFF4DEF280C854C025E06071
:101BA300254097E493A3FAE493A3F8E493A3C8C569
:101BB30082C8CAC583CAF0A3C8C582C8CAC583CAB6
:101BC300DFE9DEE7809DE493A3F8E493A34003F603
:101BD3008001F208DFF4808B312EBBF5B5C0B1E094
:101BE300BAC53A2000322EC9CCC6B7D3E0C1BF3A3A
:101BF3002000332EB5A5BCDB3A2000342EBBF5B54F
:101C0300C0D7B4CCAC3A2000352EC9CCC6B7B1E0AE
:101C1300BAC53A200025303262750025336275005B
:101C230025750025752E25750025752E25303275F1
:101C330000256275002532627500BBF5B5C02530FD
:101C4300326275D3E0C1BFA3BA00801BDB0C801BDB
:101C5300E80C801BF508801BFE0C801C0B0C20007D
:101C63002020202020202020202020202020202071
:101C73002020202000C7EBCAE4C8EBB1E0BAC53A84
:101C83002000B1E0BAC5CAE4C8EBB4EDCEF300C797
:101C9300EBCAE4C8EBC6E4CBFCB1E0BAC500202034
:101CA3002020202020202020202020202020202031
:101CB300202000C2D5E830E70FB2D5E4C39BFBE494
:101CC3009AFAE499F9E498F8EC30E71BB2D5A51237
:101CD300801CF2A512800675E4C39BFBE49AFAE428
:101CE30099F9E498F88005A51280067530D50DE4BE
:101CF300C39FFFE49EFEE49DFDE49CFCA5224742B6
:101D0300323331320057494E31323532000D51965C
:101D130010526405050505050505050404040408BA
:101D23000807FF010101010101010102020202038F
:101D33000306FF50505050505050501B1B1B1B0D9F
:101D43000D18FF09090909090909092E2E2E2E006C
:101D53000048FF000000010000000A0000006400CA
:101D63000003E800002710000186A0000F42400096
:101D730098968005F5E10008000100960000000038
:101D8300000000000000000000000000010000004F
:101D930000020003040800010096000800010096F9
:101DA30000F09005DDE0FFA3E09016B1CFF0A3EFC4
:101DB300F0E49005DFF09005DDF0A3F09013C5E0AB
:101DC300FEA3E0FF9023F2EEF0A3EFF0E4A3F0A371
:101DD300F0A3F09005DFE0B401139005DDE0FEA36E
:101DE300E0FF9023F2EE8FF0A5128005ACD3902391
:101DF300F3E094009023F2E0940050057F0002206A
:101E0300D99013C7742CF07E007F147D007B007A79
:101E13000579EAA5128008789013C7E0FF25E0252D
:101E2300E024F8F582E43403F583E4939023F4F09B
:101E3300FD7C00C004C005EF25E025E024F5F58214
:101E4300E43403F583A5128007D378EA7C057D008B
:101E5300D007D006A5128004D99023F4E0FF24EA2A
:101E6300F582E43405F5837420F09003B0E0FCA31D
:101E7300E0FDEC6003021F85ED24F6603D24A670AF
:101E830003021F1924636003021F8574EB2FF9E417
:101E93003405FA7B00C003C002C0017B807A03795A
:101EA3008990263EA5128007C99023F2E0FFA3E0A4
:101EB300902641CFF0A3EF021F739023F4E024EBAD
:101EC300F9E43405FA7B00C003C002C0017B807AC9
:101ED30003798C90263EA5128007C99003B0E0FADF
:101EE300A3E0FB9023F2E0FEA3E0FFAD03AC02A569
:101EF30012800518902641EEF0A3EFF09023F2E054
:101F0300FEA3E0FFAD03AC02A512800518902643A3
:101F1300ECF0A3ED805A9023F4E024EBF9E43405CC
:101F2300FA7B00C003C002C0017B807A03799290E0
:101F3300263EA5128007C99003B0E0FAA3E0FB9008
:101F430023F2E0FEA3E0FFAD03AC02A51280051867
:101F5300902641EEF0A3EFF09023F2E0FEA3E0FF22
:101F6300AD03AC02A512800518902643ECF0A3ED57
:101F7300F0D001D002D003A512800CDA9023F4E054
:101F83002FF09023F4E004F0D2137B007A0579EA72
:101F930090263DA5128007C99023F4E0A512807511
:101FA30090900373E0FEA3E0FFC39023F3E09F90C0
:101FB30023F2E09E40509013C77436F0D213E0FF33
:101FC30025E025E024F5F582E43403F583A51280AA
:101FD30007D390263DA5128007C9EF25E025E0240D
:101FE300F8F582E43403F583E493902640F07D0111
:101FF300E4FFA5128075979005DFE064017048A5A2
:102003001280CB5E80419013C77404F0D213E0FFBB
:1020130025E025E024F5F582E43403F583A5128059
:1020230007D390263DA5128007C9EF25E025E024BC
:10203300F8F582E43403F583E493902640F07D01C0
:10204300E4FFA512807597E47F64FEFDFC90267182
:102053007417F0A37415F0A512806C919016A9E083
:10206300B4011A9016ABE0FCA3E0FDE4FFA51280D7
:10207300EF5BE49016A9F09016ABF0A3F09016AACC
:10208300E0B4011A9016ADE0FCA3E0FD7F01A512B8
:1020930080EF5BE49016AAF09016ADF0A3F09016D3
:1020A300AFE0B4011A9016B1E0FCA3E0FD7F64A594
:1020B3001280EF5BE49016AFF09016B1F0A3F090AE
:1020C30016B0E0B4010EA51280EF53E49016B0F001
:1020D300A3F0A3F07F00A522E49023E9F0FE7F574D
:1020E300FD7B007A037968A5128008787E037F4719
:1020F3007D007B007A1379C9A5128008787E037F5F
:10210300DE7D007B007A0F79D8A5128008789015C0
:10211300F67401F0A3F07E027F297D007B007A0331
:1021230079BFA5128008789005C77401F07E037FFC
:10213300137D007B007A0C796AA512800878E47F0E
:1021430064A512806C887E007F867D007B007A0206
:1021530079E1A512800878D211E490263DF0D212DD
:10216300FDFFA512807F59D211E490263DF0D212D3
:10217300FD7F01A512807F59D213900485A512809B
:1021830007D390263DA5128007C9900488A5128025
:10219300758ED21390043DA5128007D390263DA5DA
:1021A300128007C9900440E493902640F07D01E437
:1021B300FFA512807597E47F64A512806C887F0069
:1021C300A522E49023E9F0A3F0A3F0A3F0FE7F148B
:1021D300FD7B007A0579EAA5128008789015F9E06D
:1021E300FF75F037900FDDA5128007B2E0D394009E
:1021F300401875F037EF90100EA5128007B2E0FF7C
:10220300F460199013C8EFF080129015F9E075F09F
:102213003790100EA5128007B274FFF09015F9E005
:1022230075F03790100EA5128007B2E0F4700280AB
:102233002D9013C8E075F006900007A5128007B231
:10224300E0700280199013C8E075F006900004A5B1
:10225300128007B2E0FF540A7004EF20E0419013AC
:10226300C7740EA5128075619013C77419F0D21349
:10227300E0FF25E025E024F5F582E43403F583A5AA
:10228300128007D390263DA5128007C9EF25E025CC
:10229300E024F8F582E43403F583E4930225A9905E
:1022A30013C77427F09003B0E0FEA3E0FFEE6003D2
:1022B300022407EF24F6605724A670030223852423
:1022C3006360030224077B807A03799A90263EA5F4
:1022D300128007C99013C7E025E025E024F5F582B5
:1022E300E43403F583A5128007D3902641A5128019
:1022F30007C99013C8E075F006900005A512800782
:10230300B2E0FFA3E0902644CFF0A3EF0223F67BD5
:10231300807A0379A090263EA5128007C99013C73F
:10232300E025E025E024F5F582E43403F583A512E6
:102333008007D3902641A5128007C99013C8E07582
:10234300F006900005A5128007B2E0FAA3E0FB9027
:1023530003B0E0FCA3E0FDAF03AE02A512800518B5
:10236300902644EEF0A3EFF09003B0E0FCA3E0FD71
:10237300AF03AE02A512800518902646ECF0A3ED3C
:1023830080717B807A0379A990263EA5128007C9C4
:102393009013C7E025E025E024F5F582E43403F546
:1023A30083A5128007D3902641A5128007C99013F5
:1023B300C8E075F006900005A5128007B2E0FAA305
:1023C300E0FB9003B0E0FCA3E0FDAF03AE02A51277
:1023D300800518902644EEF0A3EFF09003B0E0FCE4
:1023E300A3E0FDAF03AE02A512800518902646ECCC
:1023F300F0A3EDF07B007A0579EAA512800CDA9060
:1024030023E9EFF0A512807C50C21EE4902E05F064
:102413009017107406F09003B8E06401600302257E
:10242300769013C3E054FB60030225769013C8E053
:1024330075F006900005A5128007B2E0FEA3E0D375
:102443009400EE94005003022576D2137B007A05A4
:1024530079EA90263DA5128007C99023E9E09026EA
:1024630040F07D01E4FFA5128075979023EB742D56
:10247300A5128075619003B9E0FF7E007C037DE8BF
:10248300A512800505E4FCFDA512806C8B900F98C6
:10249300E475F001A5128005AC9013C8E075F00651
:1024A300900005A5128007B2E0FEA3E0FF900F980D
:1024B300E0FCA3E0FDA5128165AA9023ECEFF07088
:1024C30076900E77E064A07045A5128087F0A51280
:1024D30080B75E9013C8E075F006900005A51280E2
:1024E30007B2E0FCA3E0FD7F02A51280EF5B90132F
:1024F300C8E075F006900005A5128007B2E0FFA3BF
:10250300E09013C5CFF0A3EFF07F010225D8900E22
:1025130077E064A170079013C77430801F900E7723
:10252300E0FF64A5600AEF64A66005EF64A7706E20
:102533009013C7743180059013C77431F0D213E040
:10254300FF25E025E024F5F582E43403F583A512A5
:102553008007D390263DA5128007C9EF25E025E02B
:1025630024F8F582E43403F583E493902640F0E401
:10257300FD801BD2137B007A0579EA90263DA512D4
:102583008007C99023E9E0902640F07D01E4FFA590
:1025930012807597E47FD07E07A512806C89E49042
:1025A30013C8F0FF802F902640F07D01E4FFA512B1
:1025B300807597E47FD07E07A512806C89A5128071
:1025C3007C50C21EE4902E05F09013C8F0901710B3
:1025D3007406F07F00A522E49023E9F09005FEE065
:1025E3007002A3E0700590020604F0900206E06416
:1025F3000160030226EA9015E9E064016003022604
:1026030098C39015E8E094F49015E7E09401500323
:10261300022698E4F0A3F09003B8E06401704790B9
:1026230013C3E054FB703F9013C77435A512807534
:1026330061A512806C859013C7742FA512806C4915
:10264300A512813BA6EF640160030226FBD213901F
:1026530013C7A512806C4CA512813BA6EF640160E1
:10266300030226FB80739013C77434A5128075612F
:10267300A512806C33A512813BA6EF64017079D259
:10268300139013C7A512806C4CA512813BA6EF646F
:1026930001706580449015E9E06401705BC3901597
:1026A300E8E094FA9015E7E09400404C9013C77467
:1026B30034A512807561A512806C33A512813BA6E7
:1026C300EF64017033D2139013C7A512806C4CA52D
:1026D30012813BA6EF6401701F9005FEE04402F0F7
:1026E300A3E0F07F01802A9013C77410A5128075B0
:1026F300617F02A5128076A2901710E004F0A51264
:1027030080A7D3BF01047F028007A512806C857F59
:1027130001A522E49023E9F0A3F0A3F0A3F0A3F032
:10272300A3F0A3F0A3F09023E9F0A3F09005C7E092
:1027330064016016D39013C6E094009013C5E0942F
:102743000040077F01A512808E60302007A512800C
:102753007FBDC220301E1CD211E490263DF0D21260
:102763007D01FFA512807F59C21EE4902E05F090D3
:1027730013C8F090036FE0640160030228D1900551
:10278300C7E0640170030228D1A51280AC31EF7059
:10279300030228D1A512813C209023E9EEF0A3EF98
:1027A300F04E7008A5128077FC0228C99023E9E057
:1027B300FEA3E0FF9013C6E02FFF9013C5E03EFE9B
:1027C300C3900374E09F900373E09E50349013C74B
:1027D3007403A5128075617F02A5128076A2E47F3F
:1027E300DC7E05A512806C89A5128077FC9013C549
:1027F300E0FCA3E0FD4C70028050AF05AE0402295B
:102803004BA512813BE6902E11740AF0902E11E035
:10281300600FA512813C17EF7007A512806DCE8063
:10282300EB902E11E0702CA5128077FC9023E9E049
:10283300FFA3E0900375CFF0A3EFF0A51280BDA92D
:102843009013C5E07002A3E0707C901710F07F0234
:102853000229529023E9E0FEA3E0FF9013C5EE8F17
:10286300F0A5128005AC900F7EA512800751E4FC01
:10287300FDA5128005DA900F7EA5128007A5900FA3
:102883009AA5128007519023E9E0FEA3E0FFE4FC40
:10289300FDA5128005DA900F9AA5128007A5901660
:1028A300AA7401F09023E9E0FEA3E0FF9016ADEED9
:1028B3008FF0A5128005AC9003B5E0FFA3E090155F
:1028C300D6CFF0A3EFF0E47F14A512806C88E490D8
:1028D30023EFF09023EDF0A3F0900373E0FEA3E069
:1028E300FFC39013C6E09F9013C5E09E4052A5120C
:1028F300808049A512801DBFA51281480690036FF1
:10290300E06401702D9005C7E064016025902E11ED
:102913007401F0902E11E06019A51280AC31EF60C4
:1029230007A5128077FC800AE47F0AA512806C88D1
:1029330080E1E47FF47E01A512806C897F01800F22
:102943009013C5E0FEA3E0FFA512801DC77F00A57D
:10295300229015F9E0FF75F037900FDDA51280077F
:10296300B2E0D39400402275F037EF90100EA51219
:102973008007B2E0FFF460239015F9E0FE9013C8DE
:10298300EFF0900205EEF080129015F9E075F03744
:1029930090100EA5128007B274FFF09015F9E07540
:1029A300F03790100EA5128007B2E0F47002801287
:1029B3009013C8E075F006900007A5128007B2E0F7
:1029C30070669013C7740EA5128075619013C77457
:1029D30019F0D213E0FF25E025E024F5F582E43475
:1029E30003F583A5128007D390263DA5128007C95E
:1029F300EF25E025E024F8F582E43403F583E4933E
:102A0300902640F07D01E4FFA512807597E47FD006
:102A13007E07A512806C89E49013C8F09015ECE052
:102A23004401F07F02022ACA9013C8E075F00690B1
:102A33000004A5128007B2E030E004540A606790F6
:102A430013C7740EA5128075619013C77419F0D261
:102A530013E0FF25E025E024F5F582E43403F58354
:102A6300A5128007D390263DA5128007C9EF25E064
:102A730025E024F8F582E43403F583E493902640BB
:102A8300F07D01E4FFA512807597E47FD07E07A552
:102A930012806C89E49013C8F09015ECE04401F0C7
:102AA300E49013C8801A9013C8E075F006900005EF
:102AB300A5128007B2E0FEA3E04E70099013C8F0A0
:102AC300F07F0180027F00A522E49023E9F0A3F0C8
:102AD300A3F0A3F0A3F09005DFE0B401169005DDA9
:102AE300E0FEA3E0FF9013C6E02FFF9013C5E03E86
:102AF300FE80089013C5E0FEA3E0FF9013C8E075C5
:102B0300F006900005A5128007B2E0FCA3E0D39F76
:102B1300EC9E5003022CC59013C77433A512807525
:102B2300619013C77427F09003B0E0FEA3E0FFEEBB
:102B33006003022C89EF24F6605724A67003022C4D
:102B43000724636003022C897B807A03799A902699
:102B53003EA5128007C99013C7E025E025E024F5C0
:102B6300F582E43403F583A5128007D3902641A5AB
:102B7300128007C99013C8E075F006900005A512EE
:102B83008007B2E0FFA3E0902644CFF0A3EF022C2E
:102B9300787B807A0379A090263EA5128007C9909E
:102BA30013C7E025E025E024F5F582E43403F5833B
:102BB300A5128007D3902641A5128007C99013C898
:102BC300E075F006900005A5128007B2E0FAA3E0D5
:102BD300FB9003B0E0FCA3E0FDAF03AE02A51280BF
:102BE3000518902644EEF0A3EFF09003B0E0FCA3A9
:102BF300E0FDAF03AE02A512800518902646ECF067
:102C0300A3ED80717B807A0379A990263EA512807B
:102C130007C99013C7E025E025E024F5F582E434E5
:102C230003F583A5128007D3902641A5128007C917
:102C33009013C8E075F006900005A5128007B2E076
:102C4300FAA3E0FB9003B0E0FCA3E0FDAF03AE0208
:102C5300A512800518902644EEF0A3EFF09003B080
:102C6300E0FCA3E0FDAF03AE02A512800518902699
:102C730046ECF0A3EDF07B007A0579EAA512800C0F
:102C8300DA9023E9EFF0D2137B007A0579EA9026F4
:102C93003DA5128007C99023E9E0902640F07D010D
:102CA300E4FFA512807597E47FDC7E05A512806C96
:102CB30089E49013C8F09015ECE04401F07F010221
:102CC3002E819005DFE064016003022E5E7F01A583
:102CD3001280AC029023ECEFF06003022E2D9015CE
:102CE300DAF0A37403F09015DAE07002A3E0700346
:102CF300022DF3A51280AEE39023EDEFF0640160A3
:102D030003022DEB9005DDE0FFA3E09023EACFF073
:102D1300A3EFF09023EAE0FEA3E0FF9013C5EE8F4C
:102D2300F0A5128005AC900F7EA512800751E4FC3C
:102D3300FDA5128005DA900F7EA5128007A5900FDE
:102D43009AA5128007519023EAE0FEA3E0FFE4FC7A
:102D5300FDA5128005DA900F9AA5128007A590169B
:102D6300AA7401F09023EAE0FEA3E0FF9016ADEE13
:102D73008FF0A5128005AC7E007F247D007B007A56
:102D8300037909A512800878E4900351F090035366
:102D9300F0900356F09005DFF09005DDF0A3F0907E
:102DA30016A9E0B4011A9016ABE0FCA3E0FDE4FF22
:102DB300A51280EF5BE49016A9F09016ABF0A3F098
:102DC3009016AAE064016003022CE99016ADE0FCC2
:102DD300A3E0FD7F01A51280EF5BE49016AAF090BB
:102DE30016ADF0A3F0022CE9A5128063DD022CE9F5
:102DF3009015DAE07002A3E0707A9016B004A51281
:102E0300801DA49013C8E075F006900005A51280FC
:102E130007B2E0FEA3E0FF9013C5E0FCA3E0FDD3FF
:102E2300EF9DEE9C404E7F0180549016B07401A537
:102E330012801DA49013C8E075F006900005A5123A
:102E43008007B2E0FEA3E0FF9013C5E0FCA3E0FD22
:102E5300D3EF9DEE9C401D7F01802390036FE0B470
:102E630001129005C7E0B4010B9005DCE030E004EB
:102E73007F01800AE49005DCF09005D6F0FFA522DF
:102E83007F019023ECEFF0E4A3F0A3A5128080462A
:102E93009023ECE06003022FCB9013C77414A512A8
:102EA3008075617E007F147D007B007A0579EAA539
:102EB300128008789003B0E0FEA3E0FFEE60030207
:102EC3002FC8EF24F6603D24A67003022F6024630D
:102ED30060030231237B807A0379B490263EA512E6
:102EE3008007C99004A5A5128007D3902641A51297
:102EF3008007C99013C5E0FFA3E0902644CFF0A359
:102F0300EF022FB77B807A0379B990263EA5128012
:102F130007C99004A5A5128007D3902641A5128066
:102F230007C99003B0E0FAA3E0FB9013C5E0FEA34A
:102F3300E0FFAD03AC02A512800518902644EEF025
:102F4300A3EFF09013C5E0FEA3E0FFAD03AC02A531
:102F530012800518902646ECF0A3ED80577B807A0B
:102F63000379C190263EA5128007C99004A5A51236
:102F73008007D3902641A5128007C99003B0E0FAD9
:102F8300A3E0FB9013C5E0FEA3E0FFAD03AC02A5F5
:102F930012800518902644EEF0A3EFF09013C5E0DD
:102FA300FEA3E0FFAD03AC02A512800518902646F0
:102FB300ECF0A3EDF07B007A0579EAA512800CDA38
:102FC3009023EEEFF00231239023ECE064026003E0
:102FD3000231729013C77414A5128075617E007F4D
:102FE300147D007B007A0579EAA5128008789003A6
:102FF300B0E0FEA3E0FFEE6003023123EF24F660AE
:103003003A24A670030230A7246360030231237BB2
:10301300807A0379CB90263EA5128007C99004BD20
:10302300A5128007D3902641A5128007C9900E7977
:10303300A51280073390264402310E7B807A0379F0
:10304300D190263EA5128007C99004BDA512800722
:10305300D3902641A5128007C99003B0E0FEA3E0F8
:10306300FFFBAA06E4F9F8900E79A512800733A5B1
:1030730012800675902644A5128007A59003B0E040
:10308300FEA3E0FFFBAA06E4F9F8900E79A51280EF
:103093000733A512800675AC00AD01AE02AF0390F5
:1030A300264880677B807A0379DB90263EA51280D1
:1030B30007C99004BDA5128007D3902641A51280AD
:1030C30007C99003B0E0FEA3E0FFFBAA06E4F9F80A
:1030D300900E79A512800733A512800675902644B9
:1030E300A5128007A59003B0E0FEA3E0FFFBAA06AC
:1030F300E4F9F8900E79A512800733A512800675BE
:10310300AC00AD01AE02AF03902648A5128007A51F
:103113007B007A0579EAA512800CDA9023EEEFF0B2
:10312300D2137B007A0579EA90263DA5128007C960
:103133009023EEE0902640F07D01E4FFA512807518
:1031430097E47F64A512806C889013C8E0FF901603
:10315300B9F0E4A3F075F006EF900005A51280071F
:10316300B2E0FFA3E09016BBCFF0A3EFF08029906D
:1031730023ECE0640170219013C77414A5128075C9
:10318300617F02A5128076A2E47F64A512806C8819
:103193009016B9E09013C8F0E49016B8A51280DE3B
:1031A300DD9023EDEFF0BF0704E40236EE9023ED4C
:1031B300E0A5128007E031D50034AC0134AC02360F
:1031C3007E03367E0431D505367E0736AA08000015
:1031D30036FB9023ECE06003B402219013C8E07542
:1031E300F006900005A5128007B2E0FEA3E0FFC33E
:1031F3009013C6E09FF09013C5E09EF09023ECE09F
:10320300B401229016BBE0FEA3E0FF9013C5E0FCDF
:10321300A3E0FDC39FEC9E400CED9FFFEC9E90133B
:10322300C5F0A3EFF09013C7741AA51280756190CF
:1032330023ECE060030233B5A512809C56EF7027A0
:10324300900370E0B40116B4011DA3E0FEA3E0FFF8
:10325300C39013C6E09F9013C5E09E500A7F02A55A
:10326300128076A20233B57E007F147D007B007A44
:103273000579EAA5128008789003B0E0FEA3E0FF89
:10328300EE600302338CEF24F6603D24A670030244
:1032930033242463600302338C7B807A0379B490F4
:1032A300263EA5128007C99004A5A5128007D390D6
:1032B3002641A5128007C99013C5E0FFA3E090261D
:1032C30044CFF0A3EF02337B7B807A0379B9902656
:1032D3003EA5128007C99004A5A5128007D39026A6
:1032E30041A5128007C99003B0E0FAA3E0FB901355
:1032F300C5E0FEA3E0FFAD03AC02A5128005189064
:103303002644EEF0A3EFF09013C5E0FEA3E0FFAD7B
:1033130003AC02A512800518902646ECF0A3ED80BD
:10332300577B807A0379C190263EA5128007C99006
:1033330004A5A5128007D3902641A5128007C99042
:1033430003B0E0FAA3E0FB9013C5E0FEA3E0FFADFA
:1033530003AC02A512800518902644EEF0A3EFF00B
:103363009013C5E0FEA3E0FFAD03AC02A5128005F8
:1033730018902646ECF0A3EDF07B007A0579EAA5D8
:1033830012800CDA9023EEEFF0D2137B007A0579EA
:10339300EA90263DA5128007C99023EEE0902640CF
:1033A300F07D01E4FFA512807597E47FC8A5128024
:1033B3006C889013C8E0FF75F006900007A5128093
:1033C30007B2E014F075F006EF900007A51280072E
:1033D300B2E070139013C8E075F006900004A512D4
:1033E3008007B2E04404F09023EDE0B4051390139A
:1033F300C8E075F006900004A5128007B2E044020D
:10340300F0A51280BD7E900F86A512800751901300
:10341300C8E075F006900005A5128007B2E0FEA390
:10342300E0FFE4FCFDA5128005DA900F86A512806B
:1034330007A5900F8AE475F001A5128005ACA512CB
:1034430080BDA79023ECE0B401059016BF800390E4
:1034530016BEA512814AFBE49016B8F0A3E0FDA3C3
:10346300E0FBA3E0FFA3E09023F3CFF0A3EFF0E4AE
:10347300FFA512814FF89015D4E4F0A37464F09083
:1034830015D4E07002A3E0601BA5128086F65008F5
:10349300E4FDFFA5128086D2A51280B0A39023EF8E
:1034A300EFF080DB7F0002371CA51280755C901360
:1034B300C8E075F006900004A5128007B2E044024C
:1034C300F09023ECE0FF600764026003023643A53B
:1034D30012809C56EF64016003023622FE7F14FDC6
:1034E3007B007A0579EAA5128008789003B0E0FEA4
:1034F300A3E0FFEE60030235FFEF24F6603D24A650
:103503007003023597246360030235FF7B807A03DF
:1035130079B490263EA5128007C99004A5A5128010
:1035230007D3902641A5128007C99013C5E0FFA3D6
:10353300E0902644CFF0A3EF0235EE7B807A037947
:10354300B990263EA5128007C99004A5A51280074D
:10355300D3902641A5128007C99003B0E0FAA3E0F7
:10356300FB9013C5E0FEA3E0FFAD03AC02A5128000
:103573000518902644EEF0A3EFF09013C5E0FEA3E8
:10358300E0FFAD03AC02A512800518902646ECF0CF
:10359300A3ED80577B807A0379C190263EA51280E4
:1035A30007C99004A5A5128007D3902641A51280D0
:1035B30007C99003B0E0FAA3E0FB9013C5E0FEA3B4
:1035C300E0FFAD03AC02A512800518902644EEF08F
:1035D300A3EFF09013C5E0FEA3E0FFAD03AC02A59B
:1035E30012800518902646ECF0A3EDF07B007A05D7
:1035F30079EAA512800CDA9023EEEFF0D2137B0068
:103603007A0579EA90263DA5128007C99023EEE05A
:10361300902640F07D01E4FFA51280759780077F17
:1036230002A5128076A2E47FE87E03A512806C894E
:103633009013C5E0FFA3E09005E8CFA512803722E1
:10364300A51280BD6B900F8CE475F001A512800567
:10365300ACA51280BDA7A5128083F19023ECE0B442
:1036630001059016BF80039016BEE0FFA512814AA4
:10367300FDA512814FDD7F0202371CA51280755C08
:10368300A51280BD6B9023ECE0B401059016BF80BA
:10369300039016BEE0FFA512814AFDA512814FDDFE
:1036A300E47FC47E09803BA51280755C9013C8E05B
:1036B30075F006900004A5128007B2E04404F0A55B
:1036C3001280BD7E9023ECE0B401059016BF800309
:1036D3009016BEA512814AFBA512814FDDE47FE857
:1036E3007E03A512806C897F00802EA51280DEDD0B
:1036F3009023EDEFF00231B09016B9E0FDA3E0FBAB
:10370300A3E0FFA3E09023F3CFF0A3EFF09016B86C
:10371300E0FFA512814FF87F00A5229005E8EEF0A7
:10372300A3EFF0E49013C5F0A3F0E49023F0F0A32B
:10373300F0A3F0A3F0A3F0A3F0A3F0A304F0A3F08D
:10374300A3F0E4A3F0A3F09023FDF0A3F0A512806F
:10375300CB5EA51280AEBD900373E0FEA3E0FFD362
:103763009005E9E09F9005E8E09E4005EEF0A3EFA9
:10377300F09013C7741BA512807561A512806C8528
:103783007E007F147D007B007A0579EAA51280080C
:10379300789003B0E0FEA3E0FFEE60030238A5EFEC
:1037A30024F6603D24A6700302383D2463600302BF
:1037B30038A57B807A0379B490263EA5128007C989
:1037C3009004A1A5128007D3902641A5128007C9B2
:1037D3009005E8E0FFA3E0902644CFF0A3EF023882
:1037E300947B807A0379B990263EA5128007C9900D
:1037F30004A1A5128007D3902641A5128007C99082
:1038030003B0E0FAA3E0FB9005E8E0FEA3E0FFAD20
:1038130003AC02A512800518902644EEF0A3EFF046
:103823009005E8E0FEA3E0FFAD03AC02A51280051E
:1038330018902646ECF0A3ED80577B807A0379C17C
:1038430090263EA5128007C99004A1A5128007D334
:10385300902641A5128007C99003B0E0FAA3E0FBCC
:103863009005E8E0FEA3E0FFAD03AC02A5128005DE
:1038730018902644EEF0A3EFF09005E8E0FEA3E0F5
:10388300FFAD03AC02A512800518902646ECF0A309
:10389300EDF07B007A0579EAA512800CDA9023F625
:1038A300EFF0D2137B007A0579EA90263DA51280CA
:1038B30007C99023F6E0A512806C789015EB74018C
:1038C300F0E49016A3F0A3F0A3F0A3F09005E8E0D2
:1038D300FEA3E0FF7C007D32A5128005189023FD36
:1038E300EFF0A512815EA79023FCEFF06003023B8B
:1038F30045A3E0FFC3132414FEE43390170AF0A397
:10390300CEF090170AE07002A3E07003023B457B00
:10391300007A2379FEA512815F689023FCEFF060A3
:1039230003023B397B007A037952902402A512806B
:1039330007C97A03792DA512815EE39023FCEFF08A
:10394300BF01BF900352E064016003023A0E90038B
:103953002DE0FF900363E4F0A3EFF0E4A3F0A3F002
:10396300900363E0FAA3E0FB7C007D32FFAE02A587
:10397300128005059016A3EEF0A3EFF07D647F009F
:103983007E00A512800505A3EEF0A3EFF09016A329
:10399300E0FEA3E0FFC39005E9E09FFF9005E8E0A8
:1039A3009EFE9016A5E0FCA3E0FDC3EF9DFFEE9CF9
:1039B3009005E8F0A3EFF0900F92EA8BF0A5128048
:1039C30005AC900FB8A5128007519016A3E0FEA393
:1039D300E0FFE4FCFDA5128005DA900FB8A5128084
:1039E30007A5900F8EA5128007519016A3E0FEA3A2
:1039F300E0FFE4FCFDA5128005DA900F8EA512808E
:103A030007A5900F94E4F5F0023AEA900352E0D34D
:103A13009401500302390590032DE0FF900363E402
:103A2300F0A3EFF090032EE0FF900365E4F0A3EF23
:103A3300F0900363E0FAA3E0FB7C007D32FFAE026B
:103A4300A5128005059016A3EEF0A3EFF090036591
:103A5300E0FEA3E0FF7D64A5128005059016A5EEA8
:103A6300F0A3EFF09016A3E0FEA3E0FFC39005E9F7
:103A7300E09FFF9005E8E09EFE9016A5E0FCA3E022
:103A8300FDC3EF9DFFEE9C9005E8F0A3EFF0900FD0
:103A930092EA8BF0A5128005AC900FB8A5128007AF
:103AA300519016A3E0FEA3E0FFE4FCFDA512800500
:103AB300DA900FB8A5128007A5900F8EA512800784
:103AC300519016A3E0FEA3E0FFE4FCFDA5128005E0
:103AD300DA900F8EA5128007A5900365E0FEA3E0A0
:103AE300FF900F94EE8FF0A5128005AC900FC2A546
:103AF300128007519016A5E0FEA3E0FFE4FCFDA5AC
:103B0300128005DA900FC2A5128007A5900F8EA52B
:103B1300128007519016A5E0FEA3E0FFE4FCFDA58B
:103B2300128005DA900F8EA5128007A5E490170A7C
:103B3300F0A3F00239057FE87E03A5128063E1025A
:103B430039059005E8E0FEA3E0FFD39400EE94006E
:103B530040129023FA7401F0900377EEF0A3EFF094
:103B6300D2228005E49023FAF09016A3E0FCA3E0B0
:103B7300FDD39400EC9400500E9016A6E0940090B0
:103B830016A5E09400401A9016A5E0FAA3E0FBE422
:103B9300FFA512814F49E49016A3F0A3F0A3F0A36D
:103BA300F09023FAE07003023D6CA51280BDA9904A
:103BB30013C77401A5128075619013C77420F07E3A
:103BC300007F147D007B007A0579EAA512800878CE
:103BD3009013C7E0FF25E025E024F8F582E43403E1
:103BE300F583E493FD7C00C004C005EF25E025E0E8
:103BF30024F5F582E43403F583A5128007D378EA2C
:103C03007C057D00D007D006A5128004D99013C788
:103C1300E025E025E024F8F582E43403F583E4931A
:103C23009023F6F09003B0E0FEA3E0FFEE60030202
:103C33003D42EF24F6604024A67003023CD6246381
:103C43006003023D429023F6E024EAF9E43405FAE6
:103C53007B00C003C002C0017B807A037989902670
:103C63003EA5128007C9900377E0FFA3E0902641A9
:103C7300CFF0A3EF023D309023F6E024EAF9E434D9
:103C830005FA7B00C003C002C0017B807A03798CF4
:103C930090263EA5128007C99003B0E0FAA3E0FB8B
:103CA300900377E0FEA3E0FFAD03AC02A51280050D
:103CB30018902641EEF0A3EFF0900377E0FEA3E027
:103CC300FFAD03AC02A512800518902643ECF0A3C8
:103CD300ED805A9023F6E024EAF9E43405FA7B00F8
:103CE300C003C002C0017B807A03799290263EA56F
:103CF300128007C99003B0E0FAA3E0FB900377E0DA
:103D0300FEA3E0FFAD03AC02A51280051890264187
:103D1300EEF0A3EFF0900377E0FEA3E0FFAD03AC7A
:103D230002A512800518902643ECF0A3EDF0D00114
:103D3300D002D003A512800CDA9023F6E02FF0D244
:103D4300137B007A0579EA90263DA5128007C99076
:103D530023F6E0902640F07D01E4FFA512807597DD
:103D63007FD07E07A5128063E1A512809172900334
:103D7300B2E064016039900358E07023C390035AA2
:103D8300E09401900359E094004014900373E0FE23
:103D9300A3E0FF900362E09F900361E09E500990CF
:103DA30005FFE04408F080079005FFE054F7F07F3B
:103DB30000A522E49023E9F0A5128083F19005FF8A
:103DC300E04440F09013C7740DA5128075617F0124
:103DD300A522E49023E9F0A3F0A3F0902E0CF09039
:103DE3000001F0A5128080499002067402F0302091
:103DF30007A512807FBDC220901CAC7401F0E49033
:103E030015EFF0FBFAFD7F05A51280EB0EA51281DD
:103E130044C5A51280420AA512808FC440EF9015B5
:103E2300EF7401F0E4FBFAFD7F06A51280EB0EE4CC
:103E33009005DFF09005DDF0A3F0901CACF0D213F9
:103E430090043DA5128007D390263DA5128007C993
:103E5300900440A51280758ED2137B807A0379E794
:103E630090263DA5128007C99026407401F0FDE419
:103E7300FFA512807597A512807C509002067401ED
:103E8300F0E49005FEF0A3F0D21D202007A51280D8
:103E93007FE9D220D21FA5128097E09013B6E0707D
:103EA30003201D0D9013B7E060079005FFE0440267
:103EB300F07D53E4FFA51280DEF3BF02079005FFF8
:103EC300E04440F0E4901710F0900367F090018312
:103ED300F0A3F0A51281432D9023EAEEF0A3EFF0B7
:103EE3007F00A522E49023E9F0A3F0201F03024101
:103EF300E8A5128080499013C77410A512807561DC
:103F0300E47FC8A512806C889005FEE0FEA3E0FF65
:103F130030E0099023EA74F1F0023FCDEF30E1097C
:103F23009023EA74F2F0023FCDEF30E2099023EAE6
:103F330074F3F0023FCDEF30E3099023EA74F4F019
:103F4300023FCDEF30E4089023EA74F5F0807BEF75
:103F530030E5089023EA74F6F0806FEF30E60890BE
:103F630023EA74F7F08063EF30E7089023EA74F8EC
:103F7300F08057EE30E0089023EA74F9F0804BEEBE
:103F830030E1089023EA74FAF0803FEE30E20890C3
:103F930023EA74FBF08033EE30E3089023EA74FCE9
:103FA300F08027EE30E4089023EA74FDF0801BEEE6
:103FB30030E5089023EA74FEF0800FEE9023EA3098
:103FC300E60574E1F0800374FFF0202203024189C7
:103FD300900377E07002A3E070030241897B807A4B
:103FE3000379E990263EA5128007C99023EAE09061
:103FF3002641F07B007A0579EAA512800CDA90233A
:10400300E9EFF09013C77420F0E0FE25E025E024EB
:10401300F8F582E43403F583E493FD7C00C004C027
:1040230005EE25E025E024F5F582E43403F583A5C8
:10403300128007D3C00174EA2FF9E43405A801FC08
:104043007D00D001D007D006A5128004D99013C7F4
:10405300E025E025E024F8F582E43403F583E493D6
:10406300FF9023E9E02FF09003B0E0FEA3E0FFEE22
:104073006003024185EF24F6604024A670030241E9
:1040830019246360030241859023E9E024EAF9E4FB
:104093003405FA7B00C003C002C0017B807A037938
:1040A3008990263EA5128007C9900377E0FFA3E01D
:1040B300902641CFF0A3EF0241739023E9E024EA75
:1040C300F9E43405FA7B00C003C002C0017B807AA7
:1040D30003798C90263EA5128007C99003B0E0FABD
:1040E300A3E0FB900377E0FEA3E0FFAD03AC02A5E2
:1040F30012800518902641EEF0A3EFF0900377E0CD
:10410300FEA3E0FFAD03AC02A51280051890264381
:10411300ECF0A3ED805A9023E9E024EAF9E43405B6
:10412300FA7B00C003C002C0017B807A03799290BE
:10413300263EA5128007C99003B0E0FAA3E0FB90E6
:104143000377E0FEA3E0FFAD03AC02A512800518E0
:10415300902641EEF0A3EFF0900377E0FEA3E0FF9B
:10416300AD03AC02A512800518902643ECF0A3ED35
:10417300F0D001D002D003A512800CDA9023E9E03D
:104183002FF0C22280267B807A0379E990263EA510
:10419300128007C99023EAE0902641F07B007A055C
:1041A30079EAA512800CDA9023E9EFF0D2137B00B1
:1041B3007A0579EA90263DA5128007C99023E9E0A4
:1041C300902640F07D01E4FFA512807597E47FC837
:1041D300A512806C88900000E004F0E0C3940240D4
:1041E30004C21FE4F090038EE0B40117900001E0D5
:1041F300700CA512808F63EF700404F08005A51284
:1042030080A7CA7F01A522E49023EEF0D20FA3F08A
:10421300A3F00249129023EFE06003024922F0D297
:104223000FA512807C50D2139018FCA5128007D3DF
:1042330090263DA5128007C99018FFA51280758EA0
:10424300D213901900A5128007D390263DA51280A2
:1042530007C9901903E493902640F07D01E4FFA57C
:1042630012807597A512807F4B9023EC7401F0A305
:1042730004F0200F03024614A512808E6C9023F0E5
:10428300EFF024F3700302441124F2700302440C90
:1042930024CB700302436024086003024603902387
:1042A300EDE06402702DD21190263D7402F0D2121B
:1042B300E4FDFFA512807F599023ED7401F0902354
:1042C300ECE07006740DF00246039023ECE014F06A
:1042D300024603D2139023ECE0FF25E025E024FC03
:1042E300F582E43418F583A5128007D390263DA503
:1042F300128007C9EF25E025E024FFF582E4341896
:10430300F583E493902640F07D01E4FFA5128075C8
:10431300979023ECE07005740DF080069023ECE099
:1043230014F0D2139023ECE0FF25E025E024FCF504
:1043330082E43418F583A5128007D390263DA51295
:104343008007C9EF25E025E024FFF582E43418A5B2
:104353001280758C9023ED7401F00246039023EDD7
:10436300E06401701AA512807F4B9023ECE0B40D3A
:1043730005E4F00244039023ECE004F0024403D28A
:10438300139023ECE0FF25E025E024FCF582E434E0
:1043930018F583A5128007D390263DA5128007C97F
:1043A300EF25E025E024FFF582E43418A51280759B
:1043B3008C9023ECE0B40D04E4F080069023ECE051
:1043C30004F0D2139023ECE0FF25E025E024FCF574
:1043D30082E43418F583A5128007D390263DA512F5
:1043E3008007C9EF25E025E024FFF582E43418F5C2
:1043F30083E493902640F07D01E4FFA51280759736
:104403009023ED7402F0024603C20F024603C21169
:10441300E490263DF0D212FDFFA512807F59A5122C
:10442300807C509023ECE0A5128007E044570044C1
:104433006301446F02447303447A04448605448F42
:1044430008449609449D0A44A40B44AB0C44B20DA2
:10445300000044B7A512815255A512807E5C80549A
:10446300A512815255A5128076D780487F01801509
:10447300A5128159FC803DA512815255A512815484
:10448300C080317F02A5128156F88028A51280CD05
:104493003B8021A51280F247801AA51280F39580F4
:1044A30013A51280592E800CA51280B8E88005A5AB
:1044B3001280E89D9023EDE06402600302454E9074
:1044C30023ECE07017D213901930A5128007D39014
:1044D300263DA5128007C9901933802FD21390234C
:1044E300ECE0FF25E025E024F8F582E43418F583B9
:1044F300A5128007D390263DA5128007C9EF25E0BA
:1045030025E024FBF582E43418F583A51280758E2B
:10451300D2139023ECE0FF25E025E024FCF582E4B0
:104523003418F583A5128007D390263DA512800782
:10453300C9EF25E025E024FFF582E43418F583E490
:1045430093902640F07D01E40245E19023ECE0B432
:104553000D17D2139018FCA5128007D390263DA502
:10456300128007C99018FF802FD2139023ECE0FF2D
:1045730025E025E02400F582E43419F583A51280B3
:1045830007D390263DA5128007C9EF25E025E02437
:1045930003F582E43419F583E493902640F07D011A
:1045A300E4FFA512807597D2139023ECE0FF25E07A
:1045B30025E024FCF582E43418F583A5128007D3A3
:1045C30090263DA5128007C9EF25E025E024FFF5DD
:1045D30082E43418F583E493902640F0E4FDFFA5CC
:1045E300128075979023EDE014FDD21190263D744F
:1045F30002F0D212E4FFA512807F59A512807C50ED
:10460300A512806DC97F0A7E00A5128064890242CB
:1046130075E47F2C7E01FDFC9026717417F0A37462
:1046230015F0A512806C91A512813ABED211E490C7
:10463300263DF0D212FDFFA512807F59D211E490DE
:10464300263DF0D212FD7F01A512807F59902E15D1
:10465300E0700330254ED2137B807A1879CA9026F6
:104663003DA5128007C9902640740AA51280759350
:10467300D2137B807A1879D590263DA5128007C97D
:104683009026407401F0FDE4FFA512807597E47F46
:10469300C47E09FDFC9026717417F0A37415F0A570
:1046A30012806C91902E15E07003024783A512804F
:1046B300E07FE47F64A512806C88A51280BD7EE450
:1046C3007F64A512806C887E017F807D007B007AE9
:1046D3002379F1A5128008787F807E027D087C0013
:1046E3007537237538F1753901753A80A51280A4A1
:1046F300C1E49023EEF09023EEE0FF75F0069023E3
:10470300F5A5128007B2E0FE75F006EF900007A54D
:10471300128007B2E06E70579023EEE075F00690BA
:1047230023F2A5128007B2E0FE75F006EF900004B5
:10473300A5128007B2E0B506369023EEE075F006C9
:104743009023F3A5128007B2E0FCA3E0FD75F00609
:10475300EF900005A5128007B2E0FEA3E0B5050FB8
:10476300EEB5040B9023EEE004F0E0644070879014
:1047730023EEE064406004A37401F0E4902E15F08E
:10478300202503024876A51280BDA9E47F64A51203
:10479300806C887E007F577D007B007A257971A528
:1047A300128008787F807E017D087C00753725752F
:1047B3003871753900753A57A51280A4C1902571D7
:1047C300E0FF900368E06F600302486E902572E09B
:1047D300FEA3E0FF900369E06E7003A3E06F600344
:1047E30002486E902574E0FEA3E0FF90036BE06E39
:1047F3007003A3E06F7074902576E0FEA3E0FF9052
:10480300036DE06E7003A3E06F7060902578E0FFA6
:1048130090036FE06F7054902579E0FF900370E090
:104823006F704890257AE0FEA3E0FF900371E0B536
:104833000639A3E0B5073490257CE0FEA3E0FF90A2
:104843000373E0B50625A3E0B50720902580E0FEBD
:10485300A3E0FF900377E0B50611A3E0B5070C9042
:1048630025C7E0FF9003BEE06F60069023EF74015D
:10487300F0C2259023EFE07003024919A512807C52
:1048830050D2137B807A1879D790263DA5128007E2
:10489300C99026407413A512807593D2137B807A36
:1048A3001879EB90263DA5128007C9902640741015
:1048B300F07D01E4FFA512807597902E11740FF01F
:1048C300E49023EEF0902E11E0603BA512806DCEB4
:1048D300A512808E6C9023F0EFF0F460E89023F043
:1048E300E024E56010240E70DCE49023EFF09023C5
:1048F300EE04F0800A9023EF7401F09023EEF09021
:1049030023EEE0B401BF902E11E060030242189041
:1049130023EFF00242189023EF7401F0024218A52E
:1049230002807C509025E3EDF09025E2EFF0E490D7
:1049330025E4F0902605F0EF14602014602814603D
:104943003814605C24F7607A240D60030249E79011
:104953000357E020E0030249E2807C900358E030F3
:10496300E00280738079900358E030E0028011E424
:104973009025E4F090035D8019900358E030E00A3D
:10498300902603E4F0A304F0805AE49025E4F09029
:10499300035FE0FFA3E0902603CFF0A3EFF0804492
:1049A3009013BAE0FF30E7028020EF5406600890CE
:1049B30025E47403F0802D9013BAE030E0028017F1
:1049C300801D9013C3E0FF30E7089025E47402F0E4
:1049D3008012EF540360089025E47401F08005E42D
:1049E3009025E4F0301103024C299025E2E0FF25E5
:1049F300E025E02411F582E4340CF583E493FD7C97
:104A030000C004C005EF25E025E0240EF582E43460
:104A13000CF583A5128007D378E57C257D00D007AC
:104A2300D006A5128004D99025E2E0FF6402600855
:104A3300EF64036003024B869025E4E06003024BBE
:104A4300869003B0E0FEA3E0FFEE6003024B23EF8A
:104A530024F6602A24A6606F24636003024B237B41
:104A6300807A0B79EF90263EA5128007C990260322
:104A7300E0FFA3E0902641CFF0A3EF024B117B8030
:104A83007A0B79F290263EA5128007C99003B0E015
:104A9300FAA3E0FB902603E0FEA3E0FFAD03AC0224
:104AA300A512800518902641EEF0A3EFF09026039F
:104AB300E0FEA3E0FFAD03AC02A51280051890262B
:104AC30043ECF0A3ED80477B807A0B79F890263E88
:104AD300A5128007C99003B0E0FAA3E0FB90260378
:104AE300E0FEA3E0FFAD03AC02A5128005189026FB
:104AF30041EEF0A3EFF0902603E0FEA3E0FFAD0349
:104B0300AC02A512800518902643ECF0A3EDF07BD0
:104B1300007A2579F9A512800CDA902605E02FF0AA
:104B2300902605E0FF7E009025E2E025E025E024C5
:104B330011F582E4340CF583E49324E5F9E4342598
:104B4300A801FC7D007B007A2579F9A5128004D9A0
:104B53009025E3E0FDD2137B007A2579E590263D8D
:104B6300A5128007C99025E2E025E025E02411F590
:104B730082E4340CF583E493FF902605E0FEEF2EE8
:104B8300024C1C9025E4E0FF25E025E02451F5824A
:104B9300E4340CF583E493FD7C00C004C005EF25E9
:104BA300E025E0244EF582E4340CF583A51280075A
:104BB300D3C0019025E2E025E025E02411F582E44D
:104BC300340CF583E49324E5F9E43425A801FC7D52
:104BD30000D001D007D006A5128004D99025E3E0C8
:104BE300FDD2137B007A2579E590263DA512800737
:104BF300C99025E4E025E025E02451F582E4340C56
:104C0300F583E493FF9025E2E025E025E02411F508
:104C130082E4340CF583E4932F902640F0E4FFA55F
:104C23001280759780059025E4E0FFA5229025C8A2
:104C3300E0FF7D019025E1EDF09025E0EFF0601BB2
:104C4300E0FF64016015EF64026010EF6403600B22
:104C5300EF64046006EF6003B40D119025E0E0FFFC
:104C6300A3E0FDC211A51280492780419025E1E010
:104C7300FDD2139025E0E0FF25E025E0240EF58228
:104C8300E4340CF583A5128007D390263DA512804A
:104C930007C9EF25E025E02411F582E4340CF58300
:104CA300E493902640F0E4FFA512807597A5229027
:104CB30025D1E0FDD2117F019025D5EFF0A3EDF0D2
:104CC300E49025EEF0A3F09025EDF0FE7F16FD7B3A
:104CD300007A2579D7A5128008789025D6E0640359
:104CE3007003024D7FE0FF25E025E02450F582E4C8
:104CF300341CF583E493FD7C00C004C005EF25E07C
:104D030025E0244DF582E4341CF583A5128007D3F6
:104D130078D77C257D00D007D006A5128004D93032
:104D23001105A51280E0989025D6E0FF25E025E047
:104D33002450F582E4341CF583E493FE9025EDE0E2
:104D4300FCEE2C24D7F582E43425F583E4F090259A
:104D5300D5E0FDD2137B007A2579D790263DA512A5
:104D63008007C9EF25E025E02450F582E4341CF5E3
:104D730083E4932C902640F0E4024E5020113AD263
:104D8300139025D6E0FF25E025E0244DF582E43499
:104D93001CF583A5128007D390263DA5128007C971
:104DA300EF25E025E02450F582E4341CF583E493F9
:104DB300902640F0E4FD024E509025D6E0FF25E01A
:104DC30025E02450F582E4341CF583E493FD7C0054
:104DD300C004C005EF25E025E0244DF582E4341C32
:104DE300F583A5128007D378D77C257D00D007D023
:104DF30006A5128004D9A51280E0989025D6E0FF7D
:104E030025E025E02450F582E4341CF583E493FE89
:104E13009025EDE0FCEE2C24D7F582E43425F583D0
:104E2300E4F09025D5E0FDD2137B007A2579D79065
:104E3300263DA5128007C9EF25E025E02450F58221
:104E4300E4341CF583E4932C902640F0E4FFA51290
:104E5300807597A5229025CCEFF0A3EDF0E4902583
:104E6300D8F0A37405F07E007F0A7D007B007A25CD
:104E730079CEA5128008789025CCE0FF64027057A4
:104E8300EF25E025E0244DF582E4341CF583A512DB
:104E93008007D3C003C002C001EF25E025E0245002
:104EA300F582E4341CF583E493FD9025CDE0902551
:104EB300F2F07B007A2579CEA3A5128007C97A2563
:104EC30079D99025F6A5128007C9D001D002D00365
:104ED300A5128079E880599025CCE0FF25E025E0F4
:104EE300244DF582E4341CF583A5128007D3C00357
:104EF300C002C001EF25E025E02450F582E4341C14
:104F0300F583E493FD9025CDE090260BF07B007AAA
:104F13002579CEA3A5128007C97A2579D990260FC2
:104F2300A5128007C9D001D002D003A51280D6C331
:104F33009025D8EFF0A512807C509025D8E064012D
:104F43007031C21190263DF0D212FDFFA512807F71
:104F5300599025CCE0FF7A257BCE9025F57425F07A
:104F6300A374D9F0D212E4FDFCA51280E0C5A5120A
:104F7300807C50C3A5229025D2E0FDD211E4FF909E
:104F830025D7EFF0A3EDF0E4A3F0FE7F2CFD7B002B
:104F93007A2D79B1A512800878201137D213902584
:104FA300D8E0FF25E025E02415F582E43412F583EB
:104FB300A5128007D390263DA5128007C9EF25E0EF
:104FC30025E02418F582E43412A51280758C7F0045
:104FD3000250D69025D8E0FF25E025E02418F5827D
:104FE300E43412F583E493FD7C00C004C005EF258F
:104FF300E025E02415F582E43412F583A512800739
:10500300D378B17C2D7D00D007D006A5128004D9BA
:105013009025D8E0FF25E025E02418F582E434123A
:10502300F583E49324B1F582E4342DAD82FC90251D
:10503300F37425F0A374D9F0C212E4FBFAA512812C
:1050430000009025D7E0FDD2137B007A2D79B19033
:10505300263DA5128007C99025D8E025E025E02448
:1050630018F582E43412F583E493FF9025D9E0FE2A
:10507300EF2E902640F0E4FFA5128075979025D877
:10508300E0FF25E025E02418F582E43412F583E4FB
:1050930093FE9025D9E0FDEE2D24B1F582E4342D65
:1050A300F583E4F0EF25E025E02418F582E43412DB
:1050B300F583E493FF2DFDE433FCD3ED9414EC640A
:1050C300809480400C9025D9E0FEEF2E24ECFF80E5
:1050D300027F00A5229025CCEFF0A3EDF0E490250C
:1050E300ECF0A3F0C2109025CCE0FF25E024ADF551
:1050F30082E43412F5837401939025EDF0EF601888
:1051030064016014EF6402600FEF6407600AEF64E8
:10511300086005EF6409705B9025CCE0FF25E0256E
:10512300E02415F582E43412F583A5128007D3C079
:1051330003C002C001EF25E025E02418F582E43422
:1051430012F583E493FD9025CDE09025F2F07B00EA
:105153007A2579CEA3A5128007C97A2579ED902502
:10516300F6A5128007C9D001D002D003A512807919
:10517300E880599025CCE0FF25E025E02415F58251
:10518300E43412F583A5128007D3C003C002C00123
:10519300EF25E025E02418F582E43412F583E49347
:1051A300FD9025CDE090260BF07B007A2579CEA3E8
:1051B300A5128007C97A2579ED90260FA5128007DD
:1051C300C9D001D002D003A51280D6C39025ECEF3D
:1051D300F0A512807C509025ECE064017031C2117F
:1051E30090263DF0D212FDFFA512807F599025CC69
:1051F300E0FF7A257BCE9025F37425F0A374EDF0C0
:10520300D212E4FDFCA512810000A512807C50A2FD
:1052130010A5229025C9E0FD7F019025CCEFF0A3D6
:10522300EDF0E4A3F0FE7F1AFD7B007A2579CFA58C
:10523300128008789025CDE0A5128007E052620025
:1052430052D401537C0253EE03549604550805557A
:10525300B00656220756CA08576609000058367B1F
:10526300807A1A79CD90263EA5128007C9900FA2A5
:10527300E0FFA3E0902641CFF0A3EFF09025CDE02F
:1052830025E025E024F4F582E4341AF583A51280A1
:1052930007D3902643A5128007C99003B0E0FEA36D
:1052A300E0FFFBAA06E4F9F8900F9EA512800733EE
:1052B300A512800675902646A5128007A59003B017
:1052C300E0FEA3E0FFFBAA06E4F9F8900F9E025765
:1052D300399025CDE0FF25E025E024F7F582E4347D
:1052E3001AF583E493FD7C00C004C005EF25E02597
:1052F300E024F4F582E4341AF583A5128007D37809
:10530300CF7C257D00D007D006A5128004D9902537
:10531300CDE025E025E024F7F582E4341AF583E4B3
:10532300939025CEF024CFF9E43425FA7B00C00313
:10533300C002C0017B807A1A79DE90263EA51280D6
:1053430007C99003B0E0FEA3E0FFFBAA06E4F9F867
:10535300900F9AA512800733A512800675902641F7
:10536300A5128007A59003B0E0FEA3E0FFFBAA0609
:10537300E4F9F8900F9A02580B7B807A1A79CD9052
:10538300263EA5128007C9900FB6E0FFA3E0902642
:1053930041CFF0A3EFF09025CDE025E025E024F404
:1053A300F582E4341AF583A5128007D3902643A52A
:1053B300128007C99003B0E0FEA3E0FFFBAA06E456
:1053C300F9F8900FB2A512800733A51280067590E5
:1053D3002646A5128007A59003B0E0FEA3E0FFFBDD
:1053E300AA06E4F9F8900FB20257399025CDE0FFF1
:1053F30025E025E024F7F582E4341AF583E493FDF0
:105403007C00C004C005EF25E025E024F4F582E428
:10541300341AF583A5128007D378CF7C257D00D07D
:1054230007D006A5128004D99025CDE025E025E01C
:1054330024F7F582E4341AF583E4939025CEF0241F
:10544300CFF9E43425FA7B00C003C002C0017B809E
:105453007A1A79DE90263EA5128007C99003B0E040
:10546300FEA3E0FFFBAA06E4F9F8900FAEA51280B5
:105473000733A512800675902641A5128007A590D3
:1054830003B0E0FEA3E0FFFBAA06E4F9F8900FAE39
:1054930002580B7B807A1A79CD90263EA51280079D
:1054A300C9900FACE0FFA3E0902641CFF0A3EFF04B
:1054B3009025CDE025E025E024F4F582E4341AF5C7
:1054C30083A5128007D3902643A5128007C99003B2
:1054D300B0E0FEA3E0FFFBAA06E4F9F8900FA8A54D
:1054E30012800733A512800675902646A512800701
:1054F300A59003B0E0FEA3E0FFFBAA06E4F9F89051
:105503000FA80257399025CDE0FF25E025E024F7C9
:10551300F582E4341AF583E493FD7C00C004C005EE
:10552300EF25E025E024F4F582E4341AF583A5128F
:105533008007D378CF7C257D00D007D006A51280C5
:1055430004D99025CDE025E025E024F7F582E43465
:105553001AF583E4939025CEF024CFF9E43425FAA9
:105563007B00C003C002C0017B807A1A79DE9026DB
:105573003EA5128007C99003B0E0FEA3E0FFFBAA9B
:1055830006E4F9F8900FA4A512800733A51280064C
:1055930075902641A5128007A59003B0E0FEA3E015
:1055A300FFFBAA06E4F9F8900FA402580B7B807A5C
:1055B3001A79CD90263EA5128007C9900FCAE0FF45
:1055C300A3E0902641CFF0A3EFF09025CDE025E0B6
:1055D30025E024F4F582E4341AF583A5128007D379
:1055E300902643A5128007C99003B0E0FEA3E0FF15
:1055F300FBAA06E4F9F8900FC6A512800733A5129B
:10560300800675902646A5128007A59003B0E0FE9C
:10561300A3E0FFFBAA06E4F9F8900FC602573990FE
:1056230025CDE0FF25E025E024F7F582E4341AF5E3
:1056330083E493FD7C00C004C005EF25E025E0244E
:10564300F4F582E4341AF583A5128007D378CF7C6E
:10565300257D00D007D006A5128004D99025CDE082
:1056630025E025E024F7F582E4341AF583E49390EA
:1056730025CEF024CFF9E43425FA7B00C003C00221
:10568300C0017B807A1A79DE90263EA5128007C975
:105693009003B0E0FEA3E0FFFBAA06E4F9F8900F45
:1056A300C2A512800733A512800675902641A51264
:1056B3008007A59003B0E0FEA3E0FFFBAA06E4F990
:1056C300F8900FC202580B7B807A1A79CD90263E50
:1056D300A5128007C9900FC0E0FFA3E0902641CF39
:1056E300F0A3EFF09025CDE025E025E024F4F5824A
:1056F300E4341AF583A5128007D3902643A51280BC
:1057030007C99003B0E0FEA3E0FFFBAA06E4F9F8A3
:10571300900FBCA512800733A5128006759026460C
:10572300A5128007A59003B0E0FEA3E0FFFBAA0645
:10573300E4F9F8900FBCA512800733A51280067513
:10574300AC00AD01AE02AF0390264AA5128007A5B7
:105753007B007A2579CFA512800CDA9025CEEFF065
:105763000258369025CDE0FF25E025E024F7F582A9
:10577300E4341AF583E493FD7C00C004C005EF25EF
:10578300E025E024F4F582E4341AF583A5128007BA
:10579300D378CF7C257D00D007D006A5128004D90D
:1057A3009025CDE025E025E024F7F582E4341AF5D1
:1057B30083E4939025CEF024CFF9E43425FA7B00DB
:1057C300C003C002C0017B807A1A79DE90263EA511
:1057D300128007C99003B0E0FEA3E0FFFBAA06E432
:1057E300F9F8900FB8A512800733A51280067590BB
:1057F3002641A5128007A59003B0E0FEA3E0FFFBBE
:10580300AA06E4F9F8900FB8A512800733A5128011
:105813000675AC00AD01AE02AF03902645A512801C
:1058230007A5D001D002D003A512800CDA9025CEB3
:10583300E02FF09025CCE0FDD2137B007A2579CFC1
:1058430090263DA5128007C99025CEE0902640F012
:10585300E4FFA5028075979025F0E0FDD2117F014A
:105863009025F4EFF0A3EDF0201102C211E490268D
:105873000CF0FE7F16FD7B007A2579F6A5128008D1
:10588300789025F5E0FF25E025E02410F582E43447
:105893001AF583E493FD7C00C004C005EF25E025E1
:1058A300E0240DF582E4341AF583A5128007D3783A
:1058B300F67C257D00D007D006A5128004D990255B
:1058C300F5E0FF25E025E02410F582E4341AF583A2
:1058D300E49324F6F582E43425AD82FC9026127419
:1058E30026F0A3740CF0C212E4FBFAA51280F4C6EE
:1058F3009025F4E0FDD2137B007A2579F690263DBE
:10590300A5128007C99025F5E025E025E02410F5D0
:1059130082E4341AF583E493FF90260CE0FEEF2E25
:10592300902640F0E4FFA502807597E49025CAF025
:10593300A3F09025D4F09025EAF0A512807C50E4E2
:10594300902E1BF0902E1AF0FE7F0CFD7B007A2523
:1059530079D5A5128008789025D57408F0E4A3F0D2
:10596300A37408F0A37403F0A37407F0A37401F005
:10597300A37408F0A37405F0A3F0A37407F0E490F4
:1059830025CBF09025CBE0FFC39408501A74D72F92
:10599300F582E43425F583E0FF9025D6E02FF090DF
:1059A30025CBE004F080DCD2137B807A1979D89080
:1059B300263DA5128007C99026407403A512807561
:1059C30093D2137B807A1979DC90263DA512800748
:1059D300C99026407401F0FDE4FFA512807597E499
:1059E3007F64A512806C887E007F097D007B007A2E
:1059F3002579E1A5128008789025CA7408F0901AD9
:105A03003CE493FDE49025EFF07B007A2579E1A354
:105A1300A5128007C97A2579CA9025F3A5128007B4
:105A2300C9D210901A39A5128007D3A51280D92D97
:105A33009025EAEFF0A512807C509025EAE07013E0
:105A4300C21190263DF0D212FDFFA512807F59C3EB
:105A5300025ED3E49025EAF09025D5E0FF9025CAB5
:105A6300E0B5071A7E0078D77C257D007B007A2578
:105A730079E1A51280083F9025EAEFF08006902592
:105A8300EA7401F09025EAE06056C211E490263DE5
:105A9300F0D212FDFFA512807F59D213901A3DA5B3
:105AA300128007D390263DA5128007C9901A40A5FE
:105AB3001280758ED2137B807A1979DE90263DA5EC
:105AC300128007C99026407404F07D01E4FFA512FB
