:020000040000FA
:09000000021B84080001009600B7
:10000B00A5028134F9E4FFFEA54860090FEF7001EA
:07001B000EA56980F3A52288
:10002300A50280806BEFB40A09740DA51280003518
:10003300740A309811A899B8130CC2983098FDA887
:0F00430099C298B811F63099FDC299F599A52286
:10005300A502814DDD202020202020BBB6D3ADB9E1
:10006300E2C1D9002020C1E3C7AEB2BBD7E3202051
:1000730020200020202020D1A1D4F1C9CCC6B7B3C1
:10008300ACCAB120202020002020C7EBB2E5C8EB8A
:10009300B8FCD0A1C3E6B6EED6BDB1D2002020C7CE
:1000A300EBD1A1BBF5BBF2BCCCD0F8CDB6B1D2211C
:1000B30000C8B7B6A8454E54455220C8A1CFFB434C
:1000C300414E43454C0020202020C7EBC8A1C1E38B
:1000D300C7AE00C8A1CFFB43414E43454C0020208F
:1000E3002020CAE4C8EBB4EDCEF300C8B7B6A845E8
:1000F3004E544552002020C7EBCDB6C8EBD6BDB158
:10010300D2BBF2D3B2B1D200BFCDBBA7D3E0B6EE20
:100113003A00D1A1D4F1C6E4CBFCC9CCC6B7C2F036
:100123003F200020202020BBFAC6F7B9CAD5CF0054
:100133002020C9CCC6B7D2D1CADBCDEA002020200B
:10014300202020D0BBD0BB2100202020202020D481
:10015300DDCDA3B7FECEF10020202020D5D2C1E310
:10016300C6F7B9CAD5CF002020C7EBC9D4BAF22E3F
:100173002E2E00BDF0B6EEB2BBD7E32C20BCD3C706
:10018300AEC2F03F20002020D5FDD4DAB3F6BBF594
:100193002E2E2E002020D5FDD4DAD5D2C1E32E2E6B
:1001A3002E0020202020D5D2C1E3CAA7B0DC002036
:1001B300202020486F772061726520796F752100B8
:1001C300C7EBCAE4C8EBC6E4CBFCC9CCC6B7B1E005
:1001D300BAC5002020C7EBD1A1D4F1C6E4CBFCC93A
:1001E300CCC6B7002020C7EBC8A1BBF52E2E2E002E
:1001F3002020C7EBC8A1D7DFCDCBB1D22E2E2E0046
:100203002020C9CCC6B7BBF5B5C0B9CAD5CF00202D
:1002130020D1A1D4F1C6E4CBFCC9CCC6B7C2F03F10
:1002230000202020202020B2D9D7F7B3ACCAB100D8
:1002330020202020D5FDD4DACDCBBFEE00C7B7BF39
:10024300EE3A0020202020C7EBCDB6C8EBD3B2B1E5
:10025300D20020202020C7EBB2E5C8EBD6BDB1D237
:1002630000B2BBD5D2C1E3A3ACB9BAC2F2C7EBCDDE
:10027300B6B1D20020204556373733362D554220AC
:1002830056312E33002020BBB9D2AAB9BAC2F2C963
:10029300CCC6B7C2F03F00202020202020CEDEC1F4
:1002A300E3B1D2002020C9CCC6B7BCDBB8F13A0019
:1002B3002020CBF9D1A1C9CCC6B7D4DDCAB100C8BF
:1002C300B1BBF5002020B9CAD5CF002020CDCBB1DA
:1002D300D2BDF0B6EE3A002020B5B1C7B0BDF0B63E
:1002E300EE3A002020C7EBCBA2BFA82E2E2E002073
:1002F30020CDB6B1D22D3ED1A1BBF52D3EC8A1BBB9
:10030300F52020002020CCF9BFA82D3ED1A1BBF5BC
:100313002D3EC8A1BBF52020002020BFA8D3E0B606
:10032300EEB2BBD7E32E2E2E002020B6C1BFA8CA43
:10033300A7B0DC2E2E2E002020BFA8D3E0B6EE3AC5
:10034300002020BDF0B6EEB2BBD7E32E2E2E002048
:100353002020202020CFD6BDF0CFFBB7D100202016
:1003630020202020CBA2BFA8CFFBB7D1002020C7DD
:10037300EBD1A1BBF52100564D44455600564D52D5
:1003830045430025750025752E25750025752E25F9
:100393003032750025732025750025732025752EB1
:1003A30025750025732025752E253032750025739C
:1003B300257500257325752E257500257325752E46
:1003C30025303275002573256C75002573256C75F2
:1003D3002E256C75002573256C752E2530326C75B2
:1003E300002000B4FAC2EB3D253032627820008051
:1003F30000580E8000670E8000761480008B1480F6
:1004030000A0138000B4148000C90C8000D60A80B9
:1004130000E10C8000EE098000F81280010B0980D6
:100423000115108001260C8001330C8001400B80E4
:10043300014C0E80015B0E80016A0B8001761280F5
:1004430001890D8001970D8001A50C8001B21080F8
:1004530001C3128001D6108001E70B8001F30F80E6
:1004630002030E800212118002240E8002330C80DC
:100473000240058002460E8002550E8002641280FF
:100483000277108002881180029A0C8002A70B80E9
:1004930002B30E8002C2048002C7088002CE0B8022
:1004A30002DA0B8002E60B8002F214800307148049
:1004B300031C0F80032C0D80033A098003440D8035
:1004C30003520E8003610E8003700980037A058056
:1004D3000380058F828E83EDF5F0FFECFEE8FDE5EA
:1004E30082600205834583600EA548A55CA569A5C6
:1004F3006DD582F5D583F2ABF0ECFAE8F9A522EFDE
:100503008DF0A4A8F0CF8CF0A428CE8DF0A42EFEFD
:10051300A522BC000CBE002BEF8DF084FFADF0A52F
:1005230022E4CCF875F008EF2FFFEE33FEEC33FC3A
:10053300EE9DEC984005FCEE9DFE0FD5F0E9E4CE70
:10054300FDA522EDF8F5F0EE8420D21DFEADF07589
:10055300F008EF2FFFED33FD4008985007D5F0F278
:10056300A522C398FD0FD5F0E9A522C2D5EC30E74B
:1005730009B2D5E4C39DFDE49CFCEE30E717B2D588
:10058300E4C39FFFE49EFEA512800515C3E49DFD11
:10059300E49CFC8005A51280051530D507C3E49FB4
:1005A300FFE49EFEA522C5F0F8A3E028F0C5F0F80D
:1005B300E582158270021583E038F0A522A3F8E0E6
:1005C300C5F025F0F0E582158270021583E0C83886
:1005D300F0E8A522EF2BFFEE3AFEED39FDEC38FCF7
:1005E300A522E88FF0A4CC8BF0A42CFCE98EF0A418
:1005F3002CFC8AF0EDA42CFCEA8EF0A4CDA8F08BA1
:10060300F0A42DCC3825F0FDE98FF0A42CCD35F0E6
:10061300FCEB8EF0A4FEA9F0EB8FF0A4CFC5F02E77
:10062300CD39FEE43CFCEAA42DCE35F0FDE43CFCE0
:10063300A52275F008758200EF2FFFEE33FECD3350
:10064300CDCC33CCC58233C5829BED9AEC99E58240
:1006530098400CF582EE9BFEED9AFDEC99FC0FD5CC
:10066300F0D6E4CEFBE4CDFAE4CCF9A882A522B817
:1006730000C0B9005BBA002EEC8BF084CFCECDFC6A
:10068300E5F0CBF97818EF2FFFEE33FEED33FDECF9
:1006930033FCEB33FB10D703994004EB99FB0FD8E2
:1006A300E5E4F9FAA5227818EF2FFFEE33FEED33D8
:1006B300FDEC33FCC933C910D7059BE99A4007EC1D
:1006C3009BFCE99AF90FD8E0E4C9FAE4CCFBA52234
:1006D30075F010EF2FFFEE33FEED33FDCC33CCC8B6
:1006E30033C810D7079BEC9AE899400AED9BFDECC1
:1006F3009AFCE899F80FD5F0DAE4CDFBE4CCFAE400
:10070300C8F9A522EB9FF5F0EA9E42F0E99D42F07D
:10071300E89C45F0A522E0FCA3E0FDA3E0FEA3E0F6
:10072300FFA522E493FC740193FD740293FE74030A
:1007330093FFA522E0F8A3E0F9A3E0FAA3E0FBA569
:1007430022E493F8740193F9740293FA740393FB0C
:10075300A5227401FF3395E0FEFDFCA3A3A3E0CF24
:100763002FF0E582158270021583E0CE3EF0E5821C
:10077300158270021583E0CD3DF0E582158270028B
:100783001583E0CC3CF0A522ECF0A3EDF0A3EEF052
:10079300A3EFF0A522A42582F582E5F03583F58346
:1007A300A522E0FBA3E0FAA3E0F9A522EBF0A3EA7C
:1007B300F0A3E9F0A522E493FB740193FA74029386
:1007C300F9A522F8D0E0F5834480FBD0E0FAD0E02D
:1007D300F9A5487012A549700EA56AA549C0E0A500
:1007E30048C0E0C083A522A54A6860EFA56B80E1FD
:1007F300F8D0E0F5834480FBD0E0FAD0E0F9A548D7
:100803007012A549700EA56AA549C0E0A548C0E0CD
:10081300C083A522A54AB5F005A54B6860EAA56883
:1008230080DCE8CDFFECFEA548F5F0A54CA569A555
:100833006DB5F00670F17F00A52263F0806480D36C
:1008430095F07FFF40027F01A5228F828E83EDFF0B
:10085300ECFEE8FDE58260020583458370047F00BA
:10086300A522A548F5F0A54CA569A56DB5F006D55B
:1008730082F0D583ED7FFFB5F0030FA52240027F01
:1008830001A522EF4E6019EF60010EED89828A8384
:100893008BF0A558A569DFFADEF88BF0A982AA834D
:1008A300A522F8E0FBA3A3E0F925F0F0E582158289
:1008B30070021583E0FA38F0A522312ED6BDB1D2ED
:1008C300C6F7D7B4CCAC3A2000322ED3B2B1D2C6DD
:1008D300F7D7B4CCAC3A2000332E2331D5D2C1E3C1
:1008E300C6F7D7B4CCAC3A2000342E2332D5D2C1CC
:1008F300E3C6F7D7B4CCAC3A2000352E2333D5D298
:10090300C1E3C6F7D7B4CCAC3A2000362ECAD6BB67
:10091300FAC4A3BFE9D7B4CCACB2E2CAD400372E31
:10092300B6CCD0C5B2E2CAD400382EBBF5B5C0D719
:10093300B4CCAC00392EBBF5B5C0BCECB2E200318F
:10094300302E20D1A1BBF5B0B4C5A5BCECB2E200FA
:1009530031312E20D3CECFB7B0B4C5A5BCECB2E2B3
:100963000031322E20CDCBB1D2B0B4C5A5BCECB290
:10097300E20031332E20B6C1BFA8C6F7B2E2CAD413
:100983003A200031342E20BBF5B5C0B2E2CAD4BD43
:10099300E1B9FB00D5FDB3A300B9CAD5CF00CEDEC4
:1009A30000B2BBD7E300CEB400D5FD00B9CA00C87E
:1009B300B100C8B7B6A8454E54455220C8A1CFFBD5
:1009C30043414E43454C00C0DBBCC6B2E2CAD4B47B
:1009D300CECAFD3A20257500BBF5B5C0253032627D
:1009E30075B9CAD5CFB4CECAFD3A257500D5FDD4A5
:1009F300DABCECB2E220253032627520BBF5B5C01B
:100A03000020202020C7EBC9D4B5C82E2E2E0020ED
:100A130020BBF5B5C0B0E53A20B9CAD5CF20202018
:100A2300002020BBF5B5C025303262753A20B9CA23
:100A3300D5CF202020002020BBF5B5C02530326261
:100A4300753A20CEDEBBF5202020002020BBF5B573
:100A5300C02025303262753A2020D5FDB3A3200093
:100A630020202020D3B2B1D2C6F7B2E2CAD400C745
:100A7300EBCDB6B1D23A002020B1D2B6B7D2D1C2B3
:100A8300FA2C20C7EBB4A6C0ED2100D2D1CDB6C855
:100A9300EBBDF0B6EE3A20257500D2D1CDB6C8EB4A
:100AA300BDF0B6EE3A2025752E257500D2D1CDB610
:100AB300C8EBBDF0B6EE3A2025752E253032750011
:100AC3002020D3B2B1D2C6F7CAC7B7F1D5FDB3A3BD
:100AD3003F0020202020D6BDB1D2C6F7B2E2CAD44F
:100AE300002020D6BDB1D2C6F7CAC7B7F1D5FDB332
:100AF300A33F0020202020B0B4C5A5B2E2CAD42170
:100B030000CAE4C8EBB0B4C5A53A00CAE4C8EBB068
:100B1300B4C5A53A202562750020202020D3CECF6E
:100B2300B7B0B4C5A5B2E2CAD42100D3D0BCFCB0DF
:100B3300B4CFC22C20D4F2C3F9BDD0D2BBC9F900C3
:100B430020202020CDCBB1D2B0B4C5A5B2E2CAD407
:100B530021002530326275200020202020C4A3BF4D
:100B6300E9C3BBD3D0BFAAC6F400C4A3BFE9D5FD74
:100B7300C3A6A3ACC9D4BAF3D4D9CAD400C4A3BFFF
:100B8300E9B2E2CAD4CAA7B0DC00C4A3BFE9D5FD69
:100B9300B3A300564D4D53472562782562782562ED
:100BA3007825627825627800B2E2CAD4B6CCD0C583
:100BB300B7A2CBCDB3C9B9A600B2E2CAD4B6CCD0E2
:100BC300C5B7A2CBCDCAA7B0DC00B9CAD5CFB4FA9A
:100BD300C2EB203D20257500D5FDD4DAB3F5CABCA0
:100BE300BBAFA3ACC9D4BAF3D4D9CAD4008008BD6F
:100BF3000E8008CC0E8008DB108008EC108008FD06
:100C03001080090E128009210A80092C0A800937F5
:100C13000A80094210800953108009641080097505
:100C230010800986108009970480099C048009A11B
:100C3300028009A4048009A9028009AC028009AFDB
:100C4300028009B202E52824A7F582E4342FF58354
:100C5300E0052822902FA4302203902FA7E475F0FB
:100C630001A5128008A5A54822201BE77F2ED21BD1
:100C73008018EF540F2490D43440D4FF301F0BEF6F
:100C830024BFB41A0050032461FFE529600215292B
:100C9300052CE52C7002052B302210902FA4E4754F
:100CA300F001A5128008A5EFA55822A512800028FF
:100CB300227403D2228003E4C222F528902FA4A534
:100CC300128007AFE4F529F52BF52CE52960097FA0
:100CD30020A512800C8D80F3752AFFC21CC21BC293
:100CE3001DC21EC220C221C223120C57FF700E3038
:100CF30022057F00120C9EAF2CAE2BA522B4255FDC
:100D0300C2D5C21F120C57FF24D0B40A00501A7563
:100D1300F00A782930D50508B6FF0106C6A426F6E1
:100D230020D5047002D21E80D924CFB41A00EF500C
:100D330004C2E5D21F020EB5D21C80C6D21B80C0EE
:100D4300D21D80BCD2D580BAD22080B47F20120CB1
:100D53008D201D077401B5290040F1120C48FF12C4
:100D63000C8D020CCED223D2218095120C48FB129B
:100D73000C48FA120C48F94A4B700679887A0F7BB3
:100D830080201D3AE52960367E00E9C0E02EF9EAAD
:100D9300C0E03400FAA548F9D0E0FAD0E0C9600613
:100DA3000EEE652A70E4C2D5EBC0E0EAC0E0E9C00C
:100DB300E0EE120EFED0E0F9D0E0FAD0E0FBA54859
:100DC300FF609FEBC0E0EAC0E0E9C0E0120C8DD009
:100DD300E02401F9D0E03400FAD0E0FBE52A046016
:100DE300DDD52ADA020D657B807A0E79FAD21D8071
:100DF30090791080027908C221C2238008D2D57964
:100E03000A8004790AC2D5E52A047002F52AE4FAB5
:100E1300FDFEFF120C48FC7B08201C13120C48FD3E
:100E23007B10301B0A120C48FE120C48FF7B20EC8F
:100E33003382D592D55013C3E4301B069FFFE49E43
:100E4300FEE4201C039DFDE49CFCE4CBF8C21CECF7
:100E5300700CCFCECDCCE824F8F870F38017C3EF35
:100E630033FFEE33FEED33FDEC33FCEB33FB994004
:100E730002FB0FD8E9EB301C05F8D0E0C448B21CE4
:100E8300C0E00AEC4D4E4F78207B0070C2EAB52AD1
:100E93000040BCC0E0120F00D0F0D0E0201C04C41E
:100EA300C0E0C4B21CC0F0120C76D0F0D5F0EB0257
:100EB3000CCEA5128007C60D6E530DF4580D3F4C92
:100EC3000D3B420DF84F0E00440E00490D54430EE6
:100ED30006550DEA460DEA450DEA470FA3500D43AB
:100EE3002D0D472E0D6A2B0D4B230D68200F912AD4
:100EF3000D034800000D623F3F3F00790AA2D52051
:100F03001E14302009B910020404B9080104A2D543
:100F1300202102500104201D68921DB52900503480
:100F2300C0E07F20301E197F30A21D722172205035
:100F33000F120F57C21DC221C220C2237F30800F60
:100F4300302003E9C0E0120C8D302003D0E0F9D04B
:100F5300E0B529CC3020177F30B9100C120C8D7FEF
:100F630058301F077F788003B90803120C8D301D9A
:100F7300057F2D020C8D7F202023F87F2B2021F36A
:100F830022921D80CF286E756C6C2900D21C120C26
:100F930048301CF8C21C782930D50108F6020D032D
:100FA300120C48C0E0C4120C76D0E0120C76743AEE
:100FB300120C7ED21E752904020DF4312E2331D575
:100FC300D2C1E3C6F7C3E6D6B53A00322E2332D5F3
:100FD300D2C1E3C6F7C3E6D6B53A00332E2333D5E1
:100FE300D2C1E3C6F7C3E6D6B53A00342ED4CAD08D
:100FF300EDB6E0B4CEB9BAC2F23A00352EB2BBC2F6
:10100300F2BBF5CDCBB1D23A00362EBFAAC6F4D689
:10101300BDB1D2C6F73A00372EBFAAC6F4CAD6BBB3
:10102300FAC4A3BFE93A00382ED3E0B6EECFC2CF5D
:10103300DE3A00392ECAD5B1D2C9CFCFDE3A00315C
:10104300302E20D2C9CECABDF0B6EE3A0031312ED1
:1010530020BBFAC6F7B1E0BAC53A200031322E47B9
:10106300534DBAC5C2EB3A0031332E20C7B7CCF586
:101073003A0031342E20D0A1CAFDB5E33A00313510
:101083002E202331D6BDB1D23A0031362E20233261
:10109300D6BDB1D23A0031372E202333D6BDB1D2DB
:1010A3003A0031382E202334D6BDB1D23A0031393B
:1010B3002E202335D6BDB1D23A0032302E2023362E
:1010C300D6BDB1D23A0032312E202337D6BDB1D2AC
:1010D3003A0032322E202338D6BDB1D23A00323311
:1010E3002E202331D3B2B1D23A0032342E20233210
:1010F300D3B2B1D23A0032352E202333D3B2B1D298
:101103003A0032362E202334D3B2B1D23A003237EA
:101113002E202335D3B2B1D23A0032382E202336D3
:10112300D3B2B1D23A0032392E20BFAAC6F4B3F6F5
:10113300BBF5C8B7C8CF3A0033302E20BDBBD2D7DA
:10114300CAB1BCE43A0033312E20B2BBD5D2C1E3DD
:10115300C4A3CABD3A0033322E20BFAAC6F4D3B209
:10116300B1D2C6F73A0033332E20BFAAC6F4B9ABC7
:10117300BDBBBFA83A0033342E20B6C1BFA8CAB145
:10118300BCE43A0033352E20D4DDB4E6D6BDB1D26B
:10119300C4A3CABD3A0033362E20CEE5D4AAD6BDA9
:1011A300B1D2D4DDB4E63A0033372E20CAAED4AA86
:1011B300D6BDB1D2D4DDB4E63A0025750025752E2F
:1011C30025750025752E253032750025627500259D
:1011D30032627800253032627800800FBE0F800FB4
:1011E300CE0F800FDE0F800FEE0F800FFE0D8010ED
:1011F3000C0D80101A0F80102A0B8010360B8010F4
:10120300420D8010500D80105F0B80106B09801011
:10121300750B8010810B80108D0B8010990B801043
:10122300A50B8010B10B8010BD0B8010C90B801073
:10123300D50B8010E10B8010ED0B8010F90B8011A2
:10124300050B8011110B80111D0B801129118011C9
:101253003B0D8011490F8011590F8011690F8011C7
:10126300790D80118711801199118011AB1100053F
:101273000005000500010001000100010005000553
:101283000005000500100001000100050005000530
:101293000005000500050005000500050005000523
:1012A3000005000500050001000500010001000123
:1012B30000020001000100014101850042154E00BA
:1012C3000041020701411550004207B600004100EA
:1012D3000200C128C129C1A5C12AC1A7C126410055
:1012E300000041000100413A4E00413A4300413AB7
:1012F3004400413A4500C12D413A4D01413A4C0069
:10130300412CBA00413A1F00413A2000413A2100E2
:10131300C108413A2300413A2400413A2500413AA9
:101323002600413A2700413A2800C10BC10CC10DE8
:10133300C10EC10FC110C111C112C113C114C11516
:10134300C116413A2900014D104639AC080001008D
:1013530096004139F200C131014F004120E70041BD
:101363001A0500411A0100411CD201411A0301C1AF
:101373002BC12C411A0700411A08014120D3004117
:1013830020E40041187B004119FC006200332F0068
:10139300008005800F000A801B001E00148011804E
:1013A300330036003C80390028802D8027002280BE
:1013B300630066006C80690078807D80770072002E
:1013C300508055805F005A804B004E00448041801E
:1013D300C300C600CC80C900D880DD80D700D2000E
:1013E300F080F580FF00FA80EB00EE00E480E1007E
:1013F300A080A580AF00AA80BB00BE00B480B180EE
:10140300930096009C80990088808D80870082815C
:10141300830186018C81890198819D8197019201C5
:10142300B081B581BF01BA81AB01AE01A481A10135
:10143300E081E581EF01EA81FB01FE01F481F181A5
:10144300D301D601DC81D901C881CD81C701C20195
:10145300408145814F014A815B015E015481518185
:10146300730176017C81790168816D8167016281F5
:10147300230126012C81290138813D813701320165
:10148300108115811F011A810B010E010481018353
:10149300030306030C83090318831D831703120335
:1014A300308335833F033A832B032E0324832103A5
:1014B300608365836F036A837B037E037483718315
:1014C300530356035C83590348834D834703420305
:1014D300C083C583CF03CA83DB03DE03D483D183F5
:1014E300F303F603FC83F903E883ED83E703E28365
:1014F300A303A603AC83A903B883BD83B703B203D5
:10150300908395839F039A838B038E038483810245
:10151300808285828F028A829B029E0294829182BC
:10152300B302B602BC82B902A882AD82A702A2822C
:10153300E302E602EC82E902F882FD82F702F2029C
:10154300D082D582DF02DA82CB02CE02C482C1828C
:10155300430246024C82490258825D82570252027C
:10156300708275827F027A826B026E0264826102EC
:10157300208225822F022A823B023E02348231825C
:10158300130216021C82190208820D82070202004E
:10159300312EBBF5B1D2CAD5D6A700322EC9CCC6DF
:1015A300B700332EC7E5BFD5BCC7C2BC00312EBBC5
:1015B300F5B1D2D7DCCAD5C8EB3A00322ED6BDB1CD
:1015C300D2CAD5C8EB3A00332ED3B2B1D2CAD5C8EA
:1015D300EB3A00342EBDBBD2D7D7DCBDF0B6EE3A22
:1015E30000352ED5D2C1E3D7DCBDF0B6EE3A0036D6
:1015F3002E2331B3F6B1D2D7DCBDF0B6EE3A0037C5
:101603002E2332B3F6B1D2D7DCBDF0B6EE3A0038B2
:101613002E2333B3F6B1D2D7DCBDF0B6EE3A0039A0
:101623002E2331B3F6B1D2C3B6CAFD3A0031302E00
:10163300202332B3F6B1D2C3B6CAFD3A0031312EFC
:10164300202333B3F6B1D2C3B6CAFD3A0031322EEA
:1016530020BFA8BDBBD2D7D0F2BAC53A00312EB352
:10166300C9B9A6BDBBD2D7B4CECAFD3A00322ED279
:10167300C9CECABDBBD2D7B4CECAFD3A00332EB54C
:10168300A5BBF5B5C0BDBBD2D7CDB3BCC600312E0B
:10169300BBF5B5C0B1E0BAC53A00322EB3C9B9A69D
:1016A300BDBBD2D7CDB3BCC63A00332ED2C9CECA46
:1016B300BDBBD2D7B4CECAFD3A002020C4E3C8B71D
:1016C300B6A8C2F03F00C8B7B6A8454E544552204D
:1016D300C8A1CFFB43414E43454C002020C3BBD39D
:1016E300D0BDBBD2D7BCC7C2BC002575002562756F
:1016F30000B1E0BAC5CAE4C8EBB4EDCEF300C7EB62
:10170300CAE4C8EBC6E4CBFCB1E0BAC500256C75EE
:1017130000256C752E256C7500256C752E253032D1
:101723006C75008015930A80159E068015A50A80A6
:1017330015B00D8015BE0B8015CA0B8015D60D8014
:1017430015E40D8015F20F8016020F8016120F801C
:1017530016220D8016300F8016400F8016500F8012
:1017630016600F8016700F801680108016910B8004
:10177300169D0F8016AD0F8016BD0B8016C9148001
:1017830016DE0ECFB5CDB3D5FDD4DAC6F4B6AF2C85
:1017930020C7EBC9D4B5C80020202020C4E3C8B7B4
:1017A300B6A8B8FCB8C4C2F03F00C8B7B6A8454E47
:1017B30054455220C8A1CFFB43414E43454C00D56D
:1017C300FDD4DAB8FCB8C4C9CCC6B7D3E0C1BF2EC8
:1017D3002E2E00C9CCC6B7D3E0C1BFB8FCB8C4CA6B
:1017E300A7B0DC2100C9CCC6B7D3E0C1BFB8FCB8F1
:1017F300C4B3C9B9A62100D5FDD4DAB8FCB8C4C9AD
:10180300CCC6B7BCDBB8F12E2E2E00C9CCC6B7BCF4
:10181300DBB8F1B8FCB8C4CAA7B0DC2100C9CCC698
:10182300B7BCDBB8F1B8FCB8C4B3C9B9A621002072
:10183300202020C4E3C8B7B6A8CCEDC2FAC2F03F5B
:1018430000D5FDD4DACCEDC2FA2E2E2E00CCEDC29B
:10185300FAB2D9D7F7CAA7B0DC2100CCEDC2FAB2ED
:10186300D9D7F7B3C9B9A6210020202020C4E3C8E3
:10187300B7B6A8BDE1D5CAC2F03F00D5FDD4DACCD6
:10188300EDBCD3BDE1D5CAB5E32E2E2E00CCEDBC05
:10189300D3BDE1D5CAB5E3CAA7B0DC2100CCEDBC0A
:1018A300D3BDE1D5CAB5E3B3C9B9A6210020202031
:1018B30020C4E3C8B7B6A8CDACB2BDC2F03F00D5D3
:1018C300FDD4DACDACB2BD2C20C7EBC9D4B5C82E3C
:1018D3002E2E00CDACB2BDB2D9D7F7B3C9B9A6216C
:1018E300002020C4E3C8B7B6A8C7E5B5E3C2F03FFC
:1018F30000D5FDD4DAC7E5B5E32C20C7EBC9D4B5D1
:10190300C82E2E2E00C7E5B5E3CDEAB1CFA3ACC7F1
:10191300EBBACBB6D42100C7E5B5E3BDF0B6EE3ADA
:1019230020257500C7E5B5E3BDF0B6EE3A20257571
:101933002E257500C7E5B5E3BDF0B6EE3A20257553
:101943002E2530327500312EB2E3BCDCB1E0BAC5CE
:101953003A00322ECAC7B7F1C6F4D3C33A00332EC6
:10196300D7EEB4F3B4E6BBF5C1BF3A00342EB5DA13
:10197300D2BBBBF5B5C03A00352EB5DAB6FEBBF522
:10198300B5C03A00362EB5DAC8FDBBF5B5C03A008E
:10199300372EB5DACBC4BBF5B5C03A00382EB5DA6D
:1019A300CEE5BBF5B5C03A00392EB5DAC1F9BBF5C2
:1019B300B5C03A0031302E20B5DAC6DFBBF5B5C06D
:1019C3003A0031312E20B5DAB0CBBBF5B5C03A00C1
:1019D300C7EBCAE4C8EBC3DCC2EB3A00C3DCC2EB1F
:1019E300B4EDCEF3210025627500202020002000F5
:1019F3002020202000CAE4C8EBB2E3BCDCB1E0BA8B
:101A0300C53A00B1E0BAC5CAE4C8EBB4EDCEF30001
:101A1300C7EBCAE4C8EBC6E4CBFCB1E0BAC50080AF
:101A230019490B8019550B8019610D80196F0B80B3
:101A3300197B0B8019870B8019930B80199F0B80DF
:101A430019AB0B8019B70D8019C50D8019D30B8005
:101A530019DF09000100010002000100010001007B
:101A6300010001000100010001312EBBF5B5C0B238
:101A7300CECAFD00322EBCD3C2FAC8ABB2BFBBF58F
:101A8300B5C000332ECCEDBCD3BDE1D5CAB5E30060
:101A9300342EC8ABCFB5CDB3CDACB2BD00352E35EA
:101AA30020BDC7D3B2B1D2C7E5B5E300362E31208E
:101AB300D4AAD3B2B1D2C7E5B5E300372EC9E8B192
:101AC300B8B9DCC0ED00382ECFB5CDB3B2CECAFD68
:101AD30000392EBDBBD2D7BCC7C2BC0031302E20CB
:101AE300BBF5BCDCC5E4D6C30031312E20B3F6B35D
:101AF300A7C4ACC8CFC5E4D6C3002020C8B7B6A8D6
:101B0300B3F6B3A7C5E4D6C3C2F03F00C8B7B6A8BF
:101B1300454E54455220C8A1CFFB43414E43454C4B
:101B23000030002020D5FDD4DAB1A3B4E6002000B4
:101B3300B1A3B4E6CAA7B0DCA3ACD6D8D0C2C9E877
:101B4300D6C33F002020454E544552202020434118
:101B53004E43454C00801A6C0A801A770E801A8611
:101B63000C801A930C801AA00E801AAF0E801ABE36
:101B73000A801AC90A801AD40A801ADF0C801AEC68
:101B830010A575FF07758E0378FEE4F6D8FD758101
:101B93008FA575FB00759008A502801BCBA502805D
:101BA300C364E493A3F85407240CC8C333C4540F89
:101BB3004420C8834004F456800146F6DFE4800BDA
:101BC30001020408102040809012BBE47E01936060
:101BD300CCA3FF543F30E509541FFEE493A36001F7
:101BE3000ECF54E0B4E01CE493FBA3E493FAA3E424
:101BF30093F9A3E493A558A309E970010ADFF4DE7E
:101C0300F280C854C025E060254097E493A3FAE42A
:101C130093A3F8E493A3C8C582C8CAC583CAF0A333
:101C2300C8C582C8CAC583CADFE9DEE7809DE493DD
:101C3300A3F8E493A34003F68001F208DFF4808B5A
:101C4300312EBBF5B5C0B1E0BAC53A2000322EC97A
:101C5300CCC6B7D3E0C1BF3A2000332EB5A5BCDB59
:101C63003A2000342EBBF5B5C0D7B4CCAC3A200033
:101C7300352EC9CCC6B7B1E0BAC53A2000253032FB
:101C8300627500253362750025750025752E25754F
:101C93000025752E253032750025627500253262C8
:101CA3007500801C430C801C500C801C5D08801C3C
:101CB300660C801C730C2000202020202020202074
:101CC30020202020202020202020202000C7EBCA15
:101CD300E4C8EBB1E0BAC53A2000B1E0BAC5CAE442
:101CE300C8EBB4EDCEF300C7EBCAE4C8EBC6E4CB54
:101CF300FCB1E0BAC5002020202020202020202095
:101D03002020202020202020202000C2D5E830E7FA
:101D13000FB2D5E4C39BFBE49AFAE499F9E498F88B
:101D2300EC30E71BB2D5A512801D4AA512800672BE
:101D3300E4C39BFBE49AFAE499F9E498F88005A5D7
:101D43001280067230D50DE4C39FFFE49EFEE49D2E
:101D5300FDE49CFCA5224742323331320057494E01
:101D630031323532000D51961052640505050505D3
:101D730005050504040404080807FF010101010126
:101D830001010102020202030306FF5050505050AA
:101D93005050501B1B1B1B0D0D18FF090909090986
:101DA3000909092E2E2E2E000048FF000000010015
:101DB30000000A00000064000003E8000027100090
:101DC3000186A0000F42400098968005F5E10007C8
:101DD3000201009600000100020005000A00140041
:101DE300320064000000000101010000000800014E
:101DF300009600080001009600080001009600A567
:101E0300128157C590154EE0FEA3E0FF902CE9EE3A
:101E1300F0A3EFF0E4A3F0A3F0A3F0900799E0B4EC
:101E23000113900797E0FEA3E0FF902CE9EE8FF0FB
:101E3300A5128005A9D3902CEAE09400902CE9E048
:101E4300940050057F000220E1901550742CF07E21
:101E5300007F147D007B007A0779A2A51280088693
:101E6300901550E0FF25E025E024F5F582E43403E6
:101E7300F583E493902CEBF0FD7C00C004C005EFE8
:101E830025E025E024F2F582E43403F583A51280EE
:101E930007B978A27C077D00D007D006A51280047D
:101EA300D6902CEBE0FF24A2F582E43407F583748B
:101EB30020F090056BE0FCA3E0FDEC6003021FCD76
:101EC300ED24F6603D24A67003021F6124636003C2
:101ED300021FCD74A32FF9E43407FA7B00C003C0BB
:101EE30002C0017B807A037986902FA7A512800711
:101EF300AF902CE9E0FFA3E0902FAACFF0A3EF026D
:101F03001FBB902CEBE024A3F9E43407FA7B00C059
:101F130003C002C0017B807A037989902FA7A512A1
:101F23008007AF90056BE0FAA3E0FB902CE9E0FE9D
:101F3300A3E0FFAD03AC02A512800515902FAAEE16
:101F4300F0A3EFF0902CE9E0FEA3E0FFAD03AC02B9
:101F5300A512800515902FACECF0A3ED805A902CC0
:101F6300EBE024A3F9E43407FA7B00C003C002C00A
:101F7300017B807A03798F902FA7A5128007AF90FA
:101F8300056BE0FAA3E0FB902CE9E0FEA3E0FFADD4
:101F930003AC02A512800515902FAAEEF0A3EFF073
:101FA300902CE9E0FEA3E0FFAD03AC02A51280058F
:101FB30015902FACECF0A3EDF0D001D002D003A527
:101FC30012800CB4902CEBE02FF0902CEBE004F09B
:101FD300D21B7B007A0779A2902FA6A5128007AFA8
:101FE300902CEBE0A51280A57590052EE0FEA3E0F2
:101FF300FFC3902CEAE09F902CE9E09E405090159F
:10200300507436F0D21BE0FF25E025E024F2F58280
:10201300E43403F583A5128007B9902FA6A5128097
:1020230007AFEF25E025E024F5F582E43403F583DB
:10203300E493902FA9F07D01E4FFA51280A57C9085
:102043000799E064017048A51280DACF80419015AA
:10205300507404F0D21BE0FF25E025E024F2F58262
:10206300E43403F583A5128007B9902FA6A5128047
:1020730007AFEF25E025E024F5F582E43403F5838B
:10208300E493902FA9F07D01E4FFA51280A57CE4E1
:102093007F64FEFDFC902FDA7427F0A3743AF0A559
:1020A30012808E2290182EE0B4011A901830E0FCB2
:1020B300A3E0FDE4FFA51281612CE490182EF090BB
:1020C3001830F0A3F090182FE0B40110A51281612D
:1020D30022E490182FF0901832F0A3F07F00A5228D
:1020E300E4902CE3F0FE7F56FD7B007A057923A56F
:1020F300128008867E037F287D007B007A15795243
:10210300A5128008867E037FDE7D007B007A11792D
:1021130062A51280088690177D7401F0A3F07E02F9
:102123007F277D007B007A057979A5128008869048
:1021330007817401F07E037F137D007B007A0E79A3
:1021430022A512800886E47F64A512808E19D21B13
:10215300900482A5128007B9902FA6A5128007AF1D
:10216300900485A51280A573D21B90043AA5128012
:1021730007B9902FA6A5128007AF90043DE4939072
:102183002FA9F07D01E4FFA51280A57CE47F64A55F
:1021930012808E197F00A522E4902CE3F0A3F0A314
:1021A300F0A3F0FE7F14FD7B007A0779A2A51280CD
:1021B3000886901780E0FF75F037901167A51280AD
:1021C3000798E0D39400401875F037EF901198A565
:1021D30012800798E0FFF46019901551EFF0801218
:1021E300901780E075F037901198A51280079874C6
:1021F300FFF0901780E075F037901198A5128007D3
:1022030098E0F470028041901551E075F00690005B
:1022130008A512800798E07002802D901551E0FF09
:1022230075F006900005A512800798E0FE540A7029
:102233001775F006EF900006A512800798E0FCA33F
:10224300E04C6004EE20E041901550740EA512801E
:10225300A5469015507419F0D21BE0FF25E025E048
:1022630024F2F582E43403F583A5128007B9902F95
:10227300A6A5128007AFEF25E025E024F5F582E45B
:102283003403F583E4930225739015507427F0907B
:10229300056BE0FEA3E0FFEE60030223F1EF24F6FB
:1022A300605724A6700302236F246360030223F1A3
:1022B3007B807A037997902FA7A5128007AF90159B
:1022C30050E025E025E024F2F582E43403F583A50C
:1022D300128007B9902FAAA5128007AF901551E07D
:1022E30075F006900006A512800798E0FFA3E09022
:1022F3002FADCFF0A3EF0223E07B807A03799D908B
:102303002FA7A5128007AF901550E025E025E02404
:10231300F2F582E43403F583A5128007B9902FAA5E
:10232300A5128007AF901551E075F006900006A541
:1023330012800798E0FAA3E0FB90056BE0FCA3E0B2
:10234300FDAF03AE02A512800515902FADEEF0A3ED
:10235300EFF090056BE0FCA3E0FDAF03AE02A51226
:10236300800515902FAFECF0A3ED80717B807A038D
:1023730079A6902FA7A5128007AF901550E025E00E
:1023830025E024F2F582E43403F583A5128007B92E
:10239300902FAAA5128007AF901551E075F0069013
:1023A3000006A512800798E0FAA3E0FB90056BE016
:1023B300FCA3E0FDAF03AE02A512800515902FAD7F
:1023C300EEF0A3EFF090056BE0FCA3E0FDAF03AEEE
:1023D30002A512800515902FAFECF0A3EDF07B0062
:1023E3007A0779A2A512800CB4902CE3EFF0A51222
:1023F30080A035C226E4F51490187A7406F090058F
:1024030073E06401600302254090154DE054FB60C6
:1024130003022540D21B7B007A0779A2902FA6A541
:10242300128007AF902CE3E0902FA9F07D01E4FF29
:10243300A51280A57C902CE5742DA51280A546904D
:102443000574E0FF7E007C037DE8A512800502E4AD
:10245300FCFDA512808E1C901160E475F001A5129D
:102463008005A9901551E075F006900006A512802D
:102473000798E0FEA3E0FF901160E0FCA3E0FDA558
:1024830012817A22902CE6EFF0707690102FE064A0
:10249300A07045A51280B601A5128169139015514C
:1024A300E075F006900006A512800798E0FCA3E013
:1024B300FD7F02A51281612C901551E075F0069005
:1024C3000006A512800798E0FFA3E090154ECFF019
:1024D300A3EFF07F010225A090102FE064A1700705
:1024E3009015507430801F90102FE0FF64A5600A90
:1024F300EF64A66005EF64A7706E90155074318089
:10250300059015507431F0D21BE0FF25E025E0243F
:10251300F2F582E43403F583A5128007B9902FA660
:10252300A5128007AFEF25E025E024F5F582E4341A
:1025330003F583E493902FA9F0E4FD801BD21B7B6A
:10254300007A0779A2902FA6A5128007AF902CE3FB
:10255300E0902FA9F07D01E4FFA51280A57CE47F24
:10256300D07E07A512808E1AE4901551F0FF802DBE
:10257300902FA9F07D01E4FFA51280A57CE47FD014
:102583007E07A512808E1AA51280A035C226E4F517
:1025930014901551F090187A7406F07F00A522E488
:1025A300902CE3F09007B6E07002A3E07005900270
:1025B3000704F0900207E0640160030226B290175B
:1025C30070E064016003022660C390176FE094F427
:1025D30090176EE094015003022660E4F0A3F0909C
:1025E3000573E06401704790154DE054FB703F9014
:1025F30015507435A51280A546A512808E16901528
:1026030050742FA512808DDAA512814269EF6401FF
:1026130060030226C3D21B901550A512808DDDA541
:1026230012814269EF640160030226C3807390152F
:10263300507434A51280A546A512808DC4A51281BD
:102643004269EF64017079D21B901550A512808DF9
:10265300DDA512814269EF640170658044901770B3
:10266300E06401705BC390176FE094FA90176EE01B
:102673009400404C9015507434A51280A546A512C1
:10268300808DC4A512814269EF64017033D21B901F
:102693001550A512808DDDA512814269EF6401708A
:1026A3001F9007B6E04402F0A3E0F07F01802A9078
:1026B30015507410A51280A5467F02A51280A79815
:1026C30090187AE004F0A512809BC0BF01047F023A
:1026D3008007A512808E167F01A522E4902CE3F0DB
:1026E300A3F0A3F0A3F0902CE3F0A3F0900781E014
:1026F30064016016D390154FE0940090154EE0945A
:102703000040077F01A51280972E302807A512806D
:10271300A010C2282026030227A4D21AE4902F2354
:10272300F0D21B7D01FFA51280A696C226E4F51404
:10273300901551F0806B902CE5E07002A3E060707F
:10274300902CE5E0FEA3E0FF90154EEE8FF0A5126E
:102753008005A9901136A512800737E4FCFDA51268
:102763008005D7901136A51280078B90113EA512D4
:10277300800737902CE5E0FEA3E0FFE4FCFDA51203
:102783008005D790113EA51280078B90182E7401F7
:10279300F0902CE5A51280DB14E47FC8A512808E8F
:1027A30019A512809DFB902CE5EEF0A3EFF0808637
:1027B30090052AE064016003022886900781E064A3
:1027C300016003022886900790E0FF20E2030228BD
:1027D30086900796E020E00302288690052EE0FC11
:1027E300A3E0FDC390154FE09D90154EE09C400380
:1027F300022886EF54FB900790F0900796E054FE72
:10280300F0900793E0FFA3E0902CE3CFF0A3EFF069
:10281300902CE3E0FEA3E0FF90154EEE8FF0A5129F
:102823008005A9901136A512800737E4FCFDA51297
:102833008005D7901136A51280078B90113AA51207
:10284300800737902CE3E0FEA3E0FFE4FCFDA51234
:102853008005D790113AA51280078B90182F740129
:10286300F0902CE3E0FEA3E0FF901832EE8FF0A58A
:10287300128005A9900570E0FFA3E090175FCFF0E9
:10288300A3EFF090052AE0640160030229DA9007C0
:1028930081E0640170030229DAA512809F9CEF7026
:1028A300030229DAA512814774902CE3EEF0A3EF1B
:1028B300F04E7008A512809A1C0229D2902CE3E0F6
:1028C300FEA3E0FF90154FE02FFF90154EE03EFE74
:1028D300C390052FE09F90052EE09E503490155035
:1028E3007403A51280A5467F02A51280A798E47FF2
:1028F300DC7E05A512808E1AA512809A1C90154EB7
:10290300E0FCA3E0FD4C70028049AF05AE04022A4F
:10291300E9A51281473A751D0AE51D600FA51281CD
:10292300476BEF7007A51280DB3380EDE51D702C3C
:10293300A512809A1C902CE3E0FFA3E0900530CF12
:10294300F0A3EFF0A51280F16090154EE07002A3A2
:10295300E0707C90187AF07F02022AF0902CE3E07A
:10296300FEA3E0FF90154EEE8FF0A5128005A9900F
:102973001136A512800737E4FCFDA5128005D79018
:102983001136A51280078B90113AA5128007379054
:102993002CE3E0FEA3E0FFE4FCFDA5128005D79045
:1029A300113AA51280078B90182F7401F0902CE335
:1029B300E0FEA3E0FF901832EE8FF0A5128005A988
:1029C300900570E0FFA3E090175FCFF0A3EFF0E472
:1029D3007F14A512808E1990052EE0FEA3E0FFC39D
:1029E30090154FE09F90154EE09E5003022AE1A5FB
:1029F30012808E16751690E5167003022A94A5129E
:102A0300809DFB902CE5EEF0A3EFF04E607B902CC5
:102A1300E5E0FEA3E0FF90154EEE8FF0A5128005D2
:102A2300A9901136A512800737E4FCFDA512800595
:102A3300D7901136A51280078B90113EA5128007FF
:102A430037902CE5E0FEA3E0FFE4FCFDA512800532
:102A5300D790113EA51280078B90182E7401F09029
:102A63002CE5E0FEA3E0FF901830EE8FF0A5128076
:102A730005A9900570E0FFA3E090175FCFF0A3EFE7
:102A8300F0751690A51280DB33A51280DB33022983
:102A9300FAA512809FA6A512801E07A5128157C50D
:102AA30090052AE064017028900781E064016020AA
:102AB300751D01E51D6019A512809F9CEF6007A598
:102AC30012809A1C800AE47F0AA512808E1980E383
:102AD300E47FF47E01A512808E1A7F01800F90158A
:102AE3004EE0FEA3E0FFA512801E0F7F00A52290FB
:102AF3001780E0FF75F037901167A512800798E003
:102B0300D39400402275F037EF901198A5128007F7
:102B130098E0FFF46023901780E0FE901551EFF0EA
:102B2300900206EEF08012901780E075F037901156
:102B330098A51280079874FFF0901780E075F0371E
:102B4300901198A512800798E0F4700280129015F6
:102B530051E075F006900008A512800798E07066B2
:102B6300901550740EA51280A5469015507419F057
:102B7300D21BE0FF25E025E024F2F582E43403F5DF
:102B830083A5128007B9902FA6A5128007AFEF2562
:102B9300E025E024F5F582E43403F583E493902FF4
:102BA300A9F07D01E4FFA51280A57CE47FD07E0718
:102BB300A512808E1AE4901551F0901773E044012A
:102BC300F07F02022C62901551E075F0069000052B
:102BD300A512800798E030E01A540A701690155138
:102BE300E075F006900006A512800798E0FEA3E0CA
:102BF3004E706A901550740EA51280A5469015501C
:102C03007419F0D21BE0FF25E025E024F2F582E4FD
:102C13003403F583A5128007B9902FA6A512800768
:102C2300AFEF25E025E024F5F582E43403F583E4F2
:102C330093902FA9F07D01E4FFA51280A57CE47F8A
:102C4300D07E07A512808E1AE4901551F090177369
:102C5300E04401F0E4901551F07F0180027F00A56C
:102C630022E4902CE3F0A3F0A3F0A3F0900799E003
:102C7300B40118900797E0FEA3E0FF90154FE02FF3
:102C8300FF90154EE03E902CE4800B90154EE0FF34
:102C9300A3E0902CE4CFF0A3EFF0901551E075F092
:102CA30006900006A512800798E0FEA3E0FF902C93
:102CB300E4E0FCA3E0FDD3EF9DEE9C5003022E6EF7
:102CC3009015507433A51280A5469015507427F0C3
:102CD30090056BE0FEA3E0FFEE6003022E32EF24CB
:102CE300F6605724A67003022DB024636003022EFE
:102CF300327B807A037997902FA7A5128007AF9034
:102D03001550E025E025E024F2F582E43403F58351
:102D1300A5128007B9902FAAA5128007AF9015516D
:102D2300E075F006900006A512800798E0FFA3E087
:102D3300902FADCFF0A3EF022E217B807A03799DF4
:102D4300902FA7A5128007AF901550E025E025E04E
:102D530024F2F582E43403F583A5128007B9902F9A
:102D6300AAA5128007AF901551E075F006900006F2
:102D7300A512800798E0FAA3E0FB90056BE0FCA3A3
:102D8300E0FDAF03AE02A512800515902FADEEF066
:102D9300A3EFF090056BE0FCA3E0FDAF03AE02A54B
:102DA30012800515902FAFECF0A3ED80717B807A34
:102DB3000379A6902FA7A5128007AF901550E025A1
:102DC300E025E024F2F582E43403F583A5128007BD
:102DD300B9902FAAA5128007AF901551E075F006A0
:102DE300900006A512800798E0FAA3E0FB90056B1C
:102DF300E0FCA3E0FDAF03AE02A512800515902F02
:102E0300ADEEF0A3EFF090056BE0FCA3E0FDAF03A4
:102E1300AE02A512800515902FAFECF0A3EDF07B69
:102E2300007A0779A2A512800CB4902CE3EFF0D2BC
:102E33001B7B007A0779A2902FA6A5128007AF907B
:102E43002CE3E0902FA9F07D01E4FFA51280A57C7F
:102E5300E47FDC7E05A512808E1AE4901551F09074
:102E63001773E04401F07F01022F7A900799E06421
:102E7300016003022F78A51281746D902CE6EFF0A8
:102E83006003022F41900797E0FFA3E0902CE4CF6B
:102E9300F0A3EFF0902CE4E0FEA3E0FF90154EEEDC
:102EA3008FF0A5128005A9901136A512800737E48B
:102EB300FCFDA5128005D7901136A51280078B90D3
:102EC300113AA512800737902CE4E0FEA3E0FFE45B
:102ED300FCFDA5128005D790113AA51280078B90AF
:102EE300182F7401F0902CE4E0FEA3E0FF90183259
:102EF300EE8FF0A5128005A9E4900799F09007974B
:102F0300F0A3F090182EE0B4011A901830E0FCA35F
:102F1300E0FDE4FFA51281612CE490182EF09018D7
:102F230030F0A3F090182FE064017049A51281617D
:102F330022E490182FF0901832F0A3F08037E49039
:102F43000799F0900797F0A3F0A512801E0790153C
:102F530051E075F006900006A512800798E0FEA3E5
:102F6300E0FF90154EE0FCA3E0FDD3EF9DEE9C4007
:102F7300047F0180027F00A5227F01902CE6EFF001
:102F8300E4A3F0A3F0A3A512809FA5902CE6E06034
:102F9300030230C69015507414A51280A5467E0016
:102FA3007F147D007B007A0779A2A51280088690A2
:102FB300056BE0FEA3E0FFEE60030230C3EF24F6EF
:102FC300603D24A6700302305B2463600302321E5B
:102FD3007B807A0379B1902FA7A5128007AF900465
:102FE300A2A5128007B9902FAAA5128007AF90154A
:102FF3004EE0FFA3E0902FADCFF0A3EF0230B27B02
:10300300807A0379B6902FA7A5128007AF9004A208
:10301300A5128007B9902FAAA5128007AF90056B60
:10302300E0FAA3E0FB90154EE0FEA3E0FFAD03AC96
:1030330002A512800515902FADEEF0A3EFF09015C9
:103043004EE0FEA3E0FFAD03AC02A5128005159090
:103053002FAFECF0A3ED80577B807A0379BE902FDE
:10306300A7A5128007AF9004A2A5128007B9902FDD
:10307300AAA5128007AF90056BE0FAA3E0FB9015B9
:103083004EE0FEA3E0FFAD03AC02A5128005159050
:103093002FADEEF0A3EFF090154EE0FEA3E0FFADF1
:1030A30003AC02A512800515902FAFECF0A3EDF051
:1030B3007B007A0779A2A512800CB4902CE8EFF07C
:1030C30002321E902CE6E06402600302326D90151A
:1030D300507414A51280A5467E007F147D007B00EA
:1030E3007A0779A2A51280088690056BE0FEA3E01B
:1030F300FFEE600302321EEF24F6603A24A670034B
:103103000231A22463600302321E7B807A0379C8F2
:10311300902FA7A5128007AF9004BAA5128007B914
:10312300902FAAA5128007AF901031A5128007191E
:10313300902FAD0232097B807A0379CE902FA7A519
:10314300128007AF9004BAA5128007B9902FAAA5E1
:10315300128007AF90056BE0FEA3E0FFFBAA06E435
:10316300F9F8901031A512800719A5128006729004
:103173002FADA51280078B90056BE0FEA3E0FFFB4C
:10318300AA06E4F9F8901031A512800719A5128058
:103193000672AC00AD01AE02AF03902FB180677B26
:1031A300807A0379D8902FA7A5128007AF9004BA2D
:1031B300A5128007B9902FAAA5128007AF90056BBF
:1031C300E0FEA3E0FFFBAA06E4F9F8901031A51294
:1031D300800719A512800672902FADA51280078B68
:1031E30090056BE0FEA3E0FFFBAA06E4F9F890105C
:1031F30031A512800719A512800672AC00AD01AE8D
:1032030002AF03902FB1A51280078B7B007A077959
:10321300A2A512800CB4902CE8EFF0D21B7B007AAD
:103223000779A2902FA6A5128007AF902CE8E09013
:103233002FA9F07D01E4FFA51280A57CE47F64A59E
:1032430012808E19901551E0FF90183AF0E4A3F024
:1032530075F006EF900006A512800798E0FFA3E043
:1032630090183CCFF0A3EFF08029902CE6E06401A6
:1032730070219015507414A51280A5467F02A512E3
:1032830080A798E47F64A512808E1990183AE09085
:103293001551F0E4901839A51280D4A0902CE7EFD3
:1032A300F0BF0704E40237FD902CE7E0A512800786
:1032B300C632D00035B10135B102378D03378D04E5
:1032C30032D005378D0737B9080000380A902CE64D
:1032D300E06003B40221901551E075F006900006FA
:1032E300A512800798E0FEA3E0FFC390154FE09F6F
:1032F300F090154EE09EF0902CE6E0B40122901879
:103303003CE0FEA3E0FF90154EE0FCA3E0FDC39F6D
:10331300EC9E400CED9FFFEC9E90154EF0A3EFF05A
:10332300901550741AA51280A546902CE6E0600310
:103333000234B0A51280AA2EEF702790052BE0B4BB
:103343000116B4011DA3E0FEA3E0FFC390154FE0F7
:103353009F90154EE09E500A7F02A51280A7980207
:1033630034B07E007F147D007B007A0779A2A5121A
:1033730080088690056BE0FEA3E0FFEE6003023455
:1033830087EF24F6603D24A6700302341F24636094
:10339300030234877B807A0379B1902FA7A512802B
:1033A30007AF9004A2A5128007B9902FAAA5128097
:1033B30007AF90154EE0FFA3E0902FADCFF0A3EF42
:1033C3000234767B807A0379B6902FA7A512800703
:1033D300AF9004A2A5128007B9902FAAA512800767
:1033E300AF90056BE0FAA3E0FB90154EE0FEA3E07F
:1033F300FFAD03AC02A512800515902FADEEF0A32F
:10340300EFF090154EE0FEA3E0FFAD03AC02A51272
:10341300800515902FAFECF0A3ED80577B807A03E6
:1034230079BE902FA7A5128007AF9004A2A51280A2
:1034330007B9902FAAA5128007AF90056BE0FAA3F6
:10344300E0FB90154EE0FEA3E0FFAD03AC02A51236
:10345300800515902FADEEF0A3EFF090154EE0FE32
:10346300A3E0FFAD03AC02A512800515902FAFECCE
:10347300F0A3EDF07B007A0779A2A512800CB4903B
:103483002CE8EFF0D21B7B007A0779A2902FA6A538
:10349300128007AF902CE8E0902FA9F07D01E4FFA4
:1034A300A51280A57CE47FC8A512808E19901551C2
:1034B300E0FF75F006900008A512800798E014F06D
:1034C30075F006EF900008A512800798E07013903E
:1034D3001551E075F006900005A512800798E044A9
:1034E30004F0902CE7E0B40513901551E075F00655
:1034F300900005A512800798E04402F0A51280CA47
:10350300D0901142A512800737901551E075F0064F
:10351300900006A512800798E0FEA3E0FFE4FCFDFF
:10352300A5128005D7901142A51280078B901146F2
:10353300E475F001A5128005A9901551E075F00915
:103543009002CBA51280CB25902CE6E0B401059028
:103553001840800390183FA5128159D7E490183979
:10356300F0A3E0FDA3E0FBA3E0FFA3E0902CEDCFED
:10357300F0A3EFF0E4FFA51281625A90175DE4F027
:10358300A37464F090175DE07002A3E0601BA512C2
:1035930080B5F25008E4FDFFA51280B4E0A51280C7
:1035A300BE89902CE9EFF080DB7F0002382BA51257
:1035B30080A541901551E075F006900005A5128095
:1035C3000798E04402F0902CE6E0FF600764026095
:1035D30003023748A51280AA2EEF64016003023765
:1035E30027FE7F14FD7B007A0779A2A51280088647
:1035F30090056BE0FEA3E0FFEE6003023704EF24C7
:10360300F6603D24A6700302369C246360030237F0
:10361300047B807A0379B1902FA7A5128007AF901E
:1036230004A2A5128007B9902FAAA5128007AF9014
:10363300154EE0FFA3E0902FADCFF0A3EF0236F3DA
:103643007B807A0379B6902FA7A5128007AF9004E9
:10365300A2A5128007B9902FAAA5128007AF9005E3
:103663006BE0FAA3E0FB90154EE0FEA3E0FFAD0391
:10367300AC02A512800515902FADEEF0A3EFF090EC
:10368300154EE0FEA3E0FFAD03AC02A512800515C5
:10369300902FAFECF0A3ED80577B807A0379BE9037
:1036A3002FA7A5128007AF9004A2A5128007B99097
:1036B3002FAAA5128007AF90056BE0FAA3E0FB9059
:1036C300154EE0FEA3E0FFAD03AC02A51280051585
:1036D300902FADEEF0A3EFF090154EE0FEA3E0FFC8
:1036E300AD03AC02A512800515902FAFECF0A3ED4E
:1036F300F07B007A0779A2A512800CB4902CE8EF36
:10370300F0D21B7B007A0779A2902FA6A51280071F
:10371300AF902CE8E0902FA9F07D01E4FFA5128083
:10372300A57C80077F02A51280A798E47FE87E032B
:10373300A512808E1A90154EE0FFA3E09007A0CF4C
:10374300A512803EB5A51280CABD901148E475F05C
:1037530001A5128005A9901551E075F0099002CDDD
:10376300A51280CB25A512809740902CE6E0B401EA
:1037730005901840800390183FE0FFA5128159D9A6
:10378300A51281623F7F0202382BA51280A541A5B5
:103793001280CABD902CE6E0B40105901840800366
:1037A30090183FE0FFA5128159D9A51281623FE429
:1037B3007FC47E09803BA51280A541901551E07519
:1037C300F006900005A512800798E04404F0A512C6
:1037D30080CAD0902CE6E0B4010590184080039095
:1037E300183FA5128159D7A51281623FE47FE87E75
:1037F30003A512808E1A7F00802EA51280D4A0907C
:103803002CE7EFF00232AB90183AE0FDA3E0FBA304
:10381300E0FFA3E0902CEDCFF0A3EFF0901839E098
:10382300FFA51281625A7F00A522E4902CE3F0A346
:10383300F0A3F0A51280B5F25008E4FDFFA51280B5
:10384300B4E0A51280BE89902CE5EFF090154EE010
:103853007002A3E07004FF023EAF90052BE0640109
:103863006014A51280AA29BF01077F01A51280A7B2
:10387300987F00023EAF90052CE0FEA3E0FFC390CB
:10388300154FE09F90154EE09E5003023D48EF4ECA
:103893007003023D48A51280AA66EF64016003022B
:1038A3003BDED21B900486A5128007B9902FA6A5F4
:1038B300128007AF900489A51280A573D21B9004D0
:1038C30006A5128007B9902FA6A5128007AF900412
:1038D30009E493902FA9F07D01E4FFA51280A57C54
:1038E300751E1EE51E7003023A74A512808E16A57E
:1038F3001280B6F1902CE3EFF024E5600E240E70F5
:10390300E2A512801E077F01023EAFA51280AA29FD
:10391300EF64016003023A6F7F01A51280A7987ECE
:10392300007F147D007B007A0779A2A512800886A8
:1039330090056BE0FEA3E0FFEE6003023A44EF2440
:10394300F6603D24A670030239DC24636003023A67
:10395300447B807A0379B1902FA7A5128007AF909B
:10396300049EA5128007B9902FAAA5128007AF90D5
:10397300154EE0FFA3E0902FADCFF0A3EF023A3353
:103983007B807A0379B6902FA7A5128007AF9004A6
:103993009EA5128007B9902FAAA5128007AF9005A4
:1039A3006BE0FAA3E0FB90154EE0FEA3E0FFAD034E
:1039B300AC02A512800515902FADEEF0A3EFF090A9
:1039C300154EE0FEA3E0FFAD03AC02A51280051582
:1039D300902FAFECF0A3ED80577B807A0379BE90F4
:1039E3002FA7A5128007AF90049EA5128007B99058
:1039F3002FAAA5128007AF90056BE0FAA3E0FB9016
:103A0300154EE0FEA3E0FFAD03AC02A51280051541
:103A1300902FADEEF0A3EFF090154EE0FEA3E0FF84
:103A2300AD03AC02A512800515902FAFECF0A3ED0A
:103A3300F07B007A0779A2A512800CB4902CE3EFF7
:103A4300F0D21B7B007A0779A2902FA6A5128007DC
:103A5300AF902CE3E0902FA9F07D01E4FFA5128045
:103A6300A57CE47FDC7E05A512808E1A7F00023ED2
:103A7300AFA51280AA2EEF64016003023BD9902CFC
:103A8300E3F07F01A51280A7987E007F147D007B61
:103A9300007A0779A2A51280088690056BE0FEA341
:103AA300E0FFEE6003023BAEEF24F6603D24A67018
:103AB30003023B4624636003023BAE7B807A0379B7
:103AC300B1902FA7A5128007AF90049EA51280077F
:103AD300B9902FAAA5128007AF90154EE0FFA3E07F
:103AE300902FADCFF0A3EF023B9D7B807A0379B695
:103AF300902FA7A5128007AF90049EA5128007B947
:103B0300902FAAA5128007AF90056BE0FAA3E0FB04
:103B130090154EE0FEA3E0FFAD03AC02A5128005B5
:103B230015902FADEEF0A3EFF090154EE0FEA3E05D
:103B3300FFAD03AC02A512800515902FAFECF0A3E7
:103B4300ED80577B807A0379BE902FA7A51280075B
:103B5300AF90049EA5128007B9902FAAA5128007E3
:103B6300AF90056BE0FAA3E0FB90154EE0FEA3E0F7
:103B7300FFAD03AC02A512800515902FADEEF0A3A7
:103B8300EFF090154EE0FEA3E0FFAD03AC02A512EB
:103B9300800515902FAFECF0A3EDF07B007A077949
:103BA300A2A512800CB4902CE3EFF0D21B7B007A19
:103BB3000779A2902FA6A5128007AF902CE3E0907F
:103BC3002FA9F07D01E4FFA51280A57CE47FDC7EB4
:103BD30005A512808E1A7F00023EAFA51280AA2E81
:103BE300EF64016003023D43902CE3F07F01A512D3
:103BF30080A7987E007F147D007B007A0779A2A5B9
:103C03001280088690056BE0FEA3E0FFEE600302DE
:103C13003D18EF24F6603D24A67003023CB02463F4
:103C23006003023D187B807A0379B1902FA7A51218
:103C33008007AF90049EA5128007B9902FAAA51202
:103C43008007AF90154EE0FFA3E0902FADCFF0A318
:103C5300EF023D077B807A0379B6902FA7A51280E8
:103C630007AF90049EA5128007B9902FAAA51280D2
:103C730007AF90056BE0FAA3E0FB90154EE0FEA3BF
:103C8300E0FFAD03AC02A512800515902FADEEF059
:103C9300A3EFF090154EE0FEA3E0FFAD03AC02A549
:103CA30012800515902FAFECF0A3ED80577B807A3F
:103CB3000379BE902FA7A5128007AF90049EA5128B
:103CC3008007B9902FAAA5128007AF90056BE0FA81
:103CD300A3E0FB90154EE0FEA3E0FFAD03AC02A50D
:103CE30012800515902FADEEF0A3EFF090154EE086
:103CF300FEA3E0FFAD03AC02A512800515902FAF24
:103D0300ECF0A3EDF07B007A0779A2A512800CB446
:103D1300902CE3EFF0D21B7B007A0779A2902FA6B9
:103D2300A5128007AF902CE3E0902FA9F07D01E46A
:103D3300FFA51280A57CE47FDC7E05A512808E1A88
:103D43007F00023EAFA51280AA2EEF64016003023A
:103D53003EAD902CE3F07F01A51280A7987E007FF3
:103D6300147D007B007A0779A2A51280088690054E
:103D73006BE0FEA3E0FFEE6003023E82EF24F660F9
:103D83003D24A67003023E1A24636003023E827B35
:103D9300807A0379B1902FA7A5128007AF90049E74
:103DA300A5128007B9902FAAA5128007AF90154ED0
:103DB300E0FFA3E0902FADCFF0A3EF023E717B8035
:103DC3007A0379B6902FA7A5128007AF90049EA51A
:103DD300128007B9902FAAA5128007AF90056BE058
:103DE300FAA3E0FB90154EE0FEA3E0FFAD03AC02A7
:103DF300A512800515902FADEEF0A3EFF090154EB0
:103E0300E0FEA3E0FFAD03AC02A512800515902FE1
:103E1300AFECF0A3ED80577B807A0379BE902FA798
:103E2300A5128007AF90049EA5128007B9902FAA10
:103E3300A5128007AF90056BE0FAA3E0FB90154E47
:103E4300E0FEA3E0FFAD03AC02A512800515902FA1
:103E5300ADEEF0A3EFF090154EE0FEA3E0FFAD034F
:103E6300AC02A512800515902FAFECF0A3EDF07B0B
:103E7300007A0779A2A512800CB4902CE3EFF0D25C
:103E83001B7B007A0779A2902FA6A5128007AF901B
:103E93002CE3E0902FA9F07D01E4FFA51280A57C1F
:103EA300E47FD07E07A512808E1A7F00A52290079B
:103EB300A0EEF0A3EFF0E490154EF0A3F0E4902C05
:103EC300EAF0A3F0A3F0A3F0A3F0A3F0A3F0A304FC
:103ED300F0A3F0A3F0E4A3F0A3F0A51280AA2EEFC1
:103EE3006401600DA51280AA66BF01057F00024828
:103EF300EE901550741BA51280A546A512808E1650
:103F03007E007F147D007B007A0779A2A5128008CA
:103F13008690056BE0FEA3E0FFEE6003024025EF11
:103F230024F6603D24A67003023FBD2463600302B0
:103F330040257B807A0379B1902FA7A5128007AF24
:103F430090049EA5128007B9902FAAA5128007AFEF
:103F53009007A0E0FFA3E0902FADCFF0A3EF0240C6
:103F6300147B807A0379B6902FA7A5128007AF90B0
:103F7300049EA5128007B9902FAAA5128007AF90BF
:103F8300056BE0FAA3E0FB9007A0E0FEA3E0FFAD22
:103F930003AC02A512800515902FADEEF0A3EFF050
:103FA3009007A0E0FEA3E0FFAD03AC02A5128005DD
:103FB30015902FAFECF0A3ED80577B807A0379BE89
:103FC300902FA7A5128007AF90049EA5128007B972
:103FD300902FAAA5128007AF90056BE0FAA3E0FB30
:103FE3009007A0E0FEA3E0FFAD03AC02A51280059D
:103FF30015902FADEEF0A3EFF09007A0E0FEA3E045
:10400300FFAD03AC02A512800515902FAFECF0A312
:10401300EDF07B007A0779A2A512800CB4902CF006
:10402300EFF0D21B7B007A0779A2902FA6A512800E
:1040330007AF902CF0E0A512808E099017727401DF
:10404300F0E4901828F0A3F0A3F0A3F0A51280B534
:10405300F25008E4FDFFA51280B4E0A51280BE89EA
:10406300902CF5EFF0E4902CEAF0A3F0A3F0900786
:10407300A0E0FEA3E0FF4E7007902CF4F00246D1BF
:104083007B007A2C79EB902CFBA5128007AF7A2C5E
:1040930009902CFEA5128007AF7A2C79EAA512802D
:1040A300A7E9902CEDEFF07003024142E4F0902C6D
:1040B300EDE0FFC39403501DEF25E025E02416F542
:1040C30082E4340EF583E0FEA3E04E6008902CED0D
:1040D300E004F080D9902CEDE0FF7019902CF404EB
:1040E300F09007A0E0FDA3E0900532CDF0A3EDF042
:1040F300D22A0246D1EF25E025E02412F582E434EA
:104103000EF583E0FEA3E0FF9007A0E0FCA3E0FD33
:10411300C39FEC9E4012902CF47401F0900532EC96
:10412300F0A3EDF0D22A800DE4900532F0A3F0C2A3
:104133002A902CF4F0E49007A0F0A3F00246D1E417
:10414300902CEEF0A3F0902CEAE0FF7003024208FB
:104153007E007A277B4F7D01A512808F48EF707414
:10416300A5128081BDE4902CEDF0902CEDE0C3947A
:104173000250567C277D4F7F01A5128089CAEF64C8
:1041830001603F902752E0FD54506007902CF1E00E
:104193004404F0ED30E507902CF1E04402F0902761
:1041A30052E030E307902CF1E04408F07F01A512C0
:1041B300814148902CEEEEF0A3EFF0E4902CEDF06B
:1041C3008007A5128081B780A1902CEDE0C39402F3
:1041D30040098000902CF1E04404F0900524E0FCB9
:1041E300A3E0FD902CEEE0FEA3E0FFA51280050204
:1041F300C39007A1E09FF09007A0E09EF0901828DD
:10420300EEF0A3EFF0902CEEE0FEA3E0FF90115A46
:10421300EE8FF0A5128005A990114EA512800737E5
:10422300C000900524E0FCA3E0FD902CEEE0FEA38B
:10423300E0FFA512800502E4FCFDD000A512800575
:10424300D790114EA51280078B90114AA5128007B3
:1042530037C000900524E0FCA3E0FD902CEEE0FEC7
:10426300A3E0FFA512800502E4FCFDD000A51280A7
:1042730005D790114AA51280078B902CF1E06401B9
:10428300700302431FE4902CF0F0902CF0E0FFC386
:104293009403506CEF25E025E02418F582E4340EF6
:1042A300F583E064017051902CF1E0FF30E2079058
:1042B300154274018017EF30E307901542740480B0
:1042C3000C902CF1E030E11A9015427402F0902C1E
:1042D300F0E025E025E02419F582E4340EF583743B
:1042E30002F0A51280AA0B902CF0E0B507129015EE
:1042F30042E0600CC2258008902CF0E004F0808A34
:10430300902CF17401F0902CEAE0FFC3902CEFE0C5
:104313009F902CEEE09400500302404FE4902CEE6B
:10432300F0A3F0902CEBE0FF70030243E57E007AEC
:10433300277B647D02A512808F48EF7074A51280DD
:1043430081BDE4902CEDF0902CEDE0C39402505627
:104353007C277D647F02A5128089CAEF6401603FD8
:10436300902767E0FD54506007902CF2E04404F07E
:10437300ED30E507902CF2E04402F0902767E0303F
:10438300E307902CF2E04408F07F02A51281414834
:10439300902CEEEEF0A3EFF0E4902CEDF08007A567
:1043A300128081B780A1902CEDE0C3940240098074
:1043B30000902CF2E04404F0900526E0FCA3E0FD1D
:1043C300902CEEE0FEA3E0FFA512800502C3900748
:1043D300A1E09FF09007A0E09EF090182AEEF0A3D2
:1043E300EFF0902CEEE0FEA3E0FF90115CEE8FF077
:1043F300A5128005A9901152A512800737C000901D
:104403000526E0FCA3E0FD902CEEE0FEA3E0FFA573
:1044130012800502E4FCFDD000A5128005D790119F
:1044230052A51280078B90114AA512800737C0004E
:10443300900526E0FCA3E0FD902CEEE0FEA3E0FF58
:10444300A512800502E4FCFDD000A5128005D790DB
:10445300114AA51280078B902CF2E06401700302CD
:1044630044FCE4902CF0F0902CF0E0FFC394035054
:104473006CEF25E025E02418F582E4340EF583E0A3
:1044830064027051902CF2E0FF30E2079015437400
:10449300018017EF30E3079015437404800C902CD0
:1044A300F2E030E11A9015437402F0902CF0E0250D
:1044B300E025E02419F582E4340EF5837402F0A5B7
:1044C3001280AA0B902CF0E0B50712901543E06020
:1044D3000CC2258008902CF0E004F0808A902CF226
:1044E3007401F0902CEBE0FFC3902CEFE09F902C35
:1044F300EEE09400500302404FE4902CEEF0A3F062
:10450300902CECE0FF70030245BC7E007A277B7998
:104513007D03A512808F48EF706EA5128081BDE4E4
:10452300902CEDF0902CEDE0C394025050A5128036
:1045330089C4EF6401603F90277CE0FD545060071D
:10454300902CF3E04404F0ED30E507902CF3E044C5
:1045530002F090277CE030E307902CF3E04408F06E
:104563007F03A512814148902CEEEEF0A3EFF0E417
:10457300902CEDF08007A5128081B780A7902CEDD9
:10458300E0C3940240098000902CF3E04404F090CF
:104593000528E0FCA3E0FD902CEEE0FEA3E0FFA5E0
:1045A30012800502C39007A1E09FF09007A0E09E50
:1045B300F090182CEEF0A3EFF0902CEEE0FEA3E0C9
:1045C300FF90115EEE8FF0A5128005A9901156A5FC
:1045D30012800737C000900528E0FCA3E0FD902C73
:1045E300EEE0FEA3E0FFA512800502E4FCFDD0008F
:1045F300A5128005D7901156A51280078B90114AFA
:10460300A512800737C000900528E0FCA3E0FD90C9
:104613002CEEE0FEA3E0FFA512800502E4FCFDD032
:1046230000A5128005D790114AA51280078B902C04
:10463300F3E06401700302404FE4902CF0F0902CFF
:10464300F0E0FFC39403506CEF25E025E02418F558
:1046530082E4340EF583E064037051902CF3E0FFA1
:1046630030E20790154474018017EF30E30790158B
:10467300447404800C902CF3E030E11A90154474D8
:1046830002F0902CF0E025E025E02419F582E434D3
:104693000EF5837402F0A51280AA0B902CF0E0B5FE
:1046A3000712901544E0600CC2258008902CF0E0BE
:1046B30004F0808A902CF37401F0902CECE0FFC39B
:1046C300902CEFE09F902CEEE0940002404F901866
:1046D30028E0FCA3E0FDD39400EC9400500E901866
:1046E3002BE0940090182AE09400401A90182AE0D6
:1046F300FAA3E0FBE4FFA5128161ABE4901828F074
:10470300A3F0A3F0A3F0902CF4E070030248D1A52A
:104713001280F1609015507401A51280A546901582
:10472300507420F07E007F147D007B007A0779A20D
:10473300A512800886901550E0FF25E025E024F5BA
:10474300F582E43403F583E493FD7C00C004C005E3
:10475300EF25E025E024F2F582E43403F583A51286
:104763008007B978A27C077D00D007D006A5128008
:1047730004D6901550E025E025E024F5F582E434D5
:1047830003F583E493902CF0F090056BE0FEA3E037
:10479300FFEE60030248A7EF24F6604024A67003EF
:1047A30002483B246360030248A7902CF0E024A254
:1047B300F9E43407FA7B00C003C002C0017B807AAE
:1047C300037986902FA7A5128007AF900532E0FFEB
:1047D300A3E0902FAACFF0A3EF024895902CF0E02E
:1047E30024A2F9E43407FA7B00C003C002C0017BB2
:1047F300807A037989902FA7A5128007AF90056B64
:10480300E0FAA3E0FB900532E0FEA3E0FFAD03ACCA
:1048130002A512800515902FAAEEF0A3EFF09005E4
:1048230032E0FEA3E0FFAD03AC02A51280051590B4
:104833002FACECF0A3ED805A902CF0E024A2F9E425
:104843003407FA7B00C003C002C0017B807A03797E
:104853008F902FA7A5128007AF90056BE0FAA3E016
:10486300FB900532E0FEA3E0FFAD03AC02A512808E
:104873000515902FAAEEF0A3EFF0900532E0FEA30A
:10488300E0FFAD03AC02A512800515902FACECF050
:10489300A3EDF0D001D002D003A512800CB4902C6C
:1048A300F0E02FF0D21B7B007A0779A2902FA6A508
:1048B300128007AF902CF0E0902FA9F07D01E4FF68
:1048C300A51280A57C7FD07E07A5128081C19005AB
:1048D3006DE064016013901542E09007B76006E055
:1048E3004408F08004E054F7F07F00A522E4902C04
:1048F300E3F0A5128097409007B7E04440F090158D
:1049030050740DA51280A5467F01A522E4902CE3E7
:10491300F0903A48F0900002F0A512809FA6900212
:10492300077402F0302807A51280A010C228902C2B
:10493300BC7401F0E4901776F0FBFAFD7F05A51235
:104943008162ECA51280B0125007A512804DD08071
:10495300F29017767401F0E4FBFAFD7F06A512814D
:1049630062ECE4900799F0900797F0A3F0902CBCC9
:10497300F0D21B90043AA5128007B9902FA6A51276
:104983008007AF90043DA51280A573D21B7B807A6C
:104993000379E4902FA6A5128007AF902FA9740185
:1049A300F0FDE4FFA51280A57CA51280A03590023E
:1049B300077401F0E49007B6F0A3F0D2252028078E
:1049C300A512809FEED228D227E4902CE3F0902CFE
:1049D300E3E0FFC39440505DE0FE25E025E0242E94
:1049E300F582E43436F583E0FD75F006EE900004BD
:1049F300A512800798E06D7034EF25E025E02430A0
:104A0300F582E43436F583E0B40122902CE3E075BB
:104A1300F006900006A512800798E0FEA3E04E7012
:104A23000C9007B6E04404F0A3E0F08008902CE378
:104A3300E004F08099902CE3E0644060028055A587
:104A43001280924EE4902CE3F0902CE3E0FFC394A9
:104A530040501875F006EF900005A512800798E006
:104A6300541FF0902CE3E004F080DE901540E070DA
:104A73000320250D901541E060079007B7E044023D
:104A8300F07D53E4FFA51280D4B6BF02079007B7A9
:104A9300E04440F0E490187AF0900522F09001840D
:104AA300F0A3F0A5128153CE7F00A522E4902CE35E
:104AB300F0A3F0202703024DAEA512809FA6901508
:104AC300507410A51280A546E47F64A512808E1948
:104AD3009007B6E0FEA3E0FF30E009902CE474F108
:104AE300F0024B88EF30E109902CE474F2F0024BB2
:104AF30088EF30E209902CE474F3F0024B88EF3036
:104B0300E308902CE474F4F0807BEF30E408902CFD
:104B1300E474F5F0806FEF30E508902CE474F6F060
:104B23008063EF30E608902CE474F7F08057EF30A1
:104B3300E708902CE474F8F0804BEE30E008902CFA
:104B4300E474F9F0803FEE30E108902CE474FAF05D
:104B53008033EE30E208902CE474FBF08027EE30D3
:104B6300E308902CE474FCF0801BEE30E408902CF6
:104B7300E474FDF0800FEE902CE430E50574FEF054
:104B8300800374FFF0202A03024D44900532E07045
:104B930002A3E07003024D447B807A0379E6902FF1
:104BA300A7A5128007AF902CE4E0902FAAF07B001A
:104BB3007A0779A2A512800CB4902CE3EFF090153C
:104BC300507420F0E0FE25E025E024F5F582E4347E
:104BD30003F583E493FD7C00C004C005EE25E025C6
:104BE300E024F2F582E43403F583A5128007B9C00B
:104BF3000174A22FF9E43407A801FC7D00D001D091
:104C030007D006A5128004D6901550E025E025E0D4
:104C130024F5F582E43403F583E493FF902CE3E079
:104C23002FF090056BE0FEA3E0FFEE6003024D4022
:104C3300EF24F6604024A67003024CD4246360037F
:104C4300024D40902CE3E024A2F9E43407FA7B0000
:104C5300C003C002C0017B807A037986902FA7A589
:104C6300128007AF900532E0FFA3E0902FAACFF0A8
:104C7300A3EF024D2E902CE3E024A2F9E43407FACB
:104C83007B00C003C002C0017B807A037989902F27
:104C9300A7A5128007AF90056BE0FAA3E0FB900590
:104CA30032E0FEA3E0FFAD03AC02A5128005159030
:104CB3002FAAEEF0A3EFF0900532E0FEA3E0FFADE4
:104CC30003AC02A512800515902FACECF0A3ED8088
:104CD3005A902CE3E024A2F9E43407FA7B00C003E2
:104CE300C002C0017B807A03798F902FA7A5128021
:104CF30007AF90056BE0FAA3E0FB900532E0FEA35B
:104D0300E0FFAD03AC02A512800515902FAAEEF0CB
:104D1300A3EFF0900532E0FEA3E0FFAD03AC02A5E4
:104D230012800515902FACECF0A3EDF0D001D0026A
:104D3300D003A512800CB4902CE3E02FF0C22A809C
:104D4300267B807A0379E6902FA7A5128007AF9080
:104D53002CE4E0902FAAF07B007A0779A2A51280B9
:104D63000CB4902CE3EFF0D21B7B007A0779A2906E
:104D73002FA6A5128007AF902CE3E0902FA9F07D1A
:104D830001E4FFA51280A57CE47F64A512808E193F
:104D9300900001E004F0E0C394024004C227E4F071
:104DA3009002077402F0A51280A035900549E0B483
:104DB3000117900002E0700CA5128087F0EF7004D9
:104DC30004F08005A51280B7F17F01A522E4902CA1
:104DD300E6F0D217A3F0A3F002547C902CE7E06036
:104DE3000302548CF0D217A51280A035D21B901B5E
:104DF30058A5128007B9902FA6A5128007AF901B64
:104E03005BA51280A573D21B901B5CA5128007B90A
:104E1300902FA6A5128007AF901B5FA51280A679DD
:104E2300902CE47401F0A304F0201703025185A52C
:104E33001280B6F1902CE8EFF024F37003024FC810
:104E430024F27003024FC324CB7003024F172408CC
:104E53006003025174902CE5E06402702DD21A9025
:104E63002F237402F0D21BE4FDFFA51280A69690B7
:104E73002CE57401F0902CE4E07006740AF0025102
:104E830074902CE4E014F0025174D21B902CE4E0F3
:104E9300FF25E025E02458F582E4341BF583A512B1
:104EA3008007B9902FA6A5128007AFEF25E025E074
:104EB300245BF582E4341BF583E493902FA9F07D02
:104EC30001E4FFA51280A57C902CE4E07005740A30
:104ED300F08006902CE4E014F0D21B902CE4E0FF69
:104EE30025E025E02458F582E4341BF583A51280E0
:104EF30007B9902FA6A5128007AFEF25E025E02480
:104F03005BF582E4341BA51280A571902CE5740136
:104F1300F0025174902CE5E06401701AA51280A68A
:104F230088902CE4E0B40A05E4F0024FBA902CE434
:104F3300E004F0024FBAD21B902CE4E0FF25E025F9
:104F4300E02458F582E4341BF583A5128007B99059
:104F53002FA6A5128007AFEF25E025E0245BF5829D
:104F6300E4341BA51280A571902CE4E0B40A04E498
:104F7300F08006902CE4E004F0D21B902CE4E0FFD8
:104F830025E025E02458F582E4341BF583A512803F
:104F930007B9902FA6A5128007AFEF25E025E024DF
:104FA3005BF582E4341BF583E493902FA9F07D0134
:104FB300E4FFA51280A57C902CE57402F0025174E5
:104FC300C217025174C21AE4902F23F0D21BFDA51D
:104FD3001280A02F902CE4E0A5128007C64FFF009B
:104FE300500601500D02501403501B065022075067
:104FF300290850300950370A0000503CA51280F9A7
:10500300EC8036A5128165D2802FA5128163A8801A
:1050130028A5128164BA8021A51280E15C801AA5BB
:105023001280FD5F8013A51280646B800CA5128033
:1050330077728005A51280C631902CE5E06402608A
:10504300030250D3902CE4E07017D21B901B80A571
:10505300128007B9902FA6A5128007AF901B8380FB
:105063002FD21B902CE4E0FF25E025E02454F582A9
:10507300E4341BF583A5128007B9902FA6A51280EF
:1050830007AFEF25E025E02457F582E4341BF583D1
:10509300A51280A573D21B902CE4E0FF25E025E048
:1050A3002458F582E4341BF583A5128007B9902FA9
:1050B300A6A5128007AFEF25E025E0245BF582E487
:1050C300341BF583E493902FA9F07D01E40251662C
:1050D300902CE4E0B40A17D21B901B58A51280074A
:1050E300B9902FA6A5128007AF901B5B802FD21B10
:1050F300902CE4E0FF25E025E0245CF582E4341BFA
:10510300F583A5128007B9902FA6A5128007AFEFEC
:1051130025E025E0245FF582E4341BF583E49390D6
:105123002FA9F07D01E4FFA51280A57CD21B902C52
:10513300E4E0FF25E025E02458F582E4341BF58301
:10514300A5128007B9902FA6A5128007AFEF25E01F
:1051530025E0245BF582E4341BF583E493902FA9C7
:10516300F0E4FDFFA51280A57C902CE5A51280A09C
:1051730021A5128087EB7F0A7E00A5128083B402EB
:105183004E2CE47F2C7E01FDFC902FDA7427F0A3D4
:10519300743AF0A512808E22A512814181D21AE4BD
:1051A300902F23F0D21BFDFFA51280A696D21AE4FE
:1051B300902F23F0D21BFD7F01A51280A696903A73
:1051C30044E07003302D4ED21B7B807A1B792690EE
:1051D3002FA6A5128007AF902FA9740AA51280A548
:1051E30078D21B7B807A1B7931902FA6A51280077A
:1051F300AF902FA97401F0FDE4FFA51280A57CE414
:105203007FDC7E05FDFC902FDA7427F0A3743AF05F
:10521300A512808E22903A44E070030252F4A51244
:1052230080F1C0E47F64A512808E19A51280CAD0D4
:10523300E47F64A512808E197E017F807D007B0050
:105243007A2C79E9A5128008867F807E027D087C0E
:105253000075382C7539E9753A01753B80A51280C4
:10526300AF30E4902CE6F0902CE6E0FF75F006906A
:105273002CEDA512800798E0FE75F006EF9000086C
:10528300A512800798E06E7057902CE6E075F00643
:10529300902CEAA512800798E0FE75F006EF9000C7
:1052A30005A512800798E0B50636902CE6E075F068
:1052B30006902CEBA512800798E0FCA3E0FD75F0A7
:1052C30006EF900006A512800798E0FEA3E0B5055F
:1052D3000FEEB5040B902CE6E004F0E06440708719
:1052E300902CE6E064406004A37401F0E4903A4437
:1052F300F0202D030253E7A51280F160E47F64A53B
:1053030012808E197E007F567D007B007A2E79698C
:10531300A5128008867F807E017D087C0075382E6B
:10532300753969753A00753B56A51280AF30902EDA
:1053330069E0FF900523E06F60030253DF902E6A5C
:10534300E0FEA3E0FF900524E06E7003A3E06F602E
:10535300030253DF902E6CE0FEA3E0FF900526E0EE
:105363006E7003A3E06F7074902E6EE0FEA3E0FFF7
:10537300900528E06E7003A3E06F7060902E70E0DC
:10538300FF90052AE06F7054902E71E0FF90052B7B
:10539300E06F7048902E72E0FEA3E0FF90052CE0D2
:1053A300B50639A3E0B50734902E74E0FEA3E0FF01
:1053B30090052EE0B50625A3E0B50720902E78E0F2
:1053C300FEA3E0FF900532E0B50611A3E0B5070C9C
:1053D300902EBEE0FF900578E06F6006902CE77496
:1053E30001F0C22D902CE7E07003025483A51280D4
:1053F300A035D21B7B807A1B7933902FA6A5128010
:1054030007AF902FA97413A51280A578D21B7B80B8
:105413007A1B7947902FA6A5128007AF902FA97406
:1054230010F07D01E4FFA51280A57C751D0FE490AB
:105433002CE6F0E51D603BA51280DB33A51280B698
:10544300F1902CE8EFF0F460EA902CE8E024E560BA
:1054530010240E70DEE4902CE7F0902CE604F0802C
:105463000A902CE77401F0902CE6F0902CE6E0B45F
:1054730001C1E51D6003024DDE902CE7F0024DDE15
:10548300902CE77401F0024DDEA50280A035902E2A
:10549300DAEDF0902ED9EFF0E4902EDBF0EF14600C
:1054A3002B14603A14605314606C24F87003025593
:1054B3003B240C600302555D901540E0FF30E7028A
:1054C300807EEF20E003025558025550901541E0CD
:1054D300FF30E702806AEF30E00280718077901539
:1054E30042E0FF30E7028058EF54066002803690B6
:1054F3001542E030E0028055805B901543E0FF30B9
:10550300E702803CEF54066002801A901543E030B6
:10551300E0028039803F901544E0FF30E7028020AD
:10552300EF54066008902EDB7403F0802D90154431
:10553300E030E0028017801D90154DE0FF30E70852
:10554300902EDB7402F08012EF54036008902EDB80
:105553007401F08005E4902EDBF03019030256430A
:10556300902ED9E0FF25E025E024F3F582E4340B07
:10557300F583E493FD7C00C004C005EF25E025E03E
:1055830024F0F582E4340BF583A5128007B978DCA7
:105593007C2E7D00D007D006A5128004D6902EDB8A
:1055A300E0FF25E025E0242BF582E4340CF583E4C9
:1055B30093FD7C00C004C005EF25E025E02428F519
:1055C30082E4340CF583A5128007B9C001902ED96B
:1055D300E025E025E024F3F582E4340BF583E4933E
:1055E30024DCF9E4342EA801FC7D00D001D007D0DF
:1055F30006A5128004D6902EDAE0FDD21B7B007A3A
:105603002E79DC902FA6A5128007AF902EDBE02524
:10561300E025E0242BF582E4340CF583E493FF903A
:105623002ED9E025E025E024F3F582E4340BF5835D
:10563300E4932F902FA9F0E4FFA51280A57C8005A9
:10564300902EDBE0FFA522902EBFE0FF7D01902E80
:10565300D8EDF0902ED7EFF0601BE0FF64016015EA
:10566300EF64026010EF6403600BEF64046006EF05
:105673006003B40C11902ED7E0FFA3E0FDC219A57F
:10568300128054918041902ED8E0FDD21B902ED7EA
:10569300E0FF25E025E024F0F582E4340BF583A553
:1056A300128007B9902FA6A5128007AFEF25E0253A
:1056B300E024F3F582E4340BF583E493902FA9F00F
:1056C300E4FFA51280A57CA522E4902F01F0A3F0AE
:1056D300A3F0A3F0A3740AF0A37402F0902F0814AC
:1056E300F0E4A3F0902F0774FFF0A51280A035A576
:1056F3001280A688902F067402F0E4902F01F09098
:105703002F01E0FFC39440501D75F006EF90000495
:10571300A512800798E0600E902F09E004F0902F07
:1057230001E004F080D9902F08E07003025A257E2F
:10573300007F157D007B007A2E79D7A5128008861D
:105743007E007F157D007B007A2E79ECA512800800
:1057530086E4902F02F0902F01F0902F04E0902F19
:1057630001F0902F05E0FF902F01E0FEC39F40035F
:105773000259A7902F04E02405FDE433FCEEC39DFA
:10578300EC6480F87480984003025885902F01E000
:1057930075F006900004A512800798E07003025983
:1057A3009E902F02E075F004A424D7F9742E35F0EF
:1057B300FA7B00C003C002C0017B807A0B7955904D
:1057C3002FA7A5128007AF902F01E075F006900078
:1057D30004A512800798E0902FAAF0D001D002D040
:1057E30003A512800CB4E4902F03F0902F01E07511
:1057F300F006900005A512800798E0FF7006902F31
:1058030003F0803EEF540A6008902F037402F08087
:1058130031902F01E0FF75F006900005A512800777
:1058230098E020E20F75F006EF900008A5128007BC
:1058330098E07008902F037403F08006902F037490
:1058430001F0902F03E0FF25E025E0243BF582E4FF
:10585300340CF583E493FD7C00C004C005EF25E020
:1058630025E02438F582E4340CF583A5128007B9CA
:10587300C001902F02E075F004A424D9F9742E021C
:105883005986902F09E0FF902F01E0FEC39F40034C
:105893000259A775F006EE900004A512800798E060
:1058A300700302599E902F02E075F004A424D8F9E6
:1058B300742E35F0FA7B00C003C002C0017B807AEE
:1058C3000B7955902FA7A5128007AF902F01E07594
:1058D300F006900004A512800798E0902FAAF0D05C
:1058E30001D002D003A512800CB4E4902F03F090F2
:1058F3002F01E075F006900005A512800798E0FFE0
:105903007006902F03F0803EEF540A6008902F0337
:105913007402F08031902F01E0FF75F006900005CE
:10592300A512800798E020E20F75F006EF900008BB
:10593300A512800798E07008902F037403F0800687
:10594300902F037401F0902F03E0FF25E025E0245E
:105953003BF582E4340CF583E493FD7C00C004C082
:1059630005EF25E025E02438F582E4340CF583A522
:10597300128007B9C001902F02E075F004A424DA65
:10598300F9742E35F0A801FC7D00D001D007D006B4
:10599300A5128004D6902F02E004F0902F01E004BA
:1059A300F00257657B007A2E79D7A512800010EF9D
:1059B3004E70127B007A2E79ECA512800010EF4E08
:1059C3007003025AC9D21B7B007A2E79D7902FA677
:1059D300A5128007AF902FA97414A51280A578D2C1
:1059E3001B7B007A2E79EC902FA6A5128007AF902F
:1059F3002F02E024FB25E025E0902FA9F07D01E4B0
:105A0300FFA51280A57C902F06E014FDD21A902FDB
:105A1300237402F0D21BE4FFA51280A696E4902F14
:105A230008F0A51280B6F1902F07EFF024E570037C
:105A3300025AC924CB60462408707A902F06E0B43A
:105A4300021AD21A902F237402F0D21BE4FDFFA591
:105A53001280A696902F067401F08059902F04E0CF
:105A6300D394004050902F04E024FBF0A3E024FBE8
:105A7300F0902F087401F0902F06F08038902F06D5
:105A8300E0B4010DA51280A688902F067402F08061
:105A930024902F09E0FF902F05E0C39F5017902F0C
:105AA30004E02405F0A3E02405F0902F087401F02E
:105AB300902F0604F0A5128087EB7F0A7E00A512C3
:105AC3008083B4025729A522902ED7EFF0A3EDF0DF
