:020000040000FA
:09000000021B3C080001009600FF
:10000B00A50280FBB4E4FFFEA54860090FEF700169
:07001B000EA56980F3A52288
:10002300A502807E5CEFB40A09740DA51280003529
:10003300740A309811A899B8130CC2983098FDA887
:0F00430099C298B811F63099FDC299F599A52286
:10005300A50281460A202020202020BBB6D3ADB9BB
:10006300E2C1D9002020C1E3C7AEB2BBD7E3202051
:1000730020200020202020D1A1D4F1C9CCC6B7B3C1
:10008300ACCAB120202020002020C7EBB2E5C8EB8A
:10009300B8FCD0A1C3E6B6EED6BDB1D2002020C7CE
:1000A300EBD1A1BBF5BBF2BCCCD0F8CDB6B1D2211C
:1000B30000C8B7B6A8454E54455220C8A1CFFB434C
:1000C300414E43454C0020202020C7EBC8A1C1E38B
:1000D300C7AE00C8A1CFFB43414E43454C0020208F
:1000E3002020CAE4C8EBB4EDCEF300C8B7B6A845E8
:1000F3004E544552002020C7EBCDB6C8EBD6BDB158
:10010300D2BBF2D3B2B1D200BFCDBBA7D3E0B6EE20
:100113003A00D1A1D4F1C6E4CBFCC9CCC6B7C2F036
:100123003F200020202020BBFAC6F7B9CAD5CF0054
:100133002020C9CCC6B7D2D1CADBCDEA002020200B
:10014300202020D0BBD0BB2100202020202020D481
:10015300DDCDA3B7FECEF10020202020D5D2C1E310
:10016300C6F7B9CAD5CF002020C7EBC9D4BAF22E3F
:100173002E2E00BDF0B6EEB2BBD7E32C20BCD3C706
:10018300AEC2F03F20002020D5FDD4DAB3F6BBF594
:100193002E2E2E002020D5FDD4DAD5D2C1E32E2E6B
:1001A3002E0020202020D5D2C1E3CAA7B0DC002036
:1001B300202020486F772061726520796F752100B8
:1001C300C7EBCAE4C8EBC6E4CBFCC9CCC6B7B1E005
:1001D300BAC5002020C7EBD1A1D4F1C6E4CBFCC93A
:1001E300CCC6B7002020C7EBC8A1BBF52E2E2E002E
:1001F3002020C7EBC8A1D7DFCDCBB1D22E2E2E0046
:100203002020C9CCC6B7BBF5B5C0B9CAD5CF00202D
:1002130020D1A1D4F1C6E4CBFCC9CCC6B7C2F03F10
:1002230000202020202020B2D9D7F7B3ACCAB100D8
:1002330020202020D5FDD4DACDCBBFEE00C7B7BF39
:10024300EE3A0020202020C7EBCDB6C8EBD3B2B1E5
:10025300D20020202020C7EBB2E5C8EBD6BDB1D237
:1002630000B2BBD5D2C1E3A3ACB9BAC2F2C7EBCDDE
:10027300B6B1D20020204556373733362D554220AC
:1002830056312E32002020BBB9D2AAB9BAC2F2C964
:10029300CCC6B7C2F03F00202020202020CEDEC1F4
:1002A300E3B1D2002020C9CCC6B7BCDBB8F13A0019
:1002B3002020CBF9D1A1C9CCC6B7D4DDCAB100C8BF
:1002C300B1BBF5002020B9CAD5CF002020CDCBB1DA
:1002D300D2BDF0B6EE3A002020B5B1C7B0BDF0B63E
:1002E300EE3A002020C7EBCBA2BFA82E2E2E002073
:1002F30020CDB6B1D22D3ED1A1BBF52D3EC8A1BBB9
:10030300F52020002020CCF9BFA82D3ED1A1BBF5BC
:100313002D3EC8A1BBF52020002020BFA8D3E0B606
:10032300EEB2BBD7E32E2E2E002020B6C1BFA8CA43
:10033300A7B0DC2E2E2E002020BFA8D3E0B6EE3AC5
:10034300002020BDF0B6EEB2BBD7E32E2E2E002048
:100353002020202020CFD6BDF0CFFBB7D100202016
:1003630020202020CBA2BFA8CFFBB7D1002020C7DD
:10037300EBD1A1BBF52100564D44455600564D52D5
:1003830045430025750025752E25750025752E25F9
:100393003032750025732025750025732025752EB1
:1003A30025750025732025752E253032750025739C
:1003B300257500257325752E257500257325752E46
:1003C30025303275002573256C75002573256C75F2
:1003D3002E256C75002573256C752E2530326C75B2
:1003E300002000B4FAC2EB3D253032627820008051
:1003F30000580E8000670E8000761480008B1480F6
:1004030000A0138000B4148000C90C8000D60A80B9
:1004130000E10C8000EE098000F81280010B0980D6
:100423000115108001260C8001330C8001400B80E4
:10043300014C0E80015B0E80016A0B8001761280F5
:1004430001890D8001970D8001A50C8001B21080F8
:1004530001C3128001D6108001E70B8001F30F80E6
:1004630002030E800212118002240E8002330C80DC
:100473000240058002460E8002550E8002641280FF
:100483000277108002881180029A0C8002A70B80E9
:1004930002B30E8002C2048002C7088002CE0B8022
:1004A30002DA0B8002E60B8002F214800307148049
:1004B300031C0F80032C0D80033A098003440D8035
:1004C30003520E8003610E8003700980037A058056
:1004D3000380058F828E83EDF5F0FFECFEE8FDE5EA
:1004E30082600205834583600EA548A55CA569A5C6
:1004F3006DD582F5D583F2ABF0ECFAE8F9A522EFDE
:100503008DF0A4A8F0CF8CF0A428CE8DF0A42EFEFD
:10051300A522BC000CBE002BEF8DF084FFADF0A52F
:1005230022E4CCF875F008EF2FFFEE33FEEC33FC3A
:10053300EE9DEC984005FCEE9DFE0FD5F0E9E4CE70
:10054300FDA522EDF8F5F0EE8420D21DFEADF07589
:10055300F008EF2FFFED33FD4008985007D5F0F278
:10056300A522C398FD0FD5F0E9A522C2D5EC30E74B
:1005730009B2D5E4C39DFDE49CFCEE30E717B2D588
:10058300E4C39FFFE49EFEA512800515C3E49DFD11
:10059300E49CFC8005A51280051530D507C3E49FB4
:1005A300FFE49EFEA522C5F0F8A3E028F0C5F0F80D
:1005B300E582158270021583E038F0A522A3F8E0E6
:1005C300C5F025F0F0E582158270021583E0C83886
:1005D300F0E8A522EF2BFFEE3AFEED39FDEC38FCF7
:1005E300A522E88FF0A4CC8BF0A42CFCE98EF0A418
:1005F3002CFC8AF0EDA42CFCEA8EF0A4CDA8F08BA1
:10060300F0A42DCC3825F0FDE98FF0A42CCD35F0E6
:10061300FCEB8EF0A4FEA9F0EB8FF0A4CFC5F02E77
:10062300CD39FEE43CFCEAA42DCE35F0FDE43CFCE0
:10063300A52275F008758200EF2FFFEE33FECD3350
:10064300CDCC33CCC58233C5829BED9AEC99E58240
:1006530098400CF582EE9BFEED9AFDEC99FC0FD5CC
:10066300F0D6E4CEFBE4CDFAE4CCF9A882A522B817
:1006730000C0B9005BBA002EEC8BF084CFCECDFC6A
:10068300E5F0CBF97818EF2FFFEE33FEED33FDECF9
:1006930033FCEB33FB10D703994004EB99FB0FD8E2
:1006A300E5E4F9FAA5227818EF2FFFEE33FEED33D8
:1006B300FDEC33FCC933C910D7059BE99A4007EC1D
:1006C3009BFCE99AF90FD8E0E4C9FAE4CCFBA52234
:1006D30075F010EF2FFFEE33FEED33FDCC33CCC8B6
:1006E30033C810D7079BEC9AE899400AED9BFDECC1
:1006F3009AFCE899F80FD5F0DAE4CDFBE4CCFAE400
:10070300C8F9A522EB9FF5F0EA9E42F0E99D42F07D
:10071300E89C45F0A522E0FCA3E0FDA3E0FEA3E0F6
:10072300FFA522E493FC740193FD740293FE74030A
:1007330093FFA522E0F8A3E0F9A3E0FAA3E0FBA569
:1007430022E493F8740193F9740293FA740393FB0C
:10075300A5227401FF3395E0FEFDFCA3A3A3E0CF24
:100763002FF0E582158270021583E0CE3EF0E5821C
:10077300158270021583E0CD3DF0E582158270028B
:100783001583E0CC3CF0A522ECF0A3EDF0A3EEF052
:10079300A3EFF0A522A42582F582E5F03583F58346
:1007A300A522E0FBA3E0FAA3E0F9A522EBF0A3EA7C
:1007B300F0A3E9F0A522E493FB740193FA74029386
:1007C300F9A522F8D0E0F5834480FBD0E0FAD0E02D
:1007D300F9A5487012A549700EA56AA549C0E0A500
:1007E30048C0E0C083A522A54A6860EFA56B80E1FD
:1007F300F8D0E0F5834480FBD0E0FAD0E0F9A548D7
:100803007012A549700EA56AA549C0E0A548C0E0CD
:10081300C083A522A54AB5F005A54B6860EAA56883
:1008230080DCE8CDFFECFEA548F5F0A54CA569A555
:100833006DB5F00670F17F00A52263F0806480D36C
:1008430095F07FFF40027F01A5228F828E83EDFF0B
:10085300ECFEE8FDE58260020583458370047F00BA
:10086300A522A548F5F0A54CA569A56DB5F006D55B
:1008730082F0D583ED7FFFB5F0030FA52240027F01
:1008830001A522EF4E6019EF60010EED89828A8384
:100893008BF0A558A569DFFADEF88BF0A982AA834D
:1008A300A522F8E0FBA3A3E0F925F0F0E582158289
:1008B30070021583E0FA38F0A522312ED6BDB1D2ED
:1008C300C6F7D7B4CCAC3A2000322ED3B2B1D2C6DD
:1008D300F7D7B4CCAC3A2000332E2331D5D2C1E3C1
:1008E300C6F7D7B4CCAC3A2000342E2332D5D2C1CC
:1008F300E3C6F7D7B4CCAC3A2000352E2333D5D298
:10090300C1E3C6F7D7B4CCAC3A2000362ECAD6BB67
:10091300FAC4A3BFE9D7B4CCACB2E2CAD400372E31
:10092300B6CCD0C5B2E2CAD400382EBBF5B5C0D719
:10093300B4CCAC00392EBBF5B5C0BCECB2E200318F
:10094300302E20D1A1BBF5B0B4C5A5BCECB2E200FA
:1009530031312E20D3CECFB7B0B4C5A5BCECB2E2B3
:100963000031322E20CDCBB1D2B0B4C5A5BCECB290
:10097300E20031332E20B6C1BFA8C6F7B2E2CAD413
:100983003A200031342E20BBF5B5C0B2E2CAD4BD43
:10099300E1B9FB00D5FDB3A300B9CAD5CF00CEDEC4
:1009A30000B2BBD7E300CEB400D500B9CA00C8B1CA
:1009B30000C8B7B6A8454E54455220C8A1CFFB4343
:1009C300414E43454C00C0DBBCC6B2E2CAD4B4CEF0
:1009D300CAFD3A20257500BBF5B5C02530326275D6
:1009E300B9CAD5CFB4CECAFD3A257500D5FDD4DA40
:1009F300BCECB2E220253032627520BBF5B5C000F5
:100A030020202020C7EBC9D4B5C82E2E2E002020CD
:100A1300BBF5B5C0B0E53A20B9CAD5CF2020200038
:100A23002020BBF5B5C025303262753A20B9CAD54E
:100A3300CF202020002020BBF5B5C02530326275C1
:100A43003A20CEDEBBF5202020002020BBF5B5C028
:100A53002025303262753A2020D5FDB3A320002033
:100A6300202020D3B2B1D2C6F7B2E2CAD400C7EB7A
:100A7300CDB6B1D23A002020B1D2B6B7D2D1C2FAA4
:100A83002C20C7EBB4A6C0ED2100D2D1CDB6C8EB64
:100A9300BDF0B6EE3A20257500D2D1CDB6C8EBBD78
:100AA300F0B6EE3A2025752E257500D2D1CDB6C805
:100AB300EBBDF0B6EE3A2025752E253032750020B9
:100AC30020D3B2B1D2C6F7CAC7B7F1D5FDB3A33F9E
:100AD3000020202020D6BDB1D2C6F7B2E2CAD4008E
:100AE3002020D6BDB1D2C6F7CAC7B7F1D5FDB3A38F
:100AF3003F0020202020B0B4C5A5B2E2CAD4210013
:100B0300CAE4C8EBB0B4C5A53A00CAE4C8EBB0B4B4
:100B1300C5A53A202562750020202020D3CECFB76B
:100B2300B0B4C5A5B2E2CAD42100D3D0BCFCB0B4E2
:100B3300CFC22C20D4F2C3F9BDD0D2BBC9F9002057
:100B4300202020CDCBB1D2B0B4C5A5B2E2CAD42106
:100B5300002530326275200020202020C4A3BFE985
:100B6300C3BBD3D0BFAAC6F400C4A3BFE9D5FDC39A
:100B7300A6A3ACC9D4BAF3D4D9CAD400C4A3BFE9D9
:100B8300B2E2CAD4CAA7B0DC00C4A3BFE9D5FDB39F
:100B9300A300564D4D534725627825627825627828
:100BA30025627825627800B2E2CAD4B6CCD0C5B744
:100BB300A2CBCDB3C9B9A600B2E2CAD4B6CCD0C5D4
:100BC300B7A2CBCDCAA7B0DC00B9CAD5CFB4FAC29D
:100BD300EB203D20257500D5FDD4DAB3F5CABCBBA7
:100BE300AFA3ACC9D4BAF3D4D9CAD4008008BD0E1C
:100BF3008008CC0E8008DB108008EC108008FD1004
:100C030080090E128009210A80092C0A8009370AFB
:100C130080094210800953108009641080097510FF
:100C2300800986108009970480099C048009A10229
:100C33008009A4048009A9028009AC028009AE02DC
:100C43008009B102E528249AF582E4342FF583E084
:100C5300052822902F97302203902F9AE475F001F4
:100C6300A5128008A5A54822201BE77F2ED21B8052
:100C730018EF540F2490D43440D4FF301F0BEF24CB
:100C8300BFB41A0050032461FFE52960021529054A
:100C93002CE52C7002052B302210902F97E475F071
:100CA30001A5128008A5EFA55822A51280002822CD
:100CB3007403D2228003E4C222F528902F97A51251
:100CC3008007AFE4F529F52BF52CE52960097F2092
:100CD300A512800C8C80F3752AFFC21CC21BC21D97
:100CE300C21EC220C221C223120C56FF700E302234
:100CF300057F00120C9DAF2CAE2BA522B4255FC23D
:100D0300D5C21F120C56FF24D0B40A00501A75F036
:100D13000A782930D50508B6FF0106C6A426F620B1
:100D2300D5047002D21E80D924CFB41A00EF500428
:100D3300C2E5D21F020EB4D21C80C6D21B80C0D221
:100D43001D80BCD2D580BAD22080B47F20120C8CF7
:100D5300201D077401B5290040F1120C47FF120C46
:100D63008C020CCDD223D2218095120C47FB120C9E
:100D730047FA120C47F94A4B700679877A0F7B8042
:100D8300201D3AE52960367E00E9C0E02EF9EAC06D
:100D9300E03400FAA548F9D0E0FAD0E0C960060EC5
:100DA300EE652A70E4C2D5EBC0E0EAC0E0E9C0E03A
:100DB300EE120EFDD0E0F9D0E0FAD0E0FBA548FF3B
:100DC300609FEBC0E0EAC0E0E9C0E0120C8CD0E029
:100DD3002401F9D0E03400FAD0E0FBE52A0460DD19
:100DE300D52ADA020D647B807A0E79F9D21D8090C0
:100DF300791080027908C221C2238008D2D5790AEA
:100E03008004790AC2D5E52A047002F52AE4FAFDC2
:100E1300FEFF120C47FC7B08201C13120C47FD7BC2
:100E230010301B0A120C47FE120C47FF7B20EC33D9
:100E330082D592D55013C3E4301B069FFFE49EFE78
:100E4300E4201C039DFDE49CFCE4CBF8C21CEC7085
:100E53000CCFCECDCCE824F8F870F38017C3EF3372
:100E6300FFEE33FEED33FDEC33FCEB33FB99400235
:100E7300FB0FD8E9EB301C05F8D0E0C448B21CC026
:100E8300E00AEC4D4E4F78207B0070C2EAB52A0091
:100E930040BCC0E0120EFFD0F0D0E0201C04C4C060
:100EA300E0C4B21CC0F0120C75D0F0D5F0EB020C0C
:100EB300CDA5128007C60D6D530DF3580D3E4C0D95
:100EC3003A420DF74F0DFF440DFF490D53430E05F5
:100ED300550DE9460DE9450DE9470FA2500D422D89
:100EE3000D462E0D692B0D4A230D67200F902A0DF9
:100EF300024800000D613F3F3F00790AA2D5201E42
:100F030014302009B910020404B9080104A2D52041
:100F13002102500104201D68921DB529005034C0E0
:100F2300E07F20301E197F30A21D72217220500FE6
:100F3300120F56C21DC221C220C2237F30800F3040
:100F43002003E9C0E0120C8C302003D0E0F9D0E09C
:100F5300B529CC3020177F30B9100C120C8C7F5878
:100F6300301F077F788003B90803120C8C301D05EE
:100F73007F2D020C8C7F202023F87F2B2021F3224E
:100F8300921D80CF286E756C6C2900D21C120C4701
:100F9300301CF8C21C782930D50108F6020D021264
:100FA3000C47C0E0C4120C75D0E0120C75743A12F1
:100FB3000C7DD21E752904020DF3410186004215F2
:100FC30046000041020801411548004207AE0000F7
:100FD30041000300C128C129C1A5C12AC1A7C12657
:100FE300420000000041000200413A4100413A360C
:100FF30000413A3700413A3800C12D413A4001419E
:101003003A3F00412CB000413A1200413A130041EB
:101013003A1400C108413A1600413A1700413A1800
:1010230000413A1900413A1A00413A1B00C10BC171
:101033000CC10DC10EC10FC110C111C112C113C129
:1010430014C115C116413A1C00014D1046399F08C1
:1010530000010096004139E500C131014F004120F4
:10106300DD004119FB004119F700411CC80141197A
:10107300F901C12BC12C4119FD004119FE01412089
:10108300C9004120DA00411871004119F2006200E1
:10109300332200008005800F000A801B001E00140D
:1010A300801180330036003C80390028802D802752
:1010B300002280630066006C80690078807D807701
:1010C300007200508055805F005A804B004E0044F0
:1010D300804180C300C600CC80C900D880DD80D7A2
:1010E30000D200F080F580FF00FA80EB00EE00E410
:1010F30080E100A080A580AF00AA80BB00BE00B441
:1011030080B180930096009C80990088808D8087B1
:10111300008281830186018C81890198819D819759
:10112300019201B081B581BF01BA81AB01AE01A4C7
:1011330081A101E081E581EF01EA81FB01FE01F478
:1011430081F181D301D601DC81D901C881CD81C769
:1011530001C201408145814F014A815B015E015417
:10116300815181730176017C81790168816D816789
:10117300016281230126012C81290138813D8137B8
:10118300013201108115811F011A810B010E010427
:10119300810183030306030C83090318831D83174B
:1011A300031203308335833F033A832B032E032437
:1011B300832103608365836F036A837B037E0374E8
:1011C300837183530356035C83590348834D8347D9
:1011D300034203C083C583CF03CA83DB03DE03D487
:1011E30083D183F303F603FC83F903E883ED83E7F9
:1011F30003E283A303A603AC83A903B883BD83B728
:1012030003B203908395839F039A838B038E038496
:10121300838102808285828F028A829B029E02944E
:10122300829182B302B602BC82B902A882AD82A7C0
:1012330002A282E302E602EC82E902F882FD82F76F
:1012430002F202D082D582DF02DA82CB02CE02C45E
:1012530082C182430246024C82490258825D825710
:10126300025202708275827F027A826B026E02647E
:10127300826102208225822F022A823B023E0234AF
:10128300823182130216021C82190208820D820720
:10129300020200312E2331D5D2C1E3C6F7C3E6D60D
:1012A300B53A00322E2332D5D2C1E3C6F7C3E6D610
:1012B300B53A00332E2333D5D2C1E3C6F7C3E6D6FE
:1012C300B53A00342ED4CAD0EDB6E0B4CEB9BAC222
:1012D300F23A00352EB2BBC2F2BBF5CDCBB1D23A56
:1012E30000362EBFAAC6F4D6BDB1D2C6F73A003730
:1012F3002EBFAAC6F4CAD6BBFAC4A3BFE93A0038C4
:101303002ED3E0B6EECFC2CFDE3A00392ECAD5B126
:10131300D2C9CFCFDE3A0031302E20D2C9CECABDDA
:10132300F0B6EE3A0031312E20BBFAC6F7B1E0BA7F
:10133300C53A200031322E47534DBAC5C2EB3A00AD
:1013430031332E20C7B7CCF53A0031342E20D0A14B
:10135300CAFDB5E33A0031352E202331D6BDB1D2D3
:101363003A0031362E202332D6BDB1D23A0031377E
:101373002E202333D6BDB1D23A0031382E20233468
:10138300D6BDB1D23A0031392E202335D6BDB1D2E4
:101393003A0032302E202336D6BDB1D23A00323154
:1013A3002E202337D6BDB1D23A0032322E20233835
:1013B300D6BDB1D23A0032332E202331D3B2B1D2CB
:1013C3003A0032342E202332D3B2B1D23A0032352E
:1013D3002E202333D3B2B1D23A0032362E20233417
:1013E300D3B2B1D23A0032372E202335D3B2B1D2A1
:1013F3003A0032382E202336D3B2B1D23A003239F2
:101403002E20BFAAC6F4B3F6BBF5C8B7C8CF3A00BF
:1014130033302E20BDBBD2D7CAB1BCE43A0033313E
:101423002E20B2BBD5D2C1E3C4A3CABD3A00333226
:101433002E20BFAAC6F4D3B2B1D2C6F73A003333D3
:101443002E20BFAAC6F4B9ABBDBBBFA83A00333444
:101453002E20B6C1BFA8CAB1BCE43A002575002549
:10146300752E25750025752E25303275002562757C
:101473000025326278002530326278008012960FA0
:101483008012A60F8012B60F8012C60F8012D60DDF
:101493008012E40D8012F20F8013020B80130E0BE7
:1014A30080131A0D8013280D8013370B8013430903
:1014B30080134D0B8013590B8013650B8013710B35
:1014C30080137D0B8013890B8013950B8013A10B65
:1014D3008013AD0B8013B90B8013C50B8013D10B95
:1014E3008013DD0B8013E90B8013F50B80140111BE
:1014F3008014130D8014210F8014310F8014410FB9
:101503008014510D000500050005000100010001D4
:1015130000010005000500050005001000010001A1
:101523000005000500050005000500050005000590
:101533000005000500050005000500050001000584
:101543000001000100010002312EBBF5B1D2CAD562
:10155300D6A700322EC9CCC6B700332EC7E5BFD5F8
:10156300BCC7C2BC00312EBBF5B1D2D7DCCAD5C8CB
:10157300EB3A00322ED6BDB1D2CAD5C8EB3A00330E
:101583002ED3B2B1D2CAD5C8EB3A00342EBDBBD2EA
:10159300D7D7DCBDF0B6EE3A00352ED5D2C1E3D7AE
:1015A300DCBDF0B6EE3A00362E2331B3F6B1D2D716
:1015B300DCBDF0B6EE3A00372E2332B3F6B1D2D704
:1015C300DCBDF0B6EE3A00382E2333B3F6B1D2D7F2
:1015D300DCBDF0B6EE3A00392E2331B3F6B1D2C3F7
:1015E300B6CAFD3A0031302E202332B3F6B1D2C34E
:1015F300B6CAFD3A0031312E202333B3F6B1D2C33C
:10160300B6CAFD3A0031322E20BFA8BDBBD2D7D017
:10161300F2BAC53A00312EB3C9B9A6BDBBD2D7B40D
:10162300CECAFD3A00322ED2C9CECABDBBD2D7B480
:10163300CECAFD3A00332EB5A5BBF5B5C0BDBBD2AE
:10164300D7CDB3BCC600312EBBF5B5C0B1E0BAC52A
:101653003A00322EB3C9B9A6BDBBD2D7CDB3BCC6EF
:101663003A00332ED2C9CECABDBBD2D7B4CECAFD3F
:101673003A002020C4E3C8B7B6A8C2F03F00C8B7F9
:10168300B6A8454E54455220C8A1CFFB43414E4313
:10169300454C002020C3BBD3D0BDBBD2D7BCC7C2EF
:1016A300BC0025750025627500B1E0BAC5CAE4C85F
:1016B300EBB4EDCEF300C7EBCAE4C8EBC6E4CBFC56
:1016C300B1E0BAC500256C7500256C752E256C75C7
:1016D30000256C752E2530326C750080154B0A8001
:1016E30015560680155D0A8015680D8015760B80EA
:1016F30015820B80158E0D80159C0D8015AA0F8009
:1017030015BA0F8015CA0F8015DA0D8015E80F8002
:1017130015F80F8016080F8016180F8016280F80F3
:101723001638108016490B8016550F8016650F80EA
:1017330016750B801681148016960ECFB5CDB3D5D2
:10174300FDD4DAC6F4B6AF2C20C7EBC9D4B5C800B4
:1017530020202020C4E3C8B7B6A8B8FCB8C4C2F0A0
:101763003F00C8B7B6A8454E54455220C8A1CFFB89
:1017730043414E43454C00D5FDD4DAB8FCB8C4C947
:10178300CCC6B7D3E0C1BF2E2E2E00C9CCC6B7D36B
:10179300E0C1BFB8FCB8C4CAA7B0DC2100C9CCC63D
:1017A300B7D3E0C1BFB8FCB8C4B3C9B9A62100D54B
:1017B300FDD4DAB8FCB8C4C9CCC6B7BCDBB8F12ECB
:1017C3002E2E00C9CCC6B7BCDBB8F1B8FCB8C4CA6E
:1017D300A7B0DC2100C9CCC6B7BCDBB8F1B8FCB8F4
:1017E300C4B3C9B9A6210020202020C4E3C8B7B6DA
:1017F300A8CCEDC2FAC2F03F00D5FDD4DACCEDC2DD
:10180300FA2E2E2E00CCEDC2FAB2D9D7F7CAA7B062
:10181300DC2100CCEDC2FAB2D9D7F7B3C9B9A621FE
:101823000020202020C4E3C8B7B6A8BDE1D5CAC2B2
:10183300F03F00D5FDD4DACCEDBCD3BDE1D5CAB5BC
:10184300E32E2E2E00CCEDBCD3BDE1D5CAB5E3CA41
:10185300A7B0DC2100CCEDBCD3BDE1D5CAB5E3B361
:10186300C9B9A6210020202020C4E3C8B7B6A8CD5B
:10187300ACB2BDC2F03F00D5FDD4DACDACB2BD2CC5
:1018830020C7EBC9D4B5C82E2E2E00CDACB2BDB245
:10189300D9D7F7B3C9B9A621002020C4E3C8B7B686
:1018A300A8C7E5B5E3C2F03F00D5FDD4DAC7E5B577
:1018B300E32C20C7EBC9D4B5C82E2E2E00C7E5B53F
:1018C300E3CDEAB1CFA3ACC7EBBACBB6D42100C703
:1018D300E5B5E3BDF0B6EE3A20257500C7E5B5E3FF
:1018E300BDF0B6EE3A2025752E257500C7E5B5E3A4
:1018F300BDF0B6EE3A2025752E2530327500312E17
:10190300B2E3BCDCB1E0BAC53A00322ECAC7B7F1C4
:10191300C6F4D3C33A00332ED7EEB4F3B4E6BBF523
:10192300C1BF3A00342EB5DAD2BBBBF5B5C03A001D
:10193300352EB5DAB6FEBBF5B5C03A00362EB5DAAC
:10194300C8FDBBF5B5C03A00372EB5DACBC4BBF53D
:10195300B5C03A00382EB5DACEE5BBF5B5C03A00CE
:10196300392EB5DAC1F9BBF5B5C03A0031302E20B6
:10197300B5DAC6DFBBF5B5C03A0031312E20B5DA92
:10198300B0CBBBF5B5C03A00C7EBCAE4C8EBC3DCC8
:10199300C2EB3A00C3DCC2EBB4EDCEF32100256207
:1019A30075002020200020002020202000CAE4C849
:1019B300EBB2E3BCDCB1E0BAC53A00B1E0BAC5CAE8
:1019C300E4C8EBB4EDCEF300C7EBCAE4C8EBC6E45E
:1019D300CBFCB1E0BAC5008019010B80190D0B8057
:1019E30019190D8019270B8019330B80193F0B80B0
:1019F300194B0B8019570B8019630B80196F0D80DE
:101A0300197D0D80198B0B801997090001000100C6
:101A130002000100010001000100010001000100BA
:101A230001312EBBF5B5C0B2CECAFD00322EBCD3F8
:101A3300C2FAC8ABB2BFBBF5B5C000332ECCEDBC08
:101A4300D3BDE1D5CAB5E300342EC8ABCFB5CDB312
:101A5300CDACB2BD00352E3520BDC7D3B2B1D2C790
:101A6300E5B5E300362E3120D4AAD3B2B1D2C7E50F
:101A7300B5E300372EC9E8B1B8B9DCC0ED00382EA4
:101A8300CFB5CDB3B2CECAFD00392EBDBBD2D7BCC4
:101A9300C7C2BC0031302E20BBF5BCDCC5E4D6C3C5
:101AA3000031312E20B3F6B3A7C4ACC8CFC5E4D6FA
:101AB300C3002020C8B7B6A8B3F6B3A7C5E4D6C3FE
:101AC300C2F03F00C8B7B6A8454E54455220C8A13E
:101AD300CFFB43414E43454C0030002020D5FDD47D
:101AE300DAB1A3B4E6002000B1A3B4E6CAA7B0DC20
:101AF300A3ACD6D8D0C2C9E8D6C33F002020454EF8
:101B030054455220202043414E43454C00801A2423
:101B13000A801A2F0E801A3E0C801A4B0C801A581A
:101B23000E801A670E801A760A801A810A801A8C30
:101B33000A801A970C801AA410A575FF07758E03E7
:101B430078FEE4F6D8FD75818FA575FB00759008C6
:101B5300A502801B83A50280C83AE493A3F8540727
:101B6300240CC8C333C4540F4420C8834004F45620
:101B7300800146F6DFE4800B010204081020408058
:101B8300900FBDE47E019360CCA3FF543F30E50981
:101B9300541FFEE493A360010ECF54E0B4E01CE4B1
:101BA30093FBA3E493FAA3E493F9A3E493A558A3C3
:101BB30009E970010ADFF4DEF280C854C025E06051
:101BC300254097E493A3FAE493A3F8E493A3C8C549
:101BD30082C8CAC583CAF0A3C8C582C8CAC583CA96
:101BE300DFE9DEE7809DE493A3F8E493A34003F6E3
:101BF3008001F208DFF4808B312EBBF5B5C0B1E074
:101C0300BAC53A2000322EC9CCC6B7D3E0C1BF3A19
:101C13002000332EB5A5BCDB3A2000342EBBF5B52E
:101C2300C0D7B4CCAC3A2000352EC9CCC6B7B1E08E
:101C3300BAC53A200025303262750025336275003B
:101C430025750025752E25750025752E25303275D1
:101C530000256275002532627500801BFB0C801C19
:101C6300080C801C1508801C1E0C801C2B0C2000EB
:101C73002020202020202020202020202020202061
:101C83002020202000C7EBCAE4C8EBB1E0BAC53A74
:101C93002000B1E0BAC5CAE4C8EBB4EDCEF300C787
:101CA300EBCAE4C8EBC6E4CBFCB1E0BAC500202024
:101CB3002020202020202020202020202020202021
:101CC300202000C2D5E830E70FB2D5E4C39BFBE484
:101CD3009AFAE499F9E498F8EC30E71BB2D5A51227
:101CE300801D02A512800672E4C39BFBE49AFAE40A
:101CF30099F9E498F88005A51280067230D50DE4B1
:101D0300C39FFFE49EFEE49DFDE49CFCA5224742A5
:101D1300323331320057494E31323532000D51964C
:101D230010526405050505050505050404040408AA
:101D33000807FF010101010101010102020202037F
:101D43000306FF50505050505050501B1B1B1B0D8F
:101D53000D18FF09090909090909092E2E2E2E005C
:101D63000048FF000000010000000A0000006400BA
:101D73000003E800002710000186A0000F42400086
:101D830098968005F5E10007020100960000010026
:101D9300020005000A001400320064000000000184
:101DA30001010000000800010096000800010096F0
:101DB30000080001009600901546E0FEA3E0FF90A6
:101DC3002CDDEEF0A3EFF0E4A3F0D3EF9400EE9458
:101DD3000050057F0002202E901548742CF07E00E1
:101DE3007F147D007B007A07799AA512800886907C
:101DF3001548E0FF25E025E024F5F582E43403F5FA
:101E030083E493902CDFF0FD7C00C004C005EF2534
:101E1300E025E024F2F582E43403F583A51280077C
:101E2300B9789A7C077D00D007D006A5128004D626
:101E3300902CDFE0FF249AF582E43407F5837420C5
:101E4300F090056CE0FCA3E0FDEC6003021F5CED89
:101E530024F6603D24A67003021EF024636003028F
:101E63001F5C749B2FF9E43407FA7B00C003C002A4
:101E7300C0017B807A037986902F9AA5128007AFE1
:101E8300902CDDE0FFA3E0902F9DCFF0A3EF021F86
:101E93004A902CDFE0249BF9E43407FA7B00C0036B
:101EA300C002C0017B807A037989902F9AA51280A2
:101EB30007AF90056CE0FAA3E0FB902CDDE0FEA3F6
:101EC300E0FFAD03AC02A512800515902F9DEEF047
:101ED300A3EFF0902CDDE0FEA3E0FFAD03AC02A581
:101EE30012800515902F9FECF0A3ED805A902CDF04
:101EF300E0249BF9E43407FA7B00C003C002C0016D
:101F03007B807A03798F902F9AA5128007AF900573
:101F13006CE0FAA3E0FB902CDDE0FEA3E0FFAD0351
:101F2300AC02A512800515902F9DEEF0A3EFF09063
:101F33002CDDE0FEA3E0FFAD03AC02A51280051586
:101F4300902F9FECF0A3EDF0D001D002D003A512A7
:101F5300800CB3902CDFE02FF0902CDFE004F0D264
:101F63001B7B007A07799A902F99A5128007AF906F
:101F73002CDFE0A51280A0EA90052FE0FEA3E0FF8E
:101F8300C3901547E09F901546E09E901548400486
:101F9300743680027404F0D21BE0FF25E025E024B0
:101FA300F2F582E43403F583A5128007B9902F99E3
:101FB300A5128007AFEF25E025E024F5F582E43490
:101FC30003F583E493902F9CF07D01E4FFA5128039
:101FD300A0F1E47F64FEFDFC902FCD7427F0A37481
:101FE30030F0A5128084AB901824E0B4011A901845
:101FF30026E0FCA3E0FDE4FFA512816077E49018DE
:1020030024F0901826F0A3F0901825E0B4011A905C
:102013001828E0FCA3E0FD7F01A512816077E4901E
:102023001825F0901828F0A3F07F00A522E4902C47
:10203300D9F0FE7F53FD7B007A057924A512800831
:10204300867E037F267D007B007A15794AA5128060
:1020530008867E037FDE7D007B007A11795AA51204
:102063008008869017737401F0A3F07E027F217DB0
:10207300007B007A057977A51280088690077F7424
:1020830001F07E037F137D007B007A0E791AA5127F
:10209300800886E47F64A5128084A2D21B90048208
:1020A300A5128007B9902F99A5128007AF900485D8
:1020B300A51280A0E8D21B90043AA5128007B9901C
:1020C3002F99A5128007AF90043DE493902F9CF0C5
:1020D3007D01E4FFA51280A0F1E47F64A512808452
:1020E300A27F00A522E4902CD9F0A3F0A3F0A3F0E3
:1020F300FE7F14FD7B007A07799AA51280088690EB
:102103001776E0FF75F03790115FA512800798E00E
:10211300D39400401875F037EF901190A512800703
:1021230098E0FFF46019901549EFF080129017764C
:10213300E075F037901190A51280079874FFF09026
:102143001776E075F037901190A512800798E0F4A8
:1021530070028041901549E075F006900009A512C0
:10216300800798E07002802D901549E0FF75F00616
:10217300900006A512800798E0FE540A701775F0C8
:1021830006EF900007A512800798E0FCA3E04C60DF
:1021930004EE20E041901548740EA51280A0BB9078
:1021A30015487419F0D21BE0FF25E025E024F2F571
:1021B30082E43403F583A5128007B9902F99A51201
:1021C3008007AFEF25E025E024F5F582E43403F53D
:1021D30083E4930224C09015487427F090056CE0C3
:1021E300FEA3E0FFEE600302233EEF24F6605724D4
:1021F300A670030222BC2463600302233E7B807A21
:10220300037997902F9AA5128007AF901548E02580
:10221300E025E024F2F582E43403F583A512800778
:10222300B9902F9DA5128007AF901549E075F00670
:10223300900007A512800798E0FFA3E0902FA0CF9E
:10224300F0A3EF02232D7B807A03799D902F9AA52B
:10225300128007AF901548E025E025E024F2F582CF
:10226300E43403F583A5128007B9902F9DA512804E
:1022730007AF901549E075F006900007A512800797
:1022830098E0FAA3E0FB90056CE0FCA3E0FDAF034C
:10229300AE02A512800515902FA0EEF0A3EFF090EB
:1022A300056CE0FCA3E0FDAF03AE02A512800515AB
:1022B300902FA2ECF0A3ED80717B807A0379A69036
:1022C3002F9AA5128007AF901548E025E025E0245A
:1022D300F2F582E43403F583A5128007B9902F9DAC
:1022E300A5128007AF901549E075F006900007A589
:1022F30012800798E0FAA3E0FB90056CE0FCA3E0F2
:10230300FDAF03AE02A512800515902FA0EEF0A33A
:10231300EFF090056CE0FCA3E0FDAF03AE02A51265
:10232300800515902FA2ECF0A3EDF07B007A0779DE
:102333009AA512800CB3902CD9EFF0A512808A03D2
:10234300C226E4F5149018707406F0900574E064E6
:1023530001600302248D901545E054FB60030224C1
:102363008DD21B7B007A07799A902F99A51280074B
:10237300AF902CD9E0902F9CF07D01E4FFA5128053
:10238300A0F1902CDB742DA51280A0BB900575E005
:10239300FF7E007C037DE8A512800502E4FCFDA519
:1023A300128084A5901158E475F001A5128005A947
:1023B300901549E075F006900007A512800798E094
:1023C300FEA3E0FF901158E0FCA3E0FDA512816F8E
:1023D300C2902CDCEFF07076901027E064A070457B
:1023E300A51280C1DDA512815683901549E075F0D1
:1023F30006900007A512800798E0FCA3E0FD7F028A
:10240300A512816077901549E075F006900007A545
:1024130012800798E0FFA3E0901546CFF0A3EFF0FA
:102423007F010224ED901027E064A1700790154806
:102433007430801F901027E0FF64A5600AEF64A644
:102443006005EF64A7706E90154874318005901590
:10245300487431F0D21BE0FF25E025E024F2F58239
:10246300E43403F583A5128007B9902F99A5128050
:1024730007AFEF25E025E024F5F582E43403F58387
:10248300E493902F9CF0E4FD801BD21B7B007A0722
:10249300799A902F99A5128007AF902CD9E0902FAD
:1024A3009CF07D01E4FFA51280A0F1E47FD07E07BC
:1024B300A5128084A3E4901549F0FF802D902F9CF2
:1024C300F07D01E4FFA51280A0F1E47FD07E07A593
:1024D300128084A3A512808A03C226E4F514901502
:1024E30049F09018707406F07F00A522E4902CD96F
:1024F300F09007AEE07002A3E0700590020804F0CC
:10250300900208E0640160030225FF901766E0640F
:102513000160030225ADC3901765E094F49017643E
:10252300E0940150030225ADE4F0A3F0900574E0BC
:1025330064017047901545E054FB703F9015487453
:1025430035A51280A0BBA51280849F901548742FD7
:10255300A512808463A51280FFECEF64016003027F
:102563002610D21B901548A512808466A51280FF01
:10257300ECEF6401600302261080739015487434F5
:10258300A51280A0BBA51280844DA51280FFECEF9D
:1025930064017079D21B901548A512808466A51238
:1025A30080FFECEF640170658044901766E064017E
:1025B300705BC3901765E094FA901764E094004051
:1025C3004C9015487434A51280A0BBA51280844D8D
:1025D300A51280FFECEF64017033D21B901548A560
:1025E30012808466A51280FFECEF6401701F9007D0
:1025F300AEE04402F0A3E0F07F01802A9015487416
:1026030010A51280A0BB7F02A51280A7F5901870B9
:10261300E004F0A51280AD39BF01047F028007A555
:102623001280849F7F01A522E4902CD9F0A3F0A30C
:10263300F0A3F0902CD9F0A3F090077FE064016041
:1026430016D3901547E09400901546E09400400798
:102653007F01A51280B826302807A5128089DEC223
:10266300282026030226F1D21AE4902F16F0D21B5B
:102673007D01FFA512808C36C226E4F5149015491E
:10268300F0806B902CDBE07002A3E06070902CDB99
:10269300E0FEA3E0FF901546EE8FF0A5128005A99A
:1026A30090112EA512800737E4FCFDA5128005D7F3
:1026B30090112EA51280078B901136A51280073733
:1026C300902CDBE0FEA3E0FFE4FCFDA5128005D720
:1026D300901136A51280078B9018247401F0902C6A
:1026E300DBA51280ABF0E47FC8A5128084A2A512FB
:1026F30080ABBF902CDBEEF0A3EFF0808690052B30
:10270300E0640160030227A290077FE06401600395
:102713000227A290078CE020E3030227A290078FF1
:10272300E0FFA3E0902CD9CFF0A3EFF0902CD9E0F9
:10273300FEA3E0FF901546EE8FF0A5128005A99049
:10274300112EA512800737E4FCFDA5128005D79052
:10275300112EA51280078B901132A5128007379096
:102763002CD9E0FEA3E0FFE4FCFDA5128005D79081
:102773001132A51280078B9018257401F0902CD983
:10278300E0FEA3E0FF901828EE8FF0A5128005A9C4
:10279300900571E0FFA3E0901757CFF0A3EFF090FF
:1027A300052BE0640160030228F690077FE06401D3
:1027B30070030228F6A51280AFBAEF70030228F661
:1027C300A5128139F3902CD9EEF0A3EFF04E7008E7
:1027D300A512809FEE0228EE902CD9E0FEA3E0FF25
:1027E300901547E02FFF901546E03EFEC39005305D
:1027F300E09F90052FE09E50349015487403A51276
:1028030080A0BB7F02A51280A7F5E47FDC7E05A52F
:10281300128084A3A512809FEE901546E0FCA3E0EE
:10282300FD4C70028049AF05AE04022A00A5128157
:1028330039B9751D0AE51D600FA5128139EAEF70DC
:1028430007A51280AC0F80EDE51D702CA512809FAB
:10285300EE902CD9E0FFA3E0900531CFF0A3EFF089
:10286300A51280BEB1901546E07002A3E0707C9083
:102873001870F07F02022A07902CD9E0FEA3E0FF34
:10288300901546EE8FF0A5128005A990112EA51282
:10289300800737E4FCFDA5128005D790112EA51201
:1028A30080078B901132A512800737902CD9E0FE58
:1028B300A3E0FFE4FCFDA5128005D7901132A51219
:1028C30080078B9018257401F0902CD9E0FEA3E0CB
:1028D300FF901828EE8FF0A5128005A9900571E0EE
:1028E300FFA3E0901757CFF0A3EFF0E47F14A512F6
:1028F3008084A290052FE0FEA3E0FFC3901547E07C
:102903009F901546E09E50030229F8A51280849FEC
:10291300751690E51670030229B0A51280ABBF901F
:102923002CDBEEF0A3EFF04E607B902CDBE0FEA3FC
:10293300E0FF901546EE8FF0A5128005A990112EA9
:10294300A512800737E4FCFDA5128005D790112E50
:10295300A51280078B901136A512800737902CDBC8
:10296300E0FEA3E0FFE4FCFDA5128005D79011363D
:10297300A51280078B9018247401F0902CDBE0FEE5
:10298300A3E0FF901826EE8FF0A5128005A990050D
:1029930071E0FFA3E0901757CFF0A3EFF075169007
:1029A300A51280AC0FA51280AC0F022916A51280C8
:1029B3009CCAA512801DBA90052BE0640170289073
:1029C300077FE064016020751D01E51D6019A512F4
:1029D30080AFBAEF6007A512809FEE800AE47F0AFA
:1029E300A5128084A280E3E47FF47E01A512808493
:1029F300A37F01800F901546E0FEA3E0FFA51280A0
:102A03001DC27F00A522901776E0FF75F037901165
:102A13005FA512800798E0D39400402275F037EF4A
:102A2300901190A512800798E0FFF4602390177629
:102A3300E0FE901549EFF0900207EEF08012901738
:102A430076E075F037901190A51280079874FFF027
:102A5300901776E075F037901190A512800798E0F3
:102A6300F470028012901549E075F006900009A5F4
:102A730012800798E07066901548740EA51280A026
:102A8300BB9015487419F0D21BE0FF25E025E02424
:102A9300F2F582E43403F583A5128007B9902F99E8
:102AA300A5128007AFEF25E025E024F5F582E43495
:102AB30003F583E493902F9CF07D01E4FFA512803E
:102AC300A0F1E47FD07E07A5128084A3E49015498A
:102AD300F0901769E04401F07F02022B79901549C9
:102AE300E075F006900006A512800798E030E01A22
:102AF300540A7016901549E075F006900007A51268
:102B0300800798E0FEA3E04E706A901548740EA506
:102B13001280A0BB9015487419F0D21BE0FF25E08A
:102B230025E024F2F582E43403F583A5128007B986
:102B3300902F99A5128007AFEF25E025E024F5F546
:102B430082E43403F583E493902F9CF07D01E4FF4A
:102B5300A51280A0F1E47FD07E07A5128084A3E4B0
:102B6300901549F0901769E04401F0E4901549F09D
:102B73007F0180027F00A522E4902CD9F0901549B3
:102B8300E075F006900007A512800798E0FEA3E029
:102B9300FF901546E0FCA3E0FDD3EF9DEE9C5003B0
:102BA300022D4EA37433A51280A0BB901548742741
:102BB300F090056CE0FEA3E0FFEE6003022D13EF3F
:102BC30024F6605724A67003022C91246360030249
:102BD3002D137B807A037997902F9AA5128007AFE4
:102BE300901548E025E025E024F2F582E43403F56E
:102BF30083A5128007B9902F9DA5128007AF90156A
:102C030049E075F006900007A512800798E0FFA33E
:102C1300E0902FA0CFF0A3EF022D027B807A0379FF
:102C23009D902F9AA5128007AF901548E025E025C7
:102C3300E024F2F582E43403F583A5128007B9900A
:102C43002F9DA5128007AF901549E075F0069000FF
:102C530007A512800798E0FAA3E0FB90056CE0FC5F
:102C6300A3E0FDAF03AE02A512800515902FA0EEE1
:102C7300F0A3EFF090056CE0FCA3E0FDAF03AE0220
:102C8300A512800515902FA2ECF0A3ED80717B8037
:102C93007A0379A6902F9AA5128007AF901548E082
:102CA30025E025E024F2F582E43403F583A51280C0
:102CB30007B9902F9DA5128007AF901549E075F0D5
:102CC30006900007A512800798E0FAA3E0FB9005A1
:102CD3006CE0FCA3E0FDAF03AE02A51280051590E6
:102CE3002FA0EEF0A3EFF090056CE0FCA3E0FDAFA6
:102CF30003AE02A512800515902FA2ECF0A3EDF010
:102D03007B007A07799AA512800CB3902CD9EFF047
:102D1300D21B7B007A07799A902F99A5128007AF6F
:102D2300902CD9E0902F9CF07D01E4FFA51280A0A8
:102D3300F1E47FDC7E05A5128084A3E4901549F0BD
:102D4300901769E04401F07F0180027F00A5227F94
:102D530001902CDCEFF0E4A3F0A3F0A3A512809C78
:102D6300C9902CDCE06003022E9C9015487414A5D6
:102D73001280A0BB7E007F147D007B007A07799AC6
:102D8300A51280088690056CE0FEA3E0FFEE6003C9
:102D9300022E99EF24F6603D24A67003022E3124FF
:102DA300636003022FF47B807A0379B1902F9AA595
:102DB300128007AF9004A2A5128007B9902F9DA59A
:102DC300128007AF901546E0FFA3E0902FA0CFF04D
:102DD300A3EF022E887B807A0379B6902F9AA512EF
:102DE3008007AF9004A2A5128007B9902F9DA5126A
:102DF3008007AF90056CE0FAA3E0FB901546E0FE78
:102E0300A3E0FFAD03AC02A512800515902FA0EE41
:102E1300F0A3EFF0901546E0FEA3E0FFAD03AC0294
:102E2300A512800515902FA2ECF0A3ED80577B80AF
:102E33007A0379BE902F9AA5128007AF9004A2A5BA
:102E4300128007B9902F9DA5128007AF90056CE003
:102E5300FAA3E0FB901546E0FEA3E0FFAD03AC024E
:102E6300A512800515902FA0EEF0A3EFF090154664
:102E7300E0FEA3E0FFAD03AC02A512800515902F81
:102E8300A2ECF0A3EDF07B007A07799AA512800CEF
:102E9300B3902CDEEFF0022FF4902CDCE0640260A0
:102EA300030230439015487414A51280A0BB7E0022
:102EB3007F147D007B007A07799AA512800886909B
:102EC300056CE0FEA3E0FFEE6003022FF4EF24F6AF
:102ED300603A24A67003022F7824636003022FF460
:102EE3007B807A0379C8902F9AA5128007AF90044C
:102EF300BAA5128007B9902F9DA5128007AF901035
:102F030029A512800719902FA0022FDF7B807A0357
:102F130079CE902F9AA5128007AF9004BAA512809C
:102F230007B9902F9DA5128007AF90056CE0FEA313
:102F3300E0FFFBAA06E4F9F8901029A5128007190F
:102F4300A512800672902FA0A51280078B90056CA6
:102F5300E0FEA3E0FFFBAA06E4F9F8901029A5120E
:102F6300800719A512800672AC00AD01AE02AF0353
:102F7300902FA480677B807A0379D8902F9AA5122B
:102F83008007AF9004BAA5128007B9902F9DA512B0
:102F93008007AF90056CE0FEA3E0FFFBAA06E4F90F
:102FA300F8901029A512800719A512800672902F98
:102FB300A0A51280078B90056CE0FEA3E0FFFBAA9F
:102FC30006E4F9F8901029A512800719A5128006C6
:102FD30072AC00AD01AE02AF03902FA4A51280071F
:102FE3008B7B007A07799AA512800CB3902CDEEFC5
:102FF300F0D21B7B007A07799A902F99A51280074C
:10300300AF902CDEE0902F9CF07D01E4FFA51280B1
:10301300A0F1E47F64A5128084A2901549E0FF909B
:103023001830F0E4A3F075F006EF900007A51280C6
:103033000798E0FFA3E0901832CFF0A3EFF08029C8
:10304300902CDCE0640170219015487414A5128063
:10305300A0BB7F02A51280A7F5E47F64A51280843C
:10306300A2901830E0901549F0E490182FA5128033
:103073009676902CDDEFF0BF0704E40235D3902C55
:10308300DDE0A5128007C630A6003387013387022F
:1030930035630335630430A605356307358F0800B0
:1030A3000035E0902CDCE06003B40221901549E088
:1030B30075F006900007A512800798E0FEA3E0FFD5
:1030C300C3901547E09FF0901546E09EF0902CDCEE
:1030D300E0B40122901832E0FEA3E0FF901546E031
:1030E300FCA3E0FDC39FEC9E400CED9FFFEC9E9084
:1030F3001546F0A3EFF0901548741AA51280A0BBF3
:10310300902CDCE06003023286A51280B242EF709D
:103113002790052CE0B40116B4011DA3E0FEA3E043
:10312300FFC3901547E09F901546E09E500A7F022B
:10313300A51280A7F50232867E007F147D007B00F6
:103143007A07799AA51280088690056CE0FEA3E0C1
:10315300FFEE600302325DEF24F6603D24A67003A8
:103163000231F52463600302325D7B807A0379B117
:10317300902F9AA5128007AF9004A2A5128007B9D9
:10318300902F9DA5128007AF901546E0FFA3E09016
:103193002FA0CFF0A3EF02324C7B807A0379B69055
:1031A3002F9AA5128007AF9004A2A5128007B990A9
:1031B3002F9DA5128007AF90056CE0FAA3E0FB906A
:1031C3001546E0FEA3E0FFAD03AC02A51280051592
:1031D300902FA0EEF0A3EFF0901546E0FEA3E0FFE2
:1031E300AD03AC02A512800515902FA2ECF0A3ED60
:1031F30080577B807A0379BE902F9AA5128007AF00
:103203009004A2A5128007B9902F9DA5128007AF45
:1032130090056CE0FAA3E0FB901546E0FEA3E0FF07
:10322300AD03AC02A512800515902FA0EEF0A3EF1D
:10323300F0901546E0FEA3E0FFAD03AC02A51280BB
:103243000515902FA2ECF0A3EDF07B007A07799A95
:10325300A512800CB3902CDEEFF0D21B7B007A0713
:10326300799A902F99A5128007AF902CDEE0902FCA
:103273009CF07D01E4FFA51280A0F1E47FC8A512B4
:103283008084A2901549E0FF75F006900009A5120D
:10329300800798E014F075F006EF900009A51280FE
:1032A3000798E07013901549E075F006900006A5A5
:1032B30012800798E04404F0902CDDE0B4051390ED
:1032C3001549E075F006900006A512800798E044C2
:1032D30002F0A51280B9A990113AA5128007379080
:1032E3001549E075F006900007A512800798E0FEE7
:1032F300A3E0FFE4FCFDA5128005D790113AA512C7
:1033030080078B90113EE475F001A5128005A9900A
:103313001549E075F0099002CCA51280BE8A902C65
:10332300DCE0B401059018368003901835A51281AE
:10333300592CE490182FF0A3E0FDA3E0FBA3E0FFDA
:10334300A3E0902CE3CFF0A3EFF0E4FFA51281619B
:10335300A5901755E4F0A37464F0901755E070023C
:10336300A3E0601BA512809FC85008E4FDFFA512CF
:10337300808029A512815356902CDFEFF080DB7FEC
:1033830000023601A51280A0B6901549E075F0063B
:10339300900006A512800798E04402F0902CDCE030
:1033A300FF60076402600302351EA51280B242EF7C
:1033B300640160030234FDFE7F14FD7B007A07790C
:1033C3009AA51280088690056CE0FEA3E0FFEE60EC
:1033D300030234DAEF24F6603D24A670030234724C
:1033E300246360030234DA7B807A0379B1902F9AE5
:1033F300A5128007AF9004A2A5128007B9902F9D54
:10340300A5128007AF901546E0FFA3E0902FA0CF51
:10341300F0A3EF0234C97B807A0379B6902F9AA583
:10342300128007AF9004A2A5128007B9902F9DA523
:10343300128007AF90056CE0FAA3E0FB901546E01D
:10344300FEA3E0FFAD03AC02A512800515902FA0EB
:10345300EEF0A3EFF0901546E0FEA3E0FFAD03AC62
:1034630002A512800515902FA2ECF0A3ED80577BE7
:10347300807A0379BE902F9AA5128007AF9004A299
:10348300A5128007B9902F9DA5128007AF90056CF8
:10349300E0FAA3E0FB901546E0FEA3E0FFAD03AC2A
:1034A30002A512800515902FA0EEF0A3EFF0901562
:1034B30046E0FEA3E0FFAD03AC02A5128005159024
:1034C3002FA2ECF0A3EDF07B007A07799AA5128086
:1034D3000CB3902CDEEFF0D21B7B007A07799A9025
:1034E3002F99A5128007AF902CDEE0902F9CF07DE2
:1034F30001E4FFA51280A0F180077F02A51280A737
:10350300F5E47FE87E03A5128084A3901546E0FFCF
:10351300A3E0900798CFA512803C8BA51280B996A3
:10352300901140E475F001A5128005A9901549E0BA
:1035330075F0099002CEA51280BE8AA51280B86BE1
:10354300902CDCE0B401059018368003901835E028
:10355300FFA51281592EA51281618A7F02023601CD
:10356300A51280A0B6A51280B996902CDCE0B40118
:10357300059018368003901835E0FFA51281592E67
:10358300A51281618AE47FC47E09803BA51280A0D5
:10359300B6901549E075F006900006A512800798CD
:1035A300E04404F0A51280B9A9902CDCE0B4010535
:1035B3009018368003901835A51281592CA51281D5
:1035C300618AE47FE87E03A5128084A37F00802EB6
:1035D300A512809676902CDDEFF0023081901830A2
:1035E300E0FDA3E0FBA3E0FFA3E0902CE3CFF0A377
:1035F300EFF090182FE0FFA5128161A57F00A522AF
:10360300E4902CD9F0A3F0A3F0A512809FC8500832
:10361300E4FDFFA512808029A512815356902CDB6F
:10362300EFF0901546E07002A3E07004FF023C85C2
:1036330090052CE064016014A51280B23DBF010720
:103643007F01A51280A7F57F00023C8590052DE040
:10365300FEA3E0FFC3901547E09F901546E09E5000
:1036630003023B1EEF4E7003023B1EA51280B27A8B
:10367300EF640160030239B4D21B900486A5128063
:1036830007B9902F99A5128007AF900489A51280DE
:10369300A0E8D21B900406A5128007B9902F99A524
:1036A300128007AF900409E493902F9CF07D01E40E
:1036B300FFA51280A0F1751E1EE51E700302384A95
:1036C300A51280849FA51280C158902CD9EFF024B5
:1036D300E5600E240E70E2A512801DBA7F01023C44
:1036E30085A51280B23DEF640160030238457F0176
:1036F300A51280A7F57E007F147D007B007A0779F1
:103703009AA51280088690056CE0FEA3E0FFEE60A8
:103713000302381AEF24F6603D24A670030237B281
:103723002463600302381A7B807A0379B1902F9A5D
:10373300A5128007AF90049EA5128007B9902F9D14
:10374300A5128007AF901546E0FFA3E0902FA0CF0E
:10375300F0A3EF0238097B807A0379B6902F9AA5FC
:10376300128007AF90049EA5128007B9902F9DA5E4
:10377300128007AF90056CE0FAA3E0FB901546E0DA
:10378300FEA3E0FFAD03AC02A512800515902FA0A8
:10379300EEF0A3EFF0901546E0FEA3E0FFAD03AC1F
:1037A30002A512800515902FA2ECF0A3ED80577BA4
:1037B300807A0379BE902F9AA5128007AF90049E5A
:1037C300A5128007B9902F9DA5128007AF90056CB5
:1037D300E0FAA3E0FB901546E0FEA3E0FFAD03ACE7
:1037E30002A512800515902FA0EEF0A3EFF090151F
:1037F30046E0FEA3E0FFAD03AC02A51280051590E1
:103803002FA2ECF0A3EDF07B007A07799AA5128042
:103813000CB3902CD9EFF0D21B7B007A07799A90E6
:103823002F99A5128007AF902CD9E0902F9CF07DA3
:1038330001E4FFA51280A0F1E47FDC7E05A51280E0
:1038430084A37F00023C85A51280B242EF6401602D
:10385300030239AF902CD9F07F01A51280A7F57E22
:10386300007F147D007B007A07799AA51280088671
:1038730090056CE0FEA3E0FFEE6003023984EF24C1
:10388300F6603D24A6700302391C246360030239E9
:10389300847B807A0379B1902F9AA5128007AF9029
:1038A300049EA5128007B9902F9DA5128007AF90A3
:1038B3001546E0FFA3E0902FA0CFF0A3EF023973EA
:1038C3007B807A0379B6902F9AA5128007AF900474
:1038D3009EA5128007B9902F9DA5128007AF900572
:1038E3006CE0FAA3E0FB901546E0FEA3E0FFAD0316
:1038F300AC02A512800515902FA0EEF0A3EFF09077
:103903001546E0FEA3E0FFAD03AC02A5128005154A
:10391300902FA2ECF0A3ED80577B807A0379BE90C1
:103923002F9AA5128007AF90049EA5128007B99025
:103933002F9DA5128007AF90056CE0FAA3E0FB90E2
:103943001546E0FEA3E0FFAD03AC02A5128005150A
:10395300902FA0EEF0A3EFF0901546E0FEA3E0FF5A
:10396300AD03AC02A512800515902FA2ECF0A3EDD8
:10397300F07B007A07799AA512800CB3902CD9EFCB
:10398300F0D21B7B007A07799A902F99A5128007B2
:10399300AF902CD9E0902F9CF07D01E4FFA512801D
:1039A300A0F1E47FDC7E05A5128084A37F00023CA6
:1039B30085A51280B242EF64016003023B19902C8B
:1039C300D9F07F01A51280A7F57E007F147D007BCF
:1039D300007A07799AA51280088690056CE0FEA309
:1039E300E0FFEE6003023AEEEF24F6603D24A6709A
:1039F30003023A8624636003023AEE7B807A0379FA
:103A0300B1902F9AA5128007AF90049EA51280074C
:103A1300B9902F9DA5128007AF901546E0FFA3E054
:103A2300902FA0CFF0A3EF023ADD7B807A0379B623
:103A3300902F9AA5128007AF90049EA5128007B914
:103A4300902F9DA5128007AF90056CE0FAA3E0FBD1
:103A5300901546E0FEA3E0FFAD03AC02A51280057E
:103A630015902FA0EEF0A3EFF0901546E0FEA3E033
:103A7300FFAD03AC02A512800515902FA2ECF0A3B5
:103A8300ED80577B807A0379BE902F9AA512800729
:103A9300AF90049EA5128007B9902F9DA5128007B1
:103AA300AF90056CE0FAA3E0FB901546E0FEA3E0BF
:103AB300FFAD03AC02A512800515902FA0EEF0A375
:103AC300EFF0901546E0FEA3E0FFAD03AC02A512B4
:103AD300800515902FA2ECF0A3EDF07B007A077917
:103AE3009AA512800CB3902CD9EFF0D21B7B007AED
:103AF30007799A902F99A5128007AF902CD9E0905F
:103B03002F9CF07D01E4FFA51280A0F1E47FDC7E11
:103B130005A5128084A37F00023C85A51280B242D2
:103B2300EF64016003023C83902CD9F07F01A5125E
:103B330080A7F57E007F147D007B007A07799AA524
:103B43001280088690056CE0FEA3E0FFEE6003029E
:103B53003C58EF24F6603D24A67003023BF0246337
:103B63006003023C587B807A0379B1902F9AA512A7
:103B73008007AF90049EA5128007B9902F9DA512D0
:103B83008007AF901546E0FFA3E0902FA0CFF0A3EE
:103B9300EF023C477B807A0379B6902F9AA5128077
:103BA30007AF90049EA5128007B9902F9DA51280A0
:103BB30007AF90056CE0FAA3E0FB901546E0FEA387
:103BC300E0FFAD03AC02A512800515902FA0EEF027
:103BD300A3EFF0901546E0FEA3E0FFAD03AC02A512
:103BE30012800515902FA2ECF0A3ED80577B807A0D
:103BF3000379BE902F9AA5128007AF90049EA51259
:103C03008007B9902F9DA5128007AF90056CE0FA4D
:103C1300A3E0FB901546E0FEA3E0FFAD03AC02A5D5
:103C230012800515902FA0EEF0A3EFF0901546E05B
:103C3300FEA3E0FFAD03AC02A512800515902FA2F1
:103C4300ECF0A3EDF07B007A07799AA512800CB310
:103C5300902CD9EFF0D21B7B007A07799A902F9999
:103C6300A5128007AF902CD9E0902F9CF07D01E442
:103C7300FFA51280A0F1E47FD07E07A5128084A364
:103C83007F00A522900798EEF0A3EFF0E49015468D
:103C9300F0A3F0E4902CE0F0A3F0A3F0A3F0A3F0E2
:103CA300A3F0A3F0A304F0A3F0A3F0E4A3F0A3F024
:103CB300A51280B242EF6401600DA51280B27ABFF3
:103CC30001057F000246A9901548741BA51280A028
:103CD300BBA51280849F7E007F147D007B007A0742
:103CE300799AA51280088690056CE0FEA3E0FFEEAA
:103CF3006003023DFBEF24F6603D24A67003023D02
:103D03009324636003023DFB7B807A0379B1902F98
:103D13009AA5128007AF90049EA5128007B9902F31
:103D23009DA5128007AF900798E0FFA3E0902FA016
:103D3300CFF0A3EF023DEA7B807A0379B6902F9A06
:103D4300A5128007AF90049EA5128007B9902F9DFE
:103D5300A5128007AF90056CE0FAA3E0FB900798EB
:103D6300E0FEA3E0FFAD03AC02A512800515902F82
:103D7300A0EEF0A3EFF0900798E0FEA3E0FFAD0301
:103D8300AC02A512800515902FA2ECF0A3ED80578D
:103D93007B807A0379BE902F9AA5128007AF900497
:103DA3009EA5128007B9902F9DA5128007AF90059D
:103DB3006CE0FAA3E0FB900798E0FEA3E0FFAD03FD
:103DC300AC02A512800515902FA0EEF0A3EFF090A2
:103DD3000798E0FEA3E0FFAD03AC02A51280051532
:103DE300902FA2ECF0A3EDF07B007A07799AA5124D
:103DF300800CB3902CE6EFF0D21B7B007A07799A04
:103E0300902F99A5128007AF902CE6E0A51280842D
:103E1300929017687401F0E490181EF0A3F0A3F0D9
:103E2300A3F0A512809FC85008E4FDFFA51280806F
:103E330029A512815356902CEBEFF0E4902CE0F07F
:103E4300A3F0A3F0900798E0FEA3E0FF4E70079065
:103E53002CEAF00244A77B007A2C79E1902CF1A59F
:103E6300128007AF7A2C09902CF4A5128007AF7A41
:103E73002C79E0A51280AFFD902CE3EFF0700302E4
:103E83003F18E4F0902CE3E0FFC39403501DEF25AB
:103E9300E025E0240EF582E4340EF583E0FEA3E092
:103EA3004E6008902CE3E004F080D9902CE3E0FF0F
:103EB3007019902CEA04F0900798E0FDA3E09005B8
:103EC30033CDF0A3EDF0D22A0244A7EF25E025E09D
:103ED300240AF582E4340EF583E0FEA3E0FF9007A5
:103EE30098E0FCA3E0FDC39FEC9E4012902CEA7483
:103EF30001F0900533ECF0A3EDF0D22A800DE490AD
:103F03000533F0A3F0C22A902CEAF0E4900798F06E
:103F1300A3F00244A7E4902CE4F0A3F0902CE0E09B
:103F2300FF7003023FDE7E007A277B457D01A512E9
:103F330080E5F0EF7074A512807FAEE4902CE3F07F
:103F4300902CE3E0C3940250567C277D457F01A566
:103F530012808053EF6401603F902748E0FD545086
:103F63006007902CE7E04404F0ED30E507902CE780
:103F7300E04402F0902748E030E307902CE7E04468
:103F830008F07F01A5128137E2902CE4EEF0A3EF55
:103F9300F0E4902CE3F08007A512807FA880A19025
:103FA3002CE3E0C3940240098000902CE7E0440432
:103FB300F0900525E0FCA3E0FD902CE4E0FEA3E0F7
:103FC300FFA512800502C3900799E09FF090079820
:103FD300E09EF090181EEEF0A3EFF0902CE4E0FECC
:103FE300A3E0FF901152EE8FF0A5128005A9901166
:103FF30046A512800737C000900525E0FCA3E0FD2D
:10400300902CE4E0FEA3E0FFA512800502E4FCFD92
:10401300D000A5128005D7901146A51280078B907A
:104023001142A512800737C000900525E0FCA3E0EC
:10403300FD902CE4E0FEA3E0FFA512800502E4FC62
:10404300FDD000A5128005D7901142A51280078BE1
:10405300902CE7E0640170030240F5E4902CE6F055
:10406300902CE6E0FFC39403506CEF25E025E02499
:1040730010F582E4340EF583E064017051902CE76F
:10408300E0FF30E20790153A74018017EF30E30741
:1040930090153A7404800C902CE7E030E11A9015E7
:1040A3003A7402F0902CE6E025E025E02411F58235
:1040B300E4340EF5837402F0A51280B21F902CE64F
:1040C300E0B5071290153AE0600CC2258008902CE9
:1040D300E6E004F0808A902CE77401F0902CE0E095
:1040E300FFC3902CE5E09F902CE4E0940050030282
:1040F3003E25E4902CE4F0A3F0902CE1E0FF700364
:104103000241BB7E007A277B5A7D02A51280E5F02F
:10411300EF7074A512807FAEE4902CE3F0902CE353
:10412300E0C3940250567C277D5A7F02A5128080FB
:1041330053EF6401603F90275DE0FD5450600790AA
:104143002CE8E04404F0ED30E507902CE8E044026D
:10415300F090275DE030E307902CE8E04408F07F1F
:1041630002A5128137E2902CE4EEF0A3EFF0E49085
:104173002CE3F08007A512807FA880A1902CE3E0B8
:10418300C3940240098000902CE8E04404F09005B9
:1041930027E0FCA3E0FD902CE4E0FEA3E0FFA512E2
:1041A300800502C3900799E09FF0900798E09EF086
:1041B300901820EEF0A3EFF0902CE4E0FEA3E0FFD4
:1041C300901154EE8FF0A5128005A990114AA51203
:1041D300800737C000900527E0FCA3E0FD902CE4A6
:1041E300E0FEA3E0FFA512800502E4FCFDD000A5DC
:1041F300128005D790114AA51280078B901142A512
:1042030012800737C000900527E0FCA3E0FD902C47
:10421300E4E0FEA3E0FFA512800502E4FCFDD0006C
:10422300A5128005D7901142A51280078B902CE828
:10423300E0640170030242D2E4902CE6F0902CE695
:10424300E0FFC39403506CEF25E025E02410F582D2
:10425300E4340EF583E064027051902CE8E0FF3003
:10426300E20790153B74018017EF30E30790153B8D
:104273007404800C902CE8E030E11A90153B740232
:10428300F0902CE6E025E025E02411F582E4340EDD
:10429300F5837402F0A51280B21F902CE6E0B507F7
:1042A3001290153BE0600CC2258008902CE6E004D8
:1042B300F0808A902CE87401F0902CE1E0FFC39029
:1042C3002CE5E09F902CE4E094005003023E25E4AB
:1042D300902CE4F0A3F0902CE2E0FF7003024392F1
:1042E3007E007A277B6F7D03A51280E5F0EF706E69
:1042F300A512807FAEE4902CE3F0902CE3E0C3940E
:10430300025050A51280804DEF6401603F902772E8
:10431300E0FD54506007902CE9E04404F0ED30E5F3
:1043230007902CE9E04402F0902772E030E3079015
:104333002CE9E04408F07F03A5128137E2902CE4D6
:10434300EEF0A3EFF0E4902CE3F08007A512807F5A
:10435300A880A7902CE3E0C3940240098000902C2E
:10436300E9E04404F0900529E0FCA3E0FD902CE48F
:10437300E0FEA3E0FFA512800502C3900799E09F2A
:10438300F0900798E09EF0901822EEF0A3EFF090E3
:104393002CE4E0FEA3E0FF901156EE8FF0A512800F
:1043A30005A990114EA512800737C000900529E09A
:1043B300FCA3E0FD902CE4E0FEA3E0FFA512800542
:1043C30002E4FCFDD000A5128005D790114EA51282
:1043D30080078B901142A512800737C000900529F2
:1043E300E0FCA3E0FD902CE4E0FEA3E0FFA5128037
:1043F3000502E4FCFDD000A5128005D7901142A56B
:104403001280078B902CE9E064017003023E25E4DF
:10441300902CE6F0902CE6E0FFC39403506CEF255C
:10442300E025E02410F582E4340EF583E0640370A4
:1044330051902CE9E0FF30E20790153C740180179E
:10444300EF30E30790153C7404800C902CE9E030C6
:10445300E11A90153C7402F0902CE6E025E025E08B
:104463002411F582E4340EF5837402F0A51280B2B0
:104473001F902CE6E0B5071290153CE0600CC225B6
:104483008008902CE6E004F0808A902CE97401F017
:10449300902CE2E0FFC3902CE5E09F902CE4E094A5
:1044A30000023E2590181EE0FCA3E0FDD39400EC2F
:1044B3009400500E901821E09400901820E094008E
:1044C300401A901820E0FAA3E0FBE4FFA5128160F4
:1044D300F6E490181EF0A3F0A3F0A3F0902CEAE00A
:1044E30070030246A7A51280BEB19015487401A5BA
:1044F3001280A0BB9015487420F07E007F147D00CD
:104503007B007A07799AA512800886901548E0FF08
:1045130025E025E024F5F582E43403F583E493FDF7
:104523007C00C004C005EF25E025E024F2F582E419
:104533003403F583A5128007B9789A7C077D00D0F0
:1045430007D006A5128004D6901548E025E025E0A3
:1045530024F5F582E43403F583E493902CE6F0909C
:10456300056CE0FEA3E0FFEE600302467DEF24F658
:10457300604024A670030246112463600302467D53
:10458300902CE6E0249AF9E43407FA7B00C003C0D8
:1045930002C0017B807A037986902F9AA512800747
:1045A300AF900533E0FFA3E0902F9DCFF0A3EF0280
:1045B300466B902CE6E0249AF9E43407FA7B00C0BA
:1045C30003C002C0017B807A037989902F9AA512D8
:1045D3008007AF90056CE0FAA3E0FB900533E0FEA3
:1045E300A3E0FFAD03AC02A512800515902F9DEE4D
:1045F300F0A3EFF0900533E0FEA3E0FFAD03AC02C0
:10460300A512800515902F9FECF0A3ED805A902CF6
:10461300E6E0249AF9E43407FA7B00C003C002C041
:10462300017B807A03798F902F9AA5128007AF9030
:10463300056CE0FAA3E0FB900533E0FEA3E0FFADD9
:1046430003AC02A512800515902F9DEEF0A3EFF0A9
:10465300900533E0FEA3E0FFAD03AC02A512800595
:1046630015902F9FECF0A3EDF0D001D002D003A55D
:1046730012800CB3902CE6E02FF0D21B7B007A075C
:10468300799A902F99A5128007AF902CE6E0902F8E
:104693009CF07D01E4FFA51280A0F17FD07E07A5E9
:1046A30012807FB27F00A522E4902CD9F0A512805E
:1046B300B86B9007AFE04440F0901548740DA51215
:1046C30080A0BB7F01A522E4902CD9F0903A3BF067
:1046D300900003F0A512809CCA9002087402F03087
:1046E3002807A5128089DEC228902CB27401F0E459
:1046F30090176CF0FBFAFD7F05A5128163BBA51231
:1047030080BF115007A512804BC180F290176C74C3
:1047130001F0E4FBFAFD7F06A5128163BBE4902C54
:10472300B2F0D21B90043AA5128007B9902F99A535
:10473300128007AF90043DA51280A0E8D21B7B80B6
:104743007A0379E4902F99A5128007AF902F9C7478
:1047530001F0FDE4FFA51280A0F1A512808A039069
:1047630002087401F0E49007AEF0A3F0D2252028EC
:1047730007A5128141F0D228D227E4902CD9F090DA
:104783002CD9E0FFC39440505DE0FE25E025E024F2
:1047930021F582E43436F583E0FD75F006EE9000F2
:1047A30005A512800798E06D7034EF25E025E0241D
:1047B30023F582E43436F583E0B40122902CD9E06A
:1047C30075F006900007A512800798E0FEA3E04E5F
:1047D300700C9007AEE04404F0A3E0F08008902C46
:1047E300D9E004F08099902CD9E0644060028055B0
:1047F300A5128091BFE4902CD9F0902CD9E0FFC38F
:104803009440501875F006EF900006A512800798A3
:10481300E0541FF0902CD9E004F080DE901538E0CE
:10482300700320250D901539E060079007AFE04431
:1048330002F07D53E4FFA51280968CBF0207900718
:10484300AFE04440F0E4901870F0900523F090013D
:1048530085F0A3F0A512814C617F00A522E4902C82
:10486300D9F0A3F090000075F001A5128005A9C34B
:10487300900001E09458900000E0940240269007D5
:10488300AEE030E31FE4900000F0A3F07D517F0120
:10489300A51280968CBF02079007AFE04440F0A5B5
:1048A30012809CCA202703024B9FA512809CCA90AA
:1048B30015487410A51280A0BBE47F64A512808400
:1048C300A29007AEE0FEA3E0FF30E009902CDA747B
:1048D300F1F0024979EF30E109902CDA74F2F00239
:1048E3004979EF30E209902CDA74F3F0024979EF59
:1048F30030E308902CDA74F4F0807BEF30E4089016
:104903002CDA74F5F0806FEF30E508902CDA74F64A
:10491300F08063EF30E608902CDA74F7F08057EFFD
:1049230030E708902CDA74F8F0804BEE30E0089012
:104933002CDA74F9F0803FEE30E108902CDA74FA47
:10494300F08033EE30E208902CDA74FBF08027EE2F
:1049530030E308902CDA74FCF0801BEE30E408900E
:104963002CDA74FDF0800FEE902CDA30E50574FE3E
:10497300F0800374FFF0202A03024B35900533E0E7
:104983007002A3E07003024B357B807A0379E690D3
:104993002F9AA5128007AF902CDAE0902F9DF07B21
:1049A300007A07799AA512800CB3902CD9EFF09076
:1049B30015487420F0E0FE25E025E024F5F582E4B7
:1049C3003403F583E493FD7C00C004C005EE25E0C9
:1049D30025E024F2F582E43403F583A5128007B9B8
:1049E300C001749A2FF9E43407A801FC7D00D001BB
:1049F300D007D006A5128004D6901548E025E025FF
:104A0300E024F5F582E43403F583E493FF902CD995
:104A1300E02FF090056CE0FEA3E0FFEE6003024B95
:104A230031EF24F6604024A67003024AC524636074
:104A330003024B31902CD9E0249AF9E43407FA7B32
:104A430000C003C002C0017B807A037986902F9A4D
:104A5300A5128007AF900533E0FFA3E0902F9DCF11
:104A6300F0A3EF024B1F902CD9E0249AF9E434070A
:104A7300FA7B00C003C002C0017B807A037989906E
:104A83002F9AA5128007AF90056CE0FAA3E0FB9084
:104A93000533E0FEA3E0FFAD03AC02A512800515CC
:104AA300902F9DEEF0A3EFF0900533E0FEA3E0FF1F
:104AB300AD03AC02A512800515902F9FECF0A3ED7A
:104AC300805A902CD9E0249AF9E43407FA7B00C089
:104AD30003C002C0017B807A03798F902F9AA512BD
:104AE3008007AF90056CE0FAA3E0FB900533E0FE8E
:104AF300A3E0FFAD03AC02A512800515902F9DEE38
:104B0300F0A3EFF0900533E0FEA3E0FFAD03AC02AA
:104B1300A512800515902F9FECF0A3EDF0D001D0E6
:104B230002D003A512800CB3902CD9E02FF0C22A37
:104B330080267B807A0379E6902F9AA5128007AFAF
:104B4300902CDAE0902F9DF07B007A07799AA512DA
:104B5300800CB3902CD9EFF0D21B7B007A07799AA3
:104B6300902F99A5128007AF902CD9E0902F9CF03D
:104B73007D01E4FFA51280A0F1E47F64A512808487
:104B8300A2900002E004F0E0C394024004C227E4D0
:104B9300F09002087402F0A512808A0390054AE09F
:104BA300B40117900003E0700CA512808FECEF7036
:104BB3000404F08005A51280C0C47F01A522E490FF
:104BC3002CDCF0D217A3F0A3F002526D902CDDE0A1
:104BD300600302527DF0D217A512808A03D21B9084
:104BE3001B10A5128007B9902F99A5128007AF90CB
:104BF3001B13A51280A0E8D21B901B14A5128007DB
:104C0300B9902F99A5128007AF901B17A512808C1E
:104C130019902CDA7401F0A304F0201703024F76E5
:104C2300A51280C158902CDEEFF024F37003024DDF
:104C3300B924F27003024DB424CB7003024D08244F
:104C4300086003024F65902CDBE06402702DD21ADA
:104C5300902F167402F0D21BE4FDFFA512808C3650
:104C6300902CDB7401F0902CDAE07006740AF002E9
:104C73004F65902CDAE014F0024F65D21B902CDACA
:104C8300E0FF25E025E02410F582E4341BF583A53D
:104C9300128007B9902F99A5128007AFEF25E02561
:104CA300E02413F582E4341BF583E493902F9CF006
:104CB3007D01E4FFA51280A0F1902CDAE070057469
:104CC3000AF08006902CDAE014F0D21B902CDAE084
:104CD300FF25E025E02410F582E4341BF583A512BB
:104CE3008007B9902F99A5128007AFEF25E025E043
:104CF3002413F582E4341BA51280A0E6902CDB7408
:104D030001F0024F65902CDBE06401701AA512805C
:104D13008C28902CDAE0B40A05E4F0024DAB902C19
:104D2300DAE004F0024DABD21B902CDAE0FF25E071
:104D330025E02410F582E4341BF583A5128007B91E
:104D4300902F99A5128007AFEF25E025E02413F5F6
:104D530082E4341BA51280A0E6902CDAE0B40A04A6
:104D6300E4F08006902CDAE004F0D21B902CDAE019
:104D7300FF25E025E02410F582E4341BF583A5121A
:104D83008007B9902F99A5128007AFEF25E025E0A2
:104D93002413F582E4341BF583E493902F9CF07D78
:104DA30001E4FFA51280A0F1902CDB7402F0024F06
:104DB30065C217024F65C21AE4902F16F0D21BFD8D
:104DC300A5128089FD902CDAE0A5128007C64DF06C
:104DD300004DF7014DFE024E05034E0C064E130720
:104DE3004E1A084E21094E280A00004E2DA51280A6
:104DF300F0D98036A512816477802FA5128165943E
:104E03008028A5128162A38021A512808C9A801A22
:104E1300A51280F44C8013A51280625C800CA5124D
:104E23008075638005A51280B9E5902CDBE06402F0
:104E33006003024EC4902CDAE07017D21B901B382B
:104E4300A5128007B9902F99A5128007AF901B3B3D
:104E5300802FD21B902CDAE0FF25E025E0240CF50F
:104E630082E4341BF583A5128007B9902F99A5120C
:104E73008007AFEF25E025E0240FF582E4341BF52E
:104E830083A51280A0E8D21B902CDAE0FF25E02551
:104E9300E02410F582E4341BF583A5128007B99052
:104EA3002F99A5128007AFEF25E025E02413F582A3
:104EB300E4341BF583E493902F9CF07D01E4024FCF
:104EC30057902CDAE0B40A17D21B901B10A512805E
:104ED30007B9902F99A5128007AF901B13802FD28B
:104EE3001B902CDAE0FF25E025E02414F582E4345E
:104EF3001BF583A5128007B9902F99A5128007AFE0
:104F0300EF25E025E02417F582E4341BF583E493D1
:104F1300902F9CF07D01E4FFA51280A0F1D21B909D
:104F23002CDAE0FF25E025E02410F582E4341BF5BC
:104F330083A5128007B9902F99A5128007AFEF259B
:104F4300E025E02413F582E4341BF583E493902FEA
:104F53009CF0E4FDFFA51280A0F1902CDBA512804C
:104F630089EFA5128085D37F0A7E00A512808F79F1
:104F7300024C1DE47F2C7E01FDFC902FCD7427F0A5
:104F8300A37430F0A5128084ABA51281381BD21A0A
:104F9300E4902F16F0D21BFDFFA512808C36D21A97
:104FA300E4902F16F0D21BFD7F01A512808C369062
:104FB3003A37E07003302D4ED21B7B807A1A79DEAC
:104FC300902F99A5128007AF902F9C740AA5128089
:104FD300A0EDD21B7B807A1A79E9902F99A51280D4
:104FE30007AF902F9C7401F0FDE4FFA51280A0F1A0
:104FF300E47FDC7E05FDFC902FCD7427F0A3743095
:10500300F0A5128084AB903A37E070030250E5A517
:105013001280BF26E47F64A5128084A2A51280B902
:10502300A9E47F64A5128084A27E017F807D007B3A
:10503300007A2C79DFA5128008867F807E027D08A6
:105043007C0075382C7539DF753A01753B80A512E4
:1050530080B744E4902CDCF0902CDCE0FF75F00684
:10506300902CE3A512800798E0FE75F006EF900000
:1050730009A512800798E06E7057902CDCE075F05C
:1050830006902CE0A512800798E0FE75F006EF90DD
:105093000006A512800798E0B50636902CDCE07573
:1050A300F006902CE1A512800798E0FCA3E0FD75C3
:1050B300F006EF900007A512800798E0FEA3E0B585
:1050C300050FEEB5040B902CDCE004F0E0644070B7
:1050D30087902CDCE064406004A37401F0E4903A10
:1050E30037F0202D030251D8A51280BEB1E47F64AE
:1050F300A5128084A27E007F537D007B007A2E79E7
:105103005FA5128008867F807E017D087C0075384C
:105113002E75395F753A00753B53A51280B74490DD
:105123002E5FE0FF900524E06F60030251D0902EC4
:1051330060E0FEA3E0FF900525E06E7003A3E06F3F
:1051430060030251D0902E62E0FEA3E0FF9005279A
:10515300E06E7003A3E06F7074902E64E0FEA3E032
:10516300FF900529E06E7003A3E06F7060902E66D8
:10517300E0FF90052BE06F7054902E67E0FF9005E1
:105183002CE06F7048902E68E0FEA3E0FF90052DA1
:10519300E0B50639A3E0B50734902E6AE0FEA3E03C
:1051A300FF90052FE0B50625A3E0B50720902E6EEE
:1051B300E0FEA3E0FF900533E0B50611A3E0B507D9
:1051C3000C902EB1E0FF900576E06F6006902CDD29
:1051D3007401F0C22D902CDDE07003025274A5120D
:1051E300808A03D21B7B807A1A79EB902F99A512C0
:1051F3008007AF902F9C7413A51280A0EDD21B7B68
:10520300807A1A79FF902F99A5128007AF902F9C6F
:105213007410F07D01E4FFA51280A0F1751D0FE469
:10522300902CDCF0E51D603BA51280AC0FA512802D
:10523300C158902CDEEFF0F460EA902CDEE024E518
:105243006010240E70DEE4902CDDF0902CDC04F072
:10525300800A902CDD7401F0902CDCF0902CDCE0C3
:10526300B401C1E51D6003024BCF902CDDF0024B6E
:10527300CF902CDD7401F0024BCFA502808A0390FE
:105283002ECDEDF0902ECCEFF0E4902ECEF0EF1477
:10529300602B14603A14605314606C24F87003029A
:1052A300532C240C600302534E901538E0FF30E773
:1052B30002807EEF20E003025349025341901539E7
:1052C300E0FF30E702806AEF30E002807180779080
:1052D300153AE0FF30E7028058EF5406600280364B
:1052E30090153AE030E0028055805B90153BE0FF7B
:1052F30030E702803CEF54066002801A90153BE0D1
:1053030030E0028039803F90153CE0FF30E70280B7
:1053130020EF54066008902ECE7403F0802D901574
:105323003CE030E0028017801D901545E0FF30E738
:1053330008902ECE7402F08012EF54036008902E72
:10534300CE7401F08005E4902ECEF03019030254A0
:1053530034902ECCE0FF25E025E024F2F582E434FE
:105363000BF583E493FD7C00C004C005EF25E02525
:10537300E024EFF582E4340BF583A5128007B978B6
:10538300CF7C2E7D00D007D006A5128004D6902EA8
:10539300CEE0FF25E025E0242AF582E4340CF583F2
:1053A300E493FD7C00C004C005EF25E025E024273D
:1053B300F582E4340CF583A5128007B9C001902E61
:1053C300CCE025E025E024F2F582E4340BF583E418
:1053D3009324CFF9E4342EA801FC7D00D001D0073B
:1053E300D006A5128004D6902ECDE0FDD21B7B0003
:1053F3007A2E79CF902F99A5128007AF902ECEE009
:1054030025E025E0242AF582E4340CF583E493FFB8
:10541300902ECCE025E025E024F2F582E4340BF570
:1054230083E4932F902F9CF0E4FFA51280A0F180DA
:1054330005902ECEE0FFA522902EB2E0FF7D0190D5
:105443002ECBEDF0902ECAEFF0601BE0FF640160FD
:1054530015EF64026010EF6403600BEF64046006F1
:10546300EF6003B40C11902ECAE0FFA3E0FDC21954
:10547300A5128052828041902ECBE0FDD21B902E4C
:10548300CAE0FF25E025E024EFF582E4340BF58341
:10549300A5128007B9902F99A5128007AFEF25E0D9
:1054A30025E024F2F582E4340BF583E493902F9CFA
:1054B300F0E4FFA51280A0F1A522E4902EF4F0A35E
:1054C300F0A3F0A3F0A3740AF0A37402F0902EFBF0
:1054D30014F0E4A3F0902EFA74FFF0A512808A036F
:1054E300A512808C28902EF97402F0E4902EF4F02B
:1054F300902EF4E0FFC39440501D75F006EF90002A
:1055030005A512800798E0600E902EFCE004F09051
:105513002EF4E004F080D9902EFBE07003025816BD
:105523007E007F157D007B007A2E79CAA512800844
:10553300867E007F157D007B007A2E79DFA51280A1
:105543000886E4902EF5F0902EF4F0902EF7E0907C
:105553002EF4F0902EF8E0FF902EF4E0FEC39F406F
:1055630003025798902EF7E02405FDE433FCEEC3C5
:105573009DEC6480F87480984003025676902EF474
:10558300E075F006900005A512800798E07003020D
:10559300578F902EF5E075F004A424CAF9742E35C4
:1055A300F0FA7B00C003C002C0017B807A0B795400
:1055B300902F9AA5128007AF902EF4E075F0069015
:1055C3000005A512800798E0902F9DF0D001D0022E
:1055D300D003A512800CB3E4902EF6F0902EF4E0E5
:1055E30075F006900006A512800798E0FF700690FC
:1055F3002EF6F0803EEF540A6008902EF67402F007
:105603008031902EF4E0FF75F006900006A512801D
:105613000798E020E20F75F006EF900009A51280CD
:105623000798E07008902EF67403F08006902EF62B
:105633007401F0902EF6E0FF25E025E0243AF58290
:10564300E4340CF583E493FD7C00C004C005EF252E
:10565300E025E02437F582E4340CF583A5128007B6
:10566300B9C001902EF5E075F004A424CCF9742E92
:10567300025777902EFCE0FF902EF4E0FEC39F408C
:105683000302579875F006EE900005A5128007985F
:10569300E0700302578F902EF5E075F004A424CB3D
:1056A300F9742E35F0FA7B00C003C002C0017B8081
:1056B3007A0B7954902F9AA5128007AF902EF4E0BD
:1056C30075F006900005A512800798E0902F9DF0D5
:1056D300D001D002D003A512800CB3E4902EF6F0D3
:1056E300902EF4E075F006900006A512800798E06E
:1056F300FF7006902EF6F0803EEF540A6008902E5D
:10570300F67402F08031902EF4E0FF75F0069000FD
:1057130006A512800798E020E20F75F006EF9000CF
:1057230009A512800798E07008902EF67403F080A4
:1057330006902EF67401F0902EF6E0FF25E025E0AA
:10574300243AF582E4340CF583E493FD7C00C00431
:10575300C005EF25E025E02437F582E4340CF5831A
:10576300A5128007B9C001902EF5E075F004A424BA
:10577300CDF9742E35F0A801FC7D00D001D007D0FF
:1057830006A5128004D6902EF5E004F0902EF4E0E6
:1057930004F00255567B007A2E79CAA512800010B8
:1057A300EF4E70127B007A2E79DFA512800010EF86
:1057B3004E70030258BAD21B7B007A2E79CA902FFF
:1057C30099A5128007AF902F9C7414A51280A0EDA9
:1057D300D21B7B007A2E79DF902F99A5128007AF19
:1057E300902EF5E024FB25E025E0902F9CF07D0131
:1057F300E4FFA51280A0F1902EF9E014FDD21A90D7
:105803002F167402F0D21BE4FFA512808C36E490AD
:105813002EFBF0A51280C158902EFAEFF024E5700C
:10582300030258BA24CB60462408707A902EF9E01C
:10583300B4021AD21A902F167402F0D21BE4FDFFA1
:10584300A512808C36902EF97401F08059902EF7B2
:10585300E0D394004050902EF7E024FBF0A3E02423
:10586300FBF0902EFB7401F0902EF9F08038902E0F
:10587300F9E0B4010DA512808C28902EF97402F082
:105883008024902EFCE0FF902EF8E0C39F501790E9
:105893002EF7E02405F0A3E02405F0902EFB74011D
:1058A300F0902EF904F0A5128085D37F0A7E00A51F
:1058B30012808F7902551AA522902ECAEFF0A3ED1C
:1058C300F0E4902EE1F0A3F0902F95F0A3F0FE7F8B
:1058D30015FD7B007A2E79CCA51280088690054AA7
:1058E300E0640160567B807A0B795B902F9AA51256
:1058F3008007AF7B007A2E79CCA512800CB3902E53
:10590300E2EFF0902ECBE014FDD21B7B007A2E79D0
:10591300CC902F99A5128007AF902EE2E0902F9C98
:10592300F0E4FFA51280A0F1E47FDC7E05A51280E0
:1059330084A39015407480F0025C63902ECAE064E7
:10594300016003025A257B807A0A7903902F9AA576
:10595300128007AF7B007A2E79CCA512800CB3900E
:105963002EE2EFF0902ECBE014FDD21B7B007A2EBB
:1059730079CC902F99A5128007AF902EE2E0902F5B
:105983009CF0E4FFA51280A0F1E47FF47E01A51250
:105993008084A3A512813E93902EE1EFF0BF03080C
:1059A3007B807A0B796C8015902EE1E0B401087B43
:1059B300807A0B797F80067B807A0B798C902F9A83
:1059C300A5128007AF7B007A2E79CCA512800CB389
:1059D300902EE2EFF0902ECBE014FDD21B7B007AE9
:1059E3002E79CC902F99A5128007AF902EE2E090EC
:1059F3002F9CF0E4FFA51280A0F1E47FDC7E05A5D7
:105A0300128084A3902ECBE014FDD21B900C03A52F
:105A1300128007B9902F99A5128007AF900C060248
:105A23005C56A512814C724003025BE97B807A0AC3
:105A33007903902F9AA5128007AF7B007A2E79CC39
:105A4300A512800CB3902EE2EFF0902ECBE014FD64
:105A5300D21B7B007A2E79CC902F99A5128007AFA9
:105A6300902EE2E0902F9CF0E4FFA51280A0F1E4D9
:105A73007FF47E01A5128084A37E007FA07D007B3E
:105A8300007A2E79F5A5128008867B807A0B7995AA
:105A9300902F9AA5128007AF900535E0902F9DF0C7
:105AA300900536E0902F9EF0900537E0902F9FF001
:105AB300900538E0902FA0F0900539E0902FA1F0E9
:105AC30090053AE0902FA2F07B007A2E79F5A5128B
