:020000040000FA
:10000000021B74080001009600A522A50281369407
:10001000E4FFFEA54860090FEF70010EA56980F3AB
:02002000A52217
:10002300A502806EEDEFB40A09740DA512800035A8
:10003300740A309811A899B8130CC2983098FDA887
:0F00430099C298B811F63099FDC299F599A52286
:10005300A5028150A8202020202020BBB6D3ADB913
:10006300E2C1D900202020202020C1E3C7AEB2BBCB
:10007300D7E30020202020D1A1D4F1C9CCC6B7B347
:10008300ACCAB120202020002020C7EBB2E5C8EB8A
:10009300B8FCD0A1C3E6B6EED6BDB1D2002020C7CE
:1000A300EBD1A1BBF5BBF2BCCCD0F8CDB6B1D2211C
:1000B30000C8B7B6A8454E54455220C8A1CFFB434C
:1000C300414E43454C0020202020C7EBC8A1C1E38B
:1000D300C7AE00C8A1CFFB43414E43454C0020208F
:1000E3002020CAE4C8EBB4EDCEF300C8B7B6A845E8
:1000F3004E544552002020C7EBCDB6C8EBD6BDB158
:10010300D2BBF2D3B2B1D200BFCDBBA7D3E0B6EE20
:100113003A00D1A1D4F1C6E4CBFCC9CCC6B7C2F036
:100123003F200020202020BBFAC6F7B9CAD5CF0054
:100133002020C9CCC6B7D2D1CADBCDEA002020200B
:10014300202020D0BBD0BB2100202020202020D481
:10015300DDCDA3B7FECEF10020202020D5D2C1E310
:10016300C6F7B9CAD5CF002020C7EBC9D4BAF22E3F
:100173002E2E00BDF0B6EEB2BBD7E32C20BCD3C706
:10018300AEC2F03F20002020D5FDD4DAB3F6BBF594
:100193002E2E2E002020D5FDD4DAD5D2C1E32E2E6B
:1001A3002E0020202020D5D2C1E3CAA7B0DC002036
:1001B300202020486F772061726520796F752100B8
:1001C300C7EBCAE4C8EBC6E4CBFCC9CCC6B7B1E005
:1001D300BAC5002020C7EBD1A1D4F1C6E4CBFCC93A
:1001E300CCC6B7002020C7EBC8A1BBF52E2E2E002E
:1001F3002020C7EBC8A1D7DFCDCBB1D22E2E2E0046
:100203002020C9CCC6B7BBF5B5C0B9CAD5CF00202D
:1002130020D1A1D4F1C6E4CBFCC9CCC6B7C2F03F10
:1002230000202020202020B2D9D7F7B3ACCAB100D8
:1002330020202020D5FDD4DACDCBBFEE00C7B7BF39
:10024300EE3A0020202020C7EBCDB6C8EBD3B2B1E5
:10025300D20020202020C7EBB2E5C8EBD6BDB1D237
:1002630000B2BBD5D2C1E3A3ACB9BAC2F2C7EBCDDE
:10027300B6B1D2004556373733362D5542204D445B
:10028300422056312E363733002020BBB9D2AAB9CB
:10029300BAC2F2C9CCC6B7C2F03F0020202020204A
:1002A30020CEDEC1E3B1D2002020C9CCC6B7BCDB6F
:1002B300B8F13A002020CBF9D1A1C9CCC6B7D4DD1F
:1002C300CAB100C8B1BBF5002020B9CAD5CF002000
:1002D30020CDCBB1D2BDF0B6EE3A002020B5B1C7E8
:1002E300B0BDF0B6EE3A002020C7EBCBA2BFA82EDC
:1002F3002E2E002020CDB6B1D22D3ED1A1BBF52D9F
:100303003EC8A1BBF52020002020CCF9BFA82D3E7C
:10031300D1A1BBF52D3EC8A1BBF52020002020BFF5
:10032300A8D3E0B6EEB2BBD7E32E2E2E002020B624
:10033300C1BFA8CAA7B0DC2E2E2E002020BFA8D391
:10034300E0B6EE3A002020BDF0B6EEB2BBD7E32E06
:100353002E2E00202020202020CFD6BDF0CFFBB7AB
:10036300D100202020202020CBA2BFA8CFFBB7D1D3
:10037300002020C7EBD1A1BBF521002020202020A5
:1003830020D4DDCDA3CFD6BDF0BDBBD2D700564D13
:1003930044455600564D5245430025750025752E9C
:1003A30025750025752E253032750025732025759A
:1003B3000025732025752E25750025732025752EA0
:1003C30025303275002573257500257325752E2577
:1003D3007500257325752E25303275002573256C20
:1003E30075002573256C752E256C75002573256C9A
:1003F300752E2530326C75002000257300202000F7
:10040300D5D2C1E3B2BBD7E300C9CCC6B7D2D1CAF8
:10041300DBCDEA005B25303262785D202025730056
:100423008000580E8000670E8000761480008B14C5
:100433008000A0138000B4148000C90C8000D60A89
:100443008000E10C8000EE098000F81280010B09A6
:10045300800115108001260C8001330C8001400BB4
:1004630080014C0E80015B0E80016A0B80017612C5
:100473008001890D8001970D8001A50C8001B210C8
:100483008001C3128001D6108001E70B8001F30FB6
:100493008002030E800212118002240E8002330CAC
:1004A300800240058002460E8002550E80026412CF
:1004B3008002771480028C1180029E0C8002AB0BA9
:1004C3008002B70E8002C6048002CB088002D20BE2
:1004D3008002DE0B8002EA0B8002F61480030B1409
:1004E3008003200F8003300D80033E098003480DF5
:1004F3008003560E8003650E8003740980037E1209
:100503008003910580039705312ED6BDB1D2C6F77E
:10051300D7B4CCAC3A2000322ED3B2B1D2C6F7D77F
:10052300B4CCAC3A2000332ECEE5BDC7D5D2C1E35F
:100533003A2000342ED2BBD4AAD5D2C1E33A20004C
:10054300352E2333D5D2C1E3C6F7D7B4CCAC3A208A
:1005530000362ECAD6BBFAC4A3BFE9D7B4CCACB21B
:10056300E2CAD400372EB6CCD0C5B2E2CAD4003822
:100573002EBBF5B5C0D7B4CCAC00392EBBF5B5C096
:10058300D7B4CCACBFECCBD9B2E9D1AF0031302E6C
:1005930020BBF5B5C0BCECB2E20031312E20BBF577
:1005A300B5C0B2E2CAD4BDE1B9FB0031322E20D1CD
:1005B300A1BBF5B0B4C5A5BCECB2E20031332E202B
:1005C300D3CECFB7B0B4C5A5BCECB2E20031342E64
:1005D30020CDCBB1D2B0B4C5A5BCECB2E20031356D
:1005E3002E20B6C1BFA8C6F7B2E2CAD43A20003162
:1005F300362E20D1B9CBF5BBFAB2E2CAD4003137DB
:100603002E20D5B9CABEB5C6B2E2CAD400D5FDB351
:10061300A300B9CAD5CF00CEDE00B2BBD7E300CE6C
:10062300B400D5FD00B9CA00C8B100C8B7B6A84523
:100633004E54455220C8A1CFFB43414E43454C0085
:10064300C0DBBCC6B2E2CAD4B4CECAFD3A2025751B
:1006530000BBF5B5C02530326275B9CAD5CFB4CE6B
:10066300CAFD3A257500D5FDD4DABCECB2E22025EB
:100673003032627520BBF5B5C00020202020C7EBC7
:10068300C9D4B5C82E2E2E002020BBF5B5C0B0E5C9
:100693003A20B9CAD5CF202020002020BBF5B5C011
:1006A30025303262753A20B9CAD5CF2020200020E8
:1006B30020BBF5B5C025303262753A20CEDEBBF5DE
:1006C300202020002020BBF5B5C0202530326275E4
:1006D3003A2020D5FDB3A3200020202020D3B2B19F
:1006E300D2C6F7B2E2CAD400C7EBCDB6B1D23A0054
:1006F3002020B1D2B6B7D2D1C2FA2C20C7EBB4A610
:10070300C0ED2100D2D1CDB6C8EBBDF0B6EE3A2094
:10071300257500D2D1CDB6C8EBBDF0B6EE3A202593
:10072300752E257500D2D1CDB6C8EBBDF0B6EE3A25
:100733002025752E25303275002020D3B2B1D2C6C4
:10074300F7CAC7B7F1D5FDB3A33F00257300D5B9E9
:10075300CABEB5C600D1B9CBF5BBFA0020202573BC
:10076300B2E2CAD400312DB4F2BFAA2020322DB98F
:10077300D8B1D5002573D2D1B4F2BFAAA3ACC7EBCD
:10078300C8B7C8CF002573D2D1B9D8B1D5A3ACC7E8
:10079300EBC8B7C8CF00C7EBB2BBD2AACBE6D2E255
:1007A300B9D8B1D5C9E8B1B8A3A10020202020D67B
:1007B300BDB1D2C6F7B2E2CAD4002020D6BDB1D2B1
:1007C300C6F7CAC7B7F1D5FDB3A33F002020CEE5D6
:1007D300BDC7CDCBB1D2A3ACD2BBB4CEC1BDC3B622
:1007E300002020D2BBD4AACDCBB1D2A3ACD2BBB410
:1007F300CEC1BDC3B60020202020B0B4C5A5B2E24F
:10080300CAD42100CAE4C8EBB0B4C5A53A00CAE40F
:10081300C8EBB0B4C5A53A2025627500202020207E
:10082300D3CECFB7B0B4C5A5B2E2CAD42100D3D0DA
:10083300BCFCB0B4CFC22C20D4F2C3F9BDD0D2BB20
:10084300C9F90020202020CDCBB1D2B0B4C5A5B2C8
:10085300E2CAD4210025750025752E25750025755E
:100863002E2530327500BBF5B5C025303262753A9E
:1008730020257300CEDEB9CAD5CFBBF5B5C000B90C
:10088300CAD5CFBBF5B5C02530326275B8F60025A1
:1008930030326275200080050B0E80051A0E80052C
:1008A300290C8005360C8005431080055412800501
:1008B300670A8005720A80057D128005900C800509
:1008C3009D108005AE108005BF108005D0108005F7
:1008D300E1108005F20E8006010E800610048006EA
:1008E300150480061A0280061D0480062202800673
:1008F30025028006280280062B028F828E83EDF567
:10090300F0FFECFEE8FDE582600205834583600E9F
:10091300A548A55CA569A56DD582F5D583F2ABF095
:10092300ECFAE8F9A522EF8DF0A4A8F0CF8CF0A49F
:1009330028CE8DF0A42EFEA522BC000CBE002BEF0A
:100943008DF084FFADF0A522E4CCF875F008EF2F0D
:10095300FFEE33FEEC33FCEE9DEC984005FCEE9D80
:10096300FE0FD5F0E9E4CEFDA522EDF8F5F0EE8417
:1009730020D21DFEADF075F008EF2FFFED33FD40E3
:1009830008985007D5F0F2A522C398FD0FD5F0E9DA
:10099300A522C2D5EC30E709B2D5E4C39DFDE49CA2
:1009A300FCEE30E717B2D5E4C39FFFE49EFEA51229
:1009B30080093CC3E49DFDE49CFC8005A5128009ED
:1009C3003C30D507C3E49FFFE49EFEA522C5F0F8A3
:1009D300A3E028F0C5F0F8E582158270021583E0E4
:1009E30038F0A522A3F8E0C5F025F0F0E5821582E2
:1009F30070021583E0C838F0E8A522EF2BFFEE3A2A
:100A0300FEED39FDEC38FCA522E88FF0A4CC8BF089
:100A1300A42CFCE98EF0A42CFC8AF0EDA42CFCEAB7
:100A23008EF0A4CDA8F08BF0A42DCC3825F0FDE9F1
:100A33008FF0A42CCD35F0FCEB8EF0A4FEA9F0EBE7
:100A43008FF0A4CFC5F02ECD39FEE43CFCEAA42DF3
:100A5300CE35F0FDE43CFCA52275F008758200EF6D
:100A63002FFFEE33FECD33CDCC33CCC58233C582DD
:100A73009BED9AEC99E58298400CF582EE9BFEED96
:100A83009AFDEC99FC0FD5F0D6E4CEFBE4CDFAE465
:100A9300CCF9A882A522B800C0B9005BBA002EEC3D
:100AA3008BF084CFCECDFCE5F0CBF97818EF2FFF98
:100AB300EE33FEED33FDEC33FCEB33FB10D7039940
:100AC3004004EB99FB0FD8E5E4F9FAA5227818EF77
:100AD3002FFFEE33FEED33FDEC33FCC933C910D7E2
:100AE300059BE99A4007EC9BFCE99AF90FD8E0E4EF
:100AF300C9FAE4CCFBA52275F010EF2FFFEE33FE0D
:100B0300ED33FDCC33CCC833C810D7079BEC9AE840
:100B130099400AED9BFDEC9AFCE899F80FD5F0DAC1
:100B2300E4CDFBE4CCFAE4C8F9A522EB9FF5F0EAA7
:100B33009E42F0E99D42F0EC6480C864809845F0E1
:100B4300A522EB9FF5F0EA9E42F0E99D42F0E89C76
:100B530045F0A522E0FCA3E0FDA3E0FEA3E0FFA592
:100B630022E493FC740193FD740293FE740393FFD8
:100B7300A522E0F8A3E0F9A3E0FAA3E0FBA522E4B1
:100B830093F8740193F9740293FA740393FBA52207
:100B93007401FF3395E0FEFDFCA3A3A3E0CF2FF088
:100BA300E582158270021583E0CE3EF0E582158260
:100BB30070021583E0CD3DF0E58215827002158346
:100BC300E0CC3CF0A522ECF0A3EDF0A3EEF0A3EF14
:100BD300F0A522A42582F582E5F03583F583A522CD
:100BE300E0FBA3E0FAA3E0F9A522EBF0A3EAF0A36C
:100BF300E9F0A522E493FB740193FA740293F9A537
:100C030022F8D0E0F5834480FBD0E0FAD0E0F9A5E8
:100C1300487012A549700EA56AA549C0E0A548C051
:100C2300E0C083A522A54A6860EFA56B80E1F8D0F8
:100C3300E0F5834480FBD0E0FAD0E0F9A5487012D8
:100C4300A549700EA56AA549C0E0A548C0E0C083C8
:100C5300A522A54AB5F005A54B6860EAA56880DC26
:100C63008F828E83EDFFECFEE8FDE5826002058353
:100C7300458370047F00A522A548F5F0A54CA5691E
:100C8300A56DB5F006D582F0D583ED7FFFB5F003F2
:100C93000FA52240027F01A522EF4E6019EF6001EC
:100CA3000EED89828A838BF0A558A569DFFADEF8F9
:100CB3008BF0A982AA83A522F8E0FBA3A3E0F92580
:100CC300F0F0E582158270021583E0FA38F0A52270
:100CD300E5272448F582E43426F583E005272290AE
:100CE3002645301A03902648E475F001A512800CBE
:100CF300BBA548222013E77F2ED2138018EF540F91
:100D03002490D43440D4FF30170BEF24BFB41A001F
:100D130050032461FFE52860021528052BE52B709D
:100D230002052A301A10902645E475F001A51280B9
:100D33000CBBEFA55822A512800028227403D21AF7
:100D43008003E4C21AF527902645A512800BEDE433
:100D5300F528F52AF52BE52860097F20A512800DDB
:100D63001880F37529FFC214C213C215C216C21824
:100D7300C219C21B120CE2FF700E301A057F00125B
:100D83000D29AF2BAE2AA522B4255FC2D5C21712F7
:100D93000CE2FF24D0B40A00501A75F00A78283008
:100DA300D50508B6FF0106C6A426F620D5047002B1
:100DB300D21680D924CFB41A00EF5004C2E5D2175B
:100DC300020F40D21480C6D21380C0D21580BCD289
:100DD300D580BAD21880B47F20120D18201507745D
:100DE30001B5280040F1120CD3FF120D18020D5962
:100DF300D21BD2198095120CD3FB120CD3FA120C0E
:100E0300D3F94A4B700679137A107B8020153AE5A3
:100E13002860367E00E9C0E02EF9EAC0E03400FA2B
:100E2300A548F9D0E0FAD0E0C960060EEE65297056
:100E3300E4C2D5EBC0E0EAC0E0E9C0E0EE120F89FE
:100E4300D0E0F9D0E0FAD0E0FBA548FF609FEBC00B
:100E5300E0EAC0E0E9C0E0120D18D0E02401F9D0C7
:100E6300E03400FAD0E0FBE5290460DDD529DA029D
:100E73000DF07B807A0F7985D215809079108002EE
:100E83007908C219C21B8008D2D5790A8004790A6D
:100E9300C2D5E529047002F529E4FAFDFEFF120C20
:100EA300D3FC7B08201413120CD3FD7B1030130AE0
:100EB300120CD3FE120CD3FF7B20EC3382D592D5D8
:100EC3005013C3E43013069FFFE49EFEE420140393
:100ED3009DFDE49CFCE4CBF8C214EC700CCFCECDAA
:100EE300CCE824F8F870F38017C3EF33FFEE33FE3A
:100EF300ED33FDEC33FCEB33FB994002FB0FD8E9F8
:100F0300EB301405F8D0E0C448B214C0E00AEC4D4D
:100F13004E4F78207B0070C2EAB5290040BCC0E088
:100F2300120F8BD0F0D0E0201404C4C0E0C4B2147C
:100F3300C0F0120D01D0F0D5F0EB020D59A51280CF
:100F43000C040DF9530E7F580DCA4C0DC6420E8387
:100F53004F0E8B440E8B490DDF430E91550E754694
:100F63000E75450E7547102E500DCE2D0DD22E0D3C
:100F7300F52B0DD6230DF320101C2A0D8E480000EF
:100F83000DED3F3F3F00790AA2D520161430180912
:100F9300B910020404B9080104A2D52019025001B2
:100FA300042015689215B528005034C0E07F203026
:100FB30016197F30A21572197218500F120FE2C260
:100FC30015C219C218C21B7F30800F301803E9C045
:100FD300E0120D18301803D0E0F9D0E0B528CC307A
:100FE30018177F30B9100C120D187F583017077F70
:100FF300788003B90803120D183015057F2D020DF3
:10100300187F20201BF87F2B2019F322921580CF05
:10101300286E756C6C2900D214120CD33014F8C2EC
:1010230014782830D50108F6020D8E120CD3C0E0D7
:10103300C4120D01D0E0120D01743A120D09D2163B
:10104300752804020E7F312E2331D5D2C1E3C6F7B2
:10105300C3E6D6B53A00322E2332D5D2C1E3C6F762
:10106300C3E6D6B53A00332E2333D5D2C1E3C6F750
:10107300C3E6D6B53A00342ED4CAD0EDB6E0B4CE2A
:10108300B9BAC2F23A00352EB2BBC2F2BBF5CDCB30
:10109300B1D23A00362EBFAAC6F4D6BDB1D2C6F736
:1010A3003A00372EBFAAC6F4CAD6BBFAC4A3BFE917
:1010B3003A00382ED3E0B6EECFC2CFDE3A00392E57
:1010C300CAD5B1D2C9CFCFDE3A0031302E20D2C932
:1010D300CECABDF0B6EE3A0031312E20BBFAC6F7C8
:1010E300B1E0BAC53A200031322E47534DBAC5C2DA
:1010F300EB3A0031332E20C7B7CCF53A0031342E0A
:1011030020D0A1CAFDB5E33A0031352E202331D6D4
:10111300BDB1D23A0031362E202332D6BDB1D23AF8
:101123000031372E202333D6BDB1D23A0031382EC9
:10113300202334D6BDB1D23A0031392E202335D6FF
:10114300BDB1D23A0032302E202336D6BDB1D23AC9
:101153000032312E202337D6BDB1D23A0032322E9F
:10116300202338D6BDB1D23A0032332E202331D3D7
:10117300B2B1D23A0032342E202332D3B2B1D23AB2
:101183000032352E202333D3B2B1D23A0032362E79
:10119300202334D3B2B1D23A0032372E202335D3B1
:1011A300B2B1D23A0032382E202336D3B2B1D23A7A
:1011B3000032392E20BFAAC6F4B3F6BBF5C8B7C8B0
:1011C300CF3A0033302E20BDBBD2D7CAB1BCE43AEC
:1011D3000033312E20B2BBD5D2C1E3C4A3CABD3A7A
:1011E3000033322E20BFAAC6F4D3B2B1D2C6F73A27
:1011F3000033332E20BFAAC6F4B9ABBDBBBFA83A98
:101203000033342E20B6C1BFA8CAB1BCE43A0033C0
:10121300352E20D4DDB4E6D6BDB1D2C4A3CABD3ABF
:101223000033362E20CEE5D4AAD6BDB1D2D4DDB458
:10123300E63A0033372E20CAAED4AAD6BDB1D2D4F3
:10124300DDB4E63A0033382E20BFAAC6F441434446
:1012530043C4A3BFE93A0025750025752E25750003
:1012630025752E253032750025627500253262788A
:10127300002530326278008010490F8010590F80AA
:1012830010690F8010790F8010890D8010970D80E1
:1012930010A50F8010B50B8010C10B8010CD0D80F1
:1012A30010DB0D8010EA0B8010F6098011000B8013
:1012B300110C0B8011180B8011240B8011300B8043
:1012C300113C0B8011480B8011540B8011600B8073
:1012D300116C0B8011780B8011840B8011900B80A3
:1012E300119C0B8011A80B8011B4118011C60D80C5
:1012F30011D40F8011E40F8011F40F8012040D80BC
:10130300121211801224118012361180124811001A
:1013130005000500050001000100010001000500B2
:10132300050005000500100001000100050005008F
:101333000500050005000500050005000500050082
:10134300050005000500050001000500010001007E
:10135300010002000100010001000141018500427A
:1013630013C90000410207014113CB0042060100EB
:101373000041000200C120C121C19DC122C19FC102
:101383001E4100000041000100412E2600412E1E97
:1013930000412E1F00412E2000C125412E25014171
:1013A3002E2400411C9C00412DE700412DE8004103
:1013B3002DE900C100412DEB00412DEC00412DED45
:1013C30000412DEE00412DEF00412DF000C103C17E
:1013D30004C105C106C107C108C109C10AC10BC1C6
:1013E3000CC10DC10E412DF100462D740800010002
:1013F3009600412DBA00C129011500412E27004155
:101403001CE100411CDD00411CE501411CDF01C161
:1014130023C124411CE300620026F70000800580FD
:101423000F000A801B001E00148011803300360059
:101433003C80390028802D802700228063006600CD
:101443006C80690078807D807700720050805580C1
:101453005F005A804B004E0044804180C300C600A9
:10146300CC80C900D880DD80D700D200F080F58021
:10147300FF00FA80EB00EE00E480E100A080A5808D
:10148300AF00AA80BB00BE00B480B1809300960079
:101493009C80990088808D808700828183018601EA
:1014A3008C81890198819D8197019201B081B581D9
:1014B300BF01BA81AB01AE01A481A101E081E58145
:1014C300EF01EA81FB01FE01F481F181D301D60131
:1014D300DC81D901C881CD81C701C2014081458129
:1014E3004F014A815B015E01548151817301760191
:1014F3007C81790168816D81670162812301260105
:101503002C81290138813D813701320110811581F8
:101513001F011A810B010E010481018303030603DA
:101523000C83090318831D83170312033083358348
:101533003F033A832B032E032483210360836583B4
:101543006F036A837B037E037483718353035603A0
:101553005C83590348834D8347034203C083C58398
:10156300CF03CA83DB03DE03D483D183F303F60300
:10157300FC83F903E883ED83E703E283A303A60374
:10158300AC83A903B883BD83B703B2039083958368
:101593009F039A838B038E038483810280828582D7
:1015A3008F028A829B029E0294829182B302B602C8
:1015B300BC82B902A882AD82A702A282E302E6023C
:1015C300EC82E902F882FD82F702F202D082D58230
:1015D300DF02DA82CB02CE02C482C1824302460218
:1015E3004C82490258825D82570252027082758290
:1015F3007F027A826B026E026482610220822582FC
:101603002F022A823B023E023482318213021602E7
:101613001C82190208820D8207020200CFB5CDB3E6
:10162300D5FDD4DAC6F4B6AF2C20C7EBC9D4B5C800
:1016330000D5FDD4DAB8FCB8C4C9CCC6B7D3E0C171
:10164300BF2E2E2E00C9CCC6B7D3E0C1BFB8FCB89D
:10165300C4CAA7B0DC2100C9CCC6B7D3E0C1BFB8A8
:10166300FCB8C4B3C9B9A6210020202020C4E3C814
:10167300B7B6A8B8FCB8C4C2F03F00C8B7B6A8450F
:101683004E54455220C8A1CFFB43414E43454C0025
:10169300D5FDD4DAB8FCB8C4C9CCC6B7BCDBB8F145
:1016A3002E2E2E00C9CCC6B7BCDBB8F1B8FCB8C42B
:1016B300CAA7B0DC2100C9CCC6B7BCDBB8F1B8FC03
:1016C300B8C4B3C9B9A6210020202020C4E3C8B7F9
:1016D300B6A8CCEDC2FAC2F03F00D5FDD4DACCED0A
:1016E300C2FA2E2E2E00CCEDC2FAB2D9D7F7CAA772
:1016F300B0DC2100CCEDC2FAB2D9D7F7B3C9B9A691
:101703002100CAE4C8EBB2E3BCDCB1E0BAC53A00DD
:10171300B1E0BAC5CAE4C8EBB4EDCEF300C7EBCA77
:10172300E4C8EBC6E4CBFCB1E0BAC500C4E3C8B778
:10173300B6A8CCEDC2FAB4CBB2E3BCDCC2F03F0036
:10174300D5FDD4DACCEDC2FAB5B1C7B0B2E3BCDC97
:101753002E2E2E00B2E3BCDCCCEDC2FAB2D9D7F701
:10176300CAA7B0DC2100B2E3BCDCCCEDC2FAB2D92B
:10177300D7F7B3C9B9A62100257300B2B9D3B2B163
:10178300D200C8A1D6BDB1D2002020C4E3C8B7B6E9
:10179300A82573C2F03F002020D5FDD4DA257300BD
:1017A3002573CAA7B0DC21002573B3C9B9A62100EC
:1017B30020202020C4E3C8B7B6A8CDACB2BDC2F088
:1017C3003F00D5FDD4DACDACB2BD2C20C7EBC9D4D4
:1017D300B5C82E2E2E00CDACB2BDB2D9D7F7B3C942
:1017E300B9A621002020C4E3C8B7B6A8C7E5B5E36E
:1017F300C2F03F00D5FDD4DAC7E5B5E32C20C7EB33
:10180300C9D4B5C82E2E2E00C7E5B5E3CDEAB1CFB6
:10181300A3ACC7EBBACBB6D42100C7E5B5E3BDF0A3
:10182300B6EE3A20257500C7E5B5E3BDF0B6EE3A4E
:101833002025752E257500C7E5B5E3BDF0B6EE3A54
:101843002025752E2530327500312EBBF5B5C0B27B
:10185300CECAFD00322EBBF5B5C0D7B4CCACBFECBD
:10186300CBD9B2E9D1AF00332EBCD3C2FAC8ABB2E5
:10187300BFBBF5B5C000342EB2B9D3B2B1D2CDEAF5
:10188300B3C900352EC8ABCFB5CDB3CDACB2BD0017
:10189300362EBCD3C2FAB2E3BCDCBBF5B5C000370D
:1018A3002EC8A1D6BDB1D2CDEAB3C900382EC9E83E
:1018B300B1B8B9DCC0ED00392ECFB5CDB3B2CECAC5
:1018C300FD0031302E20BDBBD2D7BCC7C2BC003116
:1018D300312E20BBF5BCDCC5E4D6C30031322E204B
:1018E300B3F6B3A7C4ACC8CFC5E4D6C30031332E17
:1018F30020B4D3BBFACCEDBBF5002020C8B7B6A803
:10190300B3F6B3A7C5E4D6C3C2F03F00C8B7B6A8C1
:10191300454E54455220C8A1CFFB43414E43454C4D
:101923000030002020D5FDD4DAB1A3B4E6002000B6
:10193300B1A3B4E6CAA7B0DCA3ACD6D8D0C2C9E879
:10194300D6C33F002020454E54455220202043411A
:101953004E43454C0080184C0A8018571280186A71
:101963000E8018790C8018860C8018930E8018A2AC
:101973000C8018AF0C8018BA0C8018C50C8018D2D4
:101983000C8018DF108018F00C312EB2E3BCDCB1F0
:10199300E0BAC53A00322ECAC7B7F1C6F4D3C33A88
:1019A30000332ED7EEB4F3B4E6BBF5C1BF3A00342F
:1019B3002EB5DAD2BBBBF5B5C03A00352EB5DAB6D3
:1019C300FEBBF5B5C03A00362EB5DAC8FDBBF5B59A
:1019D300C03A00372EB5DACBC4BBF5B5C03A0038F0
:1019E3002EB5DACEE5BBF5B5C03A00392EB5DAC16E
:1019F300F9BBF5B5C03A0031302E20B5DAC6DFBBEE
:101A0300F5B5C03A0031312E20B5DAB0CBBBF5B510
:101A1300C03A00C7EBCAE4C8EBC3DCC2EB3A00C36D
:101A2300DCC2EBB4EDCEF32100256275002020204B
:101A33000020002020202000CAE4C8EBB2E3BCDC75
:101A4300B1E0BAC53A00B1E0BAC5CAE4C8EBB4ED37
:101A5300CEF300C7EBCAE4C8EBC6E4CBFCB1E0BAF3
:101A6300C50080198C0B8019980B8019A40D80195F
:101A7300B20B8019BE0B8019CA0B8019D60B8019C3
:101A8300E20B8019EE0B8019FA0D801A080D801AEB
:101A9300160B801A22090001000100020001000157
:101AA3000001000100010001000100012020C4E346
:101AB300C8B7B6A8C2F03F00C8B7B6A8454E54454C
:101AC3005220C8A1CFFB43414E43454C002020C3C5
:101AD300BBD3D0BDBBD2D7BCC7C2BC00D6BDCAD551
:101AE3003A00CFD6D6BDCAD53A003159CAD53A0045
:101AF300CFD63159CAD53A00354ACAD53A00CFD6DE
:101B0300354ACAD53A003159D5D23A00CFD63159E0
:101B1300D5D23A00354AD5D23A00CFD6354AD5D2B6
:101B23003A0025303575202573256C752E25303206
:101B33006C7500256C752E2530326C7500801AAFDC
:101B43000B801ABB14801AD00E801ADF06801AE5A8
:101B530008801AED06801AF308801AFB06801B0121
:101B630008801B0906801B0F08801B1706801B1D9E
:101B730008A575FF07758E0378FEE4F6D8FD758119
:101B830087A575FB00759008A502801BBBA5028085
:101B9300C7EBE493A3F85407240CC8C333C4540F0E
:101BA3004420C8834004F456800146F6DFE4800BEA
:101BB300010204081020408090135EE47E019360CC
:101BC300CCA3FF543F30E509541FFEE493A3600107
:101BD3000ECF54E0B4E01CE493FBA3E493FAA3E434
:101BE30093F9A3E493A558A309E970010ADFF4DE8E
:101BF300F280C854C025E060254097E493A3FAE43B
:101C030093A3F8E493A3C8C582C8CAC583CAF0A343
:101C1300C8C582C8CAC583CADFE9DEE7809DE493ED
:101C2300A3F8E493A34003F68001F208DFF4808B6A
:101C3300312EBBF5B5C0B1E0BAC53A2000322EC98A
:101C4300CCC6B7D3E0C1BF3A2000332EB5A5BCDB69
:101C53003A2000342EBBF5B5C0D7B4CCAC3A200043
:101C6300352EC9CCC6B7B1E0BAC53A20002530320B
:101C7300627500253362750025750025752E25755F
:101C83000025752E253032750025627500253262D8
:101C93007500BBF5B5C02530326275D3E0C1BFA373
:101CA300BA00801C330C801C400C801C4D08801C27
:101CB300560C801C630C2000202020202020202094
:101CC30020202020202020202020202000C7EBCA15
:101CD300E4C8EBB1E0BAC53A2000B1E0BAC5CAE442
:101CE300C8EBB4EDCEF300C7EBCAE4C8EBC6E4CB54
:101CF300FCB1E0BAC5002020202020202020202095
:101D03002020202020202020202000C2D5E830E7FA
:101D13000FB2D5E4C39BFBE49AFAE499F9E498F88B
:101D2300EC30E71BB2D5A512801D4AA512800A9993
:101D3300E4C39BFBE49AFAE499F9E498F88005A5D7
:101D430012800A9930D50DE4C39FFFE49EFEE49D03
:101D5300FDE49CFCA5224742323331320057494E01
:101D630031323532000D51961052640505050505D3
:101D730005050504040404080807FF010101010126
:101D830001010102020202030306FF5050505050AA
:101D93005050501B1B1B1B0D0D18FF090909090986
:101DA3000909092E2E2E2E000048FF000000010015
:101DB30000000A00000064000003E8000027100090
:101DC3000186A0000F42400098968005F5E10008C7
:101DD3000001009600000000000000000000000069
:101DE30000000000010000000002000304080001DD
:101DF300009600080001009600A51281575B90131E
:101E0300C9E0FEA3E0FF90261BEEF0A3EFF0E4A3EE
:101E1300F0A3F0A3F09005E2E0B401139005E0E035
:101E2300FEA3E0FF90261BEE8FF0A5128009D0D30E
:101E330090261CE0940090261BE0940050057F0040
:101E430002211B9013CB742CF07E007F147D007B4A
:101E5300007A0579EDA512800C9C9013CBE0FF2549
:101E6300E025E02426F582E43404F583E493902608
:101E73001DF0FD7C00C004C005EF25E025E0242310
:101E8300F582E43404F583A512800BF778ED7C0525
:101E93007D00D007D006A5128008FD90261DE0FF27
:101EA30024EDF582E43405F5837420F09003B3E068
:101EB300FCA3E0FDEC6003021FC7ED24F6603D24A4
:101EC300A67003021F5B24636003021FC774EE2F17
:101ED300F9E43405FA7B00C003C002C0017B807AB9
:101EE30003799D902648A512800BED90261BE0FFF9
:101EF300A3E090264BCFF0A3EF021FB590261DE081
:101F030024EEF9E43405FA7B00C003C002C0017B70
:101F1300807A0379A0902648A512800BED9003B335
:101F2300E0FAA3E0FB90261BE0FEA3E0FFAD03ACC9
:101F330002A51280093C90264BEEF0A3EFF0902609
:101F43001BE0FEA3E0FFAD03AC02A51280093C90A9
:101F5300264DECF0A3ED805A90261DE024EEF9E423
:101F63003405FA7B00C003C002C0017B807A037989
:101F7300A6902648A512800BED9003B3E0FAA3E0E8
:101F8300FB90261BE0FEA3E0FFAD03AC02A512808D
:101F9300093C90264BEEF0A3EFF090261BE0FEA346
:101FA300E0FFAD03AC02A51280093C90264DECF096
:101FB300A3EDF0D001D002D003A512800D3F9026EF
:101FC3001DE02FF090261DE004F0D2137B007A056C
:101FD30079ED902647A512800BED90261DE0A51202
:101FE300807312900376E0FEA3E0FFC390261CE00B
:101FF3009F90261BE09E40509013CB7436F0D21373
:10200300E0FF25E025E02423F582E43404F583A5ED
:1020130012800BF7902647A512800BEDEF25E025E4
:10202300E02426F582E43404F583E49390264AF011
:102033007D01E4FFA5128073199005E2E06401704D
:1020430048A51280D9EB80419013CB7404F0D213CE
:10205300E0FF25E025E02423F582E43404F583A59D
:1020630012800BF7902647A512800BEDEF25E02594
:10207300E02426F582E43404F583E49390264AF0C1
:102083007D01E4FFA512807319E47F64FEFDFC90DB
:10209300267B7417F0A3741CF0A512808957901641
:1020A300AFE0B4011A9016B1E0FCA3E0FDE4FFA594
:1020B300128095C7E49016AFF09016B1F0A3F0909C
:1020C30016B0E0B4011A9016B3E0FCA3E0FD7F0163
:1020D300A5128095C7E49016B0F09016B3F0A3F064
:1020E3009016B5E0B4011A9016B7E0FCA3E0FD7FAB
:1020F30064A5128095C7E49016B5F09016B7F0A3C7
:10210300F09016B6E0B4010EA5128095BFE49016C8
:10211300B6F0A3F0A3F07F00A522E49023F0F0FE35
:102123007F57FD7B007A03796BA512800C9C7E039D
:102133007F4A7D007B007A1379CDA512800C9C7EAB
:10214300037FDE7D007B007A0F79DBA512800C9C78
:102153009015FC7401F0A3F07E027F297D007B00C3
:102163007A0379C2A512800C9C9005CA7401F07E93
:10217300037F137D007B007A0C796DA512800C9C84
:10218300E47F64A51280894E7E007F887D007B00FA
:102193007A0279E2A512800C9CD211E4902647F0D2
:1021A300D212FDFFA512807F67D211E4902647F07B
:1021B300D212FD7F01A512807F67D2139004B3A5CD
:1021C30012800BF7902647A512800BED9004B6A55D
:1021D30012807310D21390046BA512800BF7902614
:1021E30047A512800BED90046EE49390264AF07D90
:1021F30001E4FFA512807319E47F64A51280894E60
:102203007F00A522A512807B3BE49023F1F0A3F08D
:10221300A3F0A3F0A3F0A3F0A3F0A3F0A3F0A3F023
:10222300A3A51280DAF09023F4EFF06401600302B7
:102233002353900355E0FF25E024A4F582E43403FF
:10224300F583E0FDA3E09023F1CDF0A3EDF0EF7073
:102253003B900356E0FF7E0090035AEEF0A3EFF0AD
:10226300900355E025E024A4F582E43403F583E0EC
:10227300FCA3E0FDA51280092990035EEEF0A3EF15
:10228300F0900361E02FFF900360803E900355E0E0
:10229300B40140A3E0FF7E0090035CEEF0A3EFF0F7
:1022A300900355E025E024A4F582E43403F583E0AC
:1022B300FCA3E0FDA512800929900360EEF0A3EFD3
:1022C300F090035FE02FFF90035EE03E900362F027
:1022D300A3EFF09023F67401F09023F3F09023F131
:1022E300E0FEA3E0FF9013C9EE8FF0A5128009D0A2
:1022F300900F81A512800B75E4FCFDA5128009FEE9
:10230300900F81A512800BC9900F85A512800B75C4
:102313009023F1E0FEA3E0FFE4FCFDA5128009FE9B
:10232300900F85A512800BC99016AF7401F090230E
:10233300F1E0FEA3E0FF9016B1EE8FF0A512800945
:10234300D09003B8E0FFA3E09015DACFF0A3EFF04D
:102353009023F6E064016003022417900355E025FF
:10236300E024A4F582E43403F583E0FEA3E0FF90C8
:1023730003A4E0FCA3E0FDEFB5052DEEB504299021
:102383000FA7A512800B75900355E025E024A4F553
:1023930082E43403F583E0FEA3E0FFE4FCFDA51231
:1023A3008009FE900FA7804B900355E025E024A4FD
:1023B300F582E43403F583E0FEA3E0FF9003A6E097
:1023C300FCA3E0FDEFB50530EEB5042C900FB1A5ED
:1023D30012800B75900355E025E024A4F582E434C4
:1023E30003F583E0FEA3E0FFE4FCFDA5128009FEF4
:1023F300900FB1A512800BC97E007F247D007B0066
:102403007A03792EA512800C9CE4900353F0900379
:1024130055F0A3F0900372E0640160030227289053
:1024230005CAE064016003022712A51281686E9059
:1024330023F4EFF0640160030227289005D9E054E8
:10244300FEF09005DFE04401F0900360E0FEA3E0BE
:10245300FF90035FE02FFF90035EE03EFE90037664
:10246300E0FCA3E0FDD39FEC9E9023F9500AECF02F
:10247300A3EDF0E4A3F08009EEF0A3EFF0A3740161
:10248300F0900354E025E02494F582E43403F583CB
:10249300E0FEA3E0FF9013CAE02FFF9013C9E03ED4
:1024A300FEC39023FAE09F9023F9E09E40030225A8
:1024B3003AE4FFA5128077C29023F4EFF09005DF92
:1024C300E054FEF09023FBE09013CB70107403A54F
:1024D300128072E37F02A512808C4580487401A5A7
:1024E300128072E39013CB7403F0D213E0FF25E064
:1024F30025E02423F582E43404F583A512800BF749
:10250300902647A512800BEDEF25E025E02426F564
:1025130082E43404F583E49390264AF07D01E4FFDA
:10252300A512807319E47FDC7E05A51280894FA56F
:1025330012801E01022728E49023F5F09003BDE0EA
:1025430064017065900354E0FF25E02494F582E470
:102553003403F583E0FCA3E064644C604C9003BE59
:10256300E07019EF25E02494F582E43403F583E069
:10257300FEA3E064F47003EE640160209003BFE007
:102583007021900354E025E02494F582E43403F5AC
:1025930083E0FEA3E0FFBE030ABFE807E49023F550
:1025A300F080069023F57401F09023F5E0605590D8
:1025B30005E27401F0900354E025E02494F582E4ED
:1025C3003403F583E0FEA3E0FF9005E0EEF0A3EF14
:1025D300F09016B57401F09016B7EEF0A3EFF0A5E6
:1025E30012801DFC9003B8E0FFA3E09015DACFF052
:1025F300A3EFF09023F37401F09005E9F0A374685E
:10260300F00227289005D9E054FBF09005DFE05451
:10261300FEF07F01A5128077C29023F4EFF06003F0
:102623000227289015DEF0A37403F09015DEE07006
:1026330002A3E07003022728A51280BCCF9023F4E5
:10264300EFF06401600302270A900354E025E024BD
:1026530094F582E43403F583E0FFA3E09023F7CFFE
:10266300F0A3EFF09023F7E0FEA3E0FF9013C9EE91
:102673008FF0A5128009D0900F81A512800B75E40D
:10268300FCFDA5128009FE900F81A512800BC99055
:102693000F9DA512800B759023F7E0FEA3E0FFE4E6
:1026A300FCFDA5128009FE900F9DA512800BC99019
:1026B30016B07401F09023F7E0FEA3E0FF9016B389
:1026C300EE8FF0A5128009D09003B8E0FFA3E0904D
:1026D30015DACFF0A3EFF09005E97401F0A3746865
:1026E300F07E007F247D007B007A03790AA51280A7
:1026F3000C9CE4900352F0900354F0900357F09035
:1027030023F304F002262EA51280704C02262EA578
:102713001281491DEF60069023F37401F0E47F0AF0
:10272300A51280894E9023F3E0704A9015F0E030B3
:10273300E03F54FEF09005E2E0B401209005E0E0B4
:10274300FCA3E0FD9013C9E0FEA3E0FF2DFDEE3CEA
:10275300FCC3ED9401EC9400401780109013C9E082
:10276300FEA3E0FFC39401EE94004005A512801E72
:10277300097F0080027F01A522E49023F0F0A3F0FB
:10278300A3F0A3F0FE7F14FD7B007A0579EDA5127B
:10279300800C9C9015FFE0FF75F037900FE0A512B9
:1027A300800BD6E0D39400401875F037EF901011EA
:1027B300A512800BD6E0FFF460199013CCEFF080E4
:1027C300129015FFE075F037901011A512800BD60B
:1027D30074FFF09015FFE075F037901011A512808B
:1027E3000BD6E0F47002802D9013CCE075F00690C8
:1027F3000008A512800BD6E0700280199013CCE07C
:1028030075F006900005A512800BD6E0FF540A7000
:1028130004EF20E0419013CB740EA5128072E39075
:1028230013CB7419F0D213E0FF25E025E02423F540
:1028330082E43404F583A512800BF7902647A51292
:10284300800BEDEF25E025E02426F582E43404F542
:1028530083E493022B609013CB7427F09003B3E0CF
:10286300FEA3E0FFEE60030229BEEF24F6605724C7
:10287300A6700302293C246360030229BE7B807A8D
:102883000379AE902648A512800BED9013CBE0257B
:10289300E025E02423F582E43404F583A512800BBC
:1028A300F790264BA512800BED9013CCE075F00644
:1028B300900006A512800BD6E0FFA3E090264ECF32
:1028C300F0A3EF0229AD7B807A0379B4902648A563
:1028D30012800BED9013CBE025E025E02423F58255
:1028E300E43404F583A512800BF790264BA51280E0
:1028F3000BED9013CCE075F006900006A512800B4B
:10290300D6E0FAA3E0FB9003B3E0FCA3E0FDAF0342
:10291300AE02A51280093C90264EEEF0A3EFF09094
:1029230003B3E0FCA3E0FDAF03AE02A51280093CB4
:10293300902650ECF0A3ED80717B807A0379BD90F3
:102943002648A512800BED9013CBE025E025E0246B
:1029530023F582E43404F583A512800BF790264B0C
:10296300A512800BED9013CCE075F006900006A540
:1029730012800BD6E0FAA3E0FB9003B3E0FCA3E0E4
:10298300FDAF03AE02A51280093C90264EEEF0A3E4
:10299300EFF09003B3E0FCA3E0FDAF03AE02A5129A
:1029A30080093C902650ECF0A3EDF07B007A05798A
:1029B300EDA512800D3F9023F0EFF0A51280982A29
:1029C300C21EE4902E0FF09017177406F09003BB0D
:1029D300E064016003022B2D9013C6E054FB6003F7
:1029E300022B2D9013CCE075F006900006A5128003
:1029F3000BD6E0FEA3E0D39400EE94005003022B29
:102A03002DD2137B007A0579ED902647A512800B12
:102A1300ED9023F0E090264AF07D01E4FFA51280BB
:102A230073199023F2742DA5128072E39003BCE016
:102A3300FF7E007C037DE8A512800929E4FCFDA547
:102A430012808951900F9BE475F001A5128009D083
:102A53009013CCE075F006900006A512800BD6E02B
:102A6300FEA3E0FF900F9BE0FCA3E0FDA512816CA9
:102A7300659023F3EFF07076900E7AE064A07045D2
:102A8300A512809A2DA5128163339013CCE075F0C3
:102A930006900006A512800BD6E0FCA3E0FD7F02A2
:102AA300A5128095C79013CCE075F006900006A59B
:102AB30012800BD6E0FFA3E09013C9CFF0A3EFF091
:102AC3007F01022B8F900E7AE064A170079013CBE5
:102AD3007430801F900E7AE0FF64A5600AEF64A64D
:102AE3006005EF64A7706E9013CB7431800590136B
:102AF300CB7431F0D213E0FF25E025E02423F582E7
:102B0300E43404F583A512800BF7902647A51280C1
:102B13000BEDEF25E025E02426F582E43404F5836C
:102B2300E49390264AF0E4FD801BD2137B007A05E0
:102B330079ED902647A512800BED9023F0E09026C7
:102B43004AF07D01E4FFA512807319E47FD07E076C
:102B5300A51280894FE49013CCF0FF802F90264A72
:102B6300F07D01E4FFA512807319E47FD07E07A5F1
:102B73001280894FA51280982AC21EE4902E0FF06E
:102B83009013CCF09017177406F07F00A522E49001
:102B930023F0F0900601E07002A3E07005900207B5
:102BA30004F0900207E064016003022CA19015ED8C
:102BB300E064016003022C4FC39015ECE094F490A1
:102BC30015EBE094015003022C4FE4F0A3F09003C3
:102BD300BBE0640170479013C6E054FB703F901351
:102BE300CB7435A5128072E3A51280894B9013CB69
:102BF300742FA51280890FA51280FFF4EF64016082
:102C030003022CB2D2139013CBA512808912A51202
:102C130080FFF4EF64016003022CB280739013CB46
:102C23007434A5128072E3A5128088F9A51280FF7F
:102C3300F4EF64017079D2139013CBA5128089123B
:102C4300A51280FFF4EF6401706580449015EDE0F8
:102C53006401705BC39015ECE094FA9015EBE0947B
:102C630000404C9013CB7434A5128072E3A51280FC
:102C730088F9A51280FFF4EF64017033D213901327
:102C8300CBA512808912A51280FFF4EF6401701F97
:102C9300900601E04402F0A3E0F07F01802A901344
:102CA300CB7410A5128072E37F02A512808C45902D
:102CB3001717E004F0A51280220CBF01047F0280E5
:102CC30007A51280894B7F01A522E49023F0F0A38E
:102CD300F0A3F0A3F0A3F0A3F0A3F0A3F09023F0EC
:102CE300F0A3F09005CAE064016016D39013CAE024
:102CF30094009013C9E0940040077F01A51280ADB2
:102D03009A302007A512809F6BC220301E1CD2115F
:102D1300E4902647F0D2127D01FFA512807F67C29F
:102D23001EE4902E0FF09013CCF0900372E0640138
:102D33006003022E889005CAE064017003022E88A6
:102D4300A51281491DEF7003022E88A51281492F18
:102D53009023F0EEF0A3EFF04E7008A51280885791
:102D6300022E809023F0E0FEA3E0FF9013CAE02F31
:102D7300FF9013C9E03EFEC3900377E09F90037674
:102D8300E09E50349013CB7403A5128072E37F024C
:102D9300A512808C45E47FDC7E05A51280894FA5B2
:102DA300128088579013C9E0FCA3E0FD4C700280A9
:102DB30050AF05AE04022F02A51280E779902E1BB7
:102DC300740AF0902E1BE0600FA512814926EF7064
:102DD30007A512807B4080EB902E1BE0702CA51280
:102DE3008088579023F0E0FFA3E0900378CFF0A30F
:102DF300EFF0A51280CCB69013C9E07002A3E07087
:102E03007C901717F07F02022F099023F0E0FEA3B6
:102E1300E0FF9013C9EE8FF0A5128009D0900F81C7
:102E2300A512800B75E4FCFDA5128009FE900F81AD
:102E3300A512800BC9900F9DA512800B759023F0EE
:102E4300E0FEA3E0FFE4FCFDA5128009FE900F9DC8
:102E5300A512800BC99016B07401F09023F0E0FE28
:102E6300A3E0FF9016B3EE8FF0A5128009D0900374
:102E7300B8E0FFA3E09015DACFF0A3EFF0E47F14FE
:102E8300A51280894EE49023F6F09023F4F0A3F08A
:102E9300900376E0FEA3E0FFC39013CAE09F901374
:102EA300C9E09E4052A512808FFCA512801E01A589
:102EB3001281575B900372E06401702D9005CAE0A4
:102EC30064016025902E1B7401F0902E1BE06019A5
:102ED300A51281491DEF6007A512808857800AE477
:102EE3007F0AA51280894E80E1E47FF47E01A5125A
:102EF30080894F7F01800F9013C9E0FEA3E0FFA5F7
:102F030012801E097F00A5229015FFE0FF75F037A0
:102F1300900FE0A512800BD6E0D39400402275F009
:102F230037EF901011A512800BD6E0FFF4602390C9
:102F330015FFE0FE9013CCEFF0900206EEF0801246
:102F43009015FFE075F037901011A512800BD67421
:102F5300FFF09015FFE075F037901011A512800B6C
:102F6300D6E0F4700280129013CCE075F006900066
:102F730008A512800BD6E070669013CB740EA512D1
:102F83008072E39013CB7419F0D213E0FF25E02590
:102F9300E02423F582E43404F583A512800BF79033
:102FA3002647A512800BEDEF25E025E02426F582C8
:102FB300E43404F583E49390264AF07D01E4FFA50D
:102FC30012807319E47FD07E07A51280894FE490A5
:102FD30013CCF09015F0E04401F07F0202308190B1
:102FE30013CCE075F006900005A512800BD6E030F7
:102FF300E004540A60679013CB740EA5128072E349
:103003009013CB7419F0D213E0FF25E025E02423BD
:10301300F582E43404F583A512800BF7902647A5C7
:1030230012800BEDEF25E025E02426F582E434043D
:10303300F583E49390264AF07D01E4FFA5128073A3
:1030430019E47FD07E07A51280894FE49013CCF05A
:103053009015F0E04401F0E49013CC801A9013CC67
:10306300E075F006900006A512800BD6E0FEA3E003
:103073004E70099013CCF0F07F0180027F00A522EF
:10308300E49023F0F0A3F0A3F0A3F0A3F09005E203
:10309300E0B401169005E0E0FEA3E0FF9013CAE060
:1030A3002FFF9013C9E03EFE80089013C9E0FEA3F2
:1030B300E0FF9013CCE075F006900006A512800B9C
:1030C300D6E0FCA3E0D39FEC9E500302327C901326
:1030D300CB7433A5128072E39013CB7427F0900363
:1030E300B3E0FEA3E0FFEE6003023240EF24F6609C
:1030F3005724A670030231BE246360030232407B6F
:10310300807A0379AE902648A512800BED9013CBFD
:10311300E025E025E02423F582E43404F583A512B9
:10312300800BF790264BA512800BED9013CCE07526
:10313300F006900006A512800BD6E0FFA3E09026D0
:103143004ECFF0A3EF02322F7B807A0379B490261F
:1031530048A512800BED9013CBE025E025E0242356
:10316300F582E43404F583A512800BF790264BA572
:1031730012800BED9013CCE075F006900006A512BB
:10318300800BD6E0FAA3E0FB9003B3E0FCA3E0FDE1
:10319300AF03AE02A51280093C90264EEEF0A3EFDA
:1031A300F09003B3E0FCA3E0FDAF03AE02A51280F1
:1031B300093C902650ECF0A3ED80717B807A037973
:1031C300BD902648A512800BED9013CBE025E0259A
:1031D300E02423F582E43404F583A512800BF790F1
:1031E300264BA512800BED9013CCE075F0069000F2
:1031F30006A512800BD6E0FAA3E0FB9003B3E0FC34
:10320300A3E0FDAF03AE02A51280093C90264EEE6B
:10321300F0A3EFF09003B3E0FCA3E0FDAF03AE0235
:10322300A51280093C902650ECF0A3EDF07B007AC8
:103233000579EDA512800D3F9023F0EFF0D2137BBB
:10324300007A0579ED902647A512800BED9023F0C7
:10325300E090264AF07D01E4FFA512807319E47F14
:10326300DC7E05A51280894FE49013CCF09015F015
:10327300E04401F07F010234829005E2E0640160E2
:10328300030234787F01A5128077C29023F3EFF015
:1032930060030234179015DEF0A37403F09015DE7B
:1032A300E07002A3E070030233AAA51280BCCF90A2
:1032B30023F4EFF0640160030233A29005E0E0FF22
:1032C300A3E09023F1CFF0A3EFF09023F1E0FEA36E
:1032D300E0FF9013C9EE8FF0A5128009D0900F8103
:1032E300A512800B75E4FCFDA5128009FE900F81E9
:1032F300A512800BC9900F9DA512800B759023F129
:10330300E0FEA3E0FFE4FCFDA5128009FE900F9D03
:10331300A512800BC99016B07401F09023F1E0FE62
:10332300A3E0FF9016B3EE8FF0A5128009D07E00C4
:103333007F247D007B007A03790AA512800C9CE42C
:10334300900352F0900354F0900357F09005E2F08D
:103353009005E0F0A3F09016AFE0B4011A9016B117
:10336300E0FCA3E0FDE4FFA5128095C7E49016AF4F
:10337300F09016B1F0A3F09016B0E0640160030280
:1033830032A09016B3E0FCA3E0FD7F01A512809567
:10339300C7E49016B0F09016B3F0A3F00232A0A5E4
:1033A3001280704C0232A09015DEE07002A3E06040
:1033B300030234789016B604F09005E0E0FFA3E032
:1033C3009016B7CFF0A3EFF09016B6E0B4010EA5B8
:1033D300128095BFE49016B6F0A3F0A3F0E4900535
:1033E300E2F09005E0F0A3F0A512801E019013CC4B
:1033F300E075F006900006A512800BD6E0FEA3E070
:10340300FF9013C9E0FCA3E0FDD3EF9DEE9C406564
:103413007F01806B9016B67401F09005E0E0FFA386
:10342300E09016B7CFF0A3EFF09016B6E0B4010E1C
:10343300A5128095BFE49016B6F0A3F0A3F0E49034
:1034430005E2F09005E0F0A3F0A512801E019013B1
:10345300CCE075F006900006A512800BD6E0FEA323
:10346300E0FF9013C9E0FCA3E0FDD3EF9DEE9C4089
:10347300047F01800AE49005DFF09005D9F0FFA5F1
:10348300227F019023F3EFF0E4A3F0A3A512808F32
:10349300F99017167401F09023F3E060030235D21C
:1034A3009013CB7414A5128072E37E007F147D0009
:1034B3007B007A0579EDA512800C9C9003B3E0FEA6
:1034C300A3E0FFEE60030235CFEF24F6603D24A6B0
:1034D30070030235672463600302372A7B807A0313
:1034E30079C8902648A512800BED9004D3A51280CD
:1034F3000BF790264BA512800BED9013C9E0FFA3A9
:10350300E090264ECFF0A3EF0235BE7B807A03799D
:10351300CD902648A512800BED9004D3A512800B05
:10352300F790264BA512800BED9003B3E0FAA3E0CE
:10353300FB9013C9E0FEA3E0FFAD03AC02A512802C
:10354300093C90264EEEF0A3EFF09013C9E0FEA3E2
:10355300E0FFAD03AC02A51280093C902650ECF0CD
:10356300A3ED80577B807A0379D5902648A51280F6
:103573000BED9004D3A512800BF790264BA5128078
:103583000BED9003B3E0FAA3E0FB9013C9E0FEA3B5
:10359300E0FFAD03AC02A51280093C90264EEEF08D
:1035A300A3EFF09013C9E0FEA3E0FFAD03AC02A5C7
:1035B3001280093C902650ECF0A3EDF07B007A05D5
:1035C30079EDA512800D3F9023F5EFF002372A9095
:1035D30023F3E0640260030237799013CB7414A5DC
:1035E300128072E37E007F147D007B007A0579ED03
:1035F300A512800C9C9003B3E0FEA3E0FFEE6003F2
:1036030002372AEF24F6603A24A670030236AE246A
:1036130063600302372A7B807A0379DF902648A50B
:1036230012800BED9004EBA512800BF790264BA5AF
:1036330012800BED900E7CA512800B5790264E0244
:1036430037157B807A0379E5902648A512800BED28
:103653009004EBA512800BF790264BA512800BED7F
:103663009003B3E0FEA3E0FFFBAA06E4F9F8900E93
:103673007CA512800B57A512800A9990264EA5129D
:10368300800BC99003B3E0FEA3E0FFFBAA06E4F9B5
:10369300F8900E7CA512800B57A512800A99AC00F6
:1036A300AD01AE02AF0390265280677B807A037927
:1036B300EF902648A512800BED9004EBA512800B2A
:1036C300F790264BA512800BED9003B3E0FEA3E029
:1036D300FFFBAA06E4F9F8900E7CA512800B57A510
:1036E30012800A9990264EA512800BC99003B3E06D
:1036F300FEA3E0FFFBAA06E4F9F8900E7CA5128076
:103703000B57A512800A99AC00AD01AE02AF03902E
:103713002652A512800BC97B007A0579EDA512808C
:103723000D3F9023F5EFF0D2137B007A0579ED90EE
:103733002647A512800BED9023F5E090264AF07DF5
:1037430001E4FFA512807319E47F64A51280894EFA
:103753009013CCE0FF9016BFF0E4A3F075F006EFF2
:10376300900006A512800BD6E0FFA3E09016C1CF10
:10377300F0A3EFF080299023F3E06401702190130C
:10378300CB7414A5128072E37F02A512808C45E4EA
:103793007F64A51280894E9016BFE09013CCF0E4AD
:1037A3009016BEA51280EFF99023F4EFF0BF070443
:1037B300E4023CF59023F4E0A512800C0437DC000E
:1037C3003AB3013AB3023C85033C850437DC053C3C
:1037D30085073CB10800003D029023F3E06003B489
:1037E30002219013CCE075F006900006A512800B21
:1037F300D6E0FEA3E0FFC39013CAE09FF09013C985
:10380300E09EF09023F3E0B401229016C1E0FEA302
:10381300E0FF9013C9E0FCA3E0FDC39FEC9E400CC6
:10382300ED9FFFEC9E9013C9F0A3EFF09013CB74C0
:103833001AA5128072E39023F3E060030239BCA55A
:103843001280A7A6EF7027900373E0B40116B401AA
:103853001DA3E0FEA3E0FFC39013CAE09F9013C92A
:10386300E09E500A7F02A512808C450239BC7E007F
:103873007F147D007B007A0579EDA512800C9C9066
:1038830003B3E0FEA3E0FFEE6003023993EF24F6F7
:10389300603D24A6700302392B246360030239932D
:1038A3007B807A0379C8902648A512800BED90049B
:1038B300D3A512800BF790264BA512800BED901326
:1038C300C9E0FFA3E090264ECFF0A3EF0239827B3D
:1038D300807A0379CD902648A512800BED9004D30E
:1038E300A512800BF790264BA512800BED9003B326
:1038F300E0FAA3E0FB9013C9E0FEA3E0FFAD03AC45
:1039030002A51280093C90264EEEF0A3EFF090132F
:10391300C9E0FEA3E0FFAD03AC02A51280093C9011
:103923002650ECF0A3ED80577B807A0379D590265F
:1039330048A512800BED9004D3A512800BF79026B7
:103943004BA512800BED9003B3E0FAA3E0FB9013B9
:10395300C9E0FEA3E0FFAD03AC02A51280093C90D1
:10396300264EEEF0A3EFF09013C9E0FEA3E0FFAD07
:1039730003AC02A51280093C902650ECF0A3EDF0B5
:103983007B007A0579EDA512800D3F9023F5EFF0CA
:10399300D2137B007A0579ED902647A512800BEDB3
:1039A3009023F5E090264AF07D01E4FFA512807391
:1039B30019E47FC8A51280894E9013CCE0FF75F0FF
:1039C30006900008A512800BD6E014F075F006EF00
:1039D300900008A512800BD6E070139013CCE0750D
:1039E300F006900005A512800BD6E04404F0902366
:1039F300F4E0B405139013CCE075F006900005A530
:103A030012800BD6E04402F0A51280CC8B900F8974
:103A1300A512800B759013CCE075F006900006A5F7
:103A230012800BD6E0FEA3E0FFE4FCFDA5128009A3
:103A3300FE900F89A512800BC9900F8DE475F001DC
:103A4300A5128009D0A51280CCB49023F3E0B40171
:103A5300059016C580039016C4A512815A50E490B0
:103A630016BEF0A3E0FDA3E0FBA3E0FFA3E09023D9
:103A7300FACFF0A3EFF0E4FFA5128160199015D8F7
:103A8300E4F0A37464F09015D8E07002A3E0601B27
:103A9300A512809C0A5008E4FDFFA512809A53A545
:103AA3001280B5599023F6EFF080DB7F00023D23AF
:103AB300A5128072DE9013CCE075F006900005A588
:103AC30012800BD6E04402F09023F3E0FF6007641A
:103AD300026003023C4AA51280A7A6EF64016003BB
:103AE300023C29FE7F14FD7B007A0579EDA5128047
:103AF3000C9C9003B3E0FEA3E0FFEE6003023C06E0
:103B0300EF24F6603D24A67003023B9E246360030A
:103B1300023C067B807A0379C8902648A512800B65
:103B2300ED9004D3A512800BF790264BA512800BC2
:103B3300ED9013C9E0FFA3E090264ECFF0A3EF0270
:103B43003BF57B807A0379CD902648A512800BED57
:103B53009004D3A512800BF790264BA512800BED92
:103B63009003B3E0FAA3E0FB9013C9E0FEA3E0FFE8
:103B7300AD03AC02A51280093C90264EEEF0A3EFF4
:103B8300F09013C9E0FEA3E0FFAD03AC02A51280E1
:103B9300093C902650ECF0A3ED80577B807A0379A3
:103BA300D5902648A512800BED9004D3A512800B67
:103BB300F790264BA512800BED9003B3E0FAA3E038
:103BC300FB9013C9E0FEA3E0FFAD03AC02A5128096
:103BD300093C90264EEEF0A3EFF09013C9E0FEA34C
:103BE300E0FFAD03AC02A51280093C902650ECF037
:103BF300A3EDF07B007A0579EDA512800D3F9023AC
:103C0300F5EFF0D2137B007A0579ED902647A512E4
:103C1300800BED9023F5E090264AF07D01E4FFA5AB
:103C23001280731980077F02A512808C45E47FE818
:103C33007E03A51280894F9013C9E0FFA3E090058E
:103C4300EBCFA512803D29A51280CC78900F8FE48D
:103C530075F001A5128009D0A51280CCB4A51280FD
:103C630094629023F3E0B401059016C58003901687
:103C7300C4E0FFA512815A52A512815FFE7F0202A2
:103C83003D23A5128072DEA51280CC789023F3E049
:103C9300B401059016C580039016C4E0FFA51281F8
:103CA3005A52A512815FFEE47FC47E09803BA512B0
:103CB3008072DE9013CCE075F006900005A51280AB
:103CC3000BD6E04404F0A51280CC8B9023F3E0B430
:103CD30001059016C580039016C4A512815A50A5FC
:103CE30012815FFEE47FE87E03A51280894F7F0087
:103CF300802EA51280EFF99023F4EFF00237B790EE
:103D030016BFE0FDA3E0FBA3E0FFA3E09023FACFFF
:103D1300F0A3EFF09016BEE0FFA5128160197F00BB
:103D2300A5229005EBEEF0A3EFF0E49013C9F0A306
:103D3300F0E49023F7F0A3F0A3F0A3F0A3F0A3F033
:103D4300A3F0A304F0A3F0A3F0E4A3F0A3F0902462
:103D530004F0A3F0A51280D9EBA512816737900375
:103D630077E024C8FF900376E03400FED39005EC9F
:103D7300E09F9005EBE09E4005EEF0A3EFF090137B
:103D8300CB741BA5128072E3A51280894B7E007F42
:103D9300147D007B007A0579EDA512800C9C9003BD
:103DA300B3E0FEA3E0FFEE6003023EB2EF24F66051
:103DB3003D24A67003023E4A24636003023EB27BA5
:103DC300807A0379C8902648A512800BED9004CF22
:103DD300A512800BF790264BA512800BED9005EBF7
:103DE300E0FFA3E090264ECFF0A3EF023EA17B803D
:103DF3007A0379CD902648A512800BED9004CFA5C8
:103E030012800BF790264BA512800BED9003B3E0C5
:103E1300FAA3E0FB9005EBE0FEA3E0FFAD03AC02E9
:103E2300A51280093C90264EEEF0A3EFF09005EB2F
:103E3300E0FEA3E0FFAD03AC02A51280093C90268F
:103E430050ECF0A3ED80577B807A0379D590264818
:103E5300A512800BED9004CFA512800BF790264B93
:103E6300A512800BED9003B3E0FAA3E0FB9005EB02
:103E7300E0FEA3E0FFAD03AC02A51280093C90264F
:103E83004EEEF0A3EFF09005EBE0FEA3E0FFAD03F1
:103E9300AC02A51280093C902650ECF0A3EDF07B18
:103EA300007A0579EDA512800D3F9023FDEFF0D246
:103EB300137B007A0579ED902647A512800BED90D0
:103EC30023FDE0A51280893E9015EF7401F0E49084
:103ED30016A9F0A3F0A3F0A3F09005EBE0FEA3E096
:103EE300FF7C007D32A51280093C902404EFF0A5ED
:103EF30012816B25902403EFF06003024152A3E08B
:103F0300FFC3132414FEE433901710F0A3CEF090F4
:103F13001710E07002A3E070030241527B007A2481
:103F23007905A512816BE6902403EFF0600302414B
:103F3300467B007A037953902409A512800BED7A0E
:103F430003792EA512816B61902403EFF0BF01BFAB
:103F5300900353E06401600302401B90032EE0FFD3
:103F6300900364E4F0A3EFF0E4A3F0A3F090036400
:103F7300E0FAA3E0FB7C007D32FFAE02A5128009CC
:103F8300299016A9EEF0A3EFF07D647F007E00A5D3
:103F930012800929A3EEF0A3EFF09016A9E0FEA387
:103FA300E0FFC39005ECE09FFF9005EBE09EFE90E1
:103FB30016ABE0FCA3E0FDC3EF9DFFEE9C9005EB89
:103FC300F0A3EFF0900F95EA8BF0A5128009D09043
:103FD3000FBBA512800B759016A9E0FEA3E0FFE4CA
:103FE300FCFDA5128009FE900FBBA512800BC990A2
:103FF3000F91A512800B759016A9E0FEA3E0FFE4D4
:10400300FCFDA5128009FE900F91A512800BC990AB
:104013000F97E4F5F00240F7900353E0D394015077
:1040230003023F1290032EE0FF900364E4F0A3EF3A
:10403300F090032FE0FF900366E4F0A3EFF090030A
:1040430064E0FAA3E0FB7C007D32FFAE02A51280A0
:1040530009299016A9EEF0A3EFF0900366E0FEA302
:10406300E0FF7D64A5128009299016ABEEF0A3EF63
:10407300F09016A9E0FEA3E0FFC39005ECE09FFFDC
:104083009005EBE09EFE9016ABE0FCA3E0FDC3EFD2
:104093009DFFEE9C9005EBF0A3EFF0900F95EA8B5C
:1040A300F0A5128009D0900FBBA512800B75901656
:1040B300A9E0FEA3E0FFE4FCFDA5128009FE900F3A
:1040C300BBA512800BC9900F91A512800B7590169A
:1040D300A9E0FEA3E0FFE4FCFDA5128009FE900F1A
:1040E30091A512800BC9900366E0FEA3E0FF900F39
:1040F30097EE8FF0A5128009D0900FC5A512800B03
:10410300759016ABE0FEA3E0FFE4FCFDA512800969
:10411300FE900FC5A512800BC9900F91A512800BBD
:10412300759016ABE0FEA3E0FFE4FCFDA512800949
:10413300FE900F91A512800BC9E4901710F0A3F025
:10414300023F127FE87E03A512807050023F129057
:1041530005EBE0FEA3E0FFD39400EE940040129041
:1041630024017401F090037AEEF0A3EFF0D22280E1
:1041730005E4902401F09016A9E0FCA3E0FDD3949C
:1041830000EC9400500E9016ACE094009016ABE057
:104193009400401A9016ABE0FAA3E0FBE4FFA512EB
:1041A300815F6AE49016A9F0A3F0A3F0A3F0902432
:1041B30001E07003024379A51280CCB69013CB744F
:1041C30001A5128072E39013CB7420F07E007F145C
:1041D3007D007B007A0579EDA512800C9C9013CBB2
:1041E300E0FF25E025E02426F582E43404F583E4AA
:1041F30093FD7C00C004C005EF25E025E02423F5F2
:1042030082E43404F583A512800BF778ED7C057DF9
:1042130000D007D006A5128008FD9013CBE025E05F
:1042230025E02426F582E43404F583E4939023FD0A
:10423300F09003B3E0FEA3E0FFEE600302434FEF11
:1042430024F6604024A670030242E3246360030261
:10425300434F9023FDE024EDF9E43405FA7B00C0DD
:1042630003C002C0017B807A03799D902648A51282
:10427300800BED90037AE0FFA3E090264BCFF0A3F1
:10428300EF02433D9023FDE024EDF9E43405FA7B8E
:1042930000C003C002C0017B807A0379A090264846
:1042A300A512800BED9003B3E0FAA3E0FB90037A31
:1042B300E0FEA3E0FFAD03AC02A51280093C90260B
:1042C3004BEEF0A3EFF090037AE0FEA3E0FFAD0323
:1042D300AC02A51280093C90264DECF0A3ED805A68
:1042E3009023FDE024EDF9E43405FA7B00C003C01C
:1042F30002C0017B807A0379A6902648A512800B21
:10430300ED9003B3E0FAA3E0FB90037AE0FEA3E0B1
:10431300FFAD03AC02A51280093C90264BEEF0A33F
:10432300EFF090037AE0FEA3E0FFAD03AC02A51229
:1043330080093C90264DECF0A3EDF0D001D002D0E3
:1043430003A512800D3F9023FDE02FF0D2137B00D5
:104353007A0579ED902647A512800BED9023FDE0B9
:1043630090264AF07D01E4FFA5128073197FD07E69
:1043730007A5128070507FF47E01A512807050A5AE
:104383001280780F9003B5E064016033900359E025
:10439300701DC390035BE0940390035AE0940040C4
:1043A3000E900363E094F4900362E094015009904B
:1043B3000602E04408F08007900602E054F7F07F1D
:1043C30000A522E49023F0F0A512809462900602E7
:1043D300E04440F09013C8E04401F09013CB740D17
:1043E300A5128072E37F01A522E49023F3F0A3F0EA
:1043F300A3F0902E16F0900002F0A512808FFC908F
:1044030002077402F0302007A512809F6BC2209030
:104413001CB37401F0E4900601F0A3F09015F5F0DD
:10442300FBFAFD7F05A51280C3DBA512814FDAA538
:104433001280499CA512814E9140EF9015F57401AD
:10444300F0E4FBFAFD7F06A51280C3DBE49005E2EE
:10445300F09005E0F0A3F0901CB3F0D21390046B3E
:10446300A512800BF7902647A512800BED90046EE2
:10447300A512807310D2137B807A0379FB902647B1
:10448300A512800BED90264A7401F0FDE4FFA512FE
:10449300807319A51280982A9002077401F0E490A2
:1044A3000601F0A3F0D21D202007A512809809D29F
:1044B30020D21FA51280A0169013B9E07003201D0F
:1044C3000D9013BAE06007900602E04402F07D53BA
:1044D300E4FFA51280F00FBF020E900602E04440F5
:1044E300F09013C8E04401F0E4901717F090036ACA
:1044F300F0900184F0A3F0A512814E9B9023F4EE7B
:10450300F0A3EFF07F00A522E49023F0F0A3F020C6
:104513001F0302497AA512808FFC7E007F147D0061
:104523007B007A2379F2A512800C9C900602E0307E
:10453300E0079023F174F18070900602E030E10708
:104543009023F174F28062900602E030E207902338
:10455300F174F38054900602E030E31D9023F1746C
:10456300F4F07B807A0379FD902648A512800BED49
:104573007B807A047903024702900602E030E41D4F
:104583009023F174F5F07B807A0379FD902648A59A
:1045930012800BED7B807A04790C024702900602AD
:1045A300E030E51D9023F174F6F07B807A0379FD0A
:1045B300902648A512800BED7B807A047900024790
:1045C30002900602E030E61D9023F174F7F07B8041
:1045D3007A0379FD902648A512800BED7B807A043F
:1045E3007900024702900602E030E71D9023F17440
:1045F300F8F07B807A0379FD902648A512800BEDB5
:104603007B807A04790C024702900601E030E01DBA
:104613009023F174F9F07B807A0379FD902648A505
:1046230012800BED7B807A04790002470290060129
:10463300E030E11D9023F174FAF07B807A0379FD79
:10464300902648A512800BED7B807A0479000247FF
:1046530002900601E030E21D9023F174FBF07B80B1
:104663007A0379FD902648A512800BED7B807A04AE
:104673007900024702900601E030E31C9023F174B5
:10468300FCF07B807A0379FD902648A512800BED20
:104693007B807A0479008067900601E030E41C9007
:1046A30023F174FDF07B807A0379FD902648A512EF
:1046B300800BED7B807A0479008044900601E03022
:1046C300E51C9023F174FEF07B807A0379FD90263C
:1046D30048A512800BED7B807A0479008021900637
:1046E30001E09023F130E62C74E1F07B807A0379CA
:1046F300FD902648A512800BED7B807A047900900B
:10470300264BA512800BED7B007A2379F2A512804C
:104713000D3F800374FFF09023F1E0FF64F1600F1D
:10472300EF64F2600AEF64F36005EF64F4700790DE
:1047330013CB743780059013CB7410A5128072E3EA
:10474300E47FC8A51280894E2022030249119003F9
:104753007AE07002A3E070030249117B807A047946
:1047630017902648A512800BED9023F1E090264B7D
:10477300F07B007A2379F2A3A512800BED7A0579F9
:10478300EDA512800D3F9023F0EFF09013CB742032
:10479300F0E0FE25E025E02426F582E43404F583E9
:1047A300E493FD7C00C004C005EE25E025E024234E
:1047B300F582E43404F583A512800BF7C00174ED90
:1047C3002FF9E43405A801FC7D00D001D007D00601
:1047D300A5128008FD9013CBE025E025E02426F503
:1047E30082E43404F583E493FF9023F0E02FF09008
:1047F30003B3E0FEA3E0FFEE600302490DEF24F6EE
:10480300604024A670030248A12463600302490D9B
:104813009023F0E024EDF9E43405FA7B00C003C0F3
:1048230002C0017B807A03799D902648A512800BF4
:10483300ED90037AE0FFA3E090264BCFF0A3EF02C5
:1048430048FB9023F0E024EDF9E43405FA7B00C043
:1048530003C002C0017B807A0379A0902648A51289
:10486300800BED9003B3E0FAA3E0FB90037AE0FE44
:10487300A3E0FFAD03AC02A51280093C90264BEEEA
:10488300F0A3EFF090037AE0FEA3E0FFAD03AC02E8
:10489300A51280093C90264DECF0A3ED805A90239D
:1048A300F0E024EDF9E43405FA7B00C003C002C054
:1048B300017B807A0379A6902648A512800BED90A0
:1048C30003B3E0FAA3E0FB90037AE0FEA3E0FFADBD
:1048D30003AC02A51280093C90264BEEF0A3EFF047
:1048E30090037AE0FEA3E0FFAD03AC02A5128009BA
:1048F3003C90264DECF0A3EDF0D001D002D003A5FF
:1049030012800D3F9023F0E02FF0C22280307B8095
:104913007A047917902648A512800BED9023F1E0D5
:1049230090264BF07B007A2379F2A3A512800BED3E
:104933007A0579EDA512800D3F9023F0EFF0D213A5
:104943007B007A0579ED902647A512800BED902325
:10495300F0E090264AF07D01E4FFA512807319E48C
:104963007F2C7E01A51280894F900000E004F0E0C7
:10497300C394024002E4F0900391E0B40117900065
:1049830002E0700CA51280A897EF700404F0800574
:10499300A51280AF797F01A522E49023F8F0D20F0E
:1049A300A3F0A3F00250AE9023F9E060030250BEDF
:1049B300F0D20FA51280982AD213901958A512800D
:1049C3000BF7902647A512800BED90195BA512807B
:1049D3007310D21390195CA512800BF7902647A58C
:1049E30012800BED90195FE49390264AF07D01E469
:1049F300FFA512807319A512807F599023F67401C5
:104A0300F0A304F0200F03024DB0A512809E5A902C
:104A130023FAEFF024F37003024BA324F270030292
:104A23004B9E24CB7003024AF224086003024D9F7D
:104A33009023F7E06402702DD2119026477402F0A0
:104A4300D212E4FDFFA512807F679023F77401F073
:104A53009023F6E07006740CF0024D9F9023F6E06D
:104A630014F0024D9FD2139023F6E0FF25E025E0DA
:104A73002458F582E43419F583A512800BF79026A8
:104A830047A512800BEDEF25E025E0245BF582E4DA
:104A93003419F583E49390264AF07D01E4FFA512CF
:104AA3008073199023F6E07005740CF08006902350
:104AB300F6E014F0D2139023F6E0FF25E025E0247E
:104AC30058F582E43419F583A512800BF790264735
:104AD300A512800BEDEF25E025E0245BF582E4349D
:104AE30019A51280730E9023F77401F0024D9F9065
:104AF30023F7E06401701AA512807F599023F6E032
:104B0300B40C05E4F0024B959023F6E004F0024B5D
:104B130095D2139023F6E0FF25E025E02458F58293
:104B2300E43419F583A512800BF7902647A512806C
:104B33000BEDEF25E025E0245BF582E43419A512A3
:104B430080730E9023F6E0B40C04E4F08006902307
:104B5300F6E004F0D2139023F6E0FF25E025E024ED
:104B630058F582E43419F583A512800BF790264794
:104B7300A512800BEDEF25E025E0245BF582E434FC
:104B830019F583E49390264AF07D01E4FFA5128092
:104B930073199023F77402F0024D9FC20F024D9FC9
:104BA300C211E4902647F0D212FDFFA512807F6761
:104BB300A51280982A9023F6E0A512800C044BECF2
:104BC300004BF8014BFF024C0B034C0F044C160532
:104BD3004C22064C2B074C32084C39094C400A4CEA
:104BE300470B4C4E0C00004C53A512816276A51264
:104BF300809C19805BA51280544E8054A51281625B
:104C030076A512808EB280487F018015A51280C6DA
:104C130090803DA512816276A512808C7A80317FC7
:104C230002A51281634C8028A5128078C08021A53B
:104C330012812883801AA5128129D88013A5128096
:104C43006676800CA51280C7F58005A51280F9F35E
:104C53009023F7E064026003024CEA9023F6E070CD
:104C630017D213901988A512800BF7902647A51227
:104C7300800BED90198B802FD2139023F6E0FF2544
:104C8300E025E02454F582E43419F583A512800B62
:104C9300F7902647A512800BEDEF25E025E024577A
:104CA300F582E43419F583A512807310D21390238F
:104CB300F6E0FF25E025E02458F582E43419F58376
:104CC300A512800BF7902647A512800BEDEF25E088
:104CD30025E0245BF582E43419F583E49390264AB6
:104CE300F07D01E4024D7D9023F6E0B40C17D2135E
:104CF300901958A512800BF7902647A512800BED4B
:104D030090195B802FD2139023F6E0FF25E025E076
:104D1300245CF582E43419F583A512800BF7902601
:104D230047A512800BEDEF25E025E0245FF582E433
:104D33003419F583E49390264AF07D01E4FFA5122C
:104D4300807319D2139023F6E0FF25E025E0245861
:104D5300F582E43419F583A512800BF7902647A555
:104D630012800BEDEF25E025E0245BF582E4341996
:104D7300F583E49390264AF0E4FDFFA512807319AE
:104D83009023F7E014FDD2119026477402F0D2125B
:104D9300E4FFA512807F67A51280982AA512807B65
:104DA3003B7F0A7E00A5128070F8024A07E47F2C3D
:104DB3007E01FDFC90267B7417F0A3741CF0A512F2
:104DC300808957A512814835D211E4902647F0D245
:104DD30012FDFFA512807F67D211E4902647F0D21F
:104DE30012FD7F01A512807F67902E1FE0700330B4
:104DF300254ED2137B807A197926902647A51280F7
:104E03000BED90264A740AA512807315D2137B808A
:104E13007A197931902647A512800BED90264A74B2
:104E230001F0FDE4FFA512807319E47FC47E09FD40
:104E3300FC90267B7417F0A3741CF0A5128089578D
:104E4300902E1FE07003024F1FA51280F1D5E47F5F
:104E530064A51280894EA51280CC8BE47F64A512D1
:104E630080894E7E017F807D007B007A2379FBA5BC
:104E730012800C9C7F807E027D087C007537237531
:104E830038FB753901753A80A51280964CE490235E
:104E9300F8F09023F8E0FF75F0069023FFA5128049
:104EA3000BD6E0FE75F006EF900008A512800BD636
:104EB300E06E70579023F8E075F0069023FCA5127E
:104EC300800BD6E0FE75F006EF900005A512800B6F
:104ED300D6E0B506369023F8E075F0069023FDA5DD
:104EE30012800BD6E0FCA3E0FD75F006EF90000600
:104EF300A512800BD6E0FEA3E0B5050FEEB5040BBB
:104F03009023F8E004F0E0644070879023F8E064B5
:104F1300406004A37401F0E4902E1FF020250302E7
:104F23005012A51280CCB6E47F64A51280894E7E10
:104F3300007F577D007B007A25797BA512800C9C2E
:104F43007F807E017D087C0075372575387B753938
:104F530000753A57A51280964C90257BE0FF90038D
:104F63006BE06F600302500A90257CE0FEA3E0FF34
:104F730090036CE06E7003A3E06F600302500A902D
:104F8300257EE0FEA3E0FF90036EE06E7003A3E0D6
:104F93006F7074902580E0FEA3E0FF900370E06ED5
:104FA3007003A3E06F7060902582E0FF900372E0CE
:104FB3006F7054902583E0FF900373E06F70489007
:104FC3002584E0FEA3E0FF900374E0B50639A3E077
:104FD300B50734902586E0FEA3E0FF900376E0B5A5
:104FE3000625A3E0B5072090258AE0FEA3E0FF9005
:104FF300037AE0B50611A3E0B5070C9025D1E0FFD5
:105003009003C1E06F60069023F97401F0C225900C
:1050130023F9E070030250B5A51280982AD2137BBE
:10502300807A197933902647A512800BED90264A92
:105033007413A512807315D2137B807A1979479064
:105043002647A512800BED90264A7410F07D01E4EB
:10505300FFA512807319902E1B740FF0E49023F8B0
:10506300F0902E1BE0603BA512807B40A512809E32
:105073005A9023FAEFF0F460E89023FAE024E56015
:1050830010240E70DCE49023F9F09023F804F080F0
:105093000A9023F97401F09023F8F09023F8E0B418
:1050A30001BF902E1BE060030249AA9023F9F0028E
:1050B30049AA9023F97401F00249AAA50280982A0B
:1050C3009025EDEDF09025ECEFF0E49025EEF090D7
:1050D300260FF0EF14602014602814603814605C0D
:1050E30024F6607A240E6003025183900358E02073
:1050F300E00302517E807C900359E030E00280732C
:105103008079900359E030E0028011E49025EEF0BD
:1051130090035E8019900359E030E00A90260DE475
:10512300F0A304F0805AE49025EEF0900360E0FFD2
:10513300A3E090260DCFF0A3EFF080449013BDE0E1
:10514300FF30E7028020EF540660089025EE7403D9
:10515300F0802D9013BDE030E0028017801D901386
:10516300C6E0FF30E7089025EE7402F08012EF549A
:105173000360089025EE7401F08005E49025EEF0BD
:105183003011030253C59025ECE0FF25E025E02410
:105193009CF582E43408F583E493FD7C00C004C0ED
:1051A30005EF25E025E02499F582E43408F583A58D
:1051B30012800BF778EF7C257D00D007D006A5126F
:1051C3008008FD9025ECE0FF64026008EF64036053
:1051D300030253229025EEE060030253229003B3AF
:1051E300E0FEA3E0FFEE60030252BFEF24F6602A65
:1051F30024A6606F246360030252BF7B807A087920
:1052030058902648A512800BED90260DE0FFA3E0F1
:1052130090264BCFF0A3EF0252AD7B807A08795BE7
:10522300902648A512800BED9003B3E0FAA3E0FBB0
:1052330090260DE0FEA3E0FFAD03AC02A5128009AA
:105243003C90264BEEF0A3EFF090260DE0FEA3E09A
:10525300FFAD03AC02A51280093C90264DECF0A3F0
:10526300ED80477B807A087961902648A512800BF0
:10527300ED9003B3E0FAA3E0FB90260DE0FEA3E07C
:10528300FFAD03AC02A51280093C90264BEEF0A3C0
:10529300EFF090260DE0FEA3E0FFAD03AC02A512F4
:1052A30080093C90264DECF0A3EDF07B007A267943
:1052B30003A512800D3F90260FE02FF090260FE0FC
:1052C300FF7E009025ECE025E025E0249CF582E4B8
:1052D3003408F583E49324EFF9E43425A801FC7D35
:1052E300007B007A267903A5128008FD9025EDE066
:1052F300FDD2137B007A2579EF902647A512800B08
:10530300ED9025ECE025E025E0249CF582E43408CB
:10531300F583E493FF90260FE0FEEF2E0253B8903F
:1053230025EEE0FF25E025E024E0F582E43408F5EE
:1053330083E493FD7C00C004C005EF25E025E02451
:10534300DDF582E43408F583A512800BF7C00190E4
:1053530025ECE025E025E0249CF582E43408F58380
:10536300E49324EFF9E43425A801FC7D00D001D0B7
:1053730007D006A5128008FD9025EDE0FDD2137B32
:10538300007A2579EF902647A512800BED9025EE44
:10539300E025E025E024E0F582E43408F583E49396
:1053A300FF9025ECE025E025E0249CF582E4340819
:1053B300F583E4932F90264AF0E4FFA51280731936
:1053C30080059025EEE0FFA5229025D2E0FF7D0128
:1053D3009025EBEDF09025EAEFF0601BE0FF640110
:1053E3006015EF64026010EF6403600BEF64046008
:1053F30006EF6003B40E119025EAE0FFA3E0FDC2BF
:1054030011A5128050C380419025EBE0FDD213908B
:1054130025EAE0FF25E025E02499F582E43408F548
:1054230083A512800BF7902647A512800BEDEF257D
:10543300E025E0249CF582E43408F583E493902688
:105443004AF0E4FFA512807319A522E4902614F014
:10545300A3F0A3F0A3F0A3740AF0A37402F09026C0
:105463001B14F0E4A3F0A3F0902632F0FE7FC2FDFC
:105473007B007A027908A512800C9CE4902614F034
:10548300902614E0FFC39440504175F006EF90005E
:1054930005A512800BD6E0540A6028902614E02557
:1054A300E025E024F6F582E43429F583E0FF902635
:1054B3001DE0240AF582E43402F583EFF090261D03
:1054C300E004F0902614E004F080B57E007F147DA4
:1054D300007B007A26791EA512800C9C90261DE085
:1054E30070107B807A087977902648A512800BED9F
:1054F30080167B807A087982902648A512800BED6E
:1055030090261DE090264BF07B007A26791EA5128B
:10551300800D3F902632EFF0D2137B007A26791E5E
:10552300902647A512800BED902632E0A5128073DA
:10553300127F02A512808C45E47FB87E0BA51280F2
:10554300894F90261AA512807F519026197402F074
:10555300E4902614F0902614E0FFC39440501D7588
:10556300F006EF900004A512800BD6E0600E9026A3
:105573001CE004F0902614E004F080D990261BE090
:10558300700302587B7E007F157D007B007A2579AE
:10559300EAA512800C9C7E007F157D007B007A2596
:1055A30079FFA512800C9CE4902615F0902614F048
:1055B300902617E0902614F0902618E0FF9026140A
:1055C300E0FEC39F40030257FD902617E02405FD2C
:1055D300E433FCEEC39DEC6480F8748098400302CE
:1055E30056DB902614E075F006900004A512800B9C
:1055F300D6E070030257F4902615E075F004A42456
:10560300EAF9742535F0FA7B00C003C002C0017BC0
:10561300807A087992902648A512800BED90261483
:10562300E075F006900004A512800BD6E090264B9F
:10563300F0D001D002D003A512800D3FE4902616CE
:10564300F0902614E075F006900005A512800BD6A5
:10565300E0FF7006902616F0803EEF540A60089033
:1056630026167402F08031902614E0FF75F0069040
:105673000005A512800BD6E020E20F75F006EF902F
:105683000008A512800BD6E070089026167403F06C
:1056930080069026167401F0902616E0FF25E0257B
:1056A300E024F0F582E43408F583E493FD7C00C044
:1056B30004C005EF25E025E024EDF582E43408F588
:1056C30083A512800BF7C001902615E075F004A4A2
:1056D30024ECF974250257DC90261CE0FF90261475
:1056E300E0FEC39F40030257FD75F006EE900004F1
:1056F300A512800BD6E070030257F4902615E075CF
:10570300F004A424EBF9742535F0FA7B00C003C040
:1057130002C0017B807A087992902648A512800BFB
:10572300ED902614E075F006900004A512800BD6C8
:10573300E090264BF0D001D002D003A512800D3F9C
:10574300E4902616F0902614E075F006900005A567
:1057530012800BD6E0FF7006902616F0803EEF54C1
:105763000A60089026167402F08031902614E0FF38
:1057730075F006900005A512800BD6E020E20F75A8
:10578300F006EF900008A512800BD6E07008902673
:10579300167403F080069026167401F0902616E026
:1057A300FF25E025E024F0F582E43408F583E49353
:1057B300FD7C00C004C005EF25E025E024EDF58263
:1057C300E43408F583A512800BF7C001902615E099
:1057D30075F004A424EDF9742535F0A801FC7D00CF
:1057E300D001D007D006A5128008FD902615E0044D
:1057F300F0902614E004F00255BB7B007A2579EA89
:10580300A512800010EF4E70127B007A2579FFA558
:1058130012800010EF4E700302591FD2137B007ADF
:105823002579EA902647A512800BED90264A741439
:10583300A512807315D2137B007A2579FF90264732
:10584300A512800BED902615E024FB25E025E090C2
:10585300264AF07D01E4FFA512807319902619E012
:1058630014FDD2119026477402F0D212E4FFA51260
:10587300807F67E490261BF0A512809E5A90261A1B
:10588300EFF024E5700302591F24CB60462408700F
:105893007A902619E0B4021AD2119026477402F0C6
:1058A300D212E4FDFFA512807F679026197401F0E0
:1058B3008059902617E0D394004050902617E02497
:1058C300FBF0A3E024FBF090261B7401F090261953
:1058D300F08038902619E0B4010DA512807F59900D
:1058E30026197402F0802490261CE0FF902618E00D
:1058F300C39F5017902617E02405F0A3E02405F07A
:1059030090261B7401F090261904F0A512807B3BAE
:105913007F0A7E00A5128070F802557FA52290258C
:10592300DBE0FDD2117F019025DFEFF0A3EDF0E482
:105933009025F8F0A3F09025F7F0FE7F16FD7B008D
:105943007A2579E1A512800C9C9025E0E064037030
:10595300030259EEE0FF25E025E024A8F582E434B4
:105963001CF583E493FD7C00C004C005EF25E0250E
:10597300E024A5F582E4341CF583A512800BF778A7
:10598300E17C257D00D007D006A5128008FD3011EB
:1059930005A51280F1EE9025E0E0FF25E025E02447
:1059A300A8F582E4341CF583E493FE9025F7E0FC2C
:1059B300EE2C24E1F582E43425F583E4F09025DF31
:1059C300E0FDD2137B007A2579E1902647A512806A
:1059D3000BEDEF25E025E024A8F582E4341CF583E4
:1059E300E4932C90264AF0E4025ABF20113AD213D2
:1059F3009025E0E0FF25E025E024A5F582E4341CB2
:105A0300F583A512800BF7902647A512800BEDEFC7
:105A130025E025E024A8F582E4341CF583E4939083
:105A2300264AF0E4FD025ABF9025E0E0FF25E02579
:105A3300E024A8F582E4341CF583E493FD7C00C0E4
:105A430004C005EF25E025E024A5F582E4341CF528
:105A530083A512800BF778E17C257D00D007D00663
:105A6300A5128008FDA51280F1EE9025E0E0FF2548
:105A7300E025E024A8F582E4341CF583E493FE904A
:105A830025F7E0FCEE2C24E1F582E43425F583E4EC
:105A9300F09025DFE0FDD2137B007A2579E1902693
:105AA30047A512800BEDEF25E025E024A8F582E45D
:105AB300341CF583E4932C90264AF0E4FFA512806E
:105AC3007319A5229025D6EFF0A3EDF0E49025E21B
