:020000040000FA
:10000000021ACA080001009600A522A50281285AFA
:10001000E4FFFEA54860090FEF70010EA56980F3AB
:02002000A52217
:10002300A502806000EFB40A09740DA512800035A3
:10003300740A309811A899B8130CC2983098FDA887
:0F00430099C298B811F63099FDC299F599A52286
:10005300A502813F82202020202020BBB6D3ADB94A
:10006300E2C1D9002020C1E3C7AEB2BBD7E3202051
:1000730020200020202020D1A1D4F1C9CCC6B7B3C1
:10008300ACCAB120202020002020C7EBB2E5C8EB8A
:10009300B8FCD0A1C3E6B6EED6BDB1D2002020C7CE
:1000A300EBD1A1BBF5BBF2BCCCD0F8CDB6B1D2211C
:1000B30000C8B7B6A8454E54455220C8A1CFFB434C
:1000C300414E43454C0020202020C7EBC8A1C1E38B
:1000D300C7AE00C8A1CFFB43414E43454C0020208F
:1000E3002020CAE4C8EBB4EDCEF300C8B7B6A845E8
:1000F3004E544552002020C7EBCDB6C8EBD6BDB158
:10010300D2BBF2D3B2B1D200BFCDBBA7D3E0B6EE20
:100113003A00D1A1D4F1C6E4CBFCC9CCC6B7C2F036
:100123003F200020202020BBFAC6F7B9CAD5CF0054
:100133002020C9CCC6B7D2D1CADBCDEA002020200B
:10014300202020D0BBD0BB2100202020202020D481
:10015300DDCDA3B7FECEF10020202020D5D2C1E310
:10016300C6F7B9CAD5CF002020C7EBC9D4BAF22E3F
:100173002E2E00BDF0B6EEB2BBD7E32C20BCD3C706
:10018300AEC2F03F20002020D5FDD4DAB3F6BBF594
:100193002E2E2E002020D5FDD4DAD5D2C1E32E2E6B
:1001A3002E0020202020D5D2C1E3CAA7B0DC002036
:1001B300202020486F772061726520796F752100B8
:1001C300C7EBCAE4C8EBC6E4CBFCC9CCC6B7B1E005
:1001D300BAC5002020C7EBD1A1D4F1C6E4CBFCC93A
:1001E300CCC6B7002020C7EBC8A1BBF52E2E2E002E
:1001F3002020C7EBC8A1D7DFCDCBB1D22E2E2E0046
:100203002020C9CCC6B7BBF5B5C0B9CAD5CF00202D
:1002130020D1A1D4F1C6E4CBFCC9CCC6B7C2F03F10
:1002230000202020202020B2D9D7F7B3ACCAB100D8
:1002330020202020D5FDD4DACDCBBFEE00C7B7BF39
:10024300EE3A0020202020C7EBCDB6C8EBD3B2B1E5
:10025300D20020202020C7EBB2E5C8EBD6BDB1D237
:1002630000B2BBD5D2C1E3A3ACB9BAC2F2C7EBCDDE
:10027300B6B1D2004556373733362D5542204D445B
:10028300422056312E3636002020BBB9D2AAB9BA45
:10029300C2F2C9CCC6B7C2F03F00202020202020E4
:1002A300CEDEC1E3B1D2002020C9CCC6B7BCDBB8D7
:1002B300F13A002020CBF9D1A1C9CCC6B7D4DDCA0D
:1002C300B100C8B1BBF5002020B9CAD5CF002020AA
:1002D300CDCBB1D2BDF0B6EE3A002020B5B1C7B058
:1002E300BDF0B6EE3A002020C7EBCBA2BFA82E2E5E
:1002F3002E002020CDB6B1D22D3ED1A1BBF52D3E8F
:10030300C8A1BBF52020002020CCF9BFA82D3ED1E9
:10031300A1BBF52D3EC8A1BBF52020002020BFA81E
:10032300D3E0B6EEB2BBD7E32E2E2E002020B6C10B
:10033300BFA8CAA7B0DC2E2E2E002020BFA8D3E072
:10034300B6EE3A002020BDF0B6EEB2BBD7E32E2EB8
:100353002E00202020202020CFD6BDF0CFFBB7D108
:1003630000202020202020CBA2BFA8CFFBB7D100A4
:100373002020C7EBD1A1BBF52100564D44455600C3
:10038300564D5245430025750025752E25750025CC
:10039300752E2530327500257320257500257320B1
:1003A30025752E25750025732025752E253032756C
:1003B300002573257500257325752E257500257376
:1003C30025752E25303275002573256C7500257330
:1003D300256C752E256C75002573256C752E2530BF
:1003E300326C75002000B4FAC2EB3D2530326278DE
:1003F30020008000580E8000670E80007614800075
:100403008B148000A0138000B4148000C90C8000FA
:10041300D60A8000E10C8000EE098000F81280010A
:100423000B09800115108001260C8001330C80011B
:10043300400B80014C0E80015B0E80016A0B800132
:1004430076128001890D8001970D8001A50C800132
:10045300B2108001C3128001D6108001E70B800126
:10046300F30F8002030E800212118002240E800219
:10047300330C800240058002460E8002550E800236
:1004830064128002771380028B1180029D0C80021C
:10049300AA0B8002B60E8002C5048002CA0880023D
:1004A300D10B8002DD0B8002E90B8002F51480037F
:1004B3000A1480031F0F80032F0D80033D0980035F
:1004C300470D8003550E8003640E80037309800378
:1004D3007D05800383058F828E83EDF5F0FFECFEAF
:1004E300E8FDE582600205834583600EA548A55CAF
:1004F300A569A56DD582F5D583F2ABF0ECFAE8F9E1
:10050300A522EF8DF0A4A8F0CF8CF0A428CE8DF017
:10051300A42EFEA522BC000CBE002BEF8DF084FFA1
:10052300ADF0A522E4CCF875F008EF2FFFEE33FE13
:10053300EC33FCEE9DEC984005FCEE9DFE0FD5F0F0
:10054300E9E4CEFDA522EDF8F5F0EE8420D21DFE00
:10055300ADF075F008EF2FFFED33FD40089850071D
:10056300D5F0F2A522C398FD0FD5F0E9A522C2D597
:10057300EC30E709B2D5E4C39DFDE49CFCEE30E723
:1005830017B2D5E4C39FFFE49EFEA512800518C3EE
:10059300E49DFDE49CFC8005A51280051830D50779
:1005A300C3E49FFFE49EFEA522C5F0F8A3E028F074
:1005B300C5F0F8E582158270021583E038F0A522B4
:1005C300A3F8E0C5F025F0F0E582158270021583EB
:1005D300E0C838F0E8A522EF2BFFEE3AFEED39FD37
:1005E300EC38FCA522E88FF0A4CC8BF0A42CFCE91A
:1005F3008EF0A42CFC8AF0EDA42CFCEA8EF0A4CDA2
:10060300A8F08BF0A42DCC3825F0FDE98FF0A42CB5
:10061300CD35F0FCEB8EF0A4FEA9F0EB8FF0A4CF68
:10062300C5F02ECD39FEE43CFCEAA42DCE35F0FD19
:10063300E43CFCA52275F008758200EF2FFFEE3332
:10064300FECD33CDCC33CCC58233C5829BED9AEC42
:1006530099E58298400CF582EE9BFEED9AFDEC99AC
:10066300FC0FD5F0D6E4CEFBE4CDFAE4CCF9A882B6
:10067300A522B800C0B9005BBA002EEC8BF084CF82
:10068300CECDFCE5F0CBF97818EF2FFFEE33FEED7E
:1006930033FDEC33FCEB33FB10D703994004EB99A8
:1006A300FB0FD8E5E4F9FAA5227818EF2FFFEE3314
:1006B300FEED33FDEC33FCC933C910D7059BE99A32
:1006C3004007EC9BFCE99AF90FD8E0E4C9FAE4CCC3
:1006D300FBA52275F010EF2FFFEE33FEED33FDCCBB
:1006E30033CCC833C810D7079BEC9AE899400AED7E
:1006F3009BFDEC9AFCE899F80FD5F0DAE4CDFBE426
:10070300CCFAE4C8F9A522EB9FF5F0EA9E42F0E9A2
:100713009D42F0E89C45F0A522E0FCA3E0FDA3E0A8
:10072300FEA3E0FFA522E493FC740193FD740293FE
:10073300FE740393FFA522E0F8A3E0F9A3E0FAA374
:10074300E0FBA522E493F8740193F9740293FA741D
:100753000393FBA5227401FF3395E0FEFDFCA3A3E5
:10076300A3E0CF2FF0E582158270021583E0CE3E21
:10077300F0E582158270021583E0CD3DF0E5821528
:100783008270021583E0CC3CF0A522ECF0A3EDF0DF
:10079300A3EEF0A3EFF0A522A42582F582E5F035C0
:1007A30083F583A522E0FBA3E0FAA3E0F9A522EBFE
:1007B300F0A3EAF0A3E9F0A522E493FB740193FA12
:1007C300740293F9A522F8D0E0F5834480FBD0E0CE
:1007D300FAD0E0F9A5487012A549700EA56AA5499B
:1007E300C0E0A548C0E0C083A522A54A6860EFA584
:1007F3006B80E1F8D0E0F5834480FBD0E0FAD0E0F1
:10080300F9A5487012A549700EA56AA549C0E0A5CF
:1008130048C0E0C083A522A54AB5F005A54B686092
:10082300EAA56880DC8F828E83EDFFECFEE8FDE5B0
:100833008260020583458370047F00A522A548F5E5
:10084300F0A54CA569A56DB5F006D582F0D583ED6D
:100853007FFFB5F0030FA52240027F01A522EF4ED3
:100863006019EF60010EED89828A838BF0A558A58C
:1008730069DFFADEF88BF0A982AA83A522F8E0FBF0
:10088300A3A3E0F925F0F0E582158270021583E059
:10089300FA38F0A522312ED6BDB1D2C6F7D7B4CCE3
:1008A300AC3A2000322ED3B2B1D2C6F7D7B4CCAC17
:1008B3003A2000332E2331D5D2C1E3C6F7D7B4CCC7
:1008C300AC3A2000342E2332D5D2C1E3C6F7D7B4D5
:1008D300CCAC3A2000352E2333D5D2C1E3C6F7D7AB
:1008E300B4CCAC3A2000362ECAD6BBFAC4A3BFE9B7
:1008F300D7B4CCACB2E2CAD400372EB6CCD0C5B292
:10090300E2CAD400382EBBF5B5C0D7B4CCAC00399D
:100913002EBBF5B5C0BCECB2E20031302E20BBF5E6
:10092300B5C0B2E2CAD4BDE1B9FB0031312E20D14A
:10093300A1BBF5B0B4C5A5BCECB2E20031322E20A8
:10094300D3CECFB7B0B4C5A5BCECB2E20031332EE1
:1009530020CDCBB1D2B0B4C5A5BCECB2E2003134EA
:100963002E20B6C1BFA8C6F7B2E2CAD43A200031DE
:10097300352E20D1B9CBF5BBFAB2E2CAD400313659
:100983002E20D5B9CABEB5C6B2E2CAD400D5FDB3CE
:10099300A300B9CAD5CF00CEDE00B2BBD7E300CEE9
:1009A300B4B2E2CAD400C8B1BBF500C8B7B6A84513
:1009B3004E54455220C8A1CFFB43414E43454C0002
:1009C300C0DBBCC6B2E2CAD4B4CECAFD3A20257598
:1009D30000BBF5B5C02530326275B9CAD5CFB4CEE8
:1009E300CAFD3A257500D5FDD4DABCECB2E2202568
:1009F3003032627520BBF5B5C00020202020C7EB44
:100A0300C9D4B5C82E2E2E002020BBF5B5C0B0E545
:100A13003A20B9CAD5CF202020002020BBF5B5C08D
:100A230025303262753A20B9CAD5CF202020002064
:100A330020BBF5B5C025303262753A20CEDEBBF55A
:100A4300202020002020BBF5B5C020253032627560
:100A53003A2020D5FDB3A3200020202020D3B2B11B
:100A6300D2C6F7B2E2CAD400C7EBCDB6B1D23A00D0
:100A73002020B1D2B6B7D2D1C2FA2C20C7EBB4A68C
:100A8300C0ED2100D2D1CDB6C8EBBDF0B6EE3A2011
:100A9300257500D2D1CDB6C8EBBDF0B6EE3A202510
:100AA300752E257500D2D1CDB6C8EBBDF0B6EE3AA2
:100AB3002025752E25303275002020D3B2B1D2C641
:100AC300F7CAC7B7F1D5FDB3A33F00257300D5B966
:100AD300CABEB5C600D1B9CBF5BBFA002020257339
:100AE300B2E2CAD400312DB4F2BFAA2020322DB90C
:100AF300D8B1D5002573D2D1B4F2BFAAA3ACC7EB4A
:100B0300C8B7C8CF002573D2D1B9D8B1D5A3ACC764
:100B1300EBC8B7C8CF00C7EBB2BBD2AACBE6D2E2D1
:100B2300B9D8B1D5C9E8B1B8A3A10020202020D6F7
:100B3300BDB1D2C6F7B2E2CAD4002020D6BDB1D22D
:100B4300C6F7CAC7B7F1D5FDB3A33F0020202020C5
:100B5300B0B4C5A5B2E2CAD42100CAE4C8EBB0B4AC
:100B6300C5A53A00CAE4C8EBB0B4C5A53A202562CE
:100B7300750020202020D3CECFB7B0B4C5A5B2E2F4
:100B8300CAD42100D3D0BCFCB0B4CFC22C20D4F241
:100B9300C3F9BDD0D2BBC9F90020202020CDCBB1F1
:100BA300D2B0B4C5A5B2E2CAD42100BBF5B5C02505
:100BB300303262753A202573008008980E8008A7AA
:100BC3000E8008B6108008C7108008D8108008E986
:100BD300128008FC0A8009070A8009120A80091D8D
:100BE3001080092E1080093F108009501080096180
:100BF300108009720E8009810E8009900480099586
:100C03000480099A0280099D048009A20680099044
:100C130004800995048009A904E5272436F582E4B4
:100C23003426F583E0052722902633301A039026D5
:100C330036E475F001A512800880A548222013E749
:100C43007F2ED2138018EF540F2490D43440D4FF56
:100C530030170BEF24BFB41A0050032461FFE528BB
:100C630060021528052BE52B7002052A301A109017
:100C73002633E475F001A512800880EFA55822A55C
:100C830012800028227403D21A8003E4C21AF527C3
:100C9300902633A5128007B2E4F528F52AF52BE553
:100CA3002860097F20A512800C6180F37529FFC29B
:100CB30014C213C215C216C218C219C21B120C2BBE
:100CC300FF700E301A057F00120C72AF2BAE2AA5EF
:100CD30022B4255FC2D5C217120C2BFF24D0B40A4D
:100CE30000501A75F00A782830D50508B6FF0106BA
:100CF300C6A426F620D5047002D21680D924CFB418
:100D03001A00EF5004C2E5D217020E89D21480C62E
:100D1300D21380C0D21580BCD2D580BAD21880B489
:100D23007F20120C612015077401B5280040F112D1
:100D33000C1CFF120C61020CA2D21BD2198095125B
:100D43000C1CFB120C1CFA120C1CF94A4B70067992
:100D53005C7A0F7B8020153AE52860367E00E9C077
:100D6300E02EF9EAC0E03400FAA548F9D0E0FAD061
:100D7300E0C960060EEE652970E4C2D5EBC0E0EA77
:100D8300C0E0E9C0E0EE120ED2D0E0F9D0E0FAD034
:100D9300E0FBA548FF609FEBC0E0EAC0E0E9C0E0EC
:100DA300120C61D0E02401F9D0E03400FAD0E0FB6A
:100DB300E5290460DDD529DA020D397B807A0E79C5
:100DC300CED2158090791080027908C219C21B8097
:100DD30008D2D5790A8004790AC2D5E529047002BC
:100DE300F529E4FAFDFEFF120C1CFC7B082014130A
:100DF300120C1CFD7B1030130A120C1CFE120C1C6F
:100E0300FF7B20EC3382D592D55013C3E430130615
:100E13009FFFE49EFEE42014039DFDE49CFCE4CBD1
:100E2300F8C214EC700CCFCECDCCE824F8F870F3F4
:100E33008017C3EF33FFEE33FEED33FDEC33FCEBF2
:100E430033FB994002FB0FD8E9EB301405F8D0E0EF
:100E5300C448B214C0E00AEC4D4E4F78207B0070BA
:100E6300C2EAB5290040BCC0E0120ED4D0F0D0E0F5
:100E7300201404C4C0E0C4B214C0F0120C4AD0F071
:100E8300D5F0EB020CA2A5128007C90D42530DC881
:100E9300580D134C0D0F420DCC4F0DD4440DD449B6
:100EA3000D28430DDA550DBE460DBE450DBE470F49
:100EB30077500D172D0D1B2E0D3E2B0D1F230D3CB3
:100EC300200F652A0CD74800000D363F3F3F0079BD
:100ED3000AA2D5201614301809B910020404B9085F
:100EE3000104A2D52019025001042015689215B5FA
:100EF30028005034C0E07F203016197F30A21572CD
:100F0300197218500F120F2BC215C219C218C21B27
:100F13007F30800F301803E9C0E0120C61301803F2
:100F2300D0E0F9D0E0B528CC3018177F30B9100CD9
:100F3300120C617F583017077F788003B9080312BA
:100F43000C613015057F2D020C617F20201BF87F7B
:100F53002B2019F322921580CF286E756C6C290013
:100F6300D214120C1C3014F8C214782830D501089E
:100F7300F6020CD7120C1CC0E0C4120C4AD0E012CB
:100F83000C4A743A120C52D216752804020DC83159
:100F93002E2331D5D2C1E3C6F7C3E6D6B53A003224
:100FA3002E2332D5D2C1E3C6F7C3E6D6B53A003312
:100FB3002E2333D5D2C1E3C6F7C3E6D6B53A003400
:100FC3002ED4CAD0EDB6E0B4CEB9BAC2F23A0035E7
:100FD3002EB2BBC2F2BBF5CDCBB1D23A00362EBF97
:100FE300AAC6F4D6BDB1D2C6F73A00372EBFAAC6F9
:100FF300F4CAD6BBFAC4A3BFE93A00382ED3E0B68D
:10100300EECFC2CFDE3A00392ECAD5B1D2C9CFCF87
:10101300DE3A0031302E20D2C9CECABDF0B6EE3A48
:101023000031312E20BBFAC6F7B1E0BAC53A200031
:1010330031322E47534DBAC5C2EB3A0031332E201D
:10104300C7B7CCF53A0031342E20D0A1CAFDB5E3A1
:101053003A0031352E202331D6BDB1D23A00313694
:101063002E202332D6BDB1D23A0031372E2023337E
:10107300D6BDB1D23A0031382E202334D6BDB1D2F9
:101083003A0031392E202335D6BDB1D23A00323061
:101093002E202336D6BDB1D23A0032312E2023374B
:1010A300D6BDB1D23A0032322E202338D6BDB1D2CA
:1010B3003A0032332E202331D3B2B1D23A00323444
:1010C3002E202332D3B2B1D23A0032352E2023332D
:1010D300D3B2B1D23A0032362E202334D3B2B1D2B6
:1010E3003A0032372E202335D3B2B1D23A00323808
:1010F3002E202336D3B2B1D23A0032392E20BFAAE2
:10110300C6F4B3F6BBF5C8B7C8CF3A0033302E20C8
:10111300BDBBD2D7CAB1BCE43A0033312E20B2BB37
:10112300D5D2C1E3C4A3CABD3A0033322E20BFAA2D
:10113300C6F4D3B2B1D2C6F73A0033332E20BFAAD6
:10114300C6F4B9ABBDBBBFA83A0033342E20B6C139
:10115300BFA8CAB1BCE43A0033352E20D4DDB4E6CF
:10116300D6BDB1D2C4A3CABD3A0033362E20CEE5D4
:10117300D4AAD6BDB1D2D4DDB4E63A0033372E209B
:10118300CAAED4AAD6BDB1D2D4DDB4E63A00333860
:101193002E20BFAAC6F441434443C4A3BFE93A0087
:1011A30025750025752E25750025752E253032757C
:1011B300002562750025326278002530326278009E
:1011C300800F920F800FA20F800FB20F800FC20FFC
:1011D300800FD20D800FE00D800FEE0F800FFE0BFE
:1011E30080100A0B8010160D8010240D8010330B15
:1011F30080103F098010490B8010550B8010610B44
:1012030080106D0B8010790B8010850B8010910B73
:1012130080109D0B8010A90B8010B50B8010C10BA3
:101223008010CD0B8010D90B8010E50B8010F10BD3
:101233008010FD1180110F0D80111D0F80112D0FD6
:1012430080113D0F80114D0D80115B1180116D11C7
:1012530080117F1180119111000500050005000127
:101263000001000100010005000500050005001054
:10127300000100010005000500050005000500054B
:101283000005000500050005000500050005000533
:10129300000100050001000100010002000100013E
:1012A30000010001410184004213C5000041020610
:1012B300014113C7004205FE000041000100C120A7
:1012C300C121C19DC122C19FC11E41000000412E09
:1012D3001400412E0C00412E0D00412E0E00C1259D
:1012E300412E1301412E1200411C8D00412DD500CA
:1012F300412DD600412DD700C100412DD900412DEC
:10130300DA00412DDB00412DDC00412DDD00412DB4
:10131300DE00C103C104C105C106C107C108C1097B
:10132300C10AC10BC10CC10DC10E412DDF00462DF9
:1013330062080001009600412DA800C12901150093
:10134300412E1500411CD200411CCE00411CD60188
:10135300411CD001C123C124411CD400620026E5F5
:1013630000008005800F000A801B001E00148011FE
:1013730080330036003C80390028802D80270022EE
:1013830080630066006C80690078807D80770072DE
:1013930000508055805F005A804B004E00448041CE
:1013A30080C300C600CC80C900D880DD80D700D2BE
:1013B30000F080F580FF00FA80EB00EE00E480E1AE
:1013C30000A080A580AF00AA80BB00BE00B480B19E
:1013D30080930096009C80990088808D808700828E
:1013E30081830186018C81890198819D8197019276
:1013F30001B081B581BF01BA81AB01AE01A481A166
:1014030001E081E581EF01EA81FB01FE01F481F155
:1014130081D301D601DC81D901C881CD81C701C245
:1014230001408145814F014A815B015E0154815135
:1014330081730176017C81790168816D8167016225
:1014430081230126012C81290138813D8137013215
:1014530001108115811F011A810B010E0104810105
:1014630083030306030C83090318831D83170312E5
:1014730003308335833F033A832B032E03248321D5
:1014830003608365836F036A837B037E03748371C5
:1014930083530356035C83590348834D83470342B5
:1014A30003C083C583CF03CA83DB03DE03D483D1A5
:1014B30083F303F603FC83F903E883ED83E703E295
:1014C30083A303A603AC83A903B883BD83B703B285
:1014D30003908395839F039A838B038E0384838175
:1014E30002808285828F028A829B029E029482916D
:1014F30082B302B602BC82B902A882AD82A702A25D
:1015030082E302E602EC82E902F882FD82F702F24C
:1015130002D082D582DF02DA82CB02CE02C482C13C
:1015230082430246024C82490258825D825702522C
:1015330002708275827F027A826B026E026482611C
:1015430002208225822F022A823B023E023482310C
:1015530082130216021C82190208820D82070202FC
:1015630000CFB5CDB3D5FDD4DAC6F4B6AF2C20C7C2
:10157300EBC9D4B5C80020202020C4E3C8B7B6A85F
:10158300B8FCB8C4C2F03F00C8B7B6A8454E54452E
:101593005220C8A1CFFB43414E43454C00D5FDD457
:1015A300DAB8FCB8C4C9CCC6B7D3E0C1BF2E2E2E5F
:1015B30000C9CCC6B7D3E0C1BFB8FCB8C4CAA7B092
:1015C300DC2100C9CCC6B7D3E0C1BFB8FCB8C4B3F3
:1015D300C9B9A62100D5FDD4DAB8FCB8C4C9CCC6B4
:1015E300B7BCDBB8F12E2E2E00C9CCC6B7BCDBB816
:1015F300F1B8FCB8C4CAA7B0DC2100C9CCC6B7BCDB
:10160300DBB8F1B8FCB8C4B3C9B9A62100202020C7
:1016130020C4E3C8B7B6A8CCEDC2FAC2F03F00D5E8
:10162300FDD4DACCEDC2FA2E2E2E00CCEDC2FAB2E6
:10163300D9D7F7CAA7B0DC2100CCEDC2FAB2D9D70B
:10164300F7B3C9B9A62100CAE4C8EBB2E3BCDCB165
:10165300E0BAC53A00B1E0BAC5CAE4C8EBB4EDCE0E
:10166300F300C7EBCAE4C8EBC6E4CBFCB1E0BAC5F0
:1016730000C4E3C8B7B6A8CCEDC2FAB4CBB2E3BC9E
:10168300DCC2F03F00D5FDD4DACCEDC2FAB5B1C768
:10169300B0B2E3BCDC2E2E2E00B2E3BCDCCCEDC238
:1016A300FAB2D9D7F7CAA7B0DC2100B2E3BCDCCCCD
:1016B300EDC2FAB2D9D7F7B3C9B9A6210025730091
:1016C300B2B9D3B2B1D200C8A1D6BDB1D2002020E5
:1016D300C4E3C8B7B6A82573C2F03F002020D5FDE8
:1016E300D4DA2573002573CAA7B0DC21002573B3B0
:1016F300C9B9A6210020202020C4E3C8B7B6A8CDCD
:10170300ACB2BDC2F03F00D5FDD4DACDACB2BD2C36
:1017130020C7EBC9D4B5C82E2E2E00CDACB2BDB2B6
:10172300D9D7F7B3C9B9A621002020C4E3C8B7B6F7
:10173300A8C7E5B5E3C2F03F00D5FDD4DAC7E5B5E8
:10174300E32C20C7EBC9D4B5C82E2E2E00C7E5B5B0
:10175300E3CDEAB1CFA3ACC7EBBACBB6D42100C774
:10176300E5B5E3BDF0B6EE3A20257500C7E5B5E370
:10177300BDF0B6EE3A2025752E257500C7E5B5E315
:10178300BDF0B6EE3A2025752E2530327500312E88
:10179300BBF5B5C0B2CECAFD00322EBCD3C2FAC867
:1017A300ABB2BFBBF5B5C000332EB2B9D3B2B1D221
:1017B300CDEAB3C900342EC8ABCFB5CDB3CDACB2EF
:1017C300BD00352EBCD3C2FAB2E3BCDCBBF5B5C059
:1017D30000362EC8A1D6BDB1D2CDEAB3C900372E8B
:1017E3003520BDC7D3B2B1D2C7E5B5E300382E313A
:1017F30020D4AAD3B2B1D2C7E5B5E300392EC9E8E4
:10180300B1B8B9DCC0ED0031302E20CFB5CDB3B2C5
:10181300CECAFD0031312E20BDBBD2D7BCC7C2BC5E
:101823000031322E20BBF5BCDCC5E4D6C300313316
:101833002E20B3F6B3A7C4ACC8CFC5E4D6C30031DA
:10184300342E20B4D3BBFACCEDBBF5002020C8B7AF
:10185300B6A8B3F6B3A7C5E4D6C3C2F03F00C8B772
:10186300B6A8454E54455220C8A1CFFB43414E4331
:10187300454C0030002020D5FDD4DAB1A3B4E600F6
:101883002000B1A3B4E6CAA7B0DCA3ACD6D8D0C2BB
:10189300C9E8D6C33F002020454E5445522020209E
:1018A30043414E43454C008017910A80179C0E809C
:1018B30017AB0C8017B80C8017C50E8017D40C809B
:1018C30017E10E8017F00E8017FF0A80180A0C80AC
:1018D30018170C8018240C801831108018420C3112
:1018E3002EB2E3BCDCB1E0BAC53A00322ECAC7B7A8
:1018F300F1C6F4D3C33A00332ED7EEB4F3B4E6BB48
:10190300F5C1BF3A00342EB5DAD2BBBBF5B5C03A48
:1019130000352EB5DAB6FEBBF5B5C03A00362EB5A6
:10192300DAC8FDBBF5B5C03A00372EB5DACBC4BB78
:10193300F5B5C03A00382EB5DACEE5BBF5B5C03AF9
:1019430000392EB5DAC1F9BBF5B5C03A0031302EF6
:1019530020B5DAC6DFBBF5B5C03A0031312E20B56C
:10196300DAB0CBBBF5B5C03A00C7EBCAE4C8EBC3EA
:10197300DCC2EB3A00C3DCC2EBB4EDCEF3210025AD
:101983006275002020200020002020202000CAE4CF
:10199300C8EBB2E3BCDCB1E0BAC53A00B1E0BAC50A
:1019A300CAE4C8EBB4EDCEF300C7EBCAE4C8EBC698
:1019B300E4CBFCB1E0BAC5008018E20B8018EE0B53
:1019C3008018FA0D8019080B8019140B8019200B4D
:1019D30080192C0B8019380B8019440B8019500D7A
:1019E30080195E0D80196C0B8019780900010001C4
:1019F30000020001000100010001000100010001DB
:101A030000012020C4E3C8B7B6A8C2F03F00C8B79E
:101A1300B6A8454E54455220C8A1CFFB43414E437F
:101A2300454C002020C3BBD3D0BDBBD2D7BCC7C25B
:101A3300BC00D6BDCAD53A00CFD6D6BDCAD53A006A
:101A43003159CAD53A00CFD63159CAD53A00354AA9
:101A5300CAD53A00CFD6354ACAD53A003159D5D27C
:101A63003A00CFD63159D5D23A00354AD5D23A00C9
:101A7300CFD6354AD5D23A00253035752025732582
:101A83006C752E2530326C7500256C752E25303221
:101A93006C7500801A050B801A1114801A260E80AB
:101AA3001A3506801A3B08801A4306801A490880B3
:101AB3001A5106801A5708801A5F06801A65088033
:101AC3001A6D06801A7308A575FF07758E0378FED5
:101AD300E4F6D8FD758187A575FB00759008A5020E
:101AE300801B11A50280B7D7E493A3F85407240CF5
:101AF300C8C333C4540F4420C8834004F456800140
:101B030046F6DFE4800B01020408102040809012A7
:101B1300A7E47E019360CCA3FF543F30E509541F33
:101B2300FEE493A360010ECF54E0B4E01CE493FB06
:101B3300A3E493FAA3E493F9A3E493A558A309E9CF
:101B430070010ADFF4DEF280C854C025E06025404E
:101B530097E493A3FAE493A3F8E493A3C8C582C8D4
:101B6300CAC583CAF0A3C8C582C8CAC583CADFE988
:101B7300DEE7809DE493A3F8E493A34003F680019A
:101B8300F208DFF4808B312EBBF5B5C0B1E0BAC5E6
:101B93003A2000322EC9CCC6B7D3E0C1BF3A2000E9
:101BA300332EB5A5BCDB3A2000342EBBF5B5C0D728
:101BB300B4CCAC3A2000352EC9CCC6B7B1E0BAC517
:101BC3003A20002530326275002533627500257591
:101BD3000025752E25750025752E253032750025B7
:101BE3006275002532627500BBF5B5C025303262DF
:101BF30075D3E0C1BFA3BA00801B890C801B960C70
:101C0300801BA308801BAC0C801BB90C2000202078
:101C130020202020202020202020202020202020C1
:101C2300202000C7EBCAE4C8EBB1E0BAC53A2000F4
:101C3300B1E0BAC5CAE4C8EBB4EDCEF300C7EBCA52
:101C4300E4C8EBC6E4CBFCB1E0BAC50020202020F9
:101C53002020202020202020202020202020202081
:101C630000C2D5E830E70FB2D5E4C39BFBE49AFA90
:101C7300E499F9E498F8EC30E71BB2D5A512801C7F
:101C8300A0A512800675E4C39BFBE49AFAE499F9D4
:101C9300E498F88005A51280067530D50DE4C39F3E
:101CA300FFE49EFEE49DFDE49CFCA5224742323303
:101CB30031320057494E31323532000D51961052B0
:101CC300640505050505050505040404040808075E
:101CD300FF010101010101010102020202030306E6
:101CE300FF50505050505050501B1B1B1B0D0D18D4
:101CF300FF09090909090909092E2E2E2E0000489A
:101D0300FF000000010000000A000000640000035F
:101D1300E800002710000186A0000F4240009896BB
:101D23008005F5E1000800010096000000000000B6
:101D3300000000000000000000000100000000029D
:101D430000030408000100960008000100960090BB
:101D530013C5E0FEA3E0FF9023EAEEF0A3EFF0E467
:101D6300A3F0A3F0A3F09005DFE0B401139005DD29
:101D7300E0FEA3E0FF9023EAEE8FF0A5128005AC0E
:101D8300D39023EBE094009023EAE0940050057F86
:101D93000002202C9013C7742CF07E007F147D006A
:101DA3007B007A0579EAA5128008619013C7E0FFEA
:101DB30025E025E024F8F582E43403F583E49390E9
:101DC30023ECF0FD7C00C004C005EF25E025E024F2
:101DD300F5F582E43403F583A5128007BC78EA7C29
:101DE300057D00D007D006A5128004D99023ECE02E
:101DF300FF24EAF582E43405F5837420F09003B000
:101E0300E0FCA3E0FDEC6003021F18ED24F6603D47
:101E130024A67003021EAC24636003021F1874EB34
:101E23002FF9E43405FA7B00C003C002C0017B80B4
:101E33007A037989902636A5128007B29023EAE0C7
:101E4300FFA3E0902639CFF0A3EF021F069023EC07
:101E5300E024EBF9E43405FA7B00C003C002C001BF
:101E63007B807A03798C902636A5128007B2900383
:101E7300B0E0FAA3E0FB9023EAE0FEA3E0FFAD03AA
:101E8300AC02A512800518902639EEF0A3EFF0906E
:101E930023EAE0FEA3E0FFAD03AC02A51280051820
:101EA30090263BECF0A3ED805A9023ECE024EBF971
:101EB300E43405FA7B00C003C002C0017B807A03CF
:101EC3007992902636A5128007B29003B0E0FAA368
:101ED300E0FB9023EAE0FEA3E0FFAD03AC02A51212
:101EE300800518902639EEF0A3EFF09023EAE0FE88
:101EF300A3E0FFAD03AC02A51280051890263BECCE
:101F0300F0A3EDF0D001D002D003A512800C88908D
:101F130023ECE02FF09023ECE004F0D2137B007A63
:101F23000579EA902635A5128007B29023ECE0A547
:101F330012807DC9900373E0FEA3E0FFC39023EBFF
:101F4300E09F9023EAE09E40509013C77436F0D28E
:101F530013E0FF25E025E024F5F582E43403F5835F
:101F6300A5128007BC902635A5128007B2EF25E0A5
:101F730025E024F8F582E43403F583E493902638CE
:101F8300F07D01E4FFA512807DD09005DFE06401C0
:101F93007048A51280880780419013C77404F0D25B
:101FA30013E0FF25E025E024F5F582E43403F5830F
:101FB300A5128007BC902635A5128007B2EF25E055
:101FC30025E024F8F582E43403F583E4939026387E
:101FD300F07D01E4FFA512807DD0E47F64FEFDFC6B
:101FE3009026697417F0A3740DF0A512806BD4903A
:101FF30016A7E0B4011A9016A9E0FCA3E0FDE4FFE4
:10200300A5128142B6E49016A7F09016A9F0A3F0AA
:102013009016A8E0B40110A5128142ACE49016A872
:10202300F09016ABF0A3F07F00A522E49023E1F03B
:10203300FE7F57FD7B007A037968A5128008617ED5
:10204300037F3F7D007B007A1379C9A51280086165
:102053007E037FDE7D007B007A0F79D8A51280088E
:10206300619015F47401F0A3F07E027F297D007B5B
:10207300007A0379BFA5128008619005C77401F047
:102083007E037F137D007B007A0C796AA51280089A
:1020930061E47F64A512806BCB7E007F867D007B2D
:1020A300007A0279E1A512800861D211E490263505
:1020B300F0D212FDFFA5128080F9D211E4902635EB
:1020C300F0D212FD7F01A5128080F9D2139004850E
:1020D300A5128007BC902635A5128007B29004880C
:1020E300A512807DC7D21390043DA5128007BC9032
:1020F3002635A5128007B2900440E493902638F069
:102103007D01E4FFA512807DD0E47F64A512806B7E
:10211300CB7F00A522E49023E1F0A3F0A3F0A3F08A
:10212300FE7F14FD7B007A0579EAA5128008619091
:1021330015F7E0FF75F037900FDDA51280079BE0E0
:10214300D39400401875F037EF90100EA512800756
:102153009BE0FFF460199013C8EFF080129015F71D
:10216300E075F03790100EA51280079B74FFF09076
:1021730015F7E075F03790100EA51280079BE0F479
:102183007002802D9013C8E075F006900007A51229
:1021930080079BE0700280199013C8E075F00690E9
:1021A3000004A51280079BE0FF540A7004EF20E0AF
:1021B300419013C7740EA512807D9A9013C77419AA
:1021C300F0D213E0FF25E025E024F5F582E43403A3
:1021D300F583A5128007BC902635A5128007B2EFC0
:1021E30025E025E024F8F582E43403F583E4930243
:1021F30024FC9013C77427F09003B0E0FEA3E0FF24
:10220300EE600302235AEF24F6605724A6700302FC
:1022130022D82463600302235A7B807A03799A903D
:102223002636A5128007B29013C7E025E025E024E7
:10223300F5F582E43403F583A5128007BC902639B3
:10224300A5128007B29013C8E075F006900005A5AB
:102253001280079BE0FFA3E090263CCFF0A3EF02A0
:1022630023497B807A0379A0902636A5128007B292
:102273009013C7E025E025E024F5F582E43403F567
:1022830083A5128007BC902639A5128007B290134C
:10229300C8E075F006900005A51280079BE0FAA33D
:1022A300E0FB9003B0E0FCA3E0FDAF03AE02A51298
:1022B30080051890263CEEF0A3EFF09003B0E0FC0D
:1022C300A3E0FDAF03AE02A51280051890263EECF5
:1022D300F0A3ED80717B807A0379A9902636A5124D
:1022E3008007B29013C7E025E025E024F5F582E4EA
:1022F3003403F583A5128007BC902639A512800705
:10230300B29013C8E075F006900005A51280079BF4
:10231300E0FAA3E0FB9003B0E0FCA3E0FDAF03AE63
:1023230002A51280051890263CEEF0A3EFF090036F
:10233300B0E0FCA3E0FDAF03AE02A5128005189048
:10234300263EECF0A3EDF07B007A0579EAA5128036
:102353000C889023E1EFF0A5128083BEC21EE490A7
:102363002DFDF09017087406F09003B8E064016047
:10237300030224C99013C3E054FB60030224C990F1
:1023830013C8E075F006900005A51280079BE0FED8
:10239300A3E0D39400EE940050030224C9D2137B2C
:1023A300007A0579EA902635A5128007B29023E1D9
:1023B300E0902638F07D01E4FFA512807DD09023C4
:1023C300E3742DA512807D9A9003B9E0FF7E007C13
:1023D300037DE8A512800505E4FCFDA512806BCE04
:1023E300900F98E475F001A5128005AC9013C8E036
:1023F30075F006900005A51280079BE0FEA3E0FFA1
:10240300900F98E0FCA3E0FDA5128160AB9023E45C
:10241300EFF07076900E77E064A07045A512809778
:102423001DA5128155149013C8E075F006900005A0
:10243300A51280079BE0FCA3E0FD7F02A512814269
:10244300B69013C8E075F006900005A51280079BAF
:10245300E0FFA3E09013C5CFF0A3EFF07F010225C7
:102463002B900E77E064A170079013C77430801F20
:10247300900E77E0FF64A5600AEF64A66005EF6441
:10248300A7706E9013C7743180059013C77431F031
:10249300D213E0FF25E025E024F5F582E43403F5CB
:1024A30083A5128007BC902635A5128007B2EF25BD
:1024B300E025E024F8F582E43403F583E4939026E1
:1024C30038F0E4FD801BD2137B007A0579EA90266D
:1024D30035A5128007B29023E1E0902638F07D0104
:1024E300E4FFA512807DD0E47FD07E07A512806B28
:1024F300CCE49013C8F0FF802F902638F07D01E4E0
:10250300FFA512807DD0E47FD07E07A512806BCC1F
:10251300A5128083BEC21EE4902DFDF09013C8F077
:102523009017087406F07F00A522E49023E1F09051
:1025330005FEE07002A3E0700590020604F090022D
:1025430006E06401600302263D9015E7E064016044
:10255300030225EBC39015E6E094F49015E5E094AF
:102563000150030225EBE4F0A3F09003B8E064010B
:1025730070479013C3E054FB703F9013C77435A5A5
:1025830012807D9AA512806BC89013C7742FA51271
:10259300806B8CA51280FFECEF6401600302264E72
:1025A300D2139013C7A512806B8FA51280FFECEF97
:1025B3006401600302264E80739013C77434A5121E
:1025C300807D9AA512806B76A51280FFECEF6401E3
:1025D3007079D2139013C7A512806B8FA51280FF59
:1025E300ECEF6401706580449015E7E06401705B73
:1025F300C39015E6E094FA9015E5E09400404C9002
:1026030013C77434A512807D9AA512806B76A51228
:1026130080FFECEF64017033D2139013C7A51280CF
:102623006B8FA51280FFECEF6401701F9005FEE035
:102633004402F0A3E0F07F01802A9013C77410A531
:1026430012807D9A7F02A5128075E4901708E0043A
:10265300F0A51280A8C7BF01047F028007A51280DE
:102663006BC87F01A522E49023E1F0A3F0A3F0A3BC
:10267300F0A3F0A3F0A3F0A3F09023E1F0A3F09074
:1026830005C7E064016016D39013C6E0940090136D
:10269300C5E0940040077F01A51280FFF3302007B7
:1026A300A512808761C220301E1CD211E49026350A
:1026B300F0D2127D01FFA5128080F9C21EE4902D95
:1026C300FDF09013C8F090036FE0640160030228EB
:1026D300249005C7E064017003022824A51280AC8E
:1026E300E8EF7003022824A51281393E9023E1EE1E
:1026F300F0A3EFF04E7008A512807FF202281C9021
:1027030023E1E0FEA3E0FF9013C6E02FFF9013C583
:10271300E03EFEC3900374E09F900373E09E503449
:102723009013C77403A512807D9A7F02A51280754A
:10273300E4E47FDC7E05A512806BCCA512807FF2DA
:102743009013C5E0FCA3E0FD4C70028050AF05AED2
:102753000402289EA512813904902E09740AF09070
:102763002E09E0600FA512813935EF7007A512809D
:102773006D1180EB902E09E0702CA512807FF290F2
:1027830023E1E0FFA3E0900375CFF0A3EFF0A512E0
:1027930080BCA29013C5E07002A3E0707C90170880
:1027A300F07F020228A59023E1E0FEA3E0FF90134F
:1027B300C5EE8FF0A5128005AC900F7EA5128007A1
:1027C3003AE4FCFDA5128005DA900F7EA51280077E
:1027D3008E900F9AA51280073A9023E1E0FEA3E0C2
:1027E300FFE4FCFDA5128005DA900F9AA51280077D
:1027F3008E9016A87401F09023E1E0FEA3E0FF9011
:1028030016ABEE8FF0A5128005AC9003B5E0FFA3E5
:10281300E09015D6CFF0A3EFF0E47F14A512806B00
:10282300CBE49023E7F09023E5F0A3F0900373E06B
:10283300FEA3E0FFC39013C6E09F9013C5E09E4044
:1028430052A5128087F9A512801D52A512814ADE76
:1028530090036FE06401702D9005C7E0640160256B
:10286300902E097401F0902E09E06019A51280AC36
:10287300E8EF6007A512807FF2800AE47F0AA512C1
:10288300806BCB80E1E47FF47E01A512806BCC7F6B
:1028930001800F9013C5E0FEA3E0FFA512801D5A2F
:1028A3007F00A5229015F7E0FF75F037900FDDA5A7
:1028B3001280079BE0D39400402275F037EF90100D
:1028C3000EA51280079BE0FFF460239015F7E0FE4E
:1028D3009013C8EFF0900205EEF080129015F7E028
:1028E30075F03790100EA51280079B74FFF09015BA
:1028F300F7E075F03790100EA51280079BE0F47097
:102903000280129013C8E075F006900007A51280AC
:10291300079BE070669013C7740EA512807D9A9092
:1029230013C77419F0D213E0FF25E025E024F5F571
:1029330082E43403F583A5128007BC902635A512E3
:102943008007B2EF25E025E024F8F582E43403F5AF
:1029530083E493902638F07D01E4FFA512807DD0B7
:10296300E47FD07E07A512806BCCE49013C8F0906F
:1029730015EAE04401F07F02022A1D9013C8E075B6
:10298300F006900004A51280079BE030E004540A8F
:1029930060679013C7740EA512807D9A9013C77455
:1029A30019F0D213E0FF25E025E024F5F582E434A5
:1029B30003F583A5128007BC902635A5128007B2C4
:1029C300EF25E025E024F8F582E43403F583E4936E
:1029D300902638F07D01E4FFA512807DD0E47FD0FE
:1029E3007E07A512806BCCE49013C8F09015EAE043
:1029F3004401F0E49013C8801A9013C8E075F00600
:102A0300900005A51280079BE0FEA3E04E7009909D
:102A130013C8F0F07F0180027F00A522E49023E138
:102A2300F0A3F0A3F0A3F09005DFE0B40116900546
:102A3300DDE0FEA3E0FF9013C6E02FFF9013C5E097
:102A43003EFE80089013C5E0FEA3E0FF9013C8E0AC
:102A530075F006900005A51280079BE0FCA3E0D368
:102A63009FEC9E5003022C169013C77433A512805B
:102A73007D9A9013C77427F09003B0E0FEA3E0FFA4
:102A8300EE6003022BDAEF24F6605724A6700302EC
:102A93002B5824636003022BDA7B807A03799A90A4
:102AA3002636A5128007B29013C7E025E025E0245F
:102AB300F5F582E43403F583A5128007BC9026392B
:102AC300A5128007B29013C8E075F006900005A523
:102AD3001280079BE0FFA3E090263CCFF0A3EF0218
:102AE3002BC97B807A0379A0902636A5128007B282
:102AF3009013C7E025E025E024F5F582E43403F5DF
:102B030083A5128007BC902639A5128007B29013C3
:102B1300C8E075F006900005A51280079BE0FAA3B4
:102B2300E0FB9003B0E0FCA3E0FDAF03AE02A5120F
:102B330080051890263CEEF0A3EFF09003B0E0FC84
:102B4300A3E0FDAF03AE02A51280051890263EEC6C
:102B5300F0A3ED80717B807A0379A9902636A512C4
:102B63008007B29013C7E025E025E024F5F582E461
:102B73003403F583A5128007BC902639A51280077C
:102B8300B29013C8E075F006900005A51280079B6C
:102B9300E0FAA3E0FB9003B0E0FCA3E0FDAF03AEDB
:102BA30002A51280051890263CEEF0A3EFF09003E7
:102BB300B0E0FCA3E0FDAF03AE02A51280051890C0
:102BC300263EECF0A3EDF07B007A0579EAA51280AE
:102BD3000C889023E1EFF0D2137B007A0579EA9019
:102BE3002635A5128007B29023E1E0902638F07DC8
:102BF30001E4FFA512807DD0E47FDC7E05A5128071
:102C03006BCCE49013C8F09015EAE04401F07F0127
:102C1300022D629005DFE064016003022D3F7F0116
:102C2300A51280ACB99023E4EFF06003022D089065
:102C330005DDE0FFA3E09023E2CFF0A3EFF09023C4
:102C4300E2E0FEA3E0FF9013C5EE8FF0A51280052E
:102C5300AC900F7EA51280073AE4FCFDA512800517
:102C6300DA900F7EA51280078E900F9AA512800727
:102C73003A9023E2E0FEA3E0FFE4FCFDA512800509
:102C8300DA900F9AA51280078E9016A87401F0901F
:102C930023E2E0FEA3E0FF9016ABEE8FF0A51280D7
:102CA30005AC7E007F247D007B007A037909A512A1
:102CB300800861E4900351F0900353F0900356F0C1
:102CC3009005DFF09005DDF0A3F09016A7E0B401C6
:102CD3001A9016A9E0FCA3E0FDE4FFA5128142B619
:102CE300E49016A7F09016A9F0A3F09016A8E0645C
:102CF300017062A5128142ACE49016A8F09016AB65
:102D0300F0A3F08050E49005DFF09005DDF0A3F030
:102D1300A512801D529013C8E075F006900005A51A
:102D23001280079BE0FEA3E0FF9013C5E0FCA3E045
:102D3300FDD3EF9DEE9C401D7F01802390036FE048
:102D4300B401129005C7E0B4010B9005DCE030E05C
:102D5300047F01800AE49005DCF09005D6F0FFA51E
:102D6300227F019023E4EFF0E4A3F0A3A512808770
:102D7300F69023E4E06003022EAC9013C77414A50D
:102D830012807D9A7E007F147D007B007A0579EAAC
:102D9300A5128008619003B0E0FEA3E0FFEE60039C
:102DA300022EA9EF24F6603D24A67003022E4124CF
:102DB3006360030230047B807A0379B4902636A5DE
:102DC300128007B29004A5A5128007BC902639A5EE
:102DD300128007B29013C5E0FFA3E090263CCFF02A
:102DE300A3EF022E987B807A0379B9902636A51239
:102DF3008007B29004A5A5128007BC902639A512BE
:102E03008007B29003B0E0FAA3E0FB9013C5E0FEA5
:102E1300A3E0FFAD03AC02A51280051890263CEE9B
:102E2300F0A3EFF09013C5E0FEA3E0FFAD03AC0207
:102E3300A51280051890263EECF0A3ED80577B8009
:102E43007A0379C1902636A5128007B29004A5A50E
:102E5300128007BC902639A5128007B29003B0E018
:102E6300FAA3E0FB9013C5E0FEA3E0FFAD03AC02C1
:102E7300A51280051890263CEEF0A3EFF09013C541
:102E8300E0FEA3E0FFAD03AC02A512800518902677
:102E93003EECF0A3EDF07B007A0579EAA512800CF5
:102EA300889023E6EFF00230049023E4E0640260AC
:102EB300030230539013C77414A512807D9A7E00C9
:102EC3007F147D007B007A0579EAA5128008619062
:102ED30003B0E0FEA3E0FFEE6003023004EF24F64C
:102EE300603A24A67003022F88246360030230042F
:102EF3007B807A0379CB902636A5128007B29004A3
:102F0300BDA5128007BC902639A5128007B2900E8A
:102F130079A51280071C90263C022FEF7B807A0351
:102F230079D1902636A5128007B29004BDA51280F0
:102F330007BC902639A5128007B29003B0E0FEA328
:102F4300E0FFFBAA06E4F9F8900E79A51280071CAE
:102F5300A51280067590263CA51280078E9003B0BB
:102F6300E0FEA3E0FFFBAA06E4F9F8900E79A512B0
:102F730080071CA512800675AC00AD01AE02AF033D
:102F830090264080677B807A0379DB902636A512F2
:102F93008007B29004BDA5128007BC902639A51204
:102FA3008007B29003B0E0FEA3E0FFFBAA06E4F9BA
:102FB300F8900E79A51280071CA51280067590263D
:102FC3003CA51280078E9003B0E0FEA3E0FFFBAAAE
:102FD30006E4F9F8900E79A51280071CA512800665
:102FE30075AC00AD01AE02AF03902640A512800779
:102FF3008E7B007A0579EAA512800C889023E6EF90
:10300300F0D2137B007A0579EA902635A512800762
:10301300B29023E6E0902638F07D01E4FFA512800C
:103023007DD0E47F64A512806BCB9013C8E0FF9042
:1030330016B3F0E4A3F075F006EF900005A5128037
:10304300079BE0FFA3E09016B5CFF0A3EFF0802934
:103053009023E4E0640170219013C77414A51280D7
:103063007D9A7F02A5128075E4E47F64A512806BCC
:10307300CB9016B3E09013C8F0E49016B2A512807B
:10308300C97A9023E5EFF0BF0704E40235CF90231C
:10309300E5E0A5128007C930B600338D01338D02F8
:1030A300355F03355F0430B605355F07358B0800A0
:1030B3000035DC9023E4E06003B402219013C8E000
:1030C30075F006900005A51280079BE0FEA3E0FFC4
:1030D300C39013C6E09FF09013C5E09EF09023E4E5
:1030E300E0B401229016B5E0FEA3E0FF9013C5E023
:1030F300FCA3E0FDC39FEC9E400CED9FFFEC9E9074
:1031030013C5F0A3EFF09013C7741AA512807D9A2C
:103113009023E4E06003023296A51280A3AFEF7020
:1031230027900370E0B40116B4011DA3E0FEA3E0F1
:10313300FFC39013C6E09F9013C5E09E500A7F0221
:10314300A5128075E40232967E007F147D007B0019
:103153007A0579EAA5128008619003B0E0FEA3E046
:10316300FFEE600302326DEF24F6603D24A6700388
:103173000232052463600302326D7B807A0379B4E3
:10318300902636A5128007B29004A5A5128007BC2D
:10319300902639A5128007B29013C5E0FFA3E090F3
:1031A300263CCFF0A3EF02325C7B807A0379B9909F
:1031B3002636A5128007B29004A5A5128007BC90FD
:1031C3002639A5128007B29003B0E0FAA3E0FB9082
:1031D30013C5E0FEA3E0FFAD03AC02A51280051802
:1031E30090263CEEF0A3EFF09013C5E0FEA3E0FFC2
:1031F300AD03AC02A51280051890263EECF0A3EDBA
:1032030080577B807A0379C1902636A5128007B256
:103213009004A5A5128007BC902639A5128007B299
:103223009003B0E0FAA3E0FB9013C5E0FEA3E0FF38
:10323300AD03AC02A51280051890263CEEF0A3EF77
:10324300F09013C5E0FEA3E0FFAD03AC02A512802E
:10325300051890263EECF0A3EDF07B007A0579EAA1
:10326300A512800C889023E6EFF0D2137B007A0539
:1032730079EA902635A5128007B29023E6E09026DE
:1032830038F07D01E4FFA512807DD0E47FC8A5124C
:10329300806BCB9013C8E0FF75F006900007A51272
:1032A30080079BE014F075F006EF900007A51280ED
:1032B300079BE070139013C8E075F006900004A517
:1032C3001280079BE04404F09023E5E0B4051390DB
:1032D30013C8E075F006900004A51280079BE04434
:1032E30002F0A51280BC77900F86A51280073A9052
:1032F30013C8E075F006900005A51280079BE0FE59
:10330300A3E0FFE4FCFDA5128005DA900F86A51269
:1033130080078E900F8AE475F001A5128005ACA595
:103323001280BCA09023E4E0B401059016B9800399
:103333009016B8A512814DD3E49016B2F0A3E0FD28
:10334300A3E0FBA3E0FFA3E09023EBCFF0A3EFF018
:10335300E4FFA51281523C9015D4E4F0A37464F009
:103363009015D4E07002A3E0601BA5128077DD50B6
:1033730008E4FDFFA51280960EA512809DA7902359
:10338300E7EFF080DB7F000235FDA512807D95908D
:1033930013C8E075F006900004A51280079BE04473
:1033A30002F09023E4E0FF60076402600302352427
:1033B300A51280A3AFEF64016003023503FE7F14FF
:1033C300FD7B007A0579EAA5128008619003B0E0DD
:1033D300FEA3E0FFEE60030234E0EF24F6603D2439
:1033E300A67003023478246360030234E07B807A9E
:1033F3000379B4902636A5128007B29004A5A512CE
:103403008007BC902639A5128007B29013C5E0FF50
:10341300A3E090263CCFF0A3EF0234CF7B807A0366
:1034230079B9902636A5128007B29004A5A512801B
:1034330007BC902639A5128007B29003B0E0FAA327
:10344300E0FB9013C5E0FEA3E0FFAD03AC02A512C1
:1034530080051890263CEEF0A3EFF09013C5E0FE34
:10346300A3E0FFAD03AC02A51280051890263EEC45
:10347300F0A3ED80577B807A0379C1902636A5129D
:103483008007B29004A5A5128007BC902639A51227
:103493008007B29003B0E0FAA3E0FB9013C5E0FE0F
:1034A300A3E0FFAD03AC02A51280051890263CEE05
:1034B300F0A3EFF09013C5E0FEA3E0FFAD03AC0271
:1034C300A51280051890263EECF0A3EDF07B007A60
:1034D3000579EAA512800C889023E6EFF0D2137BDE
:1034E300007A0579EA902635A5128007B29023E683
:1034F300E0902638F07D01E4FFA512807DD080079F
:103503007F02A5128075E4E47FE87E03A512806B39
:10351300CC9013C5E0FFA3E09005E8CFA512803659
:1035230003A51280BC64900F8CE475F001A5128092
:1035330005ACA51280BCA0A5128094E09023E4E022
:10354300B401059016B980039016B8E0FFA5128167
:103553004DD5A5128152217F020235FDA512807D32
:1035630095A51280BC649023E4E0B401059016B9DC
:1035730080039016B8E0FFA512814DD5A5128152A4
:1035830021E47FC47E09803BA512807D959013C8FA
:10359300E075F006900004A51280079BE04404F058
:1035A300A51280BC779023E4E0B401059016B9809E
:1035B300039016B8A512814DD3A512815221E47F41
:1035C300E87E03A512806BCC7F00802EA51280C9F4
:1035D3007A9023E5EFF00230919016B3E0FDA3E07B
:1035E300FBA3E0FFA3E09023EBCFF0A3EFF0901653
:1035F300B2E0FFA51281523C7F00A5229005E8EEC0
:10360300F0A3EFF0E49013C5F0A3F0E49023E8F007
:10361300A3F0A3F0A3F0A3F0A3F0A3F0A304F0A3FB
:10362300F0A3F0E4A3F0A3F09023F5F0A3F0A51228
:10363300808807A51280BFD1900373E0FEA3E0FF4B
:10364300D39005E9E09F9005E8E09E4005EEF0A3E6
:10365300EFF09013C7741BA512807D9AA512806B9F
:10366300C87E007F147D007B007A0579EAA512806D
:1036730008619003B0E0FEA3E0FFEE60030237862B
:10368300EF24F6603D24A6700302371E2463600313
:103693000237867B807A0379B4902636A512800799
:1036A300B29004A1A5128007BC902639A512800709
:1036B300B29005E8E0FFA3E090263CCFF0A3EF0231
:1036C30037757B807A0379B9902636A5128007B2C5
:1036D3009004A1A5128007BC902639A5128007B2D9
:1036E3009003B0E0FAA3E0FB9005E8E0FEA3E0FF5F
:1036F300AD03AC02A51280051890263CEEF0A3EFB3
:10370300F09005E8E0FEA3E0FFAD03AC02A5128054
:10371300051890263EECF0A3ED80577B807A037961
:10372300C1902636A5128007B29004A1A512800786
:10373300BC902639A5128007B29003B0E0FAA3E04B
:10374300FB9005E8E0FEA3E0FFAD03AC02A5128009
:10375300051890263CEEF0A3EFF09005E8E0FEA3F9
:10376300E0FFAD03AC02A51280051890263EECF0F5
:10377300A3EDF07B007A0579EAA512800C889023EB
:10378300EEEFF0D2137B007A0579EA902635A51285
:103793008007B29023EEE0A512806BBB9015E9740D
:1037A30001F0E49016A1F0A3F0A3F0A3F09005E8D4
:1037B300E0FEA3E0FF7C007D32A512800518902374
:1037C300F5EFF0A512815F0F9023F4EFF060030291
:1037D3003A26A3E0FFC3132414FEE433901702F048
:1037E300A3CEF0901702E07002A3E07003023A2622
:1037F3007B007A2379F6A512815FD09023F4EFF052
:103803006003023A1A7B007A0379529023FAA512D5
:103813008007B27A03792DA512815F4B9023F4EFD1
:10382300F0BF01BF900352E0640160030238EF90E0
:10383300032DE0FF900363E4F0A3EFF0E4A3F0A310
:10384300F0900363E0FAA3E0FB7C007D32FFAE025D
:10385300A5128005059016A1EEF0A3EFF07D647F1D
:10386300007E00A512800505A3EEF0A3EFF09016ED
:10387300A1E0FEA3E0FFC39005E9E09FFF9005E808
:10388300E09EFE9016A3E0FCA3E0FDC3EF9DFFEED8
:103893009C9005E8F0A3EFF0900F92EA8BF0A5124D
:1038A3008005AC900FB8A51280073A9016A1E0FEF0
:1038B300A3E0FFE4FCFDA5128005DA900FB8A51282
:1038C30080078E900F8EA51280073A9016A1E0FE16
:1038D300A3E0FFE4FCFDA5128005DA900F8EA5128C
:1038E30080078E900F94E4F5F00239CB900352E0F9
:1038F300D3940150030237E690032DE0FF90036356
:10390300E4F0A3EFF090032EE0FF900365E4F0A34F
:10391300EFF0900363E0FAA3E0FB7C007D32FFAE9F
:1039230002A5128005059016A1EEF0A3EFF0900317
:1039330065E0FEA3E0FF7D64A5128005059016A354
:10394300EEF0A3EFF09016A1E0FEA3E0FFC3900515
:10395300E9E09FFF9005E8E09EFE9016A3E0FCA33C
:10396300E0FDC3EF9DFFEE9C9005E8F0A3EFF09020
:103973000F92EA8BF0A5128005AC900FB8A51280C8
:10398300073A9016A1E0FEA3E0FFE4FCFDA5128038
:1039930005DA900FB8A51280078E900F8EA51280BE
:1039A300073A9016A1E0FEA3E0FFE4FCFDA5128018
:1039B30005DA900F8EA51280078E900365E0FEA3B3
:1039C300E0FF900F94EE8FF0A5128005AC900FC22C
:1039D300A51280073A9016A3E0FEA3E0FFE4FCFDE6
:1039E300A5128005DA900FC2A51280078E900F8E64
:1039F300A51280073A9016A3E0FEA3E0FFE4FCFDC6
:103A0300A5128005DA900F8EA51280078EE4901719
:103A130002F0A3F00237E67FE87E03A5128061A1DE
:103A23000237E69005E8E0FEA3E0FFD39400EE94AE
:103A33000040129023F27401F0900377EEF0A3EFAD
:103A4300F0D2228005E49023F2F09016A1E0FCA3CB
:103A5300E0FDD39400EC9400500E9016A4E0940083
:103A63009016A3E09400401A9016A3E0FAA3E0FB9B
:103A7300E4FFA5128145D8E49016A1F0A3F0A3F0CA
:103A8300A3F09023F2E07003023C4DA51280BCA288
:103A93009013C77401A512807D9A9013C77420F008
:103AA3007E007F147D007B007A0579EAA5128008E9
:103AB300619013C7E0FF25E025E024F8F582E434A4
:103AC30003F583E493FD7C00C004C005EF25E025E6
:103AD300E024F5F582E43403F583A5128007BC786E
:103AE300EA7C057D00D007D006A5128004D9901387
:103AF300C7E025E025E024F8F582E43403F583E408
:103B0300939023EEF09003B0E0FEA3E0FFEE60039A
:103B1300023C23EF24F6604024A67003023BB72443
:103B2300636003023C239023EEE024EAF9E43405C6
:103B3300FA7B00C003C002C0017B807A03798990BD
:103B43002636A5128007B2900377E0FFA3E0902604
:103B530039CFF0A3EF023C119023EEE024EAF9E41D
:103B63003405FA7B00C003C002C0017B807A03796D
:103B73008C902636A5128007B29003B0E0FAA3E03A
:103B8300FB900377E0FEA3E0FFAD03AC02A5128038
:103B93000518902639EEF0A3EFF0900377E0FEA32B
:103BA300E0FFAD03AC02A51280051890263BECF0B4
:103BB300A3ED805A9023EEE024EAF9E43405FA7B7E
:103BC30000C003C002C0017B807A0379929026363D
:103BD300A5128007B29003B0E0FAA3E0FB9003774D
:103BE300E0FEA3E0FFAD03AC02A51280051890260A
:103BF30039EEF0A3EFF0900377E0FEA3E0FFAD030F
:103C0300AC02A51280051890263BECF0A3EDF0D092
:103C130001D002D003A512800C889023EEE02FF090
:103C2300D2137B007A0579EA902635A5128007B274
:103C33009023EEE0902638F07D01E4FFA512807D0D
:103C4300D07FD07E07A5128061A1A512815E099065
:103C530003B2E064016039900358E07023C390031A
:103C63005AE09401900359E094004014900373E0E8
:103C7300FEA3E0FF900362E09F900361E09E500982
:103C83009005FFE04408F080079005FFE054F7F04B
:103C93007F00A522E49023E1F0A5128094E0900533
:103CA300FFE04440F09013C7740DA512807D9A7F06
:103CB30001A522E49023E1F0A3F0A3F0902E04F0F9
:103CC300900001F0A5128087F99002067402F0308B
:103CD3002007A512808761C220901CA47401F0E420
:103CE3009015EDF0FBFAFD7F05A51280B601A51234
:103CF300813EB4A5128040EBA51280903340EF9033
:103D030015ED7401F0E4FBFAFD7F06A51280B60100
:103D1300E49005DFF09005DDF0A3F0901CA4F0D251
:103D23001390043DA5128007BC902635A512800789
:103D3300B2900440A512807DC7D2137B807A0379A9
:103D4300E7902635A5128007B29026387401F0FD5E
:103D5300E4FFA512807DD0A5128083BE9002067475
:103D630001F0E49005FEF0A3F0D21D202007A51278
:103D730080900BD220D21FA5128097F89013B6E043
:103D83007003201D0D9013B7E060079005FFE0441A
:103D930002F07D53E4FFA51280C990BF020790058E
:103DA300FFE04440F0E4901708F0900367F09001BF
:103DB30083F0A3F0A512813D8D9023E2EEF0A3EFF3
:103DC300F07F00A522E49023E1F0A3F0201F03027B
:103DD30040C9A5128087F99013C77410A512807D7E
:103DE3009AE47FC8A512806BCB9005FEE0FEA3E0AA
:103DF300FF30E0099023E274F1F0023EAEEF30E1D0
:103E0300099023E274F2F0023EAEEF30E209902310
:103E1300E274F3F0023EAEEF30E3099023E274F470
:103E2300F0023EAEEF30E4089023E274F5F0807BBD
:103E3300EF30E5089023E274F6F0806FEF30E60888
:103E43009023E274F7F08063EF30E7089023E27485
:103E5300F8F08057EE30E0089023E274F9F0804BDD
:103E6300EE30E1089023E274FAF0803FEE30E2088E
:103E73009023E274FBF08033EE30E3089023E27486
:103E8300FCF08027EE30E4089023E274FDF0801B01
:103E9300EE30E5089023E274FEF0800FEE9023E20B
:103EA30030E60574E1F0800374FFF0202203024042
:103EB3006A900377E07002A3E0700302406A7B809C
:103EC3007A0379E9902636A5128007B29023E2E0BF
:103ED300902639F07B007A0579EAA512800C889048
:103EE30023E1EFF09013C77420F0E0FE25E025E016
:103EF30024F8F582E43403F583E493FD7C00C004E5
:103F0300C005EE25E025E024F5F582E43403F583CE
:103F1300A5128007BCC00174EA2FF9E43405A80197
:103F2300FC7D00D001D007D006A5128004D99013E0
:103F3300C7E025E025E024F8F582E43403F583E4C3
:103F430093FF9023E1E02FF09003B0E0FEA3E0FFA6
:103F5300EE6003024066EF24F6604024A67003027D
:103F63003FFA246360030240669023E1E024EAF908
:103F7300E43405FA7B00C003C002C0017B807A03EE
:103F83007989902636A5128007B2900377E0FFA3C4
:103F9300E0902639CFF0A3EF0240549023E1E024D0
:103FA300EAF9E43405FA7B00C003C002C0017B8058
:103FB3007A03798C902636A5128007B29003B0E07D
:103FC300FAA3E0FB900377E0FEA3E0FFAD03AC02AE
:103FD300A512800518902639EEF0A3EFF090037731
:103FE300E0FEA3E0FFAD03AC02A512800518902606
:103FF3003BECF0A3ED805A9023E1E024EAF9E434AA
:1040030005FA7B00C003C002C0017B807A0379926A
:10401300902636A5128007B29003B0E0FAA3E0FB26
:10402300900377E0FEA3E0FFAD03AC02A512800589
:1040330018902639EEF0A3EFF0900377E0FEA3E0AB
:10404300FFAD03AC02A51280051890263BECF0A34C
:10405300EDF0D001D002D003A512800C889023E1AB
:10406300E02FF0C22280267B807A0379E9902636FE
:10407300A5128007B29023E2E0902639F07B007A04
:104083000579EAA512800C889023E1EFF0D2137B27
:10409300007A0579EA902635A5128007B29023E1CC
:1040A300E0902638F07D01E4FFA512807DD0E47F07
:1040B300C8A512806BCB900000E004F0E0C394022B
:1040C3004004C21FE4F090038EE0B4011790000196
:1040D300E0700CA5128077D5EF700404F08005A57D
:1040E3001280A8BE7F01A522E49023E6F0D20FA39D
:1040F300F0A3F00247E49023E7E060030247F4F003
:10410300D20FA5128083BED2139018AAA5128007DE
:10411300BC902635A5128007B29018ADA512807DFC
:10412300C7D2139018AEA5128007BC902635A512EE
:104133008007B29018B1E493902638F07D01E4FF34
:10414300A512807DD0A5128080EB9023E47401F04A
:10415300A304F0200F030244E6A5128097459023A1
:10416300E8EFF024F370030242F224F270030242F8
:10417300ED24CB7003024241240860030244D5902E
:1041830023E5E06402702DD2119026357402F0D23B
:1041930012E4FDFFA5128080F99023E57401F090ED
:1041A30023E4E07006740DF00244D59023E4E01498
:1041B300F00244D5D2139023E4E0FF25E025E02468
:1041C300AAF582E43418F583A5128007BC9026353E
:1041D300A5128007B2EF25E025E024ADF582E43493
:1041E30018F583E493902638F07D01E4FFA512804F
:1041F3007DD09023E4E07005740DF080069023E4F5
:10420300E014F0D2139023E4E0FF25E025E024AA94
:10421300F582E43418F583A5128007BC902635A5F2
:10422300128007B2EF25E025E024ADF582E43418CF
:10423300A512807DC59023E57401F00244D5902337
:10424300E5E06401701AA5128080EB9023E4E0B4EA
:104253000D05E4F00242E49023E4E004F00242E4BA
:10426300D2139023E4E0FF25E025E024AAF582E4BD
:104273003418F583A5128007BC902635A512800754
:10428300B2EF25E025E024ADF582E43418A51280D1
:104293007DC59023E4E0B40D04E4F080069023E4AC
:1042A300E004F0D2139023E4E0FF25E025E024AA04
:1042B300F582E43418F583A5128007BC902635A552
:1042C300128007B2EF25E025E024ADF582E434182F
:1042D300F583E493902638F07D01E4FFA512807DF9
:1042E300D09023E57402F00244D5C20F0244D5C234
:1042F30011E4902635F0D212FDFFA5128080F9A5B6
:10430300128083BE9023E4E0A5128007C9433800DE
:10431300433F01434602434A034351044358054381
:104323006108436809436F0A43760B437D0C43845A
:104333000D00004389A51280EBDE804AA512807E22
:10434300CD80437F018010A51280B6BD8038A512B1
:104353008156DB80317F02A5128159138028A51273
:1043630080815D8021A51280EFB0801AA51280F0B4
:10437300FE8013A512805789800CA51280B7E180B7
:1043830005A51280ECCD9023E5E0640260030244AE
:10439300209023E4E07017D2139018DEA512800753
:1043A300BC902635A5128007B29018E1802FD21356
:1043B3009023E4E0FF25E025E024A6F582E4341809
:1043C300F583A5128007BC902635A5128007B2EFAE
:1043D30025E025E024A9F582E43418F583A51280AD
:1043E3007DC7D2139023E4E0FF25E025E024AAF55E
:1043F30082E43418F583A5128007BC902635A512F4
:104403008007B2EF25E025E024ADF582E43418F50A
:1044130083E493902638F07D01E40244B39023E4CF
:10442300E0B40D17D2139018AAA5128007BC9026EA
:1044330035A5128007B29018AD802FD2139023E4D4
:10444300E0FF25E025E024AEF582E43418F583A5EA
:10445300128007BC902635A5128007B2EF25E02510
:10446300E024B1F582E43418F583E493902638F020
:104473007D01E4FFA512807DD0D2139023E4E0FFF9
:1044830025E025E024AAF582E43418F583A51280FB
:1044930007BC902635A5128007B2EF25E025E0245E
:1044A300ADF582E43418F583E493902638F0E4FD07
:1044B300FFA512807DD09023E5E014FDD211902654
:1044C300357402F0D212E4FFA5128080F9A51280A0
:1044D30083BEA512806D0C7F0A7E00A51280622721
:1044E300024156E47F2C7E01FDFC9026697417F08F
:1044F300A3740DF0A512806BD4A5128137E3D211FA
:10450300E4902635F0D212FDFFA5128080F9D21176
:10451300E4902635F0D212FD7F01A5128080F99038
:104523002E0DE0700330254ED2137B807A187978F4
:10453300902635A5128007B2902638740AA51280FA
:104543007DCCD2137B807A187983902635A512808F
:1045530007B29026387401F0FDE4FFA512807DD0E8
:10456300E47FC47E09FDFC9026697417F0A3740DE3
:10457300F0A512806BD4902E0DE07003024655A572
:104583001280E3C0E47F64A512806BCBA51280BCCC
:1045930077E47F64A512806BCB7E017F807D007BF7
:1045A300007A2379E9A5128008617F807E027D0865
:1045B3007C007537237538E9753901753A80A51282
:1045C30080E294E49023E6F09023E6E0FF75F006A2
:1045D3009023EDA51280079BE0FE75F006EF900097
:1045E30007A51280079BE06E70579023E6E075F0F5
:1045F300069023EAA51280079BE0FE75F006EF9074
:104603000004A51280079BE0B506369023E6E0750B
:10461300F0069023EBA51280079BE0FCA3E0FD7559
:10462300F006EF900005A51280079BE0FEA3E0B51E
:10463300050FEEB5040B9023E6E004F0E064407050
:10464300879023E6E064406004A37401F0E4902EB5
:104653000DF0202503024748A51280BCA2E47F6425
:10466300A512806BCB7E007F577D007B007A257976
:1046730069A5128008617F807E017D087C00753703
:1046830025753869753900753A57A51280E29490FB
:104693002569E0FF900368E06F60030247409025BF
:1046A3006AE0FEA3E0FF900369E06E7003A3E06F8E
:1046B300600302474090256CE0FEA3E0FF90036B8C
:1046C300E06E7003A3E06F707490256EE0FEA3E0CC
:1046D300FF90036DE06E7003A3E06F706090257030
:1046E300E0FF90036FE06F7054902571E0FF90033B
:1046F30070E06F7048902572E0FEA3E0FF900371B5
:10470300E0B50639A3E0B50734902574E0FEA3E0D5
:10471300FF900373E0B50625A3E0B5072090257845
:10472300E0FEA3E0FF900377E0B50611A3E0B50731
:104733000C9025BFE0FF9003BEE06F60069023E777
:104743007401F0C2259023E7E070030247EBA51242
:104753008083BED2137B807A187985902635A51283
:104763008007B29026387413A512807DCCD2137BB8
:10477300807A187999902635A5128007B290263849
:104783007410F07D01E4FFA512807DD0902E097492
:104793000FF0E49023E6F0902E09E0603BA5128031
:1047A3006D11A5128097459023E8EFF0F460E8902F
:1047B30023E8E024E56010240E70DCE49023E7F0A6
:1047C3009023E604F0800A9023E77401F09023E637
:1047D300F09023E6E0B401BF902E09E060030240AD
:1047E300F99023E7F00240F99023E77401F00240C7
:1047F300F9A5028083BE9025DBEDF09025DAEFF07A
:10480300E49025DCF0EF14602B14603A1460531429
:10481300606C24F770030248A3240D60030248C5AB
:104823009013B6E0FF30E702807EEF20E0030248FA
:10483300C00248B89013B7E0FF30E702806AEF3058
:10484300E002807180779013B8E0FF30E702805870
:10485300EF5406600280369013B8E030E0028055D2
:10486300805B9013B9E0FF30E702803CEF540660B1
:1048730002801A9013B9E030E0028039803F901330
:10488300BAE0FF30E7028020EF540660089025DC91
:104893007403F0802D9013BAE030E0028017801D7E
:1048A3009013C3E0FF30E7089025DC7402F0801218
:1048B300EF540360089025DC7401F08005E4902533
:1048C300DCF03011030249AB9025DAE0FF25E02547
:1048D300E024BFF582E4340BF583E493FD7C00C050
:1048E30004C005EF25E025E024BCF582E4340BF594
:1048F30083A5128007BC78DD7C257D00D007D00618
:10490300A5128004D99025DCE0FF25E025E024FFF3
:10491300F582E4340BF583E493FD7C00C004C00509
:10492300EF25E025E024FCF582E4340BF583A512A2
:104933008007BCC0019025DAE025E025E024BFF51F
:1049430082E4340BF583E49324DDF9E43425A801F0
:10495300FC7D00D001D007D006A5128004D9902594
:10496300DBE0FDD2137B007A2579DD902635A51295
:104973008007B29025DCE025E025E024FFF582E402
:10498300340BF583E493FF9025DAE025E025E0245A
:10499300BFF582E4340BF583E4932F902638F0E4DB
:1049A300FFA512807DD080059025DCE0FFA5229035
:1049B30025C0E0FF7D019025D9EDF09025D8EFF0DB
:1049C300601BE0FF64016015EF64026010EF640395
:1049D300600BEF64046006EF6003B40D119025D8FB
:1049E300E0FFA3E0FDC211A5128047F980419025A5
:1049F300D9E0FDD2139025D8E0FF25E025E024BCC3
:104A0300F582E4340BF583A5128007BC902635A507
:104A1300128007B2EF25E025E024BFF582E4340BD2
:104A2300F583E493902638F0E4FFA512807DD0A5AA
:104A3300229025C9E0FDD2117F019025CDEFF0A38F
:104A4300EDF0E49025E6F0A3F09025E5F0FE7F1667
:104A5300FD7B007A2579CFA5128008619025CEE0F1
:104A630064037003024B01E0FF25E025E024FEF51B
:104A730082E4341BF583E493FD7C00C004C005EF9E
:104A830025E025E024FBF582E4341BF583A51280A1
:104A930007BC78CF7C257D00D007D006A512800403
:104AA300D9301105A51280E3D99025CEE0FF25E08A
:104AB30025E024FEF582E4341BF583E493FE902580
:104AC300E5E0FCEE2C24CFF582E43425F583E4F015
:104AD3009025CDE0FDD2137B007A2579CF90263542
:104AE300A5128007B2EF25E025E024FEF582E43429
:104AF3001BF583E4932C902638F0E4024BD220116B
:104B03003AD2139025CEE0FF25E025E024FBF58281
:104B1300E4341BF583A5128007BC902635A51280CB
:104B230007B2EF25E025E024FEF582E4341BF5838C
:104B3300E493902638F0E4FD024BD29025CEE0FFBB
:104B430025E025E024FEF582E4341BF583E493FDA0
:104B53007C00C004C005EF25E025E024FBF582E4DA
:104B6300341BF583A5128007BC78CF7C257D00D04C
:104B730007D006A5128004D9A51280E3D99025CECB
:104B8300E0FF25E025E024FEF582E4341BF583E411
:104B930093FE9025E5E0FCEE2C24CFF582E434254A
:104BA300F583E4F09025CDE0FDD2137B007A2579DF
:104BB300CF902635A5128007B2EF25E025E024FE2D
:104BC300F582E4341BF583E4932C902638F0E4FF5C
:104BD300A512807DD0A5229025C4EFF0A3EDF0E4CB
:104BE3009025D0F0A37405F07E007F0A7D007B0042
:104BF3007A2579C6A5128008619025C4E0FF640276
:104C03007057EF25E025E024FBF582E4341BF583A0
:104C1300A5128007BCC003C002C001EF25E025E058
:104C230024FEF582E4341BF583E493FD9025C5E06F
:104C33009025EAF07B007A2579C6A3A5128007B2F6
:104C43007A2579D19025EEA5128007B2D001D00242
:104C5300D003A51280CCEC80599025C4E0FF25E059
:104C630025E024FBF582E4341BF583A5128007BC01
:104C7300C003C002C001EF25E025E024FEF582E475
:104C8300341BF583E493FD9025C5E0902603F07B68
:104C9300007A2579C6A3A5128007B27A2579D19027
:104CA3002607A5128007B2D001D002D003A5128037
:104CB300D7A49025D0EFF0A5128083BE9025D0E035
:104CC30064017031C211902635F0D212FDFFA51296
:104CD3008080F99025C4E0FF7A257BC69025ED748A
:104CE30025F0A374D1F0D212E4FDFCA51280E406F2
:104CF300A5128083BEC3A5229025CAE0FDD211E48C
:104D0300FF9025CFEFF0A3EDF0E4A3F0FE7F2CFDA1
:104D13007B007A2D79A9A512800861201137D2135F
:104D23009025D0E0FF25E025E024C3F582E434118B
:104D3300F583A5128007BC902635A5128007B2EF34
:104D430025E025E024C6F582E43411A512807DC553
:104D53007F00024E589025D0E0FF25E025E024C6D1
:104D6300F582E43411F583E493FD7C00C004C005AF
:104D7300EF25E025E024C3F582E43411F583A51281
:104D83008007BC78A97C2D7D00D007D006A51280B2
:104D930004D99025D0E0FF25E025E024C6F582E480
:104DA3003411F583E49324A9F582E4342DAD82FC18
:104DB3009025EB7425F0A374D1F0C212E4FBFAA59D
:104DC300128100009025CFE0FDD2137B007A2D796C
:104DD300A9902635A5128007B29025D0E025E025BD
:104DE300E024C6F582E43411F583E493FF9025D1E2
:104DF300E0FEEF2E902638F0E4FFA512807DD090E0
:104E030025D0E0FF25E025E024C6F582E43411F542
:104E130083E493FE9025D1E0FDEE2D24A9F582E4F1
:104E2300342DF583E4F0EF25E025E024C6F582E494
:104E33003411F583E493FF2DFDE433FCD3ED941497
:104E4300EC64809480400C9025D1E0FEEF2E24EC9E
:104E5300FF80027F00A5229025C4EFF0A3EDF0E4CC
:104E63009025E4F0A3F0C2109025C4E0FF25E024D0
:104E73005BF582E43412F5837401939025E5F0EF3A
:104E8300601864016014EF6402600FEF6407600A46
:104E9300EF64086005EF6409705B9025C4E0FF25AB
:104EA300E025E024C3F582E43411F583A5128007DD
:104EB300BCC003C002C001EF25E025E024C6F58293
:104EC300E43411F583E493FD9025C5E09025EAF0E1
:104ED3007B007A2579C6A3A5128007B27A2579E5E6
:104EE3009025EEA5128007B2D001D002D003A512FF
:104EF30080CCEC80599025C4E0FF25E025E024C355
:104F0300F582E43411F583A5128007BCC003C00207
:104F1300C001EF25E025E024C6F582E43411F583D2
:104F2300E493FD9025C5E0902603F07B007A257974
:104F3300C6A3A5128007B27A2579E5902607A512A4
:104F43008007B2D001D002D003A51280D7A4902548
:104F5300E4EFF0A5128083BE9025E4E06401703194
:104F6300C211902635F0D212FDFFA5128080F99070
:104F730025C4E0FF7A257BC69025EB7425F0A37446
:104F8300E5F0D212E4FDFCA512810000A512808396
:104F9300BEA210A5229025C1E0FD7F019025C4EF9C
:104FA300F0A3EDF0E4A3F0FE7F1AFD7B007A2579F0
:104FB300C7A5128008619025C5E0A5128007C94FD7
:104FC300E40050560150FE02517003521804528AF5
:104FD3000553320653A407544C0854E809000055FE
:104FE300B87B807A1A797B902636A5128007B29017
:104FF3000FA2E0FFA3E0902639CFF0A3EFF09025B6
:10500300C5E025E025E024A2F582E4341AF583A562
:10501300128007BC90263BA5128007B29003B0E034
:10502300FEA3E0FFFBAA06E4F9F8900F9EA5128009
:10503300071CA51280067590263EA51280078E9048
:1050430003B0E0FEA3E0FFFBAA06E4F9F8900F9E8D
:105053000254BB9025C5E0FF25E025E024A5F58299
:10506300E4341AF583E493FD7C00C004C005EF2506
:10507300E025E024A2F582E4341AF583A512800723
:10508300BC78C77C257D00D007D006A5128004D943
:105093009025C5E025E025E024A5F582E4341AF542
:1050A30083E4939025C6F024C7F9E43425FA7B0002
:1050B300C003C002C0017B807A1A798C902636A582
:1050C300128007B29003B0E0FEA3E0FFFBAA06E460
:1050D300F9F8900F9AA51280071CA5128006759007
:1050E3002639A51280078E9003B0E0FEA3E0FFFBF4
:1050F300AA06E4F9F8900F9A02558D7B807A1A7903
:105103007B902636A5128007B2900FB6E0FFA3E08E
:10511300902639CFF0A3EFF09025C5E025E025E0F8
:1051230024A2F582E4341AF583A5128007BC9026E5
:105133003BA5128007B29003B0E0FEA3E0FFFBAAF9
:1051430006E4F9F8900FB2A51280071CA512800699
:105153007590263EA51280078E9003B0E0FEA3E073
:10516300FFFBAA06E4F9F8900FB20254BB9025C5E1
:10517300E0FF25E025E024A5F582E4341AF583E475
:1051830093FD7C00C004C005EF25E025E024A2F5D3
:1051930082E4341AF583A5128007BC78C77C257D89
:1051A30000D007D006A5128004D99025C5E025E0DC
:1051B30025E024A5F582E4341AF583E4939025C60B
:1051C300F024C7F9E43425FA7B00C003C002C00110
:1051D3007B807A1A798C902636A5128007B29003C9
:1051E300B0E0FEA3E0FFFBAA06E4F9F8900FAEA53A
:1051F3001280071CA512800675902639A512800718
:105203008E9003B0E0FEA3E0FFFBAA06E4F9F8905A
:105213000FAE02558D7B807A1A797B902636A512C4
:105223008007B2900FACE0FFA3E0902639CFF0A344
:10523300EFF09025C5E025E025E024A2F582E434D3
:105243001AF583A5128007BC90263BA5128007B2EE
:105253009003B0E0FEA3E0FFFBAA06E4F9F8900F89
:10526300A8A51280071CA51280067590263EA512DC
:1052730080078E9003B0E0FEA3E0FFFBAA06E4F9EB
:10528300F8900FA80254BB9025C5E0FF25E025E068
:1052930024A5F582E4341AF583E493FD7C00C0046D
:1052A300C005EF25E025E024A2F582E4341AF58356
:1052B300A5128007BC78C77C257D00D007D006A542
:1052C300128004D99025C5E025E025E024A5F582C8
:1052D300E4341AF583E4939025C6F024C7F9E43443
:1052E30025FA7B00C003C002C0017B807A1A798C47
:1052F300902636A5128007B29003B0E0FEA3E0FF2C
:10530300FBAA06E4F9F8900FA4A51280071CA512C6
:10531300800675902639A51280078E9003B0E0FEB3
:10532300A3E0FFFBAA06E4F9F8900FA402558D7BD6
:10533300807A1A797B902636A5128007B2900FCA1D
:10534300E0FFA3E0902639CFF0A3EFF09025C5E06E
:1053530025E025E024A2F582E4341AF583A5128022
:1053630007BC90263BA5128007B29003B0E0FEA3D2
:10537300E0FFFBAA06E4F9F8900FC6A51280071C0C
:10538300A51280067590263EA51280078E9003B065
:10539300E0FEA3E0FFFBAA06E4F9F8900FC602546F
:1053A300BB9025C5E0FF25E025E024A5F582E43484
:1053B3001AF583E493FD7C00C004C005EF25E025C6
:1053C300E024A2F582E4341AF583A5128007BC78A1
:1053D300C77C257D00D007D006A5128004D990256F
:1053E300C5E025E025E024A5F582E4341AF583E43D
:1053F300939025C6F024C7F9E43425FA7B00C00353
:10540300C002C0017B807A1A798C902636A512805F
:1054130007B29003B0E0FEA3E0FFFBAA06E4F9F8AD
:10542300900FC2A51280071CA5128006759026391D
:10543300A51280078E9003B0E0FEA3E0FFFBAA064F
:10544300E4F9F8900FC202558D7B807A1A797B902C
:105453002636A5128007B2900FC0E0FFA3E0902686
:1054630039CFF0A3EFF09025C5E025E025E024A295
:10547300F582E4341AF583A5128007BC90263BA578
:10548300128007B29003B0E0FEA3E0FFFBAA06E49C
:10549300F9F8900FBCA51280071CA5128006759021
:1054A300263EA51280078E9003B0E0FEA3E0FFFB2B
:1054B300AA06E4F9F8900FBCA51280071CA5128078
:1054C3000675AC00AD01AE02AF03902642A5128073
:1054D300078E7B007A2579C7A512800C889025C694
:1054E300EFF00255B89025C5E0FF25E025E024A59F
:1054F300F582E4341AF583E493FD7C00C004C0050F
:10550300EF25E025E024A2F582E4341AF583A51201
:105513008007BC78C77C257D00D007D006A5128004
:1055230004D99025C5E025E025E024A5F582E434DF
:105533001AF583E4939025C6F024C7F9E43425FAD9
:105543007B00C003C002C0017B807A1A798C90264D
:1055530036A5128007B29003B0E0FEA3E0FFFBAADA
:1055630006E4F9F8900FB8A51280071CA51280066F
:1055730075902639A51280078E9003B0E0FEA3E054
:10558300FFFBAA06E4F9F8900FB8A51280071CA543
:1055930012800675AC00AD01AE02AF0390263DA5A7
:1055A3001280078ED001D002D003A512800C889000
:1055B30025C6E02FF09025C4E0FDD2137B007A25A9
:1055C30079C7902635A5128007B29025C6E09026AC
:1055D30038F0E4FFA502807DD09025E8E0FDD211EC
:1055E3007F019025ECEFF0A3EDF0201102C211E44E
:1055F300902604F0FE7F16FD7B007A2579EEA51236
:105603008008619025EDE0FF25E025E024BEF582CA
:10561300E43419F583E493FD7C00C004C005EF2551
:10562300E025E024BBF582E43419F583A512800755
:10563300BC78EE7C257D00D007D006A5128004D966
:105643009025EDE0FF25E025E024BEF582E4341942
:10565300F583E49324EEF582E43425AD82FC9026B1
:105663000A7426F0A37404F0C212E4FBFAA51280B4
:10567300F22F9025ECE0FDD2137B007A2579EE9092
:105683002635A5128007B29025EDE025E025E0241C
:10569300BEF582E43419F583E493FF902604E0FE1B
:1056A300EF2E902638F0E4FFA502807DD09025E30D
:1056B300EFF0A3EDF0E49025EFF09025E3E025E093
:1056C30024EFF582E43419F5837401939025F0F007
:1056D3007E007F0A7D007B007A2579E5A51280088C
:1056E300619025E3E0FF25E025E024BBF582E43467
:1056F30019F583A5128007BCC003C002C001EF25C2
:10570300E025E024BEF582E43419F583E493FD90AB
:1057130025E4E0902603F07B007A2579E5A3A51222
:105723008007B27A2579F0902607A5128007B2D0B8
:1057330001D002D003A51280D7A49025EFEFF0A5E6
:10574300128083BE9025EFE064017037C21190266A
:1057530035F0D212FDFFA5128080F99025E3E0FF1A
:105763007A257BE590260A7425F0A374F0F0D21213
:10577300E4FDFCA51280F22F902E127401F0A51205
:105783008083BEC3A522E49025C2F0A3F09025CC6C
:10579300F09025E2F0A5128083BEE4902E13F090E2
:1057A3002E12F0FE7F0CFD7B007A2579CDA51280A9
:1057B30008619025CD7408F0E4A3F0A37408F0A366
:1057C3007403F0A37407F0A37401F0A37408F0A3A7
:1057D3007405F0A3F0A37407F0E49025C3F09025BB
:1057E300C3E0FFC39408501A74CF2FF582E4342525
:1057F300F583E0FF9025CEE02FF09025C3E004F081
:1058030080DCD2137B807A197986902635A51280A5
:1058130007B29026387403A512807DCCD2137B8007
:105823007A19798A902635A5128007B290263874A2
:1058330001F0FDE4FFA512807DD0E47F64A5128012
:105843006BCB7E007F097D007B007A2579D9A51279
:105853008008619025C27408F09019EAE493FDE48E
:105863009025E7F07B007A2579D9A3A5128007B2AA
:105873007A2579C29025EBA5128007B2D210901930
:10588300E7A5128007BCA51280DD549025E2EFF056
:10589300A5128083BE9025E2E07013C211902635D5
:1058A300F0D212FDFFA5128080F9C3025D2EE490B1
:1058B30025E2F09025CDE0FF9025C2E0B5071A7EE2
:1058C3000078CF7C257D007B007A2579D9A51280CD
:1058D30008289025E2EFF080069025E27401F0900D
:1058E30025E2E06056C211E4902635F0D212FDFFA6
:1058F300A5128080F9D2139019EBA5128007BC90F2
:105903002635A5128007B29019EEA512807DC7D265
:10591300137B807A19798C902635A5128007B29073
:1059230026387404F07D01E4FFA512807DD0E47F66
:10593300D07E07A512806BCC02583DA5128083BE92
:10594300E4902E13F0A5128075DB9025CC7401F042
:105953007E007F087D007B007A2579C4A51280082C
:1059630061E4902603F07B007A2579C4A3A5128015
:1059730007B27A2579CC902607A5128007B27B80DF
:105983007A197991A51280D7A29025C2EFF0E47F0E
:10599300F47E01A512806BCCA5128083BE9025C234
:1059A300E064016003025A51C211902635F0D2120D
:1059B300FDFFA5128080F9E49025C3F09025CCE08B
:1059C300FF9025C3E0FEC39F502674C42EF582E4E6
:1059D3003425F583E0FFC39400400DEFD3940950C1
:1059E30007902E13EFF080089025C3E004F080CCDD
:1059F300A5128083BE902E13E0FFD394004009EFDD
:105A0300D394085003025C3FD2137B807A19799FA9
:105A1300902635A5128007B2902638740CA5128003
:105A23007DCCD2137B807A1979AC902635A5128070
:105A330007B2902638740EF07D01E4FFA512807D35
:105A4300D0E47FD07E07A512806BCC025948902EFC
:105A530012E07004C3025D2EE49025C1F0902E1372
:105A6300F07E01FFFD7B007A2979E4A512800861AD
:105A7300E49025C3F09025C3E0FFC39408400302DC
:105A83005BB0EF75F003A424CAF582E43402F58316
:105A9300E064016003025B719025C3E075F003A429
:105AA30024CBF582E43402F583E09025C2F09025FF
:105AB300C07401F0E49025CCF09025CCE0FFC394B2
:105AC300084003025B699025C3E0FEC454F02486BA
