:020000040000FA
:10000000021E7B080001009600A522A5028126049D
:10001000E4FFFEA54860090FEF70010EA56980F3AB
:02002000A52217
:10002300A5028067BFEFB40A09740DA512800035DD
:10003300740A309811A899B8130CC2983098FDA887
:0F00430099C298B811F63099FDC299F599A52286
:10005300A502813E01202020202020BBB6D3ADB9CC
:10006300E2C1D900202020202020C1E3C7AEB2BBCB
:10007300D7E30020202020D1A1D4F1C9CCC6B7B347
:10008300ACCAB120202020002020C7EBB2E5C8EB8A
:10009300B8FCD0A1C3E6B6EED6BDB1D2002020C7CE
:1000A300EBD1A1BBF5BBF2BCCCD0F8CDB6B1D2211C
:1000B30000C8B7B6A8454E54455220C8A1CFFB434C
:1000C300414E43454C0020202020C7EBC8A1C1E38B
:1000D300C7AE00C8A1CFFB43414E43454C0020208F
:1000E3002020CAE4C8EBB4EDCEF300C8B7B6A845E8
:1000F3004E544552002020C7EBCDB6C8EBD6BDB158
:10010300D2BBF2D3B2B1D200BFCDBBA7D3E0B6EE20
:100113003A00D1A1D4F1C6E4CBFCC9CCC6B7C2F036
:100123003F200020202020BBFAC6F7B9CAD5CF0054
:100133002020C9CCC6B7D2D1CADBCDEA002020200B
:10014300202020D0BBD0BB2100202020202020D481
:10015300DDCDA3B7FECEF10020202020D5D2C1E310
:10016300C6F7B9CAD5CF002020C7EBC9D4BAF32E3E
:100173002E2E00BDF0B6EEB2BBD7E32C20BCD3C706
:10018300AEC2F03F20002020D5FDD4DAB3F6BBF594
:100193002E2E2E002020D5FDD4DAD5D2C1E32E2E6B
:1001A3002E0020202020D5D2C1E3CAA7B0DC002036
:1001B300202020486F772061726520796F752100B8
:1001C300C7EBCAE4C8EBC6E4CBFCC9CCC6B7B1E005
:1001D300BAC5002020C7EBD1A1D4F1C6E4CBFCC93A
:1001E300CCC6B7002020C7EBC8A1BBF52E2E2E002E
:1001F3002020C7EBC8A1D7DFCDCBB1D22E2E2E0046
:100203002020C9CCC6B7BBF5B5C0B9CAD5CF00202D
:1002130020D1A1D4F1C6E4CBFCC9CCC6B7C2F03F10
:1002230000202020202020B2D9D7F7B3ACCAB100D8
:1002330020202020D5FDD4DACDCBBFEE00C7B7BF39
:10024300EE3A0020202020C7EBCDB6C8EBD3B2B1E5
:10025300D20020202020C7EBB2E5C8EBD6BDB1D237
:100263000028323031342D30392D323229004A758D
:100273006E70656E672D7A6F6E6768652D312E30EF
:10028300002020BBB9D2AAB9BAC2F2C9CCC6B7C240
:10029300F03F00202020202020CEDEC1E3B1D20099
:1002A3002020C9CCC6B7BCDBB8F13A002020CBF97B
:1002B300D1A1C9CCC6B7D4DDCAB100C8B1BBF50062
:1002C3002020B9CAD5CF002020CDCBB1D2BDF0B606
:1002D300EE3A002020B5B1C7B0BDF0B6EE3A00202B
:1002E30020C7EBCBA2BFA82E2E2E002020CDB6B167
:1002F300D22D3ED1A1BBF52D3EC8A1BBF5202000D8
:100303002020CCF9BFA82D3ED1A1BBF52D3EC8A11D
:10031300BBF52020002020BFA8D3E0B6EEB2BBD7A8
:10032300E32E2E2E002020B6C1BFA8CAA7B0DC2E14
:100333002E2E002020BFA8D3E0B6EE3A002020BD29
:10034300F0B6EEB2BBD7E32E2E2E002020202020C5
:1003530020CFD6BDF0CFFBB7D10020202020202016
:10036300CBA2BFA8CFFBB7D1002020C7EBD1A1BB45
:10037300F521002020B1BEBBFAD4DDCDA3CFD6BD7D
:10038300F0BDBBD2D700BBF5B5C03A20002020B8E2
:10039300C3BBF5B5C0D4DDCDA3B7FECEF10020209D
:1003A300B7C7CFD6BDF0CADBC2F400C1E3B1D2B246
:1003B300BBD7E3A3ACCEDEB7A8B9BAC2F200CAE496
:1003C300C8EBC9CCC6B7B1E0BAC53A2000564D4414
:1003D300455600564D5245430025750025752E257B
:1003E300750025752E253032750049734E65656499
:1003F300436C65617200436C6561724F4B002573FA
:1004030020B5B9BCC6CAB15B25755D00257320252F
:10041300750025732025752E2575002573202575F8
:100423002E25303275002000257325750025732590
:10043300752E257500257325752E253032750025FB
:1004430073256C75002573256C752E256C75002539
:1004530073256C752E2530326C75005B2530326246
:100463007825303262785D20202573008000580E95
:100473008000670E8000761480008B148000A01328
:100483008000B4148000C90C8000D60A8000E10CFF
:100493008000EE098000F81280010B09800115101D
:1004A3008001260C8001330C8001400B80014C0E2F
:1004B30080015B0E80016A0C800176128001890D38
:1004C3008001970D8001A50C8001B2108001C31239
:1004D3008001D6108001E70B8001F30F8002030E29
:1004E300800212118002240E8002330C8002400528
:1004F3008002460E8002550E8002640C8002711247
:10050300800284118002960C8002A30B8002AF0E3E
:100513008002BE048002C3088002CA0B8002D60B8D
:100523008002E20B8002EE14800303148003180F91
:100533008003280D800336098003400D80034E0E8F
:1005430080035D0E80036C098003761280038906A5
:10055300800390108003A10C8003AE148003C10EAE
:100563008003D0058003D60500006432190A050014
:100573000305010000000000000A0500000000312F
:100583002ED5FBBBFAB9CAD5CFB2E9BFB400322E20
:10059300B3F6BBF5B2E2CAD400332ED6BDB1D2C690
:1005A300F7D7B4CCAC3A2000342ED3B2B1D2C6F7CD
:1005B300D7B4CCAC3A2000352ECEE5BDC7D3E0B6D8
:1005C300EE3A2000362ED2BBD4AAD3E0B6EE3A20C0
:1005D30000372ED1A1BBF5B0B4C5A5BCECB2E20087
:1005E300382ED3CECFB7B0B4C5A5BCECB2E2003938
:1005F3002ECDCBB1D2B0B4C5A5BCECB2E200313044
:100603002E20B3F6BBF5C8B7C8CFB2E2CAD40031C7
:10061300312E20D5D5C3F7B2E2CAD40031322E2011
:10062300D1B9CBF5BBFAB2E2CAD400D5FDB3A3006E
:10063300B9CAD5CF00CEDE00B2BBD7E300CEB4003B
:10064300D5FD00B9CA00C8B100C8B7B6A8454E5415
:10065300455220C8A1CFFB43414E43454C00C0DB6C
:10066300BCC6B2E2CAD4B4CECAFD3A20257500BBDB
:10067300F5B5C02530326275B9CAD5CFB4CECAFD3F
:100683003A257500D5FDD4DABCECB2E22025303230
:10069300627520BBF5B5C00020202020C7EBC9D46C
:1006A300B5C82E2E2E002020BBF5B5C0B0E53A20EC
:1006B300B9CAD5CF202020002020BBF5B5C02530F6
:1006C3003262753A20B9CAD5CF202020002020BB42
:1006D300F5B5C025303262753A20CEDEBBF5202059
:1006E30020002020BBF5B5C02025303262753A20AA
:1006F30020D5FDB3A3200020202020D3B2B1D2C641
:10070300F7B2E2CAD400C7EBCDB6B1D23A0020208B
:10071300B1D2B6B7D2D1C2FA2C20C7EBB4A6C0ED82
:100723002100D2D1CDB6C8EBBDF0B6EE3A20257587
:1007330000D2D1CDB6C8EBBDF0B6EE3A2025752E6A
:10074300257500D2D1CDB6C8EBBDF0B6EE3A202563
:10075300752E25303275002020D3B2B1D2C6F7CA28
:10076300C7B7F1D5FDB3A33F00257300414344430D
:10077300C4A3CABDCEB4BFAAC6F400D5B9CABEB518
:10078300C600D1B9CBF5BBFA0020202573B2E2CA6B
:10079300D400312DB4F2BFAA2020322DB9D8B1D55F
:1007A300002573D2D1B4F2BFAAA3ACC7EBC8B7C8B4
:1007B300CF002573D2D1B9D8B1D5A3ACC7EBC8B795
:1007C300C8CF00C7EBB2BBD2AACBE6D2E2B9D8B14D
:1007D300D5C9E8B1B8A3A10020202020D6BDB1D24D
:1007E300C6F7B2E2CAD4002020D6BDB1D2C6F7CA3A
:1007F300C7B7F1D5FDB3A33F00D6BDB1D2C6F7CE7F
:10080300B4BFAAC6F400D3B2B1D2C6F7CEB4BFAA5E
:10081300C6F4002020CEE5BDC7CDCBB1D2A3ACD268
:10082300BBB4CEC1BDC3B6002020D2BBD4AACDCBAE
:10083300B1D2A3ACD2BBB4CEC1BDC3B6002020207D
:1008430020B0B4C5A5B2E2CAD42100CAE4C8EBB053
:10085300B4C5A53A00CAE4C8EBB0B4C5A53A20258F
:1008630062750020202020D3CECFB7B0B4C5A5B287
:10087300E2CAD42100D3D0BCFCB0B4CFC22C20D464
:10088300F2C3F9BDD0D2BBC9F900B3F6BBF5C8B703
:10089300C8CFCEB4BFAAC6F400B3F6BBF5C8B7C879
:1008A300CF0020202020BCECB2E2B5BDD3D0D5DAF6
:1008B300B5B20020202020C7EBD5DAB5B2C1BDC345
:1008C300EB0020202020CDCBB1D2B0B4C5A5B2E23D
:1008D300CAD42100202020202020C3BBD3D0B0B411
:1008E300CFC20020202020B0B4CFC2CDCBB1D2B034
:1008F300B4C5A50025750025752E25750025752E13
:100903002530327500BBF5B5C025303262753A200B
:10091300257300CEDEB9CAD5CFBBF5B5C000B9CAC1
:10092300D5CFBBF5B5C02530326275B8F60025309A
:1009330032627520005B253032627825303262786E
:100943005D00B3F6BBF5C8B7C8CFB0E5BFAAC6F420
:1009530000B3F6BBF5C8B7C8CFB0E5B9CAD5CFB9B0
:10096300D8B1D500B3F6BBF5C8B7C8CFB0E5CEB4A0
:10097300BFAAC6F4008005820E8005910A80059CFB
:100983000E8005AB0E8005BA0C8005C70C8005D41C
:100993000E8005E30E8005F210800601108006121A
:1009A3000C80061F0E80062E048006330480063852
:1009B3000280063B0480064002800643028006460E
:1009C30002800649028F828E83EDF5F0FFECFEE88C
:1009D300FDE582600205834583600EA548A55CA5FD
:1009E30069A56DD582F5D583F2ABF0ECFAE8F9A5EC
:1009F30022EF8DF0A4A8F0CF8CF0A428CE8DF0A424
:100A03002EFEA522BC000CBE002BEF8DF084FFADA3
:100A1300F0A522E4CCF875F008EF2FFFEE33FEECDF
:100A230033FCEE9DEC984005FCEE9DFE0FD5F0E9FE
:100A3300E4CEFDA522EDF8F5F0EE8420D21DFEAD47
:100A4300F075F008EF2FFFED33FD4008985007D500
:100A5300F0F2A522C398FD0FD5F0E9A522C2D5EC8B
:100A630030E709B2D5E4C39DFDE49CFCEE30E71703
:100A7300B2D5E4C39FFFE49EFEA512800A07C3E438
:100A83009DFDE49CFC8005A512800A0730D507C3B1
:100A9300E49FFFE49EFEA522C5F0F8A3E028F0C57D
:100AA300F0F8E582158270021583E038F0A522A3E1
:100AB300F8E0C5F025F0F0E582158270021583E0B9
:100AC300C838F0E8A522EF2BFFEE3AFEED39FDEC36
:100AD30038FCA522E88FF0A4CC8BF0A42CFCE98E83
:100AE300F0A42CFC8AF0EDA42CFCEA8EF0A4CDA893
:100AF300F08BF0A42DCC3825F0FDE98FF0A42CCD9C
:100B030035F0FCEB8EF0A4FEA9F0EB8FF0A4CFC57B
:100B1300F02ECD39FEE43CFCEAA42DCE35F0FDE405
:100B23003CFCA52275F008758200EF2FFFEE33FE23
:100B3300CD33CDCC33CCC58233C5829BED9AEC99B2
:100B4300E58298400CF582EE9BFEED9AFDEC99FC54
:100B53000FD5F0D6E4CEFBE4CDFAE4CCF9A882A518
:100B630022B800C0B9005BBA002EEC8BF084CFCE64
:100B7300CDFCE5F0CBF97818EF2FFFEE33FEED3324
:100B8300FDEC33FCEB33FB10D703994004EB99FBEB
:100B93000FD8E5E4F9FAA5227818EF2FFFEE33FE1C
:100BA300ED33FDEC33FCC933C910D7059BE99A40FB
:100BB30007EC9BFCE99AF90FD8E0E4C9FAE4CCFB13
:100BC300A52275F010EF2FFFEE33FEED33FDCC338E
:100BD300CCC833C810D7079BEC9AE899400AED9B21
:100BE300FDEC9AFCE899F80FD5F0DAE4CDFBE4CC00
:100BF300FAE4C8F9A522EB9FF5F0EA9E42F0E99DDD
:100C030042F0EC6480C864809845F0A522EB9FF520
:100C1300F0EA9E42F0E99D42F0E89C45F0A522E807
:100C2300600FECC313FCED13FDEE13FEEF13FFD8BF
:100C3300F1A522A548FCA549FDA54AFEA54BFFA5A4
:100C430022ECA558EDA559EEA55AEFA55BA522E028
:100C5300FCA3E0FDA3E0FEA3E0FFA522E493FC7464
:100C63000193FD740293FE740393FFA522E0F8A39E
:100C7300E0F9A3E0FAA3E0FBA522E493F87401935F
:100C8300F9740293FA740393FBA522A548F8A549C6
:100C9300F582A54AF583A54BFBA982AA83A52274F5
:100CA30001FF3395E0FEFDFCA3A3A3E0CF2FF0E506
:100CB30082158270021583E0CE3EF0E582158270C4
:100CC300021583E0CD3DF0E582158270021583E0C5
:100CD300CC3CF0A522ECF0A3EDF0A3EEF0A3EFF0F3
:100CE300A522A42582F582E5F03583F583A522E0CC
:100CF300FBA3E0FAA3E0F9A522EBF0A3EAF0A3E952
:100D0300F0A522E493FB740193FA740293F9A522EC
:100D1300F8D0E0F5834480FBD0E0FAD0E0F9A548B1
:100D23007012A549700EA56AA549C0E0A548C0E0A8
:100D3300C083A522A54A6860EFA56B80E1F8D0E0E7
:100D4300F5834480FBD0E0FAD0E0F9A5487012A502
:100D530049700EA56AA549C0E0A548C0E0C083A5B7
:100D630022A54AB5F005A54B6860EAA56880DC8F2B
:100D7300828E83EDFFECFEE8FDE58260020583458C
:100D83008370047F00A522A548F5F0A54CA569A5AD
:100D93006DB5F006D582F0D583ED7FFFB5F0030F77
:100DA300A52240027F01A522EF4E6019EF60010EDC
:100DB300ED89828A838BF0A558A569DFFADEF88B6B
:100DC300F0A982AA83A522F8E0FBA3A3E0F925F00A
:100DD300F0E582158270021583E0FA38F0A522E56A
:100DE30027242CF582E4341FF583E0052722901F86
:100DF30029301A03901F2CE475F001A512800DCA47
:100E0300A548222013E77F2ED2138018EF540F2416
:100E130090D43440D4FF30170BEF24BFB41A0050E2
:100E2300032461FFE52860021528052BE52B7002DA
:100E3300052A301A10901F29E475F001A512800DC0
:100E4300CAEFA55822A512800028227403D21A8063
:100E530003E4C21AF527901F29A512800CFCE4F5C0
:100E630028F52AF52BE52860097F20A512800E2797
:100E730080F37529FFC214C213C215C216C218C269
:100E830019C21B120DF1FF700E301A057F00120EEE
:100E930038AF2BAE2AA522B4255FC2D5C217120DD7
:100EA300F1FF24D0B40A00501A75F00A782830D51F
:100EB3000508B6FF0106C6A426F620D5047002D2A3
:100EC3001680D924CFB41A00EF5004C2E5D217021A
:100ED300104FD21480C6D21380C0D21580BCD2D595
:100EE30080BAD21880B47F20120E27201507740110
:100EF300B5280040F1120DE2FF120E27020E68D250
:100F03001BD2198095120DE2FB120DE2FA120DE2CB
:100F1300F94A4B700679227A117B8020153AE5282D
:100F230060367E00E9C0E02EF9EAC0E03400FAA59D
:100F330048F9D0E0FAD0E0C960060EEE652970E406
:100F4300C2D5EBC0E0EAC0E0E9C0E0EE121098D0F1
:100F5300E0F9D0E0FAD0E0FBA548FF609FEBC0E0EA
:100F6300EAC0E0E9C0E0120E27D0E02401F9D0E0A6
:100F73003400FAD0E0FBE5290460DDD529DA020E5E
:100F8300FF7B807A107994D2158090791080027952
:100F930008C219C21B8008D2D5790A8004790AC213
:100FA300D5E529047002F529E4FAFDFEFF120DE2EE
:100FB300FC7B08201413120DE2FD7B1030130A1280
:100FC3000DE2FE120DE2FF7B20EC3382D592D55069
:100FD30013C3E43013069FFFE49EFEE42014039D35
:100FE300FDE49CFCE4CBF8C214EC700CCFCECDCC6A
:100FF300E824F8F870F38017C3EF33FFEE33FEED08
:1010030033FDEC33FCEB33FB994002FB0FD8E9EBE8
:10101300301405F8D0E0C448B214C0E00AEC4D4ED9
:101023004F78207B0070C2EAB5290040BCC0E012B3
:10103300109AD0F0D0E0201404C4C0E0C4B214C0AD
:10104300F0120E10D0F0D5F0EB020E68A512800D51
:10105300130F08530F8E580ED94C0ED5420F924FD3
:101063000F9A440F9A490EEE430FA0550F84460F73
:1010730084450F8447113D500EDD2D0EE12E0F04E4
:101083002B0EE5230F0220112B2A0E9D4800000E84
:10109300FC3F3F3F00790AA2D5201614301809B946
:1010A30010020404B9080104A2D520190250010456
:1010B3002015689215B528005034C0E07F20301603
:1010C300197F30A21572197218500F1210F1C21540
:1010D300C219C218C21B7F30800F301803E9C0E069
:1010E300120E27301803D0E0F9D0E0B528CC301821
:1010F300177F30B9100C120E277F583017077F78EF
:101103008003B90803120E273015057F2D020E2721
:101113007F20201BF87F2B2019F322921580CF28E4
:101123006E756C6C2900D214120DE23014F8C214DF
:10113300782830D50108F6020E9D120DE2C0E0C4F6
:10114300120E10D0E0120E10743A120E18D2167549
:101153002804020F8E4101C9004210CA0000410257
:101163004B014110CC004206EE000041000600C1D5
:101173001FC120C19DC1214110CD00C11E410000EE
:10118300004100010041000200410003004100044E
:101193000041000500413032004230300000413050
:1011A30033004130340041303500C12441303A012D
:1011B30041303900411A9F00412FF900412FFA00B5
:1011C300412FFB00C100412FFD00412FFE00412FA5
:1011D300FF00413000004130010041300200C103F3
:1011E300C104C105C106C107C108C109C10AC10BB8
:1011F300C10CC10DC10E41300300462F860800010A
:10120300009600412FCC00C12801150041303B005E
:10121300411F5800411F5400411F5C01411F5601EB
:10122300C122C123411F5A0062002A080000800521
:10123300800F000A801B001E0014801180330036CB
:10124300003C80390028802D8027002280630066BF
:10125300006C80690078807D807700720050805533
:10126300805F005A804B004E0044804180C300C61B
:1012730000CC80C900D880DD80D700D200F080F593
:1012830080FF00FA80EB00EE00E480E100A080A57F
:1012930080AF00AA80BB00BE00B480B180930096EB
:1012A300009C80990088808D8087008281830186DD
:1012B300018C81890198819D8197019201B081B54B
:1012C30081BF01BA81AB01AE01A481A101E081E537
:1012D30081EF01EA81FB01FE01F481F181D301D6A3
:1012E30001DC81D901C881CD81C701C2014081459B
:1012F300814F014A815B015E015481518173017603
:10130300017C81790168816D8167016281230126F6
:10131300012C81290138813D81370132011081156A
:10132300811F011A810B010E01048101830303064E
:10133300030C83090318831D8317031203308335BA
:10134300833F033A832B032E0324832103608365A6
:10135300836F036A837B037E037483718353035612
:10136300035C83590348834D8347034203C083C50A
:1013730083CF03CA83DB03DE03D483D183F303F672
:1013830003FC83F903E883ED83E703E283A303A666
:1013930003AC83A903B883BD83B703B203908395DA
:1013A300839F039A838B038E0384838102808285C8
:1013B300828F028A829B029E0294829182B302B63A
:1013C30002BC82B902A882AD82A702A282E302E62E
:1013D30002EC82E902F882FD82F702F202D082D5A2
:1013E30082DF02DA82CB02CE02C482C1824302468A
:1013F300024C82490258825D825702520270827502
:10140300827F027A826B026E0264826102208225ED
:10141300822F022A823B023E023482318213021659
:10142300021C82190208820D82070202412A060069
:10143300412A070000CFB5CDB3D5FDD4DAC6F4B643
:10144300AF2C20C7EBC9D4B5C800D5FDD4DAB8FC9E
:10145300B8C4C9CCC6B7D3E0C1BF2E2E2E00C9CCA9
:10146300C6B7D3E0C1BFB8FCB8C4CAA7B0DC21007B
:1014730020202020C4E3C8B7B6A8B8FCB8C4C2F083
:101483003F00C8B7B6A8454E54455220C8A1CFFB6C
:1014930043414E43454C00D5FDD4DAB8FCB8C4C92A
:1014A300CCC6B7BCDBB8F12E2E2E00C9CCC6B7BC58
:1014B300DBB8F1B8FCB8C4CAA7B0DC2100C9CCC6FC
:1014C300B7BCDBB8F1B8FCB8C4B3C9B9A6210020D6
:1014D300202020C4E3C8B7B6A8CCEDC2FAC2F03FBF
:1014E30000D5FDD4DACCEDC2FA2E2E2E00CCEDC2FF
:1014F300FAB2D9D7F7CAA7B0DC2100CCEDC2FAB251
:10150300D9D7F7B3C9B9A62100CAE4C8EBB2E3BC83
:10151300DCB1E0BAC53A00B1E0BAC5CAE4C8EBB47D
:10152300EDCEF300C7EBCAE4C8EBC6E4CBFCB1E0F5
:10153300BAC500C4E3C8B7B6A8CCEDC2FAB4CBB2FF
:10154300E3BCDCC2F03F00D5FDD4DACCEDC2FAB582
:10155300B1C7B0B2E3BCDC2E2E2E00B2E3BCDCCCB0
:10156300EDC2FAB2D9D7F7CAA7B0DC2100B2E3BC07
:10157300DCCCEDC2FAB2D9D7F7B3C9B9A62100259D
:101583007300B2B9D3B2B1D200C8A1D6BDB1D200F3
:101593002020C4E3C8B7B6A82573C2F03F002020BB
:1015A300D5FDD4DA2573002573CAA7B0DC21002545
:1015B30073B3C9B9A6210020202020CDACB2BDCA87
:1015C300A7B0DC0020202020202020202020202065
:1015D30020202020202020200020202020C4E3C819
:1015E300B7B6A8CDACB2BDC2F03F00D5FDD4DACDBD
:1015F300ACB2BD2C20C7EBC9D4B5C82E2E2E00CD5E
:10160300ACB2BDB2D9D7F7B3C9B9A6210020202007
:1016130020C4E3C8B7B6A8B2B9BBF5C2F03F00D542
:10162300FDD4DAB2B9BBF52C20C7EBC9D4B5C82EAB
:101633002E2E00B2B9BBF5B2D9D7F7CAA7B0DC21B9
:1016430000B2B9BBF5B2D9D7F7B3C9B9A621002007
:1016530020C4E3C8B7B6A8C7E5B5E3C2F03F00D5D9
:10166300FDD4DAC7E5B5E32C20C7EBC9D4B5C82E42
:101673002E2E00C7E5B5E3CDEAB1CFA3ACC7EBBAD5
:10168300CBB6D42100C7E5B5E3BDF0B6EE3A2025CD
:101693007500C7E5B5E3BDF0B6EE3A2025752E25F6
:1016A3007500C7E5B5E3BDF0B6EE3A2025752E25E6
:1016B3003032750000000A05000000000102040535
:1016C3000708091213141516FE20002020202020DD
:1016D3002020202020202020202020202020200027
:1016E300C7EBCAE4C8EBB1E0BAC53A2000B1E0BA2F
:1016F300C5CAE4C8EBB4EDCEF300C7EBCAE4C8EB4C
:10170300C6E4CBFCB1E0BAC5002020202020202075
:101713002020202020202020202020202000000026
:1017230000000000000000000000000000000000B6
:1017330000000000000000000000000000000000A6
:101743000000000000000000000000000000000096
:101753000000000000000000000000000000000086
:101763000000000000000000000000000000000076
:101773000000000000000000000000000000000066
:101783000000000000000000000000000000000056
:101793000000000000000000000000000000000046
:1017A3000000000000000000000000000000000036
:1017B3000000000000000000000000000000000026
:1017C3000000000000000000000000000000000016
:1017D3000000000000000000000000000000000006
:1017E30000000000000000000000000000000000F6
:1017F30000000000000000000000000000000000E6
:1018030000000000000000000000000000000000D5
:1018130000000000000000000000000000000000C5
:1018230000000000000000000000000000000000B5
:1018330000000000000000000000000000000000A5
:101843000000000000000000000000000000000095
:101853000000000000000000000000000000000085
:101863000000000000000000000000000000000075
:101873000000000000000000000000000000000065
:101883000000000000000000000000000000000055
:101893000000000000000000000000000000312EE6
:1018A300BFAAC6F4D6C6C0E43A00322ED7D4B6AF28
:1018B300CDCBB1D23A00332EBFAAC6F4B3F6BBF5F3
:1018C300C8B7C8CF3A00342EC7B7CCF53A00352E87
:1018D300D4CAD0EDB6E0B4CEB9BAC2F23A00362ECD
:1018E300B2BBC2F2BBF5CDCBB1D23A00372ED3E0B7
:1018F300B6EECFC2CFDE3A00382EBFAAC6F4D6BDAD
:10190300B1D2C6F73A00392EBFAAC6F4D3B2B1D2C8
:10191300C6F73A0031302E20BFAAC6F441434443F0
:10192300C4A3BFE93A0031312E202331D6BDB1D251
:101933003A0031322E202332D6BDB1D23A003133B0
:101943002E202333D6BDB1D23A0031342E20233496
:10195300D6BDB1D23A0031352E202335D6BDB1D212
:101963003A0031362E202336D6BDB1D23A00313774
:101973002E202331D3B2B1D23A0031382E20233274
:10198300D3B2B1D23A0031392E202333D3B2B1D2FC
:101993003A0032302E202334D3B2B1D23A0025623A
:1019A30075002575002D2575002D25752E257500CF
:1019B3002D25752E253032750025752E25750025AC
:1019C300752E25303275008018A10B8018AD0B8061
:1019D30018B90F8018C9078018D10F8018E10D803E
:1019E30018EF0B8018FB0D8019090D801917118052
:1019F30019290B8019350B8019410B80194D0B8068
:101A030019590B8019650B8019710B80197D0B8097
:101A130019890B8019950B000500050001000100D1
:101A23000100050005000500010005000500050093
:101A3300050005000500050005000500050005007B
:101A4300050005000500010005000100010001007B
:101A53000200010001000100012020C4E3C8B7B661
:101A6300A8C2F03F00C8B7B6A8454E54455220C897
:101A7300A1CFFB43414E43454C002020C3BBD3D0F1
:101A8300BDBBD2D7BCC7C2BC00D6BDCAD53A00CFF6
:101A9300D6D6BDCAD53A003159CAD53A00CFD631C8
:101AA30059CAD53A00354ACAD53A00CFD6354ACABB
:101AB300D53A003159D5D23A00CFD63159D5D23A99
:101AC30000354AD5D23A00CFD6354AD5D23A00C8E6
:101AD300ABB2BFC1BF3A00C8ABB2BFB6EE3A00CF9C
:101AE300D6BDF0C1BF3A00CFD6BDF0B6EE3A00D3B3
:101AF300CECFB7C1BF3A00D3CECFB7B6EE3A00CB05
:101B0300A2BFA8C1BF3A00CBA2BFA8B6EE3A00D489
:101B1300DACFDFC1BF3A00D4DACFDFB6EE3A00D373
:101B2300B2B1D2CDB6C8EB3A00D6BDB1D2CDB6C8AC
:101B3300EB3A00D3B2B1D2B3F6B1D23A00C7F8BC94
:101B4300E4D3B2B1D2CDB6C8EB3A00C7F8BCE4D601
:101B5300BDB1D2CDB6C8EB3A00C7F8BCE4D3B2B13D
:101B6300D2B3F6B1D23A0025303575202573256CF2
:101B7300752E2530326C7500256C752E2530326C30
:101B83007500256C750025627500801A5C0B801A40
:101B93006814801A7D0E801A8C06801A9208801AA7
:101BA3009A06801AA008801AA806801AAE08801A1E
:101BB300B606801ABC08801AC406801ACA08801A9E
:101BC300D207801ADA07801AE207801AEA07801A16
:101BD300F207801AFA07801B0207801B0A07801B83
:101BE3001207801B1A07801B2209801B2C09801BEC
:101BF3003609801B400D801B4E0D801B5C0D312E62
:101C0300D7DCCFFACADBCDB3BCC600322EBBF5B5E9
:101C1300C0B2CECAFD00332EBBF5B5C0D7B4CCAC31
:101C2300B2E9BFB400342EBCD3C2FAC8ABB2BFBB57
:101C3300F5B5C000352EB2B9D3B2B1D2CDEAB3C92E
:101C430000362EC8ABCFB5CDB3CDACB2BD00372E69
:101C5300BCD3C2FAB2E3BCDCBBF5B5C000382EC8B6
:101C6300A1D6BDB1D2CDEAB3C900392EC9E8B1B806
:101C7300B9DCC0ED0031302E20CFB5CDB3B2CECA22
:101C8300FD0031312E20BBF5BCDCC5E4D6C30031E9
:101C9300322E20B3F6B3A7C4ACC8CFC5E4D6C30075
:101CA30031332E20C7E5C1E3C7F8BCE4CFFACADB62
:101CB300CDB3BCC60031342E20B2B9BBF5C7A9B52C
:101CC300BD002020C8B7B6A8B3F6B3A7C5E4D6C3F2
:101CD300C2F03F00C8B7B6A8454E54455220C8A12C
:101CE300CFFB43414E43454C0030002020D5FDD46B
:101CF300DAB1A3B4E6002000B1A3B4E6CAA7B0DC0E
:101D0300A3ACD6D8D0C2C9E8D6C33F002020454EE5
:101D130054455220202043414E43454C00801C0132
:101D23000C801C0E0A801C190E801C280E801C3788
:101D33000C801C440C801C510E801C600C801C6D9C
:101D43000A801C780C801C850C801C9210801CA3BC
:101D530014801CB80C312EB2E3BCDCB1E0BAC53A36
:101D630000322ECAC7B7F1C6F4D3C33A00332ED715
:101D7300EEB4F3B4E6BBF5C1BF3A00342EB5DAD204
:101D8300BBBBF5B5C03A00352EB5DAB6FEBBF5B52B
:101D9300C03A00362EB5DAC8FDBBF5B5C03A0037F8
:101DA3002EB5DACBC4BBF5B5C03A00382EB5DACEC2
:101DB300E5BBF5B5C03A00392EB5DAC1F9BBF5B5C7
:101DC300C03A0031302E20B5DAC6DFBBF5B5C03AD4
:101DD3000031312E20B5DAB0CBBBF5B5C03A00C720
:101DE300EBCAE4C8EBC3DCC2EB3A00C3DCC2EBB41E
:101DF300EDCEF32100256275002020200020002075
:101E030020202000CAE4C8EBB2E3BCDCB1E0BAC5D1
:101E13003A00B1E0BAC5CAE4C8EBB4EDCEF300C7EB
:101E2300EBCAE4C8EBC6E4CBFCB1E0BAC500801D45
:101E3300580B801D640B801D700D801D7E0B801D53
:101E43008A0B801D960B801DA20B801DAE0B801D7F
:101E5300BA0B801DC60D801DD40D801DE20B801DA5
:101E6300EE09000100010002000100010001000170
:101E73000001000100010001A575FF07758E0378BD
:101E8300FEE4F6D8FD758187A575FB00759008A55E
:101E930002801EC2A50280CECCE493A3F85407248B
:101EA3000CC8C333C4540F4420C8834004F4568081
:101EB3000146F6DFE4800B01020408102040809005
:101EC3001158E47E019360CCA3FF543F30E50954DD
:101ED3001FFEE493A360010ECF54E0B4E01CE4932F
:101EE300FBA3E493FAA3E493F9A3E493A558A3090A
:101EF300E970010ADFF4DEF280C854C025E06025F2
:101F03004097E493A3FAE493A3F8E493A3C8C582A8
:101F1300C8CAC583CAF0A3C8C582C8CAC583CADFF5
:101F2300E9DEE7809DE493A3F8E493A34003F680FE
:101F330001F208DFF4808B312EBBF5B5C0B1E0BAF6
:101F4300C53A2000322EC9CCC6B7D3E0C1BF3A2070
:101F530000332EC9CCC6B7B1E0BAC53A2000342E3F
:101F6300B5A5BCDB3A2000352EBBF5B5C0D7B4CC44
:101F7300AC3A2000253032627500253362750025A6
:101F83003262750025750025752E25750025752E81
:101F9300253032750025627500801F3A0C801F477B
:101FA3000C801F540C801F6108801F6A0CC2D5E887
:101FB30030E70FB2D5E4C39BFBE49AFAE499F9E462
:101FC30098F8EC30E71BB2D5A512801FECA5128060
:101FD3000B64E4C39BFBE49AFAE499F9E498F88070
:101FE30005A512800B6430D50DE4C39FFFE49EFE6C
:101FF300E49DFDE49CFCA522901F23E0FFA3E0FEEB
:10200300A3E0CF901F2CF0A3EEF0A3EFF0901F26D8
:10201300E0CBF0A3E0CAF0A3E0C9F07F22901F2F2A
:10202300AD82AC83A5488D828C83F0A3A569DFF0D4
:10203300901F26E0FBA3E0FAA3E0F9A502800E4E71
:102043004742323331320057494E31323532000D77
:10205300519610526405050505050505050404049C
:1020630004080807FF010101010101010102020245
:1020730002030306FF50505050505050501B1B1B7F
:102083001B0D0D18FF09090909090909092E2E2E2F
:102093002E000048FF000000010000000A000000BD
:1020A30064000003E800002710000186A0000F422F
:1020B300400098968005F5E10008000100960000B5
:1020C300000000000000000000000000000000010C
:1020D300000000000200030405080001009600A5AB
:1020E300128099209010CAE0FEA3E0FF901B1EEE21
:1020F300F0A3EFF0E4A3F0A3F0A3F09006CFE0B4D5
:1021030001139006CDE0FEA3E0FF901B1EEE8FF0BF
:10211300A512800A9BD3901B1FE09400901B1EE026
:10212300940050057F000223EC9010CC742CF07EB9
:10213300007F147D007B007A0679DAA512800DAB4F
:102143009010CCE0FF25E025E02472F582E434040E
:10215300F583E493901B20F0FD7C00C004C005EFE1
:1021630025E025E0246FF582E43404F583A512808D
:102173000D0678DA7C067D00D007D006A51280090B
:10218300C8901B20E0FF24DAF582E43406F583745B
:1021930020F0900490E0FCA3E0FDEC60030222AD8C
:1021A300ED24F6603D24A6700302224124636003FC
:1021B3000222AD74DB2FF9E43406FA7B00C003C0BE
:1021C30002C0017B807A0379DC901F2CA512800C5E
:1021D300FC901B1EE0FFA3E0901F2FCFF0A3EF02A4
:1021E300229B901B20E024DBF9E43406FA7B00C039
:1021F30003C002C0017B807A0379DF901F2CA512F4
:10220300800CFC900490E0FAA3E0FB901B1EE0FE20
:10221300A3E0FFAD03AC02A512800A07901F2FEEC7
:10222300F0A3EFF0901B1EE0FEA3E0FFAD03AC02B2
:10223300A512800A07901F31ECF0A3ED805A901B82
:1022430020E024DBF9E43406FA7B00C003C002C0BB
:10225300017B807A0379E5901F2CA512800CFC90FA
:102263000490E0FAA3E0FB901B1EE0FEA3E0FFADA9
:1022730003AC02A512800A07901F2FEEF0A3EFF024
:10228300901B1EE0FEA3E0FFAD03AC02A512800A83
:1022930007901F31ECF0A3EDF0D001D002D003A5DD
:1022A30012800E4E901B20E02FF0901B20E004F0D4
:1022B300D2137B007A0679DA901D7FA512800CFC7D
:1022C300901B20E0A5128095E8900452E0FEA3E065
:1022D300FFC3901B1FE09F901B1EE09E4050901079
:1022E300CC7436F0D213E0FF25E025E0246FF582AD
:1022F300E43404F583A512800D06901D7FA512809A
:102303000CFCEF25E025E02472F582E43404F58328
:10231300E493901D82F07D01E4FFA5128095EF9078
:1023230006CFE064017048A51280EF8E80419010C3
:10233300CC7404F0D213E0FF25E025E0246FF5828E
:10234300E43404F583A512800D06901D7FA5128049
:102353000CFCEF25E025E02472F582E43404F583D8
:10236300E493901D82F07D01E4FFA5128095EF9028
:10237300147AE0B4011A90147CE0FCA3E0FDE4FFBE
:10238300A5128077B8E490147AF090147CF0A3F04F
:1023930090147BE0B4011A90147EE0FCA3E0FD7F6F
:1023A30001A5128077B8E490147BF090147EF0A31B
:1023B300F0901480E0B4011A901482E0FCA3E0FDD5
:1023C3007F64A5128077B8E4901480F0901482F0B3
:1023D300A3F0901481E0B4010EA5128077B0E490CD
:1023E3001481F0A3F0A3F07F00A522E4901ADDF09E
:1023F300FE7F68FD7B007A047947A512800DAB7ED2
:10240300047F4B7D007B007A1079CFA512800DAB42
:102413009013047401F0A3F07E027F297D007B00FA
:102423007A0479AFA512800DAB9006B77401F07EE4
:10243300037F137D007B007A0D795AA512800DABC3
:10244300E47F64A512808CE97E017F207D007B0000
:102453007A037926A512800DABD211E4901D7AF090
:10246300D212FDFFA512809BE5D211E4901D7AF0F4
:10247300D212FD7F01A512809BE5D2139004FFA524
:1024830012800D06901D7FA512800CFC900502A5FD
:10249300128095E6D2139004FBA512800D06901DC1
:1024A3007FA512800CFC9004FEE493901D82F07DC6
:1024B30001E4FFA5128095EFE47F64A512808CE907
:1024C3007F00A5227F04EF24FE60111460151460C1
:1024D30019240370319010CC742A80259010CC7489
:1024E30039801E9010CC743A8017A512806EB2E426
:1024F3007FC8A512808CE9A512806EB29010CC74AF
:102503000EA5128095B99010CC7419F0D213E0FF88
:1025130025E025E0246FF582E43404F583A51280D9
:102523000D06901D7FA512800CFCEF25E025E0240D
:1025330072F582E43404F583E493901D82F07D0107
:10254300E4FFA5128095EFE47FD07E07FDFC901D8C
:10255300B3F0A3F0A502808CF2E4901ADDF09006AC
:10256300EEE07002A3E0700590024B04F090024B82
:10257300E06401600302261A9012F4E064017045DE
:10258300C39012F3E094F49012F2E094014036E425
:10259300F0A3F09010CC7434A5128095B9A51280E5
:1025A3008C94A51280FFEFEF6401600302263BD2F7
:1025B300139010CCA512808CADA51280FFEFEF64B1
:1025C30001707580449012F4E06401706BC3901243
:1025D300F3E094FA9012F2E09400405C9010CC7413
:1025E30034A5128095B9A512808C94A51280FFEFB3
:1025F300EF64017043D2139010CCA512808CADA56B
:102603001280FFEFEF6401702F9006EEE04402F0BA
:10261300A3E0F07F01803A90024BE06401601990DF
:1026230014DCE0640160119010CC7410A512809545
:10263300B97F02A51280936D90151AE004F0A512DC
:1026430080A8DCBF01047F028007A512808CE67F8F
:1026530001A522E4901ADDF0A3F0A3F0A3F0A3F008
:10266300A3F0A3F078E87C1A7D007B807A05796B70
:10267300FE7F02A5128009C8E4901AEAF09006CF03
:10268300E0B401189006CDE0FEA3E0FF9010CBE08C
:102693002FFF9010CAE03E901ADE800B9010CAE024
:1026A300FFA3E0901ADECFF0A3EFF09010CEE07519
:1026B300F00790000AA512800CE5E0FEA3E0FF906E
:1026C3001ADEE0FCA3E0FDD3EF9DEE9C500302284D
:1026D300609010CC7433A5128095B99010CC7427F8
:1026E300F0900490E0FEA3E0FFEE6003022843EFC6
:1026F30024F6605724A670030227C12463600302F3
:1027030028437B807A04790F901F2CA512800CFC40
:102713009010CCE025E025E0246FF582E43404F545
:1027230083A512800D06901F2FA512800CFC90101C
:10273300CEE075F00790000AA512800CE5E0FFA338
:10274300E0901F32CFF0A3EF0228327B807A047926
:1027530015901F2CA512800CFC9010CCE025E025D1
:10276300E0246FF582E43404F583A512800D06900E
:102773001F2FA512800CFC9010CEE075F00790007F
:102783000AA512800CE5E0FAA3E0FB900490E0FCBC
:10279300A3E0FDAF03AE02A512800A07901F32EE3D
:1027A300F0A3EFF0900490E0FCA3E0FDAF03AE02D2
:1027B300A512800A07901F34ECF0A3ED80717B8093
:1027C3007A04791E901F2CA512800CFC9010CCE08B
:1027D30025E025E0246FF582E43404F583A5128017
:1027E3000D06901F2FA512800CFC9010CEE075F003
:1027F3000790000AA512800CE5E0FAA3E0FB900421
:1028030090E0FCA3E0FDAF03AE02A512800A07909F
:102813001F32EEF0A3EFF0900490E0FCA3E0FDAFD5
:1028230003AE02A512800A07901F34ECF0A3EDF06B
:102833007B007A0679DAA512800E4E901ADDEFF04E
:10284300D2137B007A0679DA901D7FA512800CFCE7
:10285300901ADDE0901D82F07D01E4807490042DD8
:10286300E07008900441E0640170749010CEE0754C
:10287300F00790000AA512800CE5E0FEA3E0FFD369
:102883009400EE94004058901ADEE0FCA3E0FDEFC4
:102893006D7002EE6C60489010CC7401F0D213E0BE
:1028A300FF25E025E0246FF582E43404F583A512C7
:1028B300800D06901D7FA512800CFCEF25E025E01E
:1028C3002472F582E43404F583E493901D82F0E4EA
:1028D300FDFFA5128095EFE47FDC7E050229F990C8
:1028E30010CEE075F00790000AA512800CE5E0FE1B
:1028F300A3E0FF9010CAE0FCA3E0FDD3EF9DEE9CA4
:102903005003022996EF9DFFEE9C901AE4F0A3EF8B
:10291300F09006CFE064016003022A0F901AE4E00E
:10292300FEA3E0FFC39006CEE09FFF9006CDE09E9E
:10293300FE901AE4F0A3EFF0A3EEA51280BC509032
:102943001AE3EFF06018901AEA7401F0901AE6E0C7
:10295300FFA3E0901484CFF0A3EFF0022A0F9010AE
:10296300CC743BA5128095B99010CC7419F0D21396
:102973007B807A047929901D7FA512800CFC901D21
:10298300827401F0FDE4FFA5128095EFE47FD07E11
:102993000780639010CEE075F00790000AA51280BF
:1029A3000CE5E0FEA3E0FFC39010CBE09FFF901087
:1029B300CAE09EFE901AE4A51280BC50901AE3EF81
:1029C300F070499010CC743BA5128095B99010CC4F
:1029D3007419F0D2137B807A047929901D7FA51294
:1029E300800CFC901D827401F0FDE4FFA51280951C
:1029F300EFE47FD07E07A512808CEAE49010CEF03E
:102A03009012F7E04401F07F01022C209006CFE002
:102A130064016003022C16901AEAE0640160030269
:102A23002C167F01A512807762901AE2EFF0600303
:102A3300022BDC9012E2F0A37405F09012E2E07036
:102A430002A3E07003022AEEA51280C1DB901AE311
:102A5300EFF064016003022AE6A51280AEB390147E
:102A63007B7401F0901AE0E0FEA3E0FF90147EEE89
:102A73008FF0A512800A9B7E007F247D007B007A65
:102A830003794EA512800DABE4900426F090042840
:102A9300F090042BF09006CFF09006CDF0A3F090C9
:102AA300147AE0B4011A90147CE0FCA3E0FDE4FF87
:102AB300A5128077B8E490147AF090147CF0A3F018
:102AC30090147BE0B4012490147EE0FCA3E0FD7F2E
:102AD30001A5128077B8E490147BF090147EF0A3E4
:102AE300F08008A5128068E2022A3E9012E2E070AC
:102AF30002A3E06003022C167FD07E07A512808C10
:102B0300EAA51280AF66900442E064016003022BE1
:102B1300A2A51280AEB390147B7401F0901AE0E08A
:102B2300FEA3E0FF90147EEE8FF0A512800A9B7E39
:102B3300007F247D007B007A03794EA512800DABC4
:102B4300E4900426F0900428F090042BF09006CF34
:102B5300F09006CDF0A3F090147AE0B4011A90142B
:102B63007CE0FCA3E0FDE4FFA5128077B8E49014B9
:102B73007AF090147CF0A3F090147BE0640160037E
:102B8300022C1690147EE0FCA3E0FD7F01A51280C9
:102B930077B8E490147BF090147EF0A3F08074A5D2
:102BA30012807791E4901481F0A3F0A3F0A5128032
:102BB30020E79010CEE075F00790000AA512800C74
:102BC300E5E0FEA3E0FF9010CAE0FCA3E0FDD3EF35
:102BD3009DEE9C403E7F018044A512807791E49056
:102BE3001481F0A3F0A3F0A5128020E79010CEE0AB
:102BF30075F00790000AA512800CE5E0FEA3E0FF44
:102C03009010CAE0FCA3E0FDD3EF9DEE9C40047F4F
:102C130001800AE49006CCF09006C6F0FFA5227F5F
:102C230001901AE6EFF0E4A3F0A3F0A3F0A3F0A35E
:102C3300F0A51280764E9006CFE0B401189006CD31
:102C4300E0FEA3E0FF9010CBE02FFF9010CAE03E20
:102C5300901AEA800B9010CAE0FFA3E0901AEACF23
:102C6300F0A3EFF09014DB7401F0901AE6E0600338
:102C7300022DA59010CC7414A5128095B97E007F07
:102C8300147D007B007A0679DAA512800DAB9004DF
:102C930090E0FEA3E0FFEE6003022DA2EF24F660B6
:102CA3003D24A67003022D3A24636003022EFD7BAC
:102CB300807A04792B901F2CA512800CFC90051FA1
:102CC300A512800D06901F2FA512800CFC901AEA06
:102CD300E0FFA3E0901F32CFF0A3EF022D917B80A2
:102CE3007A047930901F2CA512800CFC90051FA547
:102CF30012800D06901F2FA512800CFC900490E00B
:102D0300FAA3E0FB901AEAE0FEA3E0FFAD03AC02F6
:102D1300A512800A07901F32EEF0A3EFF0901AEA93
:102D2300E0FEA3E0FFAD03AC02A512800A07901FEB
:102D330034ECF0A3ED80577B807A047938901F2C14
:102D4300A512800CFC90051FA512800D06901F2F65
:102D5300A512800CFC900490E0FAA3E0FB901AEA21
:102D6300E0FEA3E0FFAD03AC02A512800A07901FAB
:102D730032EEF0A3EFF0901AEAE0FEA3E0FFAD031A
:102D8300AC02A512800A07901F34ECF0A3EDF07B90
:102D9300007A0679DAA512800E4E901AE8EFF00257
:102DA3002EFD901AE6E064026003022F4C9010CCD3
:102DB3007414A5128095B97E007F147D007B007A80
:102DC3000679DAA512800DAB900490E0FEA3E0FF34
:102DD300EE6003022EFDEF24F6603A24A670030290
:102DE3002E8124636003022EFD7B807A0479429056
:102DF3001F2CA512800CFC900537A512800D0690A0
:102E03001F2FA512800CFC900F69A512800C529005
:102E13001F32022EE87B807A047948901F2CA5127A
:102E2300800CFC900537A512800D06901F2FA5126C
:102E3300800CFC900490E0FEA3E0FFFBAA06E4F9FB
:102E4300F8900F69A512800C52A512800B64901F95
:102E530032A512800CD8900490E0FEA3E0FFFBAAF9
:102E630006E4F9F8900F69A512800C52A512800BA5
:102E730064AC00AD01AE02AF03901F3680677B8068
:102E83007A047952901F2CA512800CFC900537A56B
:102E930012800D06901F2FA512800CFC900490E069
:102EA300FEA3E0FFFBAA06E4F9F8900F69A51280E0
:102EB3000C52A512800B64901F32A512800CD8907F
:102EC3000490E0FEA3E0FFFBAA06E4F9F8900F6983
:102ED300A512800C52A512800B64AC00AD01AE02AA
:102EE300AF03901F36A512800CD87B007A0679DADF
:102EF300A512800E4E901AE8EFF0D2137B007A06EB
:102F030079DA901D7FA512800CFC901AE8E0901DE1
:102F130082F07D01E4FFA5128095EFE47F64A512A2
:102F2300808CE99010CEE0FF901498F0E4A3F07544
:102F3300F007EF90000AA512800CE5E0FFA3E090F4
:102F4300149ACFF0A3EFF08029901AE6E0640170A1
:102F5300219010CC7414A5128095B97F02A512801C
:102F6300936DE47F64A512808CE9901498E090102F
:102F7300CEF0E4901497A51280E167901AE7EFF082
:102F8300BF070BE4A51280E167901AE7EFF0E4FDB9
:102F93007F01A512809FAA901AE7E0A512800D1366
:102FA3002FBF0032D40132D40234E90334E9042FB1
:102FB300BF0534E907354408000035C6901AE6E03A
:102FC3006003B402219010CEE075F00790000AA5CB
:102FD30012800CE5E0FEA3E0FFC39010CBE09FF06E
:102FE3009010CAE09EF0901AE6E0B4012290149A81
:102FF300E0FEA3E0FF9010CAE0FCA3E0FDC39FEC5A
:103003009E400CED9FFFEC9E9010CAF0A3EFF09052
:1030130010CC741AA5128095B9901AE6E0600302E9
:10302300319FA512808456EF702790044FE0B401BE
:1030330016B4011DA3E0FEA3E0FFC39010CBE09FF5
:103043009010CAE09E500A7F02A51280936D023150
:103053009F7E007F147D007B007A0679DAA51280BB
:103063000DAB900490E0FEA3E0FFEE600302317627
:10307300EF24F6603D24A6700302310E246360033F
:103083000231767B807A04792B901F2CA512800C59
:10309300FC90051FA512800D06901F2FA512800C12
:1030A300FC901AEAE0FFA3E0901F32CFF0A3EF02F7
:1030B30031657B807A047930901F2CA512800CFC3B
:1030C30090051FA512800D06901F2FA512800CFCE2
:1030D300900490E0FAA3E0FB901AEAE0FEA3E0FF7D
:1030E300AD03AC02A512800A07901F32EEF0A3EFE6
:1030F300F0901AEAE0FEA3E0FFAD03AC02A5128054
:103103000A07901F34ECF0A3ED80577B807A047993
:1031130038901F2CA512800CFC90051FA512800D62
:1031230006901F2FA512800CFC900490E0FAA3E0F8
:10313300FB901AEAE0FEA3E0FFAD03AC02A5128008
:103143000A07901F32EEF0A3EFF0901AEAE0FEA315
:10315300E0FFAD03AC02A512800A07901F34ECF028
:10316300A3EDF07B007A0679DAA512800E4E901A51
:10317300E8EFF0D2137B007A0679DA901D7FA5126F
:10318300800CFC901AE8E0901D82F07D01E4FFA51D
:10319300128095EFE47FC8A512808CE99010CEE0F1
:1031A300FF75F007900009A512800CE57401F07516
:1031B300F007EF90000CA512800CE5E0D3940040DB
:1031C3003E9010CEE0FF75F00790000CA512800C26
:1031D300E5E014F075F007EF90000CA512800CE504
:1031E300E070129010CEE075F007900009A51280F0
:1031F3000CE57405F0E47FD07E07A512808CEAA568
:103203001280BF8DA51280D41D901AE6E0B401058B
:1032130090149F800390149EA512815D8DE49014F9
:1032230097F09014E8E0B4013D9010B2A512800C21
:1032330052EF2401FFE43EFEE43DFDE43CFC90102C
:10324300B2A512800CD89010B6A512800C70901401
:103253009AE0FEA3E0FFE4FCFDA512800AC99010EA
:10326300B6A512800CD89010CEE075F00790000C34
:10327300A512800CE5E0901AF1F0901498E0FDA3FC
:10328300E0FBA3E0FFA3E0901AEFCFF0A3EFF090F1
:103293001497E0FFA51281655EA51280A2C2901269
:1032A300DCE4F0A37464F09012DCE07002A3E0604D
:1032B3001BA512806FCF5008E4FDFFA512806E5747
:1032C300A51280BDE6901AE9EFF080DB7F0002359E
:1032D300FBA5128095B49010CEE0FF75F007900027
:1032E3000CA512800CE5E0D39400403B9010CEE097
:1032F300FE75F00790000CA512800CE5E014F07544
:10330300F007EE90000CA512800CE5E0700F75F04D
:1033130007EF900009A512800CE57405F0E47FD057
:103323007E07A512808CEAA5128166B5901AE6E0A5
:10333300FF6007640260030234BAA512808456EF6B
:103343006401600302348DFE7F14FD7B007A0679ED
:10335300DAA512800DAB900490E0FEA3E0FFEE60CF
:103363000302346AEF24F6603D24A670030234029C
:103373002463600302346A7B807A04792B901F2CC8
:10338300A512800CFC90051FA512800D06901F2F1F
:10339300A512800CFC9010CAE0FFA3E0901F32CF6F
:1033A300F0A3EF0234597B807A047930901F2CA567
:1033B30012800CFC90051FA512800D06901F2FA5EF
:1033C30012800CFC900490E0FAA3E0FB9010CAE09A
:1033D300FEA3E0FFAD03AC02A512800A07901F32E3
:1033E300EEF0A3EFF09010CAE0FEA3E0FFAD03AC54
:1033F30002A512800A07901F34ECF0A3ED80577BDF
:10340300807A047938901F2CA512800CFC90051F3C
:10341300A512800D06901F2FA512800CFC9004901E
:10342300E0FAA3E0FB9010CAE0FEA3E0FFAD03AC1B
:1034330002A512800A07901F32EEF0A3EFF090105E
:10344300CAE0FEA3E0FFAD03AC02A512800A079019
:103453001F34ECF0A3EDF07B007A0679DAA5128035
:103463000E4E901AE8EFF0D2137B007A0679DA90C9
:103473001D7FA512800CFC901AE8E0901D82F07D60
:1034830001E4FFA5128095EF80077F02A5128093C8
:103493006DE47FE87E03A512808CEA9010CAE0FFFA
:1034A300A3E09006D8CFF0A3EFF0E49010CAF0A306
:1034B300F0FFA512803617A51280BF8DA51280D408
:1034C3001DA51280A2C2901AE6E0B4010590149FD4
:1034D300800390149EE0FFA512815D8FA512816584
:1034E3002D7F020235FBA5128095B49010CEE0FF2C
:1034F30075F007900009A512800CE57403F075F0D0
:1035030007EF90000CA512800CE5E4F07FD07E0756
:10351300A512808CEAA51280BF8DA5128166B59095
:103523001AE6E0B4010590149F800390149EE0FF17
:10353300A512815D8FA51281652DE47FC47E09806C
:1035430079A5128095B49010CEE0FF75F007900036
:103553000CA512800CE5E0D39400403B9010CEE024
:10356300FE75F00790000CA512800CE5E014F075D1
:10357300F007EE90000CA512800CE5E0700F75F0DB
:1035830007EF900009A512800CE57405F0E47FD0E5
:103593007E07A512808CEAA51280BF8D901AE6E003
:1035A300B4010590149F800390149EA512815D8D34
:1035B300A51281652DE47FE87E03A512808CEA7F46
:1035C3000080359010CEE075F00790000CA51280B6
:1035D3000CE5E0901AF1F0901498E0FDA3E0FBA352
:1035E300E0FFA3E0901AEFCFF0A3EFF0901497E081
:1035F300FFA51281655E7F00A522E0FFA3E0900690
:10360300D8CFF0A3EFF0E490148AF0A3F0A51280D2
:10361300764E7F01901AF5EFF0E4A3F0A3F0A3F048
:10362300A3F0A3F0A3F0A3F0A304F0A3F0A3F0E4AA
:10363300A3F0A3F0901B03F0A3F0A3F0A3F078078B
:103643007C1B7D007B807A057980FE7F02A512803A
:1036530009C8E4901B09F0A3F0A3F0A3F0A3F07F43
:10366300F47E01A512808CEAE4FD7F02A512809FFF
:10367300AAE47F64A512808CE9A51280EF8EA512BF
:1036830080C7959010CC741BA5128095B9A51280A4
:103693008CE67E007F147D007B007A0679DAA51222
:1036A300800DAB900490E0FEA3E0FFEE60030237D1
:1036B300B7EF24F6603D24A6700302374F246360FE
:1036C300030237B77B807A04792B901F2CA51280D5
:1036D3000CFC90051BA512800D06901F2FA51280D0
:1036E3000CFC9006D8E0FFA3E0901F32CFF0A3EFCD
:1036F3000237A67B807A047930901F2CA512800CA8
:10370300FC90051BA512800D06901F2FA512800C9F
:10371300FC900490E0FAA3E0FB9006D8E0FEA3E05F
:10372300FFAD03AC02A512800A07901F32EEF0A38F
:10373300EFF09006D8E0FEA3E0FFAD03AC02A512C4
:10374300800A07901F34ECF0A3ED80577B807A0446
:103753007938901F2CA512800CFC90051BA51280B4
:103763000D06901F2FA512800CFC900490E0FAA385
:10377300E0FB9006D8E0FEA3E0FFAD03AC02A51288
:10378300800A07901F32EEF0A3EFF09006D8E0FE18
:10379300A3E0FFAD03AC02A512800A07901F34EC2F
:1037A300F0A3EDF07B007A0679DAA512800E4E9035
:1037B3001AFCEFF0D2137B007A0679DA901D7FA50D
:1037C30012800CFC901AFCE0A512808CD99012F6A2
:1037D3007401F0E4901474F0A3F0A3F0A3F0900646
:1037E300D8E0FEA3E0FF7C007D0AA512800A0790C3
:1037F3001B03EEF0FCA3EFF0FD7B007A1B7907A51A
:103803001280BC6D901B02EFF064016003023A1A50
:10381300901AFCF0901AFCE0FFC394024003023AB2
:103823001A74072FF582E4341BF583E07003023A20
:1038330011901AFCE02407F582E4341BF583E07051
:1038430003023A11D3940F401A901B09740FF0909E
:103853001AFCE02407F582E4341BF583E0C3940FDC
:10386300F08023901AFCE0FF2407F582E4341BF573
:1038730083E0FE901B09F0FD74072FF582E4341BEF
:10388300F583C3EE9DF0901AFCE07009901B09E0EC
:10389300FD7F01800E901AFCE0B40111901B09E03A
:1038A300FDE4FFA51280C697901B02EFF0E47FE8CA
:1038B3007E03A512808CEA901B02E060030239EAC2
:1038C300901B09E02414FEE4339014D5F0A3CEF04A
:1038D3009014D5E07002A3E070030238347B007AC1
:1038E3001B7905A51280C6D5901B02EFF060030279
:1038F30039D97B007A047927901D5AA512800CFCD4
:103903007A037972A51280F0B7901B02EFF0BF0122
:10391300BF900372E0F9D394004052E9FF7E009018
:10392300043AEEF0A3EFF07C007D32A5128009F497
:10393300901474EEF0FCA3EFF0FD901B0AEC8DF0F5
:10394300A512800A9B7B007A107986A51280AEE9C6
:10395300901474E0FCA3E0FDC39006D9E09DF090C1
:1039630006D8E09CF07B007A10798A805A90037322
:10397300E0F9D394004055E9FF7E0090043CEEF05B
:10398300A3EFF07C007D64A5128009F4901476EE19
:10399300F0FCA3EFF0FD901B0CEC8DF0A512800A58
:1039A3009B7B007A10798EA51280AEE9901476E0A5
:1039B300FCA3E0FDC39006D9E09DF09006D8E09CFF
:1039C300F07B007A107992A51280AEE9E49014D5C9
:1039D300F0A3F00238D37FE87E03A5128068E6A542
:1039E3001280CDD80238D3901B02E06480600302BA
:1039F3003834901B06E004F0E0C39403400302381C
:103A030034E47F2C7E01A512808CEA0237E1901A00
:103A1300FCE004F00238179006D8E0FEA3E0FFD3E1
:103A23009400EE94004046901B007401F0D3EF9491
:103A330030EE947540169004587401F074FF9F9013
:103A43000457F074FF9E900456F0801DE4900458D0
:103A5300F09006D8E0FAA3E0FB900456EAF0A3EB5B
:103A6300F0E4FDFFA5128164A6D2218005E4901B3A
:103A730000F0901AF5E0901B0A6014E0FCA3E0FD4F
:103A8300A3E0FAA3E0FBE4FFA5128146288012E03D
:103A9300FCA3E0FDA3E0FAA3E0FBE4FFA51281642D
:103AA30065E4901474F0A3F0A3F0A3F0901B00E07E
:103AB3007003023C77A51280D4389010CC7401A512
:103AC300128095B99010CC7420F07E007F147D0095
:103AD3007B007A0679DAA512800DAB9010CCE0FF5B
:103AE30025E025E02472F582E43404F583E493FDB4
:103AF3007C00C004C005EF25E025E0246FF582E4D7
:103B03003404F583A512800D0678DA7C067D00D097
:103B130007D006A5128009C89010CCE025E025E067
:103B23002472F582E43404F583E493901AFCF09054
:103B33000490E0FEA3E0FFEE6003023C4DEF24F6A9
:103B4300604024A67003023BE124636003023C4D02
:103B5300901AFCE024DAF9E43406FA7B00C003C0CF
:103B630002C0017B807A0379DC901F2CA512800CA4
:103B7300FC900456E0FFA3E0901F2FCFF0A3EF02C9
:103B83003C3B901AFCE024DAF9E43406FA7B00C0EB
:103B930003C002C0017B807A0379DF901F2CA5123A
:103BA300800CFC900490E0FAA3E0FB900456E0FE46
:103BB300A3E0FFAD03AC02A512800A07901F2FEE0E
:103BC300F0A3EFF0900456E0FEA3E0FFAD03AC02D8
:103BD300A512800A07901F31ECF0A3ED805A901ACA
:103BE300FCE024DAF9E43406FA7B00C003C002C027
:103BF300017B807A0379E5901F2CA512800CFC9041
:103C03000490E0FAA3E0FB900456E0FEA3E0FFADCE
:103C130003AC02A512800A07901F2FEEF0A3EFF06A
:103C2300900456E0FEA3E0FFAD03AC02A512800AA8
:103C330007901F31ECF0A3EDF0D001D002D003A523
:103C430012800E4E901AFCE02FF0D2137B007A06FE
:103C530079DA901D7FA512800CFC901AFCE0901D70
:103C630082F07D01E4FFA5128095EF7FD07E07A54A
:103C7300128068E67FF47E01A5128068E6A51281B2
:103C8300709E900438E0FEA3E0FF901486EEF0A34C
:103C9300EFF0E4901484F0A3F0900492E0640160E8
:103CA3001690042DE07010C3EF94F4EE94014007D6
:103CB3009006EFE054F7F07F00A522E4901ADDF0C0
:103CC300A51280A2C29006EFE04440F09010C9E034
:103CD3004401F09010CC740DA5128095B97F01A515
:103CE30022E4901AE6F0A3F0A3F0A512806EB2E4EA
:103CF3007FC8A512808CE9A512806EB2E4903028AB
:103D0300F0900006F0A51280764EA51280C795901C
:103D1300024B7402F0301F07A512807F96C21FA5C5
:103D230012806ED5901AB67401F0E49006EEF0A3FB
:103D3300F09012FCF0FBFAFD7F05A51280D50EA5CD
:103D430012809FA69014E77401F0A512807CC9A588
:103D530012813D33A512804010A512807FC740EF2A
:103D63009012FD7401F09012FCF0E4FBFAFD7F0663
:103D7300A51280D50EE4FD7F05A512809FAAE490CD
:103D830014E7F0A51281709EE49006CFF09006CD63
:103D9300F0A3F0901AB6F0D2139004B7A512800DD9
:103DA30006901D7FA512800CFC9004BAA512809585
:103DB300E6D2137B807A047929901D7FA512800CAB
:103DC300FC901D827401F0FDE4FFA5128095EFA520
:103DD300128090A090024B7401F0E49006EEF0A3E1
:103DE300F0D21D201F07A512807F64D21FA5128069
:103DF3007FE07D53E4FFA51280E17DBF020E9006B4
:103E0300EFE04440F09010C9E04401F0E490151A4B
:103E1300F0900446F09001C8F0A3F0A512813C375E
:103E2300901AE7EEF0A3EFF07F00A522E4901ADDED
:103E3300F0A3F0A3F0901AF4F09014E5E06003020D
:103E43003F089006CFE064017053FFA512807762AC
:103E5300901AF4EFF09014817401F09006CDE0FF16
:103E6300A3E0901482CFF0A3EFF0E49006CFF0909C
:103E730006CDF0A3F0901481E0B4010EA512807773
:103E8300B0E4901481F0A3F0A3F0901AF4E0700270
:103E93008001E49006CFF09006CDF0A3F09010CA15
:103EA300E0FEA3E0FFD39400EE94004027A5128028
:103EB30075CA7E007F247D007B007A037972A51288
:103EC300800DAB7E007F247D007B007A03794EA5B5
:103ED30012800DAB9014DBE0B40102E4F09006CF46
:103EE300E064016005A512807760A51280764EE438
:103EF3009014C5F09014E504F09014E4E070060407
:103F0300A512807CC87E007F147D007B007A1A791D
:103F1300E0A512800DAB9006EEE0FEA3E0FF30E6D5
:103F230008901ADE74F7F08051EF30E708901ADE3C
:103F330074F8F08045EE30E008901ADE74F9F080F2
:103F430039EE30E108901ADE74FAF0802DEE30E499
:103F530008901ADE74FDF08021EE30E50E901ADF32
:103F63007470F0901ADE7402F0800FEE901ADE3057
:103F7300E60574E1F0800374FFF0901ADEE090141C
:103F8300DDF09010CDE070739010CC7410A512800A
:103F930095B9E47F14A512808CE97B807A04795E5D
:103FA300901F2CA512800CFC901ADFE0901F2FF0BD
:103FB300901ADEE0901F30F07B007A1A79E0A3A517
:103FC30012800CFC7A0679DAA512800E4E901ADD67
:103FD300EFF0D2137B007A0679DA901D7FA5128069
:103FE3000CFC901ADDE0901D82F07D01E4FFA51228
:103FF3008095EFE47F14A512808CE9900005E0041E
:10400300F0E0C394024002E4F07F01A522E4901A99
:10401300EBF0D20FA3F0A3F002472F901AECE0606D
:104023000302473FF0D20FA5128090A0D213901D38
:1040330020A512800D06901D7FA512800CFC901DFB
:1040430023A5128095E6D213901D24A512800D0698
:10405300901D7FA512800CFC901D27E493901D8278
:10406300F07D01E4FFA5128095EFA512809BD79008
:104073001AE97401F0A304F0200F03024431A512DE
:104083008097EF901AEDEFF024F3700302421724A8
:10409300F2700302421224CB7003024166240860CB
:1040A3000302440E901AEAE06402702DD211901DAF
:1040B3007A7402F0D212E4FDFFA512809BE5901AF8
:1040C300EA7401F0901AE9E07006740DF002440EF0
:1040D300901AE9E014F002440ED213901AE9E0FFBB
:1040E30025E025E02420F582E4341DF583A5128024
:1040F3000D06901D7FA512800CFCEF25E025E02422
:1041030023F582E4341DF583E493901D82F07D0151
:10411300E4FFA5128095EF901AE9E07005740DF0A5
:104123008006901AE9E014F0D213901AE9E0FF2513
:10413300E025E02420F582E4341DF583A512800DEB
:1041430006901D7FA512800CFCEF25E025E02423BB
:10415300F582E4341DA5128095E4901AEA7401F007
:1041630002440E901AEAE06401701AA512809BD7EC
:10417300901AE9E0B40D05E4F0024209901AE9E06F
:1041830004F0024209D213901AE9E0FF25E025E08A
:104193002420F582E4341DF583A512800D06901DBD
:1041A3007FA512800CFCEF25E025E02423F582E4B3
:1041B300341DA5128095E4901AE9E0B40D04E4F0EF
:1041C3008006901AE9E004F0D213901AE9E0FF2583
:1041D300E025E02420F582E4341DF583A512800D4B
:1041E30006901D7FA512800CFCEF25E025E024231B
:1041F300F582E4341DF583E493901D82F07D01E4A0
:10420300FFA5128095EF901AEA7402F002440EC2E1
:104213000F02440EC211E4901D7AF0D212FDFFA5E5
:1042230012809BE5A5128090A0901AE9E0A5128068
:104233000D13426300426A01427102427803427FD6
:1042430004428305428A06429107429A0842A10921
:1042530042A80A42AF0B42B60C42BD0D000042C257
:10426300A5128119778058A5128101878051A51263
:10427300804AB2804AA51281679C80437F018010E7
:10428300A512816B128038A51280911980317F02AB
:10429300A5128168BC8028A512809D218021A512CA
:1042A300811822801AA512805F468013A51280CF41
:1042B300D0800CA51280FF938005A512808E4B90B1
:1042C3001AEAE064026003024359901AE9E07017A6
:1042D300D213901D54A512800D06901D7FA5128048
:1042E3000CFC901D57802FD213901AE9E0FF25E0B4
:1042F30025E0241CF582E4341DF583A512800D0608
:10430300901D7FA512800CFCEF25E025E0241FF50E
:1043130082E4341DF583A5128095E6D213901AE941
:10432300E0FF25E025E02420F582E4341DF583A594
:1043330012800D06901D7FA512800CFCEF25E02551
:10434300E02423F582E4341DF583E493901D82F089
:104353007D01E40243EC901AE9E0B40D17D2139007
:104363001D20A512800D06901D7FA512800CFC90C8
:104373001D23802FD213901AE9E0FF25E025E024C6
:1043830024F582E4341DF583A512800D06901D7F6C
:10439300A512800CFCEF25E025E02427F582E43408
:1043A3001DF583E493901D82F07D01E4FFA5128047
:1043B30095EFD213901AE9E0FF25E025E02420F5DC
:1043C30082E4341DF583A512800D06901D7FA5128E
:1043D300800CFCEF25E025E02423F582E4341DF571
:1043E30083E493901D82F0E4FDFFA5128095EF9086
:1043F3001AEAE014FDD211901D7A7402F0D212E48D
:10440300FFA512809BE5A5128090A0A512808B6961
:104413007F0A7E00A51280696C9012DAE07002A315
:10442300E0600302407BA512809F9E02407BE47FF5
:104433002C7E01FDFC901DB37415F0A3741FF0A531
:1044430012808CF2A51281380ED211E4901D7AF0FD
:10445300D212FDFFA512809BE5D211E4901D7AF0E4
:10446300D212FD7F01A512809BE5903034E07003EA
:1044730030244ED2137B807A1C79EE901D7FA512D7
:10448300800CFC901D82740AA5128095EBD2137BDD
:10449300807A1C79F9901D7FA512800CFC901D82F7
:1044A3007401F0FDE4FFA5128095EFE47FC47E095B
:1044B300FDFC901DB37415F0A3741FF0A512808C3E
:1044C300F2903034E070030245A0A51280FF91E41E
:1044D3007F64A512808CE9A51280BF8DE47F64A55B
:1044E30012808CE97E017FC07D007B007A1A79EE11
:1044F300A512800DAB7F807E027D087C0075371A84
:104503007538EE753901753AC0A51280A3CBE490D6
:104513001AEBF0901AEBE0FF75F007901AF2A51270
:10452300800CE5E0FE75F007EF90000CA512800CFF
:10453300E5E06E7057901AEBE075F007901AEFA55F
:1045430012800CE5E0FE75F007EF900009A51280DC
:104553000CE5E0B50636901AEBE075F007901AF01B
:10456300A512800CE5E0FCA3E0FD75F007EF9000D9
:104573000AA512800CE5E0FEA3E0B5050FEEB50435
:104583000B901AEBE004F0E064407087901AEBE0C4
:1045930064406004A37401F0E4903034F0202403F9
:1045A300024693A51280D438E47F64A512808CE977
:1045B3007E007F687D007B007A1C79AEA512800D9A
:1045C300AB7F807E017D087C0075371C7538AE7526
:1045D3003900753A68A51280A3CB901CAEE0FF901A
:1045E3000447E06F600302468B901CAFE0FEA3E03C
:1045F300FF900448E06E7003A3E06F600302468BF4
:10460300901CB1E0FEA3E0FF90044AE06E7003A3A8
:10461300E06F7074901CB3E0FEA3E0FF90044CE0E5
:104623006E7003A3E06F7060901CB5E0FF90044EC2
:10463300E06F7054901CB6E0FF90044FE06F704839
:10464300901CB7E0FEA3E0FF900450E0B50639A349
:10465300E0B50734901CB9E0FEA3E0FF900452E0FC
:10466300B50625A3E0B50720901CBDE0FEA3E0FF3F
:10467300900456E0B50611A3E0B5070C901D15E0B4
:10468300FF9004AEE06F6006901AEC7401F0C22450
:10469300901AECE07003024736A5128090A0D21363
:1046A3007B807A1C79FB901D7FA512800CFC901DEA
:1046B300827413A5128095EBD2137B807A1D790F38
:1046C300901D7FA512800CFC901D827410F07D015B
:1046D300E4FFA5128095EF90302D740FF0E4901A4B
:1046E300EBF090302DE0603BA512808B6EA512801D
:1046F30097EF901AEDEFF0F460E8901AEDE024E5FF
:104703006010240E70DCE4901AECF0901AEB04F0C5
:10471300800A901AEC7401F0901AEBF0901AEBE017
:10472300B401BF90302DE0600302401E901AECF0FC
:1047330002401E901AEC7401F002401EA502809004
:10474300A0901D31EDF0901D30EFF0E4901D32F09C
:10475300901D53F0EF24FD601D1460251460351483
:10476300605124FC6066240860030247F190042C26
:10477300E030E075806B90042DE030E002806280D1
:104783006890042DE030E0028057E4901D32F090F1
:104793000434801190042DE030E0028044E4901D45
:1047A30032F0900436E0FFA3E0901D51CFF0A3EF69
:1047B300F0803B9010BEE0FF54066008901D3274F9
:1047C30003F0802AEF30E0028017801D9010C7E0CD
:1047D300FF30E708901D327402F08012EF5403603B
:1047E30008901D327401F08005E4901D32F0301101
:1047F30003024A33901D30E0FF25E025E0247BF5DA
:1048030082E43409F583E493FD7C00C004C005EF22
:1048130025E025E02478F582E43409F583A51280A8
:104823000D0678337C1D7D00D007D006A5128009C4
:10483300C8901D30E0FF64046008EF640560030264
:104843004990901D32E06003024990900490E0FE8D
:10485300A3E0FFEE600302492DEF24F6602A24A6AD
:10486300606F2463600302492D7B807A0879F79097
:104873001F2CA512800CFC901D51E0FFA3E0901F9C
:104883002FCFF0A3EF02491B7B807A0879FA901FA0
:104893002CA512800CFC900490E0FAA3E0FB901D81
:1048A30051E0FEA3E0FFAD03AC02A512800A07901E
:1048B3001F2FEEF0A3EFF0901D51E0FEA3E0FFAD3C
:1048C30003AC02A512800A07901F31ECF0A3ED8020
:1048D300477B807A097900901F2CA512800CFC90ED
:1048E3000490E0FAA3E0FB901D51E0FEA3E0FFADCE
:1048F30003AC02A512800A07901F2FEEF0A3EFF07E
:10490300901D51E0FEA3E0FFAD03AC02A512800AA7
:1049130007901F31ECF0A3EDF07B007A1D7947A5DA
:1049230012800E4E901D53E02FF0901D53E0FF7E3A
:1049330000901D30E025E025E0247BF582E4340976
:10494300F583E4932433F9E4341DA801FC7D007B53
:10495300007A1D7947A5128009C8901D31E0FDD268
:10496300137B007A1D7933901D7FA512800CFC9078
:104973001D30E025E025E0247BF582E43409F5834E
:10498300E493FF901D53E0FEEF2E024A26901D3262
:10499300E0FF25E025E024ABF582E43409F583E468
:1049A30093FD7C00C004C005EF25E025E024A8F5B5
:1049B30082E43409F583A512800D06C001901D30F1
:1049C300E025E025E0247BF582E43409F583E493D4
:1049D3002433F9E4341DA801FC7D00D001D007D0B5
:1049E30006A5128009C8901D31E0FDD2137B007A21
:1049F3001D7933901D7FA512800CFC901D32E0259C
:104A0300E025E024ABF582E43409F583E493FF90D9
:104A13001D30E025E025E0247BF582E43409F583AD
:104A2300E4932F901D82F0E4FFA5128095EF80059B
:104A3300901D32E0FFA522901D16E0FF7D01901D21
:104A43002FEDF0901D2EEFF06402600FE0FF640382
:104A53006009EF64046004EFB40511901D2EE0FFBC
:104A6300A3E0FDC211A5128047448041901D2FE0B1
:104A7300FDD213901D2EE0FF25E025E02478F5827A
:104A8300E43409F583A512800D06901D7FA51280DD
:104A93000CFCEF25E025E0247BF582E43409F58363
:104AA300E493901D82F0E4FFA5128095EFA522E424
:104AB300901D40F0A3F0A3F0A3F0A3740AF0A37435
:104AC30002F0901D4714F0E4A3F0A3F0901D5EF0F4
:104AD300901D40F0901D40E0FFC39440503175F0AD
:104AE30007EF900008A512800CE5E0601A901D40C6
:104AF300E075F007900009A512800CE5E0540A6008
:104B030006901D49E004F0901D40E004F080C57E4E
:104B1300007F147D007B007A1D794AA512800DABBE
:104B2300901D49E070107B807A097916901F2CA59F
:104B330012800CFC80167B807A097921901F2CA5AA
:104B430012800CFC901D49E0901F2FF07B007A1D12
:104B5300794AA512800E4E901D5EEFF0D2137B00B2
:104B63007A1D794A901D7FA512800CFC901D5EE092
:104B7300A5128095E87F02A51280936DE47FB87E2D
:104B83000BA512808CEA901D46A512809BCF901D29
:104B9300457402F0E4901D40F0901D40E0FFC39483
:104BA30040501FEF25E025E02407F582E4342DF57E
:104BB30083E0600E901D48E004F0901D40E004F097
:104BC30080D7901D47E07003024ECD7E007F157D98
:104BD300007B007A1D7916A512800DAB7E007F1530
:104BE3007D007B007A1D792BA512800DABE4901D0F
:104BF30041F0901D40F0901D43E0901D40F0901D4A
:104C030044E0FF901D40E0FEC39F4003024E4F90DF
:104C13001D43E02405FDE433FCEEC39DEC6480F802
:104C23007480984003024D27901D40E025E025E065
:104C33002407F582E4342DF583E07003024E469099
:104C43001D41E075F004A42416F9741D35F0FA7BB8
:104C530000C003C002C0017B807A097931901F2C08
:104C6300A512800CFC901D40E025E025E02407F50B
:104C730082E4342DF583E0901F2FF0D001D002D0D1
:104C830003A512800E4EE4901D42F0901D40E07586
:104C9300F007900009A512800CE5E0FF20E007E48F
:104CA300901D42F0803EEF540A6008901D4274024A
:104CB300F08031901D40E0FF75F007900009A512C8
:104CC300800CE5E020E20F75F007EF90000CA512D1
:104CD300800CE5E07008901D427403F08006901D7F
:104CE300427401F0901D42E0FF25E025E024BBF56E
:104CF30082E43409F583E493FD7C00C004C005EF2E
:104D030025E025E024B8F582E43409F583A5128073
:104D13000D06C001901D41E075F004A42418F97438
:104D23001D024E2E901D48E0FF901D40E0FEC39FE4
:104D33004003024E4FEE25E025E02407F582E434DC
:104D43002DF583E07003024E46901D41E075F0049B
:104D5300A42417F9741D35F0FA7B00C003C002C008
:104D6300017B807A097931901F2CA512800CFC906D
:104D73001D40E025E025E02407F582E4342DF5838A
:104D8300E0901F2FF0D001D002D003A512800E4E69
:104D9300E4901D42F0901D40E075F007900009A5D6
:104DA30012800CE5E0FF20E007E4901D42F0803E16
:104DB300EF540A6008901D427402F08031901D4048
:104DC300E0FF75F007900009A512800CE5E020E2F2
:104DD3000F75F007EF90000CA512800CE5E070084A
:104DE300901D427403F08006901D427401F0901DE3
:104DF30042E0FF25E025E024BBF582E43409F58396
:104E0300E493FD7C00C004C005EF25E025E024B851
:104E1300F582E43409F583A512800D06C001901DC7
:104E230041E075F004A42419F9741D35F0A801FCC0
:104E33007D00D001D007D006A5128009C8901D417E
:104E4300E004F0901D40E004F0024C017B007A1D69
:104E53007916A512800010EF4E70127B007A1D792F
:104E63002BA512800010EF4E7003024F83D2137BE9
:104E7300007A1D7916901D7FA512800CFC901D826F
:104E83007414A5128095EBD2137B007A1D792B90B5
:104E93001D7FA512800CFC901D41E024FB25E0251D
:104EA300E0901D82F07D01E4FFA5128095EF901D37
:104EB30045E014FDD211901D7A7402F0D212E4FF82
:104EC300A512809BE5E4901D47F0A5128097EF9013
:104ED3001D46EFF024E57003024F8324CB60462484
:104EE30008707A901D45E0B4021AD211901D7A74AD
:104EF30002F0D212E4FDFFA512809BE5901D4574DC
:104F030001F08059901D43E0D394004050901D431D
:104F1300E024FBF0A3E024FBF0901D477401F09024
:104F23001D45F08038901D45E0B4010DA512809B0E
:104F3300D7901D457402F08024901D48E0FF901D1A
:104F430044E0C39F5017901D43E02405F0A3E024E1
:104F530005F0901D477401F0901D4504F0A51280E3
:104F63008B697F0A7E00A51280696C9012DAE0706B
:104F730002A3E06003024BC5A512809F9E024BC5AE
:104F8300A522901D1FE0FDD2117F01901D23EFF09C
:104F9300A3EDF0E4901D46F0A3F0901D3BF0FE7FDF
:104FA30016FD7B007A1D7925A512800DAB901D247B
:104FB300E064037003025088E0FF25E025E0249FAE
:104FC300F582E4341FF583E493FD7C00C004C0053F
:104FD300EF25E025E0249CF582E4341FF583A51238
:104FE300800D0678257C1D7D00D007D006A5128094
:104FF30009C830115DA5128107D1901D24E025E079
:1050030025E0249FF582E4341FF583E493901D4744
:10501300F0901D3BE0FF901D46E0C39F5025E0FF4D
:1050230004F0743C2FF582E4341DF583E0FF901DFA
:1050330047E0FE04F074252EF582E4341DF583EF7A
:10504300F080CE901D47E02425F582E4341DF583DE
:10505300E4F0901D23E0FDD2137B007A1D792590A7
:105063001D7FA512800CFC901D24E025E025E02483
:105073009FF582E4341FF583E493FF901D3BE0FE2C
:10508300EF2E02518820113AD213901D24E0FF2500
:10509300E025E0249CF582E4341FF583A512800DFE
:1050A30006901D7FA512800CFCEF25E025E0249FD0
:1050B300F582E4341FF583E493901D82F0E4FD024E
:1050C300518D901D24E0FF25E025E0249FF582E427
:1050D300341FF583E493FD7C00C004C005EF25E095
:1050E30025E0249CF582E4341FF583A512800D0688
:1050F30078257C1D7D00D007D006A5128009C8A5A0
:10510300128107D1901D24E025E025E0249FF5823C
:10511300E4341FF583E493901D47F0901D3BE0FFBB
:10512300901D46E0C39F5025E0FE04F0743C2EF52D
:1051330082E4341DF583E0FE901D47E0FD04F07426
:10514300252DF582E4341DF583EEF080CE901D47C6
:10515300E02425F582E4341DF583E4F0901D23E07B
:10516300FDD2137B007A1D7925901D7FA512800C3B
:10517300FC901D24E025E025E0249FF582E4341F04
:10518300F583E4932F901D82F0E4FFA5128095EF41
:10519300A522901D1AEFF0A3EDF0E4901D26F0A3D5
:1051A3007405F07E007F0A7D007B007A1D791CA5C3
:1051B30012800DAB901D1AE0FF64027057EF25E0DB
:1051C30025E0249CF582E4341FF583A512800D06A7
:1051D300C003C002C001EF25E025E0249FF582E46F
:1051E300341FF583E493FD901D1BE0901D40F07B7D
:1051F300007A1D791CA3A512800CFC7A1D792790D7
:105203001D44A512800CFCD001D002D003A512804E
:10521300E49E8059901D1AE0FF25E025E0249CF5CB
:1052230082E4341FF583A512800D06C003C002C0BB
:1052330001EF25E025E0249FF582E4341FF583E4A4
:1052430093FD901D1BE0901D59F07B007A1D791C86
:10525300A3A512800CFC7A1D7927901D5DA51280F1
:105263000CFCD001D002D003A51280F768901D2654
:10527300EFF0A5128090A0901D26E064017031C26A
:1052830011901D7AF0D212FDFFA512809BE5901DAF
:105293001AE0FF7A1D7B1C901D4D741DF0A374272B
:1052A300F0D212E4FDFCA5128107E9A5128090A0BB
:1052B300C3A522901D20E0FDD211E4FF901D25EF30
:1052C300F0A3EDF0E4A3F0FE7F2CFD7B007A2F79B1
:1052D300CDA512800DAB201137D213901D26E0FF10
:1052E30025E025E024CAF582E43419F583A512806C
:1052F3000D06901D7FA512800CFCEF25E025E02410
:10530300CDF582E43419A5128095E47F000254138D
:10531300901D26E0FF25E025E024CDF582E4341935
:10532300F583E493FD7C00C004C005EF25E025E090
:1053330024CAF582E43419F583A512800D0678CDCD
:105343007C2F7D00D007D006A5128009C8901D26AA
:10535300E0FF25E025E024CDF582E43419F583E46C
:105363009324CDF582E4342FAD82FC901D41741D4E
:10537300F0A37427F0C212E4FBFAA512810D339057
:105383001D25E0FDD2137B007A2F79CD901D7FA5DB
:1053930012800CFC901D26E025E025E024CDF5824B
:1053A300E43419F583E493FF901D27E0FEEF2E907C
:1053B3001D82F0E4FFA5128095EF901D26E0FF25E6
:1053C300E025E024CDF582E43419F583E493FE90DF
:1053D3001D27E0FDEE2D24CDF582E4342FF583E483
:1053E300F0EF25E025E024CDF582E43419F583E4DC
:1053F30093FF2DFDE433FCD3ED9414EC648094808F
:10540300400C901D27E0FEEF2E24ECFF80027F006E
:10541300A522901D1AEFF0A3EDF0E4901D3AF0A33E
:10542300F0C210901D1AE0FF25E0241AF582E4343F
:105433001AF583740193901D3BF0EF6018640160CB
:1054430014EF6402600FEF6407600AEF64086005FD
:10545300EF6409705B901D1AE0FF25E025E024CA84
:10546300F582E43419F583A512800D06C003C0024A
:10547300C001EF25E025E024CDF582E43419F5835E
:10548300E493FD901D1BE0901D40F07B007A1D7995
:105493001CA3A512800CFC7A1D793B901D44A51218
:1054A300800CFCD001D002D003A51280E49E805969
:1054B300901D1AE0FF25E025E024CAF582E43419A3
:1054C300F583A512800D06C003C002C001EF25E0DD
:1054D30025E024CDF582E43419F583E493FD901D92
:1054E3001BE0901D59F07B007A1D791CA3A5128047
:1054F3000CFC7A1D793B901D5DA512800CFCD0013C
:10550300D002D003A51280F768901D3AEFF0A512E0
:105513008090A0901D3AE064017031C211901D7A11
:10552300F0D212FDFFA512809BE5901D1AE0FF7AD1
:105533001D7B1C901D41741DF0A3743BF0D212E43B
:10554300FDFCA512810D33A5128090A0A210A52207
:10555300901D17E0FD7F01901D1AEFF0A3EDF0E41D
:10556300A3F0FE7F1AFD7B007A1D791DA512800D25
:10557300AB901D1BE0A512800D1355B100562801F9
:1055830056AD0257240357A90458960558200658C8
:105593009607589808589609598D0A5A380B5ACFC6
:1055A3000C5B7A0D5C250E5CBC0F00005D75901DD5
:1055B3001BE0FF25E025E024C4F582E4341BF583DA
:1055C300E493FD7C00C004C005EF25E025E024C181
:1055D300F582E4341BF583A512800D06781D7C1D2E
:1055E3007D00D007D006A5128009C8901D1BE025B9
:1055F300E025E024C4F582E4341BF583E493901D95
:105603001CF0241DF9E4341DFA7B00C003C002C062
:10561300017B807A1B7985901F2CA512800CFC904E
:10562300109602590C901D1BE0FF25E025E024C4D1
:10563300F582E4341BF583E493FD7C00C004C005CC
:10564300EF25E025E024C1F582E4341BF583A512A0
:10565300800D06781D7C1D7D00D007D006A5128025
:1056630009C8901D1BE025E025E024C4F582E4343D
:105673001BF583E493901D1CF0241DF9E4341DFAFB
:105683007B00C003C002C0017B807A1B7985901F19
:105693002CA512800CFC900490E0FEA3E0FFFBAA73
:1056A30006E4F9F890109A025ABA901D1BE0FF2500
:1056B300E025E024C4F582E4341BF583E493FD7C08
:1056C30000C004C005EF25E025E024C1F582E434E1
:1056D3001BF583A512800D06781D7C1D7D00D00768
:1056E300D006A5128009C8901D1BE025E025E02403
:1056F300C4F582E4341BF583E493901D1CF0241D50
:10570300F9E4341DFA7B00C003C002C0017B807A38
:105713001B7985901F2CA512800CFC90109E0259BA
:105723000C901D1BE0FF25E025E024C4F582E43442
:105733001BF583E493FD7C00C004C005EF25E02541
:10574300E024C1F582E4341BF583A512800D0678AD
:105753001D7C1D7D00D007D006A5128009C8901DB1
:105763001BE025E025E024C4F582E4341BF583E443
:1057730093901D1CF0241DF9E4341DFA7B00C00333
:10578300C002C0017B807A1B7985901F2CA51280F3
:105793000CFC900490E0FEA3E0FFFBAA06E4F9F8FA
:1057A3009010A2025ABA901D1BE0FF25E025E024C9
:1057B300C4F582E4341BF583E493FD7C00C004C08C
:1057C30005EF25E025E024C1F582E4341BF583A52C
:1057D30012800D06781D7C1D7D00D007D006A51212
:1057E3008009C8901D1BE025E025E024C4F582E470
:1057F300341BF583E493901D1CF0241DF9E4341D40
:10580300FA7B00C003C002C0017B807A1B798590BC
:105813001F2CA512800CFC9010A602590C901D1B86
:10582300E0FF25E025E024C4F582E4341BF583E49E
:1058330093FD7C00C004C005EF25E025E024C1F5FD
:1058430082E4341BF583A512800D06781D7C1D7D33
:1058530000D007D006A5128009C8901D1BE025E0E3
:1058630025E024C4F582E4341BF583E493901D1CE6
:10587300F0241DF9E4341DFA7B00C003C002C0010B
:105883007B807A1B7985901F2CA512800CFC9010CD
:10589300AA8076807C901D1BE0FF25E025E024C4D0
:1058A300F582E4341BF583E493FD7C00C004C0055A
:1058B300EF25E025E024C1F582E4341BF583A5122E
:1058C300800D06781D7C1D7D00D007D006A51280B3
:1058D30009C8901D1BE025E025E024C4F582E434CB
:1058E3001BF583E493901D1CF0241DF9E4341DFA89
:1058F3007B00C003C002C0017B807A1B7985901FA7
:105903002CA512800CFC9010AEA512800C52025AEA
:105913002D901D1BE0FF25E025E024C4F582E4342F
:105923001BF583E493FD7C00C004C005EF25E0254F
:10593300E024C1F582E4341BF583A512800D0678BB
:105943001D7C1D7D00D007D006A5128009C8901DBF
:105953001BE025E025E024C4F582E4341BF583E451
:1059630093901D1CF0241DF9E4341DFA7B00C00341
:10597300C002C0017B807A1B7989901F2CA51280FD
:105983000CFCE4901F2FF0025D64901D1BE0FF25CB
:10599300E025E024C4F582E4341BF583E493FD7C25
:1059A30000C004C005EF25E025E024C1F582E434FE
:1059B3001BF583A512800D06781D7C1D7D00D00785
:1059C300D006A5128009C8901D1BE025E025E02420
:1059D300C4F582E4341BF583E493901D1CF0241D6D
:1059E300F9E4341DFA7B00C003C002C0017B807A56
:1059F3001B7985901F2CA512800CFC901076A512A4
:105A0300800C5290107EA512800C70A512800AC9DA
:105A1300C006C007900490E0FEA3E0FBAA06E4F9E9
:105A2300F8D007D006A512800B64901F2FA5128013
:105A33000CD8025D64901D1BE0FF25E025E024C423
:105A4300F582E4341BF583E493FD7C00C004C005B8
:105A5300EF25E025E024C1F582E4341BF583A5128C
:105A6300800D06781D7C1D7D00D007D006A5128011
:105A730009C8901D1BE025E025E024C4F582E43429
:105A83001BF583E493901D1CF0241DF9E4341DFAE7
:105A93007B00C003C002C0017B807A1B7985901F05
:105AA3002CA512800CFC900490E0FEA3E0FFFBAA5F
:105AB30006E4F9F890106EA512800C52A512800B23
:105AC30064901F2FA512800CD8025D64901D1BE00B
