:020000040000FA
:10000000021B85080001009600A522A5028137F495
:10001000E4FFFEA54860090FEF70010EA56980F3AB
:02002000A52217
:10002300A502806EECEFB40A09740DA512800035A9
:10003300740A309811A899B8130CC2983098FDA887
:0F00430099C298B811F63099FDC299F599A52286
:10005300A5028151B5202020202020BBB6D3ADB905
:10006300E2C1D900202020202020C1E3C7AEB2BBCB
:10007300D7E30020202020D1A1D4F1C9CCC6B7B347
:10008300ACCAB120202020002020C7EBB2E5C8EB8A
:10009300B8FCD0A1C3E6B6EED6BDB1D2002020C7CE
:1000A300EBD1A1BBF5BBF2BCCCD0F8CDB6B1D2211C
:1000B30000C8B7B6A8454E54455220C8A1CFFB434C
:1000C300414E43454C0020202020C7EBC8A1C1E38B
:1000D300C7AE00C8A1CFFB43414E43454C0020208F
:1000E3002020CAE4C8EBB4EDCEF300C8B7B6A845E8
:1000F3004E544552002020C7EBCDB6C8EBD6BDB158
:10010300D2BBF2D3B2B1D200BFCDBBA7D3E0B6EE20
:100113003A00D1A1D4F1C6E4CBFCC9CCC6B7C2F036
:100123003F200020202020BBFAC6F7B9CAD5CF0054
:100133002020C9CCC6B7D2D1CADBCDEA002020200B
:10014300202020D0BBD0BB2100202020202020D481
:10015300DDCDA3B7FECEF10020202020D5D2C1E310
:10016300C6F7B9CAD5CF002020C7EBC9D4BAF22E3F
:100173002E2E00BDF0B6EEB2BBD7E32C20BCD3C706
:10018300AEC2F03F20002020D5FDD4DAB3F6BBF594
:100193002E2E2E002020D5FDD4DAD5D2C1E32E2E6B
:1001A3002E0020202020D5D2C1E3CAA7B0DC002036
:1001B300202020486F772061726520796F752100B8
:1001C300C7EBCAE4C8EBC6E4CBFCC9CCC6B7B1E005
:1001D300BAC5002020C7EBD1A1D4F1C6E4CBFCC93A
:1001E300CCC6B7002020C7EBC8A1BBF52E2E2E002E
:1001F3002020C7EBC8A1D7DFCDCBB1D22E2E2E0046
:100203002020C9CCC6B7BBF5B5C0B9CAD5CF00202D
:1002130020D1A1D4F1C6E4CBFCC9CCC6B7C2F03F10
:1002230000202020202020B2D9D7F7B3ACCAB100D8
:1002330020202020D5FDD4DACDCBBFEE00C7B7BF39
:10024300EE3A0020202020C7EBCDB6C8EBD3B2B1E5
:10025300D20020202020C7EBB2E5C8EBD6BDB1D237
:1002630000B2BBD5D2C1E3A3ACB9BAC2F2C7EBCDDE
:10027300B6B1D2004556373733362D5542204D445B
:10028300422056312E363734002020BBB9D2AAB9CA
:10029300BAC2F2C9CCC6B7C2F03F0020202020204A
:1002A30020CEDEC1E3B1D2002020C9CCC6B7BCDB6F
:1002B300B8F13A002020CBF9D1A1C9CCC6B7D4DD1F
:1002C300CAB100C8B1BBF5002020B9CAD5CF002000
:1002D30020CDCBB1D2BDF0B6EE3A002020B5B1C7E8
:1002E300B0BDF0B6EE3A002020C7EBCBA2BFA82EDC
:1002F3002E2E002020CDB6B1D22D3ED1A1BBF52D9F
:100303003EC8A1BBF52020002020CCF9BFA82D3E7C
:10031300D1A1BBF52D3EC8A1BBF52020002020BFF5
:10032300A8D3E0B6EEB2BBD7E32E2E2E002020B624
:10033300C1BFA8CAA7B0DC2E2E2E002020BFA8D391
:10034300E0B6EE3A002020BDF0B6EEB2BBD7E32E06
:100353002E2E00202020202020CFD6BDF0CFFBB7AB
:10036300D100202020202020CBA2BFA8CFFBB7D1D3
:10037300002020C7EBD1A1BBF521002020202020A5
:1003830020D4DDCDA3CFD6BDF0BDBBD2D700564D13
:1003930044455600564D5245430025750025752E9C
:1003A30025750025752E253032750025732025759A
:1003B3000025732025752E25750025732025752EA0
:1003C30025303275002573257500257325752E2577
:1003D3007500257325752E25303275002573256C20
:1003E30075002573256C752E256C75002573256C9A
:1003F300752E2530326C75002000257300202000F7
:10040300D5D2C1E3B2BBD7E300C9CCC6B7D2D1CAF8
:10041300DBCDEA005B25303262785D202025730056
:100423008000580E8000670E8000761480008B14C5
:100433008000A0138000B4148000C90C8000D60A89
:100443008000E10C8000EE098000F81280010B09A6
:10045300800115108001260C8001330C8001400BB4
:1004630080014C0E80015B0E80016A0B80017612C5
:100473008001890D8001970D8001A50C8001B210C8
:100483008001C3128001D6108001E70B8001F30FB6
:100493008002030E800212118002240E8002330CAC
:1004A300800240058002460E8002550E80026412CF
:1004B3008002771480028C1180029E0C8002AB0BA9
:1004C3008002B70E8002C6048002CB088002D20BE2
:1004D3008002DE0B8002EA0B8002F61480030B1409
:1004E3008003200F8003300D80033E098003480DF5
:1004F3008003560E8003650E8003740980037E1209
:100503008003910580039705312ED6BDB1D2C6F77E
:10051300D7B4CCAC3A2000322ED3B2B1D2C6F7D77F
:10052300B4CCAC3A2000332ECEE5BDC7D5D2C1E35F
:100533003A2000342ED2BBD4AAD5D2C1E33A20004C
:10054300352E2333D5D2C1E3C6F7D7B4CCAC3A208A
:1005530000362ECAD6BBFAC4A3BFE9D7B4CCACB21B
:10056300E2CAD400372EB6CCD0C5B2E2CAD4003822
:100573002EBBF5B5C0D7B4CCAC00392EBBF5B5C096
:10058300D7B4CCACBFECCBD9B2E9D1AF0031302E6C
:1005930020BBF5B5C0BCECB2E20031312E20BBF577
:1005A300B5C0B2E2CAD4BDE1B9FB0031322E20D1CD
:1005B300A1BBF5B0B4C5A5BCECB2E20031332E202B
:1005C300D3CECFB7B0B4C5A5BCECB2E20031342E64
:1005D30020CDCBB1D2B0B4C5A5BCECB2E20031356D
:1005E3002E20B6C1BFA8C6F7B2E2CAD43A20003162
:1005F300362E20D1B9CBF5BBFAB2E2CAD4003137DB
:100603002E20D5B9CABEB5C6B2E2CAD400D5FDB351
:10061300A300B9CAD5CF00CEDE00B2BBD7E300CE6C
:10062300B400D5FD00B9CA00C8B100C8B7B6A84523
:100633004E54455220C8A1CFFB43414E43454C0085
:10064300C0DBBCC6B2E2CAD4B4CECAFD3A2025751B
:1006530000BBF5B5C02530326275B9CAD5CFB4CE6B
:10066300CAFD3A257500D5FDD4DABCECB2E22025EB
:100673003032627520BBF5B5C00020202020C7EBC7
:10068300C9D4B5C82E2E2E002020BBF5B5C0B0E5C9
:100693003A20B9CAD5CF202020002020BBF5B5C011
:1006A30025303262753A20B9CAD5CF2020200020E8
:1006B30020BBF5B5C025303262753A20CEDEBBF5DE
:1006C300202020002020BBF5B5C0202530326275E4
:1006D3003A2020D5FDB3A3200020202020D3B2B19F
:1006E300D2C6F7B2E2CAD400C7EBCDB6B1D23A0054
:1006F3002020B1D2B6B7D2D1C2FA2C20C7EBB4A610
:10070300C0ED2100D2D1CDB6C8EBBDF0B6EE3A2094
:10071300257500D2D1CDB6C8EBBDF0B6EE3A202593
:10072300752E257500D2D1CDB6C8EBBDF0B6EE3A25
:100733002025752E25303275002020D3B2B1D2C6C4
:10074300F7CAC7B7F1D5FDB3A33F00257300D5B9E9
:10075300CABEB5C600D1B9CBF5BBFA0020202573BC
:10076300B2E2CAD400312DB4F2BFAA2020322DB98F
:10077300D8B1D5002573D2D1B4F2BFAAA3ACC7EBCD
:10078300C8B7C8CF002573D2D1B9D8B1D5A3ACC7E8
:10079300EBC8B7C8CF00C7EBB2BBD2AACBE6D2E255
:1007A300B9D8B1D5C9E8B1B8A3A10020202020D67B
:1007B300BDB1D2C6F7B2E2CAD4002020D6BDB1D2B1
:1007C300C6F7CAC7B7F1D5FDB3A33F002020CEE5D6
:1007D300BDC7CDCBB1D2A3ACD2BBB4CEC1BDC3B622
:1007E300002020D2BBD4AACDCBB1D2A3ACD2BBB410
:1007F300CEC1BDC3B60020202020B0B4C5A5B2E24F
:10080300CAD42100CAE4C8EBB0B4C5A53A00CAE40F
:10081300C8EBB0B4C5A53A2025627500202020207E
:10082300D3CECFB7B0B4C5A5B2E2CAD42100D3D0DA
:10083300BCFCB0B4CFC22C20D4F2C3F9BDD0D2BB20
:10084300C9F90020202020CDCBB1D2B0B4C5A5B2C8
:10085300E2CAD4210025750025752E25750025755E
:100863002E2530327500BBF5B5C025303262753A9E
:1008730020257300CEDEB9CAD5CFBBF5B5C000B90C
:10088300CAD5CFBBF5B5C02530326275B8F60025A1
:1008930030326275200080050B0E80051A0E80052C
:1008A300290C8005360C8005431080055412800501
:1008B300670A8005720A80057D128005900C800509
:1008C3009D108005AE108005BF108005D0108005F7
:1008D300E1108005F20E8006010E800610048006EA
:1008E300150480061A0280061D0480062202800673
:1008F30025028006280280062B028F828E83EDF567
:10090300F0FFECFEE8FDE582600205834583600E9F
:10091300A548A55CA569A56DD582F5D583F2ABF095
:10092300ECFAE8F9A522EF8DF0A4A8F0CF8CF0A49F
:1009330028CE8DF0A42EFEA522BC000CBE002BEF0A
:100943008DF084FFADF0A522E4CCF875F008EF2F0D
:10095300FFEE33FEEC33FCEE9DEC984005FCEE9D80
:10096300FE0FD5F0E9E4CEFDA522EDF8F5F0EE8417
:1009730020D21DFEADF075F008EF2FFFED33FD40E3
:1009830008985007D5F0F2A522C398FD0FD5F0E9DA
:10099300A522C2D5EC30E709B2D5E4C39DFDE49CA2
:1009A300FCEE30E717B2D5E4C39FFFE49EFEA51229
:1009B30080093CC3E49DFDE49CFC8005A5128009ED
:1009C3003C30D507C3E49FFFE49EFEA522C5F0F8A3
:1009D300A3E028F0C5F0F8E582158270021583E0E4
:1009E30038F0A522A3F8E0C5F025F0F0E5821582E2
:1009F30070021583E0C838F0E8A522EF2BFFEE3A2A
:100A0300FEED39FDEC38FCA522E88FF0A4CC8BF089
:100A1300A42CFCE98EF0A42CFC8AF0EDA42CFCEAB7
:100A23008EF0A4CDA8F08BF0A42DCC3825F0FDE9F1
:100A33008FF0A42CCD35F0FCEB8EF0A4FEA9F0EBE7
:100A43008FF0A4CFC5F02ECD39FEE43CFCEAA42DF3
:100A5300CE35F0FDE43CFCA52275F008758200EF6D
:100A63002FFFEE33FECD33CDCC33CCC58233C582DD
:100A73009BED9AEC99E58298400CF582EE9BFEED96
:100A83009AFDEC99FC0FD5F0D6E4CEFBE4CDFAE465
:100A9300CCF9A882A522B800C0B9005BBA002EEC3D
:100AA3008BF084CFCECDFCE5F0CBF97818EF2FFF98
:100AB300EE33FEED33FDEC33FCEB33FB10D7039940
:100AC3004004EB99FB0FD8E5E4F9FAA5227818EF77
:100AD3002FFFEE33FEED33FDEC33FCC933C910D7E2
:100AE300059BE99A4007EC9BFCE99AF90FD8E0E4EF
:100AF300C9FAE4CCFBA52275F010EF2FFFEE33FE0D
:100B0300ED33FDCC33CCC833C810D7079BEC9AE840
:100B130099400AED9BFDEC9AFCE899F80FD5F0DAC1
:100B2300E4CDFBE4CCFAE4C8F9A522EB9FF5F0EAA7
:100B33009E42F0E99D42F0EC6480C864809845F0E1
:100B4300A522EB9FF5F0EA9E42F0E99D42F0E89C76
:100B530045F0A522E0FCA3E0FDA3E0FEA3E0FFA592
:100B630022E493FC740193FD740293FE740393FFD8
:100B7300A522E0F8A3E0F9A3E0FAA3E0FBA522E4B1
:100B830093F8740193F9740293FA740393FBA52207
:100B93007401FF3395E0FEFDFCA3A3A3E0CF2FF088
:100BA300E582158270021583E0CE3EF0E582158260
:100BB30070021583E0CD3DF0E58215827002158346
:100BC300E0CC3CF0A522ECF0A3EDF0A3EEF0A3EF14
:100BD300F0A522A42582F582E5F03583F583A522CD
:100BE300E0FBA3E0FAA3E0F9A522EBF0A3EAF0A36C
:100BF300E9F0A522E493FB740193FA740293F9A537
:100C030022F8D0E0F5834480FBD0E0FAD0E0F9A5E8
:100C1300487012A549700EA56AA549C0E0A548C051
:100C2300E0C083A522A54A6860EFA56B80E1F8D0F8
:100C3300E0F5834480FBD0E0FAD0E0F9A5487012D8
:100C4300A549700EA56AA549C0E0A548C0E0C083C8
:100C5300A522A54AB5F005A54B6860EAA56880DC26
:100C63008F828E83EDFFECFEE8FDE5826002058353
:100C7300458370047F00A522A548F5F0A54CA5691E
:100C8300A56DB5F006D582F0D583ED7FFFB5F003F2
:100C93000FA52240027F01A522EF4E6019EF6001EC
:100CA3000EED89828A838BF0A558A569DFFADEF8F9
:100CB3008BF0A982AA83A522F8E0FBA3A3E0F92580
:100CC300F0F0E582158270021583E0FA38F0A52270
:100CD300E5272448F582E43426F583E005272290AE
:100CE3002645301A03902648E475F001A512800CBE
:100CF300BBA548222013E77F2ED2138018EF540F91
:100D03002490D43440D4FF30170BEF24BFB41A001F
:100D130050032461FFE52860021528052BE52B709D
:100D230002052A301A10902645E475F001A51280B9
:100D33000CBBEFA55822A512800028227403D21AF7
:100D43008003E4C21AF527902645A512800BEDE433
:100D5300F528F52AF52BE52860097F20A512800DDB
:100D63001880F37529FFC214C213C215C216C21824
:100D7300C219C21B120CE2FF700E301A057F00125B
:100D83000D29AF2BAE2AA522B4255FC2D5C21712F7
:100D93000CE2FF24D0B40A00501A75F00A78283008
:100DA300D50508B6FF0106C6A426F620D5047002B1
:100DB300D21680D924CFB41A00EF5004C2E5D2175B
:100DC300020F40D21480C6D21380C0D21580BCD289
:100DD300D580BAD21880B47F20120D18201507745D
:100DE30001B5280040F1120CD3FF120D18020D5962
:100DF300D21BD2198095120CD3FB120CD3FA120C0E
:100E0300D3F94A4B700679137A107B8020153AE5A3
:100E13002860367E00E9C0E02EF9EAC0E03400FA2B
:100E2300A548F9D0E0FAD0E0C960060EEE65297056
:100E3300E4C2D5EBC0E0EAC0E0E9C0E0EE120F89FE
:100E4300D0E0F9D0E0FAD0E0FBA548FF609FEBC00B
:100E5300E0EAC0E0E9C0E0120D18D0E02401F9D0C7
:100E6300E03400FAD0E0FBE5290460DDD529DA029D
:100E73000DF07B807A0F7985D215809079108002EE
:100E83007908C219C21B8008D2D5790A8004790A6D
:100E9300C2D5E529047002F529E4FAFDFEFF120C20
:100EA300D3FC7B08201413120CD3FD7B1030130AE0
:100EB300120CD3FE120CD3FF7B20EC3382D592D5D8
:100EC3005013C3E43013069FFFE49EFEE420140393
:100ED3009DFDE49CFCE4CBF8C214EC700CCFCECDAA
:100EE300CCE824F8F870F38017C3EF33FFEE33FE3A
:100EF300ED33FDEC33FCEB33FB994002FB0FD8E9F8
:100F0300EB301405F8D0E0C448B214C0E00AEC4D4D
:100F13004E4F78207B0070C2EAB5290040BCC0E088
:100F2300120F8BD0F0D0E0201404C4C0E0C4B2147C
:100F3300C0F0120D01D0F0D5F0EB020D59A51280CF
:100F43000C040DF9530E7F580DCA4C0DC6420E8387
:100F53004F0E8B440E8B490DDF430E91550E754694
:100F63000E75450E7547102E500DCE2D0DD22E0D3C
:100F7300F52B0DD6230DF320101C2A0D8E480000EF
:100F83000DED3F3F3F00790AA2D520161430180912
:100F9300B910020404B9080104A2D52019025001B2
:100FA300042015689215B528005034C0E07F203026
:100FB30016197F30A21572197218500F120FE2C260
:100FC30015C219C218C21B7F30800F301803E9C045
:100FD300E0120D18301803D0E0F9D0E0B528CC307A
:100FE30018177F30B9100C120D187F583017077F70
:100FF300788003B90803120D183015057F2D020DF3
:10100300187F20201BF87F2B2019F322921580CF05
:10101300286E756C6C2900D214120CD33014F8C2EC
:1010230014782830D50108F6020D8E120CD3C0E0D7
:10103300C4120D01D0E0120D01743A120D09D2163B
:10104300752804020E7F312E2331D5D2C1E3C6F7B2
:10105300C3E6D6B53A00322E2332D5D2C1E3C6F762
:10106300C3E6D6B53A00332E2333D5D2C1E3C6F750
:10107300C3E6D6B53A00342ED4CAD0EDB6E0B4CE2A
:10108300B9BAC2F23A00352EB2BBC2F2BBF5CDCB30
:10109300B1D23A00362EBFAAC6F4D6BDB1D2C6F736
:1010A3003A00372EBFAAC6F4CAD6BBFAC4A3BFE917
:1010B3003A00382ED3E0B6EECFC2CFDE3A00392E57
:1010C300CAD5B1D2C9CFCFDE3A0031302E20D2C932
:1010D300CECABDF0B6EE3A0031312E20BBFAC6F7C8
:1010E300B1E0BAC53A200031322E47534DBAC5C2DA
:1010F300EB3A0031332E20C7B7CCF53A0031342E0A
:1011030020D0A1CAFDB5E33A0031352E202331D6D4
:10111300BDB1D23A0031362E202332D6BDB1D23AF8
:101123000031372E202333D6BDB1D23A0031382EC9
:10113300202334D6BDB1D23A0031392E202335D6FF
:10114300BDB1D23A0032302E202336D6BDB1D23AC9
:101153000032312E202337D6BDB1D23A0032322E9F
:10116300202338D6BDB1D23A0032332E202331D3D7
:10117300B2B1D23A0032342E202332D3B2B1D23AB2
:101183000032352E202333D3B2B1D23A0032362E79
:10119300202334D3B2B1D23A0032372E202335D3B1
:1011A300B2B1D23A0032382E202336D3B2B1D23A7A
:1011B3000032392E20BFAAC6F4B3F6BBF5C8B7C8B0
:1011C300CF3A0033302E20BDBBD2D7CAB1BCE43AEC
:1011D3000033312E20B2BBD5D2C1E3C4A3CABD3A7A
:1011E3000033322E20BFAAC6F4D3B2B1D2C6F73A27
:1011F3000033332E20BFAAC6F4B9ABBDBBBFA83A98
:101203000033342E20B6C1BFA8CAB1BCE43A0033C0
:10121300352E20D4DDB4E6D6BDB1D2C4A3CABD3ABF
:101223000033362E20CEE5D4AAD6BDB1D2D4DDB458
:10123300E63A0033372E20CAAED4AAD6BDB1D2D4F3
:10124300DDB4E63A0033382E20BFAAC6F441434446
:1012530043C4A3BFE93A0025750025752E25750003
:1012630025752E253032750025627500253262788A
:10127300002530326278008010490F8010590F80AA
:1012830010690F8010790F8010890D8010970D80E1
:1012930010A50F8010B50B8010C10B8010CD0D80F1
:1012A30010DB0D8010EA0B8010F6098011000B8013
:1012B300110C0B8011180B8011240B8011300B8043
:1012C300113C0B8011480B8011540B8011600B8073
:1012D300116C0B8011780B8011840B8011900B80A3
:1012E300119C0B8011A80B8011B4118011C60D80C5
:1012F30011D40F8011E40F8011F40F8012040D80BC
:10130300121211801224118012361180124811001A
:1013130005000500050001000100010001000500B2
:10132300050005000500100001000100050005008F
:101333000500050005000500050005000500050082
:10134300050005000500050001000500010001007E
:10135300010002000100010001000141018500427A
:1013630013C90000410207014113CB0042060100EB
:101373000041000200C120C121C19DC122C19FC102
:101383001E4100000041000100412E2600412E1E97
:1013930000412E1F00412E2000C125412E25014171
:1013A3002E2400411C9C00412DE700412DE8004103
:1013B3002DE900C100412DEB00412DEC00412DED45
:1013C30000412DEE00412DEF00412DF000C103C17E
:1013D30004C105C106C107C108C109C10AC10BC1C6
:1013E3000CC10DC10E412DF100462D740800010002
:1013F3009600412DBA00C129011500412E27004155
:101403001CE100411CDD00411CE501411CDF01C161
:1014130023C124411CE300620026F70000800580FD
:101423000F000A801B001E00148011803300360059
:101433003C80390028802D802700228063006600CD
:101443006C80690078807D807700720050805580C1
:101453005F005A804B004E0044804180C300C600A9
:10146300CC80C900D880DD80D700D200F080F58021
:10147300FF00FA80EB00EE00E480E100A080A5808D
:10148300AF00AA80BB00BE00B480B1809300960079
:101493009C80990088808D808700828183018601EA
:1014A3008C81890198819D8197019201B081B581D9
:1014B300BF01BA81AB01AE01A481A101E081E58145
:1014C300EF01EA81FB01FE01F481F181D301D60131
:1014D300DC81D901C881CD81C701C2014081458129
:1014E3004F014A815B015E01548151817301760191
:1014F3007C81790168816D81670162812301260105
:101503002C81290138813D813701320110811581F8
:101513001F011A810B010E010481018303030603DA
:101523000C83090318831D83170312033083358348
:101533003F033A832B032E032483210360836583B4
:101543006F036A837B037E037483718353035603A0
:101553005C83590348834D8347034203C083C58398
:10156300CF03CA83DB03DE03D483D183F303F60300
:10157300FC83F903E883ED83E703E283A303A60374
:10158300AC83A903B883BD83B703B2039083958368
:101593009F039A838B038E038483810280828582D7
:1015A3008F028A829B029E0294829182B302B602C8
:1015B300BC82B902A882AD82A702A282E302E6023C
:1015C300EC82E902F882FD82F702F202D082D58230
:1015D300DF02DA82CB02CE02C482C1824302460218
:1015E3004C82490258825D82570252027082758290
:1015F3007F027A826B026E026482610220822582FC
:101603002F022A823B023E023482318213021602E7
:101613001C82190208820D8207020200CFB5CDB3E6
:10162300D5FDD4DAC6F4B6AF2C20C7EBC9D4B5C800
:1016330000D5FDD4DAB8FCB8C4C9CCC6B7D3E0C171
:10164300BF2E2E2E00C9CCC6B7D3E0C1BFB8FCB89D
:10165300C4CAA7B0DC2100C9CCC6B7D3E0C1BFB8A8
:10166300FCB8C4B3C9B9A6210020202020C4E3C814
:10167300B7B6A8B8FCB8C4C2F03F00C8B7B6A8450F
:101683004E54455220C8A1CFFB43414E43454C0025
:10169300D5FDD4DAB8FCB8C4C9CCC6B7BCDBB8F145
:1016A3002E2E2E00C9CCC6B7BCDBB8F1B8FCB8C42B
:1016B300CAA7B0DC2100C9CCC6B7BCDBB8F1B8FC03
:1016C300B8C4B3C9B9A6210020202020C4E3C8B7F9
:1016D300B6A8CCEDC2FAC2F03F00D5FDD4DACCED0A
:1016E300C2FA2E2E2E00CCEDC2FAB2D9D7F7CAA772
:1016F300B0DC2100CCEDC2FAB2D9D7F7B3C9B9A691
:101703002100CAE4C8EBB2E3BCDCB1E0BAC53A00DD
:10171300B1E0BAC5CAE4C8EBB4EDCEF300C7EBCA77
:10172300E4C8EBC6E4CBFCB1E0BAC500C4E3C8B778
:10173300B6A8CCEDC2FAB4CBB2E3BCDCC2F03F0036
:10174300D5FDD4DACCEDC2FAB5B1C7B0B2E3BCDC97
:101753002E2E2E00B2E3BCDCCCEDC2FAB2D9D7F701
:10176300CAA7B0DC2100B2E3BCDCCCEDC2FAB2D92B
:10177300D7F7B3C9B9A62100257300B2B9D3B2B163
:10178300D200C8A1D6BDB1D2002020C4E3C8B7B6E9
:10179300A82573C2F03F002020D5FDD4DA257300BD
:1017A3002573CAA7B0DC21002573B3C9B9A62100EC
:1017B30020202020C4E3C8B7B6A8CDACB2BDC2F088
:1017C3003F00D5FDD4DACDACB2BD2C20C7EBC9D4D4
:1017D300B5C82E2E2E00CDACB2BDB2D9D7F7B3C942
:1017E300B9A621002020C4E3C8B7B6A8C7E5B5E36E
:1017F300C2F03F00D5FDD4DAC7E5B5E32C20C7EB33
:10180300C9D4B5C82E2E2E00C7E5B5E3CDEAB1CFB6
:10181300A3ACC7EBBACBB6D42100C7E5B5E3BDF0A3
:10182300B6EE3A20257500C7E5B5E3BDF0B6EE3A4E
:101833002025752E257500C7E5B5E3BDF0B6EE3A54
:101843002025752E2530327500312EBBF5B5C0B27B
:10185300CECAFD00322EBBF5B5C0D7B4CCACBFECBD
:10186300CBD9B2E9D1AF00332EBCD3C2FAC8ABB2E5
:10187300BFBBF5B5C000342EB2B9D3B2B1D2CDEAF5
:10188300B3C900352EC8ABCFB5CDB3CDACB2BD0017
:10189300362EBCD3C2FAB2E3BCDCBBF5B5C000370D
:1018A3002EC8A1D6BDB1D2CDEAB3C900382EC9E83E
:1018B300B1B8B9DCC0ED00392ECFB5CDB3B2CECAC5
:1018C300FD0031302E20BBF5BCDCC5E4D6C30031AE
:1018D300312E20B3F6B3A7C4ACC8CFC5E4D6C3003A
:1018E30031322E20B4D3BBFACCEDBBF50031332E0D
:1018F30020BBF5B5C0BCECB2E20031342E20BDBB39
:10190300D2D7BCC7C2BC002020C8B7B6A8B3F6B3B1
:10191300A7C5E4D6C3C2F03F00C8B7B6A8454E5426
:10192300455220C8A1CFFB43414E43454C003000F4
:101933002020D5FDD4DAB1A3B4E6002000B1A3B4CE
:10194300E6CAA7B0DCA3ACD6D8D0C2C9E8D6C33F99
:10195300002020454E54455220202043414E43450C
:101963004C0080184C0A8018571280186A0E801891
:10197300790C8018860C8018930E8018A20C80189E
:10198300AF0C8018BA0C8018C50C8018D2108018C0
:10199300E30C8018F00C8018FD0C312EB2E3BCDC94
:1019A300B1E0BAC53A00322ECAC7B7F1C6F4D3C301
:1019B3003A00332ED7EEB4F3B4E6BBF5C1BF3A0019
:1019C300342EB5DAD2BBBBF5B5C03A00352EB5DA45
:1019D300B6FEBBF5B5C03A00362EB5DAC8FDBBF589
:1019E300B5C03A00372EB5DACBC4BBF5B5C03A0063
:1019F300382EB5DACEE5BBF5B5C03A00392EB5DAE7
:101A0300C1F9BBF5B5C03A0031302E20B5DAC6DFD7
:101A1300BBF5B5C03A0031312E20B5DAB0CBBBF5FA
:101A2300B5C03A00C7EBCAE4C8EBC3DCC2EB3A006B
:101A3300C3DCC2EBB4EDCEF3210025627500202098
:101A4300200020002020202000CAE4C8EBB2E3BC21
:101A5300DCB1E0BAC53A00B1E0BAC5CAE4C8EBB438
:101A6300EDCEF300C7EBCAE4C8EBC6E4CBFCB1E0B0
:101A7300BAC50080199D0B8019A90B8019B50D807B
:101A830019C30B8019CF0B8019DB0B8019E70B806F
:101A930019F30B8019FF0B801A0B0D801A190D8097
:101AA3001A270B801A33090001000100020001000C
:101AB300010001000100010001000100012020C418
:101AC300E3C8B7B6A8C2F03F00C8B7B6A8454E549E
:101AD300455220C8A1CFFB43414E43454C00202033
:101AE300C3BBD3D0BDBBD2D7BCC7C2BC00D6BDCA53
:101AF300D53A00CFD6D6BDCAD53A003159CAD53A60
:101B030000CFD63159CAD53A00354ACAD53A00CFA3
:101B1300D6354ACAD53A003159D5D23A00CFD63153
:101B230059D5D23A00354AD5D23A00CFD6354AD51F
:101B3300D23A0025303575202573256C752E253056
:101B4300326C7500256C752E2530326C7500801A49
:101B5300C00B801ACC14801AE10E801AF006801A8A
:101B6300F608801AFE06801B0408801B0C06801BE7
:101B73001208801B1A06801B2008801B2806801B66
:101B83002E08A575FF07758E0378FEE4F6D8FD755C
:101B93008187A575FB00759008A502801BCCA50263
:101BA30080CA50E493A3F85407240CC8C333C45425
:101BB3000F4420C8834004F456800146F6DFE480D6
:101BC3000B010204081020408090135EE47E019311
:101BD30060CCA3FF543F30E509541FFEE493A36098
:101BE300010ECF54E0B4E01CE493FBA3E493FAA307
:101BF300E493F9A3E493A558A309E970010ADFF478
:101C0300DEF280C854C025E060254097E493A3FA30
:101C1300E493A3F8E493A3C8C582C8CAC583CAF0F2
:101C2300A3C8C582C8CAC583CADFE9DEE7809DE4CD
:101C330093A3F8E493A34003F68001F208DFF48052
:101C43008B312EBBF5B5C0B1E0BAC53A2000322EB8
:101C5300C9CCC6B7D3E0C1BF3A2000332EB5A5BC6B
:101C6300DB3A2000342EBBF5B5C0D7B4CCAC3A2058
:101C730000352EC9CCC6B7B1E0BAC53A200025302D
:101C830032627500253362750025750025752E2592
:101C9300750025752E2530327500256275002532B5
:101CA300627500BBF5B5C02530326275D3E0C1BFA4
:101CB300A3BA00801C440C801C510C801C5E08805D
:101CC3001C670C801C740C20002020202020202066
:101CD3002020202020202020202020202000C7EBAF
:101CE300CAE4C8EBB1E0BAC53A2000B1E0BAC5CA4C
:101CF300E4C8EBB4EDCEF300C7EBCAE4C8EBC6E42B
:101D0300CBFCB1E0BAC500202020202020202020D9
:101D1300202020202020202020202000C2D5E830B1
:101D2300E70FB2D5E4C39BFBE49AFAE499F9E4988C
:101D3300F8EC30E71BB2D5A512801D5BA512800A13
:101D430099E4C39BFBE49AFAE499F9E498F88005D3
:101D5300A512800A9930D50DE4C39FFFE49EFEE4EB
:101D63009DFDE49CFCA522474232333132005749A2
:101D73004E31323532000D5196105264050505057A
:101D83000505050504040404080807FF0101010112
:101D93000101010102020202030306FF50505050E9
:101DA300505050501B1B1B1B0D0D18FF090909092F
:101DB300090909092E2E2E2E000048FF00000001FC
:101DC3000000000A00000064000003E80000271080
:101DD300000186A0000F42400098968005F5E100BF
:101DE3000800010096000000000000000000000051
:101DF30000000000000100000000020003040800CE
:101E030001009600080001009600A5128157ED908D
:101E130013C9E0FEA3E0FF90261BEEF0A3EFF0E46E
:101E2300A3F0A3F0A3F09005E2E0B401139005E062
:101E3300E0FEA3E0FF90261BEE8FF0A5128009D0F1
:101E4300D390261CE0940090261BE0940050057F5D
:101E53000002212C9013CB742CF07E007F147D00A4
:101E63007B007A0579EDA512800C9C9013CBE0FFE3
:101E730025E025E02426F582E43404F583E49390F9
:101E8300261DF0FD7C00C004C005EF25E025E024FD
:101E930023F582E43404F583A512800BF778ED7CF7
:101EA300057D00D007D006A5128008FD90261DE011
:101EB300FF24EDF582E43405F5837420F09003B339
:101EC300E0FCA3E0FDEC6003021FD8ED24F6603DC7
:101ED30024A67003021F6C24636003021FD874EEF0
:101EE3002FF9E43405FA7B00C003C002C0017B80F4
:101EF3007A03799D902648A512800BED90261BE06E
:101F0300FFA3E090264BCFF0A3EF021FC690261D40
:101F1300E024EEF9E43405FA7B00C003C002C001FB
:101F23007B807A0379A0902648A512800BED90035D
:101F3300B3E0FAA3E0FB90261BE0FEA3E0FFAD03B2
:101F4300AC02A51280093C90264BEEF0A3EFF09073
:101F5300261BE0FEA3E0FFAD03AC02A51280093C03
:101F630090264DECF0A3ED805A90261DE024EEF967
:101F7300E43405FA7B00C003C002C0017B807A030E
:101F830079A6902648A512800BED9003B3E0FAA33F
:101F9300E0FB90261BE0FEA3E0FFAD03AC02A5121D
:101FA30080093C90264BEEF0A3EFF090261BE0FE59
:101FB300A3E0FFAD03AC02A51280093C90264DECD3
:101FC300F0A3EDF0D001D002D003A512800D3F9015
:101FD300261DE02FF090261DE004F0D2137B007A3B
:101FE3000579ED902647A512800BED90261DE0A5FF
:101FF30012807311900376E0FEA3E0FFC390261CCA
:10200300E09F90261BE09E40509013CB7436F0D295
:1020130013E0FF25E025E02423F582E43404F5836F
:10202300A512800BF7902647A512800BEDEF25E054
:1020330025E02426F582E43404F583E49390264ACC
:10204300F07D01E4FFA5128073189005E2E06401BE
:102053007048A51280901280419013CB7404F0D283
:1020630013E0FF25E025E02423F582E43404F5831F
:10207300A512800BF7902647A512800BEDEF25E004
:1020830025E02426F582E43404F583E49390264A7C
:10209300F07D01E4FFA512807318E47F64FEFDFC6C
:1020A30090267B7417F0A3741CF0A51280894D90C1
:1020B30016AFE0B4011A9016B1E0FCA3E0FDE4FF13
:1020C300A51280B5AFE49016AFF09016B1F0A3F06F
:1020D3009016B0E0B4011A9016B3E0FCA3E0FD7FC4
:1020E30001A51280B5AFE49016B0F09016B3F0A33B
:1020F300F09016B5E0B4011A9016B7E0FCA3E0FD2A
:102103007F64A51280B5AFE49016B5F09016B7F0D2
:10211300A3F09016B6E0B4010EA51280B5A7E49023
:1021230016B6F0A3F0A3F07F00A522E49023F0F00D
:10213300FE7F57FD7B007A03796BA512800C9C7E92
:10214300037F4A7D007B007A1379CDA512800C9C16
:102153007E037FDE7D007B007A0F79DBA512800C86
:102163009C9015FC7401F0A3F07E027F297D007B17
:10217300007A0379C2A512800C9C9005CA7401F001
:102183007E037F137D007B007A0C796DA512800C92
:102193009CE47F64A5128089447E007F887D007B58
:1021A300007A0279E2A512800C9CD211E4902647B2
:1021B300F0D212FDFFA512807F66D211E49026476C
:1021C300F0D212FD7F01A512807F66D2139004B373
:1021D300A512800BF7902647A512800BED9004B64D
:1021E300A51280730FD21390046BA512800BF79086
:1021F3002647A512800BED90046EE49390264AF0D7
:102203007D01E4FFA512807318E47F64A512808921
:10221300447F00A522A512807B3AE49023F1F0A32A
:10222300F0A3F0A3F0A3F0A3F0A3F0A3F0A3F0A313
:10223300F0A3A51280DA9C9023F4EFF0640160030D
:10224300022364900355E0FF25E024A4F582E434DF
:1022530003F583E0FDA3E09023F1CDF0A3EDF0EFD0
:10226300703B900356E0FF7E0090035AEEF0A3EF1D
:10227300F0900355E025E024A4F582E43403F583CC
:10228300E0FCA3E0FDA51280092990035EEEF0A314
:10229300EFF0900361E02FFF900360803E900355C1
:1022A300E0B40140A3E0FF7E0090035CEEF0A3EFF7
:1022B300F0900355E025E024A4F582E43403F5838C
:1022C300E0FCA3E0FDA512800929900360EEF0A3D2
:1022D300EFF090035FE02FFF90035EE03E90036218
:1022E300F0A3EFF09023F67401F09023F3F0902322
:1022F300F1E0FEA3E0FF9013C9EE8FF0A512800971
:10230300D0900F81A512800B75E4FCFDA512800906
:10231300FE900F81A512800BC9900F85A512800B2B
:10232300759023F1E0FEA3E0FFE4FCFDA512800914
:10233300FE900F85A512800BC99016AF7401F09023
:1023430023F1E0FEA3E0FF9016B1EE8FF0A512801B
:1023530009D09003B8E0FFA3E09015DACFF0A3EF24
:10236300F09023F6E064016003022428900355E013
:1023730025E024A4F582E43403F583E0FEA3E0FF23
:102383009003A4E0FCA3E0FDEFB5052DEEB5042911
:10239300900FA7A512800B75900355E025E024A4A8
:1023A300F582E43403F583E0FEA3E0FFE4FCFDA53E
:1023B300128009FE900FA7804B900355E025E0247F
:1023C300A4F582E43403F583E0FEA3E0FF9003A6C3
:1023D300E0FCA3E0FDEFB50530EEB5042C900FB1A2
:1023E300A512800B75900355E025E024A4F582E443
:1023F3003403F583E0FEA3E0FFE4FCFDA5128009AE
:10240300FE900FB1A512800BC97E007F247D007B57
:10241300007A03792EA512800C9CE4900353F0906C
:102423000355F0A3F0900372E064016003022738C0
:102433009005CAE064016003022722A512816A1590
:102443009023F4EFF0640160030227389005D9E08C
:1024530054FEF09005DFE04401F0900360E0FEA33A
:10246300E0FF90035FE02FFF90035EE03EFE9003EA
:1024730076E0FCA3E0FDD39FEC9E9023F9500AEC99
:10248300F0A3EDF0E4A3F08009EEF0A3EFF0A37462
:1024930001F0900354E025E02494F582E43403F53D
:1024A30083E0FEA3E0FF9013CAE02FFF9013C9E07F
:1024B3003EFEC39023FAE09F9023F9E09E4003027F
:1024C300254BE4FFA5128077C19023F4EFF090052C
:1024D300DFE054FEF09023FBE09013CB7010740305
:1024E300A5128072E27F02A512808C3B80487401A2
:1024F300A5128072E29013CB7403F0D213E0FF2590
:10250300E025E02423F582E43404F583A512800B4F
:10251300F7902647A512800BEDEF25E025E0242652
:10252300F582E43404F583E49390264AF07D01E4D4
:10253300FFA512807318E47FDC7E05A51280894510
:10254300A512801E12022738E49023F5F09003BDF4
:10255300E064017065900354E0FF25E02494F58264
:10256300E43403F583E0FCA3E064644C604C900323
:10257300BEE07019EF25E02494F582E43403F5837B
:10258300E0FEA3E064F47003EE640160209003BFF7
:10259300E07021900354E025E02494F582E43403B1
:1025A300F583E0FEA3E0FFBE030ABFE807E4902340
:1025B300F5F080069023F57401F09023F5E0605563
:1025C3009005E27401F0900354E025E02494F58231
:1025D300E43403F583E0FEA3E0FF9005E0EEF0A30F
:1025E300EFF09016B57401F09016B7EEF0A3EFF08C
:1025F300A512801E0D9003B8E0FFA3E09015DACF7B
:10260300F0A3EFF09023F37401F09005E9F0A374C5
:1026130068F00227389005D9E054FBF09005DFE01D
:1026230054FEF07F01A5128077C19023F4EFF06090
:10263300030227389015DEF0A37403F09015DEE053
:102643007002A3E07003022738A51280C69190237D
:10265300F4EFF06401600302271A900354E025E0CD
:102663002494F582E43403F583E0FFA3E09023F799
:10267300CFF0A3EFF09023F7E0FEA3E0FF9013C9A0
:10268300EE8FF0A5128009D0900F81A512800B75F3
:10269300E4FCFDA5128009FE900F81A512800BC9F1
:1026A300900F9DA512800B759023F7E0FEA3E0FF2A
:1026B300E4FCFDA5128009FE900F9DA512800BC9B5
:1026C3009016B07401F09023F7E0FEA3E0FF90169C
:1026D300B3EE8FF0A5128009D09003B8E0FFA3E01A
:1026E3009015DACFF0A3EFF09005E97401F0A3742D
:1026F30068F07E007F247D007B007A03790AA512AF
:10270300800C9CE4900352F0900354F0900357F034
:102713009023F304F0801EA51280704B02263FA580
:1027230012814934EF60069023F37401F0E47F0AC9
:10273300A5128089449023F3E0704A9015F0E030AD
:10274300E03F54FEF09005E2E0B401209005E0E0A4
:10275300FCA3E0FD9013C9E0FEA3E0FF2DFDEE3CDA
:10276300FCC3ED9401EC9400401780109013C9E072
:10277300FEA3E0FFC39401EE94004005A512801E62
:102783001A7F0080027F01A522E49023F0F0A3F0DA
:10279300A3F0A3F0FE7F14FD7B007A0579EDA5126B
:1027A300800C9C9015FFE0FF75F037900FE0A512A9
:1027B300800BD6E0D39400401875F037EF901011DA
:1027C300A512800BD6E0FFF460199013CCEFF080D4
:1027D300129015FFE075F037901011A512800BD6FB
:1027E30074FFF09015FFE075F037901011A512807B
:1027F3000BD6E0F47002802D9013CCE075F00690B8
:102803000008A512800BD6E0700280199013CCE06B
:1028130075F006900005A512800BD6E0FF540A70F0
:1028230004EF20E0419013CB740EA5128072E29066
:1028330013CB7419F0D213E0FF25E025E02423F530
:1028430082E43404F583A512800BF7902647A51282
:10285300800BEDEF25E025E02426F582E43404F532
:1028630083E493022B709013CB7427F09003B3E0AF
:10287300FEA3E0FFEE60030229CEEF24F6605724A7
:10288300A6700302294C246360030229CE7B807A5D
:102893000379AE902648A512800BED9013CBE0256B
:1028A300E025E02423F582E43404F583A512800BAC
:1028B300F790264BA512800BED9013CCE075F00634
:1028C300900006A512800BD6E0FFA3E090264ECF22
:1028D300F0A3EF0229BD7B807A0379B4902648A543
:1028E30012800BED9013CBE025E025E02423F58245
:1028F300E43404F583A512800BF790264BA51280D0
:102903000BED9013CCE075F006900006A512800B3A
:10291300D6E0FAA3E0FB9003B3E0FCA3E0FDAF0332
:10292300AE02A51280093C90264EEEF0A3EFF09084
:1029330003B3E0FCA3E0FDAF03AE02A51280093CA4
:10294300902650ECF0A3ED80717B807A0379BD90E3
:102953002648A512800BED9013CBE025E025E0245B
:1029630023F582E43404F583A512800BF790264BFC
:10297300A512800BED9013CCE075F006900006A530
:1029830012800BD6E0FAA3E0FB9003B3E0FCA3E0D4
:10299300FDAF03AE02A51280093C90264EEEF0A3D4
:1029A300EFF09003B3E0FCA3E0FDAF03AE02A5128A
:1029B30080093C902650ECF0A3EDF07B007A05797A
:1029C300EDA512800D3F9023F0EFF0A51280983E05
:1029D300C21EE4902E0FF09017177406F09003BBFD
:1029E300E064016003022B3D9013C6E054FB6003D7
:1029F300022B3D9013CCE075F006900006A51280E3
:102A03000BD6E0FEA3E0D39400EE94005003022B18
:102A13003DD2137B007A0579ED902647A512800BF2
:102A2300ED9023F0E090264AF07D01E4FFA51280AB
:102A330073189023F2742DA5128072E29003BCE008
:102A4300FF7E007C037DE8A512800929E4FCFDA537
:102A530012808947900F9BE475F001A5128009D07D
:102A63009013CCE075F006900006A512800BD6E01B
:102A7300FEA3E0FF900F9BE0FCA3E0FDA512816C99
:102A8300FC9023F3EFF07076900E7AE064A070452B
:102A9300A512809A41A51281648E9013CCE075F043
:102AA30006900006A512800BD6E0FCA3E0FD7F0292
:102AB300A51280B5AF9013CCE075F006900006A583
:102AC30012800BD6E0FFA3E09013C9CFF0A3EFF081
:102AD3007F01022B9F900E7AE064A170079013CBC5
:102AE3007430801F900E7AE0FF64A5600AEF64A63D
:102AF3006005EF64A7706E9013CB7431800590135B
:102B0300CB7431F0D213E0FF25E025E02423F582D6
:102B1300E43404F583A512800BF7902647A51280B1
:102B23000BEDEF25E025E02426F582E43404F5835C
:102B3300E49390264AF0E4FD801BD2137B007A05D0
:102B430079ED902647A512800BED9023F0E09026B7
:102B53004AF07D01E4FFA512807318E47FD07E075D
:102B6300A512808945E49013CCF0FF802F90264A6C
:102B7300F07D01E4FFA512807318E47FD07E07A5E2
:102B830012808945A51280983EC21EE4902E0FF054
:102B93009013CCF09017177406F07F00A522E490F1
:102BA30023F0F0900601E07002A3E07005900207A5
:102BB30004F0900207E064016003022CB19015ED6C
:102BC300E064016003022C5FC39015ECE094F49081
:102BD30015EBE094015003022C5FE4F0A3F09003A3
:102BE300BBE0640170479013C6E054FB703F901341
:102BF300CB7435A5128072E2A5128089419013CB64
:102C0300742FA512808905A51280FFECEF64016083
:102C130003022CC2D2139013CBA512808908A512EC
:102C230080FFECEF64016003022CC280739013CB2E
:102C33007434A5128072E2A5128088EFA51280FF7A
:102C4300ECEF64017079D2139013CBA5128089083D
:102C5300A51280FFECEF6401706580449015EDE0F0
:102C63006401705BC39015ECE094FA9015EBE0946B
:102C730000404C9013CB7434A5128072E2A51280ED
:102C830088EFA51280FFECEF64017033D213901329
:102C9300CBA512808908A51280FFECEF6401701F99
:102CA300900601E04402F0A3E0F07F01802A901334
:102CB300CB7410A5128072E27F02A512808C3B9028
:102CC3001717E004F0A51280221DBF01047F0280C4
:102CD30007A5128089417F01A522E49023F0F0A388
:102CE300F0A3F0A3F0A3F0A3F0A3F0A3F09023F0DC
:102CF300F0A3F09005CAE064016016D39013CAE014
:102D030094009013C9E0940040077F01A51280AF9F
:102D130014302007A512809817C220301E1CD21130
:102D2300E4902647F0D2127D01FFA512807F66C290
:102D33001EE4902E0FF09013CCF0900372E0640128
:102D43006003022E989005CAE064017003022E9876
:102D5300A512814934EF7003022E98A512814946CA
:102D63009023F0EEF0A3EFF04E7008A51280884D8B
:102D7300022E909023F0E0FEA3E0FF9013CAE02F11
:102D8300FF9013C9E03EFEC3900377E09F90037664
:102D9300E09E50349013CB7403A5128072E27F023D
:102DA300A512808C3BE47FDC7E05A512808945A5B6
:102DB3001280884D9013C9E0FCA3E0FD4C700280A3
:102DC30050AF05AE04022F12A51280E725902E1BEB
:102DD300740AF0902E1BE0600FA51281493DEF703D
:102DE30007A512807B3F80EB902E1BE0702CA51271
:102DF30080884D9023F0E0FFA3E0900378CFF0A309
:102E0300EFF0A51280CEA19013C9E07002A3E07089
:102E13007C901717F07F02022F199023F0E0FEA396
:102E2300E0FF9013C9EE8FF0A5128009D0900F81B7
:102E3300A512800B75E4FCFDA5128009FE900F819D
:102E4300A512800BC9900F9DA512800B759023F0DE
:102E5300E0FEA3E0FFE4FCFDA5128009FE900F9DB8
:102E6300A512800BC99016B07401F09023F0E0FE18
:102E7300A3E0FF9016B3EE8FF0A5128009D0900364
:102E8300B8E0FFA3E09015DACFF0A3EFF0E47F14EE
:102E9300A512808944E49023F6F09023F4F0A3F084
:102EA300900376E0FEA3E0FFC39013CAE09F901364
:102EB300C9E09E4052A512808FF6A512801E12A56E
:102EC300128157ED900372E06401702D9005CAE002
:102ED30064016025902E1B7401F0902E1BE0601995
:102EE300A512814934EF6007A51280884D800AE45A
:102EF3007F0AA51280894480E1E47FF47E01A51254
:102F03008089457F01800F9013C9E0FEA3E0FFA5F0
:102F130012801E1A7F00A5229015FFE0FF75F0377F
:102F2300900FE0A512800BD6E0D39400402275F0F9
:102F330037EF901011A512800BD6E0FFF4602390B9
:102F430015FFE0FE9013CCEFF0900206EEF0801236
:102F53009015FFE075F037901011A512800BD67411
:102F6300FFF09015FFE075F037901011A512800B5C
:102F7300D6E0F4700280129013CCE075F006900056
:102F830008A512800BD6E070669013CB740EA512C1
:102F93008072E29013CB7419F0D213E0FF25E02581
:102FA300E02423F582E43404F583A512800BF79023
:102FB3002647A512800BEDEF25E025E02426F582B8
:102FC300E43404F583E49390264AF07D01E4FFA5FD
:102FD30012807318E47FD07E07A512808945E490A0
:102FE30013CCF09015F0E04401F07F020230919091
:102FF30013CCE075F006900005A512800BD6E030E7
:10300300E004540A60679013CB740EA5128072E239
:103013009013CB7419F0D213E0FF25E025E02423AD
:10302300F582E43404F583A512800BF7902647A5B7
:1030330012800BEDEF25E025E02426F582E434042D
:10304300F583E49390264AF07D01E4FFA512807393
:1030530018E47FD07E07A512808945E49013CCF055
:103063009015F0E04401F0E49013CC801A9013CC57
:10307300E075F006900006A512800BD6E0FEA3E0F3
:103083004E70099013CCF0F07F0180027F00A522DF
:10309300E49023F0F0A3F0A3F0A3F0A3F09005E2F3
:1030A300E0B401169005E0E0FEA3E0FF9013CAE050
:1030B3002FFF9013C9E03EFE80089013C9E0FEA3E2
:1030C300E0FF9013CCE075F006900006A512800B8C
:1030D300D6E0FCA3E0D39FEC9E500302328C901306
:1030E300CB7433A5128072E29013CB7427F0900354
:1030F300B3E0FEA3E0FFEE6003023250EF24F6607C
:103103005724A670030231CE246360030232507B3E
:10311300807A0379AE902648A512800BED9013CBED
:10312300E025E025E02423F582E43404F583A512A9
:10313300800BF790264BA512800BED9013CCE07516
:10314300F006900006A512800BD6E0FFA3E09026C0
:103153004ECFF0A3EF02323F7B807A0379B49026FF
:1031630048A512800BED9013CBE025E025E0242346
:10317300F582E43404F583A512800BF790264BA562
:1031830012800BED9013CCE075F006900006A512AB
:10319300800BD6E0FAA3E0FB9003B3E0FCA3E0FDD1
:1031A300AF03AE02A51280093C90264EEEF0A3EFCA
:1031B300F09003B3E0FCA3E0FDAF03AE02A51280E1
:1031C300093C902650ECF0A3ED80717B807A037963
:1031D300BD902648A512800BED9013CBE025E0258A
:1031E300E02423F582E43404F583A512800BF790E1
:1031F300264BA512800BED9013CCE075F0069000E2
:1032030006A512800BD6E0FAA3E0FB9003B3E0FC23
:10321300A3E0FDAF03AE02A51280093C90264EEE5B
:10322300F0A3EFF09003B3E0FCA3E0FDAF03AE0225
:10323300A51280093C902650ECF0A3EDF07B007AB8
:103243000579EDA512800D3F9023F0EFF0D2137BAB
:10325300007A0579ED902647A512800BED9023F0B7
:10326300E090264AF07D01E4FFA512807318E47F05
:10327300DC7E05A512808945E49013CCF09015F00F
:10328300E04401F07F010234779005E2E0640160DD
:103293000302346D7F01A5128077C19023F3EFF011
:1032A30060030234179015DEF0A37403F09015DE6B
:1032B300E07002A3E070030233B5A51280C69190BB
:1032C30023F4EFF0640160030233AD9005E0E0FF07
:1032D300A3E09023F1CFF0A3EFF09023F1E0FEA35E
:1032E300E0FF9013C9EE8FF0A5128009D0900F81F3
:1032F300A512800B75E4FCFDA5128009FE900F81D9
:10330300A512800BC9900F9DA512800B759023F118
:10331300E0FEA3E0FFE4FCFDA5128009FE900F9DF3
:10332300A512800BC99016B07401F09023F1E0FE52
:10333300A3E0FF9016B3EE8FF0A5128009D07E00B4
:103343007F247D007B007A03790AA512800C9CE41C
:10335300900352F0900354F0900357F09005E2F07D
:103363009005E0F0A3F09016AFE0B4011A9016B107
:10337300E0FCA3E0FDE4FFA51280B5AFE49016AF37
:10338300F09016B1F0A3F09016B0E0B401249016BB
:10339300B3E0FCA3E0FD7F01A51280B5AFE4901676
:1033A300B0F09016B3F0A3F08008A51280704B0222
:1033B30032B09015DEE07002A3E0600302346D903A
:1033C30005E2F09005E0F0A3F09016B604F0E4A354
:1033D300F0A3F09016B6E0B4010EA51280B5A7E4F1
:1033E3009016B6F0A3F0A3F0A512801E129013CC92
:1033F300E075F006900006A512800BD6E0FEA3E070
:10340300FF9013C9E0FCA3E0FDD3EF9DEE9C405A6F
:103413007F018060E49005E2F09005E0F0A3F09076
:1034230016B604F0E4A3F0A3F09016B6E0B4010ED0
:10343300A51280B5A7E49016B6F0A3F0A3F0A512E9
:10344300801E129013CCE075F006900006A5128042
:103453000BD6E0FEA3E0FF9013C9E0FCA3E0FDD38D
:10346300EF9DEE9C40047F01800AE49005DFF0901D
:1034730005D9F0FFA5227F019023F3EFF0E4A3F039
:10348300A3A512808FF39017167401F09023F3E035
:1034930060030235C79013CB7414A5128072E27EC9
:1034A300007F147D007B007A0579EDA512800C9CCA
:1034B3009003B3E0FEA3E0FFEE60030235C4EF2404
:1034C300F6603D24A6700302355C24636003023773
:1034D3001F7B807A0379C8902648A512800BED9054
:1034E30004D3A512800BF790264BA512800BED9009
:1034F30013C9E0FFA3E090264ECFF0A3EF0235B34C
:103503007B807A0379CD902648A512800BED900439
:10351300D3A512800BF790264BA512800BED9003D9
:10352300B3E0FAA3E0FB9013C9E0FEA3E0FFAD0311
:10353300AC02A51280093C90264EEEF0A3EFF0906A
:1035430013C9E0FEA3E0FFAD03AC02A51280093C62
:10355300902650ECF0A3ED80577B807A0379D590C9
:103563002648A512800BED9004D3A512800BF7908B
:10357300264BA512800BED9003B3E0FAA3E0FB907A
:1035830013C9E0FEA3E0FFAD03AC02A51280093C22
:1035930090264EEEF0A3EFF09013C9E0FEA3E0FFF8
:1035A300AD03AC02A51280093C902650ECF0A3EDCC
:1035B300F07B007A0579EDA512800D3F9023F5EF9E
:1035C300F002371F9023F3E06402600302376E902A
:1035D30013CB7414A5128072E27E007F147D007BEE
:1035E300007A0579EDA512800C9C9003B3E0FEA34D
:1035F300E0FFEE600302371FEF24F6603A24A67063
:10360300030236A32463600302371F7B807A0379A6
:10361300DF902648A512800BED9004EBA512800BDA
:10362300F790264BA512800BED900E7CA512800B14
:103633005790264E02370A7B807A0379E590264815
:10364300A512800BED9004EBA512800BF790264B8F
:10365300A512800BED9003B3E0FEA3E0FFFBAA06E7
:10366300E4F9F8900E7CA512800B57A512800A99F5
:1036730090264EA512800BC99003B3E0FEA3E0FF92
:10368300FBAA06E4F9F8900E7CA512800B57A5124D
:10369300800A99AC00AD01AE02AF03902652806759
:1036A3007B807A0379EF902648A512800BED900476
:1036B300EBA512800BF790264BA512800BED900320
:1036C300B3E0FEA3E0FFFBAA06E4F9F8900E7CA5A5
:1036D30012800B57A512800A9990264EA512800BD3
:1036E300C99003B3E0FEA3E0FFFBAA06E4F9F89058
:1036F3000E7CA512800B57A512800A99AC00AD0170
:10370300AE02AF03902652A512800BC97B007A0547
:1037130079EDA512800D3F9023F5EFF0D2137B00D6
:103723007A0579ED902647A512800BED9023F5E0FD
:1037330090264AF07D01E4FFA512807318E47F64AC
:10374300A5128089449013CCE0FF9016BFF0E4A348
:10375300F075F006EF900006A512800BD6E0FFA3EC
:10376300E09016C1CFF0A3EFF080299023F3E0643B
:103773000170219013CB7414A5128072E27F02A50D
:1037830012808C3BE47F64A5128089449016BFE0CD
:103793009013CCF0E49016BEA51280EFD39023F4DF
:1037A300EFF0BF0704E4023CEA9023F4E0A51280A3
:1037B3000C0437D1003AA8013AA8023C7A033C7AB8
:1037C3000437D1053C7A073CA60800003CF7902358
:1037D300F3E06003B402219013CCE075F00690008F
:1037E30006A512800BD6E0FEA3E0FFC39013CAE048
:1037F3009FF09013C9E09EF09023F3E0B401229070
:1038030016C1E0FEA3E0FF9013C9E0FCA3E0FDC3F3
:103813009FEC9E400CED9FFFEC9E9013C9F0A3EF2D
:10382300F09013CB741AA5128072E29023F3E06038
:10383300030239B1A51280A785EF7027900373E0C7
:10384300B40116B4011DA3E0FEA3E0FFC39013CAA5
:10385300E09F9013C9E09E500A7F02A512808C3B23
:103863000239B17E007F147D007B007A0579EDA5D6
:1038730012800C9C9003B3E0FEA3E0FFEE60030212
:103883003988EF24F6603D24A670030239202463AF
:1038930060030239887B807A0379C8902648A51291
:1038A300800BED9004D3A512800BF790264BA51245
:1038B300800BED9013C9E0FFA3E090264ECFF0A359
:1038C300EF0239777B807A0379CD902648A5128061
:1038D3000BED9004D3A512800BF790264BA5128015
:1038E3000BED9003B3E0FAA3E0FB9013C9E0FEA352
:1038F300E0FFAD03AC02A51280093C90264EEEF02A
:10390300A3EFF09013C9E0FEA3E0FFAD03AC02A563
:103913001280093C902650ECF0A3ED80577B807A0F
:103923000379D5902648A512800BED9004D3A512F8
:10393300800BF790264BA512800BED9003B3E0FAB2
:10394300A3E0FB9013C9E0FEA3E0FFAD03AC02A527
:103953001280093C90264EEEF0A3EFF09013C9E0DD
:10396300FEA3E0FFAD03AC02A51280093C902650F4
:10397300ECF0A3EDF07B007A0579EDA512800D3F05
:103983009023F5EFF0D2137B007A0579ED9026476B
:10399300A512800BED9023F5E090264AF07D01E41B
:1039A300FFA512807318E47FC8A512808944901381
:1039B300CCE0FF75F006900008A512800BD6E0144A
:1039C300F075F006EF900008A512800BD6E0701397
:1039D3009013CCE075F006900005A512800BD6E09D
:1039E3004404F09023F4E0B405139013CCE075F095
:1039F30006900005A512800BD6E04402F0A51280C4
:103A0300AF89900F89A512800B759013CCE075F0E8
:103A130006900006A512800BD6E0FEA3E0FFE4FCAF
:103A2300FDA5128009FE900F89A512800BC9900F86
:103A33008DE475F001A5128009D0A51280AF3890EE
:103A430023F3E0B401059016C580039016C4A512B4
:103A5300815AE2E49016BEF0A3E0FDA3E0FBA3E0ED
:103A6300FFA3E09023FACFF0A3EFF0E4FFA51281C8
:103A730061729015D8E4F0A37464F09015D8E070E7
:103A830002A3E0601BA512809C2B5008E4FDFFA558
:103A930012809A67A51280B63E9023F6EFF080DB82
:103AA3007F00023D18A5128072DD9013CCE075F003
:103AB30006900005A512800BD6E04402F09023F394
:103AC300E0FF600764026003023C3FA51280A78504
:103AD300EF64016003023C1EFE7F14FD7B007A0548
:103AE30079EDA512800C9C9003B3E0FEA3E0FFEEFA
:103AF3006003023BFBEF24F6603D24A67003023B08
:103B03009324636003023BFB7B807A0379C890268E
:103B130048A512800BED9004D3A512800BF79026D5
:103B23004BA512800BED9013C9E0FFA3E090264E46
:103B3300CFF0A3EF023BEA7B807A0379CD9026484E
:103B4300A512800BED9004D3A512800BF790264BA2
:103B5300A512800BED9003B3E0FAA3E0FB9013C929
:103B6300E0FEA3E0FFAD03AC02A51280093C902662
:103B73004EEEF0A3EFF09013C9E0FEA3E0FFAD0318
:103B8300AC02A51280093C902650ECF0A3ED8057BF
:103B93007B807A0379D5902648A512800BED90049B
:103BA300D3A512800BF790264BA512800BED900343
:103BB300B3E0FAA3E0FB9013C9E0FEA3E0FFAD037B
:103BC300AC02A51280093C90264EEEF0A3EFF090D4
:103BD30013C9E0FEA3E0FFAD03AC02A51280093CCC
:103BE300902650ECF0A3EDF07B007A0579EDA51259
:103BF300800D3F9023F5EFF0D2137B007A0579ED2A
:103C0300902647A512800BED9023F5E090264AF00D
:103C13007D01E4FFA51280731880077F02A512803F
:103C23008C3BE47FE87E03A5128089459013C9E0AD
:103C3300FFA3E09005EBCFA512803D1EA51280AF38
:103C430076900F8FE475F001A5128009D0A512803C
:103C5300AF38A51280AE249023F3E0B4010590168B
:103C6300C580039016C4E0FFA512815AE4A5128112
:103C730061577F02023D18A5128072DDA51280AF45
:103C8300769023F3E0B401059016C580039016C423
:103C9300E0FFA512815AE4A512816157E47FC47E37
:103CA30009803BA5128072DD9013CCE075F006907D
:103CB3000005A512800BD6E04404F0A51280AF895D
:103CC3009023F3E0B401059016C580039016C4A5B4
:103CD30012815AE2A512816157E47FE87E03A5129F
:103CE3008089457F00802EA51280EFD39023F4EFC7
:103CF300F00237AC9016BFE0FDA3E0FBA3E0FFA307
:103D0300E09023FACFF0A3EFF09016BEE0FFA512E8
:103D13008161727F00A5229005EBEEF0A3EFF0E442
:103D23009013C9F0A3F0E49023F7F0A3F0A3F0A35A
:103D3300F0A3F0A3F0A3F0A304F0A3F0A3F0E4A393
:103D4300F0A3F0902404F0A3F0A512809012A51222
:103D530080902E900377E024C8FF900376E0340030
:103D6300FED39005ECE09F9005EBE09E4005EEF05E
:103D7300A3EFF09013CB741BA5128072E2A51280FF
:103D830089417E007F147D007B007A0579EDA512C1
:103D9300800C9C9003B3E0FEA3E0FFEE6003023EC1
:103DA300A7EF24F6603D24A67003023E3F24636020
:103DB30003023EA77B807A0379C8902648A5128028
:103DC3000BED9004CFA512800BF790264BA5128024
:103DD3000BED9005EBE0FFA3E090264ECFF0A3EFB1
:103DE300023E967B807A0379CD902648A512800BFC
:103DF300ED9004CFA512800BF790264BA512800BF4
:103E0300ED9003B3E0FAA3E0FB9005EBE0FEA3E043
:103E1300FFAD03AC02A51280093C90264EEEF0A341
:103E2300EFF09005EBE0FEA3E0FFAD03AC02A512BB
:103E330080093C902650ECF0A3ED80577B807A03F9
:103E430079D5902648A512800BED9004CFA512805A
:103E53000BF790264BA512800BED9003B3E0FAA36A
:103E6300E0FB9005EBE0FEA3E0FFAD03AC02A5127F
:103E730080093C90264EEEF0A3EFF09005EBE0FEB8
:103E8300A3E0FFAD03AC02A51280093C902650ECE1
:103E9300F0A3EDF07B007A0579EDA512800D3F903C
:103EA30023FDEFF0D2137B007A0579ED902647A529
:103EB30012800BED9023FDE0A5128089349015EF5D
:103EC3007401F0E49016A9F0A3F0A3F0A3F0900519
:103ED300EBE0FEA3E0FF7C007D32A51280093C905D
:103EE3002404EFF0A5128096E5902403EFF060031D
:103EF300024147A3E0FFC3132414FEE433901710D9
:103F0300F0A3CEF0901710E07002A3E0700302411B
:103F1300477B007A247905A5128093B6902403EF9A
:103F2300F0600302413B7B007A037953902616A588
:103F330012800BED7A03792EA5128094149024033A
:103F4300EFF0BF01BF900353E06401600302401030
:103F530090032EE0FF900364E4F0A3EFF0E4A3F0FA
:103F6300A3F0900364E0FAA3E0FB7C007D32FFAE94
:103F730002A5128009299016A9EEF0A3EFF07D6443
:103F83007F007E00A512800929A3EEF0A3EFF09035
:103F930016A9E0FEA3E0FFC39005ECE09FFF9005A8
:103FA300EBE09EFE9016ABE0FCA3E0FDC3EF9DFFAC
:103FB300EE9C9005EBF0A3EFF0900F95EA8BF0A544
:103FC300128009D0900FBBA512800B759016A9E043
:103FD300FEA3E0FFE4FCFDA5128009FE900FBBA544
:103FE30012800BC9900F91A512800B759016A9E052
:103FF300FEA3E0FFE4FCFDA5128009FE900F91A54E
:1040030012800BC9900F97E4F5F00240EC90035334
:10401300E0D394015003023F0790032EE0FF900387
:1040230064E4F0A3EFF090032FE0FF900366E4F065
:10403300A3EFF0900364E0FAA3E0FB7C007D32FF82
:10404300AE02A5128009299016A9EEF0A3EFF09015
:104053000366E0FEA3E0FF7D64A5128009299016A4
:10406300ABEEF0A3EFF09016A9E0FEA3E0FFC39040
:1040730005ECE09FFF9005EBE09EFE9016ABE0FCA5
:10408300A3E0FDC3EF9DFFEE9C9005EBF0A3EFF0E3
:10409300900F95EA8BF0A5128009D0900FBBA51263
:1040A300800B759016A9E0FEA3E0FFE4FCFDA512CA
:1040B3008009FE900FBBA512800BC9900F91A5122A
:1040C300800B759016A9E0FEA3E0FFE4FCFDA512AA
:1040D3008009FE900F91A512800BC9900366E0FE44
:1040E300A3E0FF900F97EE8FF0A5128009D0900FF9
:1040F300C5A512800B759016ABE0FEA3E0FFE4FCB0
:10410300FDA5128009FE900FC5A512800BC9900F63
:1041130091A512800B759016ABE0FEA3E0FFE4FCC3
:10412300FDA5128009FE900F91A512800BC9E490A2
:104133001710F0A3F0023F077FE87E03A5128070FB
:104143004F023F079005EBE0FEA3E0FFD39400EEA0
:10415300940040129024017401F090037AEEF0A3CE
:10416300EFF0D2228005E4902401F09016A9E0FC40
:10417300A3E0FDD39400EC9400500E9016ACE094B1
:10418300009016ABE09400401A9016ABE0FAA3E05F
:10419300FBE4FFA5128160C3E49016A9F0A3F0A38A
:1041A300F0A3F0902401E0700302436EA51280CEC9
:1041B300A19013CB7401A5128072E29013CB7420EB
:1041C300F07E007F147D007B007A0579EDA51280D7
:1041D3000C9C9013CBE0FF25E025E02426F582E438
:1041E3003404F583E493FD7C00C004C005EF25E0AF
:1041F30025E02423F582E43404F583A512800BF72C
:1042030078ED7C057D00D007D006A5128008FD90CF
:1042130013CBE025E025E02426F582E43404F5837E
:10422300E4939023FDF09003B3E0FEA3E0FFEE6080
:1042330003024344EF24F6604024A670030242D8ED
:10424300246360030243449023FDE024EDF9E43446
:1042530005FA7B00C003C002C0017B807A03799D0D
:10426300902648A512800BED90037AE0FFA3E0901F
:10427300264BCFF0A3EF0243329023FDE024EDF968
:10428300E43405FA7B00C003C002C0017B807A03DB
:1042930079A0902648A512800BED9003B3E0FAA312
:1042A300E0FB90037AE0FEA3E0FFAD03AC02A512AE
:1042B30080093C90264BEEF0A3EFF090037AE0FEEA
:1042C300A3E0FFAD03AC02A51280093C90264DECA0
:1042D300F0A3ED805A9023FDE024EDF9E43405FAD0
:1042E3007B00C003C002C0017B807A0379A69026BD
:1042F30048A512800BED9003B3E0FAA3E0FB900313
:104303007AE0FEA3E0FFAD03AC02A51280093C9066
:10431300264BEEF0A3EFF090037AE0FEA3E0FFADAF
:1043230003AC02A51280093C90264DECF0A3EDF0FE
:10433300D001D002D003A512800D3F9023FDE02FC2
:10434300F0D2137B007A0579ED902647A512800BF6
:10435300ED9023FDE090264AF07D01E4FFA5128055
:1043630073187FD07E07A51280704F7FF47E01A55E
:104373001280704FA51280780E9003B5E06401603F
:1043830033900359E0701DC390035BE094039003E3
:104393005AE09400400E900363E094F4900362E0CB
:1043A30094015009900602E04408F0800790060249
:1043B300E054F7F07F00A522E49023F0F0A51280EB
:1043C300AE24900602E04440F09013C8E04401F0AC
:1043D3009013CB740DA5128072E27F01A522E490A5
:1043E30023F3F0A3F0A3F0902E16F0900002F0A5B3
:1043F30012808FF69002077402F0302007A5128016
:104403009817C220901CB37401F0E4900601F0A346
:10441300F09015F5F0FBFAFD7F05A51280FC29A5A8
:10442300128150E7A512804991A512814CB640EF45
:104433009015F57401F0E4FBFAFD7F06A51280FCEC
:1044430029E49005E2F09005E0F0A3F0901CB3F0AE
:10445300D21390046BA512800BF7902647A5128008
:104463000BED90046EA51280730FD2137B807A0339
:1044730079FB902647A512800BED90264A7401F034
:10448300FDE4FFA512807318A51280983E900207E1
:104493007401F0E4900601F0A3F0D21D202007A5DB
:1044A30012809FEDD220D21FA512809FF59013B9E1
:1044B300E07003201D0D9013BAE06007900602E040
:1044C3004402F07D53E4FFA51280EFE9BF020E9092
:1044D3000602E04440F09013C8E04401F0E4901772
:1044E30017F090036AF0900184F0A3F0A5128150B5
:1044F300139023F4EEF0A3EFF07F00A522E49023C2
:10450300F0F0A3F0201F0302496FA512808FF67EFF
:10451300007F147D007B007A2379F2A512800C9C26
:10452300900602E030E0079023F174F1807090066A
:1045330002E030E1079023F174F28062900602E01A
:1045430030E2079023F174F38054900602E030E3E5
:104553001D9023F174F4F07B807A0379FD90264853
:10456300A512800BED7B807A0479030246F790064F
:1045730002E030E41D9023F174F5F07B807A037937
:10458300FD902648A512800BED7B807A04790C02FE
:1045930046F7900602E030E51D9023F174F6F07BB8
:1045A300807A0379FD902648A512800BED7B807AF3
:1045B3000479000246F7900602E030E61D9023F1ED
:1045C30074F7F07B807A0379FD902648A512800B5F
:1045D300ED7B807A0479000246F7900602E030E72B
:1045E3001D9023F174F8F07B807A0379FD902648BF
:1045F300A512800BED7B807A04790C0246F79006B6
:1046030001E030E01D9023F174F9F07B807A0379A7
:10461300FD902648A512800BED7B807A0479000279
:1046230046F7900601E030E11D9023F174FAF07B28
:10463300807A0379FD902648A512800BED7B807A62
:104643000479000246F7900601E030E21D9023F161
:1046530074FBF07B807A0379FD902648A512800BCA
:10466300ED7B807A0479000246F7900601E030E39F
:104673001C9023F174FCF07B807A0379FD9026482B
:10468300A512800BED7B807A047900806790060188
:10469300E030E41C9023F174FDF07B807A0379FD14
:1046A300902648A512800BED7B807A047900804424
:1046B300900601E030E51C9023F174FEF07B807AD4
:1046C3000379FD902648A512800BED7B807A04794F
:1046D300008021900601E09023F130E62C74E1F094
:1046E3007B807A0379FD902648A512800BED7B80B1
:1046F3007A04790090264BA512800BED7B007A2378
:1047030079F2A512800D3F800374FFF09023F1E04E
:10471300FF64F1600FEF64F2600AEF64F36005EF8A
:1047230064F470079013CB743780059013CB741027
:10473300A5128072E2E47FC8A51280894420220377
:1047430002490690037AE07002A3E070030249066F
:104753007B807A047917902648A512800BED90236D
:10476300F1E090264BF07B007A2379F2A3A5128027
:104773000BED7A0579EDA512800D3F9023F0EFF054
:104783009013CB7420F0E0FE25E025E02426F5828B
:10479300E43404F583E493FD7C00C004C005EE25F6
:1047A300E025E02423F582E43404F583A512800B8D
:1047B300F7C00174ED2FF9E43405A801FC7D00D0A6
:1047C30001D007D006A5128008FD9013CBE025E0A9
:1047D30025E02426F582E43404F583E493FF902353
:1047E300F0E02FF09003B3E0FEA3E0FFEE600302DE
:1047F3004902EF24F6604024A6700302489624631E
:1048030060030249029023F0E024EDF9E43405FA51
:104813007B00C003C002C0017B807A03799D902690
:1048230048A512800BED90037AE0FFA3E090264B9E
:10483300CFF0A3EF0248F09023F0E024EDF9E43445
:1048430005FA7B00C003C002C0017B807A0379A014
:10485300902648A512800BED9003B3E0FAA3E0FB8A
:1048630090037AE0FEA3E0FFAD03AC02A51280093A
:104873003C90264BEEF0A3EFF090037AE0FEA3E02A
:10488300FFAD03AC02A51280093C90264DECF0A3CA
:10489300ED805A9023F0E024EDF9E43405FA7B002F
:1048A300C003C002C0017B807A0379A6902648A585
:1048B30012800BED9003B3E0FAA3E0FB90037AE0E0
:1048C300FEA3E0FFAD03AC02A51280093C90264B8A
:1048D300EEF0A3EFF090037AE0FEA3E0FFAD03ACAC
:1048E30002A51280093C90264DECF0A3EDF0D00117
:1048F300D002D003A512800D3F9023F0E02FF0C229
:104903002280307B807A047917902648A512800B89
:10491300ED9023F1E090264BF07B007A2379F2A30C
:10492300A512800BED7A0579EDA512800D3F90233A
:10493300F0EFF0D2137B007A0579ED902647A512AC
:10494300800BED9023F0E090264AF07D01E4FFA573
:1049530012807318E47F2C7E01A512808945900094
:1049630000E004F0E0C394024002E4F0900391E01D
:10497300B40117900002E0700CA51280A876EF70C6
:104983000404F08005A51280BF6C7F01A522E4908A
:1049930023F8F0D20FA3F0A3F00250AD9023F9E077
:1049A30060030250BDF0D20FA51280983ED213903F
:1049B3001965A512800BF7902647A512800BED9081
:1049C3001968A51280730FD213901969A512800B71
:1049D300F7902647A512800BED90196CE49390266F
:1049E3004AF07D01E4FFA512807318A512807F5859
:1049F3009023F67401F0A304F0200F03024DAFA53A
:104A030012809E7B9023FAEFF024F37003024B98FD
:104A130024F27003024B9324CB7003024AE7240869
:104A23006003024D9E9023F7E06402702DD2119033
:104A330026477402F0D212E4FDFFA512807F669030
:104A430023F77401F09023F6E07006740DF0024D25
:104A53009E9023F6E014F0024D9ED2139023F6E0CD
:104A6300FF25E025E02465F582E43419F583A512DA
:104A7300800BF7902647A512800BEDEF25E025E08C
:104A83002468F582E43419F583E49390264AF07D93
:104A930001E4FFA5128073189023F6E07005740DEE
:104AA300F080069023F6E014F0D2139023F6E0FF93
:104AB30025E025E02465F582E43419F583A5128009
:104AC3000BF7902647A512800BEDEF25E025E02498
:104AD30068F582E43419A51280730D9023F77401ED
:104AE300F0024D9E9023F7E06401701AA512807FB7
:104AF300589023F6E0B40D05E4F0024B8A9023F6B8
:104B0300E004F0024B8AD2139023F6E0FF25E02560
:104B1300E02465F582E43419F583A512800BF79040
:104B23002647A512800BEDEF25E025E02468F582EA
:104B3300E43419A51280730D9023F6E0B40D04E458
:104B4300F080069023F6E004F0D2139023F6E0FF02
:104B530025E025E02465F582E43419F583A5128068
:104B63000BF7902647A512800BEDEF25E025E024F7
:104B730068F582E43419F583E49390264AF07D01C5
:104B8300E4FFA5128073189023F77402F0024D9E80
:104B9300C20F024D9EC211E4902647F0D212FDFFD0
:104BA300A512807F66A51280983E9023F6E0A51299
:104BB300800C044BE4004BF0014BF7024C03034C15
:104BC30007044C0E054C1A064C23074C2A084C319B
:104BD300094C380A4C3F0B4C460C4C4D0D00004C15
:104BE30052A5128163D1A512809C3A8062A51280DE
:104BF300544D805BA5128163D1A512808EA8804F8E
:104C03007F018015A5128167AB8044A5128163D112
:104C1300A512808C7080387F02A5128164A7802F33
:104C2300A5128078BF8028A512812A818021A51230
:104C3300806675801AA51280CA5A8013A51280F95E
:104C4300B4800CA51280D38C8005A512812BD6903D
:104C530023F7E064026003024CE99023F6E0701747
:104C6300D213901999A512800BF7902647A51280AD
:104C73000BED90199C802FD2139023F6E0FF25E0D3
:104C830025E02461F582E43419F583A512800BF73E
:104C9300902647A512800BEDEF25E025E02464F56F
:104CA30082E43419F583A51280730FD2139023F68F
:104CB300E0FF25E025E02465F582E43419F583A5BA
:104CC30012800BF7902647A512800BEDEF25E02508
:104CD300E02468F582E43419F583E49390264AF0DE
:104CE3007D01E4024D7C9023F6E0B40D17D21390BE
:104CF3001965A512800BF7902647A512800BED903E
:104D03001968802FD2139023F6E0FF25E025E024D5
:104D130069F582E43419F583A512800BF7902647D1
:104D2300A512800BEDEF25E025E0246CF582E43439
:104D330019F583E49390264AF07D01E4FFA51280E0
:104D43007318D2139023F6E0FF25E025E02465F5E0
:104D530082E43419F583A512800BF7902647A51238
:104D6300800BEDEF25E025E02468F582E43419F5A6
:104D730083E49390264AF0E4FDFFA5128073189014
:104D830023F7E014FDD2119026477402F0D212E407
:104D9300FFA512807F66A51280983EA512807B3AFC
:104DA3007F0A7E00A5128070F70249FCE47F2C7E07
:104DB30001FDFC90267B7417F0A3741CF0A51280F0
:104DC300894DA51281484CD211E4902647F0D212A6
:104DD300FDFFA512807F66D211E4902647F0D21220
:104DE300FD7F01A512807F66902E1FE070033025A2
:104DF3004ED2137B807A197933902647A512800B04
:104E0300ED90264A740AA512807314D2137B807A1C
:104E130019793E902647A512800BED90264A74011E
:104E2300F0FDE4FFA512807318E47FC47E09FDFC46
:104E330090267B7417F0A3741CF0A51280894D9003
:104E43002E1FE07003024F1EA51280AFA2E47F6401
:104E5300A512808944A51280AF89E47F64A51280DE
:104E630089447E017F807D007B007A2379FBA51234
:104E7300800C9C7F807E027D087C0075372375380B
:104E8300FB753901753A80A51280AC67E49023F86D
:104E9300F09023F8E0FF75F0069023FFA512800B36
:104EA300D6E0FE75F006EF900008A512800BD6E061
:104EB3006E70579023F8E075F0069023FCA51280DE
:104EC3000BD6E0FE75F006EF900005A512800BD619
:104ED300E0B506369023F8E075F0069023FDA512A1
:104EE300800BD6E0FCA3E0FD75F006EF900006A56D
:104EF30012800BD6E0FEA3E0B5050FEEB5040B90D0
:104F030023F8E004F0E0644070879023F8E0644005
:104F13006004A37401F0E4902E1FF02025030250D7
:104F230011A51280CEA1E47F64A5128089447E007E
:104F33007F577D007B007A25797BA512800C9C7FAF
:104F4300807E017D087C0075372575387B753900B7
:104F5300753A57A51280AC6790257BE0FF90036BF1
:104F6300E06F600302500990257CE0FEA3E0FF9010
:104F7300036CE06E7003A3E06F6003025009902599
:104F83007EE0FEA3E0FF90036EE06E7003A3E06F8C
:104F93007074902580E0FEA3E0FF900370E06E70D4
:104FA30003A3E06F7060902582E0FF900372E06FCF
:104FB3007054902583E0FF900373E06F7048902551
:104FC30084E0FEA3E0FF900374E0B50639A3E0B5E7
:104FD3000734902586E0FEA3E0FF900376E0B50654
:104FE30025A3E0B5072090258AE0FEA3E0FF900308
:104FF3007AE0B50611A3E0B5070C9025D1E0FF9048
:1050030003C1E06F60069023F97401F0C225902379
:10501300F9E070030250B4A51280983ED2137B804E
:105023007A197940902647A512800BED90264A7491
:1050330013A512807314D2137B807A1979549026A6
:1050430047A512800BED90264A7410F07D01E4FF12
:10505300A512807318902E1B740FF0E49023F8F0C0
:10506300902E1BE0603BA512807B3FA512809E7BA8
:105073009023FAEFF0F460E89023FAE024E560105F
:10508300240E70DCE49023F9F09023F804F0800AF6
:105093009023F97401F09023F8F09023F8E0B40121
:1050A300BF902E1BE0600302499F9023F9F0024951
:1050B3009F9023F97401F002499FA50280983E90C6
:1050C30025EDEDF09025ECEFF0E49025EEF0902641
:1050D3000FF0EF14602014602814603814605C240F
:1050E300F6607A240E6003025182900358E020E0B8
:1050F3000302517D807C900359E030E0028073808D
:1051030079900359E030E0028011E49025EEF090AD
:10511300035E8019900359E030E00A90260DE4F015
:10512300A304F0805AE49025EEF0900360E0FFA31F
:10513300E090260DCFF0A3EFF080449013BDE0FF85
:1051430030E7028020EF540660089025EE7403F0E8
:10515300802D9013BDE030E0028017801D9013C6B0
:10516300E0FF30E7089025EE7402F08012EF54035D
:1051730060089025EE7401F08005E49025EEF03090
:1051830011030253C49025ECE0FF25E025E0249CA5
:10519300F582E43408F583E493FD7C00C004C00584
:1051A300EF25E025E02499F582E43408F583A51280
:1051B300800BF778EF7C257D00D007D006A5128001
:1051C30008FD9025ECE0FF64026008EF64036003D0
:1051D3000253219025EEE060030253219003B3E0D4
:1051E300FEA3E0FFEE60030252BEEF24F6602A2422
:1051F300A6606F246360030252BE7B807A087958ED
:10520300902648A512800BED90260DE0FFA3E090B9
:10521300264BCFF0A3EF0252AC7B807A08795B90E8
:105223002648A512800BED9003B3E0FAA3E0FB90B0
:10523300260DE0FEA3E0FFAD03AC02A51280093CFE
:1052430090264BEEF0A3EFF090260DE0FEA3E0FFD7
:10525300AD03AC02A51280093C90264DECF0A3ED02
:1052630080477B807A087961902648A512800BEDF0
:105273009003B3E0FAA3E0FB90260DE0FEA3E0FF6A
:10528300AD03AC02A51280093C90264BEEF0A3EFD0
:10529300F090260DE0FEA3E0FFAD03AC02A5128063
:1052A300093C90264DECF0A3EDF07B007A267903C0
:1052B300A512800D3F90260FE02FF090260FE0FF00
:1052C3007E009025ECE025E025E0249CF582E43483
:1052D30008F583E49324EFF9E43425A801FC7D0069
:1052E3007B007A267903A5128008FD9025EDE0FD69
:1052F300D2137B007A2579EF902647A512800BED18
:105303009025ECE025E025E0249CF582E43408F5C3
:1053130083E493FF90260FE0FEEF2E0253B7902510
:10532300EEE0FF25E025E024E0F582E43408F58390
:10533300E493FD7C00C004C005EF25E025E024DDF7
:10534300F582E43408F583A512800BF7C00190259C
:10535300ECE025E025E0249CF582E43408F583E4C1
:105363009324EFF9E43425A801FC7D00D001D00794
:10537300D006A5128008FD9025EDE0FDD2137B0039
:105383007A2579EF902647A512800BED9025EEE064
:1053930025E025E024E0F582E43408F583E493FF77
:1053A3009025ECE025E025E0249CF582E43408F523
:1053B30083E4932F90264AF0E4FFA51280731880AC
:1053C300059025EEE0FFA5229025D2E0FF7D019018
:1053D30025EBEDF09025EAEFF0601BE0FF64016040
:1053E30015EF64026010EF6403600BEF6404600662
:1053F300EF6003B40E119025EAE0FFA3E0FDC211B4
:10540300A5128050C280419025EBE0FDD213902578
:10541300EAE0FF25E025E02499F582E43408F583EA
:10542300A512800BF7902647A512800BEDEF25E020
:1054330025E0249CF582E43408F583E49390264A1E
:10544300F0E4FFA512807318A522E4902614F0A3BC
:10545300F0A3F0A3F0A3740AF0A37402F090261B48
:1054630014F0E4A3F0A3F0902632F0FE7FC2FD7B9C
:10547300007A027908A512800C9CE4902614F0901F
:105483002614E0FFC39440504175F006EF900005E9
:10549300A512800BD6E0540A6028902614E025E07C
:1054A30025E024F6F582E43429F583E0FF90261DF8
:1054B300E0240AF582E43402F583EFF090261DE040
:1054C30004F0902614E004F080B57E007F147D0084
:1054D3007B007A26791EA512800C9C90261DE07015
:1054E300107B807A087977902648A512800BED808F
:1054F300167B807A087982902648A512800BED905E
:10550300261DE090264BF07B007A26791EA512809B
:105513000D3F902632EFF0D2137B007A26791E904E
:105523002647A512800BED902632E0A51280731159
:105533007F02A512808C3BE47FB87E0BA512808985
:105543004590261AA512807F509026197402F0E424
:10555300902614F0902614E0FFC39440501D75F07C
:1055630006EF900004A512800BD6E0600E90261C77
:10557300E004F0902614E004F080D990261BE0703C
:105583000302587A7E007F157D007B007A2579EA35
:10559300A512800C9C7E007F157D007B007A257907
:1055A300FFA512800C9CE4902615F0902614F09031
:1055B3002617E0902614F0902618E0FF902614E0BA
:1055C300FEC39F40030257FC902617E02405FDE429
:1055D30033FCEEC39DEC6480F8748098400302565C
:1055E300DA902614E075F006900004A512800BD61D
:1055F300E070030257F3902615E075F004A424EA43
:10560300F9742535F0FA7B00C003C002C0017B802A
:105613007A087992902648A512800BED902614E023
:1056230075F006900004A512800BD6E090264BF08F
:10563300D001D002D003A512800D3FE4902616F0CE
:10564300902614E075F006900005A512800BD6E0B5
:10565300FF7006902616F0803EEF540A60089026ED
:10566300167402F08031902614E0FF75F006900066
:1056730005A512800BD6E020E20F75F006EF90002F
:1056830008A512800BD6E070089026167403F080EC
:10569300069026167401F0902616E0FF25E025E01B
:1056A30024F0F582E43408F583E493FD7C00C00420
:1056B300C005EF25E025E024EDF582E43408F58309
:1056C300A512800BF7C001902615E075F004A42401
:1056D300ECF974250257DB90261CE0FF902614E0BA
:1056E300FEC39F40030257FC75F006EE900004A52D
:1056F30012800BD6E070030257F3902615E075F085
:1057030004A424EBF9742535F0FA7B00C003C0022E
:10571300C0017B807A087992902648A512800BED10
:10572300902614E075F006900004A512800BD6E0D5
:1057330090264BF0D001D002D003A512800D3FE498
:10574300902616F0902614E075F006900005A51239
:10575300800BD6E0FF7006902616F0803EEF540AC9
:1057630060089026167402F08031902614E0FF75CD
:10577300F006900005A512800BD6E020E20F75F02D
:1057830006EF900008A512800BD6E070089026164D
:105793007403F080069026167401F0902616E0FF3D
:1057A30025E025E024F0F582E43408F583E493FD55
:1057B3007C00C004C005EF25E025E024EDF582E47C
:1057C3003408F583A512800BF7C001902615E07508
:1057D300F004A424EDF9742535F0A801FC7D00D074
:1057E30001D007D006A5128008FD902615E004F02D
:1057F300902614E004F00255BA7B007A2579EAA5D5
:1058030012800010EF4E70127B007A2579FFA512EB
:10581300800010EF4E700302591ED2137B007A25CD
:1058230079EA902647A512800BED90264A7414A5B9
:1058330012807314D2137B007A2579FF902647A533
:1058430012800BED902615E024FB25E025E0902641
:105853004AF07D01E4FFA512807318902619E01425
:10586300FDD2119026477402F0D212E4FFA51280F4
:105873007F66E490261BF0A512809E7B90261AEF8C
:10588300F024E5700302591E24CB60462408707A85
:10589300902619E0B4021AD2119026477402F0D26E
:1058A30012E4FDFFA512807F669026197401F08033
:1058B30059902617E0D394004050902617E024FB1C
:1058C300F0A3E024FBF090261B7401F0902619F05E
:1058D3008038902619E0B4010DA512807F589026D8
:1058E300197402F0802490261CE0FF902618E0C370
:1058F3009F5017902617E02405F0A3E02405F090AD
:10590300261B7401F090261904F0A512807B3A7FC0
:105913000A7E00A5128070F702557EA5229025DB32
:10592300E0FDD2117F019025DFEFF0A3EDF0E490CD
:1059330025F8F0A3F09025F7F0FE7F16FD7B007AA3
:105943002579E1A512800C9C9025E0E064037003A7
:105953000259EDE0FF25E025E024B9F582E4341C8B
:10596300F583E493FD7C00C004C005EF25E025E04A
:1059730024B6F582E4341CF583A512800BF778E195
:105983007C257D00D007D006A5128008FD301105C7
:10599300A51280F1AF9025E0E0FF25E025E024B9D2
:1059A300F582E4341CF583E493FE9025F7E0FCEEE6
:1059B3002C24E1F582E43425F583E4F09025DFE03F
:1059C300FDD2137B007A2579E1902647A512800B3F
:1059D300EDEF25E025E024B9F582E4341CF583E4FA
:1059E300932C90264AF0E4025ABE20113AD2139027
:1059F30025E0E0FF25E025E024B6F582E4341CF53C
:105A030083A512800BF7902647A512800BEDEF2597
:105A1300E025E024B9F582E4341CF583E493902671
:105A23004AF0E4FD025ABE9025E0E0FF25E025E0C0
:105A330024B9F582E4341CF583E493FD7C00C004AF
:105A4300C005EF25E025E024B6F582E4341CF58398
:105A5300A512800BF778E17C257D00D007D006A541
:105A6300128008FDA51280F1AF9025E0E0FF25E04C
:105A730025E024B9F582E4341CF583E493FE9025F4
:105A8300F7E0FCEE2C24E1F582E43425F583E4F021
:105A93009025DFE0FDD2137B007A2579E19026473C
:105AA300A512800BEDEF25E025E024B9F582E4345F
:105AB3001CF583E4932C90264AF0E4FFA51280732F
:105AC30018A5229025D6EFF0A3EDF0E49025E2F09F
