:020000040000FA
:10000000021E82080001009600A522A50281286038
:10001000E4FFFEA54860090FEF70010EA56980F3AB
:02002000A52217
:10002300A502806BB5EFB40A09740DA512800035E3
:10003300740A309811A899B8130CC2983098FDA887
:0F00430099C298B811F63099FDC299F599A52286
:10005300A50281432B202020202020BBB6D3ADB99D
:10006300E2C1D900202020202020C1E3C7AEB2BBCB
:10007300D7E30020202020D1A1D4F1C9CCC6B7B347
:10008300ACCAB120202020002020C7EBB2E5C8EB8A
:10009300B8FCD0A1C3E6B6EED6BDB1D2002020C7CE
:1000A300EBD1A1BBF5BBF2BCCCD0F8CDB6B1D2211C
:1000B30000C8B7B6A8454E54455220C8A1CFFB434C
:1000C300414E43454C0020202020C7EBC8A1C1E38B
:1000D300C7AE00C8A1CFFB43414E43454C0020208F
:1000E3002020CAE4C8EBB4EDCEF300C8B7B6A845E8
:1000F3004E544552002020C7EBCDB6C8EBD6BDB158
:10010300D2BBF2D3B2B1D200BFCDBBA7D3E0B6EE20
:100113003A00D1A1D4F1C6E4CBFCC9CCC6B7C2F036
:100123003F200020202020BBFAC6F7B9CAD5CF0054
:100133002020C9CCC6B7D2D1CADBCDEA002020200B
:10014300202020D0BBD0BB2100202020202020D481
:10015300DDCDA3B7FECEF10020202020D5D2C1E310
:10016300C6F7B9CAD5CF002020C7EBC9D4BAF32E3E
:100173002E2E00BDF0B6EEB2BBD7E32C20BCD3C706
:10018300AEC2F03F20002020D5FDD4DAB3F6BBF594
:100193002E2E2E002020D5FDD4DAD5D2C1E32E2E6B
:1001A3002E0020202020D5D2C1E3CAA7B0DC002036
:1001B300202020486F772061726520796F752100B8
:1001C300C7EBCAE4C8EBC6E4CBFCC9CCC6B7B1E005
:1001D300BAC5002020C7EBD1A1D4F1C6E4CBFCC93A
:1001E300CCC6B7002020C7EBC8A1BBF52E2E2E002E
:1001F3002020C7EBC8A1D7DFCDCBB1D22E2E2E0046
:100203002020C9CCC6B7BBF5B5C0B9CAD5CF00202D
:1002130020D1A1D4F1C6E4CBFCC9CCC6B7C2F03F10
:1002230000202020202020B2D9D7F7B3ACCAB100D8
:1002330020202020D5FDD4DACDCBBFEE00C7B7BF39
:10024300EE3A0020202020C7EBCDB6C8EBD3B2B1E5
:10025300D20020202020C7EBB2E5C8EBD6BDB1D237
:100263000028323031342D30392D323229004A758D
:100273006E70656E672D7A6F6E6768652D312E30EF
:10028300002020BBB9D2AAB9BAC2F2C9CCC6B7C240
:10029300F03F00202020202020CEDEC1E3B1D20099
:1002A3002020C9CCC6B7BCDBB8F13A002020CBF97B
:1002B300D1A1C9CCC6B7D4DDCAB100C8B1BBF50062
:1002C3002020B9CAD5CF002020CDCBB1D2BDF0B606
:1002D300EE3A002020B5B1C7B0BDF0B6EE3A00202B
:1002E30020C7EBCBA2BFA82E2E2E002020CDB6B167
:1002F300D22D3ED1A1BBF52D3EC8A1BBF5202000D8
:100303002020CCF9BFA82D3ED1A1BBF52D3EC8A11D
:10031300BBF52020002020BFA8D3E0B6EEB2BBD7A8
:10032300E32E2E2E002020B6C1BFA8CAA7B0DC2E14
:100333002E2E002020BFA8D3E0B6EE3A002020BD29
:10034300F0B6EEB2BBD7E32E2E2E002020202020C5
:1003530020CFD6BDF0CFFBB7D10020202020202016
:10036300CBA2BFA8CFFBB7D1002020C7EBD1A1BB45
:10037300F521002020B1BEBBFAD4DDCDA3CFD6BD7D
:10038300F0BDBBD2D700BBF5B5C03A20002020B8E2
:10039300C3BBF5B5C0D4DDCDA3B7FECEF10020209D
:1003A300B7C7CFD6BDF0CADBC2F400C1E3B1D2B246
:1003B300BBD7E3A3ACCEDEB7A8B9BAC2F200CAE496
:1003C300C8EBC9CCC6B7B1E0BAC53A2000564D4414
:1003D300455600564D5245430025750025752E257B
:1003E300750025752E253032750049734E65656499
:1003F300436C65617200436C6561724F4B002573FA
:1004030020B5B9BCC6CAB15B25755D0025732562ED
:10041300750025732025750025732025752E2575F8
:100423000025732025752E25303275002000257395
:10043300257500257325752E257500257325752EC5
:1004430025303275002573256C75002573256C7571
:100453002E256C75002573256C752E2530326C7531
:10046300005B253032627825303262785D202025AA
:1004730073008000580E8000670E800076148000A1
:100483008B148000A0138000B4148000C90C80007A
:10049300D60A8000E10C8000EE098000F81280018A
:1004A3000B09800115108001260C8001330C80019B
:1004B300400B80014C0E80015B0E80016A0C8001B1
:1004C30076128001890D8001970D8001A50C8001B2
:1004D300B2108001C3128001D6108001E70B8001A6
:1004E300F30F8002030E800212118002240E800299
:1004F300330C800240058002460E8002550E8002B6
:10050300640C80027112800284118002960C8002B6
:10051300A30B8002AF0E8002BE048002C3088002D8
:10052300CA0B8002D60B8002E20B8002EE1480031A
:1005330003148003180F8003280D800336098003FA
:10054300400D80034E0E80035D0E80036C09800313
:10055300761280038906800390108003A10C800328
:10056300AE148003C10E8003D0058003D6050000BE
:100573006432190A05000305010000000000000AA7
:100583000500000000312ED5FBBBFAB9CAD5CFB2A6
:10059300E9BFB400322EB3F6BBF5B2E2CAD40033DE
:1005A3002ED6BDB1D2C6F7D7B4CCAC3A2000342E88
:1005B300D3B2B1D2C6F7D7B4CCAC3A2000352ECEE5
:1005C300E5BDC7D3E0B6EE3A2000362ED2BBD4AA9F
:1005D300D3E0B6EE3A2000372ED1A1BBF5B0B4C5B7
:1005E300A5BCECB2E200382ED3CECFB7B0B4C5A5CC
:1005F300BCECB2E200392ECDCBB1D2B0B4C5A5BCB0
:10060300ECB2E20031302E20B3F6BBF5C8B7C8CF49
:10061300B2E2CAD40031312E20D5D5C3F7B2E2CA33
:10062300D40031322E20D1B9CBF5BBFAB2E2CAD411
:1006330000D5FDB3A300B9CAD5CF00CEDE00B2BB4F
:10064300D7E300CEB400D5FD00B9CA00C8B100C8D5
:10065300B7B6A8454E54455220C8A1CFFB43414EDF
:1006630043454C00C0DBBCC6B2E2CAD4B4CECAFD1B
:100673003A20257500BBF5B5C02530326275B9CA7D
:10068300D5CFB4CECAFD3A257500D5FDD4DABCEC7E
:10069300B2E220253032627520BBF5B5C0002020C0
:1006A3002020C7EBC9D4B5C82E2E2E002020BBF5C1
:1006B300B5C0B0E53A20B9CAD5CF2020200020200C
:1006C300BBF5B5C025303262753A20B9CAD5CF2003
:1006D3002020002020BBF5B5C025303262753A20BA
:1006E300CEDEBBF5202020002020BBF5B5C02025A1
:1006F300303262753A2020D5FDB3A320002020209C
:1007030020D3B2B1D2C6F7B2E2CAD400C7EBCDB69A
:10071300B1D23A002020B1D2B6B7D2D1C2FA2C203E
:10072300C7EBB4A6C0ED2100D2D1CDB6C8EBBDF066
:10073300B6EE3A20257500D2D1CDB6C8EBBDF0B6E2
:10074300EE3A2025752E257500D2D1CDB6C8EBBD66
:10075300F0B6EE3A2025752E25303275002020D3D1
:10076300B2B1D2C6F7CAC7B7F1D5FDB3A33F0025CF
:10077300730041434443C4A3CABDCEB4BFAAC6F465
:1007830000D5B9CABEB5C600D1B9CBF5BBFA0020B6
:10079300202573B2E2CAD400312DB4F2BFAA2020BF
:1007A300322DB9D8B1D5002573D2D1B4F2BFAAA3E3
:1007B300ACC7EBC8B7C8CF002573D2D1B9D8B1D570
:1007C300A3ACC7EBC8B7C8CF00C7EBB2BBD2AACBA9
:1007D300E6D2E2B9D8B1D5C9E8B1B8A3A1002020C7
:1007E3002020D6BDB1D2C6F7B2E2CAD4002020D6AB
:1007F300BDB1D2C6F7CAC7B7F1D5FDB3A33F00D683
:10080300BDB1D2C6F7CEB4BFAAC6F400D3B2B1D23B
:10081300C6F7CEB4BFAAC6F4002020CEE5BDC7CD2F
:10082300CBB1D2A3ACD2BBB4CEC1BDC3B6002020E2
:10083300D2BBD4AACDCBB1D2A3ACD2BBB4CEC1BDB3
:10084300C3B60020202020B0B4C5A5B2E2CAD4218B
:1008530000CAE4C8EBB0B4C5A53A00CAE4C8EBB01B
:10086300B4C5A53A202562750020202020D3CECF21
:10087300B7B0B4C5A5B2E2CAD42100D3D0BCFCB092
:10088300B4CFC22C20D4F2C3F9BDD0D2BBC9F90076
:10089300B3F6BBF5C8B7C8CFCEB4BFAAC6F400B38E
:1008A300F6BBF5C8B7C8CF0020202020BCECB2E2CD
:1008B300B5BDD3D0D5DAB5B20020202020C7EBD503
:1008C300DAB5B2C1BDC3EB0020202020CDCBB1D21D
:1008D300B0B4C5A5B2E2CAD4210020202020202034
:1008E300C3BBD3D0B0B4CFC20020202020B0B4CF3C
:1008F300C2CDCBB1D2B0B4C5A50025750025752EE8
:1009030025750025752E2530327500BBF5B5C0253C
:10091300303262753A20257300CEDEB9CAD5CFBB1B
:10092300F5B5C000B9CAD5CFBBF5B5C02530326225
:1009330075B8F600253032627520005B25303262CF
:100943007825303262785D00B3F6BBF5C8B7C8CFFF
:10095300B0E5BFAAC6F400B3F6BBF5C8B7C8CFB0BD
:10096300E5B9CAD5CFB9D8B1D500B3F6BBF5C8B789
:10097300C8CFB0E5CEB4BFAAC6F4008005880E8008
:1009830005970A8005A20E8005B10E8005C00C8074
:1009930005CD0C8005DA0E8005E90E8005F8108080
:1009A3000607108006180C8006250E800634048086
:1009B30006390480063E0280064104800646028012
:1009C30006490280064C0280064F028F828E83ED19
:1009D300F5F0FFECFEE8FDE58260020583458360E8
:1009E3000EA548A55CA569A56DD582F5D583F2ABA7
:1009F300F0ECFAE8F9A522EF8DF0A4A8F0CF8CF083
:100A0300A428CE8DF0A42EFEA522BC000CBE002B84
:100A1300EF8DF084FFADF0A522E4CCF875F008EF7C
:100A23002FFFEE33FEEC33FCEE9DEC984005FCEE1D
:100A33009DFE0FD5F0E9E4CEFDA522EDF8F5F0EE2D
:100A43008420D21DFEADF075F008EF2FFFED33FDCE
:100A53004008985007D5F0F2A522C398FD0FD5F0B2
:100A6300E9A522C2D5EC30E709B2D5E4C39DFDE484
:100A73009CFCEE30E717B2D5E4C39FFFE49EFEA5CE
:100A830012800A0DC3E49DFDE49CFC8005A5128041
:100A93000A0D30D507C3E49FFFE49EFEA522C5F0EF
:100AA300F8A3E028F0C5F0F8E582158270021583FB
:100AB300E038F0A522A3F8E0C5F025F0F0E58215B3
:100AC3008270021583E0C838F0E8A522EF2BFFEE11
:100AD3003AFEED39FDEC38FCA522E88FF0A4CC8B6F
:100AE300F0A42CFCE98EF0A42CFC8AF0EDA42CFCE1
:100AF300EA8EF0A4CDA8F08BF0A42DCC3825F0FD20
:100B0300E98FF0A42CCD35F0FCEB8EF0A4FEA9F018
:100B1300EB8FF0A4CFC5F02ECD39FEE43CFCEAA464
:100B23002DCE35F0FDE43CFCA52275F0087582005E
:100B3300EF2FFFEE33FECD33CDCC33CCC58233C59F
:100B4300829BED9AEC99E58298400CF582EE9BFE30
:100B5300ED9AFDEC99FC0FD5F0D6E4CEFBE4CDFA8B
:100B6300E4CCF9A882A522B800C0B9005BBA002E74
:100B7300EC8BF084CFCECDFCE5F0CBF97818EF2FDA
:100B8300FFEE33FEED33FDEC33FCEB33FB10D70309
:100B9300994004EB99FB0FD8E5E4F9FAA5227818FC
:100BA300EF2FFFEE33FEED33FDEC33FCC933C910F9
:100BB300D7059BE99A4007EC9BFCE99AF90FD8E02B
:100BC300E4C9FAE4CCFBA52275F010EF2FFFEE3356
:100BD300FEED33FDCC33CCC833C810D7079BEC9A5A
:100BE300E899400AED9BFDEC9AFCE899F80FD5F0E3
:100BF300DAE4CDFBE4CCFAE4C8F9A522EB9FF5F0E7
:100C0300EA9E42F0E99D42F0EC6480C86480984516
:100C1300F0A522EB9FF5F0EA9E42F0E99D42F0E851
:100C23009C45F0A522E8600FECC313FCED13FDEE29
:100C330013FEEF13FFD8F1A522A548FCA549FDA596
:100C43004AFEA54BFFA522ECA558EDA559EEA55AE2
:100C5300EFA55BA522E0FCA3E0FDA3E0FEA3E0FF7C
:100C6300A522E493FC740193FD740293FE74039331
:100C7300FFA522E0F8A3E0F9A3E0FAA3E0FBA52295
:100C8300E493F8740193F9740293FA740393FBA544
:100C930022A548F8A549F582A54AF583A54BFBA9EA
:100CA30082AA83A5227401FF3395E0FEFDFCA3A372
:100CB300A3E0CF2FF0E582158270021583E0CE3ECC
:100CC300F0E582158270021583E0CD3DF0E58215D3
:100CD3008270021583E0CC3CF0A522ECF0A3EDF08A
:100CE300A3EEF0A3EFF0A522A42582F582E5F0356B
:100CF30083F583A522E0FBA3E0FAA3E0F9A522EBA9
:100D0300F0A3EAF0A3E9F0A522E493FB740193FABC
:100D1300740293F9A522F8D0E0F5834480FBD0E078
:100D2300FAD0E0F9A5487012A549700EA56AA54945
:100D3300C0E0A548C0E0C083A522A54A6860EFA52E
:100D43006B80E1F8D0E0F5834480FBD0E0FAD0E09B
:100D5300F9A5487012A549700EA56AA549C0E0A57A
:100D630048C0E0C083A522A54AB5F005A54B68603D
:100D7300EAA56880DC8F828E83EDFFECFEE8FDE55B
:100D83008260020583458370047F00A522A548F590
:100D9300F0A54CA569A56DB5F006D582F0D583ED18
:100DA3007FFFB5F0030FA52240027F01A522EF4E7E
:100DB3006019EF60010EED89828A838BF0A558A537
:100DC30069DFFADEF88BF0A982AA83A522F8E0FB9B
:100DD300A3A3E0F925F0F0E582158270021583E004
:100DE300FA38F0A522E527242CF582E4341FF58395
:100DF300E0052722901F29301A03901F2CE475F079
:100E030001A512800DD0A548222013E77F2ED2130F
:100E13008018EF540F2490D43440D4FF30170BEFD5
:100E230024BFB41A0050032461FFE528600215288B
:100E3300052BE52B7002052A301A10901F29E47543
:100E4300F001A512800DD0EFA55822A5128000282D
:100E5300227403D21A8003E4C21AF527901F29A52E
:100E630012800D02E4F528F52AF52BE52860097FA9
:100E730020A512800E2D80F37529FFC214C213C260
:100E830015C216C218C219C21B120DF7FF700E301D
:100E93001A057F00120E3EAF2BAE2AA522B4255FA2
:100EA300C2D5C217120DF7FF24D0B40A00501A7529
:100EB300F00A782830D50508B6FF0106C6A426F641
:100EC30020D5047002D21680D924CFB41A00EF5073
:100ED30004C2E5D217021055D21480C6D21380C0C3
:100EE300D21580BCD2D580BAD21880B47F20120E1E
:100EF3002D2015077401B5280040F1120DE8FF12EB
:100F03000E2D020E6ED21BD2198095120DE8FB1224
:100F13000DE8FA120DE8F94A4B700679287A117B2D
:100F23008020153AE52860367E00E9C0E02EF9EA14
:100F3300C0E03400FAA548F9D0E0FAD0E0C9600671
:100F43000EEE652970E4C2D5EBC0E0EAC0E0E9C06B
:100F5300E0EE12109ED0E0F9D0E0FAD0E0FBA54815
:100F6300FF609FEBC0E0EAC0E0E9C0E0120E2DD0C5
:100F7300E02401F9D0E03400FAD0E0FBE529046075
:100F8300DDD529DA020F057B807A10799AD2158094
:100F930090791080027908C219C21B8008D2D579D2
:100FA3000A8004790AC2D5E529047002F529E4FA16
:100FB300FDFEFF120DE8FC7B08201413120DE8FD63
:100FC3007B1030130A120DE8FE120DE8FF7B20ECB4
:100FD3003382D592D55013C3E43013069FFFE49EAA
:100FE300FEE42014039DFDE49CFCE4CBF8C214EC66
:100FF300700CCFCECDCCE824F8F870F38017C3EF94
:1010030033FFEE33FEED33FDEC33FCEB33FB994062
:1010130002FB0FD8E9EB301405F8D0E0C448B21452
:10102300C0E00AEC4D4E4F78207B0070C2EAB52930
:101033000040BCC0E01210A0D0F0D0E0201404C4E3
:10104300C0E0C4B214C0F0120E16D0F0D5F0EB021B
:101053000E6EA512800D190F0E530F94580EDF4C10
:101063000EDB420F984F0FA0440FA0490EF4430F1D
:10107300A6550F8A460F8A450F8A471143500EE340
:101083002D0EE72E0F0A2B0EEB230F082011312A0A
:101093000EA34800000F023F3F3F00790AA2D5206C
:1010A3001614301809B910020404B9080104A2D5B2
:1010B3002019025001042015689215B528005034F8
:1010C300C0E07F203016197F30A2157219721850B4
:1010D3000F1210F7C215C219C218C21B7F30800F3E
:1010E300301803E9C0E0120E2D301803D0E0F9D018
:1010F300E0B528CC3018177F30B9100C120E2D7FB5
:10110300583017077F788003B90803120E2D301566
:10111300057F2D020E2D7F20201BF87F2B2019F336
:1011230022921580CF286E756C6C2900D214120D93
:10113300E83014F8C214782830D50108F6020EA35B
:10114300120DE8C0E0C4120E16D0E0120E16743A67
:10115300120E1ED216752804020F944101C90042D3
:1011630010CA000041024B014110CC004206EE00C0
:101173000041000600C11FC120C19DC1214110CD06
:1011830000C11E4100000041000100410002004176
:1011930000030041000400410005004130320042D9
:1011A30030300000413033004130340041303500ED
:1011B300C12441303A0141303900411A9F00412F87
:1011C300F900412FFA00412FFB00C100412FFD0020
:1011D300412FFE00412FFF0041300000413001004C
:1011E30041300200C103C104C105C106C107C108E2
:1011F300C109C10AC10BC10CC10DC10E41300300AD
:10120300462F86080001009600412FCC00C128011B
:10121300150041303B00411F5800411F5400411F3E
:101223005C01411F5601C122C123411F5A006200C4
:101233002A0800008005800F000A801B001E00148E
:10124300801180330036003C80390028802D8027B0
:10125300002280630066006C80690078807D80775F
:10126300007200508055805F005A804B004E00444E
:10127300804180C300C600CC80C900D880DD80D700
:1012830000D200F080F580FF00FA80EB00EE00E46E
:1012930080E100A080A580AF00AA80BB00BE00B49F
:1012A30080B180930096009C80990088808D808710
:1012B300008281830186018C81890198819D8197B8
:1012C300019201B081B581BF01BA81AB01AE01A426
:1012D30081A101E081E581EF01EA81FB01FE01F4D7
:1012E30081F181D301D601DC81D901C881CD81C7C8
:1012F30001C201408145814F014A815B015E015476
:10130300815181730176017C81790168816D8167E7
:10131300016281230126012C81290138813D813716
:10132300013201108115811F011A810B010E010485
:10133300810183030306030C83090318831D8317A9
:10134300031203308335833F033A832B032E032495
:10135300832103608365836F036A837B037E037446
:10136300837183530356035C83590348834D834737
:10137300034203C083C583CF03CA83DB03DE03D4E5
:1013830083D183F303F603FC83F903E883ED83E757
:1013930003E283A303A603AC83A903B883BD83B786
:1013A30003B203908395839F039A838B038E0384F5
:1013B300838102808285828F028A829B029E0294AD
:1013C300829182B302B602BC82B902A882AD82A71F
:1013D30002A282E302E602EC82E902F882FD82F7CE
:1013E30002F202D082D582DF02DA82CB02CE02C4BD
:1013F30082C182430246024C82490258825D82576F
:10140300025202708275827F027A826B026E0264DC
:10141300826102208225822F022A823B023E02340D
:10142300823182130216021C82190208820D82077E
:101433000202412A0600412A070000CFB5CDB3D5E9
:10144300FDD4DAC6F4B6AF2C20C7EBC9D4B5C800B7
:10145300D5FDD4DAB8FCB8C4C9CCC6B7D3E0C1BF94
:101463002E2E2E00C9CCC6B7D3E0C1BFB8FCB8C47A
:10147300CAA7B0DC210020202020C4E3C8B7B6A847
:10148300B8FCB8C4C2F03F00C8B7B6A8454E54452F
:101493005220C8A1CFFB43414E43454C00D5FDD458
:1014A300DAB8FCB8C4C9CCC6B7BCDBB8F12E2E2E53
:1014B30000C9CCC6B7BCDBB8F1B8FCB8C4CAA7B086
:1014C300DC2100C9CCC6B7BCDBB8F1B8FCB8C4B3E7
:1014D300C9B9A6210020202020C4E3C8B7B6A8CCF0
:1014E300EDC2FAC2F03F00D5FDD4DACCEDC2FA2E3C
:1014F3002E2E00CCEDC2FAB2D9D7F7CAA7B0DC21A1
:1015030000CCEDC2FAB2D9D7F7B3C9B9A62100CA44
:10151300E4C8EBB2E3BCDCB1E0BAC53A00B1E0BA6F
:10152300C5CAE4C8EBB4EDCEF300C7EBCAE4C8EB1D
:10153300C6E4CBFCB1E0BAC500C4E3C8B7B6A8CCD7
:10154300EDC2FAB4CBB2E3BCDCC2F03F00D5FDD4AC
:10155300DACCEDC2FAB5B1C7B0B2E3BCDC2E2E2EA5
:1015630000B2E3BCDCCCEDC2FAB2D9D7F7CAA7B05C
:10157300DC2100B2E3BCDCCCEDC2FAB2D9D7F7B3BD
:10158300C9B9A62100257300B2B9D3B2B1D200C83C
:10159300A1D6BDB1D2002020C4E3C8B7B6A8257335
:1015A300C2F03F002020D5FDD4DA2573002573CA8D
:1015B300A7B0DC21002573B3C9B9A62100202020E0
:1015C30020CDACB2BDCAA7B0DC0020202020202053
:1015D3002020202020202020202020202020002028
:1015E300202020C4E3C8B7B6A8CDACB2BDC2F03F3B
:1015F30000D5FDD4DACDACB2BD2C20C7EBC9D4B530
:10160300C82E2E2E00CDACB2BDB2D9D7F7B3C9B90F
:10161300A6210020202020C4E3C8B7B6A8B2B9BBD6
:10162300F5C2F03F00D5FDD4DAB2B9BBF52C20C723
:10163300EBC9D4B5C82E2E2E00B2B9BBF5B2D9D79B
:10164300F7CAA7B0DC2100B2B9BBF5B2D9D7F7B35B
:10165300C9B9A621002020C4E3C8B7B6A8C7E5B519
:10166300E3C2F03F00D5FDD4DAC7E5B5E32C20C7CC
:10167300EBC9D4B5C82E2E2E00C7E5B5E3CDEAB12C
:10168300CFA3ACC7EBBACBB6D42100C7E5B5E3BD56
:10169300F0B6EE3A20257500C7E5B5E3BDF0B6EE2A
:1016A3003A2025752E257500C7E5B5E3BDF0B6EEE6
:1016B3003A2025752E253032750000000A050000FA
:1016C3000000010204050708090B1213141516FE86
:1016D3002000202020202020202020202020202027
:1016E30020202020202000C7EBCAE4C8EBB1E0BAD9
:1016F300C53A2000B1E0BAC5CAE4C8EBB4EDCEF3F5
:1017030000C7EBCAE4C8EBC6E4CBFCB1E0BAC50042
:1017130020202020202020202020202020202020C6
:101723002020202000000000000000000000000036
:1017330000000000000000000000000000000000A6
:101743000000000000000000000000000000000096
:101753000000000000000000000000000000000086
:101763000000000000000000000000000000000076
:101773000000000000000000000000000000000066
:101783000000000000000000000000000000000056
:101793000000000000000000000000000000000046
:1017A3000000000000000000000000000000000036
:1017B3000000000000000000000000000000000026
:1017C3000000000000000000000000000000000016
:1017D3000000000000000000000000000000000006
:1017E30000000000000000000000000000000000F6
:1017F30000000000000000000000000000000000E6
:1018030000000000000000000000000000000000D5
:1018130000000000000000000000000000000000C5
:1018230000000000000000000000000000000000B5
:1018330000000000000000000000000000000000A5
:101843000000000000000000000000000000000095
:101853000000000000000000000000000000000085
:101863000000000000000000000000000000000075
:101873000000000000000000000000000000000065
:101883000000000000000000000000000000000055
:101893000000000000000000000000000000000045
:1018A3000000000000312EBFAAC6F4D6C6C0E43A39
:1018B30000322ED7D4B6AFCDCBB1D23A00332EBF40
:1018C300AAC6F4B3F6BBF5C8B7C8CF3A00342EC7DF
:1018D300B7CCF53A00352ED4CAD0EDB6E0B4CEB9C4
:1018E300BAC2F23A00362EB2BBC2F2BBF5CDCBB1CF
:1018F300D23A00372ED3E0B6EECFC2CFDE3A00386D
:101903002EBFAAC6F4D6BDB1D2C6F73A00392EBF50
:10191300AAC6F4D3B2B1D2C6F73A0031302E20BFF3
:10192300AAC6F441434443C4A3BFE93A0031312E6C
:10193300202331D6BDB1D23A0031322E202332D604
:10194300BDB1D23A0031332E202333D6BDB1D23AC2
:101953000031342E202334D6BDB1D23A0031352E96
:10196300202335D6BDB1D23A0031362E202336D6C8
:10197300BDB1D23A0031372E202331D3B2B1D23A9E
:101983000031382E202332D3B2B1D23A0031392E6E
:10199300202333D3B2B1D23A0032302E202334D3B2
:1019A300B2B1D23A00256275002575002D25750068
:1019B3002D25752E2575002D25752E2530327500A4
:1019C30025752E25750025752E2530327500801856
:1019D300A80B8018B40B8018C00F8018D00780188C
:1019E300D80F8018E80D8018F60B8019020D8019A6
:1019F300100D80191E118019300B80193C0B8019B2
:101A0300480B8019540B8019600B80196C0B8019DB
:101A1300780B8019840B8019900B80199C0B00059F
:101A2300000500010001000100050005000500019B
:101A3300000500050005000500050005000500057B
:101A4300000500050005000500050005000100056F
:101A5300000100010001000200010001000100017A
:101A63002020C4E3C8B7B6A8C2F03F00C8B7B6A8E1
:101A7300454E54455220C8A1CFFB43414E43454CEC
:101A8300002020C3BBD3D0BDBBD2D7BCC7C2BC00D0
:101A9300D6BDCAD53A00CFD6D6BDCAD53A0031593C
:101AA300CAD53A00CFD63159CAD53A00354ACAD534
:101AB3003A00CFD6354ACAD53A003159D5D23A0081
:101AC300CFD63159D5D23A00354AD5D23A00CFD6FE
:101AD300354AD5D23A00C8ABB2BFC1BF3A00C8AB92
:101AE300B2BFB6EE3A00CFD6BDF0C1BF3A00CFD6F3
:101AF300BDF0B6EE3A00D3CECFB7C1BF3A00D3CED6
:101B0300CFB7B6EE3A00CBA2BFA8C1BF3A00CBA273
:101B1300BFA8B6EE3A00D4DACFDFC1BF3A00D4DAB9
:101B2300CFDFB6EE3A00D3B2B1D2CDB6C8EB3A00AE
:101B3300D6BDB1D2CDB6C8EB3A00D3B2B1D2B3F66B
:101B4300B1D23A00C7F8BCE4D3B2B1D2CDB6C8EB38
:101B53003A00C7F8BCE4D6BDB1D2CDB6C8EB3A0063
:101B6300C7F8BCE4D3B2B1D2B3F6B1D23A00253050
:101B73003575202573256C752E2530326C7500253F
:101B83006C752E2530326C7500256C7500256275D9
:101B930000801A630B801A6F14801A840E801A93C4
:101BA30006801A9908801AA106801AA708801AAF1E
:101BB30006801AB508801ABD06801AC308801ACB9E
:101BC30006801AD108801AD907801AE107801AE91A
:101BD30007801AF107801AF907801B0107801B0988
:101BE30007801B1107801B1907801B2107801B29F6
:101BF30009801B3309801B3D09801B470D801B5542
:101C03000D801B630D312ED7DCCFFACADBCDB3BCFD
:101C1300C600322EBBF5B5C0B2CECAFD00332EBB13
:101C2300F5B5C0D7B4CCACB2E9BFB400342EBCD345
:101C3300C2FAC8ABB2BFBBF5B5C000352EB2B9D33B
:101C4300B2B1D2CDEAB3C900362EC8ABCFB5CDB34E
:101C5300CDACB2BD00372EBCD3C2FAB2E3BCDCBB01
:101C6300F5B5C000382EC8A1D6BDB1D2CDEAB3C9EF
:101C730000392EC9E8B1B8B9DCC0ED0031302E20EF
:101C8300CFB5CDB3B2CECAFD0031312E20BBF5BCEA
:101C9300DCC5E4D6C30031322E20B3F6B3A7C4ACFF
:101CA300C8CFC5E4D6C30031332E20C7E5C1E3C78F
:101CB300F8BCE4CFFACADBCDB3BCC60031342E2066
:101CC300B2B9BBF5C7A9B5BD002020C8B7B6A8B344
:101CD300F6B3A7C5E4D6C3C2F03F00C8B7B6A8455C
:101CE3004E54455220C8A1CFFB43414E43454C00BF
:101CF30030002020D5FDD4DAB1A3B4E6002000B132
:101D0300A3B4E6CAA7B0DCA3ACD6D8D0C2C9E8D680
:101D1300C33F002020454E54455220202043414ECE
:101D230043454C00801C080C801C150A801C200EA7
:101D3300801C2F0E801C3E0C801C4B0C801C580EEC
:101D4300801C670C801C740A801C7F0C801C8C0C0C
:101D5300801C9910801CAA14801CBF0C312EB2E386
:101D6300BCDCB1E0BAC53A00322ECAC7B7F1C6F43B
:101D7300D3C33A00332ED7EEB4F3B4E6BBF5C1BFF9
:101D83003A00342EB5DAD2BBBBF5B5C03A00352ED6
:101D9300B5DAB6FEBBF5B5C03A00362EB5DAC8FDE6
:101DA300BBF5B5C03A00372EB5DACBC4BBF5B5C029
:101DB3003A00382EB5DACEE5BBF5B5C03A00392E78
:101DC300B5DAC1F9BBF5B5C03A0031302E20B5DA2A
:101DD300C6DFBBF5B5C03A0031312E20B5DAB0CB42
:101DE300BBF5B5C03A00C7EBCAE4C8EBC3DCC2EB32
:101DF3003A00C3DCC2EBB4EDCEF3210025627500DB
:101E03002020200020002020202000CAE4C8EBB2BC
:101E1300E3BCDCB1E0BAC53A00B1E0BAC5CAE4C874
:101E2300EBB4EDCEF300C7EBCAE4C8EBC6E4CBFCDE
:101E3300B1E0BAC500801D5F0B801D6B0B801D7761
:101E43000D801D850B801D910B801D9D0B801DA991
:101E53000B801DB50B801DC10B801DCD0D801DDBBF
:101E63000D801DE90B801DF5090001000100020032
:101E7300010001000100010001000100010001A5B2
:101E830075FF07758E0378FEE4F6D8FD758187A587
:101E930075FB00759008A502801EC9A50280CFCCF2
:101EA300E493A3F85407240CC8C333C4540F442049
:101EB300C8834004F456800146F6DFE4800B010238
:101EC30004081020408090115EE47E019360CCA34F
:101ED300FF543F30E509541FFEE493A360010ECF86
:101EE30054E0B4E01CE493FBA3E493FAA3E493F972
:101EF300A3E493A558A309E970010ADFF4DEF28095
:101F0300C854C025E060254097E493A3FAE493A363
:101F1300F8E493A3C8C582C8CAC583CAF0A3C8C5D9
:101F230082C8CAC583CADFE9DEE7809DE493A3F8CC
:101F3300E493A34003F68001F208DFF4808B312E93
:101F4300BBF5B5C0B1E0BAC53A2000322EC9CCC644
:101F5300B7D3E0C1BF3A2000332EC9CCC6B7B1E036
:101F6300BAC53A2000342EB5A5BCDB3A2000352E85
:101F7300BBF5B5C0D7B4CCAC3A200025303262757E
:101F830000253362750025326275002575002575BD
:101F93002E25750025752E253032750025627500B6
:101FA300801F410C801F4E0C801F5B0C801F680834
:101FB300801F710CC2D5E830E70FB2D5E4C39BFB99
:101FC300E49AFAE499F9E498F8EC30E71BB2D5A562
:101FD30012801FF3A512800B6AE4C39BFBE49AFAF9
:101FE300E499F9E498F88005A512800B6A30D50DC1
:101FF300E4C39FFFE49EFEE49DFDE49CFCA52290C8
:102003001F23E0FFA3E0FEA3E0CF901F2CF0A3EE7D
:10201300F0A3EFF0901F26E0CBF0A3E0CAF0A3E01B
:10202300C9F07F22901F2FAD82AC83A5488D828C8F
:1020330083F0A3A569DFF0901F26E0FBA3E0FAA3DA
:10204300E0F9A502800E544742323331320057493A
:102053004E31323532000D51961052640505050597
:102063000505050504040404080807FF010101012F
:102073000101010102020202030306FF5050505006
:10208300505050501B1B1B1B0D0D18FF090909094C
:10209300090909092E2E2E2E000048FF0000000119
:1020A3000000000A00000064000003E8000027109D
:1020B300000186A0000F42400098968005F5E100DC
:1020C300080001009600000000000000000000006E
:1020D30000000000000001000000000200030405EE
:1020E300080001009600A51280990E9010CAE0FE28
:1020F300A3E0FF901B1EEEF0A3EFF0E4A3F0A3F028
:10210300A3F09006CFE0B401139006CDE0FEA3E068
:10211300FF901B1EEE8FF0A512800AA1D3901B1F08
:10212300E09400901B1EE0940050057F000223F30F
:102133009010CC742CF07E007F147D007B007A0617
:1021430079DAA512800DB19010CCE0FF25E025E0EF
:102153002478F582E43404F583E493901B20F0FDA6
:102163007C00C004C005EF25E025E02475F582E47A
:102173003404F583A512800D0C78DA7C067D00D03B
:1021830007D006A5128009CE901B20E0FF24DAF5C4
:1021930082E43406F5837420F0900490E0FCA3E01D
:1021A300FDEC60030222B4ED24F6603D24A6700327
:1021B300022248246360030222B474DB2FF9E4345F
:1021C30006FA7B00C003C002C0017B807A0379DC7E
:1021D300901F2CA512800D02901B1EE0FFA3E09020
:1021E3001F2FCFF0A3EF0222A2901B20E024DBF9E4
:1021F300E43406FA7B00C003C002C0017B807A038B
:1022030079DF901F2CA512800D02900490E0FAA3B1
:10221300E0FB901B1EE0FEA3E0FFAD03AC02A512A2
:10222300800A0D901F2FEEF0A3EFF0901B1EE0FE2F
:10223300A3E0FFAD03AC02A512800A0D901F31ECA1
:10224300F0A3ED805A901B20E024DBF9E43406FA76
:102253007B00C003C002C0017B807A0379E5901F35
:102263002CA512800D02900490E0FAA3E0FB901BD2
:102273001EE0FEA3E0FFAD03AC02A512800A0D90A1
:102283001F2FEEF0A3EFF0901B1EE0FEA3E0FFADC7
:1022930003AC02A512800A0D901F31ECF0A3EDF000
:1022A300D001D002D003A512800E54901B20E02F42
:1022B300F0901B20E004F0D2137B007A0679DA90C9
:1022C3001D7FA512800D02901B20E0A51280858240
:1022D300900452E0FEA3E0FFC3901B1FE09F901BFE
:1022E3001EE09E40509010CC7436F0D213E0FF25D0
:1022F300E025E02475F582E43404F583A512800D0E
:102303000C901D7FA512800D02EF25E025E02478B7
:10231300F582E43404F583E493901D82F07D01E4B7
:10232300FFA5128085899006CFE064017048A5124D
:10233300807FB380419010CC7404F0D213E0FF256A
:10234300E025E02475F582E43404F583A512800DBD
:102353000C901D7FA512800D02EF25E025E0247867
:10236300F582E43404F583E493901D82F07D01E467
:10237300FFA51280858990147AE0B4011A90147C29
:10238300E0FCA3E0FDE4FFA512807EA5E490147AAF
:10239300F090147CF0A3F090147BE0B4011A901435
:1023A3007EE0FCA3E0FD7F01A512807EA5E49014EE
:1023B3007BF090147EF0A3F0901480E0B4011A90A7
:1023C3001482E0FCA3E0FD7F64A512807EA5E49067
:1023D3001480F0901482F0A3F0901481E0B4010E05
:1023E300A512807E9DE4901481F0A3F0A3F07F00FA
:1023F300A522E4901ADDF0FE7F68FD7B007A047964
:1024030047A512800DB17E047F4B7D007B007A10BF
:1024130079CFA512800DB19013047401F0A3F07E5F
:10242300027F297D007B007A0479AFA512800DB16C
:102433009006B77401F07E037F137D007B007A0D55
:10244300795AA512800DB1E47F64FEA5128075DF71
:102453007E017F207D007B007A037926A512800D03
:10246300B1D211E4901D7AF0D212FDFFA51280863D
:10247300E7D211E4901D7AF0D212FD7F01A51280FC
:1024830086E7D213900505A512800D0C901D7FA53C
:1024930012800D02900508A512808580D213900545
:1024A30001A512800D0C901D7FA512800D029005D1
:1024B30004E493901D82F07D01E4FFA512808589D9
:1024C300E47F64FEA5128075DF7F00A522E4901AE5
:1024D300DDF0A3F0FE7F14FD7B007A0679DAA51206
:1024E300800DB19010CC743CF09010CEE0FF7003DF
:1024F30002258C7B807A04790F901F2CA512800D06
:10250300029010CCE025E025E02475F582E4340444
:10251300F583A512800D0C901F2FA512800D02903C
:102523001F32EFF07B007A0679DAA512800E549001
:102533001ADEEFF0D2137B007A0679DA901D7FA5BD
:1025430012800D02EF04A5128085829010CEE0C3A5
:10255300940A50227F02A51280869B901ADEE0FF28
:10256300D211901D7A7401F0D212E4FDA512808677
:10257300E77F01022628D211E4901D7AF0D2127D62
:1025830001FFA5128086E78013D211E4901D7AF033
:10259300D2127D01FFA5128086E78072A51280808A
:1025A300399010CEE0FFD394635005EF9400500CA4
:1025B300A51280853DA5128075998052E4901ADD9D
:1025C300F0A3F0901ADEE0FFC39440502FEF25E014
:1025D30025E02407F582E4342DF583E0FF9010CE47
:1025E300E0B50710901ADEE09010CEF0901ADD747B
:1025F30001F08008901ADEE004F080C7901ADDE055
:102603007021D211A512808540A512807599C21E32
:10261300E4903021F09010CEF090151A7406F07FFC
:102623000180027F00A522EF24FE601114601514BF
:102633006019240370329010CC742A80269010CC39
:102643007439801F9010CC743A8018A51280A64B61
:10265300E47FC8FEA5128075DFA51280A64B9010FB
:10266300CC740EA5128085539010CC7419F0D2133C
:10267300E0FF25E025E02475F582E43404F583A525
:1026830012800D0C901D7FA512800D02EF25E02511
:10269300E02478F582E43404F583E493901D82F01A
:1026A3007D01E4FFA512808589E47FD07E07FDFCD0
:1026B300901DB3F0A3F0A5028075E7E4901ADDF056
:1026C300301E0B903021E060057F010228F6E49074
:1026D30010CEF09006EEE07002A3E0700590024B7E
:1026E30004F090024BE0640160030228B89012F4F6
:1026F300E0640160030227D2C39012F3E094F490E4
:1027030012F2E0940150030227D2E4F0A3F09010F8
:10271300CC7434A512808553E47F32FEA5128075F4
:10272300DF9010CC742EF0D213E0FF25E025E024D7
:1027330075F582E43404F583A512800D0C901D7F9A
:10274300A512800D02EF25E025E02478F582E4341C
:1027530004F583E493901D82F07D01E4FFA51280CC
:102763008589E47F32FEA5128075DFA512813B3394
:10277300EF640160030228D9D2139010CCE0FF2547
:10278300E025E02475F582E43404F583A512800D79
:102793000C901D7FA512800D02EF25E025E0247823
:1027A300F582E43404F583E493901D82F07D01E423
:1027B300FFA512808589E47F32FEA5128075DFA50F
:1027C30012813B33EF640160030228D90228AA90E7
:1027D30012F4E0640160030228D9C39012F3E09479
:1027E300FA9012F2E0940050030228D99010CC74AE
:1027F30034A512808553E47F32FEA5128075DF90E5
:1028030010CC742EF0D213E0FF25E025E02475F5FB
:1028130082E43404F583A512800D0C901D7FA5126C
:10282300800D02EF25E025E02478F582E43404F5F9
:1028330083E493901D82F07D01E4FFA512808589D6
:10284300E47F32FEA5128075DFA512813B33EF646E
:102853000160030228D9D2139010CCE0FF25E025B4
:10286300E02475F582E43404F583A512800D0C9001
:102873001D7FA512800D02EF25E025E02478F58267
:10288300E43404F583E493901D82F07D01E4FFA515
:1028930012808589E47F32FEA5128075DFA512813F
:1028A3003B33EF6401702F9006EEE04402F0A3E0A7
:1028B300F07F01803E90024BE0640160199014DCCC
:1028C300E0640160119010CC7410A5128085537FD1
:1028D30002A51280869B90151AE004F0A51280B021
:1028E30041BF01047F02800BE47F32FEA512807595
:1028F300DF7F01A522E4901ADDF0A3F0FE7F14FD33
:102903007B007A0679DAA512800DB19010CC743C65
:10291300F09010CEE0FF70030229B47B807A047933
:102923000F901F2CA512800D029010CCE025E025FE
:10293300E02475F582E43404F583A512800D0C9030
:102943001F2FA512800D02901F32EFF07B007A0635
:1029530079DAA512800E54901ADEEFF0D2137B00C1
:102963007A0679DA901D7FA512800D02EF04A51275
:102973008085829010CEE0C3940A50227F02A51274
:1029830080869B901ADEE0FFD211901D7A7401F0CD
:10299300D212E4FDA5128086E77F01022A50D211EC
:1029A300E4901D7AF0D2127D01FFA5128086E780A4
:1029B30013D211E4901D7AF0D2127D01FFA512808B
:1029C30086E78072A5128080399010CEE0FFD39401
:1029D300635005EF9400500CA51280853DA512802D
:1029E30075998052E4901ADDF0A3F0901ADEE0FFAF
:1029F300C39440502FEF25E025E02407F582E4340B
:102A03002DF583E0FF9010CEE0B50710901ADEE0BD
:102A13009010CEF0901ADD7401F08008901ADEE079
:102A230004F080C7901ADDE07021D211A5128085D1
:102A330040A512807599C21EE4903021F09010CE0B
:102A4300F090151A7406F07F0180027F00A522E43E
:102A5300901ADDF0A3F0A3F0A3F0A3F0A3F0A3F08A
:102A630078E87C1A7D007B807A057971FE7F02A568
:102A7300128009CEE4901AEAF09006CFE0B4011870
:102A83009006CDE0FEA3E0FF9010CBE02FFF901067
:102A9300CAE03E901ADE800B9010CAE0FFA3E090DC
:102AA3001ADECFF0A3EFF09010CEE075F0079000A0
:102AB3000AA512800CEBE0FEA3E0FF901ADEE0FC17
:102AC300A3E0FDD3EF9DEE9C5003022C5C9010CC51
:102AD3007433A5128085539010CC7427F090049022
:102AE300E0FEA3E0FFEE6003022C3FEF24F6605705
:102AF30024A67003022BBD24636003022C3F7B805A
:102B03007A047915901F2CA512800D029010CCE049
:102B130025E025E02475F582E43404F583A51280CD
:102B23000D0C901F2FA512800D029010CEE075F0B2
:102B33000790000AA512800CEBE0FFA3E0901F3280
:102B4300CFF0A3EF022C2E7B807A04791B901F2CED
:102B5300A512800D029010CCE025E025E02475F548
:102B630082E43404F583A512800D0C901F2FA51267
:102B7300800D029010CEE075F00790000AA5128038
:102B83000CEBE0FAA3E0FB900490E0FCA3E0FDAFC4
:102B930003AE02A512800A0D901F32EEF0A3EFF0F0
:102BA300900490E0FCA3E0FDAF03AE02A512800AFF
:102BB3000D901F34ECF0A3ED80717B807A047924AF
:102BC300901F2CA512800D029010CCE025E025E08B
:102BD3002475F582E43404F583A512800D0C901F4F
:102BE3002FA512800D029010CEE075F00790000A19
:102BF300A512800CEBE0FAA3E0FB900490E0FCA3A9
:102C0300E0FDAF03AE02A512800A0D901F32EEF075
:102C1300A3EFF0900490E0FCA3E0FDAF03AE02A5A8
:102C230012800A0D901F34ECF0A3EDF07B007A06BE
:102C330079DAA512800E54901ADDEFF0D2137B00DF
:102C43007A0679DA901D7FA512800D02901ADDE0D5
:102C5300901D82F07D01E4807490042DE070089053
:102C63000441E0640170749010CEE075F0079000A9
:102C73000AA512800CEBE0FEA3E0FFD39400EE94D0
:102C8300004058901ADEE0FCA3E0FDEF6D7002EE09
:102C93006C60489010CC7401F0D213E0FF25E0255E
:102CA300E02475F582E43404F583A512800D0C90BD
:102CB3001D7FA512800D02EF25E025E02478F58223
:102CC300E43404F583E493901D82F0E4FDFFA51240
:102CD300808589E47FDC7E05022DF59010CEE075BA
:102CE300F00790000AA512800CEBE0FEA3E0FF9032
:102CF30010CAE0FCA3E0FDD3EF9DEE9C5003022D30
:102D030092EF9DFFEE9C901AE4F0A3EFF09006CFB4
:102D1300E064016003022E0B901AE4E0FEA3E0FFDF
:102D2300C39006CEE09FFF9006CDE09EFE901AE48E
:102D3300F0A3EFF0A3EEA51280C2D5901AE3EFF053
:102D43006018901AEA7401F0901AE6E0FFA3E0908D
:102D53001484CFF0A3EFF0022E0B9010CC743BA59C
:102D6300128085539010CC7419F0D2137B807A04AF
:102D7300792F901D7FA512800D02901D827401F0A2
:102D8300FDE4FFA512808589E47FD07E07806390F0
:102D930010CEE075F00790000AA512800CEBE0FE60
:102DA300A3E0FFC39010CBE09FFF9010CAE09EFE0C
:102DB300901AE4A51280C2D5901AE3EFF0704990FF
:102DC30010CC743BA5128085539010CC7419F0D2AB
:102DD300137B807A04792F901D7FA512800D0290BA
:102DE3001D827401F0FDE4FFA512808589E47FD084
:102DF3007E07A5128075DFE49010CEF09012F7E005
:102E03004401F07F010230189006CFE064016003B3
:102E130002300E901AEAE06401600302300E7F0173
:102E2300A512807EDA901AE2EFF06003022FD490AD
:102E330012E2F0A37405F09012E2E07002A3E070D6
:102E430003022EEAA51280B69C901AE3EFF0640108
:102E53006003022EE2A512807F0990147B7401F0B7
:102E6300901AE0E0FEA3E0FF90147EEE8FF0A5122F
:102E7300800AA17E007F247D007B007A03794EA522
:102E830012800DB1E4900426F0900428F090042BF6
:102E9300F09006CFF09006CDF0A3F090147AE0B452
:102EA300011A90147CE0FCA3E0FDE4FFA512807EF0
:102EB300A5E490147AF090147CF0A3F090147BE0D6
:102EC300B4012490147EE0FCA3E0FD7F01A51280F1
:102ED3007EA5E490147BF090147EF0A3F08008A507
:102EE30012806CD8022E3A9012E2E07002A3E060E6
:102EF3000302300EA5128075DBA51280B61E900466
:102F030042E064016003022F9AA512807F099014A6
:102F13007B7401F0901AE0E0FEA3E0FF90147EEED4
:102F23008FF0A512800AA17E007F247D007B007AAA
:102F330003794EA512800DB1E4900426F090042885
:102F4300F090042BF09006CFF09006CDF0A3F09014
:102F5300147AE0B4011A90147CE0FCA3E0FDE4FFD2
:102F6300A512807EA5E490147AF090147CF0A3F06F
:102F730090147BE06401600302300E90147EE0FC49
:102F8300A3E0FD7F01A512807EA5E490147BF09061
:102F9300147EF0A3F08074A512807E7EE4901481E9
:102FA300F0A3F0A3F0A5128020EE9010CEE075F010
:102FB3000790000AA512800CEBE0FEA3E0FF90103F
:102FC300CAE0FCA3E0FDD3EF9DEE9C403E7F018071
:102FD30044A512807E7EE4901481F0A3F0A3F0A5B3
:102FE300128020EE9010CEE075F00790000AA51233
:102FF300800CEBE0FEA3E0FF9010CAE0FCA3E0FD31
:10300300D3EF9DEE9C40047F01800AE49006CCF050
:103013009006C6F0FFA5227F01901AE6EFF0E4A325
:10302300F0A3F0A3F0A3F0A3F0A5128078C4900658
:10303300CFE0B401189006CDE0FEA3E0FF9010CBE3
:10304300E02FFF9010CAE03E901AEA800B9010CA5E
:10305300E0FFA3E0901AEACFF0A3EFF09014DB7443
:1030630001F0901AE6E0600302319D9010CC7414D5
:10307300A5128085537E007F147D007B007A06793C
:10308300DAA512800DB1900490E0FEA3E0FFEE609C
:103093000302319AEF24F6603D24A6700302313215
:1030A300246360030232F57B807A047931901F2C0C
:1030B300A512800D02900525A512800D0C901F2FDF
:1030C300A512800D02901AEAE0FFA3E0901F32CF11
:1030D300F0A3EF0231897B807A047936901F2CA507
:1030E30012800D02900525A512800D0C901F2FA5AF
:1030F30012800D02900490E0FAA3E0FB901AEAE03C
:10310300FEA3E0FFAD03AC02A512800A0D901F32AF
:10311300EEF0A3EFF0901AEAE0FEA3E0FFAD03ACFC
:1031230002A512800A0D901F34ECF0A3ED80577BAB
:10313300807A04793E901F2CA512800D02900525FC
:10314300A512800D0C901F2FA512800D02900490E4
:10315300E0FAA3E0FB901AEAE0FEA3E0FFAD03ACC4
:1031630002A512800A0D901F32EEF0A3EFF0901A21
:10317300EAE0FEA3E0FFAD03AC02A512800A0D90C6
:103183001F34ECF0A3EDF07B007A0679DAA5128008
:103193000E54901AE8EFF00232F5901AE6E064025A
:1031A30060030233459010CC7414A5128085537EBE
:1031B300007F147D007B007A0679DAA512800DB1B9
:1031C300900490E0FEA3E0FFEE60030232F5EF24EB
:1031D300F6603A24A6700302327924636003023254
:1031E300F57B807A047948901F2CA512800D0290FC
:1031F300053DA512800D0C901F2FA512800D029086
:103203000F69A512800C58901F320232E07B807A3E
:1032130004794E901F2CA512800D0290053DA51236
:10322300800D0C901F2FA512800D02900490E0FEDC
:10323300A3E0FFFBAA06E4F9F8900F69A512800C3E
:1032430058A512800B6A901F32A512800CDE9004E1
:1032530090E0FEA3E0FFFBAA06E4F9F8900F69A54E
:1032630012800C58A512800B6AAC00AD01AE02AF00
:1032730003901F3680677B807A047958901F2CA5B2
:1032830012800D0290053DA512800D0C901F2FA5F5
:1032930012800D02900490E0FEA3E0FFFBAA06E477
:1032A300F9F8900F69A512800C58A512800B6A904B
:1032B3001F32A512800CDE900490E0FEA3E0FFFB1A
:1032C300AA06E4F9F8900F69A512800C58A512809C
:1032D3000B6AAC00AD01AE02AF03901F36A512809E
:1032E3000CDE7B007A0679DAA512800E54901AE878
:1032F300EFF0D2137B007A0679DA901D7FA5128056
:103303000D02901AE8E0901D82F07D01E4FFA51202
:10331300808589E47F64FEA5128075DF9010CEE07E
:10332300FF901498F0E4A3F075F007EF90000AA55E
:1033330012800CEBE0FFA3E090149ACFF0A3EFF020
:10334300802A901AE6E0640170229010CC7414A5D0
:10335300128085537F02A51280869BE47F64FEA5BD
:10336300128075DF901498E09010CEF0E4901497DB
:10337300A51280D536901AE7EFF0BF070BE4A5122C
:1033830080D536901AE7EFF0E4FD7F01A51280C6E1
:103393000A901AE7E0A512800D1933B90036CA0165
:1033A30036CA0238DF0338DF0433B90538DF07399B
:1033B3003B08000039BD901AE6E06003B402219097
:1033C30010CEE075F00790000AA512800CEBE0FE2A
:1033D300A3E0FFC39010CBE09FF09010CAE09EF0F3
:1033E300901AE6E0B4012290149AE0FEA3E0FF9065
:1033F30010CAE0FCA3E0FDC39FEC9E400CED9FFFD1
:10340300EC9E9010CAF0A3EFF09010CC741AA512A2
:10341300808553901AE6E0600302359AA512808FE7
:10342300C1EF702790044FE0B40116B4011DA3E06F
:10343300FEA3E0FFC39010CBE09F9010CAE09E5024
:103443000A7F02A51280869B02359A7E007F147D37
:10345300007B007A0679DAA512800DB1900490E022
:10346300FEA3E0FFEE6003023570EF24F6603D2417
:10347300A67003023508246360030235707B807AEB
:10348300047931901F2CA512800D02900525A512F9
:10349300800D0C901F2FA512800D02901AEAE0FFF9
:1034A300A3E0901F32CFF0A3EF02355F7B807A0455
:1034B3007936901F2CA512800D02900525A5128048
:1034C3000D0C901F2FA512800D02900490E0FAA31B
:1034D300E0FB901AEAE0FEA3E0FFAD03AC02A51205
:1034E300800A0D901F32EEF0A3EFF0901AEAE0FE8F
:1034F300A3E0FFAD03AC02A512800A0D901F34ECCC
:10350300F0A3ED80577B807A04793E901F2CA5129F
:10351300800D02900525A512800D0C901F2FA5127A
:10352300800D02900490E0FAA3E0FB901AEAE0FE1B
:10353300A3E0FFAD03AC02A512800A0D901F32EE8B
:10354300F0A3EFF0901AEAE0FEA3E0FFAD03AC02B4
:10355300A512800A0D901F34ECF0A3EDF07B007AE6
:103563000679DAA512800E54901AE8EFF0D2137B95
:10357300007A0679DA901D7FA512800D02901AE871
:10358300E0901D82F07D01E4FFA512808589E47F30
:10359300C8FEA5128075DF9010CEE0FF75F007908E
:1035A3000009A512800CEB7401F075F007EF900091
:1035B3000CA512800CEBE0D3940040399010CEE0C0
:1035C300FF75F00790000CA512800CEBE014F0756A
:1035D300F007EF90000CA512800CEBE07012901036
:1035E300CEE075F007900009A512800CEB7405F08E
:1035F300A5128075DAA5128097DCA51280AB7590B1
:103603001AE6E0B4010590149F800390149EA5125E
:10361300809F62E4901497F09014E8E0B4013D9029
:1036230010B2A512800C58EF2401FFE43EFEE43DE6
:10363300FDE43CFC9010B2A512800CDE9010B6A500
:1036430012800C7690149AE0FEA3E0FFE4FCFDA543
:1036530012800ACF9010B6A512800CDE9010CEE037
:1036630075F00790000CA512800CEBE0901AF1F0B6
:10367300901498E0FDA3E0FBA3E0FFA3E0901AEF12
:10368300CFF0A3EFF0901497E0FFA51281640CA58F
:103693001280AA6D9012DCE4F0A37464F09012DC43
:1036A300E07002A3E0601BA512806FDC5008E4FD0C
:1036B300FFA51280A4F6A51280C46B901AE9EFF05F
:1036C30080DB7F000239F29010CC741CA512808538
:1036D300539010CEE0FF75F00790000CA512800CFC
:1036E300EBE0D3940040369010CEE0FE75F00790E7
:1036F300000CA512800CEBE014F075F007EE9000BF
:103703000CA512800CEBE0700F75F007EF90000929
:10371300A512800CEB7405F0A5128075DAA5128052
:10372300EE41901AE6E0FF6007640260030238B0DE
:10373300A512808FC1EF64016003023883FE7F14FA
:10374300FD7B007A0679DAA512800DB1900490E032
:10375300FEA3E0FFEE6003023860EF24F6603D2431
:10376300A670030237F8246360030238607B807A13
:10377300047931901F2CA512800D02900525A51206
:10378300800D0C901F2FA512800D029010CAE0FF30
:10379300A3E0901F32CFF0A3EF02384F7B807A046F
:1037A3007936901F2CA512800D02900525A5128055
:1037B3000D0C901F2FA512800D02900490E0FAA328
:1037C300E0FB9010CAE0FEA3E0FFAD03AC02A5123C
:1037D300800A0D901F32EEF0A3EFF09010CAE0FEC6
:1037E300A3E0FFAD03AC02A512800A0D901F34ECD9
:1037F300F0A3ED80577B807A04793E901F2CA512AD
:10380300800D02900525A512800D0C901F2FA51287
:10381300800D02900490E0FAA3E0FB9010CAE0FE52
:10382300A3E0FFAD03AC02A512800A0D901F32EE98
:10383300F0A3EFF09010CAE0FEA3E0FFAD03AC02EB
:10384300A512800A0D901F34ECF0A3EDF07B007AF3
:103853000679DAA512800E54901AE8EFF0D2137BA2
:10386300007A0679DA901D7FA512800D02901AE87E
:10387300E0901D82F07D01E4FFA512808589800719
:103883007F02A51280869BE47FE87E03A5128075E4
:10389300DF9010CAE0FFA3E09006D8CFF0A3EFF0CB
:1038A300E49010CAF0A3F0FFA512803A0EA512808F
:1038B30097DCA51280AB75A51280AA6D901AE6E07D
:1038C300B4010590149F800390149EE0FFA512801D
:1038D3009F64A5128163DB7F020239F29010CC74DE
:1038E3001CA5128085539010CEE0FF75F007900061
:1038F30009A512800CEB7403F075F007EF90000C30
:10390300A512800CEBE4F0A5128075DBA51280975D
:10391300DCA51280EE41901AE6E0B4010590149FF5
:10392300800390149EE0FFA512809F64A51281631B
:10393300DBE47FC47E0980799010CC741CA51280CF
:1039430085539010CEE0FF75F00790000CA5128010
:103953000CEBE0D3940040369010CEE0FE75F007F8
:1039630090000CA512800CEBE014F075F007EE90BC
:10397300000CA512800CEBE0700F75F007EF9000C0
:1039830009A512800CEB7405F0A5128075DAA51257
:103993008097DC901AE6E0B4010590149F800390B1
:1039A300149EA512809F62A5128163DBE47FE87EEB
:1039B30003A5128075DF7F0080359010CEE075F08F
:1039C3000790000CA512800CEBE0901AF1F0901414
:1039D30098E0FDA3E0FBA3E0FFA3E0901AEFCFF094
:1039E300A3EFF0901497E0FFA51281640C7F00A56C
:1039F30022E0FFA3E09006D8CFF0A3EFF0E4901409
:103A03008AF0A3F0A5128078C47F01901AF5EFF035
:103A1300E4A3F0A3F0A3F0A3F0A3F0A3F0A3F0A317
:103A230004F0A3F0A3F0E4A3F0A3F0901B03F0A32E
:103A3300F0A3F0A3F078077C1B7D007B807A0579E7
:103A430086FE7F02A5128009CEE4901B09F0A3F045
:103A5300A3F0A3F0A3F07FF47E01A5128075DFE449
:103A6300FD7F02A51280C60AE47F64FEA51280755D
:103A7300DFA512807FB3A51280DB169010CC741BD8
:103A8300A512808553E47F32FEA5128075DF7E0088
:103A93007F147D007B007A0679DAA512800DB19040
:103AA3000490E0FEA3E0FFEE6003023BB3EF24F6D5
:103AB300603D24A67003023B4B24636003023BB3C7
:103AC3007B807A047931901F2CA512800D0290051A
:103AD30021A512800D0C901F2FA512800D029006B8
:103AE300D8E0FFA3E0901F32CFF0A3EF023BA27B0D
:103AF300807A047936901F2CA512800D029005213F
:103B0300A512800D0C901F2FA512800D029004901A
:103B1300E0FAA3E0FB9006D8E0FEA3E0FFAD03AC20
:103B230002A512800A0D901F32EEF0A3EFF090066B
:103B3300D8E0FEA3E0FFAD03AC02A512800A0D900E
:103B43001F34ECF0A3ED80577B807A04793E901FFD
:103B53002CA512800D02900521A512800D0C901F3B
:103B63002FA512800D02900490E0FAA3E0FB9006CB
:103B7300D8E0FEA3E0FFAD03AC02A512800A0D90CE
:103B83001F32EEF0A3EFF09006D8E0FEA3E0FFAD06
:103B930003AC02A512800A0D901F34ECF0A3EDF0E4
:103BA3007B007A0679DAA512800E54901AFCEFF0A6
:103BB300D2137B007A0679DA901D7FA512800D025D
:103BC300901AFCE0901D82F07D01E4FFA512808530
:103BD30089E47F32FEA5128075DF9012F67401F03E
:103BE300E4901474F0A3F0A3F0A3F09006D8E0FEE1
:103BF300A3E0FF7C007D0AA512800A0D901B03EE53
:103C0300F0FCA3EFF0FD7B007A1B7907A51280C2BD
:103C1300F2901B02EFF064016003023E27901AFC4E
:103C2300F0901AFCE0FFC394024003023E2774079E
:103C33002FF582E4341BF583E07003023E1E901AD5
:103C4300FCE02407F582E4341BF583E07003023EB5
:103C53001ED3940F401A901B09740FF0901AFCE0C6
:103C63002407F582E4341BF583E0C3940FF080232B
:103C7300901AFCE0FF2407F582E4341BF583E0FE91
:103C8300901B09F0FD74072FF582E4341BF583C301
:103C9300EE9DF0901AFCE07009901B09E0FD7F0196
:103CA300800E901AFCE0B40111901B09E0FDE4FFC3
:103CB300A51280E8E6901B02EFF0E47FE87E03A5FF
:103CC300128075DF901B02E06003023DF7901B0931
:103CD300E02414FEE4339014D5F0A3CEF09014D571
:103CE300E07002A3E07003023C417B007A1B79057C
:103CF300A51280E924901B02EFF06003023DE67BEE
:103D0300007A047927901D5AA512800D027A03794F
:103D130072A51280E97A901B02EFF0BF01BF9003F6
:103D230072E0F9D394004052E9FF7E0090043AEE2A
:103D3300F0A3EFF07C007D32A5128009FA90147491
:103D4300EEF0FCA3EFF0FD901B0AEC8DF0A51280C2
:103D53000AA17B007A107986A512807F3F901474A4
:103D6300E0FCA3E0FDC39006D9E09DF09006D8E007
:103D73009CF07B007A10798A805A900373E0F9D320
:103D830094004055E9FF7E0090043CEEF0A3EFF071
:103D93007C007D64A5128009FA901476EEF0FCA3F2
:103DA300EFF0FD901B0CEC8DF0A512800AA17B00B7
:103DB3007A10798EA512807F3F901476E0FCA3E001
:103DC300FDC39006D9E09DF09006D8E09CF07B00FF
:103DD3007A107992A512807F3FE49014D5F0A3F076
:103DE300023CE07FE87E03A512806CDCA512807F95
:103DF300DA023CE0901B02E064806003023C4190E5
:103E03001B06E004F0E0C394034003023C41E47F5B
:103E13002C7E01A5128075DF023BEE901AFCE004B4
:103E2300F0023C249006D8E0FEA3E0FFD39400EE1A
:103E330094004046901B007401F0D3EF9430EE944D
:103E43007540169004587401F074FF9F900457F066
:103E530074FF9E900456F0801DE4900458F0900681
:103E6300D8E0FAA3E0FB900456EAF0A3EBF0E4FDFC
:103E7300FFA512816354D2218005E4901B00F090CA
:103E83001AF5E0901B0A6014E0FCA3E0FDA3E0FA3E
:103E9300A3E0FBE4FFA51281616E8012E0FCA3E0C6
:103EA300FDA3E0FAA3E0FBE4FFA51281622FE490F7
:103EB3001474F0A3F0A3F0A3F0901B00E0700302CE
:103EC3004084A51281003F9010CC7401A512808517
:103ED300539010CC7420F07E007F147D007B007A19
:103EE3000679DAA512800DB19010CCE0FF25E0250C
:103EF300E02478F582E43404F583E493FD7C00C088
:103F030004C005EF25E025E02475F582E43404F5CB
:103F130083A512800D0C78DA7C067D00D007D006CD
:103F2300A5128009CE9010CCE025E025E02478F599
:103F330082E43404F583E493901AFCF0900490E057
:103F4300FEA3E0FFEE600302405AEF24F660402434
:103F5300A67003023FEE2463600302405A901AFCEA
:103F6300E024DAF9E43406FA7B00C003C002C0019E
:103F73007B807A0379DC901F2CA512800D029004BC
:103F830056E0FFA3E0901F2FCFF0A3EF024048902D
:103F93001AFCE024DAF9E43406FA7B00C003C00219
:103FA300C0017B807A0379DF901F2CA512800D025C
:103FB300900490E0FAA3E0FB900456E0FEA3E0FF38
:103FC300AD03AC02A512800A0D901F2FEEF0A3EFF4
:103FD300F0900456E0FEA3E0FFAD03AC02A512800F
:103FE3000A0D901F31ECF0A3ED805A901AFCE024E7
:103FF300DAF9E43406FA7B00C003C002C0017B8017
:104003007A0379E5901F2CA512800D02900490E0AD
:10401300FAA3E0FB900456E0FEA3E0FFAD03AC027D
:10402300A512800A0D901F2FEEF0A3EFF090045617
:10403300E0FEA3E0FFAD03AC02A512800A0D901FC2
:1040430031ECF0A3EDF0D001D002D003A512800E25
:1040530054901AFCE02FF0D2137B007A0679DA90A1
:104063001D7FA512800D02901AFCE0901D82F07D49
:1040730001E4FFA5128085897FD07E07A512806C9D
:10408300DC7FF47E01A512806CDCA5128070289081
:104093000438E0FEA3E0FF901486EEF0A3EFF0E413
:1040A300901484F0A3F0900492E0640160169004ED
:1040B3002DE07010C3EF94F4EE940140079006EFE7
:1040C300E054F7F07F00A522E4901ADDF0A51280FA
:1040D300AA6D9006EFE04440F09010C9E04401F06F
:1040E3009010CC740DA5128085537F01A522E49016
:1040F3001AE6F0A3F0A3F0A51280A64BE47FC8FE56
:10410300A5128075DFA51280A64BE4903028F090AD
:104113000006F0A5128078C4A51280DB1690024B2E
:104123007402F0301F07A51280801CC21FA51280E5
:10413300A551901AB67401F0E49006EEF0A3F09046
:1041430012FCF0FBFAFD7F05A512810116A5128072
:10415300C6069014E77401F0A51280A258A5128137
:10416300431EA512804420A51280981F40EF901291
:10417300FD7401F09012FCF0E4FBFAFD7F06A5123A
:10418300810116E4FD7F05A51280C60AE49014E7B9
:10419300F0A512807028E49006CFF09006CDF0A32E
:1041A300F0901AB6F0D2139004BDA512800D0C90B6
:1041B3001D7FA512800D029004C0A512808580D2B8
:1041C300137B807A04792F901D7FA512800D0290B6
:1041D3001D827401F0FDE4FFA512808589A512807C
:1041E300803990024B7401F0E49006EEF0A3F0D214
:1041F3001D201F07A5128087EFD21FA512808815E7
:104203007D53E4FFA51280D54CBF020E9006EFE06C
:104213004440F09010C9E04401F0E490151AF09086
:104223000446F09001C8F0A3F0A5128141FF901A53
:10423300E7EEF0A3EFF07F00A522E4901ADDF0A3F0
:10424300F0A3F0901AF4F09014E5E0600302431633
:104253009006CFE064017053FFA512807EDA901AB6
:10426300F4EFF09014817401F09006CDE0FFA3E029
:10427300901482CFF0A3EFF0E49006CFF09006CD38
:10428300F0A3F0901481E0B4010EA512807E9DE4AA
:10429300901481F0A3F0A3F0901AF4E0700280016F
:1042A300E49006CFF09006CDF0A3F09010CAE0FEA4
:1042B300A3E0FFD39400EE94004027A5128070D9A9
:1042C3007E007F247D007B007A037972A512800D26
:1042D300B17E007F247D007B007A03794EA5128096
:1042E3000DB19014DBE0B40102E4F09006CFE0647A
:1042F300016005A512807ED8A5128078C4E49014CD
:10430300C5F09014E504F09014E4E0700604A512DF
:1043130080A2577E007F147D007B007A1A79E0A586
:1043230012800DB19006EEE0FEA3E0FF30E60890A8
:104333001ADE74F7F08051EF30E708901ADE74F854
:10434300F08045EE30E008901ADE74F9F08039EE23
:1043530030E108901ADE74FAF0802DEE30E4089014
:104363001ADE74FDF08021EE30E50E901ADF7470D2
:10437300F0901ADE7402F0800FEE901ADE30E6053C
:1043830074E1F0800374FFF0901ADEE09014DDF026
:104393009010CDE070759010CC7410A512808553E9
:1043A300E47F14FEA5128075DF7B807A0479649024
:1043B3001F2CA512800D02901ADFE0901F2FF090A2
:1043C3001ADEE0901F30F07B007A1A79E0A3A51281
:1043D300800D027A0679DAA512800E54901ADDEF69
:1043E300F0D2137B007A0679DA901D7FA512800D37
:1043F30002901ADDE0901D82F07D01E4FFA512809A
:104403008589E47F14FEA5128075DF900005E00422
:10441300F0E0C394024002E4F07F01A522E4901A85
:10442300EBF0D20FA3F0A3F0024B42901AECE06042
:1044330003024B52F0D20FA512808039D213901D84
:1044430027A512800D0C901D7FA512800D02901DD3
:104453002AA512808580D213901D2BA512800D0CE6
:10446300901D7FA512800D02901D2EE493901D8256
:10447300F07D01E4FFA512808589A5128086D9907D
:104483001AE97401F0A304F0200F03024841A512B6
:1044930080A673901AEDEFF024F3700302462724ED
:1044A300F2700302462224CB70030245762408608F
:1044B3000302481E901AEAE06402702DD211901D87
:1044C3007A7402F0D212E4FDFFA5128086E7901AF7
:1044D300EA7401F0901AE9E07006740DF002481EC8
:1044E300901AE9E014F002481ED213901AE9E0FF93
:1044F30025E025E02427F582E4341DF583A5128009
:104503000D0C901D7FA512800D02EF25E025E02400
:104513002AF582E4341DF583E493901D82F07D0136
:10452300E4FFA512808589901AE9E07005740DF007
:104533008006901AE9E014F0D213901AE9E0FF25FF
:10454300E025E02427F582E4341DF583A512800DD0
:104553000C901D7FA512800D02EF25E025E0242A93
:10456300F582E4341DA51280857E901AEA7401F069
:1045730002481E901AEAE06401701AA5128086D9D7
:10458300901AE9E0B40D05E4F0024619901AE9E047
:1045930004F0024619D213901AE9E0FF25E025E062
:1045A3002427F582E4341DF583A512800D0C901D9C
:1045B3007FA512800D02EF25E025E0242AF582E491
:1045C300341DA51280857E901AE9E0B40D04E4F051
:1045D3008006901AE9E004F0D213901AE9E0FF256F
:1045E300E025E02427F582E4341DF583A512800D30
:1045F3000C901D7FA512800D02EF25E025E0242AF3
:10460300F582E4341DF583E493901D82F07D01E48B
:10461300FFA512808589901AEA7402F002481EC22F
:104623000F02481EC211E4901D7AF0D212FDFFA5BD
:10463300128086E7A512808039901AE9E0A51280DE
:104643000D19467300467A01468102468803468F58
:1046530004469305469A0646A10746AA0846B109A9
:1046630046B80A46BF0B46C60C46CD0D000046D2DF
:10467300A512811B438058A51280FEAE8051A5125E
:10468300804EC5804AA5128165F980437F01801061
:10469300A512816BA58038A51281671A80317F022C
:1046A300A51281694E8028A51280EB038021A512F3
:1046B3008119EE801AA5128063598013A51280AB6D
:1046C30077800CA51280AFC28005A512816CD590AE
:1046D3001AEAE064026003024769901AE9E070177E
:1046E300D213901D5BA512800D0C901D7FA5128027
:1046F3000D02901D5E802FD213901AE9E0FF25E092
:1047030025E02423F582E4341DF583A512800D0CE6
:10471300901D7FA512800D02EF25E025E02426F5EC
:1047230082E4341DF583A512808580D213901AE9A3
:10473300E0FF25E025E02427F582E4341DF583A579
:1047430012800D0C901D7FA512800D02EF25E02530
:10475300E0242AF582E4341DF583E493901D82F06E
:104763007D01E40247FC901AE9E0B40D17D21390DF
:104773001D27A512800D0C901D7FA512800D0290A0
:104783001D2A802FD213901AE9E0FF25E025E024AB
:104793002BF582E4341DF583A512800D0C901D7F4B
:1047A300A512800D02EF25E025E0242EF582E434E6
:1047B3001DF583E493901D82F07D01E4FFA5128033
:1047C3008589D213901AE9E0FF25E025E02427F537
:1047D30082E4341DF583A512800D0C901D7FA51274
:1047E300800D02EF25E025E0242AF582E4341DF54F
:1047F30083E493901D82F0E4FDFFA51280858990E8
:104803001AEAE014FDD211901D7A7402F0D212E478
:10481300FFA5128086E7A512808039A51280746EE9
:104823007F0A7E00A512806D629012DAE07002A307
:10483300E0600302448BA51280C5FE02448BE47F33
:104843002C7E01FDFC901DB37415F0A3741FF0A51D
:10485300128075E7A512813A4BD211E4901D7AF0CC
:10486300D212FDFFA5128086E7D211E4901D7AF0E3
:10487300D212FD7F01A5128086E7903034E07003E9
:1048830030244ED2137B807A1C79F5901D7FA512BC
:10489300800D02901D82740AA512808585D2137B38
:1048A300807A1D7900901D7FA512800D02901D82D4
:1048B3007401F0FDE4FFA512808589E47FC47E09BD
:1048C300FDFC901DB37415F0A3741FF0A512807541
:1048D300E7903034E070030249B2A51280FFFDE493
:1048E3007F64FEA5128075DFA5128097DCE47F64E8
:1048F300FEA5128075DF7E017FC07D007B007A1AE2
:1049030079EEA512800DB17F807E027D087C007553
:10491300371A7538EE753901753AC0A5128094348B
:10492300E4901AEBF0901AEBE0FF75F007901AF29F
:10493300A512800CEBE0FE75F007EF90000CA512BA
:10494300800CEBE06E7057901AEBE075F007901A4D
:10495300EFA512800CEBE0FE75F007EF900009A5C0
:1049630012800CEBE0B50636901AEBE075F0079079
:104973001AF0A512800CEBE0FCA3E0FD75F007EF45
:1049830090000AA512800CEBE0FEA3E0B5050FEE44
:10499300B5040B901AEBE004F0E064407087901AC2
:1049A300EBE064406004A37401F0E4903034F02041
:1049B3002403024AA6A51281003FE47F64FEA512E8
:1049C3008075DF7E007F687D007B007A1C79AEA551
:1049D30012800DB17F807E017D087C0075371C75C8
:1049E30038AE753900753A68A512809434901CAEC0
:1049F300E0FF900447E06F6003024A9E901CAFE023
:104A0300FEA3E0FF900448E06E7003A3E06F600331
:104A1300024A9E901CB1E0FEA3E0FF90044AE06EC0
:104A23007003A3E06F7074901CB3E0FEA3E0FF90EB
:104A3300044CE06E7003A3E06F7060901CB5E0FF60
:104A430090044EE06F7054901CB6E0FF90044FE06A
:104A53006F7048901CB7E0FEA3E0FF900450E0B5F0
:104A63000639A3E0B50734901CB9E0FEA3E0FF903C
:104A73000452E0B50625A3E0B50720901CBDE0FE77
:104A8300A3E0FF900456E0B50611A3E0B5070C9030
:104A93001D15E0FF9004AEE06F6006901AEC740100
:104AA300F0C224901AECE07003024B49A5128080F7
:104AB30039D2137B807A1D7902901D7FA512800D58
:104AC30002901D827413A512808585D2137B807A90
:104AD3001D7916901D7FA512800D02901D82741002
:104AE300F07D01E4FFA51280858990302D740FF0CD
:104AF300E4901AEBF090302DE0603BA512807473C4
:104B0300A51280A673901AEDEFF0F460E8901AED09
:104B1300E024E56010240E70DCE4901AECF0901AA7
:104B2300EB04F0800A901AEC7401F0901AEBF09009
:104B33001AEBE0B401BF90302DE0600302442E90E5
:104B43001AECF002442E901AEC7401F002442EA5E4
:104B530002808039901D31EDF0901D30EFF0E4902C
:104B63001D32F0901D53F0EF24FD601D14602514D9
:104B7300603514605124FC606624086003024C0411
:104B830090042CE030E075806B90042DE030E0025F
:104B93008062806890042DE030E0028057E4901D2D
:104BA30032F0900434801190042DE030E002804410
:104BB300E4901D32F0900436E0FFA3E0901D51CF46
:104BC300F0A3EFF0803B9010BEE0FF540660089026
:104BD3001D327403F0802AEF30E0028017801D90AD
:104BE30010C7E0FF30E708901D327402F08012EF27
:104BF30054036008901D327401F08005E4901D3267
:104C0300F0301103024E46901D30E0FF25E025E011
:104C13002481F582E43409F583E493FD7C00C00428
:104C2300C005EF25E025E0247EF582E43409F58311
:104C3300A512800D0C78337C1D7D00D007D006A50E
:104C4300128009CE901D30E0FF64046008EF640514
:104C53006003024DA3901D32E06003024DA3900454
:104C630090E0FEA3E0FFEE6003024D40EF24F66008
:104C73002A24A6606F24636003024D407B807A0878
:104C830079FD901F2CA512800D02901D51E0FFA30A
:104C9300E0901F2FCFF0A3EF024D2E7B807A09798E
:104CA30000901F2CA512800D02900490E0FAA3E05F
:104CB300FB901D51E0FEA3E0FFAD03AC02A5128003
:104CC3000A0D901F2FEEF0A3EFF0901D51E0FEA30D
:104CD300E0FFAD03AC02A512800A0D901F31ECF08A
:104CE300A3ED80477B807A097906901F2CA512805B
:104CF3000D02900490E0FAA3E0FB901D51E0FEA3A7
:104D0300E0FFAD03AC02A512800A0D901F2FEEF059
:104D1300A3EFF0901D51E0FEA3E0FFAD03AC02A5AD
:104D230012800A0D901F31ECF0A3EDF07B007A1D89
:104D33007947A512800E54901D53E02FF0901D5318
:104D4300E0FF7E00901D30E025E025E02481F58220
:104D5300E43409F583E4932433F9E4341DA801FC16
:104D63007D007B007A1D7947A5128009CE901D3105
:104D7300E0FDD2137B007A1D7933901D7FA512804D
:104D83000D02901D30E025E025E02481F582E43416
:104D930009F583E493FF901D53E0FEEF2E024E3995
:104DA300901D32E0FF25E025E024B1F582E43409CB
:104DB300F583E493FD7C00C004C005EF25E025E006
:104DC30024AEF582E43409F583A512800D0CC001ED
:104DD300901D30E025E025E02481F582E43409F5D7
:104DE30083E4932433F9E4341DA801FC7D00D0014E
:104DF300D007D006A5128009CE901D31E0FDD21355
:104E03007B007A1D7933901D7FA512800D02901DC2
:104E130032E025E025E024B1F582E43409F583E4AA
:104E230093FF901D30E025E025E02481F582E434F2
:104E330009F583E4932F901D82F0E4FFA51280858A
:104E4300898005901D32E0FFA522901D16E0FF7DAD
:104E530001901D2FEDF0901D2EEFF06402600FE026
:104E6300FF64036009EF64046004EFB40511901D4F
:104E73002EE0FFA3E0FDC211A512804B57804190A5
:104E83001D2FE0FDD213901D2EE0FF25E025E02429
:104E93007EF582E43409F583A512800D0C901D7F05
:104EA300A512800D02EF25E025E02481F582E4348C
:104EB30009F583E493901D82F0E4FFA512808589B0
:104EC300A522E4901D40F0A3F0A3F0A3F0A3740A7D
:104ED300F0A37402F0901D4714F0E4A3F0A3F09044
:104EE3001D5EF0901D40F0901D40E0FFC3944050C4
:104EF3003175F007EF900008A512800CEBE0601A03
:104F0300901D40E075F007900009A512800CEBE0BE
:104F1300540A6006901D49E004F0901D40E004F03F
:104F230080C57E007F147D007B007A1D794AA5121F
:104F3300800DB1901D49E070107B807A09791C9037
:104F43001F2CA512800D0280167B807A0979279089
:104F53001F2CA512800D02901D49E0901F2FF07B9E
:104F6300007A1D794AA512800E54901D5EEFF0D28F
:104F7300137B007A1D794A901D7FA512800D029044
:104F83001D5EE0A5128085827F02A51280869BE4C8
:104F93007FB87E0BA5128075DF901D46A512808613
:104FA300D1901D457402F0E4901D40F0901D40E047
:104FB300FFC39440501FEF25E025E02407F582E46A
:104FC300342DF583E0600E901D48E004F0901D4001
:104FD300E004F080D7901D47E070030252E07E00AA
:104FE3007F157D007B007A1D7916A512800DB17E99
:104FF300007F157D007B007A1D792BA512800DB1F2
:10500300E4901D41F0901D40F0901D43E0901D4041
:10501300F0901D44E0FF901D40E0FEC39F4003025B
:105023005262901D43E02405FDE433FCEEC39DEC86
:105033006480F8748098400302513A901D40E02543
:10504300E025E02407F582E4342DF583E0700302C4
:105053005259901D41E075F004A42416F9741D35CE
:10506300F0FA7B00C003C002C0017B807A09793764
:10507300901F2CA512800D02901D40E025E025E035
:105083002407F582E4342DF583E0901F2FF0D0013F
:10509300D002D003A512800E54E4901D42F0901D5F
:1050A30040E075F007900009A512800CEBE0FF20AB
:1050B300E007E4901D42F0803EEF540A6008901D23
:1050C300427402F08031901D40E0FF75F0079000BC
:1050D30009A512800CEBE020E20F75F007EF9000BA
:1050E3000CA512800CEBE07008901D427403F08055
:1050F30006901D427401F0901D42E0FF25E025E07B
:1051030024C1F582E43409F583E493FD7C00C004F3
:10511300C005EF25E025E024BEF582E43409F583DC
:10512300A512800D0CC001901D41E075F004A4246C
:1051330018F9741D025241901D48E0FF901D40E094
:10514300FEC39F4003025262EE25E025E02407F5EB
:1051530082E4342DF583E07003025259901D41E03F
:1051630075F004A42417F9741D35F0FA7B00C0030D
:10517300C002C0017B807A097937901F2CA5128069
:105183000D02901D40E025E025E02407F582E4347C
:105193002DF583E0901F2FF0D001D002D003A5128C
:1051A300800E54E4901D42F0901D40E075F007908E
:1051B3000009A512800CEBE0FF20E007E4901D42FC
:1051C300F0803EEF540A6008901D427402F0803173
:1051D300901D40E0FF75F007900009A512800CEBCD
:1051E300E020E20F75F007EF90000CA512800CEBA6
:1051F300E07008901D427403F08006901D42740114
:10520300F0901D42E0FF25E025E024C1F582E4345F
:1052130009F583E493FD7C00C004C005EF25E02578
:10522300E024BEF582E43409F583A512800D0CC099
:1052330001901D41E075F004A42419F9741D35F0A3
:10524300A801FC7D00D001D007D006A5128009CEAD
:10525300901D41E004F0901D40E004F00250147BE7
:10526300007A1D7916A512800010EF4E70127B0094
:105273007A1D792BA512800010EF4E70030253960E
:10528300D2137B007A1D7916901D7FA512800D0223
:10529300901D827414A512808585D2137B007A1D1C
:1052A300792B901D7FA512800D02901D41E024FBF8
:1052B30025E025E0901D82F07D01E4FFA5128085A5
:1052C30089901D45E014FDD211901D7A7402F0D22D
:1052D30012E4FFA5128086E7E4901D47F0A5128033
:1052E300A673901D46EFF024E5700302539624CB7A
:1052F30060462408707A901D45E0B4021AD21190DA
:105303001D7A7402F0D212E4FDFFA5128086E790A5
:105313001D457401F08059901D43E0D39400405023
:10532300901D43E024FBF0A3E024FBF0901D4774A1
:1053330001F0901D45F08038901D45E0B4010DA5A6
:10534300128086D9901D457402F08024901D48E098
:10535300FF901D44E0C39F5017901D43E02405F0C8
:10536300A3E02405F0901D477401F0901D4504F05F
:10537300A51280746E7F0A7E00A512806D62901262
:10538300DAE07002A3E06003024FD8A51280C5FEE5
:10539300024FD8A522901D1FE0FDD2117F01901D61
:1053A30023EFF0A3EDF0E4901D46F0A3F0901D3B36
:1053B300F0FE7F16FD7B007A1D7925A512800DB1C5
:1053C300901D24E06403700302549BE0FF25E02555
:1053D300E024A6F582E4341FF583E493FD7C00C04A
:1053E30004C005EF25E025E024A3F582E4341FF58E
:1053F30083A512800D0C78257C1D7D00D007D00677
:10540300A5128009CE30115DA51281065F901D247F
:10541300E025E025E024A6F582E4341FF583E49338
:10542300901D47F0901D3BE0FF901D46E0C39F5049
:1054330025E0FF04F0743C2FF582E4341DF583E08E
:10544300FF901D47E0FE04F074252EF582E4341D21
:10545300F583EFF080CE901D47E02425F582E434F8
:105463001DF583E4F0901D23E0FDD2137B007A1D2C
:105473007925901D7FA512800D02901D24E025E063
:1054830025E024A6F582E4341FF583E493FF901D01
:105493003BE0FEEF2E02559B20113AD213901D24C0
:1054A300E0FF25E025E024A3F582E4341FF583A57E
:1054B30012800D0C901D7FA512800D02EF25E025B3
:1054C300E024A6F582E4341FF583E493901D82F073
:1054D300E4FD0255A0901D24E0FF25E025E024A66D
:1054E300F582E4341FF583E493FD7C00C004C0051A
:1054F300EF25E025E024A3F582E4341FF583A5120C
:10550300800D0C78257C1D7D00D007D006A5128068
:1055130009CEA51281065F901D24E025E025E02435
:10552300A6F582E4341FF583E493901D47F0901DA4
:105533003BE0FF901D46E0C39F5025E0FE04F0745E
:105543003C2EF582E4341DF583E0FE901D47E0FD1B
:1055530004F074252DF582E4341DF583EEF080CE3E
:10556300901D47E02425F582E4341DF583E4F09093
:105573001D23E0FDD2137B007A1D7925901D7FA5A5
:1055830012800D02901D24E025E025E024A6F5827B
:10559300E4341FF583E4932F901D82F0E4FFA512FA
:1055A300808589A522901D1AEFF0A3EDF0E4901DEC
:1055B30026F0A37405F07E007F0A7D007B007A1D30
:1055C300791CA512800DB1901D1AE0FF640270577B
:1055D300EF25E025E024A3F582E4341FF583A5122B
:1055E300800D0CC003C002C001EF25E025E024A616
:1055F300F582E4341FF583E493FD901D1BE0901DB9
:1056030040F07B007A1D791CA3A512800D027A1D40
:105613007927901D44A512800D02D001D002D0033A
:10562300A51280F4B78059901D1AE0FF25E025E00C
:1056330024A3F582E4341FF583A512800D0CC00367
:10564300C002C001EF25E025E024A6F582E4341F63
:10565300F583E493FD901D1BE0901D59F07B007AC8
:105663001D791CA3A512800D027A1D7927901D5D5B
:10567300A512800D02D001D002D003A51280F773CA
:10568300901D26EFF0A512808039901D26E064015D
:105693007031C211901D7AF0D212FDFFA5128086DF
:1056A300E7901D1AE0FF7A1D7B1C901D4D741DF0C1
:1056B300A37427F0D212E4FDFCA512810677A5128C
:1056C300808039C3A522901D20E0FDD211E4FF9014
:1056D3001D25EFF0A3EDF0E4A3F0FE7F2CFD7B008E
:1056E3007A2F79CDA512800DB1201137D213901DD9
:1056F30026E0FF25E025E024D1F582E43419F58383
:10570300A512800D0C901D7FA512800D02EF25E0E0
:1057130025E024D4F582E43419A51280857E7F0028
:10572300025826901D26E0FF25E025E024D4F582CB
:10573300E43419F583E493FD7C00C004C005EF2530
:10574300E025E024D1F582E43419F583A512800D18
:105753000C78CD7C2F7D00D007D006A5128009CE12
:10576300901D26E0FF25E025E024D4F582E43419DA
:10577300F583E49324CDF582E4342FAD82FC901DB0
:1057830041741DF0A37427F0C212E4FBFAA5128141
:105793000EFF901D25E0FDD2137B007A2F79CD906B
:1057A3001D7FA512800D02901D26E025E025E02433
:1057B300D4F582E43419F583E493FF901D27E0FECA
:1057C300EF2E901D82F0E4FFA512808589901D269F
:1057D300E0FF25E025E024D4F582E43419F583E4E1
:1057E30093FE901D27E0FDEE2D24CDF582E4342FAA
:1057F300F583E4F0EF25E025E024D4F582E43419C1
:10580300F583E493FF2DFDE433FCD3ED9414EC64B2
:10581300809480400C901D27E0FEEF2E24ECFF8047
:10582300027F00A522901D1AEFF0A3EDF0E4901D76
:105833003AF0A3F0C210901D1AE0FF25E02421F5F1
:1058430082E4341AF583740193901D3BF0EF6018E2
:1058530064016014EF6402600FEF6407600AEF6491
:10586300086005EF6409705B901D1AE0FF25E025D1
:10587300E024D1F582E43419F583A512800D0CC020
:1058830003C002C001EF25E025E024D4F582E4340F
:1058930019F583E493FD901D1BE0901D40F07B0000
:1058A3007A1D791CA3A512800D027A1D793B901DE8
:1058B30044A512800D02D001D002D003A51280F4BA
:1058C300B78059901D1AE0FF25E025E024D1F58229
:1058D300E43419F583A512800D0CC003C002C00186
:1058E300EF25E025E024D4F582E43419F583E4932D
:1058F300FD901D1BE0901D59F07B007A1D791CA3C0
:10590300A512800D027A1D793B901D5DA512800DB5
:1059130002D001D002D003A51280F773901D3AEF95
:10592300F0A512808039901D3AE064017031C211F4
:10593300901D7AF0D212FDFFA5128086E7901D1A02
:10594300E0FF7A1D7B1C901D41741DF0A3743BF096
:10595300D212E4FDFCA512810EFFA512808039A2AC
:1059630010A522901D17E0FD7F01901D1AEFF0A3F3
:10597300EDF0E4A3F0FE7F1AFD7B007A1D791DA5EF
:1059830012800DB1901D1BE0A512800D1959C400A2
:105993005A3B015AC0025B37035BBC045CA9055C3C
:1059A30033065CA9075CAB085CA9095DA00A5E4BE2
:1059B3000B5EE20C5F8D0D60380E60CF0F0000614F
:1059C30088901D1BE0FF25E025E024CBF582E4341D
:1059D3001BF583E493FD7C00C004C005EF25E0259F
:1059E300E024C8F582E4341BF583A512800D0C78FE
:1059F3001D7C1D7D00D007D006A5128009CE901D09
:105A03001BE025E025E024CBF582E4341BF583E499
:105A130093901D1CF0241DF9E4341DFA7B00C00390
:105A2300C002C0017B807A1B798C901F2CA5128049
:105A33000D02901096025D1F901D1BE0FF25E025CF
:105A4300E024CBF582E4341BF583E493FD7C00C0B2
:105A530004C005EF25E025E024C8F582E4341BF5F6
:105A630083A512800D0C781D7C1D7D00D007D00608
:105A7300A5128009CE901D1BE025E025E024CBF57F
:105A830082E4341BF583E493901D1CF0241DF9E498
:105A9300341DFA7B00C003C002C0017B807A1B79EE
:105AA3008C901F2CA512800D02900490E0FEA3E0C1
:105AB300FFFBAA06E4F9F890109A025ECD901D1B35
:105AC300E0FF25E025E024CBF582E4341BF583E4F5
