:020000040000FA
:10000000021B58080001009600A522A50281384075
:10001000E4FFFEA54860090FEF70010EA56980F3AB
:02002000A52217
:10002300A502806F54EFB40A09740DA51280003540
:10003300740A309811A899B8130CC2983098FDA887
:0F00430099C298B811F63099FDC299F599A52286
:10005300A502814AD8202020202020BBB6D3ADB9E9
:10006300E2C1D900202020202020C1E3C7AEB2BBCB
:10007300D7E30020202020D1A1D4F1C9CCC6B7B347
:10008300ACCAB120202020002020C7EBB2E5C8EB8A
:10009300B8FCD0A1C3E6B6EED6BDB1D2002020C7CE
:1000A300EBD1A1BBF5BBF2BCCCD0F8CDB6B1D2211C
:1000B30000C8B7B6A8454E54455220C8A1CFFB434C
:1000C300414E43454C0020202020C7EBC8A1C1E38B
:1000D300C7AE00C8A1CFFB43414E43454C0020208F
:1000E3002020CAE4C8EBB4EDCEF300C8B7B6A845E8
:1000F3004E544552002020C7EBCDB6C8EBD6BDB158
:10010300D2BBF2D3B2B1D200BFCDBBA7D3E0B6EE20
:100113003A00D1A1D4F1C6E4CBFCC9CCC6B7C2F036
:100123003F200020202020BBFAC6F7B9CAD5CF0054
:100133002020C9CCC6B7D2D1CADBCDEA002020200B
:10014300202020D0BBD0BB2100202020202020D481
:10015300DDCDA3B7FECEF10020202020D5D2C1E310
:10016300C6F7B9CAD5CF002020C7EBC9D4BAF22E3F
:100173002E2E00BDF0B6EEB2BBD7E32C20BCD3C706
:10018300AEC2F03F20002020D5FDD4DAB3F6BBF594
:100193002E2E2E002020D5FDD4DAD5D2C1E32E2E6B
:1001A3002E0020202020D5D2C1E3CAA7B0DC002036
:1001B300202020486F772061726520796F752100B8
:1001C300C7EBCAE4C8EBC6E4CBFCC9CCC6B7B1E005
:1001D300BAC5002020C7EBD1A1D4F1C6E4CBFCC93A
:1001E300CCC6B7002020C7EBC8A1BBF52E2E2E002E
:1001F3002020C7EBC8A1D7DFCDCBB1D22E2E2E0046
:100203002020C9CCC6B7BBF5B5C0B9CAD5CF00202D
:1002130020D1A1D4F1C6E4CBFCC9CCC6B7C2F03F10
:1002230000202020202020B2D9D7F7B3ACCAB100D8
:1002330020202020D5FDD4DACDCBBFEE00C7B7BF39
:10024300EE3A0020202020C7EBCDB6C8EBD3B2B1E5
:10025300D20020202020C7EBB2E5C8EBD6BDB1D237
:1002630000B2BBD5D2C1E3A3ACB9BAC2F2C7EBCDDE
:10027300B6B1D2004556373733362D5542204D445B
:10028300422056312E3731002020BBB9D2AAB9BA49
:10029300C2F2C9CCC6B7C2F03F00202020202020E4
:1002A300CEDEC1E3B1D2002020C9CCC6B7BCDBB8D7
:1002B300F13A002020CBF9D1A1C9CCC6B7D4DDCA0D
:1002C300B100C8B1BBF5002020B9CAD5CF002020AA
:1002D300CDCBB1D2BDF0B6EE3A002020B5B1C7B058
:1002E300BDF0B6EE3A002020C7EBCBA2BFA82E2E5E
:1002F3002E002020CDB6B1D22D3ED1A1BBF52D3E8F
:10030300C8A1BBF52020002020CCF9BFA82D3ED1E9
:10031300A1BBF52D3EC8A1BBF52020002020BFA81E
:10032300D3E0B6EEB2BBD7E32E2E2E002020B6C10B
:10033300BFA8CAA7B0DC2E2E2E002020BFA8D3E072
:10034300B6EE3A002020BDF0B6EEB2BBD7E32E2EB8
:100353002E00202020202020CFD6BDF0CFFBB7D108
:1003630000202020202020CBA2BFA8CFFBB7D100A4
:100373002020C7EBD1A1BBF521002020B1BEBBFAE1
:10038300D4DDCDA3CFD6BDF0BDBBD2D700564D44EF
:10039300455600564D5245430025750025752E25BB
:1003A300750025752E2530327500257320257500BF
:1003B30025732025752E25750025732025752E257B
:1003C300303275002573257500257325752E257527
:1003D30000257325752E25303275002573256C7520
:1003E300002573256C752E256C75002573256C759A
:1003F3002E2530326C750020002573002020C7EBBA
:10040300D3C3C6E4CBFCB7BDCABDB9BACEEF002097
:1004130020005B25303262785D2020257300800048
:10042300580E8000670E8000761480008B148000C5
:10043300A0138000B4148000C90C8000D60A800089
:10044300E10C8000EE098000F81280010B098001A5
:1004530015108001260C8001330C8001400B8001B4
:100463004C0E80015B0E80016A0B800176128001C5
:10047300890D8001970D8001A50C8001B2108001C8
:10048300C3128001D6108001E70B8001F30F8002B5
:10049300030E800212118002240E8002330C8002AC
:1004A30040058002460E8002550E800264128002CF
:1004B300771480028B1180029D0C8002AA0B8002AC
:1004C300B60E8002C5048002CA088002D10B8002E6
:1004D300DD0B8002E90B8002F51480030A1480030C
:1004E3001F0F80032F0D80033D098003470D8003F9
:1004F300550E8003640E8003730980037D1280030D
:10050300900580039605312ED6BDB1D2C6F7D7B478
:10051300CCAC3A2000322ED3B2B1D2C6F7D7B4CC8A
:10052300AC3A2000332ECEE5BDC7D5D2C1E33A2085
:1005330000342ED2BBD4AAD5D2C1E33A2000352E43
:10054300BBF5B5C0D7B4CCACBFECCBD9B2E9D1AF16
:1005530000362EBBF5B5C0BCECB2E200372EBBF5BE
:10056300B5C0B2E2CAD4BDE1B9FB00382ED1A1BBFC
:10057300F5B0B4C5A5BCECB2E200392ED3CECFB7EB
:10058300B0B4C5A5BCECB2E20031302E20CDCBB166
:10059300D2B0B4C5A5BCECB2E20031312E20B6C155
:1005A300BFA8C6F7B2E2CAD43A200031322E20D116
:1005B300B9CBF5BBFAB2E2CAD40031332E20D5B998
:1005C300CABEB5C6B2E2CAD40031342E20D4CBD0D1
:1005D300D0D7B4CCACB2E9D1AF00D5FDB3A300B949
:1005E300CAD5CF00CEDE00B2BBD7E300CEB400D570
:1005F300FD00B9CA00C8B100C8B7B6A8454E5445F6
:100603005220C8A1CFFB43414E43454C00C0DBBC45
:10061300C6B2E2CAD4B4CECAFD3A20257500BBF5F2
:10062300B5C02530326275B9CAD5CFB4CECAFD3A4A
:10063300257500D5FDD4DABCECB2E2202530326258
:100643007520BBF5B5C00020202020C7EBC9D4B569
:10065300C82E2E2E002020BBF5B5C0B0E53A20B938
:10066300CAD5CF202020002020BBF5B5C0253032CD
:1006730062753A20B9CAD5CF202020002020BBF5CF
:10068300B5C025303262753A20CEDEBBF52020207E
:10069300002020BBF5B5C02025303262753A2020FA
:1006A300D5FDB3A3200020202020D3B2B1D2C6F7BA
:1006B300B2E2CAD400C7EBCDB6B1D23A002020B122
:1006C300D2B6B7D2D1C2FA2C20C7EBB4A6C0ED2163
:1006D30000D2D1CDB6C8EBBDF0B6EE3A20257500F9
:1006E300D2D1CDB6C8EBBDF0B6EE3A2025752E2596
:1006F3007500D2D1CDB6C8EBBDF0B6EE3A20257564
:100703002E25303275002020D3B2B1D2C6F7CAC726
:10071300B7F1D5FDB3A33F0025730041434443C460
:10072300A3CABDCEB4BFAAC6F400D5B9CABEB5C666
:1007330000D1B9CBF5BBFA0020202573B2E2CAD4AD
:1007430000312DB4F2BFAA2020322DB9D8B1D50083
:100753002573D2D1B4F2BFAAA3ACC7EBC8B7C8CF35
:10076300002573D2D1B9D8B1D5A3ACC7EBC8B7C8EC
:10077300CF00C7EBB2BBD2AACBE6D2E2B9D8B1D590
:10078300C9E8B1B8A3A10020202020D6BDB1D2C6AC
:10079300F7B2E2CAD4002020D6BDB1D2C6F7CAC789
:1007A300B7F1D5FDB3A33F00D6BDB1D2C6F7CEB4E2
:1007B300BFAAC6F400D3B2B1D2C6F7CEB4BFAAC69D
:1007C300F4002020CEE5BDC7CDCBB1D2A3ACD2BBC4
:1007D300B4CEC1BDC3B6002020D2BBD4AACDCBB109
:1007E300D2A3ACD2BBB4CEC1BDC3B600202020205F
:1007F300B0B4C5A5B2E2CAD42100CAE4C8EBB0B410
:10080300C5A53A00CAE4C8EBB0B4C5A53A20256231
:10081300750020202020D3CECFB7B0B4C5A5B2E257
:10082300CAD42100D3D0BCFCB0B4CFC22C20D4F2A4
:10083300C3F9BDD0D2BBC9F90020202020CDCBB154
:10084300D2B0B4C5A5B2E2CAD4210025750025757E
:100853002E25750025752E2530327500BBF5B5C0E4
:1008630025303262753A20257300CEDEB9CAD5CF62
:10087300BBF5B5C000B9CAD5CFBBF5B5C02530327D
:100883006275B8F60025303262752000D4CBD0D023
:10089300D5FDB3A300B9CAD5CFB4FAC2EB00257313
:1008A3005B25303262785D00B3F6BBF5C8B7C8CFBD
:1008B300B0E5BFAAC6F400B3F6BBF5C8B7C8CFB05E
:1008C300E5B9CAD5CFB9D8B1D500B3F6BBF5C8B72A
:1008D300C8CFB0E5CEB4BFAAC6F4008005090E8028
:1008E30005180E8005270C8005340C800541128005
:1008F30005540C80055F1080056E1080057D108007
:10090300058C1080059D108005AE0E8005BD0E8000
:1009130005CC108005DD048005E2048005E7028034
:1009230005EA048005EF028005F2028005F50280E6
:1009330005F8028F828E83EDF5F0FFECFEE8FDE50E
:1009430082600205834583600EA548A55CA569A561
:100953006DD582F5D583F2ABF0ECFAE8F9A522EF79
:100963008DF0A4A8F0CF8CF0A428CE8DF0A42EFE99
:10097300A522BC000CBE002BEF8DF084FFADF0A5CB
:1009830022E4CCF875F008EF2FFFEE33FEEC33FCD6
:10099300EE9DEC984005FCEE9DFE0FD5F0E9E4CE0C
:1009A300FDA522EDF8F5F0EE8420D21DFEADF07525
:1009B300F008EF2FFFED33FD4008985007D5F0F214
:1009C300A522C398FD0FD5F0E9A522C2D5EC30E7E7
:1009D30009B2D5E4C39DFDE49CFCEE30E717B2D524
:1009E300E4C39FFFE49EFEA512800975C3E49DFD49
:1009F300E49CFC8005A51280097530D507C3E49FEC
:100A0300FFE49EFEA522C5F0F8A3E028F0C5F0F8A8
:100A1300E582158270021583E038F0A522A3F8E081
:100A2300C5F025F0F0E582158270021583E0C83821
:100A3300F0E8A522EF2BFFEE3AFEED39FDEC38FC92
:100A4300A522E88FF0A4CC8BF0A42CFCE98EF0A4B3
:100A53002CFC8AF0EDA42CFCEA8EF0A4CDA8F08B3C
:100A6300F0A42DCC3825F0FDE98FF0A42CCD35F082
:100A7300FCEB8EF0A4FEA9F0EB8FF0A4CFC5F02E13
:100A8300CD39FEE43CFCEAA42DCE35F0FDE43CFC7C
:100A9300A52275F008758200EF2FFFEE33FECD33EC
:100AA300CDCC33CCC58233C5829BED9AEC99E582DC
:100AB30098400CF582EE9BFEED9AFDEC99FC0FD568
:100AC300F0D6E4CEFBE4CDFAE4CCF9A882A522B8B3
:100AD30000C0B9005BBA002EEC8BF084CFCECDFC06
:100AE300E5F0CBF97818EF2FFFEE33FEED33FDEC95
:100AF30033FCEB33FB10D703994004EB99FB0FD87E
:100B0300E5E4F9FAA5227818EF2FFFEE33FEED3373
:100B1300FDEC33FCC933C910D7059BE99A4007ECB8
:100B23009BFCE99AF90FD8E0E4C9FAE4CCFBA522CF
:100B330075F010EF2FFFEE33FEED33FDCC33CCC851
:100B430033C810D7079BEC9AE899400AED9BFDEC5C
:100B53009AFCE899F80FD5F0DAE4CDFBE4CCFAE49B
:100B6300C8F9A522EB9FF5F0EA9E42F0E99D42F019
:100B7300EC6480C864809845F0A522EB9FF5F0EA09
:100B83009E42F0E99D42F0E89C45F0A522E0FCA3DB
:100B9300E0FDA3E0FEA3E0FFA522E493FC74019330
:100BA300FD740293FE740393FFA522E0F8A3E0F91A
:100BB300A3E0FAA3E0FBA522E493F8740193F9748C
:100BC3000293FA740393FBA5227401FF3395E0FEAD
:100BD300FDFCA3A3A3E0CF2FF0E5821582700215DD
:100BE30083E0CE3EF0E582158270021583E0CD3DB1
:100BF300F0E582158270021583E0CC3CF0A522EC6F
:100C0300F0A3EDF0A3EEF0A3EFF0A522A42582F567
:100C130082E5F03583F583A522E0FBA3E0FAA3E0A8
:100C2300F9A522EBF0A3EAF0A3E9F0A522E493FBF4
:100C3300740193FA740293F9A522F8D0E0F5834482
:100C430080FBD0E0FAD0E0F9A5487012A549700EF8
:100C5300A56AA549C0E0A548C0E0C083A522A54A6E
:100C63006860EFA56B80E1F8D0E0F5834480FBD0AA
:100C7300E0FAD0E0F9A5487012A549700EA56AA55F
:100C830049C0E0A548C0E0C083A522A54AB5F00548
:100C9300A54B6860EAA56880DC8F828E83EDFFEC4C
:100CA300FEE8FDE58260020583458370047F00A5AD
:100CB30022A548F5F0A54CA569A56DB5F006D5822A
:100CC300F0D583ED7FFFB5F0030FA52240027F012E
:100CD300A522EF4E6019EF60010EED89828A838BA6
:100CE300F0A558A569DFFADEF88BF0A982AA83A5DF
:100CF30022F8E0FBA3A3E0F925F0F0E5821582706A
:100D0300021583E0FA38F0A522E527244CF582E4A6
:100D13003426F583E0052722902649301A039026CE
:100D23004CE475F001A512800CF4A548222013E7CA
:100D33007F2ED2138018EF540F2490D43440D4FF65
:100D430030170BEF24BFB41A0050032461FFE528CA
:100D530060021528052BE52B7002052A301A109026
:100D63002649E475F001A512800CF4EFA55822A5DD
:100D730012800028227403D21A8003E4C21AF527D2
:100D8300902649A512800C26E4F528F52AF52BE5D3
:100D93002860097F20A512800D5180F37529FFC2B9
:100DA30014C213C215C216C218C219C21B120D1BDC
:100DB300FF700E301A057F00120D62AF2BAE2AA50D
:100DC30022B4255FC2D5C217120D1BFF24D0B40A6B
:100DD30000501A75F00A782830D50508B6FF0106C9
:100DE300C6A426F620D5047002D21680D924CFB427
:100DF3001A00EF5004C2E5D217020F79D21480C64D
:100E0300D21380C0D21580BCD2D580BAD21880B498
:100E13007F20120D512015077401B5280040F112EF
:100E23000D0CFF120D51020D92D21BD21980951297
:100E33000D0CFB120D0CFA120D0CF94A4B700679CE
:100E43004C7A107B8020153AE52860367E00E9C095
:100E5300E02EF9EAC0E03400FAA548F9D0E0FAD070
:100E6300E0C960060EEE652970E4C2D5EBC0E0EA86
:100E7300C0E0E9C0E0EE120FC2D0E0F9D0E0FAD052
:100E8300E0FBA548FF609FEBC0E0EAC0E0E9C0E0FB
:100E9300120D51D0E02401F9D0E03400FAD0E0FB88
:100EA300E5290460DDD529DA020E297B807A0F79E2
:100EB300BED2158090791080027908C219C21B80B6
:100EC30008D2D5790A8004790AC2D5E529047002CB
:100ED300F529E4FAFDFEFF120D0CFC7B0820141328
:100EE300120D0CFD7B1030130A120D0CFE120D0CAB
:100EF300FF7B20EC3382D592D55013C3E430130625
:100F03009FFFE49EFEE42014039DFDE49CFCE4CBE0
:100F1300F8C214EC700CCFCECDCCE824F8F870F303
:100F23008017C3EF33FFEE33FEED33FDEC33FCEB01
:100F330033FB994002FB0FD8E9EB301405F8D0E0FE
:100F4300C448B214C0E00AEC4D4E4F78207B0070C9
:100F5300C2EAB5290040BCC0E0120FC4D0F0D0E013
:100F6300201404C4C0E0C4B214C0F0120D3AD0F08F
:100F7300D5F0EB020D92A512800C3D0E32530EB844
:100F8300580E034C0DFF420EBC4F0EC4440EC44911
:100F93000E18430ECA550EAE460EAE450EAE4710A2
:100FA30067500E072D0E0B2E0E2E2B0E0F230E2C1D
:100FB3002010552A0DC74800000E263F3F3F0079F9
:100FC3000AA2D5201614301809B910020404B9086E
:100FD3000104A2D52019025001042015689215B509
:100FE30028005034C0E07F203016197F30A21572DC
:100FF300197218500F12101BC215C219C218C21B46
:101003007F30800F301803E9C0E0120D5130180310
:10101300D0E0F9D0E0B528CC3018177F30B9100CE8
:10102300120D517F583017077F788003B9080312D8
:101033000D513015057F2D020D517F20201BF87FA8
:101043002B2019F322921580CF286E756C6C290022
:10105300D214120D0C3014F8C214782830D50108BC
:10106300F6020DC7120D0CC0E0C4120D3AD0E01207
:101073000D3A743A120D42D216752804020EB84185
:101083000184004213CD0000410206014113CF0049
:10109300420605000041000100C120C121C19DC1DC
:1010A30022C19FC11E41000000412E3C00412E344D
:1010B30000412E3500412E3600C125412E3B014112
:1010C3002E3A00411CB100412DFD00412DFE00418F
:1010D3002DFF00C100412E0100412E0200412E03CD
:1010E30000412E0400412E0500412E0600C103C11C
:1010F30004C105C106C107C108C109C10AC10BC1A9
:101103000CC10DC10E412E0700462D8A08000100B7
:101113009600412DD000C129011500412E3D00410B
:101123001CF600411CF200411CFA01411CF401C1F0
:1011330023C124411CF8006200270D0000800580B4
:101143000F000A801B001E0014801180330036003C
:101153003C80390028802D802700228063006600B0
:101163006C80690078807D807700720050805580A4
:101173005F005A804B004E0044804180C300C6008C
:10118300CC80C900D880DD80D700D200F080F58004
:10119300FF00FA80EB00EE00E480E100A080A58070
:1011A300AF00AA80BB00BE00B480B180930096005C
:1011B3009C80990088808D808700828183018601CD
:1011C3008C81890198819D8197019201B081B581BC
:1011D300BF01BA81AB01AE01A481A101E081E58128
:1011E300EF01EA81FB01FE01F481F181D301D60114
:1011F300DC81D901C881CD81C701C201408145810C
:101203004F014A815B015E01548151817301760173
:101213007C81790168816D816701628123012601E7
:101223002C81290138813D813701320110811581DB
:101233001F011A810B010E010481018303030603BD
:101243000C83090318831D8317031203308335832B
:101253003F033A832B032E03248321036083658397
:101263006F036A837B037E03748371835303560383
:101273005C83590348834D8347034203C083C5837B
:10128300CF03CA83DB03DE03D483D183F303F603E3
:10129300FC83F903E883ED83E703E283A303A60357
:1012A300AC83A903B883BD83B703B203908395834B
:1012B3009F039A838B038E038483810280828582BA
:1012C3008F028A829B029E0294829182B302B602AB
:1012D300BC82B902A882AD82A702A282E302E6021F
:1012E300EC82E902F882FD82F702F202D082D58213
:1012F300DF02DA82CB02CE02C482C18243024602FB
:101303004C82490258825D82570252027082758272
:101313007F027A826B026E026482610220822582DE
:101323002F022A823B023E023482318213021602CA
:101333001C82190208820D8207020200312E23311A
:10134300D5D2C1E3C6F7C3E6D6B53A00322E23326F
:10135300D5D2C1E3C6F7C3E6D6B53A00332ED4CA15
:10136300D0EDB6E0B4CEB9BAC2F23A00342EB2BB75
:10137300C2F2BBF5CDCBB1D23A00352EBFAAC6F42B
:10138300D6BDB1D2C6F73A00362ED3E0B6EECFC201
:10139300CFDE3A00372ECAD5B1D2C9CFCFDE3A005D
:1013A300382EC7B7CCF53A00392ED0A1CAFDB5E324
:1013B3003A0031302E202331D6BDB1D23A0031313B
:1013C3002E202332D6BDB1D23A0031322E20233320
:1013D300D6BDB1D23A0031332E202334D6BDB1D29B
:1013E3003A0031342E202335D6BDB1D23A003135FF
:1013F3002E202336D6BDB1D23A0031362E202337E4
:10140300D6BDB1D23A0031372E202338D6BDB1D262
:101413003A0031382E202331D3B2B1D23A003139D8
:101423002E202332D3B2B1D23A0032302E202333CE
:10143300D3B2B1D23A0032312E202334D3B2B1D257
:101443003A0032322E202335D3B2B1D23A003233AE
:101453002E202336D3B2B1D23A0032342E20BFAA83
:10146300C6F4B3F6BBF5C8B7C8CF3A0032352E2061
:10147300BDBBD2D7CAB1BCE43A0032362E20B2BBD0
:10148300D5D2C1E3C4A3CABD3A0032372E20BFAAC6
:10149300C6F4D3B2B1D2C6F73A0032382E20BFAA6F
:1014A300C6F4B9ABBDBBBFA83A0032392E20B6C1D2
:1014B300BFA8CAB1BCE43A0033302E20D4DDB4E671
:1014C300D6BDB1D2C4A3CABD3A0033312E20CEE576
:1014D300D4AAD6BDB1D2D4DDB4E63A0033322E203D
:1014E300CAAED4AAD6BDB1D2D4DDB4E63A00333302
:1014F3002E20BFAAC6F441434443C4A3BFE93A0024
:1015030025750025752E25750025752E2530327518
:1015130000256275002D2575002D25752E25750076
:101523002D25752E253032750080133F0F80134F04
:101533000F80135F0F80136F0D80137D0D80138B4E
:101543000B8013970B8013A3078013AB098013B58C
:101553000B8013C10B8013CD0B8013D90B8013E5C4
:101563000B8013F10B8013FD0B8014090B801415F2
:101573000B8014210B80142D0B8014390B80144520
:101583000B8014510B80145D1180146F0D80147D3A
:101593000F80148D0F80149D0F8014AD0D8014BB2C
:1015A300118014CD118014DF118014F11100050096
:1015B3000500010001000100050005000500010010
:1015C30005000500050005000500050005000500F0
:1015D30005000500050005000500050001000500E4
:1015E300010001000100020001000100010001CF20
:1015F300B5CDB3D5FDD4DAC6F4B6AF2C20C7EBC94D
:10160300D4B5C800D5FDD4DAB8FCB8C4C9CCC6B7C4
:10161300D3E0C1BF2E2E2E00C9CCC6B7D3E0C1BFC5
:10162300B8FCB8C4CAA7B0DC2100C9CCC6B7D3E0A4
:10163300C1BFB8FCB8C4B3C9B9A62100202020207B
:10164300C4E3C8B7B6A8B8FCB8C4C2F03F00C8B773
:10165300B6A8454E54455220C8A1CFFB43414E4343
:10166300454C00D5FDD4DAB8FCB8C4C9CCC6B7BC68
:10167300DBB8F12E2E2E00C9CCC6B7BCDBB8F1B84F
:10168300FCB8C4CAA7B0DC2100C9CCC6B7BCDBB860
:10169300F1B8FCB8C4B3C9B9A6210020202020C4E6
:1016A300E3C8B7B6A8CCEDC2FAC2F03F00D5FDD46B
:1016B300DACCEDC2FA2E2E2E00CCEDC2FAB2D9D777
:1016C300F7CAA7B0DC2100CCEDC2FAB2D9D7F7B381
:1016D300C9B9A62100CAE4C8EBB2E3BCDCB1E0BAE5
:1016E300C53A00B1E0BAC5CAE4C8EBB4EDCEF30025
:1016F300C7EBCAE4C8EBC6E4CBFCB1E0BAC500C48F
:10170300E3C8B7B6A8CCEDC2FAB4CBB2E3BCDCC233
:10171300F03F00D5FDD4DACCEDC2FAB5B1C7B0B213
:10172300E3BCDC2E2E2E00B2E3BCDCCCEDC2FAB25D
:10173300D9D7F7CAA7B0DC2100B2E3BCDCCCEDC239
:10174300FAB2D9D7F7B3C9B9A62100257300B2B944
:10175300D3B2B1D200C8A1D6BDB1D2002020C4E318
:10176300C8B7B6A82573C2F03F002020D5FDD4DA50
:101773002573002573CAA7B0DC21002573B3C9B94B
:10178300A6210020202020C4E3C8B7B6A8CDACB260
:10179300BDC2F03F00D5FDD4DACDACB2BD2C20C71D
:1017A300EBC9D4B5C82E2E2E00CDACB2BDB2D9D75D
:1017B300F7B3C9B9A621002020C4E3C8B7B6A8C7A8
:1017C300E5B5E3C2F03F00D5FDD4DAC7E5B5E32CB8
:1017D30020C7EBC9D4B5C82E2E2E00C7E5B5E3CD7F
:1017E300EAB1CFA3ACC7EBBACBB6D42100C7E5B5FA
:1017F300E3BDF0B6EE3A20257500C7E5B5E3BDF0CD
:10180300B6EE3A2025752E257500C7E5B5E3BDF084
:10181300B6EE3A2025752E2530327500312EBBF5F4
:10182300B5C0B2CECAFD00322EBBF5B5C0D7B4CC1D
:10183300ACBFECCBD9B2E9D1AF00332EBCD3C2FAE3
:10184300C8ABB2BFBBF5B5C000342EB2B9D3B2B189
:10185300D2CDEAB3C900352EC8ABCFB5CDB3CDAC2D
:10186300B2BD00362EBCD3C2FAB2E3BCDCBBF5B5C5
:10187300C000372EC8A1D6BDB1D2CDEAB3C9003856
:101883002EC9E8B1B8B9DCC0ED00392ECFB5CDB360
:10189300B2CECAFD0031302E20BBF5BCDCC5E4D688
:1018A300C30031312E20B3F6B3A7C4ACC8CFC5E40F
:1018B300D6C30031322E20B4D3BBFACCEDBBF50036
:1018C30031332E20BBF5B5C0BCECB2E20031342E6F
:1018D30020BDBBD2D7BCC7C2BC002020C8B7B6A8A6
:1018E300B3F6B3A7C5E4D6C3C2F03F00C8B7B6A8E2
:1018F300454E54455220C8A1CFFB43414E43454C6E
:101903000030002020D5FDD4DAB1A3B4E6002000D6
:10191300B1A3B4E6CAA7B0DCA3ACD6D8D0C2C9E899
:10192300D6C33F002020454E54455220202043413A
:101933004E43454C0080181F0A80182A1280183D18
:101943000E80184C0C8018590C8018660E80187580
:101953000C8018820C80188D0C8018980C8018A5A8
:10196300108018B60C8018C30C8018D00C312EB21E
:10197300E3BCDCB1E0BAC53A00322ECAC7B7F1C640
:10198300F4D3C33A00332ED7EEB4F3B4E6BBF5C1B8
:10199300BF3A00342EB5DAD2BBBBF5B5C03A003539
:1019A3002EB5DAB6FEBBF5B5C03A00362EB5DAC8A9
:1019B300FDBBF5B5C03A00372EB5DACBC4BBF5B5E0
:1019C300C03A00382EB5DACEE5BBF5B5C03A0039DA
:1019D3002EB5DAC1F9BBF5B5C03A0031302E20B5CA
:1019E300DAC6DFBBF5B5C03A0031312E20B5DAB027
:1019F300CBBBF5B5C03A00C7EBCAE4C8EBC3DCC246
:101A0300EB3A00C3DCC2EBB4EDCEF32100256275E3
:101A1300002020200020002020202000CAE4C8EB62
:101A2300B2E3BCDCB1E0BAC53A00B1E0BAC5CAE47E
:101A3300C8EBB4EDCEF300C7EBCAE4C8EBC6E4CB06
:101A4300FCB1E0BAC5008019700B80197C0B8019BA
:101A5300880D8019960B8019A20B8019AE0B801983
:101A6300BA0B8019C60B8019D20B8019DE0D8019B1
:101A7300EC0D8019FA0B801A06090001000100021F
:101A8300000100010001000100010001000100014B
:101A93002020C4E3C8B7B6A8C2F03F00C8B7B6A8B1
:101AA300454E54455220C8A1CFFB43414E43454CBC
:101AB300002020C3BBD3D0BDBBD2D7BCC7C2BC00A0
:101AC300D6BDCAD53A00CFD6D6BDCAD53A0031590C
:101AD300CAD53A00CFD63159CAD53A00354ACAD504
:101AE3003A00CFD6354ACAD53A003159D5D23A0051
:101AF300CFD63159D5D23A00354AD5D23A00CFD6CE
:101B0300354AD5D23A0025303575202573256C75B5
:101B13002E2530326C7500256C752E2530326C7590
:101B230000801A930B801A9F14801AB40E801AC374
:101B330006801AC908801AD106801AD708801ADFCE
:101B430006801AE508801AED06801AF308801AFB4E
:101B530006801B0108A575FF07758E0378FEE4F662
:101B6300D8FD758187A575FB00759008A502801BBC
:101B73009FA50280A7D1E493A3F85407240CC8C3FC
:101B830033C4540F4420C8834004F456800146F6FE
:101B9300DFE4800B0102040810204080901082E4EF
:101BA3007E019360CCA3FF543F30E509541FFEE44C
:101BB30093A360010ECF54E0B4E01CE493FBA3E4D1
:101BC30093FAA3E493F9A3E493A558A309E9700155
:101BD3000ADFF4DEF280C854C025E060254097E4B4
:101BE30093A3FAE493A3F8E493A3C8C582C8CAC530
:101BF30083CAF0A3C8C582C8CAC583CADFE9DEE7C2
:101C0300809DE493A3F8E493A34003F68001F208D4
:101C1300DFF4808B312EBBF5B5C0B1E0BAC53A20F5
:101C230000322EC9CCC6B7D3E0C1BF3A2000332E51
:101C3300B5A5BCDB3A2000342EBBF5B5C0D7B4CC78
:101C4300AC3A2000352EC9CCC6B7B1E0BAC53A20AC
:101C53000025303262750025336275002575002535
:101C6300752E25750025752E253032750025627574
:101C7300002532627500BBF5B5C02530326275D3DD
:101C8300E0C1BFA3BA00801C170C801C240C801C6D
:101C93003108801C3A0C801C470C20002020202097
:101CA3002020202020202020202020202020202031
:101CB30000C7EBCAE4C8EBB1E0BAC53A2000B1E013
:101CC300BAC5CAE4C8EBB4EDCEF300C7EBCAE4C8A7
:101CD300EBC6E4CBFCB1E0BAC500202020202020D5
:101CE300202020202020202020202020202000C26F
:101CF300D5E830E70FB2D5E4C39BFBE49AFAE49945
:101D0300F9E498F8EC30E71BB2D5A512801D2EA597
:101D130012800AD2E4C39BFBE49AFAE499F9E498AB
:101D2300F88005A512800AD230D50DE4C39FFFE4E5
:101D33009EFEE49DFDE49CFCA522474232333132F2
:101D43000057494E31323532000D51961052640519
:101D53000505050505050504040404080807FF0136
:101D63000101010101010102020202030306FF5006
:101D7300505050505050501B1B1B1B0D0D18FF098A
:101D8300090909090909092E2E2E2E000048FF0012
:101D93000000010000000A00000064000003E800E6
:101DA300002710000186A0000F424000989680058E
:101DB300F5E10008000100960000000000000000AB
:101DC300000000000000000001000000000200030A
:101DD3000405080001009600080001009600A51202
:101DE3008156519013CDE0FEA3E0FF90263BEEF029
:101DF300A3EFF0E4A3F0A3F0A3F09005E6E0B401B1
:101E0300139005E4E0FEA3E0FF90263BEE8FF0A5E0
:101E130012800A09D390263CE0940090263BE0947C
:101E23000050057F000221009013CF742CF07E0038
:101E33007F147D007B007A0579F1A512800CD59083
:101E430013CFE0FF25E025E02424F582E43404F5F4
:101E530083E49390263DF0FD7C00C004C005EF258C
:101E6300E025E02421F582E43404F583A512800CF7
:101E73003078F17C057D00D007D006A512800936A5
:101E830090263DE0FF24F1F582E43405F5837420C8
:101E9300F09003B7E0FCA3E0FDEC6003021FACEDA0
:101EA30024F6603D24A67003021F402463600302EE
:101EB3001FAC74F22FF9E43405FA7B00C003C002AF
:101EC300C0017B807A03799C90264CA512800C2656
:101ED30090263BE0FFA3E090264FCFF0A3EF021F35
:101EE3009A90263DE024F2F9E43405FA7B00C0031E
:101EF300C002C0017B807A03799F90264CA5128093
:101F03000C269003B7E0FAA3E0FB90263BE0FEA388
:101F1300E0FFAD03AC02A51280097590264FEEF0E9
:101F2300A3EFF090263BE0FEA3E0FFAD03AC02A5D8
:101F330012800975902651ECF0A3ED805A90263D4E
:101F4300E024F2F9E43405FA7B00C003C002C001C7
:101F53007B807A0379A590264CA512800C269003EA
:101F6300B7E0FAA3E0FB90263BE0FEA3E0FFAD035E
:101F7300AC02A51280097590264FEEF0A3EFF09006
:101F8300263BE0FEA3E0FFAD03AC02A5128009757A
:101F9300902651ECF0A3EDF0D001D002D003A512AE
:101FA300800D7890263DE02FF090263DE004F0D29E
:101FB300137B007A0579F1902651A512800C2690A7
:101FC300263DE0A51280CEB1900379E0FEA3E0FFA9
:101FD300C390263CE09F90263BE09E40509013CF59
:101FE3007436F0D213E0FF25E025E02421F582E4E6
:101FF3003404F583A512800C30902651A512800C71
:1020030026EF25E025E02424F582E43404F583E477
:1020130093902654F07D01E4FFA51280CEB890057D
:10202300E6E064017048A5128076EA80419013CF00
:102033007404F0D213E0FF25E025E02421F582E4C7
:102043003404F583A512800C30902651A512800C20
:1020530026EF25E025E02424F582E43404F583E427
:1020630093902654F07D01E4FFA51280CEB8E47F5F
:1020730064FEFDFC9026857417F0A37431F0A5125D
:1020830080924F9016B3E0B4011A9016B5E0FCA30A
:10209300E0FDE4FFA51280BF61E49016B3F0901653
:1020A300B5F0A3F09016B4E0B4011A9016B7E0FCB3
:1020B300A3E0FD7F01A51280BF61E49016B4F09008
:1020C30016B7F0A3F09016B9E0B4011A9016BBE06E
:1020D300FCA3E0FD7F64A51280BF61E49016B9F014
:1020E3009016BBF0A3F09016BAE0B4010EA51280CF
:1020F300BF59E49016BAF0A3F0A3F07F00A522E441
:10210300902405F0FE7F58FD7B007A03796EA512BB
:10211300800CD57E037F5B7D007B007A1379D1A58C
:1021230012800CD57E037FDE7D007B007A0F79DF82
:10213300A512800CD59016007401F0A3F07E027FE7
:10214300297D007B007A0379C6A512800CD5900502
:10215300CE7401F07E037F137D007B007A0C7971CE
:10216300A512800CD5E47F64A5128092467E007F81
:102173008C7D007B007A0279E1A512800CD5D21107
:10218300E490264CF0D212FDFFA51280B794D21131
:10219300E490264CF0D212FD7F01A51280B794D2B1
:1021A300139004B1A512800C30902651A512800C17
:1021B300269004B4A51280CEAFD213900469A51261
:1021C300800C30902651A512800C2690046CE49369
:1021D300902654F07D01E4FFA51280CEB8E47F641D
:1021E300A5128092467F00A522A512807FA0E490CD
:1021F3002406F0A3F0A3F0A3F0A3F0A3F0A3F0A3AD
:10220300F0A3F0A3F0A3A512816A95902409EFF03F
:1022130064016003022338900354E0FF25E024A8FF
:10222300F582E43403F583E0FDA3E0902406CDF0CA
:10223300A3EDF0EF703B900355E0FF7E0090035B4E
:10224300EEF0A3EFF0900354E025E024A8F582E438
:102253003403F583E0FCA3E0FDA51280096290033B
:102263005FEEF0A3EFF0900362E02FFF9003618035
:102273003E900354E0B40140A3E0FF7E0090035D71
:10228300EEF0A3EFF0900354E025E024A8F582E4F8
:102293003403F583E0FCA3E0FDA5128009629003FB
:1022A30061EEF0A3EFF0900360E02FFF90035FE097
:1022B3003E900363F0A3EFF090240B7401F090249D
:1022C30008F0902406E0FEA3E0FF9013CDEE8FF01C
:1022D300A512800A09900F85A512800BAEE4FCFDC0
:1022E300A512800A37900F85A512800C02900F89E2
:1022F300A512800BAE902406E0FEA3E0FFE4FCFDF4
:10230300A512800A37900F89A512800C029016B38C
:102313007401F0902406E0FEA3E0FF9016B5EE8F63
:10232300F0A512800A099003BCE0FFA3E09015DE3C
:10233300CFF0A3EFF090240BE0640160030223FCD1
:10234300900354E025E024A8F582E43403F583E008
:10235300FEA3E0FF9003A8E0FCA3E0FDEFB5052D8D
:10236300EEB50429900FABA512800BAE900354E099
:1023730025E024A8F582E43403F583E0FEA3E0FF1F
:10238300E4FCFDA512800A37900FAB804B900354F9
:10239300E025E024A8F582E43403F583E0FEA3E01E
:1023A300FF9003AAE0FCA3E0FDEFB50530EEB50412
:1023B3002C900FB5A512800BAE900354E025E024BA
:1023C300A8F582E43403F583E0FEA3E0FFE4FCFD1B
:1023D300A512800A37900FB5A512800C027E007FEC
:1023E300247D007B007A03792DA512800CD5E4901F
:1023F3000352F0900354F0A3F0900375E06401607E
:10240300030227F89005CEE0640160030227E2A5EA
:10241300128168C9902409EFF0640160030227F870
:102423009005DDE054FEF09005E3E04401F09003F5
:1024330061E0FEA3E0FF900360E02FFF90035FE005
:102443003EFE900379E0FCA3E0FDD39FEC9E4007A2
:102453009003B9E0B4010D90240EECF0A3EDF0E489
:10246300A3F0800C90240EEEF0A3EFF0A37401F020
:10247300900353E025E02498F582E43403F583E0E8
:10248300FEA3E0FF9013CEE02FFF9013CDE03EFEBE
:10249300C390240FE09F90240EE09E400302252961
:1024A300E4FFA512809BEB902409EFF09005E3E095
:1024B30054FEF0902410E09013CF70107403A51213
:1024C30080CE827F02A51280970580487401A512F1
:1024D30080CE829013CF7403F0D213E0FF25E02562
:1024E300E02421F582E43404F583A512800C3090B6
:1024F3002651A512800C26EF25E025E02424F58241
:10250300E43404F583E493902654F07D01E4FFA5BD
:102513001280CEB8E47FDC7E05A512809247A51217
:10252300801DE60227F8E490240AF09003C1E064DA
:10253300017065900353E0FF25E02498F582E434AD
:1025430003F583E0FCA3E064644C604C9003C2E0B9
:102553007019EF25E02498F582E43403F583E0FE57
:10256300A3E064F47003EE640160209003C3E070A1
:1025730021900353E025E02498F582E43403F583A6
:10258300E0FEA3E0FFBE030ABFE807E490240AF0DD
:10259300800690240A7401F090240AE060569005A6
:1025A300E67401F0900353E025E02498F582E434C7
:1025B30003F583E0FEA3E0FF9005E4EEF0A3EFF064
:1025C3009016B97401F09016BBEEF0A3EFF0A512CC
:1025D300801DE19003BCE0FFA3E09015DECFF0A3E4
:1025E300EFF09024087401F09005EDE4F0A3741E5D
:1025F300F00227F89005DDE054FBF09005E3E0548A
:10260300FEF07F01A512809BEB902409EFF060039D
:102613000227F89015E2F0A37405F09015E2E0703C
:1026230002A3E07003022700A512809F4E902409A5
:10263300EFF0640160030226F8900353E025E024E1
:1026430098F582E43403F583E0FFA3E090240CCFF4
:10265300F0A3EFF090240CE0FEA3E0FF9013CDEE87
:102663008FF0A512800A09900F85A512800BAEE4A6
:10267300FCFDA512800A37900F85A512800C0290ED
:102683000FA1A512800BAE90240CE0FEA3E0FFE4A3
:10269300FCFDA512800A37900FA1A512800C0290B1
:1026A30016B47401F090240CE0FEA3E0FF9016B77B
:1026B300EE8FF0A512800A099003BCE0FFA3E0901F
:1026C30015DECFF0A3EFF09005EDE4F0A3741EF058
:1026D3007E007F247D007B007A037909A512800C9C
:1026E300D5E4900351F0900353F0900356F09024F7
:1026F3000804F08008A5128070B302261E9015E22C
:10270300E07002A3E060030227F87FD07E07A512E2
:10271300809247A51280C71990036CE0640160039F
:102723000227F8900353E025E02498F582E434036C
:10273300F583E0FFA3E090240CCFF0A3EFF0902407
:102743000CE0FEA3E0FF9013CDEE8FF0A512800AFC
:1027530009900F85A512800BAEE4FCFDA512800A3B
:1027630037900F85A512800C02900FA1A512800B44
:10277300AE90240CE0FEA3E0FFE4FCFDA512800A6A
:1027830037900FA1A512800C029016B47401F0903B
:10279300240CE0FEA3E0FF9016B7EE8FF0A51280A5
:1027A3000A099003BCE0FFA3E09015DECFF0A3EF8E
:1027B300F09005EDE4F0A3741EF07E007F247D000D
:1027C3007B007A037909A512800CD5E4900351F0BC
:1027D300900353F0900356F090240804F08016A55C
:1027E3001281444AEF60069024087401F0E47F0AE2
:1027F300A512809246902408E0704A9015F4E030C8
:10280300E03F54FEF09005E6E0B401209005E4E0DB
:10281300FCA3E0FD9013CDE0FEA3E0FF2DFDEE3C15
:10282300FCC3ED9401EC9400401780109013CDE0AD
:10283300FEA3E0FFC39401EE94004005A512801DA2
:10284300EE7F0080027F01A522E4902405F0A3F02F
:10285300A3F0A3F0FE7F14FD7B007A0579F1A512A6
:10286300800CD5901603E0FF75F037900FE4A512A6
:10287300800C0FE0D39400401875F037EF901015DB
:10288300A512800C0FE0FFF460199013D0EFF080D5
:1028930012901603E075F037901015A512800C0FF7
:1028A30074FFF0901603E075F037901015A51280B1
:1028B3000C0FE0F47002802D9013D0E075F00690B9
:1028C3000007A512800C0FE0700280199013D0E06E
:1028D30075F006900004A512800C0FE0FF540A70F7
:1028E30004EF20E0419013CF740EA51280CE8290A6
:1028F30013CF7419F0D213E0FF25E025E02421F56E
:1029030082E43404F583A512800C30902651A5127D
:10291300800C26EF25E025E02424F582E43404F539
:1029230083E493022C869013CF7427F09003B7E0CF
:10293300FEA3E0FFEE6003022A8EEF24F660572425
:10294300A67003022A0C24636003022A8E7B807A1A
:102953000379AD90264CA512800C269013CFE02569
:10296300E025E02421F582E43404F583A512800CEC
:102973003090264FA512800C269013D0E075F006F8
:10298300900005A512800C0FE0FFA3E0902652CF24
:10299300F0A3EF022A7D7B807A0379B390264CA5BE
:1029A30012800C269013CFE025E025E02421F58248
:1029B300E43404F583A512800C3090264FA51280D1
:1029C3000C269013D0E075F006900005A512800C3C
:1029D3000FE0FAA3E0FB9003B7E0FCA3E0FDAF0335
:1029E300AE02A512800975902652EEF0A3EFF09087
:1029F30003B7E0FCA3E0FDAF03AE02A512800975A7
:102A0300902654ECF0A3ED80717B807A0379BC901F
:102A1300264CA512800C269013CFE025E025E02458
:102A230021F582E43404F583A512800C3090264FFF
:102A3300A512800C269013D0E075F006900005A532
:102A430012800C0FE0FAA3E0FB9003B7E0FCA3E0D5
:102A5300FDAF03AE02A512800975902652EEF0A3D6
:102A6300EFF09003B7E0FCA3E0FDAF03AE02A512C5
:102A7300800975902654ECF0A3EDF07B007A05797C
:102A8300F1A512800D78902405EFF0A512809753DD
:102A9300C21EE4902E25F090172C7406F09003BF0D
:102AA300E064016003022C009013CAE054FB60034E
:102AB300022C009013D0E075F006900005A512805B
:102AC3000C0FE0FEA3E0D39400EE94005003022C1D
:102AD30000D2137B007A0579F1902651A512800C60
:102AE30026902405E0902654F07D01E4FFA5128092
:102AF300CEB8902407742DA51280CE829003C0E037
:102B0300FF7E007C037DE8A512800962E4FCFDA53D
:102B130012809249900F9FE475F001A512800A0973
:102B23009013D0E075F006900005A512800C0FE01D
:102B3300FEA3E0FF900F9FE0FCA3E0FDA512816CD4
:102B430055902408EFF07079900E7EE064A07045F4
:102B5300A51280773EA5128164959013D0E075F09D
:102B630006900005A512800C0FE0FCA3E0FD7F0298
:102B7300A51280BF619013D0E075F006900005A503
:102B830012800C0FE0FFA3E09013CDCFF0A3EFF082
:102B93007F01022CB5900E7EE064A170079013CFE5
:102BA30074308022900E7EE0FF64A5600DEF64A672
:102BB3006008EF64A76003022C7E9013CF7431800A
:102BC300059013CF7431F0D213E0FF25E025E02404
:102BD30021F582E43404F583A512800C309026514C
:102BE300A512800C26EF25E025E02424F582E434A9
:102BF30004F583E493902654F0E4FD806E9002067E
:102C0300E06401604B901727E0640170439013D098
:102C1300E075F006900005A512800C0FE0FEA3E01E
:102C2300D39400EE94004028D2137B007A0579F107
:102C3300902651A512800C26902405E0902654F08E
:102C43007D01E4FFA51280CEB8E47F887E13802641
:102C5300D2137B007A0579F1902651A512800C26B8
:102C6300902405E0902654F07D01E4FFA51280CE68
:102C7300B8E47FD07E07A512809247E49013D0F08A
:102C8300FF802F902654F07D01E4FFA51280CEB87B
:102C9300E47FD07E07A512809247A512809753C286
:102CA3001EE4902E25F09013D0F090172C7406F0AC
:102CB3007F00A522E4902405F0900605E07002A3AE
:102CC300E0700590020604F0900206E064016003E0
:102CD300022DCA9015F1E064016003022D78C390C0
:102CE30015F0E094F49015EFE094015003022D7871
:102CF300E4F0A3F09003BFE0640170479013CAE0CF
:102D030054FB703F9013CF7435A51280CE82A51269
:102D13008092439013CF742FA512809207A512813E
:102D230043B0EF64016003022DEBD2139013CFA5E0
:102D33001280920AA5128143B0EF64016003022D51
:102D4300EB80769013CF7434A51280CE82A51280C7
:102D530091F1A5128143B0EF64016003022DEBD220
:102D6300139013CFA51280920AA5128143B0EF648A
:102D730001707580449015F1E06401706BC3901588
:102D8300F0E094FA9015EFE09400405C9013CF7458
:102D930034A51280CE82A5128091F1A5128143B091
:102DA300EF64017043D2139013CFA51280920AA54A
:102DB300128143B0EF6401702F900605E04402F0E6
:102DC300A3E0F07F01803A900206E064016019906D
:102DD3001727E0640160119013CF7410A51280CE01
:102DE300827F02A51280970590172CE004F0A512AC
:102DF3008021F1BF01047F028007A5128092437FE7
:102E030001A522E4902405F0A3F0A3F0A3F0A3F01E
:102E1300A3F0A3F0A3F0902405F0A3F09005CEE077
:102E230064016016D39013CEE094009013CDE09428
:102E33000040077F01A51280A7CA302007A5128092
:102E4300A034C220301E1CD211E490264CF0D212C2
:102E53007D01FFA51280B794C21EE4902E25F09049
:102E630013D0F0900375E064016003022FC1900555
:102E7300CEE064017003022FC1A51281444AEF70B2
:102E830003022FC1A51281445C902405EEF0A3EF49
:102E9300F04E7008A51280914F022FB9902405E0DF
:102EA300FEA3E0FF9013CEE02FFF9013CDE03EFE94
:102EB300C390037AE09F900379E09E50349013CF40
:102EC3007403A51280CE827F02A512809705E47F4A
:102ED300DC7E05A512809247A51280914F9013CDF9
:102EE300E0FCA3E0FD4C70028050AF05AE0402305D
:102EF3003BA5128143E8902E31740AF0902E31E005
:102F0300600FA512814453EF7007A512807FA5803F
:102F1300EB902E31E0702CA51280914F902405E0A8
:102F2300FFA3E090037BCFF0A3EFF0A51280D49B27
:102F33009013CDE07002A3E0707C90172CF07F0219
:102F4300023042902405E0FEA3E0FF9013CDEE8F04
:102F5300F0A512800A09900F85A512800BAEE4FC40
:102F6300FDA512800A37900F85A512800C02900FE1
:102F7300A1A512800BAE902405E0FEA3E0FFE4FCC4
:102F8300FDA512800A37900FA1A512800C0290169E
:102F9300B47401F0902405E0FEA3E0FF9016B7EEB1
:102FA3008FF0A512800A099003BCE0FFA3E09015FF
:102FB300DECFF0A3EFF0E47F14A512809246E490F5
:102FC300240BF0902409F0A3F0900379E0FEA3E032
:102FD300FFC39013CEE09F9013CDE09E4052A51205
:102FE3008097CFA512801DE6A512815651900375D7
:102FF300E06401702D9005CEE064016025902E31D0
:103003007401F0902E31E06019A51281444AEF60FB
:1030130007A51280914F800AE47F0AA51280924689
:1030230080E1E47FF47E01A5128092477F01800F47
:103033009013CDE0FEA3E0FFA512801DEE7F00A557
:1030430022901603E0FF75F037900FE4A512800C71
:103053000FE0D39400402275F037EF901015A512BE
:10306300800C0FE0FFF46023901603E0FE9013D072
:10307300EFF0900205EEF08012901603E075F03742
:10308300901015A512800C0F74FFF0901603E075D5
:10309300F037901015A512800C0FE0F47002801227
:1030A3009013D0E075F006900007A512800C0FE096
:1030B30070669013CF740EA51280CE829013CF74D6
:1030C30019F0D213E0FF25E025E02421F582E43452
:1030D30004F583A512800C30902651A512800C268E
:1030E300EF25E025E02424F582E43404F583E4931A
:1030F300902654F07D01E4FFA51280CEB8E47FD082
:103103007E07A512809247E49013D0F09015F4E067
:103113004401F07F020231BA9013D0E075F00690BB
:103123000004A512800C0FE030E004540A6067909D
:1031330013CF740EA51280CE829013CF7419F0D2E0
:1031430013E0FF25E025E02421F582E43404F58330
:10315300A512800C30902651A512800C26EF25E095
:1031630025E02424F582E43404F583E49390265483
:10317300F07D01E4FFA51280CEB8E47FD07E07A5E1
:1031830012809247E49013D0F09015F4E04401F0DC
:10319300E49013D0801A9013D0E075F006900005E8
:1031A300A512800C0FE0FEA3E04E70099013D0F03F
:1031B300F07F0180027F00A522E4902405F0A3F0B4
:1031C300A3F0A3F0A3F09005E6E0B401169005E4A4
:1031D300E0FEA3E0FF9013CEE02FFF9013CDE03E7F
:1031E300FE80089013CDE0FEA3E0FF9013D0E075BE
:1031F300F006900005A512800C0FE0FCA3E0D39F1E
:10320300EC9E50030233B59013CF7433A51280CED6
:10321300829013CF7427F09003B7E0FEA3E0FFEE94
:103223006003023379EF24F6605724A67003023259
:10323300F7246360030233797B807A0379AD9026A8
:103243004CA512800C269013CFE025E025E0242125
:10325300F582E43404F583A512800C3090264FA543
:1032630012800C269013D0E075F006900005A5128D
:10327300800C0FE0FFA3E0902652CFF0A3EF0233C0
:10328300687B807A0379B390264CA512800C269034
:1032930013CFE025E025E02421F582E43404F5830F
:1032A300A512800C3090264FA512800C269013D0C7
:1032B300E075F006900005A512800C0FE0FAA3E07C
:1032C300FB9003B7E0FCA3E0FDAF03AE02A51280C1
:1032D3000975902652EEF0A3EFF09003B7E0FCA33C
:1032E300E0FDAF03AE02A512800975902654ECF001
:1032F300A3ED80717B807A0379BC90264CA5128064
:103303000C269013CFE025E025E02421F582E43458
:1033130004F583A512800C3090264FA512800C264D
:103323009013D0E075F006900005A512800C0FE015
:10333300FAA3E0FB9003B7E0FCA3E0FDAF03AE020A
:10334300A512800975902652EEF0A3EFF09003B713
:10335300E0FCA3E0FDAF03AE02A512800975902641
:1033630054ECF0A3EDF07B007A0579F1A512800D02
:1033730078902405EFF0D2137B007A0579F190263B
:1033830051A512800C26902405E0902654F07D016F
:10339300E4FFA51280CEB8E47FDC7E05A5128092FF
:1033A30047E49013D0F09015F4E04401F07F01025C
:1033B300369E9005E6E0640160030236947F01A522
:1033C30012809BEB902408EFF0600302363E9015C9
:1033D300E2F0A37405F09015E2E07002A3E070033D
:1033E3000234DEA512809F4E902409EFF064016041
:1033F300030234D69005E4E0FFA3E0902406CFF067
:10340300A3EFF0902406E0FEA3E0FF9013CDEE8F30
:10341300F0A512800A09900F85A512800BAEE4FC7B
:10342300FDA512800A37900F85A512800C02900F1C
:10343300A1A512800BAE902406E0FEA3E0FFE4FCFE
:10344300FDA512800A37900FA1A512800C029016D9
:10345300B47401F0902406E0FEA3E0FF9016B7EEEB
:103463008FF0A512800A097E007F247D007B007AFD
:10347300037909A512800CD5E4900351F09003530E
:10348300F0900356F09005E6F09005E4F0A3F09079
:1034930016B3E0B4011A9016B5E0FCA3E0FDE4FF17
:1034A300A51280BF61E49016B3F09016B5F0A3F0B7
:1034B3009016B4E0B401249016B7E0FCA3E0FD7FBE
:1034C30001A51280BF61E49016B4F09016B7F0A383
:1034D300F08008A5128070B30233D99015E2E07032
:1034E30002A3E060030236947FD07E07A512809288
:1034F30047A51280C71990036CE06401600302358D
:10350300E89005E4E0FFA3E0902406CFF0A3EFF0FA
:10351300902406E0FEA3E0FF9013CDEE8FF0A512FA
:10352300800A09900F85A512800BAEE4FCFDA5125D
:10353300800A37900F85A512800C02900FA1A51267
:10354300800BAE902406E0FEA3E0FFE4FCFDA51291
:10355300800A37900FA1A512800C029016B4740153
:10356300F0902406E0FEA3E0FF9016B7EE8FF0A5DF
:1035730012800A097E007F247D007B007A0379098B
:10358300A512800CD5E4900351F0900353F09003FF
:1035930056F09005E6F09005E4F0A3F09016B3E042
:1035A300B4011A9016B5E0FCA3E0FDE4FFA5128078
:1035B300BF61E49016B3F09016B5F0A3F09016B483
:1035C300E0640160030236949016B7E0FCA3E0FDCB
:1035D3007F01A51280BF61E49016B4F09016B7F096
:1035E300A3F0023694E49005E6F09005E4F0A3F02E
:1035F3009016BA04F0E4A3F0A3F09016BAE0B40175
:103603000EA51280BF59E49016BAF0A3F0A3F0A55B
:1036130012801DE69013D0E075F006900005A51208
:10362300800C0FE0FEA3E0FF9013CDE0FCA3E0FDD0
:10363300D3EF9DEE9C405A7F018060E49005E6F055
:103643009005E4F0A3F09016BA04F0E4A3F0A3F01D
:103653009016BAE0B4010EA51280BF59E49016BAD1
:10366300F0A3F0A3F0A512801DE69013D0E075F04F
:1036730006900005A512800C0FE0FEA3E0FF901357
:10368300CDE0FCA3E0FDD3EF9DEE9C40047F0180E1
:103693000AE49005E3F09005DDF0FFA5227F019099
:1036A300240BEFF0E4A3F0A3A5128097CC90172688
:1036B3007401F090240BE060030237EE9013CF7493
:1036C30014A51280CE827E007F147D007B007A05D4
:1036D30079F1A512800CD59003B7E0FEA3E0FFEECD
:1036E30060030237EBEF24F6603D24A67003023734
:1036F30083246360030239467B807A0379C790266B
:103703004CA512800C269004D1A512800C30902673
:103713004FA512800C269013CDE0FFA3E090265214
:10372300CFF0A3EF0237DA7B807A0379CC90264C73
:10373300A512800C269004D1A512800C3090264F40
:10374300A512800C269003B7E0FAA3E0FB9013CDFB
:10375300E0FEA3E0FFAD03AC02A51280097590263D
:1037630052EEF0A3EFF09013CDE0FEA3E0FFAD0324
:10377300AC02A512800975902654ECF0A3ED805796
:103783007B807A0379D490264CA512800C26900472
:10379300D1A512800C3090264FA512800C269003E1
:1037A300B7E0FAA3E0FB9013CDE0FEA3E0FFAD0387
:1037B300AC02A512800975902652EEF0A3EFF090AB
:1037C30013CDE0FEA3E0FFAD03AC02A512800975A3
:1037D300902654ECF0A3EDF07B007A0579F1A51265
:1037E300800D7890240DEFF002394690240BE064AD
:1037F3000260030239959013CF7414A51280CE8210
:103803007E007F147D007B007A0579F1A512800C80
:10381300D59003B7E0FEA3E0FFEE6003023946EF65
:1038230024F6603A24A670030238CA2463600302B4
:1038330039467B807A0379DE90264CA512800C26CC
:103843009004E9A512800C3090264FA512800C2617
:10385300900E80A512800B909026520239317B8006
:103863007A0379E490264CA512800C269004E9A5EE
:1038730012800C3090264FA512800C269003B7E0DF
:10388300FEA3E0FFFBAA06E4F9F8900E80A51280E0
:103893000B90A512800AD2902652A512800C02909A
:1038A30003B7E0FEA3E0FFFBAA06E4F9F8900E805D
:1038B300A512800B90A512800AD2AC00AD01AE0216
:1038C300AF0390265680677B807A0379EE90264C6F
:1038D300A512800C269004E9A512800C3090264F87
:1038E300A512800C269003B7E0FEA3E0FFFBAA0617
:1038F300E4F9F8900E80A512800B90A512800AD2ED
:10390300902652A512800C029003B7E0FEA3E0FFBD
:10391300FBAA06E4F9F8900E80A512800B90A5127D
:10392300800AD2AC00AD01AE02AF03902656A512B9
:10393300800C027B007A0579F1A512800D78902422
:103943000DEFF0D2137B007A0579F1902651A51281
:10395300800C2690240DE0902654F07D01E4FFA511
:103963001280CEB8E47F64A5128092469013D0E013
:10397300FF9016CBF0E4A3F075F006EF900005A5D9
:1039830012800C0FE0FFA3E09016CDCFF0A3EFF071
:10399300802990240BE0640170219013CF7414A547
:1039A3001280CE827F02A512809705E47F64A51260
:1039B3008092469016CBE09013D0F0E49016CAF0B4
:1039C3009013D0E025E025E0240DF582E4342AF5B8
:1039D30083E0FF7D50A51280F72C90240CEFF0BFFD
:1039E3000704E4023F3990240CE0A512800C3D3A11
:1039F3000E003CDC013CDC023EB7033EB7043A0E4A
:103A0300053EB7073EF60800003F5C90240BE060DC
:103A130003B402219013D0E075F006900005A512BF
:103A2300800C0FE0FEA3E0FFC39013CEE09FF09065
:103A330013CDE09EF090240BE0B401229016CDE06C
:103A4300FEA3E0FF9013CDE0FCA3E0FDC39FEC9E3B
:103A5300400CED9FFFEC9E9013CDF0A3EFF090137D
:103A6300CF741AA51280CE8290240BE06003023B30
:103A7300EEA51280AFB7EF7027900376E0B401167E
:103A8300B4011DA3E0FEA3E0FFC39013CEE09F901B
:103A930013CDE09E500A7F02A512809705023BEEEC
:103AA3007E007F147D007B007A0579F1A512800CDE
:103AB300D59003B7E0FEA3E0FFEE6003023BC5EF42
:103AC30024F6603D24A67003023B5D246360030279
:103AD3003BC57B807A0379C790264CA512800C26C0
:103AE3009004D1A512800C3090264FA512800C268D
:103AF3009013CDE0FFA3E0902652CFF0A3EF023B5B
:103B0300B47B807A0379CC90264CA512800C269046
:103B130004D1A512800C3090264FA512800C26905C
:103B230003B7E0FAA3E0FB9013CDE0FEA3E0FFAD03
:103B330003AC02A512800975902652EEF0A3EFF0B4
:103B43009013CDE0FEA3E0FFAD03AC02A512800904
:103B530075902654ECF0A3ED80577B807A0379D4DB
:103B630090264CA512800C269004D1A512800C300F
:103B730090264FA512800C269003B7E0FAA3E0FB32
:103B83009013CDE0FEA3E0FFAD03AC02A5128009C4
:103B930075902652EEF0A3EFF09013CDE0FEA3E074
:103BA300FFAD03AC02A512800975902654ECF0A377
:103BB300EDF07B007A0579F1A512800D7890240D44
:103BC300EFF0D2137B007A0579F1902651A512808C
:103BD3000C2690240DE0902654F07D01E4FFA512FD
:103BE30080CEB8E47FC8A5128092469013D0E0FF40
:103BF30075F006900007A512800C0FE014F075F025
:103C030006EF900007A512800C0FE070139013D0FD
:103C1300E075F006900004A512800C0FE04404F058
:103C230090240CE0B405139013D0E075F0069000D7
:103C330004A512800C0FE04402F0A51280D4779003
:103C43000F8DA512800BAE9013D0E075F006900097
:103C530005A512800C0FE0FEA3E0FFE4FCFDA51216
:103C6300800A37900F8DA512800C02900F91A51238
:103C730080D49090240BE0B401059016D18003907A
:103C830016D0A512815946E49016CAF0A3E0FDA30D
:103C9300E0FBA3E0FFA3E0902412CFF0A3EFF0E456
:103CA300FFA5128160CB9015DCE4F0A37464F0905F
:103CB30015DCE07002A3E0601BA51280A6975008F4
:103CC300E4FDFFA51280770DA51280BC1790240E8A
:103CD300EFF080DB7F00023F7DA51280CE7D901345
:103CE300D0E075F006900004A512800C0FE04402AA
:103CF300F090240BE0FF600764026003023E73A5AB
:103D03001280AFB7EF64016003023E52FE7F14FDE1
:103D13007B007A0579F1A512800CD59003B7E0FEFC
:103D2300A3E0FFEE6003023E2FEF24F6603D24A6DE
:103D33007003023DC724636003023E2F7B807A0336
:103D430079C790264CA512800C269004D1A5128029
:103D53000C3090264FA512800C269013CDE0FFA3C4
:103D6300E0902652CFF0A3EF023E1E7B807A0379C8
:103D7300CC90264CA512800C269004D1A512800C61
:103D83003090264FA512800C269003B7E0FAA3E0EB
:103D9300FB9013CDE0FEA3E0FFAD03AC02A51280C0
:103DA3000975902652EEF0A3EFF09013CDE0FEA339
:103DB300E0FFAD03AC02A512800975902654ECF028
:103DC300A3ED80577B807A0379D490264CA512808B
:103DD3000C269004D1A512800C3090264FA512809A
:103DE3000C269003B7E0FAA3E0FB9013CDE0FEA30B
:103DF300E0FFAD03AC02A512800975902652EEF0E8
:103E0300A3EFF09013CDE0FEA3E0FFAD03AC02A55A
:103E130012800975902654ECF0A3EDF07B007A052F
:103E230079F1A512800D7890240DEFF0D2137B0069
:103E33007A0579F1902651A512800C2690240DE085
:103E4300902654F07D01E4FFA51280CEB880077F51
:103E530002A512809705E47FE87E03A512809247AE
:103E63009013CDE0FFA3E09005EFCFA512803F8331
:103E73009013D0E075F006900004A512800C0FE0BB
:103E83004402A51280D476900F93A51280D490A5F6
:103E93001280A3BD90240BE0B401059016D18003DA
:103EA3009016D0E0FFA512815948A5128160B07F1A
:103EB30002023F7DA51280CE7D9013D0E075F006FF
:103EC300900004A512800C0FE04402F0A51280D4E8
:103ED3007790240BE0B401059016D180039016D09F
:103EE300E0FFA512815948A5128160B0E47FC47E2A
:103EF30009803AA51280CE7D9013D0E075F006902C
:103F03000004A512800C0FE04404A51280D476901F
:103F1300240BE0B401059016D180039016D0A512AE
:103F2300815946A5128160B0E47FE87E03A5128023
:103F330092477F008044F09013D0E025E025E024F1
:103F43000DF582E4342AF583E0FF7D50A51280F756
:103F53002C90240CEFF00239E99016CBE0FDA3E09E
:103F6300FBA3E0FFA3E0902412CFF0A3EFF09016A1
:103F7300CAE0FFA5128160CB7F00A5229005EFEE7A
:103F8300F0A3EFF0E49013CDF0A3F0E490240FF04E
:103F9300A3F0A3F0A3F0A3F0A3F0A3F0A304F0A372
:103FA300F0A3F0E4A3F0A3F090241CF0A3F0A3F09B
:103FB300A5128076EAA512809F2190037AE024C897
:103FC300FF900379E03400FED39005F0E09F900565
:103FD300EFE09E4005EEF0A3EFF09013CF741BA526
:103FE3001280CE82A5128092437E007F147D007BD7
:103FF300007A0579F1A512800CD59003B7E0FEA3F2
:10400300E0FFEE600302410EEF24F6603D24A6704C
:10401300030240A62463600302410E7B807A037986
:10402300C790264CA512800C269004CDA512800CB7
:104033003090264FA512800C269005EFE0FFA3E0F9
:10404300902652CFF0A3EF0240FD7B807A0379CC18
:1040530090264CA512800C269004CDA512800C301E
:1040630090264FA512800C269003B7E0FAA3E0FB3D
:104073009005EFE0FEA3E0FFAD03AC02A5128009BB
:1040830075902652EEF0A3EFF09005EFE0FEA3E06B
:10409300FFAD03AC02A512800975902654ECF0A382
:1040A300ED80577B807A0379D490264CA512800C3F
:1040B300269004CDA512800C3090264FA512800CBB
:1040C300269003B7E0FAA3E0FB9005EFE0FEA3E040
:1040D300FFAD03AC02A512800975902652EEF0A342
:1040E300EFF09005EFE0FEA3E0FFAD03AC02A512F5
:1040F300800975902654ECF0A3EDF07B007A0579E6
:10410300F1A512800D78902415EFF0D2137B007A7D
:104113000579F1902651A512800C26902415E0A56F
:10412300128092369015F37401F0E49016ADF0A36B
:10413300F0A3F0A3F09005EFE0FEA3E0FF7C007D89
:1041430032A51280097590241CEFF0A512816BD45F
:1041530090241BEFF060030243AEA3E0FFC31324DC
:1041630014FEE433901720F0A3CEF0901720E070F4
:1041730002A3E070030243CE7B007A24791DA512CB
:1041830080D69F90241BEFF060030243A27B007A4A
:1041930003795290262CA512800C267A03792DA53B
:1041A3001280D6F590241BEFF0BF01BF900352E0BD
:1041B3006401600302427790032DE0FF900365E4FE
:1041C300F0A3EFF0E4A3F0A3F0900365E0FAA3E01B
:1041D300FB7C007D32FFAE02A5128009629016AD12
:1041E300EEF0A3EFF07D647F007E00A512800962EC
:1041F300A3EEF0A3EFF09016ADE0FEA3E0FFC390B3
:1042030005F0E09FFF9005EFE09EFE9016AFE0FC07
:10421300A3E0FDC3EF9DFFEE9C9005EFF0A3EFF04D
:10422300900F99EA8BF0A512800A09900FBFA5128F
:10423300800BAE9016ADE0FEA3E0FFE4FCFDA512FB
:10424300800A37900FBFA512800C02900F95A5121C
:10425300800BAE9016ADE0FEA3E0FFE4FCFDA512DB
:10426300800A37900F95A512800C02900F9BE4F5FE
:10427300F0024353900352E0D39401500302416E82
:1042830090032DE0FF900365E4F0A3EFF090032E7D
:10429300E0FF900367E4F0A3EFF0900365E0FAA377
:1042A300E0FB7C007D32FFAE02A51280096290160E
:1042B300ADEEF0A3EFF0900367E0FEA3E0FF7D64B3
:1042C300A5128009629016AFEEF0A3EFF09016AD41
:1042D300E0FEA3E0FFC39005F0E09FFF9005EFE051
:1042E3009EFE9016AFE0FCA3E0FDC3EF9DFFEE9CA6
:1042F3009005EFF0A3EFF0900F99EA8BF0A51280F1
:104303000A09900FBFA512800BAE9016ADE0FEA375
:10431300E0FFE4FCFDA512800A37900FBFA51280D1
:104323000C02900F95A512800BAE9016ADE0FEA384
:10433300E0FFE4FCFDA512800A37900F95A51280DB
:104343000C02900367E0FEA3E0FF900F9BEE8FF05B
:10435300A512800A09900FC9A512800BAE9016AF63
:10436300E0FEA3E0FFE4FCFDA512800A37900FC92D
:10437300A512800C02900F95A512800BAE9016AF7C
:10438300E0FEA3E0FFE4FCFDA512800A37900F9541
:10439300A512800C02E4901720F0A3F002416E7F77
:1043A300E87E03A5128070B702416E90241BE0B42F
:1043B300801990241EE004F0E0C39403500DE47FC1
:1043C3002C7E01A5128092470241389005EFE0FE52
:1043D300A3E0FFD39400EE940040469024197401A7
:1043E300F0D3EF9430EE9475401690037F7401F090
:1043F30074FF9F90037EF074FF9E90037DF0801DF9
:10440300E490037FF09005EFE0FAA3E0FB90037DD7
:10441300EAF0A3EBF0E4FDFFA512816084D22280D1
:1044230005E4902419F09016ADE0FCA3E0FDD394CD
:1044330000EC9400500E9016B0E094009016AFE09C
:104443009400401A9016AFE0FAA3E0FBE4FFA51234
:10445300815F71E49016ADF0A3F0A3F0A3F0902474
:1044630019E07003024629A51280D49B9013CF74E0
:1044730001A51280CE829013CF7420F07E007F14AA
:104483007D007B007A0579F1A512800CD59013CFBE
:10449300E0FF25E025E02424F582E43404F583E4F9
:1044A30093FD7C00C004C005EF25E025E02421F541
:1044B30082E43404F583A512800C3078F17C057D09
:1044C30000D007D006A5128009369013CFE025E06F
:1044D30025E02424F582E43404F583E49390241541
:1044E300F09003B7E0FEA3E0FFEE60030245FFEFA9
:1044F30024F6604024A670030245932463600302FC
:1045030045FF902415E024F1F9E43405FA7B00C05B
:1045130003C002C0017B807A03799C90264CA512CC
:10452300800C2690037DE0FFA3E090264FCFF0A3FD
:10453300EF0245ED902415E024F1F9E43405FA7B0C
:1045430000C003C002C0017B807A03799F90264C90
:10455300A512800C269003B7E0FAA3E0FB90037D3D
:10456300E0FEA3E0FFAD03AC02A51280097590261F
:104573004FEEF0A3EFF090037DE0FEA3E0FFAD0369
:10458300AC02A512800975902651ECF0A3ED805A78
:10459300902415E024F1F9E43405FA7B00C003C04C
:1045A30002C0017B807A0379A590264CA512800C6A
:1045B300269003B7E0FAA3E0FB90037DE0FEA3E0BF
:1045C300FFAD03AC02A51280097590264FEEF0A350
:1045D300EFF090037DE0FEA3E0FFAD03AC02A51274
:1045E300800975902651ECF0A3EDF0D001D002D0F4
:1045F30003A512800D78902415E02FF0D2137B00D1
:104603007A0579F1902651A512800C26902415E0A5
:10461300902654F07D01E4FFA51280CEB87FD07EB2
:1046230007A5128070B77FF47E01A5128070B7A52D
:104633001280E5FC9003B9E064016033900358E015
:10464300701DC390035CE0940390035BE09400400F
:104653000E900364E094F4900363E0940150099096
:104663000606E04408F08007900606E054F7F07F62
:1046730000A522E4902405F0A51280A3BD900606B0
:10468300E04440F09013CCE04401F09013CF740D5C
:10469300A51280CE827F01A522E4902408F0A3F026
:1046A300A3F0902E2CF0900001F0A5128097CF90EC
:1046B30002067402F0302007A51280A034C22090B5
:1046C3001CC87401F0E4900605F0A3F09015F9F00E
:1046D300FBFAFD7F05A51280FF23A512814ACBA516
:1046E300128049C8A51280A7DB40EF9015F9740129
:1046F300F0E4FBFAFD7F06A51280FF23E49005E6B4
:10470300F09005E4F0A3F0901CC8F0D21390046974
:10471300A512800C30902651A512800C2690046CB3
:10472300A51280CEAFD2137B807A0379FA902651FB
:10473300A512800C269026547401F0FDE4FFA51207
:1047430080CEB8A5128097539002067401F0E490CE
:104753000605F0A3F0D21D202007A5128097EFD203
:1047630020D21FA51280A7F29013BDE07003201D75
:104773000D9013BEE06007900606E04402F0A51218
:1047830080F728BF020E900606E04440F09013CC59
:10479300E04401F0E490172CF090036DF090018356
:1047A300F0A3F0A512814A06902409EEF0A3EFF0DE
:1047B3007F00A522E4902405F0A3F0201F03024903
:1047C300C4A5128097CF7E007F147D007B007A24DE
:1047D3007907A512800CD5900606E030E0089024F6
:1047E3000674F10248D2900606E030E108902406F0
:1047F30074F20248D2900606E030E2089024067470
:10480300F30248D2900606E030E30890240674F4DD
:104813000248D2900606E030E40890240674F502BC
:1048230048AF900606E030E50790240674F6807CD6
:10483300900606E030E60790240674F7806E900633
:1048430006E030E70790240674F88060900605E0E0
:1048530030E00790240674F98052900605E030E1B9
:104863000790240674FA8044900605E030E207902E
:10487300240674FB8036900605E030E30790240697
:1048830074FC8028900605E030E40790240674FD4C
:10489300801A900605E030E50790240674FE800C2C
:1048A300900605E030E61C90240674E1F07B807AE4
:1048B3000379FC90264CA512800C267B807A047920
:1048C300128021900605E090240630E72C74F0F066
:1048D3007B807A0379FC90264CA512800C267B8082
:1048E3007A0379FF90264FA512800C267B007A2449
:1048F3007907A512800D78800374FFF0902406E0F9
:10490300FF901728F064F16014EF64F2600FEF6416
:10491300F3600AEF64F46005EF64F0702B9013CF3B
:104923007437A51280CE82E47F14A5128092467B51
:10493300807A0379FC90264CA512800C267B007AA2
:1049430024790790264F802F9013CF7410A51280DF
:10495300CE82E47F14A5128092467B807A04791577
:1049630090264CA512800C26902406E090264FF04A
:104973007B007A247907A3A512800C267A0579F1A6
:10498300A512800D78902405EFF0D2137B007A05F1
:1049930079F1902651A512800C26902405E09026EB
:1049A30054F07D01E4FFA51280CEB8E47F14A51274
:1049B300809246900000E004F0E0C394024002E4D9
:1049C300F07F01A522E490240DF0D20FA3F0A3F011
:1049D3000250E490240EE060030250F4F0D20FA5DD
:1049E30012809753D213901938A512800C30902659
:1049F30051A512800C2690193BA51280CEAFD2137D
:104A030090193CA512800C30902651A512800C26DB
:104A130090193FE493902654F07D01E4FFA51280A2
:104A2300CEB8A51280B78690240B7401F0A304F0CE
:104A3300200F03024DE6A51280776B90240FEFF051
:104A430024F37003024BCF24F27003024BCA24CB2E
:104A53007003024B1E24086003024DD590240CE022
:104A63006402702DD21190264C7402F0D212E4FD30
:104A7300FFA51280B79490240C7401F090240BE0EE
:104A83007006740DF0024DD590240BE014F0024D26
:104A9300D5D21390240BE0FF25E025E02438F582DE
:104AA300E43419F583A512800C30902651A51280A9
:104AB3000C26EF25E025E0243BF582E43419F58349
:104AC300E493902654F07D01E4FFA51280CEB890C4
:104AD300240BE07005740DF0800690240BE014F0B5
:104AE300D21390240BE0FF25E025E02438F582E47F
:104AF3003419F583A512800C30902651A512800C31
:104B030026EF25E025E0243BF582E43419A5128045
:104B1300CEAD90240C7401F0024DD590240CE064CA
:104B230001701AA51280B78690240BE0B40D05E43A
:104B3300F0024BC190240BE004F0024BC1D213905E
:104B4300240BE0FF25E025E02438F582E43419F551
:104B530083A512800C30902651A512800C26EF25D8
:104B6300E025E0243BF582E43419A51280CEAD9014
:104B7300240BE0B40D04E4F0800690240BE004F071
:104B8300D21390240BE0FF25E025E02438F582E4DE
:104B93003419F583A512800C30902651A512800C90
:104BA30026EF25E025E0243BF582E43419F583E480
:104BB30093902654F07D01E4FFA51280CEB8902493
:104BC3000C7402F0024DD5C20F024DD5C211E49010
:104BD300264CF0D212FDFFA51280B794A512809740
:104BE3005390240BE0A512800C3D4C1B004C270175
:104BF3004C2E024C3A034C3E044C45054C51064C9A
:104C03005A074C61084C68094C6F0A4C760B4C7D73
:104C13000C4C840D00004C89A512815594A512817A
:104C2300015F8062A51280547D805BA5128155943B
:104C3300A512815E5B804F7F018015A5128161CE35
:104C43008044A512815594A51280949980387F02DF
:104C5300A5128164AE802FA51280E2FD8028A512E3
:104C63008129D78021A5128066DD801AA51280CF05
:104C7300F48013A512810255800CA51280DBFD8000
:104C830005A512812B2C90240CE064026003024DD5
:104C93002090240BE07017D21390196CA512800C8E
:104CA30030902651A512800C2690196F802FD213B5
:104CB30090240BE0FF25E025E02434F582E4341949
:104CC300F583A512800C30902651A512800C26EF97
:104CD30025E025E02437F582E43419F583A5128015
:104CE300CEAFD21390240BE0FF25E025E02438F566
:104CF30082E43419F583A512800C30902651A51255
:104D0300800C26EF25E025E0243BF582E43419F5F9
:104D130083E493902654F07D01E4024DB390240B79
:104D2300E0B40D17D213901938A512800C309026D9
:104D330051A512800C2690193B802FD21390240B7F
:104D4300E0FF25E025E0243CF582E43419F583A552
:104D530012800C30902651A512800C26EF25E025F9
:104D6300E0243FF582E43419F583E493902654F06C
:104D73007D01E4FFA51280CEB8D21390240BE0FF8F
:104D830025E025E02438F582E43419F583A5128063
:104D93000C30902651A512800C26EF25E025E02447
:104DA3003BF582E43419F583E493902654F0E4FD53
:104DB300FFA51280CEB890240CE014FDD2119026EA
:104DC3004C7402F0D212E4FFA51280B794A51280AE
:104DD3009753A512807FA07F0A7E00A51280715F82
:104DE300024A33E47F2C7E01FDFC9026857417F084
:104DF300A37431F0A51280924FA5128142C8D2113B
:104E0300E490264CF0D212FDFFA51280B794D21184
:104E1300E490264CF0D212FD7F01A51280B7949046
:104E23002E35E0700330254ED2137B807A19790634
:104E3300902651A512800C26902654740AA5128040
:104E4300CEB4D2137B807A197911902651A51280A2
:104E53000C269026547401F0FDE4FFA51280CEB811
:104E6300E47FC47E09FDFC9026857417F0A374319A
:104E7300F0A51280924F902E35E07003024F55A596
:104E83001280F879E47F64A512809246A51280D43B
:104E930077E47F64A5128092467E017F807D007B4C
:104EA300007A247910A512800CD57F807E027D08BC
:104EB3007C00753724753810753901753A80A51251
:104EC30080A4EEE490240DF090240DE0FF75F0062D
:104ED300902414A512800C0FE0FE75F006EF9000ED
:104EE30007A512800C0FE06E705790240DE075F04B
:104EF30006902411A512800C0FE0FE75F006EF90CA
:104F03000004A512800C0FE0B5063690240DE07561
:104F1300F006902412A512800C0FE0FCA3E0FD75AF
:104F2300F006EF900005A512800C0FE0FEA3E0B59C
:104F3300050FEEB5040B90240DE004F0E06440701F
:104F43008790240DE064406004A37401F0E4902E84
:104F530035F0202503025048A51280D49BE47F64DA
:104F6300A5128092467E007F587D007B007A2579CA
:104F730090A512800CD57F807E017D087C0075375B
:104F830025753890753900753A58A51280A4EE90AE
:104F93002590E0FF90036EE06F6003025040902580
:104FA30091E0FEA3E0FF90036FE06E7003A3E06F58
:104FB3006003025040902593E0FEA3E0FF9003714D
:104FC300E06E7003A3E06F7074902595E0FEA3E09C
:104FD300FF900373E06E7003A3E06F7060902597FA
:104FE300E0FF900375E06F7054902598E0FF900305
:104FF30076E06F7048902599E0FEA3E0FF90037779
:10500300E0B50639A3E0B5073490259BE0FEA3E0A5
:10501300FF900379E0B50625A3E0B5072090259F0F
:10502300E0FEA3E0FF90037DE0B50611A3E0B50722
:105033000C9025E7E0FF9003C5E06F600690240E17
:105043007401F0C22590240EE070030250EBA51208
:10505300809753D2137B807A197913902651A51226
:10506300800C269026547413A51280CEB4D2137BE1
:10507300807A197927902651A512800C2690265400
:105083007410F07D01E4FFA51280CEB8902E317428
:105093000FF0E490240DF0902E31E0603BA51280D8
:1050A3007FA5A51280776B90240FEFF0F460E89052
:1050B300240FE024E56010240E70DCE490240EF04D
:1050C30090240D04F0800A90240E7401F090240DB6
:1050D300F090240DE0B401BF902E31E0600302494B
:1050E300D690240EF00249D690240E7401F00249A2
:1050F300D6A502809753902603EDF0902602EFF099
:10510300E4902604F0902625F0EF14602014602824
:1051130014603814605C24FA607A240A6003025134
:10512300B9900357E020E0030251B4807C90035808
:10513300E030E00280738079900358E030E0028031
:1051430011E4902604F090035F8019900358E03037
:10515300E00A902623E4F0A304F0805AE4902604A6
:10516300F0900361E0FFA3E0902623CFF0A3EFF0DC
:1051730080449013C1E0FF30E7028020EF540660C3
:10518300089026047403F0802D9013C1E030E002F0
:105193008017801D9013CAE0FF30E708902604743F
:1051A30002F08012EF540360089026047401F0802B
:1051B30005E4902604F03011030253FB902602E02D
:1051C300FF25E025E024E1F582E43408F583E49348
:1051D300FD7C00C004C005EF25E025E024DEF58258
:1051E300E43408F583A512800C3078057C267D0015
:1051F300D007D006A512800936902602E0FF64028C
:105203006008EF64036003025358902604E06003D0
:105213000253589003B7E0FEA3E0FFEE600302528F
:10522300F5EF24F6602A24A6606F2463600302521C
:10523300F57B807A08794E90264CA512800C269037
:105243002623E0FFA3E090264FCFF0A3EF0252E323
:105253007B807A08795190264CA512800C26900306
:10526300B7E0FAA3E0FB902623E0FEA3E0FFAD0343
:10527300AC02A51280097590264FEEF0A3EFF090D3
:105283002623E0FEA3E0FFAD03AC02A5128009755F
:10529300902651ECF0A3ED80477B807A08795790F4
:1052A300264CA512800C269003B7E0FAA3E0FB90EE
:1052B3002623E0FEA3E0FFAD03AC02A5128009752F
:1052C30090264FEEF0A3EFF0902623E0FEA3E0FF3D
:1052D300AD03AC02A512800975902651ECF0A3ED45
:1052E300F07B007A267919A512800D78902625E0A7
:1052F3002FF0902625E0FF7E00902602E025E02592
:10530300E024E1F582E43408F583E4932405F9E429
:105313003426A801FC7D007B007A267919A512802A
:105323000936902603E0FDD2137B007A2679059097
:105333002651A512800C26902602E025E025E024C4
:10534300E1F582E43408F583E493FF902625E0FE3B
:10535300EF2E0253EE902604E0FF25E025E024190A
:10536300F582E43409F583E493FD7C00C004C005B1
:10537300EF25E025E02416F582E43409F583A51230
:10538300800C30C001902602E025E025E024E1F501
:1053930082E43408F583E4932405F9E43426A80170
:1053A300FC7D00D001D007D006A5128009369026D7
:1053B30003E0FDD2137B007A267905902651A512CE
:1053C300800C26902604E025E025E02419F582E4EC
:1053D3003409F583E493FF902602E025E025E024D9
:1053E300E1F582E43408F583E4932F902654F0E446
:1053F300FFA51280CEB88005902604E0FFA5229079
:1054030025E8E0FF7D01902601EDF0902600EFF006
:105413006014E0FF6401600EEF64026009EF64034F
:105423006004EFB40A11902600E0FFA3E0FDC2116F
:10543300A5128050F98041902601E0FDD2139026F9
:1054430000E0FF25E025E024DEF582E43408F5835F
:10545300A512800C30902651A512800C26EF25E072
:1054630025E024E1F582E43408F583E4939026549F
:10547300F0E4FFA51280CEB8A522E490262AF0A37B
:10548300F0A3F0A3F0A3740AF0A37402F090263102
:1054930014F0E4A3F0A3F0902648F090262AF090AD
:1054A300262AE0FFC39440501F75F006EF900004D6
:1054B300A512800C0FE0540A6006902633E004F036
:1054C30090262AE004F080D77E007F147D007B00C5
:1054D3007A267934A512800CD5902633E070107BA0
:1054E300807A08796D90264CA512800C2680167B55
:1054F300807A08797890264CA512800C2690263362
:10550300E090264FF07B007A267934A512800D783F
:10551300902648EFF0D2137B007A267934902651F7
:10552300A512800C26902648E0A51280CEB17F02FA
:10553300A512809705E47FB87E0BA5128092479051
:105543002630A51280B77E90262F7402F0E49026B1
:105553002AF090262AE0FFC39440501D75F006EF11
:10556300900003A512800C0FE0600E902632E00439
:10557300F090262AE004F080D9902631E0700302EF
:1055830058787E007F157D007B007A267900A5126E
:10559300800CD57E007F157D007B007A267915A5CA
:1055A30012800CD5E490262BF090262AF090262D1D
:1055B300E090262AF090262EE0FF90262AE0FEC3F4
:1055C3009F40030257FA90262DE02405FDE433FCA7
:1055D300EEC39DEC6480F874809840030256D89023
:1055E300262AE075F006900003A512800C0FE070E8
:1055F300030257F190262BE075F004A42400F974FC
:105603002635F0FA7B00C003C002C0017B807A0814
:10561300798890264CA512800C2690262AE075F0F6
:1056230006900003A512800C0FE090264FF0D001E6
:10563300D002D003A512800D78E490262CF090269A
:105643002AE075F006900004A512800C0FE0FF70AD
:105653000690262CF0803EEF540A600890262C74A6
:1056630002F0803190262AE0FF75F006900004A531
:1056730012800C0FE020E20F75F006EF900007A5F3
:1056830012800C0FE0700890262C7403F0800690B3
:10569300262C7401F090262CE0FF25E025E0242938
:1056A300F582E43409F583E493FD7C00C004C0056E
:1056B300EF25E025E02426F582E43409F583A512DD
:1056C300800C30C00190262BE075F004A42402F96D
:1056D30074260257D9902632E0FF90262AE0FEC3B3
:1056E3009F40030257FA75F006EE900003A512805F
:1056F3000C0FE070030257F190262BE075F004A421
:105703002401F9742635F0FA7B00C003C002C001FE
:105713007B807A08798890264CA512800C269026E7
:105723002AE075F006900003A512800C0FE0902686
:105733004FF0D001D002D003A512800D78E490265B
:105743002CF090262AE075F006900004A512800C38
:105753000FE0FF700690262CF0803EEF540A60089D
:1057630090262C7402F0803190262AE0FF75F00613
:10577300900004A512800C0FE020E20F75F006EFF5
:10578300900007A512800C0FE0700890262C74037C
:10579300F0800690262C7401F090262CE0FF25E083
:1057A30025E02429F582E43409F583E493FD7C00A4
:1057B300C004C005EF25E025E02426F582E4340982
:1057C300F583A512800C30C00190262BE075F00400
:1057D300A42403F9742635F0A801FC7D00D001D080
:1057E30007D006A51280093690262BE004F09026F8
:1057F3002AE004F00255B87B007A267900A51280CE
:105803000010EF4E70127B007A267915A5128000E6
:1058130010EF4E700302591CD2137B007A267900D5
:10582300902651A512800C269026547414A512803C
:10583300CEB4D2137B007A267915902651A5128017
:105843000C2690262BE024FB25E025E0902654F03F
:105853007D01E4FFA51280CEB890262FE014FDD27F
:105863001190264C7402F0D212E4FFA51280B79473
:10587300E4902631F0A51280776B902630EFF02468
:10588300E5700302591C24CB60462408707A9026E5
:105893002FE0B4021AD21190264C7402F0D212E413
:1058A300FDFFA51280B79490262F7401F0805990C4
:1058B300262DE0D39400405090262DE024FBF0A346
:1058C300E024FBF09026317401F090262FF080380D
:1058D30090262FE0B4010DA51280B78690262F7471
:1058E30002F08024902632E0FF90262EE0C39F50E2
:1058F3001790262DE02405F0A3E02405F09026312F
:105903007401F090262F04F0A512807FA07F0A7EF9
:1059130000A51280715F02557CA5229025F1E0FD60
:10592300D2117F019025F5EFF0A3EDF0E490261856
:10593300F0A3F090260DF0FE7F16FD7B007A25790B
:10594300F7A512800CD59025F6E064037003025A84
:1059530021E0FF25E025E0248CF582E4341CF58367
:10596300E493FD7C00C004C005EF25E025E0248915
:10597300F582E4341CF583A512800C3078F77C257E
:105983007D00D007D006A51280093630115DA5121F
:1059930080F8929025F6E025E025E0248CF582E45A
:1059A300341CF583E493902619F090260DE0FF90C4
:1059B3002618E0C39F5025E0FF04F0740E2FF582F4
:1059C300E43426F583E0FF902619E0FE04F074F733
:1059D3002EF582E43425F583EFF080CE902619E08E
:1059E30024F7F582E43425F583E4F09025F5E0FD12
:1059F300D2137B007A2579F7902651A512800C26C5
:105A03009025F6E025E025E0248CF582E4341CF5AE
:105A130083E493FF90260DE0FEEF2E025B2120111D
:105A23003AD2139025F6E0FF25E025E02489F5829C
:105A3300E4341CF583A512800C30902651A5128006
:105A43000C26EF25E025E0248CF582E4341CF58355
:105A5300E493902654F0E4FD025B269025F6E0FFE4
:105A630025E025E0248CF582E4341CF583E493FDE2
:105A73007C00C004C005EF25E025E02489F582E41D
:105A8300341CF583A512800C3078F77C257D00D07B
:105A930007D006A512800936A51280F8929025F644
:105AA300E025E025E0248CF582E4341CF583E493BF
:105AB300902619F090260DE0FF902618E0C39F5022
:105AC30025E0FE04F0740E2EF582E43426F583E01F
