:020000040000FA
:10000000021BF2080001009600A522A50281405FB4
:10001000E4FFFEA54860090FEF70010EA56980F3AB
:02002000A52217
:10002300A502807D37EFB40A09740DA5128000354F
:10003300740A309811A899B8130CC2983098FDA887
:0F00430099C298B811F63099FDC299F599A52286
:10005300A502815821202020202020BBB6D3ADB992
:10006300E2C1D9002020C1E3C7AEB2BBD7E3202051
:1000730020200020202020D1A1D4F1C9CCC6B7B3C1
:10008300ACCAB120202020002020C7EBB2E5C8EB8A
:10009300B8FCD0A1C3E6B6EED6BDB1D2002020C7CE
:1000A300EBD1A1BBF5BBF2BCCCD0F8CDB6B1D2211C
:1000B30000C8B7B6A8454E54455220C8A1CFFB434C
:1000C300414E43454C0020202020C7EBC8A1C1E38B
:1000D300C7AE00C8A1CFFB43414E43454C0020208F
:1000E3002020CAE4C8EBB4EDCEF300C8B7B6A845E8
:1000F3004E544552002020C7EBCDB6C8EBD6BDB158
:10010300D2BBF2D3B2B1D200BFCDBBA7D3E0B6EE20
:100113003A00D1A1D4F1C6E4CBFCC9CCC6B7C2F036
:100123003F200020202020BBFAC6F7B9CAD5CF0054
:100133002020C9CCC6B7D2D1CADBCDEA002020200B
:10014300202020D0BBD0BB2100202020202020D481
:10015300DDCDA3B7FECEF10020202020D5D2C1E310
:10016300C6F7B9CAD5CF002020C7EBC9D4BAF22E3F
:100173002E2E00BDF0B6EEB2BBD7E32C20BCD3C706
:10018300AEC2F03F20002020D5FDD4DAB3F6BBF594
:100193002E2E2E002020D5FDD4DAD5D2C1E32E2E6B
:1001A3002E0020202020D5D2C1E3CAA7B0DC002036
:1001B300202020486F772061726520796F752100B8
:1001C300C7EBCAE4C8EBC6E4CBFCC9CCC6B7B1E005
:1001D300BAC5002020C7EBD1A1D4F1C6E4CBFCC93A
:1001E300CCC6B7002020C7EBC8A1BBF52E2E2E002E
:1001F3002020C7EBC8A1D7DFCDCBB1D22E2E2E0046
:100203002020C9CCC6B7BBF5B5C0B9CAD5CF00202D
:1002130020D1A1D4F1C6E4CBFCC9CCC6B7C2F03F10
:1002230000202020202020B2D9D7F7B3ACCAB100D8
:1002330020202020D5FDD4DACDCBBFEE00C7B7BF39
:10024300EE3A0020202020C7EBCDB6C8EBD3B2B1E5
:10025300D20020202020C7EBB2E5C8EBD6BDB1D237
:1002630000B2BBD5D2C1E3A3ACB9BAC2F2C7EBCDDE
:10027300B6B1D20020204556373733362D554220AC
:1002830056312E36002020BBB9D2AAB9BAC2F2C960
:10029300CCC6B7C2F03F00202020202020CEDEC1F4
:1002A300E3B1D2002020C9CCC6B7BCDBB8F13A0019
:1002B3002020CBF9D1A1C9CCC6B7D4DDCAB100C8BF
:1002C300B1BBF5002020B9CAD5CF002020CDCBB1DA
:1002D300D2BDF0B6EE3A002020B5B1C7B0BDF0B63E
:1002E300EE3A002020C7EBCBA2BFA82E2E2E002073
:1002F30020CDB6B1D22D3ED1A1BBF52D3EC8A1BBB9
:10030300F52020002020CCF9BFA82D3ED1A1BBF5BC
:100313002D3EC8A1BBF52020002020BFA8D3E0B606
:10032300EEB2BBD7E32E2E2E002020B6C1BFA8CA43
:10033300A7B0DC2E2E2E002020BFA8D3E0B6EE3AC5
:10034300002020BDF0B6EEB2BBD7E32E2E2E002048
:100353002020202020CFD6BDF0CFFBB7D100202016
:1003630020202020CBA2BFA8CFFBB7D1002020C7DD
:10037300EBD1A1BBF52100564D44455600564D52D5
:1003830045430025750025752E25750025752E25F9
:100393003032750025732025750025732025752EB1
:1003A30025750025732025752E253032750025739C
:1003B300257500257325752E257500257325752E46
:1003C30025303275002573256C75002573256C75F2
:1003D3002E256C75002573256C752E2530326C75B2
:1003E300002000B4FAC2EB3D253032627820008051
:1003F30000580E8000670E8000761480008B1480F6
:1004030000A0138000B4148000C90C8000D60A80B9
:1004130000E10C8000EE098000F81280010B0980D6
:100423000115108001260C8001330C8001400B80E4
:10043300014C0E80015B0E80016A0B8001761280F5
:1004430001890D8001970D8001A50C8001B21080F8
:1004530001C3128001D6108001E70B8001F30F80E6
:1004630002030E800212118002240E8002330C80DC
:100473000240058002460E8002550E8002641280FF
:100483000277108002881180029A0C8002A70B80E9
:1004930002B30E8002C2048002C7088002CE0B8022
:1004A30002DA0B8002E60B8002F214800307148049
:1004B300031C0F80032C0D80033A098003440D8035
:1004C30003520E8003610E8003700980037A058056
:1004D3000380058F828E83EDF5F0FFECFEE8FDE5EA
:1004E30082600205834583600EA548A55CA569A5C6
:1004F3006DD582F5D583F2ABF0ECFAE8F9A522EFDE
:100503008DF0A4A8F0CF8CF0A428CE8DF0A42EFEFD
:10051300A522BC000CBE002BEF8DF084FFADF0A52F
:1005230022E4CCF875F008EF2FFFEE33FEEC33FC3A
:10053300EE9DEC984005FCEE9DFE0FD5F0E9E4CE70
:10054300FDA522EDF8F5F0EE8420D21DFEADF07589
:10055300F008EF2FFFED33FD4008985007D5F0F278
:10056300A522C398FD0FD5F0E9A522C2D5EC30E74B
:1005730009B2D5E4C39DFDE49CFCEE30E717B2D588
:10058300E4C39FFFE49EFEA512800515C3E49DFD11
:10059300E49CFC8005A51280051530D507C3E49FB4
:1005A300FFE49EFEA522C5F0F8A3E028F0C5F0F80D
:1005B300E582158270021583E038F0A522A3F8E0E6
:1005C300C5F025F0F0E582158270021583E0C83886
:1005D300F0E8A522EF2BFFEE3AFEED39FDEC38FCF7
:1005E300A522E88FF0A4CC8BF0A42CFCE98EF0A418
:1005F3002CFC8AF0EDA42CFCEA8EF0A4CDA8F08BA1
:10060300F0A42DCC3825F0FDE98FF0A42CCD35F0E6
:10061300FCEB8EF0A4FEA9F0EB8FF0A4CFC5F02E77
:10062300CD39FEE43CFCEAA42DCE35F0FDE43CFCE0
:10063300A52275F008758200EF2FFFEE33FECD3350
:10064300CDCC33CCC58233C5829BED9AEC99E58240
:1006530098400CF582EE9BFEED9AFDEC99FC0FD5CC
:10066300F0D6E4CEFBE4CDFAE4CCF9A882A522B817
:1006730000C0B9005BBA002EEC8BF084CFCECDFC6A
:10068300E5F0CBF97818EF2FFFEE33FEED33FDECF9
:1006930033FCEB33FB10D703994004EB99FB0FD8E2
:1006A300E5E4F9FAA5227818EF2FFFEE33FEED33D8
:1006B300FDEC33FCC933C910D7059BE99A4007EC1D
:1006C3009BFCE99AF90FD8E0E4C9FAE4CCFBA52234
:1006D30075F010EF2FFFEE33FEED33FDCC33CCC8B6
:1006E30033C810D7079BEC9AE899400AED9BFDECC1
:1006F3009AFCE899F80FD5F0DAE4CDFBE4CCFAE400
:10070300C8F9A522EB9FF5F0EA9E42F0E99D42F07D
:10071300E89C45F0A522E0FCA3E0FDA3E0FEA3E0F6
:10072300FFA522E493FC740193FD740293FE74030A
:1007330093FFA522E0F8A3E0F9A3E0FAA3E0FBA569
:1007430022E493F8740193F9740293FA740393FB0C
:10075300A5227401FF3395E0FEFDFCA3A3A3E0CF24
:100763002FF0E582158270021583E0CE3EF0E5821C
:10077300158270021583E0CD3DF0E582158270028B
:100783001583E0CC3CF0A522ECF0A3EDF0A3EEF052
:10079300A3EFF0A522A42582F582E5F03583F58346
:1007A300A522E0FBA3E0FAA3E0F9A522EBF0A3EA7C
:1007B300F0A3E9F0A522E493FB740193FA74029386
:1007C300F9A522F8D0E0F5834480FBD0E0FAD0E02D
:1007D300F9A5487012A549700EA56AA549C0E0A500
:1007E30048C0E0C083A522A54A6860EFA56B80E1FD
:1007F300F8D0E0F5834480FBD0E0FAD0E0F9A548D7
:100803007012A549700EA56AA549C0E0A548C0E0CD
:10081300C083A522A54AB5F005A54B6860EAA56883
:1008230080DC8F828E83EDFFECFEE8FDE5826002C3
:100833000583458370047F00A522A548F5F0A54CE8
:10084300A569A56DB5F006D582F0D583ED7FFFB51B
:10085300F0030FA52240027F01A522EF4E6019EF9E
:1008630060010EED89828A838BF0A558A569DFFAB2
:10087300DEF88BF0A982AA83A522F8E0FBA3A3E00C
:10088300F925F0F0E582158270021583E0FA38F05D
:10089300A522312ED6BDB1D2C6F7D7B4CCAC3A20FF
:1008A30000322ED3B2B1D2C6F7D7B4CCAC3A2000C3
:1008B300332E2331D5D2C1E3C6F7D7B4CCAC3A201B
:1008C30000342E2332D5D2C1E3C6F7D7B4CCAC3A29
:1008D3002000352E2333D5D2C1E3C6F7D7B4CCAC31
:1008E3003A2000362ECAD6BBFAC4A3BFE9D7B4CC8C
:1008F300ACB2E2CAD400372EB6CCD0C5B2E2CAD469
:1009030000382EBBF5B5C0D7B4CCAC00392EBBF53F
:10091300B5C0BCECB2E20031302E20D1A1BBF5B0A2
:10092300B4C5A5BCECB2E20031312E20D3CECFB793
:10093300B0B4C5A5BCECB2E20031322E20CDCBB1B0
:10094300D2B0B4C5A5BCECB2E20031332E20B6C19F
:10095300BFA8C6F7B2E2CAD43A200031342E20BB76
:10096300F5B5C0B2E2CAD4BDE1B9FB0031352E20E2
:10097300D1B9CBF5BBFAB2E2CAD40031362E20D5B9
:10098300B9CABEB5C6B2E2CAD400D5FDB3A300B995
:10099300CAD5CF00CEDE00B2BBD7E300CEB400D5BC
:1009A300FD00B9CA00C8B100C8B7B6A8454E544542
:1009B3005220C8A1CFFB43414E43454C00C0DBBC92
:1009C300C6B2E2CAD4B4CECAFD3A20257500BBF53F
:1009D300B5C02530326275B9CAD5CFB4CECAFD3A97
:1009E300257500D5FDD4DABCECB2E22025303262A5
:1009F3007520BBF5B5C00020202020C7EBC9D4B5B6
:100A0300C82E2E2E002020BBF5B5C0B0E53A20B984
:100A1300CAD5CF202020002020BBF5B5C025303219
:100A230062753A20B9CAD5CF202020002020BBF51B
:100A3300B5C025303262753A20CEDEBBF5202020CA
:100A4300002020BBF5B5C02025303262753A202046
:100A5300D5FDB3A3200020202020D3B2B1D2C6F706
:100A6300B2E2CAD400C7EBCDB6B1D23A002020B16E
:100A7300D2B6B7D2D1C2FA2C20C7EBB4A6C0ED21AF
:100A830000D2D1CDB6C8EBBDF0B6EE3A2025750045
:100A9300D2D1CDB6C8EBBDF0B6EE3A2025752E25E2
:100AA3007500D2D1CDB6C8EBBDF0B6EE3A202575B0
:100AB3002E25303275002020D3B2B1D2C6F7CAC773
:100AC300B7F1D5FDB3A33F00257300D5B9CABEB5B1
:100AD300C600D1B9CBF5BBFA0020202573B2E2CA18
:100AE300D400312DB4F2BFAA2020322DB9D8B1D50C
:100AF300002573D2D1B4F2BFAAA3ACC7EBC8B7C861
:100B0300CF002573D2D1B9D8B1D5A3ACC7EBC8B741
:100B1300C8CF00C7EBB2BBD2AACBE6D2E2B9D8B1F9
:100B2300D5C9E8B1B8A3A10020202020D6BDB1D2F9
:100B3300C6F7B2E2CAD4002020D6BDB1D2C6F7CAE6
:100B4300C7B7F1D5FDB3A33F0020202020B0B4C523
:100B5300A5B2E2CAD42100CAE4C8EBB0B4C5A53A31
:100B630000CAE4C8EBB0B4C5A53A202562750020DD
:100B7300202020D3CECFB7B0B4C5A5B2E2CAD421CA
:100B830000D3D0BCFCB0B4CFC22C20D4F2C3F9BD87
:100B9300D0D2BBC9F90020202020CDCBB1D2B0B434
:100BA300C5A5B2E2CAD42100253032627520008087
:100BB30008950E8008A40E8008B3108008C4108026
:100BC30008D5108008E6128008F90A8009040A8013
:100BD300090F0A80091A1080092B1080093C108024
:100BE300094D1080095E1080096F0E80097E0E800A
:100BF300098D04800992048009970280099A048070
:100C0300099F028009A2028009A5028009A802E5C2
:100C130027248AF582E43424F583E00527229024EF
:100C230087301A0390248AE475F001A51280087DA9
:100C3300A548222013E77F2ED2138018EF540F24E8
:100C430090D43440D4FF30170BEF24BFB41A0050B4
:100C5300032461FFE52860021528052BE52B7002AC
:100C6300052A301A10902487E475F001A512800834
:100C73007DEFA55822A512800028227403D21A8082
:100C830003E4C21AF527902487A5128007AFE4F581
:100C930028F52AF52BE52860097F20A512800C573B
:100CA30080F37529FFC214C213C215C216C218C23B
:100CB30019C21B120C21FF700E301A057F00120C93
:100CC30068AF2BAE2AA522B4255FC2D5C217120C7A
:100CD30021FF24D0B40A00501A75F00A782830D5C1
:100CE3000508B6FF0106C6A426F620D5047002D275
:100CF3001680D924CFB41A00EF5004C2E5D21702EC
:100D03000E7FD21480C6D21380C0D21580BCD2D538
:100D130080BAD21880B47F20120C572015077401B3
:100D2300B5280040F1120C12FF120C57020C98D296
:100D33001BD2198095120C12FB120C12FA120C1210
:100D4300F94A4B700679527A0F7B8020153AE528D1
:100D530060367E00E9C0E02EF9EAC0E03400FAA56F
:100D630048F9D0E0FAD0E0C960060EEE652970E4D8
:100D7300C2D5EBC0E0EAC0E0E9C0E0EE120EC8D095
:100D8300E0F9D0E0FAD0E0FBA548FF609FEBC0E0BC
:100D9300EAC0E0E9C0E0120C57D0E02401F9D0E04A
:100DA3003400FAD0E0FBE5290460DDD529DA020D31
:100DB3002F7B807A0E79C4D21580907910800279C6
:100DC30008C219C21B8008D2D5790A8004790AC2E5
:100DD300D5E529047002F529E4FAFDFEFF120C1291
:100DE300FC7B08201413120C12FD7B1030130A1223
:100DF3000C12FE120C12FF7B20EC3382D592D550DD
:100E030013C3E43013069FFFE49EFEE42014039D06
:100E1300FDE49CFCE4CBF8C214EC700CCFCECDCC3B
:100E2300E824F8F870F38017C3EF33FFEE33FEEDD9
:100E330033FDEC33FCEB33FB994002FB0FD8E9EBBA
:100E4300301405F8D0E0C448B214C0E00AEC4D4EAB
:100E53004F78207B0070C2EAB5290040BCC0E01285
:100E63000ECAD0F0D0E0201404C4C0E0C4B214C051
:100E7300F0120C40D0F0D5F0EB020C98A5128007CD
:100E8300C60D38530DBE580D094C0D05420DC24F0A
:100E93000DCA440DCA490D1E430DD0550DB4460D60
:100EA300B4450DB4470F6D500D0D2D0D112E0D349E
:100EB3002B0D15230D32200F5B2A0CCD4800000D9E
:100EC3002C3F3F3F00790AA2D5201614301809B9E8
:100ED30010020404B9080104A2D520190250010428
:100EE3002015689215B528005034C0E07F203016D5
:100EF300197F30A21572197218500F120F21C215E3
:100F0300C219C218C21B7F30800F301803E9C0E03A
:100F1300120C57301803D0E0F9D0E0B528CC3018C4
:100F2300177F30B9100C120C577F583017077F7892
:100F33008003B90803120C573015057F2D020C5797
:100F43007F20201BF87F2B2019F322921580CF28B6
:100F53006E756C6C2900D214120C123014F8C21482
:100F6300782830D50108F6020CCD120C12C0E0C46B
:100F7300120C40D0E0120C40743A120C48D2167591
:100F83002804020DBE312E2331D5D2C1E3C6F7C3E7
:100F9300E6D6B53A00322E2332D5D2C1E3C6F7C323
:100FA300E6D6B53A00332E2333D5D2C1E3C6F7C311
:100FB300E6D6B53A00342ED4CAD0EDB6E0B4CEB9F5
:100FC300BAC2F23A00352EB2BBC2F2BBF5CDCBB1F9
:100FD300D23A00362EBFAAC6F4D6BDB1D2C6F73A6E
:100FE30000372EBFAAC6F4CAD6BBFAC4A3BFE93AD8
:100FF30000382ED3E0B6EECFC2CFDE3A00392ECA88
:10100300D5B1D2C9CFCFDE3A0031302E20D2C9CEEE
:10101300CABDF0B6EE3A0031312E20BBFAC6F7B1A5
:10102300E0BAC53A200031322E47534DBAC5C2EB60
:101033003A0031332E20C7B7CCF53A0031342E2095
:10104300D0A1CAFDB5E33A0031352E202331D6BDF8
:10105300B1D23A0031362E202332D6BDB1D23A0076
:1010630031372E202333D6BDB1D23A0031382E206A
:101073002334D6BDB1D23A0031392E202335D6BD23
:10108300B1D23A0032302E202336D6BDB1D23A0047
:1010930032312E202337D6BDB1D23A0032322E2040
:1010A3002338D6BDB1D23A0032332E202331D3B206
:1010B300B1D23A0032342E202332D3B2B1D23A0025
:1010C30032352E202333D3B2B1D23A0032362E201A
:1010D3002334D3B2B1D23A0032372E202335D3B2E0
:1010E300B1D23A0032382E202336D3B2B1D23A00ED
:1010F30032392E20BFAAC6F4B3F6BBF5C8B7C8CFA2
:101103003A0033302E20BDBBD2D7CAB1BCE43A007B
:1011130033312E20B2BBD5D2C1E3C4A3CABD3A003A
:1011230033322E20BFAAC6F4D3B2B1D2C6F73A00E7
:1011330033332E20BFAAC6F4B9ABBDBBBFA83A0058
:1011430033342E20B6C1BFA8CAB1BCE43A0033354C
:101153002E20D4DDB4E6D6BDB1D2C4A3CABD3A00B5
:1011630033362E20CEE5D4AAD6BDB1D2D4DDB4E633
:101173003A0033372E20CAAED4AAD6BDB1D2D4DDBD
:10118300B4E63A0033382E20BFAAC6F441434443A1
:10119300C4A3BFE93A0025750025752E25750025E2
:1011A300752E253032750025627500253262780070
:1011B300253032627800800F880F800F980F800FE0
:1011C300A80F800FB80F800FC80D800FD60D800FAA
:1011D300E40F800FF40B8010000B80100C0D8010B7
:1011E3001A0D8010290B8010350980103F0B8010D9
:1011F3004B0B8010570B8010630B80106F0B80100C
:101203007B0B8010870B8010930B80109F0B80103B
:10121300AB0B8010B70B8010C30B8010CF0B80106B
:10122300DB0B8010E70B8010F3118011050D80118B
:10123300130F8011230F8011330F8011430D801181
:1012430051118011631180117511801187110005EF
:101253000005000500010001000100010005000573
:101263000005000500100001000100050005000550
:101273000005000500050005000500050005000543
:101283000005000500050001000500010001000143
:101293000002000100010001000141018500421527
:1012A30050000041020701411552004207B70000F8
:1012B30041000200C120C121C19DC122C19FC11EA5
:1012C3004100000041000100412F9B00412F90008D
:1012D300412F9100412F9200C125412F9A01412FA7
:1012E3009900411E0E00412F6C00412F6D00412FCC
:1012F3006E00C100412F7000412F7100412F720019
:10130300412F7300412F7400412F7500C103C104A5
:10131300C105C106C107C108C109C10AC10BC10C7E
:10132300C10DC10E412F7600462EF908000100962B
:1013330000412F3F00C129014D00412F9C00411E58
:101343005300411E4F00411E5701411E5101C1234D
:10135300C124411E55006200287C00008005800FD7
:10136300000A801B001E0014801180330036003CED
:1013730080390028802D8027002280630066006C5E
:1013830080690078807D8077007200508055805F8F
:10139300005A804B004E0044804180C300C600CCFD
:1013A30080C900D880DD80D700D200F080F580FFAF
:1013B30000FA80EB00EE00E480E100A080A580AF9E
:1013C30000AA80BB00BE00B480B180930096009C4D
:1013D30080990088808D8087008281830186018CBB
:1013E30081890198819D8197019201B081B581BF67
:1013F30001BA81AB01AE01A481A101E081E581EFD6
:1014030001EA81FB01FE01F481F181D301D601DC04
:1014130081D901C881CD81C701C201408145814F76
:10142300014A815B015E0154815181730176017C24
:1014330081790168816D8167016281230126012C15
:1014430081290138813D8137013201108115811FC6
:10145300011A810B010E0104810183030306030CAE
:1014630083090318831D8317031203308335833FD6
:10147300033A832B032E0324832103608365836F45
:10148300036A837B037E0374837183530356035C74
:1014930083590348834D8347034203C083C583CFE6
:1014A30003CA83DB03DE03D483D183F303F603FC94
:1014B30083F903E883ED83E703E283A303A603AC85
:1014C30083A903B883BD83B703B203908395839F36
:1014D300039A838B038E0384838102808285828FA8
:1014E300028A829B029E0294829182B302B602BC5C
:1014F30082B902A882AD82A702A282E302E602ECCD
:1015030082E902F882FD82F702F202D082D582DFFD
:1015130002DA82CB02CE02C482C182430246024C6B
:1015230082490258825D8257025202708275827F1D
:10153300027A826B026E0264826102208225822F0C
:10154300022A823B023E0234823182130216021CBB
:1015530082190208820D8207020200CFB5CDB3D5EE
:10156300FDD4DAC6F4B6AF2C20C7EBC9D4B5C80096
:1015730020202020C4E3C8B7B6A8B8FCB8C4C2F082
:101583003F00C8B7B6A8454E54455220C8A1CFFB6B
:1015930043414E43454C00D5FDD4DAB8FCB8C4C929
:1015A300CCC6B7D3E0C1BF2E2E2E00C9CCC6B7D34D
:1015B300E0C1BFB8FCB8C4CAA7B0DC2100C9CCC61F
:1015C300B7D3E0C1BFB8FCB8C4B3C9B9A62100D52D
:1015D300FDD4DAB8FCB8C4C9CCC6B7BCDBB8F12EAD
:1015E3002E2E00C9CCC6B7BCDBB8F1B8FCB8C4CA50
:1015F300A7B0DC2100C9CCC6B7BCDBB8F1B8FCB8D6
:10160300C4B3C9B9A6210020202020C4E3C8B7B6BB
:10161300A8CCEDC2FAC2F03F00D5FDD4DACCEDC2BE
:10162300FA2E2E2E00CCEDC2FAB2D9D7F7CAA7B044
:10163300DC2100CCEDC2FAB2D9D7F7B3C9B9A621E0
:1016430000CAE4C8EBB2E3BCDCB1E0BAC53A00B10E
:10165300E0BAC5CAE4C8EBB4EDCEF300C7EBCAE405
:10166300C8EBC6E4CBFCB1E0BAC500C4E3C8B7B667
:10167300A8CCEDC2FAB4CBB2E3BCDCC2F03F00D5D8
:10168300FDD4DACCEDC2FAB5B1C7B0B2E3BCDC2EFF
:101693002E2E00B2E3BCDCCCEDC2FAB2D9D7F7CA26
:1016A300A7B0DC2100B2E3BCDCCCEDC2FAB2D9D7DF
:1016B300F7B3C9B9A62100257300B2B9D3B2B1D229
:1016C30000C8A1D6BDB1D2002020C4E3C8B7B6A8D4
:1016D3002573C2F03F002020D5FDD4DA2573002501
:1016E30073CAA7B0DC21002573B3C9B9A6210020B2
:1016F300202020C4E3C8B7B6A8CDACB2BDC2F03F2A
:1017030000D5FDD4DACDACB2BD2C20C7EBC9D4B51E
:10171300C82E2E2E00CDACB2BDB2D9D7F7B3C9B9FE
:10172300A621002020C4E3C8B7B6A8C7E5B5E3C225
:10173300F03F00D5FDD4DAC7E5B5E32C20C7EBC9EC
:10174300D4B5C82E2E2E00C7E5B5E3CDEAB1CFA39D
:10175300ACC7EBBACBB6D42100C7E5B5E3BDF0B651
:10176300EE3A20257500C7E5B5E3BDF0B6EE3A20A5
:1017730025752E257500C7E5B5E3BDF0B6EE3A2015
:1017830025752E2530327500312EBBF5B1D2CAD561
:10179300D6A700322EC9CCC6B700332EC7E5BFD5B6
:1017A300BCC7C2BC00312EBBF5B1D2D7DCCAD5C889
:1017B300EB3A00322ED6BDB1D2CAD5C8EB3A0033CC
:1017C3002ED3B2B1D2CAD5C8EB3A00342EBDBBD2A8
:1017D300D7D7DCBDF0B6EE3A00352ED5D2C1E3D76C
:1017E300DCBDF0B6EE3A00362E2331B3F6B1D2D7D4
:1017F300DCBDF0B6EE3A00372E2332B3F6B1D2D7C2
:10180300DCBDF0B6EE3A00382E2333B3F6B1D2D7AF
:10181300DCBDF0B6EE3A00392E2331B3F6B1D2C3B4
:10182300B6CAFD3A0031302E202332B3F6B1D2C30B
:10183300B6CAFD3A0031312E202333B3F6B1D2C3F9
:10184300B6CAFD3A0031322E20BFA8BDBBD2D7D0D5
:10185300F2BAC53A00312EB3C9B9A6BDBBD2D7B4CB
:10186300CECAFD3A00322ED2C9CECABDBBD2D7B43E
:10187300CECAFD3A00332EB5A5BBF5B5C0BDBBD26C
:10188300D7CDB3BCC600312EBBF5B5C0B1E0BAC5E8
:101893003A00322EB3C9B9A6BDBBD2D7CDB3BCC6AD
:1018A3003A00332ED2C9CECABDBBD2D7B4CECAFDFD
:1018B3003A002020C4E3C8B7B6A8C2F03F00C8B7B7
:1018C300B6A8454E54455220C8A1CFFB43414E43D1
:1018D300454C002020C3BBD3D0BDBBD2D7BCC7C2AD
:1018E300BC0025750025627500B1E0BAC5CAE4C81D
:1018F300EBB4EDCEF300C7EBCAE4C8EBC6E4CBFC14
:10190300B1E0BAC500256C7500256C752E256C7584
:1019130000256C752E2530326C750080178B0A807C
:1019230017960680179D0A8017A80D8017B60B809F
:1019330017C20B8017CE0D8017DC0D8017EA0F80BE
:1019430017FA0F80180A0F80181A0D8018280F80B5
:1019530018380F8018480F8018580F8018680F80A8
:101963001878108018890B8018950F8018A50F80A0
:1019730018B50B8018C1148018D60E312EBBF5B5DF
:10198300C0B2CECAFD00322EBCD3C2FAC8ABB2BFBE
:10199300BBF5B5C000332EBCD3C2FAB2E3BCDCBB8B
:1019A300F5B5C000342EB2B9D3B2B1D2CDEAB3C9C2
:1019B30000352EC8A1D6BDB1D2CDEAB3C900362EAB
:1019C300C8ABCFB5CDB3CDACB2BD00372E3520BD3E
:1019D300C7D3B2B1D2C7E5B5E300382E3120D4AABC
:1019E300D3B2B1D2C7E5B5E300392EC9E8B1B8B96E
:1019F300DCC0ED0031302E20CFB5CDB3B2CECAFD61
:101A03000031312E20BDBBD2D7BCC7C2BC0031329E
:101A13002E20BBF5BCDCC5E4D6C30031332E20B386
:101A2300F6B3A7C4ACC8CFC5E4D6C30031342E2067
:101A3300B4D3BBFACCEDBBF5002020C8B7B6A8B32E
:101A4300F6B3A7C5E4D6C3C2F03F00C8B7B6A845EE
:101A53004E54455220C8A1CFFB43414E43454C0051
:101A630030002020D5FDD4DAB1A3B4E6002000B1C4
:101A7300A3B4E6CAA7B0DCA3ACD6D8D0C2C9E8D613
:101A8300C33F002020454E54455220202043414E61
:101A930043454C0080197E0A8019890E8019980EDF
:101AA3008019A70C8019B40C8019C10C8019CE0EB3
:101AB3008019DD0E8019EC0A8019F70C801A040CCA
:101AC300801A110C801A1E10801A2F0C312EB2E3CB
:101AD300BCDCB1E0BAC53A00322ECAC7B7F1C6F4CE
:101AE300D3C33A00332ED7EEB4F3B4E6BBF5C1BF8C
:101AF3003A00342EB5DAD2BBBBF5B5C03A00352E69
:101B0300B5DAB6FEBBF5B5C03A00362EB5DAC8FD78
:101B1300BBF5B5C03A00372EB5DACBC4BBF5B5C0BB
:101B23003A00382EB5DACEE5BBF5B5C03A00392E0A
:101B3300B5DAC1F9BBF5B5C03A0031302E20B5DABC
:101B4300C6DFBBF5B5C03A0031312E20B5DAB0CBD4
:101B5300BBF5B5C03A00C7EBCAE4C8EBC3DCC2EBC4
:101B63003A00C3DCC2EBB4EDCEF32100256275006D
:101B73002020200020002020202000CAE4C8EBB24F
:101B8300E3BCDCB1E0BAC53A00B1E0BAC5CAE4C807
:101B9300EBB4EDCEF300C7EBCAE4C8EBC6E4CBFC71
:101BA300B1E0BAC500801ACF0B801ADB0B801AE7AD
:101BB3000D801AF50B801B010B801B0D0B801B196D
:101BC3000B801B250B801B310B801B3D0D801B4B9A
:101BD3000D801B590B801B650900010001000200E9
:101BE300010001000100010001000100010001A545
:101BF30075FF07758E0378FEE4F6D8FD75818DA514
:101C030075FB00759008A502801C39A50280D04899
:101C1300E493A3F85407240CC8C333C4540F4420DB
:101C2300C8834004F456800146F6DFE4800B0102CA
:101C330004081020408090129DE47E019360CCA3A1
:101C4300FF543F30E509541FFEE493A360010ECF18
:101C530054E0B4E01CE493FBA3E493FAA3E493F904
:101C6300A3E493A558A309E970010ADFF4DEF28027
:101C7300C854C025E060254097E493A3FAE493A3F6
:101C8300F8E493A3C8C582C8CAC583CAF0A3C8C56C
:101C930082C8CAC583CADFE9DEE7809DE493A3F85F
:101CA300E493A34003F68001F208DFF4808B312E26
:101CB300BBF5B5C0B1E0BAC53A2000322EC9CCC6D7
:101CC300B7D3E0C1BF3A2000332EB5A5BCDB3A2021
:101CD30000342EBBF5B5C0D7B4CCAC3A2000352EBA
:101CE300C9CCC6B7B1E0BAC53A2000253032627517
:101CF30000253362750025750025752E2575002591
:101D0300752E253032750025627500253262750007
:101D1300BBF5B5C02530326275D3E0C1BFA3BA00AD
:101D2300801CB10C801CBE0C801CCB08801CD40C06
:101D3300801CE10C200020202020202020202020B7
:101D43002020202020202020202000C7EBCAE4C828
:101D5300EBB1E0BAC53A2000B1E0BAC5CAE4C8EBBA
:101D6300B4EDCEF300C7EBCAE4C8EBC6E4CBFCB1D9
:101D7300E0BAC50020202020202020202020202081
:101D8300202020202020202000C2D5E830E70FB2F9
:101D9300D5E4C39BFBE49AFAE499F9E498F8EC30B0
:101DA300E71BB2D5A512801DC8A512800672E4C335
:101DB3009BFBE49AFAE499F9E498F88005A512806C
:101DC300067230D50DE4C39FFFE49EFEE49DFDE45F
:101DD3009CFCA5224742323331320057494E3132FF
:101DE3003532000D519610526405050505050505AC
:101DF3000504040404080807FF01010101010101AE
:101E03000102020202030306FF505050505050508B
:101E1300501B1B1B1B0D0D18FF0909090909090993
:101E2300092E2E2E2E000048FF00000001000000A6
:101E33000A00000064000003E80000271000018688
:101E4300A0000F42400098968005F5E100080001CC
:101E5300009600080001009600080001009600901B
:101E6300245FEBF0A3EAF0A3E9F0902465EBF0A381
:101E7300EAF0A3E9F090245FE0FBA3E475F001A589
:101E8300128005C0A9F0FAA54870EA90246074FF97
:101E9300F5F0A5128005A9902462E0FBA3E475F098
:101EA30001A5128005C0A9F0FAA548FF90245FE0C0
:101EB300FBA3E475F001A5128005C0A9F0FAEFA514
:101EC3005870D4902465E0FBA3E0FAA3E0F9A522BF
:101ED300A5128097EF901550E0FEA3E0FF902260DB
:101EE300EEF0A3EFF0E4A3F0A3F0A3F090079AE0E1
:101EF300B40113900798E0FEA3E0FF902260EE8FF9
:101F0300F0A5128005A9D3902261E094009022608D
:101F1300E0940050057F000221B2901552742CF01A
:101F23007E007F147D007B007A0779A3A5128008C9
:101F33005E901552E0FF25E025E024F5F582E434B8
:101F430003F583E493902262F0FD7C00C004C00596
:101F5300EF25E025E024F2F582E43403F583A512AE
:101F63008007B978A37C077D00D007D006A512802F
:101F730004D6902262E0FF24A3F582E43407F583BC
:101F83007420F090056BE0FCA3E0FDEC60030220FD
:101F93009EED24F6603D24A6700302203224636084
:101FA3000302209E74A42FF9E43407FA7B00C003D4
:101FB300C002C0017B807A03798690248AA51280AF
:101FC30007AF902260E0FFA3E090248DCFF0A3EF52
:101FD30002208C902262E024A4F9E43407FA7B0007
:101FE300C003C002C0017B807A03798990248AA54B
:101FF300128007AF90056BE0FAA3E0FB902260E04C
:10200300FEA3E0FFAD03AC02A51280051590248D5D
:10201300EEF0A3EFF0902260E0FEA3E0FFAD03AC8F
:1020230002A51280051590248FECF0A3ED805A9041
:102033002262E024A4F9E43407FA7B00C003C0025F
:10204300C0017B807A03798F90248AA5128007AF21
:1020530090056BE0FAA3E0FB902260E0FEA3E0FFB3
:10206300AD03AC02A51280051590248DEEF0A3EF0D
:10207300F0902260E0FEA3E0FFAD03AC02A5128066
:10208300051590248FECF0A3EDF0D001D002D0031E
:10209300A512800C7E902262E02FF0902262E00471
:1020A300F0D2137B007A0779A39024A0A5128007AE
:1020B300AF902262E0A51280B67390052EE0FEA3D6
:1020C300E0FFC3902261E09F902260E09E40509029
:1020D30015527436F0D213E0FF25E025E024F2F523
:1020E30082E43403F583A5128007B99024A0A512D6
:1020F3008007AFEF25E025E024F5F582E43403F50E
:1021030083E4939024A3F07D01E4FFA51280B67AC3
:1021130090079AE064017048A512808FC6804190B1
:1021230015527404F0D213E0FF25E025E024F2F504
:1021330082E43403F583A5128007B99024A0A51285
:102143008007AFEF25E025E024F5F582E43403F5BD
:1021530083E4939024A3F07D01E4FFA51280B67A73
:10216300E47F64FEFDFC9024D47418F0A3748EF015
:10217300A512808620901832E0B4011A901834E03A
:10218300FCA3E0FDE4FFA512815FACE4901832F0FC
:10219300901834F0A3F0901833E0B40110A5128125
:1021A3005FA2E4901833F0901836F0A3F07F00A5F7
:1021B30022E490225AF0FE7F57FD7B007A057923B3
:1021C300A51280085E7E037F357D007B007A15793A
:1021D30054A51280085E7E037FDE7D007B007A11AA
:1021E3007963A51280085E90177F7401F0A3F07ED7
:1021F300027F277D007B007A05797AA51280085E2D
:102203009007827401F07E037F137D007B007A0EBA
:102213007923A51280085EE47F64A512808617D215
:1022230013900482A5128007B99024A0A5128007F9
:10223300AF900485A51280B671D21390043AA5120B
:102243008007B99024A0A5128007AF90043DE493C2
:102253009024A3F07D01E4FFA51280B67AE47F64A5
:10226300A5128086177F00A522E490225AF0A3F0DE
:10227300A3F0A3F0FE7F14FD7B007A0779A3A512D8
:1022830080085E901782E0FF75F037901168A51201
:10229300800798E0D39400401875F037EF901199B8
:1022A300A512800798E0FFF46019901553EFF080B2
:1022B30012901782E075F037901199A51280079854
:1022C30074FFF0901782E075F037901199A5128092
:1022D3000798E0F47002802D901553E075F0069096
:1022E3000008A512800798E070028019901553E04A
:1022F30075F006900005A512800798E0FF540A7058
:1023030004EF20E041901552740EA51280B644905C
:1023130015527419F0D213E0FF25E025E024F2F5FD
:1023230082E43403F583A5128007B99024A0A51293
:102333008007AFEF25E025E024F5F582E43403F5CB
:1023430083E49302264E9015527427F090056BE0B8
:10235300FEA3E0FFEE60030224AEEF24F6605724F1
:10236300A6700302242C246360030224AE7B807ACC
:1023730003799790248AA5128007AF901552E02520
:10238300E025E024F2F582E43403F583A512800707
:10239300B990248DA5128007AF901553E075F00610
:1023A300900006A512800798E0FFA3E0902490CF49
:1023B300F0A3EF02249D7B807A03799D90248AA564
:1023C300128007AF901552E025E025E024F2F58254
:1023D300E43403F583A5128007B990248DA51280F8
:1023E30007AF901553E075F006900006A51280071D
:1023F30098E0FAA3E0FB90056BE0FCA3E0FDAF03DC
:10240300AE02A512800515902490EEF0A3EFF09094
:10241300056BE0FCA3E0FDAF03AE02A5128005153A
:10242300902492ECF0A3ED80717B807A0379A690DF
:10243300248AA5128007AF901552E025E025E024F9
:10244300F2F582E43403F583A5128007B990248D55
:10245300A5128007AF901553E075F006900006A50E
:1024630012800798E0FAA3E0FB90056BE0FCA3E081
:10247300FDAF03AE02A512800515902490EEF0A3E4
:10248300EFF090056BE0FCA3E0FDAF03AE02A512F5
:10249300800515902492ECF0A3EDF07B007A077988
:1024A300A3A512800C7E90225AEFF0A512809A54B5
:1024B300C21EE4F5149018897406F0900573E06465
:1024C30001600302261B90154EE054FB60030226B5
:1024D3001B901553E075F006900006A5128007982F
:1024E300E0FEA3E0D39400EE9400500302261BD237
:1024F300137B007A0779A39024A0A5128007AF90DD
:10250300225AE09024A3F07D01E4FFA51280B67A5D
:1025130090225C742DA51280B644900574E0FF7E72
:10252300007C037DE8A512800502E4FCFDA5128072
:10253300861A901161E475F001A5128005A9901522
:1025430053E075F006900006A512800798E0FEA3FD
:10255300E0FF901161E0FCA3E0FDA5128176EA9013
:10256300225DEFF07076901030E064A07045A51204
:1025730080B777A5128162F5901553E075F0069048
:102583000006A512800798E0FCA3E0FD7F02A512D8
:10259300815FAC901553E075F006900006A512809C
:1025A3000798E0FFA3E0901550CFF0A3EFF07F0171
:1025B30002267B901030E064A170079015527430AE
:1025C300801F901030E0FF64A5600AEF64A66005E9
:1025D300EF64A7706E901552743180059015527494
:1025E30031F0D213E0FF25E025E024F2F582E43454
:1025F30003F583A5128007B99024A0A5128007AF25
:10260300EF25E025E024F5F582E43403F583E49334
:102613009024A3F0E4FD801BD2137B007A0779A3F7
:102623009024A0A5128007AF90225AE09024A3F033
:102633007D01E4FFA51280B67AE47FD07E07A51260
:10264300808618E4901553F0FF802D9024A3F07D2D
:1026530001E4FFA51280B67AE47FD07E07A512803D
:102663008618A512809A54C21EE4F514901553F0EF
:102673009018897406F07F00A522E490225AF09006
:1026830007B7E07002A3E0700590020704F0900220
:1026930007E06401600302278D901772E064016014
:1026A3000302273BC3901771E094F4901770E094F2
:1026B30001500302273BE4F0A3F0900573E06401AB
:1026C300704790154EE054FB703F9015527435A53A
:1026D3001280B644A512808614901552742FA51249
:1026E3008085D8A512815362EF6401600302279E9F
:1026F300D213901552A5128085DBA512815362EF88
:102703006401600302279E80739015527434A512EE
:1027130080B644A5128085C2A512815362EF64017D
:102723007079D213901552A5128085DBA5128153BF
:1027330062EF640170658044901772E06401705B1E
:10274300C3901771E094FA901770E09400404C9096
:1027530015527434A51280B644A5128085C2A51201
:10276300815362EF64017033D213901552A5128026
:1027730085DBA512815362EF6401701F9007B7E0F8
:102783004402F0A3E0F07F01802A9015527410A553
:102793001280B6447F02A51280A718901889E0041E
:1027A300F0A51280C4DFBF01047F028007A5128059
:1027B30086147F01A522E490225AF0A3F0A3F0A38C
:1027C300F090225AF0A3F0900782E064016016D3E0
:1027D300901551E09400901550E0940040077F015C
:1027E300A51280B797302007A512809A2FC2202008
:1027F3001E0302287FD212E490249BF0D2137D01A2
:10280300FFA512809C87C21EE4F514901553F08037
:102813006B90225CE07002A3E0607090225CE0FEAB
:10282300A3E0FF901550EE8FF0A5128005A990113B
:1028330037A512800737E4FCFDA5128005D7901158
:1028430037A51280078B90113FA51280073790227E
:102853005CE0FEA3E0FFE4FCFDA5128005D7901128
:102863003FA51280078B9018327401F090225CA56B
:102873001280C993E47FC8A512808617A51280C76A
:102883000890225CEEF0A3EFF0808690052AE064C6
:10289300016003022961900782E064016003022959
:1028A30061900791E0FF20E203022961900797E01E
:1028B30020E00302296190052EE0FCA3E0FDC39014
:1028C3001551E09D901550E09C4003022961EF549F
:1028D300FB900791F0900797E054FEF0900794E087
:1028E300FFA3E090225ACFF0A3EFF090225AE0FE2C
:1028F300A3E0FF901550EE8FF0A5128005A990116B
:1029030037A512800737E4FCFDA5128005D7901187
:1029130037A51280078B90113BA5128007379022B1
:102923005AE0FEA3E0FFE4FCFDA5128005D7901159
:102933003BA51280078B9018337401F090225AE064
:10294300FEA3E0FF901836EE8FF0A5128005A99044
:102953000570E0FFA3E0901761CFF0A3EFF09005BF
:102963002AE064016003022AB5900782E0640170E3
:1029730003022AB5A51280C739EF7003022AB5A551
:10298300128153DC90225AEEF0A3EFF04E7008A5AB
:1029930012809009022AAD90225AE0FEA3E0FF9034
:1029A3001551E02FFF901550E03EFEC390052FE038
:1029B3009F90052EE09E50349015527403A512800B
:1029C300B6447F02A51280A718E47FDC7E05A5121A
:1029D300808618A512809009901550E0FCA3E0FDB5
:1029E3004C70028049AF05AE04022BC4A51281537B
:1029F300A2751D0AE51D600FA5128153D3EF700761
:102A0300A51280C9B280EDE51D702CA51280900936
:102A130090225AE0FFA3E0900530CFF0A3EFF0A59A
:102A23001280F736901550E07002A3E0707C901886
:102A330089F07F02022BCB90225AE0FEA3E0FF90A5
:102A43001550EE8FF0A5128005A9901137A51280BD
:102A53000737E4FCFDA5128005D7901137A5128036
:102A6300078B90113BA51280073790225AE0FEA3F3
:102A7300E0FFE4FCFDA5128005D790113BA5128071
:102A8300078B9018337401F090225AE0FEA3E0FF05
:102A9300901836EE8FF0A5128005A9900570E0FF1F
:102AA300A3E0901761CFF0A3EFF0E47F14A51280A9
:102AB300861790052EE0FEA3E0FFC3901551E09F1B
:102AC300901550E09E5003022BBCA512808614750E
:102AD3001690E5167003022B6FA51280C70890228B
:102AE3005CEEF0A3EFF04E607B90225CE0FEA3E08F
:102AF300FF901550EE8FF0A5128005A9901137A510
:102B030012800737E4FCFDA5128005D7901137A585
:102B13001280078B90113FA51280073790225CE04B
:102B2300FEA3E0FFE4FCFDA5128005D790113FA5AD
:102B33001280078B9018327401F090225CE0FEA3A0
:102B4300E0FF901834EE8FF0A5128005A990057070
:102B5300E0FFA3E0901761CFF0A3EFF0751690A507
:102B63001280C9B2A51280C9B2022AD5A512808DDE
:102B7300A0A512801ED8A5128097EF90052AE064C5
:102B8300017028900782E064016020751D01E51D36
:102B93006019A51280C739EF6007A51280900980DC
:102BA3000AE47F0AA51280861780E3E47FF47E019E
:102BB300A5128086187F01800F901550E0FEA3E0D8
:102BC300FFA512801EE07F00A522901782E0FF750B
:102BD300F037901168A512800798E0D39400402243
:102BE30075F037EF901199A512800798E0FFF46014
:102BF30023901782E0FE901553EFF0900206EEF05B
:102C03008012901782E075F037901199A512800712
:102C13009874FFF0901782E075F037901199A51220
:102C2300800798E0F470028012901553E075F00667
:102C3300900008A512800798E07066901552740EF4
:102C4300A51280B6449015527419F0D213E0FF25F3
:102C5300E025E024F2F582E43403F583A51280072E
:102C6300B99024A0A5128007AFEF25E025E024F555
:102C7300F582E43403F583E4939024A3F07D01E427
:102C8300FFA51280B67AE47FD07E07A5128086184E
:102C9300E4901553F0901775E04401F07F02022D84
:102CA30043901553E075F006900005A51280079830
:102CB300E030E004540A6067901552740EA5128048
:102CC300B6449015527419F0D213E0FF25E025E0C5
:102CD30024F2F582E43403F583A5128007B9902426
:102CE300A0A5128007AFEF25E025E024F5F582E4E7
:102CF3003403F583E4939024A3F07D01E4FFA5124C
:102D030080B67AE47FD07E07A512808618E49015FA
:102D130053F0901775E04401F0E4901553801A9036
:102D23001553E075F006900006A512800798E0FEA3
:102D3300A3E04E7009901553F0F07F0180027F00ED
:102D4300A522E490225AF0A3F0A3F0A3F090079AEF
:102D5300E0B40118900798E0FEA3E0FF901551E05E
:102D63002FFF901550E03E90225B800B901550E0B2
:102D7300FFA3E090225BCFF0A3EFF0901553E07533
:102D8300F006900006A512800798E0FEA3E0FF90EE
:102D9300225BE0FCA3E0FDD3EF9DEE9C5003022FEA
:102DA3004F9015527433A51280B644901552742770
:102DB300F090056BE0FEA3E0FFEE6003022F13EF3C
:102DC30024F6605724A67003022E91246360030245
:102DD3002F137B807A03799790248AA5128007AFFB
:102DE300901552E025E025E024F2F582E43403F562
:102DF30083A5128007B990248DA5128007AF901583
:102E030053E075F006900006A512800798E0FFA333
:102E1300E0902490CFF0A3EF022F027B807A037916
:102E23009D90248AA5128007AF901552E025E025D6
:102E3300E024F2F582E43403F583A5128007B99008
:102E4300248DA5128007AF901553E075F00690000E
:102E530006A512800798E0FAA3E0FB90056BE0FC5F
:102E6300A3E0FDAF03AE02A512800515902490EEFA
:102E7300F0A3EFF090056BE0FCA3E0FDAF03AE021F
:102E8300A512800515902492ECF0A3ED80717B8050
:102E93007A0379A690248AA5128007AF901552E091
:102EA30025E025E024F2F582E43403F583A51280BE
:102EB30007B990248DA5128007AF901553E075F0E4
:102EC30006900006A512800798E0FAA3E0FB9005A0
:102ED3006BE0FCA3E0FDAF03AE02A51280051590E5
:102EE3002490EEF0A3EFF090056BE0FCA3E0FDAFC0
:102EF30003AE02A512800515902492ECF0A3EDF029
:102F03007B007A0779A3A512800C7E90225AEFF0FA
:102F1300D2137B007A0779A39024A0A5128007AF70
:102F230090225AE09024A3F07D01E4FFA51280B61D
:102F33007AE47FDC7E05A512808618E4901553F0B1
:102F4300901775E04401F07F0102307E90079AE00C
:102F530064016003023059A51281742D90225DEF44
:102F6300F06003023022900798E0FFA3E090225B19
:102F7300CFF0A3EFF090225BE0FEA3E0FF901550AB
:102F8300EE8FF0A5128005A9901137A5128007379F
:102F9300E4FCFDA5128005D7901137A51280078B9D
:102FA30090113BA51280073790225BE0FEA3E0FF60
:102FB300E4FCFDA5128005D790113BA51280078B79
:102FC3009018337401F090225BE0FEA3E0FF9018A9
:102FD30036EE8FF0A5128005A9E490079AF09007CA
:102FE30098F0A3F0901832E0B4011A901834E0FC82
:102FF300A3E0FDE4FFA512815FACE4901832F090EA
:103003001834F0A3F0901833E064017067A51281BF
:103013005FA2E4901833F0901836F0A3F08055E4E3
:1030230090079AF0900798F0A3F0A512801ED8900D
:103033001553E075F006900006A512800798E0FE90
:10304300A3E0FF901550E0FCA3E0FDD3EF9DEE9CC1
:1030530040227F01802590052AE0B4011290078267
:10306300E0B4010B900797E030E0047F01800CA5EA
:10307300128090DCA5128090DC7F00A5227F019056
:10308300225DEFF0E4A3F0A3F0A3F0A5128090DC9F
:10309300A512808DA090225DE060030231D09015CF
:1030A300527414A51280B6447E007F147D007B0009
:1030B3007A0779A3A51280085E90056BE0FEA3E072
:1030C300FFEE60030231CDEF24F6603D24A67003CA
:1030D300023165246360030233287B807A0379B16C
:1030E30090248AA5128007AF9004A2A5128007B985
:1030F30090248DA5128007AF901550E0FFA3E090B8
:103103002490CFF0A3EF0231BC7B807A0379B69091
:10311300248AA5128007AF9004A2A5128007B99054
:10312300248DA5128007AF90056BE0FAA3E0FB9016
:103133001550E0FEA3E0FFAD03AC02A51280051518
:10314300902490EEF0A3EFF0901550E0FEA3E0FF83
:10315300AD03AC02A512800515902492ECF0A3ED0B
:1031630080577B807A0379BE90248AA5128007AFAB
:103173009004A2A5128007B990248DA5128007AFF1
:1031830090056BE0FAA3E0FB901550E0FEA3E0FF8F
:10319300AD03AC02A512800515902490EEF0A3EFC9
:1031A300F0901550E0FEA3E0FFAD03AC02A5128042
:1031B3000515902492ECF0A3EDF07B007A0779A338
:1031C300A512800C7E90225FEFF002332890225DDF
:1031D300E0640260030233779015527414A51280E1
:1031E300B6447E007F147D007B007A0779A3A51285
:1031F30080085E90056BE0FEA3E0FFEE6003023300
:1032030028EF24F6603A24A670030232AC246360EC
:10321300030233287B807A0379C890248AA512801D
:1032230007AF9004BAA5128007B990248DA5128028
:1032330007AF901032A51280071990249002331320
:103243007B807A0379CE90248AA5128007AF9004FD
:10325300BAA5128007B990248DA5128007AF9005F7
:103263006BE0FEA3E0FFFBAA06E4F9F8901032A599
:1032730012800719A512800672902490A512800768
:103283008B90056BE0FEA3E0FFFBAA06E4F9F89040
:103293001032A512800719A512800672AC00AD0189
:1032A300AE02AF0390249480677B807A0379D89031
:1032B300248AA5128007AF9004BAA5128007B9909B
:1032C300248DA5128007AF90056BE0FEA3E0FFFB02
:1032D300AA06E4F9F8901032A512800719A5128006
:1032E3000672902490A51280078B90056BE0FEA3D5
:1032F300E0FFFBAA06E4F9F8901032A51280071943
:10330300A512800672AC00AD01AE02AF0390249407
:10331300A51280078B7B007A0779A3A512800C7E08
:1033230090225FEFF0D2137B007A0779A39024A059
:10333300A5128007AF90225FE09024A3F07D01E403
:10334300FFA51280B67AE47F64A5128086179015D4
:1033530053E0FF90183EF0E4A3F075F006EF900001
:1033630006A512800798E0FFA3E0901840CFF0A3D2
:10337300EFF0802990225DE0640170219015527472
:1033830014A51280B6447F02A51280A718E47F64B7
:10339300A51280861790183EE0901553F0E490181C
:1033A3003DA51280DD7690225EEFF0BF0704E402B4
:1033B300390790225EE0A5128007C633DA0036BBD8
:1033C3000136BB0238970338970433DA0538970779
:1033D30038C3080000391490225DE06003B4022171
:1033E300901553E075F006900006A512800798E04B
:1033F300FEA3E0FFC3901551E09FF0901550E09EAF
:10340300F090225DE0B40122901840E0FEA3E0FFBB
:10341300901550E0FCA3E0FDC39FEC9E400CED9F94
:10342300FFEC9E901550F0A3EFF0901552741AA57F
:103433001280B64490225DE060030235BAA5128083
:10344300A770EF702790052BE0B40116B4011DA3FC
:10345300E0FEA3E0FFC3901551E09F901550E09E5E
:10346300500A7F02A51280A7180235BA7E007F1486
:103473007D007B007A0779A3A51280085E90056B17
:10348300E0FEA3E0FFEE6003023591EF24F6603D1A
:1034930024A67003023529246360030235917B80DF
:1034A3007A0379B190248AA5128007AF9004A2A56C
:1034B300128007B990248DA5128007AF901550E0B4
:1034C300FFA3E0902490CFF0A3EF0235807B807AB6
:1034D3000379B690248AA5128007AF9004A2A5129F
:1034E3008007B990248DA5128007AF90056BE0FA91
:1034F300A3E0FB901550E0FEA3E0FFAD03AC02A5F3
:1035030012800515902490EEF0A3EFF0901550E093
:10351300FEA3E0FFAD03AC02A51280051590249233
:10352300ECF0A3ED80577B807A0379BE90248AA5C3
:10353300128007AF9004A2A5128007B990248DA52D
:10354300128007AF90056BE0FAA3E0FB901550E003
:10355300FEA3E0FFAD03AC02A512800515902490F5
:10356300EEF0A3EFF0901550E0FEA3E0FFAD03AC47
:1035730002A512800515902492ECF0A3EDF07B00D8
:103583007A0779A3A512800C7E90225FEFF0D21305
:103593007B007A0779A39024A0A5128007AF90221D
:1035A3005FE09024A3F07D01E4FFA51280B67AE4E6
:1035B3007FC8A512808617901553E0FF75F006901B
:1035C3000008A512800798E014F075F006EF90004C
:1035D30008A512800798E07013901553E075F00664
:1035E300900005A512800798E04404F090225EE065
:1035F300B40513901553E075F006900005A51280ED
:103603000798E04402F0A51280AEB6901143A512CC
:10361300800737901553E075F006900006A51280D9
:103623000798E0FEA3E0FFE4FCFDA5128005D79018
:103633001143A51280078B901147E475F001A51281
:103643008005A9901553E075F0099002CBA512806F
:10365300AEE890225DE0B401059018448003901811
:1036630043A51280B9C6E490183DF0A3E0FDA3E0A2
:10367300FBA3E0FFA3E0902264CFF0A3EFF0E4FF0D
:10368300A5128160DA90175FE4F0A37464F09017D9
:103693005FE07002A3E0601BA51280C8965008E4A7
:1036A300FDFFA51280B7A1A51280BEC5902260EFD1
:1036B300F080DB7F00023935A51280B63F901553A9
:1036C300E075F006900005A512800798E04402F02B
:1036D30090225DE0FF600764026003023852A51286
:1036E30080A770EF64016003023831FE7F14FD7B15
:1036F300007A0779A3A51280085E90056BE0FEA30C
:10370300E0FFEE600302380EEF24F6603D24A6705E
:10371300030237A62463600302380E7B807A0379A1
:10372300B190248AA5128007AF9004A2A512800746
:10373300B990248DA5128007AF901550E0FFA3E048
:10374300902490CFF0A3EF0237FD7B807A0379B604
:1037530090248AA5128007AF9004A2A5128007B90E
:1037630090248DA5128007AF90056BE0FAA3E0FBD0
:10377300901550E0FEA3E0FFAD03AC02A512800557
:1037830015902490EEF0A3EFF0901550E0FEA3E027
:10379300FFAD03AC02A512800515902492ECF0A3B3
:1037A300ED80577B807A0379BE90248AA512800727
:1037B300AF9004A2A5128007B990248DA5128007AB
:1037C300AF90056BE0FAA3E0FB901550E0FEA3E099
:1037D300FFAD03AC02A512800515902490EEF0A373
:1037E300EFF0901550E0FEA3E0FFAD03AC02A5128D
:1037F300800515902492ECF0A3EDF07B007A077915
:10380300A3A512800C7E90225FEFF0D2137B007A87
:103813000779A39024A0A5128007AF90225FE090C0
:1038230024A3F07D01E4FFA51280B67A80077F020E
:10383300A51280A718E47FE87E03A512808618905E
:103843001550E0FFA3E09007A1CFA512803FBFA5CD
:103853001280AEA3901149E475F001A5128005A969
:10386300901553E075F0099002CDA51280AEE8A53E
:103873001280AE4E90225DE0B4010590184480039F
:10388300901843E0FFA51280B9C8A5128160BF7FDD
:1038930002023935A51280B63FA51280AEA390224D
:1038A3005DE0B401059018448003901843E0FFA540
:1038B3001280B9C8A5128160BFE47FC47E09803B32
:1038C300A51280B63F901553E075F006900005A54C
:1038D30012800798E04404F0A51280AEB690225DF2
:1038E300E0B401059018448003901843A51280B9F1
:1038F300C6A5128160BFE47FE87E03A51280861807
:103903007F00802EA51280DD7690225EEFF00233D9
:10391300B590183EE0FDA3E0FBA3E0FFA3E09022F7
:1039230064CFF0A3EFF090183DE0FFA5128160DAB9
:103933007F00A522E490225AF0A3F0A3F0A5128001
:10394300C8965008E4FDFFA51280B7A1A51280BE5A
:10395300C590225CEFF0901550E07002A3E0700474
:10396300FF023FB990052BE064016014A51280A704
:103973006BBF01077F01A51280A7187F00023FB923
:1039830090052CE0FEA3E0FFC3901551E09F901536
:1039930050E09E5003023E52EF4E7003023E52A58A
:1039A3001280A7A8EF64016003023CE8D2139004DD
:1039B30086A5128007B99024A0A5128007AF9004B2
:1039C30089A51280B671D213900406A5128007B997
:1039D3009024A0A5128007AF900409E4939024A338
:1039E300F07D01E4FFA51280B67A751E1EE51E70F8
:1039F30003023B7EA512808614A51280B127902274
:103A03005AEFF024E5600E240E70E2A512801ED852
:103A13007F01023FB9A51280A76BEF640160030227
:103A23003B797F01A51280A7187E007F147D007B60
:103A3300007A0779A3A51280085E90056BE0FEA3C8
:103A4300E0FFEE6003023B4EEF24F6603D24A670D8
:103A530003023AE624636003023B4E7B807A0379D8
:103A6300B190248AA5128007AF90049EA512800707
:103A7300B990248DA5128007AF901550E0FFA3E005
:103A8300902490CFF0A3EF023B3D7B807A0379B67D
:103A930090248AA5128007AF90049EA5128007B9CF
:103AA30090248DA5128007AF90056BE0FAA3E0FB8D
:103AB300901550E0FEA3E0FFAD03AC02A512800514
:103AC30015902490EEF0A3EFF0901550E0FEA3E0E4
:103AD300FFAD03AC02A512800515902492ECF0A370
:103AE300ED80577B807A0379BE90248AA5128007E4
:103AF300AF90049EA5128007B990248DA51280076C
:103B0300AF90056BE0FAA3E0FB901550E0FEA3E055
:103B1300FFAD03AC02A512800515902490EEF0A32F
:103B2300EFF0901550E0FEA3E0FFAD03AC02A51249
:103B3300800515902492ECF0A3EDF07B007A0779D1
:103B4300A3A512800C7E90225AEFF0D2137B007A49
:103B53000779A39024A0A5128007AF90225AE09082
:103B630024A3F07D01E4FFA51280B67AE47FDC7E16
:103B730005A5128086187F00023FB9A51280A770A1
:103B8300EF64016003023CE390225AF07F01A51227
:103B930080A7187E007F147D007B007A0779A3A598
:103BA3001280085E90056BE0FEA3E0FFEE60030267
:103BB3003CB8EF24F6603D24A67003023C50246316
:103BC3006003023CB87B807A0379B190248AA51202
:103BD3008007AF90049EA5128007B990248DA5128B
:103BE3008007AF901550E0FFA3E0902490CFF0A39F
:103BF300EF023CA77B807A0379B690248AA51280D2
:103C030007AF90049EA5128007B990248DA512805A
:103C130007AF90056BE0FAA3E0FB901550E0FEA31D
:103C2300E0FFAD03AC02A512800515902490EEF0E1
:103C3300A3EFF0901550E0FEA3E0FFAD03AC02A5A7
:103C430012800515902492ECF0A3ED80577B807AC7
:103C53000379BE90248AA5128007AF90049EA51213
:103C63008007B990248DA5128007AF90056BE0FA09
:103C7300A3E0FB901550E0FEA3E0FFAD03AC02A56B
:103C830012800515902490EEF0A3EFF0901550E00C
:103C9300FEA3E0FFAD03AC02A512800515902492AC
:103CA300ECF0A3EDF07B007A0779A3A512800C7EDC
:103CB30090225AEFF0D2137B007A0779A39024A0C5
:103CC300A5128007AF90225AE09024A3F07D01E46F
:103CD300FFA51280B67AE47FDC7E05A512808618E4
:103CE3007F00023FB9A51280A770EF640160030251
:103CF3003E4D90225AF07F01A51280A7187E007FC7
:103D0300147D007B007A0779A3A51280085E9005D5
:103D13006BE0FEA3E0FFEE6003023E22EF24F660B9
:103D23003D24A67003023DBA24636003023E227B56
:103D3300807A0379B190248AA5128007AF90049EFC
:103D4300A5128007B990248DA5128007AF90155056
:103D5300E0FFA3E0902490CFF0A3EF023E117B801D
:103D63007A0379B690248AA5128007AF90049EA5A2
:103D7300128007B990248DA5128007AF90056BE0E0
:103D8300FAA3E0FB901550E0FEA3E0FFAD03AC0205
:103D9300A512800515902490EEF0A3EFF090155036
:103DA300E0FEA3E0FFAD03AC02A51280051590244D
:103DB30092ECF0A3ED80577B807A0379BE90248A3E
:103DC300A5128007AF90049EA5128007B990248D99
:103DD300A5128007AF90056BE0FAA3E0FB901550A6
:103DE300E0FEA3E0FFAD03AC02A51280051590240D
:103DF30090EEF0A3EFF0901550E0FEA3E0FFAD03CB
:103E0300AC02A512800515902492ECF0A3EDF07B93
:103E1300007A0779A3A512800C7E90225AEFF0D284
:103E2300137B007A0779A39024A0A5128007AF9093
:103E3300225AE09024A3F07D01E4FFA51280B67A14
:103E4300E47FDC7E05A5128086187F00023FB9A5BA
:103E53001280A770EF64016003023FB790225AF00B
:103E63007F01A51280A7187E007F147D007B007A56
:103E73000779A3A51280085E90056BE0FEA3E0FF1F
:103E8300EE6003023F8CEF24F6603D24A67003022C
:103E93003F2424636003023F8C7B807A0379B190D3
:103EA300248AA5128007AF90049EA5128007B990BB
:103EB300248DA5128007AF901550E0FFA3E0902456
:103EC30090CFF0A3EF023F7B7B807A0379B69024F7
:103ED3008AA5128007AF90049EA5128007B990248B
:103EE3008DA5128007AF90056BE0FAA3E0FB901558
:103EF30050E0FEA3E0FFAD03AC02A51280051590D0
:103F03002490EEF0A3EFF0901550E0FEA3E0FFAD98
:103F130003AC02A512800515902492ECF0A3ED806A
:103F2300577B807A0379BE90248AA5128007AF90CD
:103F3300049EA5128007B990248DA5128007AF9027
:103F4300056BE0FAA3E0FB901550E0FEA3E0FFADA4
:103F530003AC02A512800515902490EEF0A3EFF0B8
:103F6300901550E0FEA3E0FFAD03AC02A51280055F
:103F730015902492ECF0A3EDF07B007A0779A3A5CA
:103F830012800C7E90225AEFF0D2137B007A0779CD
:103F9300A39024A0A5128007AF90225AE09024A3F7
:103FA300F07D01E4FFA51280B67AE47FD07E07A5F9
:103FB300128086187F00A5229007A1EEF0A3EFF0F0
:103FC300E4901550F0A3F0E4902261F0A3F0A3F085
:103FD300A3F0A3F0A3F0A3F0A304F0A3F0A3F0E4F1
:103FE300A3F0A3F0A51280A770EF6401600DA512E2
:103FF30080A7A8BF01057F000249F8901552741BE2
:10400300A51280B644A5128086147E007F147D001D
:104013007B007A0779A3A51280085E90056BE0FE0A
:10402300A3E0FFEE600302412FEF24F6603D24A6D8
:1040330070030240C72463600302412F7B807A032D
:1040430079B190248AA5128007AF90049EA51280AF
:1040530007B990248DA5128007AF9007A1E0FFA3B5
:10406300E0902490CFF0A3EF02411E7B807A037986
:10407300B690248AA5128007AF90049EA5128007EC
:10408300B990248DA5128007AF90056BE0FAA3E0E9
:10409300FB9007A1E0FEA3E0FFAD03AC02A51280F5
:1040A3000515902490EEF0A3EFF09007A1E0FEA396
:1040B300E0FFAD03AC02A512800515902492ECF04D
:1040C300A3ED80577B807A0379BE90248AA5128062
:1040D30007AF90049EA5128007B990248DA5128086
:1040E30007AF90056BE0FAA3E0FB9007A1E0FEA306
:1040F300E0FFAD03AC02A512800515902490EEF00D
:10410300A3EFF09007A1E0FEA3E0FFAD03AC02A58F
:1041130012800515902492ECF0A3EDF07B007A0752
:1041230079A3A512800C7E902267EFF0D2137B0057
:104133007A0779A39024A0A5128007AF902267E0A5
:10414300A5128086079017747401F0E490182CF080
:10415300A3F0A3F0A3F0A51280C8965008E4FDFFD6
:10416300A51280B7A1A51280BEC590226CEFF0E422
:10417300902261F0A3F0A3F09007A1E0FEA3E0FF7B
:104183004E700790226BF00247DB7B007A22796244
:10419300902272A5128007AF7A2209902275A51288
:1041A3008007AF7A227961A512809FF1902264EF94
:1041B300F0700302424CE4F0902264E0FFC39403E6
:1041C300501DEF25E025E02417F582E4340EF58336
:1041D300E0FEA3E04E6008902264E004F080D990F2
:1041E3002264E0FF701990226B04F09007A1E0FDB8
:1041F300A3E0900532CDF0A3EDF0D2220247DBEF2E
:1042030025E025E02413F582E4340EF583E0FEA3D4
:10421300E0FF9007A1E0FCA3E0FDC39FEC9E4012EA
:1042230090226B7401F0900532ECF0A3EDF0D222F2
:10423300800DE4900532F0A3F0C22290226BF0E4EB
:104243009007A1F0A3F00247DBE4902265F0A3F00E
:10425300902261E0FF70030243127E007A187BA371
:104263007D01A512808746EF7074A512807E89E4D4
:10427300902264F0902264E0C3940250567C187D2F
:10428300A37F01A5128081C8EF6401603F9018A647
:10429300E0FD54506007902268E04404F0ED30E5FF
:1042A30007902268E04402F09018A6E030E30790FC
:1042B3002268E04408F07F01A512815241902265F3
:1042C300EEF0A3EFF0E4902264F08007A512807E65
:1042D3008380A1902264E0C394024009800090226D
:1042E30068E04404F0900524E0FCA3E0FD9022651F
:1042F300E0FEA3E0FFA512800502C39007A2E09FA2
:10430300F09007A1E09EF090182CEEF0A3EFF09050
:104313002265E0FEA3E0FF90115BEE8FF0A5128013
:1043230005A990114FA512800737C000900524E01E
:10433300FCA3E0FD902265E0FEA3E0FFA51280054B
:1043430002E4FCFDD000A5128005D790114FA51201
:1043530080078B90114BA512800737C0009005246E
:10436300E0FCA3E0FD902265E0FEA3E0FFA5128040
:104373000502E4FCFDD000A5128005D790114BA5E2
:104383001280078B902268E064017003024429E4E1
:10439300902267F0902267E0FFC39403506CEF25EF
:1043A300E025E02419F582E4340EF583E06401701E
:1043B30051902268E0FF30E20790154374018017A3
:1043C300EF30E3079015437404800C902268E030CB
:1043D300E11A9015437402F0902267E025E025E08E
:1043E300241AF582E4340EF5837402F0A51280A733
:1043F3004D902267E0B50712901543E0600CC21D93
:104403008008902267E004F0808A9022687401F0AB
:10441300902261E0FFC3902266E09F902265E094C2
:10442300005003024159E4902265F0A3F090226208
:10443300E0FF70030244EF7E007A187BB87D02A58B
:1044430012808746EF7074A512807E89E4902264FF
:10445300F0902264E0C3940250567C187DB87F022A
:10446300A5128081C8EF6401603F9018BBE0FD5442
:10447300506007902269E04404F0ED30E507902294
:1044830069E04402F09018BBE030E307902269E052
:104493004408F07F02A512815241902265EEF0A3F9
:1044A300EFF0E4902264F08007A512807E8380A160
:1044B300902264E0C3940240098000902269E044A2
:1044C30004F0900526E0FCA3E0FD902265E0FEA346
:1044D300E0FFA512800502C39007A2E09FF09007BA
:1044E300A1E09EF090182EEEF0A3EFF0902265E08D
:1044F300FEA3E0FF90115DEE8FF0A5128005A99059
:104503001153A512800737C000900526E0FCA3E0F5
:10451300FD902265E0FEA3E0FFA512800502E4FC06
:10452300FDD000A5128005D7901153A51280078BEB
:1045330090114BA512800737C000900526E0FCA31D
:10454300E0FD902265E0FEA3E0FFA512800502E4F2
:10455300FCFDD000A5128005D790114BA512800752
:104563008B902269E064017003024606E49022679F
:10457300F0902267E0FFC39403506CEF25E025E041
:104583002419F582E4340EF583E06402705190221D
:1045930069E0FF30E20790154474018017EF30E3C0
:1045A300079015447404800C902269E030E11A905E
:1045B30015447402F0902267E025E025E0241AF503
:1045C30082E4340EF5837402F0A51280A74D902285
:1045D30067E0B50712901544E0600CC21D80089097
:1045E3002267E004F0808A9022697401F0902262CD
:1045F300E0FFC3902266E09F902265E094005003A1
:10460300024159E4902265F0A3F0902263E0FF7029
:10461300030246C67E007A187BCD7D03A5128087F0
:1046230046EF706EA512807E89E4902264F090229A
:1046330064E0C394025050A5128081C2EF6401600C
:104643003F9018D0E0FD5450600790226AE0440484
:10465300F0ED30E50790226AE04402F09018D0E0D4
:1046630030E30790226AE04408F07F03A5128152E9
:1046730041902265EEF0A3EFF0E4902264F080070E
:10468300A512807E8380A7902264E0C39402400930
:10469300800090226AE04404F0900528E0FCA3E047
:1046A300FD902265E0FEA3E0FFA512800502C39002
:1046B30007A2E09FF09007A1E09EF0901830EEF083
:1046C300A3EFF0902265E0FEA3E0FF90115FEE8F71
:1046D300F0A5128005A9901157A512800737C000D5
:1046E300900528E0FCA3E0FD902265E0FEA3E0FF37
:1046F300A512800502E4FCFDD000A5128005D79029
:104703001157A51280078B90114BA512800737C054
:1047130000900528E0FCA3E0FD902265E0FEA3E005
:10472300FFA512800502E4FCFDD000A5128005D789
:1047330090114BA51280078B90226AE064017003ED
:10474300024159E4902267F0902267E0FFC394038B
:10475300506CEF25E025E02419F582E4340EF5834F
:10476300E06403705190226AE0FF30E20790154540
:1047730074018017EF30E3079015457404800C90A3
:10478300226AE030E11A9015457402F0902267E046
:1047930025E025E0241AF582E4340EF5837402F053
:1047A300A51280A74D902267E0B50712901545E04A
:1047B300600CC21D8008902267E004F0808A90227A
:1047C3006A7401F0902263E0FFC3902266E09F9039
:1047D3002265E0940002415990182CE0FCA3E0FD0F
:1047E300D39400EC9400500E90182FE0940090188E
:1047F3002EE09400401A90182EE0FAA3E0FBE4FFA9
:10480300A51281602BE490182CF0A3F0A3F0A3F081
:1048130090226BE070030249DBA51280F7369015F6
:10482300527401A51280B6449015527420F07E0094
:104833007F147D007B007A0779A3A51280085E9020
:104843001552E0FF25E025E024F5F582E43403F575
:1048530083E493FD7C00C004C005EF25E025E0243C
:10486300F2F582E43403F583A5128007B978A37CBB
:10487300077D00D007D006A5128004D6901552E01C
:1048830025E025E024F5F582E43403F583E49390F1
:104893002267F090056BE0FEA3E0FFEE60030249A0
:1048A300B1EF24F6604024A67003024945246360F7
:1048B300030249B1902267E024A3F9E43407FA7BA9
:1048C30000C003C002C0017B807A03798690248AEA
:1048D300A5128007AF900532E0FFA3E090248DCFAF
:1048E300F0A3EF02499F902267E024A3F9E4340781
:1048F300FA7B00C003C002C0017B807A03798990F0
:10490300248AA5128007AF90056BE0FAA3E0FB9021
:104913000532E0FEA3E0FFAD03AC02A5128005154E
:1049230090248DEEF0A3EFF0900532E0FEA3E0FFBC
:10493300AD03AC02A51280051590248FECF0A3ED16
:10494300805A902267E024A3F9E43407FA7B00C07D
:1049530003C002C0017B807A03798F90248AA51259
:104963008007AF90056BE0FAA3E0FB900532E0FE11
:10497300A3E0FFAD03AC02A51280051590248DEED4
:10498300F0A3EFF0900532E0FEA3E0FFAD03AC022D
:10499300A51280051590248FECF0A3EDF0D001D083
:1049A30002D003A512800C7E902267E02FF0D21371
:1049B3007B007A0779A39024A0A5128007AF9022E9
:1049C30067E09024A3F07D01E4FFA51280B67A7F0F
:1049D300D07E07A512807E8D90056DE06401601383
:1049E300901543E09007B86006E04408F08004E0C7
:1049F30054F7F07F00A522E490225AF0A51280AE6E
:104A03004E9007B8E04440F0901552740DA5128003
:104A1300B6447F01A522E490225AF0902F95F0909E
:104A23000002F0A512808DA09002077402F03020DE
:104A330007A512809A2FC220901E257401F0E490DE
:104A43001778F0FBFAFD7F05A5128103DBA5128021
:104A53004E6C9017787401F0E4FBFAFD7F06A51203
:104A63008103DBE490079AF0900798F0A3F0901E7F
:104A730025F0D21390043AA5128007B99024A0A57B
:104A8300128007AF90043DA51280B671D2137B80CC
:104A93007A0379E49024A0A5128007AF9024A3742D
:104AA30001F0FDE4FFA51280B67AA512809A549016
:104AB30002077401F0E49007B7F0A3F0D21D2020A1
:104AC30007A512809FD9D220D21F90225AE06440BA
:104AD30060028055A51280A213E490225AF090221E
:104AE3005AE0FFC39440501875F006EF900005A5F7
:104AF30012800798E0541FF090225AE004F080DE01
:104B0300901541E07003201D0D901542E060079061
:104B130007B8E04402F07D53E4FFA51280DD8CBFAB
:104B230002079007B8E04440F0E4901889F090053C
:104B330022F0900184F0A3F0FFA522E490225AF022
:104B4300A3F0201F03024E4AA512808DA090155298
:104B53007410A51280B644E47F64A5128086179072
:104B630007B7E0FEA3E0FF30E00990225B74F1F0A9
:104B7300024C24EF30E10990225B74F2F0024C24E2
:104B8300EF30E20990225B74F3F0024C24EF30E340
:104B93000990225B74F4F0024C24EF30E408902275
:104BA3005B74F5F0807BEF30E50890225B74F6F0E0
:104BB300806FEF30E60890225B74F7F08063EF308C
:104BC300E70890225B74F8F08057EE30E0089022FB
:104BD3005B74F9F0804BEE30E10890225B74FAF0DD
:104BE300803FEE30E20890225B74FBF08033EE30BE
:104BF300E30890225B74FCF08027EE30E4089022F7
:104C03005B74FDF0801BEE30E50890225B74FEF0D0
:104C1300800FEE90225B30E60574E1F0800374FFB1
:104C2300F0202203024DE0900532E07002A3E07011
:104C330003024DE07B807A0379E690248AA51280F3
:104C430007AF90225BE090248DF07B007A0779A375
:104C5300A512800C7E90225AEFF09015527420F02A
:104C6300E0FE25E025E024F5F582E43403F583E452
:104C730093FD7C00C004C005EE25E025E024F2F599
:104C830082E43403F583A5128007B9C00174A32F0E
:104C9300F9E43407A801FC7D00D001D007D006A5B4
:104CA300128004D6901552E025E025E024F5F58224
:104CB300E43403F583E493FF90225AE02FF0900548
:104CC3006BE0FEA3E0FFEE6003024DDCEF24F66031
:104CD3004024A67003024D7024636003024DDC90F0
:104CE300225AE024A3F9E43407FA7B00C003C0028C
:104CF300C0017B807A03798690248AA5128007AF4E
:104D0300900532E0FFA3E090248DCFF0A3EF024D96
:104D1300CA90225AE024A3F9E43407FA7B00C003C3
:104D2300C002C0017B807A03798990248AA512800E
:104D330007AF90056BE0FAA3E0FB900532E0FEA31A
:104D4300E0FFAD03AC02A51280051590248DEEF0B3
:104D5300A3EFF0900532E0FEA3E0FFAD03AC02A5A4
:104D63001280051590248FECF0A3ED805A90225AFF
:104D7300E024A3F9E43407FA7B00C003C002C001B6
:104D83007B807A03798F90248AA5128007AF9005E0
:104D93006BE0FAA3E0FB900532E0FEA3E0FFAD0376
:104DA300AC02A51280051590248DEEF0A3EFF090D0
:104DB3000532E0FEA3E0FFAD03AC02A512800515AA
:104DC30090248FECF0A3EDF0D001D002D003A51214
:104DD300800C7E90225AE02FF0C22280267B807ABC
:104DE3000379E690248AA5128007AF90225BE090B6
:104DF300248DF07B007A0779A3A512800C7E902284
:104E03005AEFF0D2137B007A0779A39024A0A5125E
:104E13008007AF90225AE09024A3F07D01E4FFA520
:104E23001280B67AE47F64A512808617900001E0B1
:104E330004F0E0C394024004C21FE4F0900207743C
:104E430002F0A512809A54900549E0B4011790002E
:104E530002E0700CA5128097E7EF700404F0800560
:104E6300A51280C3AE7F01A522E490225DF0D20F8C
:104E7300A3F0A3F002553590225EE060030255458E
:104E8300F0D20FA512809A54D213901A97A51280CC
:104E930007B99024A0A5128007AF901A9AA5128093
:104EA300B671D213901A9BA5128007B99024A0A5BE
:104EB300128007AF901A9EA512809C6A90225B74A1
:104EC30001F0A304F0200F0302523EA51280B12784
:104ED30090225FEFF024F3700302506424F2700316
:104EE30002505F24CB7003024FB3240860030252C5
:104EF3002D90225CE06402702DD21290249B7402E8
:104F0300F0D213E4FDFFA512809C8790225C74010C
:104F1300F090225BE07006740DF002522D90225B3C
:104F2300E014F002522DD21390225BE0FF25E0251E
:104F3300E02497F582E4341AF583A5128007B9902B
:104F430024A0A5128007AFEF25E025E0249AF5827F
:104F5300E4341AF583E4939024A3F07D01E4FFA5E0
:104F63001280B67A90225BE07005740DF080069093
:104F7300225BE014F0D21390225BE0FF25E025E0F2
:104F83002497F582E4341AF583A5128007B9902497
:104F9300A0A5128007AFEF25E025E0249AF582E46F
:104FA300341AA51280B66F90225C7401F002522D60
:104FB30090225CE06401701AA512809C7990225BB8
:104FC300E0B40D05E4F002505690225BE004F002D9
:104FD3005056D21390225BE0FF25E025E02497F59D
:104FE30082E4341AF583A5128007B99024A0A51290
:104FF3008007AFEF25E025E0249AF582E4341AA573
:105003001280B66F90225BE0B40D04E4F08006904A
:10501300225BE004F0D21390225BE0FF25E025E061
:105023002497F582E4341AF583A5128007B99024F6
:10503300A0A5128007AFEF25E025E0249AF582E4CE
:10504300341AF583E4939024A3F07D01E4FFA512C1
:1050530080B67A90225C7402F002522DC20F025283
:105063002DC212E490249BF0D213FDA512809A4E18
:1050730090225BE0A5128007C650A40050AB0150FC
:10508300B20250B90350BD0450C60550CD0850D4E8
:105093000950DB0A50E20B50E90C50F00D000050B0
:1050A300F5A512810000804AA5128164BC8043A546
:1050B300128165D2803C7F0180027F02A512816844
:1050C3000A802FA5128169FC8028A512809CEB80A1
:1050D30021A5128131D5801AA5128061B98013A54B
:1050E300128074C0800CA51280D34D8005A5128157
:1050F30000FA90225CE06402600302518C90225B10
:10510300E07017D213901ACBA5128007B99024A090
:10511300A5128007AF901ACE802FD21390225BE0A6
:10512300FF25E025E02493F582E4341AF583A512E4
:105133008007B99024A0A5128007AFEF25E025E0F2
:105143002496F582E4341AF583A51280B671D2133E
:1051530090225BE0FF25E025E02497F582E4341AF2
:10516300F583A5128007B99024A0A5128007AFEF9D
:1051730025E025E0249AF582E4341AF583E493903C
:1051830024A3F07D01E402521F90225BE0B40D17CB
:10519300D213901A97A5128007B99024A0A5128064
:1051A30007AF901A9A802FD21390225BE0FF25E07D
:1051B30025E0249BF582E4341AF583A5128007B910
:1051C3009024A0A5128007AFEF25E025E0249EF5EB
:1051D30082E4341AF583E4939024A3F07D01E4FF81
:1051E300A51280B67AD21390225BE0FF25E025E07A
:1051F3002497F582E4341AF583A5128007B9902425
:10520300A0A5128007AFEF25E025E0249AF582E4FC
:10521300341AF583E4939024A3F0E4FDFFA51280F0
:10522300B67A90225CA512809A40A5128097577F88
:105233000A7E00A512808E04024EC8E47F2C7E01F4
:10524300FDFC9024D47418F0A3748EF0A51280860C
:1052530020A51281527AD212E490249BF0D213FD3E
:10526300FFA512809C87D212E490249BF0D213FDF9
:105273007F01A512809C87902F91E0700330254E0B
:10528300D2137B807A1A79659024A0A5128007AF88
:105293009024A3740AA51280B676D2137B807A1A5F
:1052A30079709024A0A5128007AF9024A37401F015
:1052B300FDE4FFA51280B67AE47FDC7E05FDFC9059
:1052C30024D47418F0A3748EF0A512808620902F36
:1052D30091E070030253ADA51280AECFE47F64A5C5
:1052E30012808617A51280AEB6E47F64A51280866D
:1052F300177E017F807D007B007A227960A5128072
:10530300085E7F807E027D087C00753722753860D9
:10531300753901753A80A51280ABF3E490225DF0F4
:1053230090225DE0FF75F006902264A51280079835
:10533300E0FE75F006EF900008A512800798E06E76
:10534300705790225DE075F006902261A5128007E8
:1053530098E0FE75F006EF900005A512800798E02F
:10536300B5063690225DE075F006902262A51280A4
:105373000798E0FCA3E0FD75F006EF900006A51288
:10538300800798E0FEA3E0B5050FEEB5040B90226D
:105393005DE004F0E06440708790225DE06440606B
:1053A30004A37401F0E4902F91F02025030254A08C
:1053B300A51280F736E47F64A5128086177E007FEE
:1053C300577D007B007A2379E0A51280085E7F80F9
:1053D3007E017D087C007537237538E075390075CB
:1053E3003A57A51280ABF39023E0E0FF900523E04A
:1053F3006F60030254989023E1E0FEA3E0FF900561
:1054030024E06E7003A3E06F60030254989023E3DB
:10541300E0FEA3E0FF900526E06E7003A3E06F704B
:10542300749023E5E0FEA3E0FF900528E06E70038F
:10543300A3E06F70609023E7E0FF90052AE06F70B0
:10544300549023E8E0FF90052BE06F70489023E928
:10545300E0FEA3E0FF90052CE0B50639A3E0B50715
:10546300349023EBE0FEA3E0FF90052EE0B5062584
:10547300A3E0B507209023EFE0FEA3E0FF90053201
:10548300E0B50611A3E0B5070C902436E0FF9005C4
:1054930079E06F600690225E7401F0C22590225E6F
:1054A300E0700302553CA512809A54D2137B807A94
:1054B3001A79729024A0A5128007AF9024A37413C5
:1054C300A51280B676D2137B807A1A79869024A0AF
:1054D300A5128007AF9024A37410F07D01E4FFA50B
:1054E3001280B67A751D0FE490225DF0E51D603BD6
:1054F300A51280C9B2A51280B12790225FEFF0F404
:1055030060EA90225FE024E56010240E70DEE490F0
:10551300225EF090225D04F0800A90225E7401F016
:1055230090225DF090225DE0B401C1E51D600302AD
:105533004E7A90225EF0024E7A90225E7401F0025F
:105543004E7AA502809A54902452EDF0902451EFA4
:10555300F0E4902453F0EF14602B14603A1460537A
:1055630014606C24F870030255F4240C6003025693
:1055730016901541E0FF30E702807EEF20E0030242
:105583005611025609901542E0FF30E702806AEF98
:1055930030E00280718077901543E0FF30E70280AE
:1055A30058EF540660028036901543E030E00280E5
:1055B30055805B901544E0FF30E702803CEF5406D2
:1055C3006002801A901544E030E0028039803F90F9
:1055D3001545E0FF30E7028020EF54066008902471
:1055E300537403F0802D901545E030E0028017805E
:1055F3001D90154EE0FF30E7089024537402F080AD
:1056030012EF540360089024537401F08005E49072
:105613002453F03011030256FC902451E0FF25E09F
:1056230025E024B5F582E4340BF583E493FD7C0097
:10563300C004C005EF25E025E024B2F582E4340B75
:10564300F583A5128007B978547C247D00D007D058
:1056530006A5128004D6902453E0FF25E025E0241C
:10566300F5F582E4340BF583E493FD7C00C004C0BC
:1056730005EF25E025E024F2F582E4340BF583A55C
:10568300128007B9C001902451E025E025E024B53C
:10569300F582E4340BF583E4932454F9E43424A829
:1056A30001FC7D00D001D007D006A5128004D6905E
:1056B3002452E0FDD2137B007A2479549024A0A5D0
:1056C300128007AF902453E025E025E024F5F5820E
:1056D300E4340BF583E493FF902451E025E025E0C7
:1056E30024B5F582E4340BF583E4932F9024A3F0DF
:1056F300E4FFA51280B67A8005902453E0FFA5222B
:10570300902437E0FF7D01902450EDF090244FEF7B
:10571300F0601BE0FF64016015EF64026010EF644A
:1057230003600BEF64046006EF6003B40C11902474
:105733004FE0FFA3E0FDC211A51280554A804190BE
:105743002450E0FDD21390244FE0FF25E025E02410
:10575300B2F582E4340BF583A5128007B99024A037
:10576300A5128007AFEF25E025E024B5F582E434E8
:105773000BF583E4939024A3F0E4FFA51280B67A9B
:10578300A522E4902479F0A3F0A3F0A3F0A3740A74
:10579300F0A37402F090248014F0E4A3F090247F2B
:1057A30074FFF0A512809A54A512809C7990247EF0
:1057B3007402F0E4902479F0902479E0FFC39440DC
:1057C300501D75F006EF900004A512800798E06065
:1057D3000E902481E004F0902479E004F080D990C5
:1057E3002480E07003025ADE7E007F157D007B007B
:1057F3007A24794FA51280085E7E007F157D007B99
:10580300007A247964A51280085EE490247AF090EB
:105813002479F090247CE0902479F090247DE0FFBB
:10582300902479E0FEC39F4003025A6090247CE0F9
:105833002405FDE433FCEEC39DEC6480F87480988A
:10584300400302593E902479E075F006900004A5C8
:1058530012800798E07003025A5790247AE075F09B
:1058630004A4244FF9742435F0FA7B00C003C0026A
:10587300C0017B807A0B79AB90248AA5128007AF95
:10588300902479E075F006900004A512800798E053
:1058930090248DF0D001D002D003A512800C7EE4B9
:1058A30090247BF0902479E075F006900005A51212
:1058B300800798E0FF700690247BF0803EEF540A47
:1058C300600890247B7402F08031902479E0FF75A6
:1058D300F006900005A512800798E020E20F75F00E
:1058E30006EF900008A512800798E0700890247BCB
:1058F3007403F0800690247B7401F090247BE0FF16
:1059030025E025E02405F582E4340CF583E493FDDA
:105913007C00C004C005EF25E025E02402F582E405
:10592300340CF583A5128007B9C00190247AE07581
:10593300F004A42451F97424025A3F902481E0FF17
:10594300902479E0FEC39F4003025A6075F006EE8F
:10595300900004A512800798E07003025A57902420
:105963007AE075F004A42450F9742435F0FA7B002E
:10597300C003C002C0017B807A0B79AB90248AA557
:10598300128007AF902479E075F006900004A51209
:10599300800798E090248DF0D001D002D003A512A7
:1059A300800C7EE490247BF0902479E075F00690DF
:1059B3000005A512800798E0FF700690247BF08015
:1059C3003EEF540A600890247B7402F080319024E7
:1059D30079E0FF75F006900005A512800798E02096
:1059E300E20F75F006EF900008A512800798E070AB
:1059F3000890247B7403F0800690247B7401F0905C
:105A0300247BE0FF25E025E02405F582E4340CF552
:105A130083E493FD7C00C004C005EF25E025E0246A
:105A230002F582E4340CF583A5128007B9C0019016
:105A3300247AE075F004A42452F9742435F0A80103
:105A4300FC7D00D001D007D006A5128004D6902497
:105A53007AE004F0902479E004F002581E7B007A87
:105A630024794FA512800010EF4E70127B007A2428
:105A73007964A512800010EF4E7003025B82D2138B
:105A83007B007A24794F9024A0A5128007AF90243D
:105A9300A37414A51280B676D2137B007A2479649A
:105AA3009024A0A5128007AF90247AE024FB25E080
:105AB30025E09024A3F07D01E4FFA51280B67A903F
:105AC300247EE014FDD21290249B7402F0D213E4DE
