:020000040000FA
:09000000021B54080001009600E7
:10000B00A502812FD0E4FFFEA54860090FEF700118
:07001B000EA56980F3A52288
:10002300A502808020EFB40A09740DA51280003563
:10003300740A309811A899B8130CC2983098FDA887
:0F00430099C298B811F63099FDC299F599A52286
:10005300A502814FF7202020202020BBB6D3ADB9C5
:10006300E2C1D9002020C1E3C7AEB2BBD7E3202051
:1000730020200020202020D1A1D4F1C9CCC6B7B3C1
:10008300ACCAB120202020002020C7EBB2E5C8EB8A
:10009300B8FCD0A1C3E6B6EED6BDB1D2002020C7CE
:1000A300EBD1A1BBF5BBF2BCCCD0F8CDB6B1D2211C
:1000B30000C8B7B6A8454E54455220C8A1CFFB434C
:1000C300414E43454C0020202020C7EBC8A1C1E38B
:1000D300C7AE00C8A1CFFB43414E43454C0020208F
:1000E3002020CAE4C8EBB4EDCEF300C8B7B6A845E8
:1000F3004E544552002020C7EBCDB6C8EBD6BDB158
:10010300D2BBF2D3B2B1D200BFCDBBA7D3E0B6EE20
:100113003A00D1A1D4F1C6E4CBFCC9CCC6B7C2F036
:100123003F200020202020BBFAC6F7B9CAD5CF0054
:100133002020C9CCC6B7D2D1CADBCDEA002020200B
:10014300202020D0BBD0BB2100202020202020D481
:10015300DDCDA3B7FECEF10020202020D5D2C1E310
:10016300C6F7B9CAD5CF002020C7EBC9D4BAF22E3F
:100173002E2E00BDF0B6EEB2BBD7E32C20BCD3C706
:10018300AEC2F03F20002020D5FDD4DAB3F6BBF594
:100193002E2E2E002020D5FDD4DAD5D2C1E32E2E6B
:1001A3002E0020202020D5D2C1E3CAA7B0DC002036
:1001B300202020486F772061726520796F752100B8
:1001C300C7EBCAE4C8EBC6E4CBFCC9CCC6B7B1E005
:1001D300BAC5002020C7EBD1A1D4F1C6E4CBFCC93A
:1001E300CCC6B7002020C7EBC8A1BBF52E2E2E002E
:1001F3002020C7EBC8A1D7DFCDCBB1D22E2E2E0046
:100203002020C9CCC6B7BBF5B5C0B9CAD5CF00202D
:1002130020D1A1D4F1C6E4CBFCC9CCC6B7C2F03F10
:1002230000202020202020B2D9D7F7B3ACCAB100D8
:1002330020202020D5FDD4DACDCBBFEE00C7B7BF39
:10024300EE3A0020202020C7EBCDB6C8EBD3B2B1E5
:10025300D20020202020C7EBB2E5C8EBD6BDB1D237
:1002630000B2BBD5D2C1E3A3ACB9BAC2F2C7EBCDDE
:10027300B6B1D20020204556373733362D554220AC
:1002830056312E33002020BBB9D2AAB9BAC2F2C963
:10029300CCC6B7C2F03F00202020202020CEDEC1F4
:1002A300E3B1D2002020C9CCC6B7BCDBB8F13A0019
:1002B3002020CBF9D1A1C9CCC6B7D4DDCAB100C8BF
:1002C300B1BBF5002020B9CAD5CF002020CDCBB1DA
:1002D300D2BDF0B6EE3A002020B5B1C7B0BDF0B63E
:1002E300EE3A002020C7EBCBA2BFA82E2E2E002073
:1002F30020CDB6B1D22D3ED1A1BBF52D3EC8A1BBB9
:10030300F52020002020CCF9BFA82D3ED1A1BBF5BC
:100313002D3EC8A1BBF52020002020BFA8D3E0B606
:10032300EEB2BBD7E32E2E2E002020B6C1BFA8CA43
:10033300A7B0DC2E2E2E002020BFA8D3E0B6EE3AC5
:10034300002020BDF0B6EEB2BBD7E32E2E2E002048
:100353002020202020CFD6BDF0CFFBB7D100202016
:1003630020202020CBA2BFA8CFFBB7D1002020C7DD
:10037300EBD1A1BBF52100564D44455600564D52D5
:1003830045430025750025752E25750025752E25F9
:100393003032750025732025750025732025752EB1
:1003A30025750025732025752E253032750025739C
:1003B300257500257325752E257500257325752E46
:1003C30025303275002573256C75002573256C75F2
:1003D3002E256C75002573256C752E2530326C75B2
:1003E300002000B4FAC2EB3D253032627820008051
:1003F30000580E8000670E8000761480008B1480F6
:1004030000A0138000B4148000C90C8000D60A80B9
:1004130000E10C8000EE098000F81280010B0980D6
:100423000115108001260C8001330C8001400B80E4
:10043300014C0E80015B0E80016A0B8001761280F5
:1004430001890D8001970D8001A50C8001B21080F8
:1004530001C3128001D6108001E70B8001F30F80E6
:1004630002030E800212118002240E8002330C80DC
:100473000240058002460E8002550E8002641280FF
:100483000277108002881180029A0C8002A70B80E9
:1004930002B30E8002C2048002C7088002CE0B8022
:1004A30002DA0B8002E60B8002F214800307148049
:1004B300031C0F80032C0D80033A098003440D8035
:1004C30003520E8003610E8003700980037A058056
:1004D3000380058F828E83EDF5F0FFECFEE8FDE5EA
:1004E30082600205834583600EA548A55CA569A5C6
:1004F3006DD582F5D583F2ABF0ECFAE8F9A522EFDE
:100503008DF0A4A8F0CF8CF0A428CE8DF0A42EFEFD
:10051300A522BC000CBE002BEF8DF084FFADF0A52F
:1005230022E4CCF875F008EF2FFFEE33FEEC33FC3A
:10053300EE9DEC984005FCEE9DFE0FD5F0E9E4CE70
:10054300FDA522EDF8F5F0EE8420D21DFEADF07589
:10055300F008EF2FFFED33FD4008985007D5F0F278
:10056300A522C398FD0FD5F0E9A522C2D5EC30E74B
:1005730009B2D5E4C39DFDE49CFCEE30E717B2D588
:10058300E4C39FFFE49EFEA512800515C3E49DFD11
:10059300E49CFC8005A51280051530D507C3E49FB4
:1005A300FFE49EFEA522C5F0F8A3E028F0C5F0F80D
:1005B300E582158270021583E038F0A522A3F8E0E6
:1005C300C5F025F0F0E582158270021583E0C83886
:1005D300F0E8A522EF2BFFEE3AFEED39FDEC38FCF7
:1005E300A522E88FF0A4CC8BF0A42CFCE98EF0A418
:1005F3002CFC8AF0EDA42CFCEA8EF0A4CDA8F08BA1
:10060300F0A42DCC3825F0FDE98FF0A42CCD35F0E6
:10061300FCEB8EF0A4FEA9F0EB8FF0A4CFC5F02E77
:10062300CD39FEE43CFCEAA42DCE35F0FDE43CFCE0
:10063300A52275F008758200EF2FFFEE33FECD3350
:10064300CDCC33CCC58233C5829BED9AEC99E58240
:1006530098400CF582EE9BFEED9AFDEC99FC0FD5CC
:10066300F0D6E4CEFBE4CDFAE4CCF9A882A522B817
:1006730000C0B9005BBA002EEC8BF084CFCECDFC6A
:10068300E5F0CBF97818EF2FFFEE33FEED33FDECF9
:1006930033FCEB33FB10D703994004EB99FB0FD8E2
:1006A300E5E4F9FAA5227818EF2FFFEE33FEED33D8
:1006B300FDEC33FCC933C910D7059BE99A4007EC1D
:1006C3009BFCE99AF90FD8E0E4C9FAE4CCFBA52234
:1006D30075F010EF2FFFEE33FEED33FDCC33CCC8B6
:1006E30033C810D7079BEC9AE899400AED9BFDECC1
:1006F3009AFCE899F80FD5F0DAE4CDFBE4CCFAE400
:10070300C8F9A522EB9FF5F0EA9E42F0E99D42F07D
:10071300E89C45F0A522E0FCA3E0FDA3E0FEA3E0F6
:10072300FFA522E493FC740193FD740293FE74030A
:1007330093FFA522E0F8A3E0F9A3E0FAA3E0FBA569
:1007430022E493F8740193F9740293FA740393FB0C
:10075300A5227401FF3395E0FEFDFCA3A3A3E0CF24
:100763002FF0E582158270021583E0CE3EF0E5821C
:10077300158270021583E0CD3DF0E582158270028B
:100783001583E0CC3CF0A522ECF0A3EDF0A3EEF052
:10079300A3EFF0A522A42582F582E5F03583F58346
:1007A300A522E0FBA3E0FAA3E0F9A522EBF0A3EA7C
:1007B300F0A3E9F0A522E493FB740193FA74029386
:1007C300F9A522F8D0E0F5834480FBD0E0FAD0E02D
:1007D300F9A5487012A549700EA56AA549C0E0A500
:1007E30048C0E0C083A522A54A6860EFA56B80E1FD
:1007F300F8D0E0F5834480FBD0E0FAD0E0F9A548D7
:100803007012A549700EA56AA549C0E0A548C0E0CD
:10081300C083A522A54AB5F005A54B6860EAA56883
:1008230080DCE8CDFFECFEA548F5F0A54CA569A555
:100833006DB5F00670F17F00A52263F0806480D36C
:1008430095F07FFF40027F01A5228F828E83EDFF0B
:10085300ECFEE8FDE58260020583458370047F00BA
:10086300A522A548F5F0A54CA569A56DB5F006D55B
:1008730082F0D583ED7FFFB5F0030FA52240027F01
:1008830001A522EF4E6019EF60010EED89828A8384
:100893008BF0A558A569DFFADEF88BF0A982AA834D
:1008A300A522F8E0FBA3A3E0F925F0F0E582158289
:1008B30070021583E0FA38F0A522312ED6BDB1D2ED
:1008C300C6F7D7B4CCAC3A2000322ED3B2B1D2C6DD
:1008D300F7D7B4CCAC3A2000332E2331D5D2C1E3C1
:1008E300C6F7D7B4CCAC3A2000342E2332D5D2C1CC
:1008F300E3C6F7D7B4CCAC3A2000352E2333D5D298
:10090300C1E3C6F7D7B4CCAC3A2000362ECAD6BB67
:10091300FAC4A3BFE9D7B4CCACB2E2CAD400372E31
:10092300B6CCD0C5B2E2CAD400382EBBF5B5C0D719
:10093300B4CCAC00392EBBF5B5C0BCECB2E200318F
:10094300302E20D1A1BBF5B0B4C5A5BCECB2E200FA
:1009530031312E20D3CECFB7B0B4C5A5BCECB2E2B3
:100963000031322E20CDCBB1D2B0B4C5A5BCECB290
:10097300E20031332E20B6C1BFA8C6F7B2E2CAD413
:100983003A200031342E20BBF5B5C0B2E2CAD4BD43
:10099300E1B9FB00D5FDB3A300B9CAD5CF00CEDEC4
:1009A30000B2BBD7E300CEB400D5FD00B9CA00C87E
:1009B300B100C8B7B6A8454E54455220C8A1CFFBD5
:1009C30043414E43454C00C0DBBCC6B2E2CAD4B47B
:1009D300CECAFD3A20257500BBF5B5C0253032627D
:1009E30075B9CAD5CFB4CECAFD3A257500D5FDD4A5
:1009F300DABCECB2E220253032627520BBF5B5C01B
:100A03000020202020C7EBC9D4B5C82E2E2E0020ED
:100A130020BBF5B5C0B0E53A20B9CAD5CF20202018
:100A2300002020BBF5B5C025303262753A20B9CA23
:100A3300D5CF202020002020BBF5B5C02530326261
:100A4300753A20CEDEBBF5202020002020BBF5B573
:100A5300C02025303262753A2020D5FDB3A3200093
:100A630020202020D3B2B1D2C6F7B2E2CAD400C745
:100A7300EBCDB6B1D23A002020B1D2B6B7D2D1C2B3
:100A8300FA2C20C7EBB4A6C0ED2100D2D1CDB6C855
:100A9300EBBDF0B6EE3A20257500D2D1CDB6C8EB4A
:100AA300BDF0B6EE3A2025752E257500D2D1CDB610
:100AB300C8EBBDF0B6EE3A2025752E253032750011
:100AC3002020D3B2B1D2C6F7CAC7B7F1D5FDB3A3BD
:100AD3003F0020202020D6BDB1D2C6F7B2E2CAD44F
:100AE300002020D6BDB1D2C6F7CAC7B7F1D5FDB332
:100AF300A33F0020202020B0B4C5A5B2E2CAD42170
:100B030000CAE4C8EBB0B4C5A53A00CAE4C8EBB068
:100B1300B4C5A53A202562750020202020D3CECF6E
:100B2300B7B0B4C5A5B2E2CAD42100D3D0BCFCB0DF
:100B3300B4CFC22C20D4F2C3F9BDD0D2BBC9F900C3
:100B430020202020CDCBB1D2B0B4C5A5B2E2CAD407
:100B530021002530326275200020202020C4A3BF4D
:100B6300E9C3BBD3D0BFAAC6F400C4A3BFE9D5FD74
:100B7300C3A6A3ACC9D4BAF3D4D9CAD400C4A3BFFF
:100B8300E9B2E2CAD4CAA7B0DC00C4A3BFE9D5FD69
:100B9300B3A300564D4D53472562782562782562ED
:100BA3007825627825627800B2E2CAD4B6CCD0C583
:100BB300B7A2CBCDB3C9B9A600B2E2CAD4B6CCD0E2
:100BC300C5B7A2CBCDCAA7B0DC00B9CAD5CFB4FA9A
:100BD300C2EB203D20257500D5FDD4DAB3F5CABCA0
:100BE300BBAFA3ACC9D4BAF3D4D9CAD4008008BD6F
:100BF3000E8008CC0E8008DB108008EC108008FD06
:100C03001080090E128009210A80092C0A800937F5
:100C13000A80094210800953108009641080097505
:100C230010800986108009970480099C048009A11B
:100C3300028009A4048009A9028009AC028009AFDB
:100C4300028009B202E52824A3F582E4342FF58358
:100C5300E0052822902FA0302203902FA3E475F003
:100C630001A5128008A5A54822201BE77F2ED21BD1
:100C73008018EF540F2490D43440D4FF301F0BEF6F
:100C830024BFB41A0050032461FFE529600215292B
:100C9300052CE52C7002052B302210902FA0E47553
:100CA300F001A5128008A5EFA55822A512800028FF
:100CB300227403D2228003E4C222F528902FA0A538
:100CC300128007AFE4F529F52BF52CE52960097FA0
:100CD30020A512800C8D80F3752AFFC21CC21BC293
:100CE3001DC21EC220C221C223120C57FF700E3038
:100CF30022057F00120C9EAF2CAE2BA522B4255FDC
:100D0300C2D5C21F120C57FF24D0B40A00501A7563
:100D1300F00A782930D50508B6FF0106C6A426F6E1
:100D230020D5047002D21E80D924CFB41A00EF500C
:100D330004C2E5D21F020EB5D21C80C6D21B80C0EE
:100D4300D21D80BCD2D580BAD22080B47F20120CB1
:100D53008D201D077401B5290040F1120C48FF12C4
:100D63000C8D020CCED223D2218095120C48FB129B
:100D73000C48FA120C48F94A4B700679887A0F7BB3
:100D830080201D3AE52960367E00E9C0E02EF9EAAD
:100D9300C0E03400FAA548F9D0E0FAD0E0C9600613
:100DA3000EEE652A70E4C2D5EBC0E0EAC0E0E9C00C
:100DB300E0EE120EFED0E0F9D0E0FAD0E0FBA54859
:100DC300FF609FEBC0E0EAC0E0E9C0E0120C8DD009
:100DD300E02401F9D0E03400FAD0E0FBE52A046016
:100DE300DDD52ADA020D657B807A0E79FAD21D8071
:100DF30090791080027908C221C2238008D2D57964
:100E03000A8004790AC2D5E52A047002F52AE4FAB5
:100E1300FDFEFF120C48FC7B08201C13120C48FD3E
:100E23007B10301B0A120C48FE120C48FF7B20EC8F
:100E33003382D592D55013C3E4301B069FFFE49E43
:100E4300FEE4201C039DFDE49CFCE4CBF8C21CECF7
:100E5300700CCFCECDCCE824F8F870F38017C3EF35
:100E630033FFEE33FEED33FDEC33FCEB33FB994004
:100E730002FB0FD8E9EB301C05F8D0E0C448B21CE4
:100E8300C0E00AEC4D4E4F78207B0070C2EAB52AD1
:100E93000040BCC0E0120F00D0F0D0E0201C04C41E
:100EA300C0E0C4B21CC0F0120C76D0F0D5F0EB0257
:100EB3000CCEA5128007C60D6E530DF4580D3F4C92
:100EC3000D3B420DF84F0E00440E00490D54430EE6
:100ED30006550DEA460DEA450DEA470FA3500D43AB
:100EE3002D0D472E0D6A2B0D4B230D68200F912AD4
:100EF3000D034800000D623F3F3F00790AA2D52051
:100F03001E14302009B910020404B9080104A2D543
:100F1300202102500104201D68921DB52900503480
:100F2300C0E07F20301E197F30A21D722172205035
:100F33000F120F57C21DC221C220C2237F30800F60
:100F4300302003E9C0E0120C8D302003D0E0F9D04B
:100F5300E0B529CC3020177F30B9100C120C8D7FEF
:100F630058301F077F788003B90803120C8D301D9A
:100F7300057F2D020C8D7F202023F87F2B2021F36A
:100F830022921D80CF286E756C6C2900D21C120C26
:100F930048301CF8C21C782930D50108F6020D032D
:100FA300120C48C0E0C4120C76D0E0120C76743AEE
:100FB300120C7ED21E752904020DF44101850042F4
:100FC300154C00004102070141154E004207B400D1
:100FD3000041000200C128C129C1A5C12AC1A7C17E
:100FE300264100000041000100413A4A00413A3FD6
:100FF30000413A4000413A4100C12D413A49014183
:101003003A4800412CB800413A1B00413A1C0041C8
:101013003A1D00C108413A1F00413A2000413A21DC
:1010230000413A2200413A2300413A2400C10BC156
:101033000CC10DC10EC10FC110C111C112C113C129
:1010430014C115C116413A2500014D104639A808AF
:1010530000010096004139EE00C131014F004120EB
:10106300E500411A03004119FF00411CD001411A58
:101073000101C12BC12C411A0500411A060141206F
:10108300D1004120E200411879004119FA006200C1
:10109300332B00008005800F000A801B001E001404
:1010A300801180330036003C80390028802D802752
:1010B300002280630066006C80690078807D807701
:1010C300007200508055805F005A804B004E0044F0
:1010D300804180C300C600CC80C900D880DD80D7A2
:1010E30000D200F080F580FF00FA80EB00EE00E410
:1010F30080E100A080A580AF00AA80BB00BE00B441
:1011030080B180930096009C80990088808D8087B1
:10111300008281830186018C81890198819D819759
:10112300019201B081B581BF01BA81AB01AE01A4C7
:1011330081A101E081E581EF01EA81FB01FE01F478
:1011430081F181D301D601DC81D901C881CD81C769
:1011530001C201408145814F014A815B015E015417
:10116300815181730176017C81790168816D816789
:10117300016281230126012C81290138813D8137B8
:10118300013201108115811F011A810B010E010427
:10119300810183030306030C83090318831D83174B
:1011A300031203308335833F033A832B032E032437
:1011B300832103608365836F036A837B037E0374E8
:1011C300837183530356035C83590348834D8347D9
:1011D300034203C083C583CF03CA83DB03DE03D487
:1011E30083D183F303F603FC83F903E883ED83E7F9
:1011F30003E283A303A603AC83A903B883BD83B728
:1012030003B203908395839F039A838B038E038496
:10121300838102808285828F028A829B029E02944E
:10122300829182B302B602BC82B902A882AD82A7C0
:1012330002A282E302E602EC82E902F882FD82F76F
:1012430002F202D082D582DF02DA82CB02CE02C45E
:1012530082C182430246024C82490258825D825710
:10126300025202708275827F027A826B026E02647E
:10127300826102208225822F022A823B023E0234AF
:10128300823182130216021C82190208820D820720
:10129300020200312E2331D5D2C1E3C6F7C3E6D60D
:1012A300B53A00322E2332D5D2C1E3C6F7C3E6D610
:1012B300B53A00332E2333D5D2C1E3C6F7C3E6D6FE
:1012C300B53A00342ED4CAD0EDB6E0B4CEB9BAC222
:1012D300F23A00352EB2BBC2F2BBF5CDCBB1D23A56
:1012E30000362EBFAAC6F4D6BDB1D2C6F73A003730
:1012F3002EBFAAC6F4CAD6BBFAC4A3BFE93A0038C4
:101303002ED3E0B6EECFC2CFDE3A00392ECAD5B126
:10131300D2C9CFCFDE3A0031302E20D2C9CECABDDA
:10132300F0B6EE3A0031312E20BBFAC6F7B1E0BA7F
:10133300C53A200031322E47534DBAC5C2EB3A00AD
:1013430031332E20C7B7CCF53A0031342E20D0A14B
:10135300CAFDB5E33A0031352E202331D6BDB1D2D3
:101363003A0031362E202332D6BDB1D23A0031377E
:101373002E202333D6BDB1D23A0031382E20233468
:10138300D6BDB1D23A0031392E202335D6BDB1D2E4
:101393003A0032302E202336D6BDB1D23A00323154
:1013A3002E202337D6BDB1D23A0032322E20233835
:1013B300D6BDB1D23A0032332E202331D3B2B1D2CB
:1013C3003A0032342E202332D3B2B1D23A0032352E
:1013D3002E202333D3B2B1D23A0032362E20233417
:1013E300D3B2B1D23A0032372E202335D3B2B1D2A1
:1013F3003A0032382E202336D3B2B1D23A003239F2
:101403002E20BFAAC6F4B3F6BBF5C8B7C8CF3A00BF
:1014130033302E20BDBBD2D7CAB1BCE43A0033313E
:101423002E20B2BBD5D2C1E3C4A3CABD3A00333226
:101433002E20BFAAC6F4D3B2B1D2C6F73A003333D3
:101443002E20BFAAC6F4B9ABBDBBBFA83A00333444
:101453002E20B6C1BFA8CAB1BCE43A0033352E2052
:10146300D4DDB4E6D6BDB1D2C4A3CABD3A00257556
:101473000025752E25750025752E2530327500251E
:10148300627500253262780025303262780080125E
:10149300960F8012A60F8012B60F8012C60F80120D
:1014A300D60D8012E40D8012F20F8013020B80130D
:1014B3000E0B80131A0D8013280D8013370B801326
:1014C300430980134D0B8013590B8013650B801355
:1014D300710B80137D0B8013890B8013950B801385
:1014E300A10B8013AD0B8013B90B8013C50B8013B5
:1014F300D10B8013DD0B8013E90B8013F50B8014E4
:1015030001118014130D8014210F8014310F8014E6
:10151300410F8014510D80145F1100050005000573
:1015230000010001000100010005000500050005A0
:10153300001000010001000500050005000500057D
:101543000005000500050005000500050005000570
:101553000005000100050001000100010002000177
:10156300312EBBF5B1D2CAD5D6A700322EC9CCC60F
:10157300B700332EC7E5BFD5BCC7C2BC00312EBBF5
:10158300F5B1D2D7DCCAD5C8EB3A00322ED6BDB1FD
:10159300D2CAD5C8EB3A00332ED3B2B1D2CAD5C81A
:1015A300EB3A00342EBDBBD2D7D7DCBDF0B6EE3A52
:1015B30000352ED5D2C1E3D7DCBDF0B6EE3A003606
:1015C3002E2331B3F6B1D2D7DCBDF0B6EE3A0037F5
:1015D3002E2332B3F6B1D2D7DCBDF0B6EE3A0038E3
:1015E3002E2333B3F6B1D2D7DCBDF0B6EE3A0039D1
:1015F3002E2331B3F6B1D2C3B6CAFD3A0031302E31
:10160300202332B3F6B1D2C3B6CAFD3A0031312E2C
:10161300202333B3F6B1D2C3B6CAFD3A0031322E1A
:1016230020BFA8BDBBD2D7D0F2BAC53A00312EB382
:10163300C9B9A6BDBBD2D7B4CECAFD3A00322ED2A9
:10164300C9CECABDBBD2D7B4CECAFD3A00332EB57C
:10165300A5BBF5B5C0BDBBD2D7CDB3BCC600312E3B
:10166300BBF5B5C0B1E0BAC53A00322EB3C9B9A6CD
:10167300BDBBD2D7CDB3BCC63A00332ED2C9CECA76
:10168300BDBBD2D7B4CECAFD3A002020C4E3C8B74D
:10169300B6A8C2F03F00C8B7B6A8454E544552207D
:1016A300C8A1CFFB43414E43454C002020C3BBD3CD
:1016B300D0BDBBD2D7BCC7C2BC002575002562759F
:1016C30000B1E0BAC5CAE4C8EBB4EDCEF300C7EB92
:1016D300CAE4C8EBC6E4CBFCB1E0BAC500256C751F
:1016E30000256C752E256C7500256C752E25303202
:1016F3006C75008015630A80156E068015750A8067
:1017030015800D80158E0B80159A0B8015A60D8004
:1017130015B40D8015C20F8015D20F8015E20F800E
:1017230015F20D8016000F8016100F8016200F8003
:1017330016300F8016400F801650108016610B80F4
:10174300166D0F80167D0F80168D0B8016991480F1
:1017530016AE0ECFB5CDB3D5FDD4DAC6F4B6AF2CE5
:1017630020C7EBC9D4B5C80020202020C4E3C8B7E4
:10177300B6A8B8FCB8C4C2F03F00C8B7B6A8454E77
:1017830054455220C8A1CFFB43414E43454C00D59D
:10179300FDD4DAB8FCB8C4C9CCC6B7D3E0C1BF2EF8
:1017A3002E2E00C9CCC6B7D3E0C1BFB8FCB8C4CA9B
:1017B300A7B0DC2100C9CCC6B7D3E0C1BFB8FCB821
:1017C300C4B3C9B9A62100D5FDD4DAB8FCB8C4C9DD
:1017D300CCC6B7BCDBB8F12E2E2E00C9CCC6B7BC25
:1017E300DBB8F1B8FCB8C4CAA7B0DC2100C9CCC6C9
:1017F300B7BCDBB8F1B8FCB8C4B3C9B9A6210020A3
:10180300202020C4E3C8B7B6A8CCEDC2FAC2F03F8B
:1018130000D5FDD4DACCEDC2FA2E2E2E00CCEDC2CB
:10182300FAB2D9D7F7CAA7B0DC2100CCEDC2FAB21D
:10183300D9D7F7B3C9B9A6210020202020C4E3C813
:10184300B7B6A8BDE1D5CAC2F03F00D5FDD4DACC06
:10185300EDBCD3BDE1D5CAB5E32E2E2E00CCEDBC35
:10186300D3BDE1D5CAB5E3CAA7B0DC2100CCEDBC3A
:10187300D3BDE1D5CAB5E3B3C9B9A6210020202061
:1018830020C4E3C8B7B6A8CDACB2BDC2F03F00D503
:10189300FDD4DACDACB2BD2C20C7EBC9D4B5C82E6C
:1018A3002E2E00CDACB2BDB2D9D7F7B3C9B9A6219C
:1018B300002020C4E3C8B7B6A8C7E5B5E3C2F03F2C
:1018C30000D5FDD4DAC7E5B5E32C20C7EBC9D4B501
:1018D300C82E2E2E00C7E5B5E3CDEAB1CFA3ACC722
:1018E300EBBACBB6D42100C7E5B5E3BDF0B6EE3A0B
:1018F30020257500C7E5B5E3BDF0B6EE3A202575A2
:101903002E257500C7E5B5E3BDF0B6EE3A20257583
:101913002E2530327500312EB2E3BCDCB1E0BAC5FE
:101923003A00322ECAC7B7F1C6F4D3C33A00332EF6
:10193300D7EEB4F3B4E6BBF5C1BF3A00342EB5DA43
:10194300D2BBBBF5B5C03A00352EB5DAB6FEBBF552
:10195300B5C03A00362EB5DAC8FDBBF5B5C03A00BE
:10196300372EB5DACBC4BBF5B5C03A00382EB5DA9D
:10197300CEE5BBF5B5C03A00392EB5DAC1F9BBF5F2
:10198300B5C03A0031302E20B5DAC6DFBBF5B5C09D
:101993003A0031312E20B5DAB0CBBBF5B5C03A00F1
:1019A300C7EBCAE4C8EBC3DCC2EB3A00C3DCC2EB4F
:1019B300B4EDCEF321002562750020202000200025
:1019C3002020202000CAE4C8EBB2E3BCDCB1E0BABB
:1019D300C53A00B1E0BAC5CAE4C8EBB4EDCEF30032
:1019E300C7EBCAE4C8EBC6E4CBFCB1E0BAC50080E0
:1019F30019190B8019250B8019310D80193F0B80A4
:101A0300194B0B8019570B8019630B80196F0B80CF
:101A1300197B0B8019870D8019950D8019A30B80F5
:101A230019AF0900010001000200010001000100DB
:101A3300010001000100010001312EBBF5B5C0B268
:101A4300CECAFD00322EBCD3C2FAC8ABB2BFBBF5BF
:101A5300B5C000332ECCEDBCD3BDE1D5CAB5E30090
:101A6300342EC8ABCFB5CDB3CDACB2BD00352E351A
:101A730020BDC7D3B2B1D2C7E5B5E300362E3120BE
:101A8300D4AAD3B2B1D2C7E5B5E300372EC9E8B1C2
:101A9300B8B9DCC0ED00382ECFB5CDB3B2CECAFD98
:101AA30000392EBDBBD2D7BCC7C2BC0031302E20FB
:101AB300BBF5BCDCC5E4D6C30031312E20B3F6B38D
:101AC300A7C4ACC8CFC5E4D6C3002020C8B7B6A806
:101AD300B3F6B3A7C5E4D6C3C2F03F00C8B7B6A8F0
:101AE300454E54455220C8A1CFFB43414E43454C7C
:101AF3000030002020D5FDD4DAB1A3B4E6002000E5
:101B0300B1A3B4E6CAA7B0DCA3ACD6D8D0C2C9E8A7
:101B1300D6C33F002020454E544552202020434148
:101B23004E43454C00801A3C0A801A470E801A56D1
:101B33000C801A630C801A700E801A7F0E801A8E26
:101B43000A801A990A801AA40A801AAF0C801ABC58
:101B530010A575FF07758E0378FEE4F6D8FD758131
:101B63008FA575FB00759008A502801B9BA50280BD
:101B73009F5AE493A3F85407240CC8C333C4540FE7
:101B83004420C8834004F456800146F6DFE4800B0A
:101B93000102040810204080900FBEE47E01936090
:101BA300CCA3FF543F30E509541FFEE493A3600127
:101BB3000ECF54E0B4E01CE493FBA3E493FAA3E454
:101BC30093F9A3E493A558A309E970010ADFF4DEAE
:101BD300F280C854C025E060254097E493A3FAE45B
:101BE30093A3F8E493A3C8C582C8CAC583CAF0A364
:101BF300C8C582C8CAC583CADFE9DEE7809DE4930E
:101C0300A3F8E493A34003F68001F208DFF4808B8A
:101C1300312EBBF5B5C0B1E0BAC53A2000322EC9AA
:101C2300CCC6B7D3E0C1BF3A2000332EB5A5BCDB89
:101C33003A2000342EBBF5B5C0D7B4CCAC3A200063
:101C4300352EC9CCC6B7B1E0BAC53A20002530322B
:101C5300627500253362750025750025752E25757F
:101C63000025752E253032750025627500253262F8
:101C73007500801C130C801C200C801C2D08801CFC
:101C8300360C801C430C2000202020202020202004
:101C930020202020202020202020202000C7EBCA45
:101CA300E4C8EBB1E0BAC53A2000B1E0BAC5CAE472
:101CB300C8EBB4EDCEF300C7EBCAE4C8EBC6E4CB84
:101CC300FCB1E0BAC50020202020202020202020C5
:101CD3002020202020202020202000C2D5E830E72B
:101CE3000FB2D5E4C39BFBE49AFAE499F9E498F8BC
:101CF300EC30E71BB2D5A512801D1AA5128006721F
:101D0300E4C39BFBE49AFAE499F9E498F88005A507
:101D13001280067230D50DE4C39FFFE49EFEE49D5E
:101D2300FDE49CFCA5224742323331320057494E31
:101D330031323532000D5196105264050505050503
:101D430005050504040404080807FF010101010156
:101D530001010102020202030306FF5050505050DA
:101D63005050501B1B1B1B0D0D18FF0909090909B6
:101D73000909092E2E2E2E000048FF000000010045
:101D830000000A00000064000003E80000271000C0
:101D93000186A0000F42400098968005F5E10007F8
:101DA3000201009600000100020005000A00140071
:101DB300320064000000000101010000000800017E
:101DC300009600080001009600080001009600A597
:101DD3001281601890154CE0FEA3E0FF902CE6EE14
:101DE300F0A3EFF0E4A3F0A3F0A3F0900797E0B41F
:101DF3000113900795E0FEA3E0FF902CE6EE8FF031
:101E0300A5128005A9D3902CE7E09400902CE6E07E
:101E1300940050057F000220B190154E742CF07E83
:101E2300007F147D007B007A0779A0A512800886C5
:101E330090154EE0FF25E025E024F5F582E4340318
:101E4300F583E493902CE8F0FD7C00C004C005EF1B
:101E530025E025E024F2F582E43403F583A512801E
:101E630007B978A07C077D00D007D006A5128004AF
:101E7300D6902CE8E0FF24A0F582E43407F58374C0
:101E830020F090056BE0FCA3E0FDEC6003021F9DD6
:101E9300ED24F6603D24A67003021F312463600322
:101EA300021F9D74A12FF9E43407FA7B00C003C01D
:101EB30002C0017B807A037986902FA3A512800745
:101EC300AF902CE6E0FFA3E0902FA6CFF0A3EF02A4
:101ED3001F8B902CE8E024A1F9E43407FA7B00C0BF
:101EE30003C002C0017B807A037989902FA3A512D6
:101EF3008007AF90056BE0FAA3E0FB902CE6E0FED1
:101F0300A3E0FFAD03AC02A512800515902FA6EE4A
:101F1300F0A3EFF0902CE6E0FEA3E0FFAD03AC02EC
:101F2300A512800515902FA8ECF0A3ED805A902CF4
:101F3300E8E024A1F9E43407FA7B00C003C002C03F
:101F4300017B807A03798F902FA3A5128007AF902E
:101F5300056BE0FAA3E0FB902CE6E0FEA3E0FFAD07
:101F630003AC02A512800515902FA6EEF0A3EFF0A7
:101F7300902CE6E0FEA3E0FFAD03AC02A5128005C2
:101F830015902FA8ECF0A3EDF0D001D002D003A55B
:101F930012800CB4902CE8E02FF0902CE8E004F0D1
:101FA300D21B7B007A0779A0902FA2A5128007AFDE
:101FB300902CE8E0A51280904B90052EE0FEA3E064
:101FC300FFC3902CE7E09F902CE6E09E40509015D5
:101FD3004E7436F0D21BE0FF25E025E024F2F582B3
:101FE300E43403F583A5128007B9902FA2A51280CC
:101FF30007AFEF25E025E024F5F582E43403F5830C
:10200300E493902FA5F07D01E4FFA51280905290F8
:102013000797E064017048A51280BE0C80419015BB
:102023004E7404F0D21BE0FF25E025E024F2F58294
:10203300E43403F583A5128007B9902FA2A512807B
:1020430007AFEF25E025E024F5F582E43403F583BB
:10205300E493902FA5F07D01E4FFA512809052E454
:102063007F64FEFDFC902FD67427F0A37438F0A58F
:1020730012808E2090182CE0B4011A90182EE0FCE8
:10208300A3E0FDE4FFA51281526CE490182CF090BC
:10209300182EF0A3F090182DE0B40110A512815270
:1020A30062E490182DF0901830F0A3F07F00A52281
:1020B300E4902CE1F0FE7F54FD7B007A057923A5A3
:1020C300128008867E037F287D007B007A15795075
:1020D300A5128008867E037FDE7D007B007A11795E
:1020E30060A51280088690177B7401F0A3F07E022E
:1020F3007F277D007B007A057977A512800886907B
:10210300077F7401F07E037F137D007B007A0E79D5
:1021130020A512800886E47F64A512808E17D21B47
:10212300900482A5128007B9902FA2A5128007AF51
:10213300900485A512809049D21B90043AA5128081
:1021430007B9902FA2A5128007AF90043DE49390A6
:102153002FA5F07D01E4FFA512809052E47F64A5D2
:1021630012808E177F00A522E4902CE1F0A3F0A348
:10217300F0A3F0FE7F14FD7B007A0779A0A51280FF
:10218300088690177EE0FF75F037901165A51280E1
:102193000798E0D39400401875F037EF901196A597
:1021A30012800798E0FFF4601990154FEFF080124A
:1021B30090177EE075F037901196A51280079874FA
:1021C300FFF090177EE075F037901196A512800707
:1021D30098E0F47002804190154FE075F00690008E
:1021E30008A512800798E07002802D90154FE0FF3C
:1021F30075F006900005A512800798E0FE540A705A
:102203001775F006EF900006A512800798E0FCA36F
:10221300E04C6004EE20E04190154E740EA5128050
:10222300901C90154E7419F0D21BE0FF25E025E0B9
:1022330024F2F582E43403F583A5128007B9902FC5
:10224300A2A5128007AFEF25E025E024F5F582E48F
:102253003403F583E49302254390154E7427F090DD
:10226300056BE0FEA3E0FFEE60030223C1EF24F65B
:10227300605724A6700302233F246360030223C133
:102283007B807A037997902FA3A5128007AF9015CF
:102293004EE025E025E024F2F582E43403F583A53E
:1022A300128007B9902FA6A5128007AF90154FE0B3
:1022B30075F006900006A512800798E0FFA3E09052
:1022C3002FA9CFF0A3EF0223B07B807A03799D90EF
:1022D3002FA3A5128007AF90154EE025E025E0243B
:1022E300F2F582E43403F583A5128007B9902FA693
:1022F300A5128007AF90154FE075F006900006A574
:1023030012800798E0FAA3E0FB90056BE0FCA3E0E2
:10231300FDAF03AE02A512800515902FA9EEF0A321
:10232300EFF090056BE0FCA3E0FDAF03AE02A51256
:10233300800515902FABECF0A3ED80717B807A03C1
:1023430079A6902FA3A5128007AF90154EE025E044
:1023530025E024F2F582E43403F583A5128007B95E
:10236300902FA6A5128007AF90154FE075F0069049
:102373000006A512800798E0FAA3E0FB90056BE046
:10238300FCA3E0FDAF03AE02A512800515902FA9B3
:10239300EEF0A3EFF090056BE0FCA3E0FDAF03AE1E
:1023A30002A512800515902FABECF0A3EDF07B0096
:1023B3007A0779A0A512800CB4902CE1EFF0A51256
:1023C30080967AC226E4F5149018787406F0900586
:1023D30073E06401600302251090154BE054FB6029
:1023E30003022510D21B7B007A0779A0902FA2A5A8
:1023F300128007AF902CE1E0902FA5F07D01E4FF60
:10240300A512809052902CE3742DA51280901C90FD
:102413000574E0FF7E007C037DE8A512800502E4DD
:10242300FCFDA512808E1A90115EE475F001A512D1
:102433008005A990154FE075F006900006A512805F
:102443000798E0FEA3E0FF90115EE0FCA3E0FDA58A
:1024530012817843902CE4EFF0707690102DE064B5
:10246300A07045A51280B481A51280C7E090154FD6
:10247300E075F006900006A512800798E0FCA3E043
:10248300FD7F02A51281526C90154FE075F0069006
:102493000006A512800798E0FFA3E090154CCFF04B
:1024A300A3EFF07F0102257090102DE064A1700767
:1024B30090154E7430801F90102DE0FF64A5600AC4
:1024C300EF64A66005EF64A7706E90154E743180BB
:1024D3000590154E7431F0D21BE0FF25E025E02472
:1024E300F2F582E43403F583A5128007B9902FA295
:1024F300A5128007AFEF25E025E024F5F582E4344B
:1025030003F583E493902FA5F0E4FD801BD21B7B9E
:10251300007A0779A0902FA2A5128007AF902CE133
:10252300E0902FA5F07D01E4FFA512809052E47F97
:10253300D07E07A512808E18E490154FF0FF802DF2
:10254300902FA5F07D01E4FFA512809052E47FD087
:102553007E07A512808E18A51280967AC226E4F50E
:102563001490154FF09018787406F07F00A522E4BC
:10257300902CE1F09007B4E07002A3E070059002A4
:102583000704F0900207E0640160030226829017BB
:102593006EE064016003022630C390176DE094F48B
:1025A30090176CE094015003022630E4F0A3F090FE
:1025B3000573E06401704790154BE054FB703F9046
:1025C300154E7435A51280901CA512808E1490159B
:1025D3004E742FA512808DD8A512814328EF640174
:1025E3006003022693D21B90154EA512808DDBA5A6
:1025F30012814328EF6401600302269380739015D0
:102603004E7434A51280901CA512808DC2A5128130
:102613004328EF64017079D21B90154EA512808D6B
:10262300DBA512814328EF64017065804490176E27
:10263300E06401705BC390176DE094FA90176CE04F
:102643009400404C90154E7434A51280901CA51232
:10265300808DC2A512814328EF64017033D21B9091
:10266300154EA512808DDBA512814328EF640170FE
:102673001F9007B4E04402F0A3E0F07F01802A90AA
:10268300154E7410A51280901C7F02A5128097919D
:10269300901878E004F0A51280B7C7BF01047F0249
:1026A3008007A512808E147F01A522E4902CE1F00F
:1026B300A3F0A3F0A3F0902CE1F0A3F090077FE048
:1026C30064016016D390154DE0940090154CE0948E
:1026D3000040077F01A512809E8F302807A5128036
:1026E30097C6C228202603022774D21AE4902F1F0C
:1026F300F0D21B7D01FFA5128095FFC226E4F514DD
:1027030090154FF0806B902CE3E07002A3E06070B3
:10271300902CE3E0FEA3E0FF90154CEE8FF0A512A2
:102723008005A9901134A512800737E4FCFDA5129A
:102733008005D7901134A51280078B90113CA51208
:10274300800737902CE3E0FEA3E0FFE4FCFDA51235
:102753008005D790113CA51280078B90182C74012B
:10276300F0902CE3A51280B9B9E47FC8A512808E3E
:1027730017A51280BB06902CE3EEF0A3EFF0808642
:1027830090052AE06401600302285690077FE06405
:1027930001600302285690078EE0FF20E20302281F
:1027A30056900794E020E00302285690052EE0FCA3
:1027B300A3E0FDC390154DE09D90154CE09C4003B4
:1027C300022856EF54FB90078EF0900794E054FED6
:1027D300F0900791E0FFA3E0902CE1CFF0A3EFF09E
:1027E300902CE1E0FEA3E0FF90154CEE8FF0A512D4
:1027F3008005A9901134A512800737E4FCFDA512CA
:102803008005D7901134A51280078B901138A5123B
:10281300800737902CE1E0FEA3E0FFE4FCFDA51266
:102823008005D7901138A51280078B90182D74015D
:10283300F0902CE1E0FEA3E0FF901830EE8FF0A5BE
:10284300128005A9900570E0FFA3E090175DCFF01B
:10285300A3EFF090052AE0640160030229AA900720
:102863007FE0640170030229AAA51280BAFDEF700C
:10287300030229AAA5128145B1902CE1EEF0A3EF42
:10288300F04E7008A51280A4CF0229A2902CE1E09B
:10289300FEA3E0FF90154DE02FFF90154CE03EFEA8
:1028A300C390052FE09F90052EE09E503490154E67
:1028B3007403A51280901C7F02A512809791E47F78
:1028C300DC7E05A512808E18A51280A4CF90154C2E
:1028D300E0FCA3E0FD4C70028049AF05AE04022A80
:1028E300B9A512814577751D0AE51D600FA51281F3
:1028F30045A8EF7007A51280B9D880EDE51D702CAF
:10290300A51280A4CF902CE1E0FFA3E0900530CF87
:10291300F0A3EFF0A51280CD1490154CE07002A344
:10292300E0707C901878F07F02022AC0902CE1E0DE
:10293300FEA3E0FF90154CEE8FF0A5128005A99041
:102943001134A512800737E4FCFDA5128005D7904A
:102953001134A51280078B901138A5128007379088
:102963002CE1E0FEA3E0FFE4FCFDA5128005D79077
:102973001138A51280078B90182D7401F0902CE16B
:10298300E0FEA3E0FF901830EE8FF0A5128005A9BA
:10299300900570E0FFA3E090175DCFF0A3EFF0E4A4
:1029A3007F14A512808E1790052EE0FEA3E0FFC3CF
:1029B30090154DE09F90154CE09E5003022AB1A55F
:1029C30012808E14751690E5167003022A64A51200
:1029D30080BB06902CE3EEF0A3EFF04E607B902CCF
:1029E300E3E0FEA3E0FF90154CEE8FF0A512800507
:1029F300A9901134A512800737E4FCFDA5128005C8
:102A0300D7901134A51280078B90113CA512800733
:102A130037902CE3E0FEA3E0FFE4FCFDA512800564
:102A2300D790113CA51280078B90182C7401F0905D
:102A33002CE3E0FEA3E0FF90182EEE8FF0A51280AA
:102A430005A9900570E0FFA3E090175DCFF0A3EF19
:102A5300F0751690A51280B9D8A51280B9D80229AD
:102A6300CAA5128085F2A512801DD7A51281601810
:102A730090052AE06401702890077FE064016020DC
:102A8300751D01E51D6019A51280BAFDEF6007A54C
:102A93001280A4CF800AE47F0AA512808E1780E3F8
:102AA300E47FF47E01A512808E187F01800F9015BC
:102AB3004CE0FEA3E0FFA512801DDF7F00A522905E
:102AC300177EE0FF75F037901165A512800798E037
:102AD300D39400402275F037EF901196A51280072A
:102AE30098E0FFF4602390177EE0FE90154FEFF01F
:102AF300900206EEF0801290177EE075F037901189
:102B030096A51280079874FFF090177EE075F03752
:102B1300901196A512800798E0F470028012901528
:102B23004FE075F006900008A512800798E07066E4
:102B330090154E740EA51280901C90154E7419F0CA
:102B4300D21BE0FF25E025E024F2F582E43403F50F
:102B530083A5128007B9902FA2A5128007AFEF2596
:102B6300E025E024F5F582E43403F583E493902F24
:102B7300A5F07D01E4FFA512809052E47FD07E078B
:102B8300A512808E18E490154FF0901771E0440160
:102B9300F07F02022C3290154FE075F0069000058D
:102BA300A512800798E030E01A540A701690154F6A
:102BB300E075F006900006A512800798E0FEA3E0FA
:102BC3004E706A90154E740EA51280901C90154E8F
:102BD3007419F0D21BE0FF25E025E024F2F582E42E
:102BE3003403F583A5128007B9902FA2A51280079D
:102BF300AFEF25E025E024F5F582E43403F583E423
:102C030093902FA5F07D01E4FFA512809052E47FFD
:102C1300D07E07A512808E18E490154FF09017719F
:102C2300E04401F0E490154FF07F0180027F00A59E
:102C330022E4902CE1F0A3F0A3F0A3F0900797E037
:102C4300B40118900795E0FEA3E0FF90154DE02F27
:102C5300FF90154CE03E902CE2800B90154CE0FF6A
:102C6300A3E0902CE2CFF0A3EFF090154FE075F0C6
:102C730006900006A512800798E0FEA3E0FF902CC3
:102C8300E2E0FCA3E0FDD3EF9DEE9C5003022E3E59
:102C930090154E7433A51280901C90154E7427F036
:102CA30090056BE0FEA3E0FFEE6003022E02EF242B
:102CB300F6605724A67003022D8024636003022E5E
:102CC300027B807A037997902FA3A5128007AF9098
:102CD300154EE025E025E024F2F582E43403F58384
:102CE300A5128007B9902FA6A5128007AF90154FA4
:102CF300E075F006900006A512800798E0FFA3E0B8
:102D0300902FA9CFF0A3EF022DF17B807A03799D59
:102D1300902FA3A5128007AF90154EE025E025E084
:102D230024F2F582E43403F583A5128007B9902FCA
:102D3300A6A5128007AF90154FE075F00690000628
:102D4300A512800798E0FAA3E0FB90056BE0FCA3D3
:102D5300E0FDAF03AE02A512800515902FA9EEF09A
:102D6300A3EFF090056BE0FCA3E0FDAF03AE02A57B
:102D730012800515902FABECF0A3ED80717B807A68
:102D83000379A6902FA3A5128007AF90154EE025D7
:102D9300E025E024F2F582E43403F583A5128007ED
:102DA300B9902FA6A5128007AF90154FE075F006D6
:102DB300900006A512800798E0FAA3E0FB90056B4C
:102DC300E0FCA3E0FDAF03AE02A512800515902F32
:102DD300A9EEF0A3EFF090056BE0FCA3E0FDAF03D9
:102DE300AE02A512800515902FABECF0A3EDF07B9E
:102DF300007A0779A0A512800CB4902CE1EFF0D2F1
:102E03001B7B007A0779A0902FA2A5128007AF90B1
:102E13002CE1E0902FA5F07D01E4FFA512809052F4
:102E2300E47FDC7E05A512808E18E490154FF090A8
:102E33001771E04401F07F01022F4A900797E06485
:102E4300016003022F48A51281737C902CE4EFF0FC
:102E53006003022F11900795E0FFA3E0902CE2CFCF
:102E6300F0A3EFF0902CE2E0FEA3E0FF90154CEE10
:102E73008FF0A5128005A9901134A512800737E4BD
:102E8300FCFDA5128005D7901134A51280078B9005
:102E93001138A512800737902CE2E0FEA3E0FFE48F
:102EA300FCFDA5128005D7901138A51280078B90E1
:102EB300182D7401F0902CE2E0FEA3E0FF9018308F
:102EC300EE8FF0A5128005A9E4900797F09007957F
:102ED300F0A3F090182CE0B4011A90182EE0FCA394
:102EE300E0FDE4FFA51281526CE490182CF09018D9
:102EF3002EF0A3F090182DE064017049A5128152C1
:102F030062E490182DF0901830F0A3F08037E4902D
:102F13000797F0900795F0A3F0A512801DD79015A1
:102F23004FE075F006900006A512800798E0FEA317
:102F3300E0FF90154CE0FCA3E0FDD3EF9DEE9C4039
:102F4300047F0180027F00A5227F01902CE4EFF033
:102F5300E4A3F0A3F0A3A5128085F1902CE4E06034
:102F63000302309690154E7414A51280901C7E00B7
:102F73007F147D007B007A0779A0A51280088690D4
:102F8300056BE0FEA3E0FFEE6003023093EF24F64F
:102F9300603D24A6700302302B246360030231EEEC
:102FA3007B807A0379B1902FA3A5128007AF900499
:102FB300A2A5128007B9902FA6A5128007AF90157E
:102FC3004CE0FFA3E0902FA9CFF0A3EF0230827B68
:102FD300807A0379B6902FA3A5128007AF9004A23D
:102FE300A5128007B9902FA6A5128007AF90056B95
:102FF300E0FAA3E0FB90154CE0FEA3E0FFAD03ACC9
:1030030002A512800515902FA9EEF0A3EFF09015FD
:103013004CE0FEA3E0FFAD03AC02A51280051590C2
:103023002FABECF0A3ED80577B807A0379BE902F12
:10303300A3A5128007AF9004A2A5128007B9902F11
:10304300A6A5128007AF90056BE0FAA3E0FB9015ED
:103053004CE0FEA3E0FFAD03AC02A5128005159082
:103063002FA9EEF0A3EFF090154CE0FEA3E0FFAD27
:1030730003AC02A512800515902FABECF0A3EDF085
:103083007B007A0779A0A512800CB4902CE6EFF0B0
:103093000231EE902CE4E06402600302323D9015AD
:1030A3004E7414A51280901C7E007F147D007B005B
:1030B3007A0779A0A51280088690056BE0FEA3E04D
:1030C300FFEE60030231EEEF24F6603A24A67003AC
:1030D300023172246360030231EE7B807A0379C884
:1030E300902FA3A5128007AF9004BAA5128007B949
:1030F300902FA6A5128007AF90102FA51280071955
:10310300902FA90231D97B807A0379CE902FA3A582
:10311300128007AF9004BAA5128007B9902FA6A515
:10312300128007AF90056BE0FEA3E0FFFBAA06E465
:10313300F9F890102FA512800719A5128006729036
:103143002FA9A51280078B90056BE0FEA3E0FFFB80
:10315300AA06E4F9F890102FA512800719A512808A
:103163000672AC00AD01AE02AF03902FAD80677B5A
:10317300807A0379D8902FA3A5128007AF9004BA61
:10318300A5128007B9902FA6A5128007AF90056BF3
:10319300E0FEA3E0FFFBAA06E4F9F890102FA512C6
:1031A300800719A512800672902FA9A51280078B9C
:1031B30090056BE0FEA3E0FFFBAA06E4F9F890108C
:1031C3002FA512800719A512800672AC00AD01AEBF
:1031D30002AF03902FADA51280078B7B007A07798E
:1031E300A0A512800CB4902CE6EFF0D21B7B007AE2
:1031F3000779A0902FA2A5128007AF902CE6E0904C
:103203002FA5F07D01E4FFA512809052E47F64A511
:1032130012808E1790154FE0FF901838F0E4A3F05A
:1032230075F006EF900006A512800798E0FFA3E073
:1032330090183ACFF0A3EFF08029902CE4E06401DA
:10324300702190154E7414A51280901C7F02A51254
:10325300809791E47F64A512808E17901838E090D0
:10326300154FF0E4901837A51280D25C902CE5EF4F
:10327300F0BF0704E40237CD902CE5E0A5128007E8
:10328300C632A000358101358102375D03375D0405
:1032930032A005375D07378908000037DA902CE440
:1032A300E06003B4022190154FE075F0069000062C
:1032B300A512800798E0FEA3E0FFC390154DE09FA1
:1032C300F090154CE09EF0902CE4E0B401229018AD
:1032D3003AE0FEA3E0FF90154CE0FCA3E0FDC39FA2
:1032E300EC9E400CED9FFFEC9E90154CF0A3EFF08D
:1032F30090154E741AA51280901C902CE4E0600384
:10330300023480A51280AEC4EF702790052BE0B481
:103313000116B4011DA3E0FEA3E0FFC390154DE029
:103323009F90154CE09E500A7F02A5128097910250
:1033330034807E007F147D007B007A0779A0A5127C
:1033430080088690056BE0FEA3E0FFEE6003023485
:1033530057EF24F6603D24A670030233EF24636025
:10336300030234577B807A0379B1902FA3A512808F
:1033730007AF9004A2A5128007B9902FA6A51280CB
:1033830007AF90154CE0FFA3E0902FA9CFF0A3EF78
:103393000234467B807A0379B6902FA3A512800767
:1033A300AF9004A2A5128007B9902FA6A51280079B
:1033B300AF90056BE0FAA3E0FB90154CE0FEA3E0B1
:1033C300FFAD03AC02A512800515902FA9EEF0A363
:1033D300EFF090154CE0FEA3E0FFAD03AC02A512A5
:1033E300800515902FABECF0A3ED80577B807A031B
:1033F30079BE902FA3A5128007AF9004A2A51280D7
:1034030007B9902FA6A5128007AF90056BE0FAA32A
:10341300E0FB90154CE0FEA3E0FFAD03AC02A51268
:10342300800515902FA9EEF0A3EFF090154CE0FE68
:10343300A3E0FFAD03AC02A512800515902FABEC02
:10344300F0A3EDF07B007A0779A0A512800CB4906D
:103453002CE6EFF0D21B7B007A0779A0902FA2A570
:10346300128007AF902CE6E0902FA5F07D01E4FFDA
:10347300A512809052E47FC8A512808E1790154F35
:10348300E0FF75F006900008A512800798E014F09D
:1034930075F006EF900008A512800798E07013906E
:1034A300154FE075F006900005A512800798E044DB
:1034B30004F0902CE5E0B4051390154FE075F00689
:1034C300900005A512800798E04402F0A51280CC75
:1034D300D4901140A51280073790154FE075F00680
:1034E300900006A512800798E0FEA3E0FFE4FCFD30
:1034F300A5128005D7901140A51280078B90114427
:10350300E475F001A5128005A990154FE075F00947
:103513009002CBA51280CCED902CE4E0B401059091
:10352300183E800390183DA51281622AE490183753
:10353300F0A3E0FDA3E0FBA3E0FFA3E0902CEBCF1F
:10354300F0A3EFF0E4FFA512816D2E90175BE4F07A
:10355300A37464F090175BE07002A3E0601BA512F4
:1035630080B4A15008E4FDFFA51280B36FA51280BB
:10357300C335902CE7EFF080DB7F000237FBA51209
:1035830080901790154FE075F006900005A5128006
:103593000798E04402F0902CE4E0FF6007640260C7
:1035A30003023718A51280AEC4EF6401600302362C
:1035B300F7FE7F14FD7B007A0779A0A512800886A9
:1035C30090056BE0FEA3E0FFEE60030236D4EF2428
:1035D300F6603D24A6700302366C24636003023652
:1035E300D47B807A0379B1902FA3A5128007AF9083
:1035F30004A2A5128007B9902FA6A5128007AF9049
:10360300154CE0FFA3E0902FA9CFF0A3EF0236C340
:103613007B807A0379B6902FA3A5128007AF90041D
:10362300A2A5128007B9902FA6A5128007AF900517
:103633006BE0FAA3E0FB90154CE0FEA3E0FFAD03C3
:10364300AC02A512800515902FA9EEF0A3EFF09020
:10365300154CE0FEA3E0FFAD03AC02A512800515F7
:10366300902FABECF0A3ED80577B807A0379BE906B
:103673002FA3A5128007AF9004A2A5128007B990CB
:103683002FA6A5128007AF90056BE0FAA3E0FB908D
:10369300154CE0FEA3E0FFAD03AC02A512800515B7
:1036A300902FA9EEF0A3EFF090154CE0FEA3E0FFFE
:1036B300AD03AC02A512800515902FABECF0A3ED82
:1036C300F07B007A0779A0A512800CB4902CE6EF6A
:1036D300F0D21B7B007A0779A0902FA2A512800756
:1036E300AF902CE6E0902FA5F07D01E4FFA51280BA
:1036F300905280077F02A512809791E47FE87E03B2
:10370300A512808E1890154CE0FFA3E090079ECF82
:10371300A512803E85A51280CCC1901146E475F0B8
:1037230001A5128005A990154FE075F0099002CD0F
:10373300A51280CCEDA512809FCC902CE4E0B401BF
:103743000590183E800390183DE0FFA51281622C7E
:10375300A512816D137F020237FBA512809017A576
:103763001280CCC1902CE4E0B4010590183E800394
:1037730090183DE0FFA51281622CA512816D13E420
:103783007FC47E09803BA51280901790154FE0758A
:10379300F006900005A512800798E04404F0A512F6
:1037A30080CCD4902CE4E0B4010590183E800390C3
:1037B300183DA51281622AA512816D13E47FE87E6C
:1037C30003A512808E187F00802EA51280D25C90F4
:1037D3002CE5EFF002327B901838E0FDA3E0FBA369
:1037E300E0FFA3E0902CEBCFF0A3EFF0901837E0CD
:1037F300FFA512816D2E7F00A522E4902CE1F0A39A
:10380300F0A3F0A51280B4A15008E4FDFFA5128037
:10381300B36FA51280C335902CE3EFF090154CE005
:103823007002A3E07004FF023E7F90052BE0640169
:103833006014A51280AEBFBF01077F01A512809758
:10384300917F00023E7F90052CE0FEA3E0FFC39032
:10385300154DE09F90154CE09E5003023D18EF4E2E
:103863007003023D18A51280AEFCEF6401600302F1
:103873003BAED21B900486A5128007B9902FA2A558
:10388300128007AF900489A512809049D21B90043F
:1038930006A5128007B9902FA2A5128007AF900446
:1038A30009E493902FA5F07D01E4FFA512809052C7
:1038B300751E1EE51E7003023A44A512808E14A5E0
:1038C3001280B580902CE1EFF024E5600E240E7099
:1038D300E2A512801DD77F01023E7FA51280AEBFF5
:1038E300EF64016003023A3F7F01A5128097917E46
:1038F300007F147D007B007A0779A0A512800886DB
:1039030090056BE0FEA3E0FFEE6003023A14EF24A0
:10391300F6603D24A670030239AC24636003023AC7
:10392300147B807A0379B1902FA3A5128007AF90FF
:10393300049EA5128007B9902FA6A5128007AF9009
:10394300154CE0FFA3E0902FA9CFF0A3EF023A03B9
:103953007B807A0379B6902FA3A5128007AF9004DA
:103963009EA5128007B9902FA6A5128007AF9005D8
:103973006BE0FAA3E0FB90154CE0FEA3E0FFAD0380
:10398300AC02A512800515902FA9EEF0A3EFF090DD
:10399300154CE0FEA3E0FFAD03AC02A512800515B4
:1039A300902FABECF0A3ED80577B807A0379BE9028
:1039B3002FA3A5128007AF90049EA5128007B9908C
:1039C3002FA6A5128007AF90056BE0FAA3E0FB904A
:1039D300154CE0FEA3E0FFAD03AC02A51280051574
:1039E300902FA9EEF0A3EFF090154CE0FEA3E0FFBB
:1039F300AD03AC02A512800515902FABECF0A3ED3F
:103A0300F07B007A0779A0A512800CB4902CE1EF2B
:103A1300F0D21B7B007A0779A0902FA2A512800712
:103A2300AF902CE1E0902FA5F07D01E4FFA512807B
:103A33009052E47FDC7E05A512808E187F00023E43
:103A43007FA51280AEC4EF64016003023BA9902CF2
:103A5300E1F07F01A5128097917E007F147D007BAA
:103A6300007A0779A0A51280088690056BE0FEA373
:103A7300E0FFEE6003023B7EEF24F6603D24A67078
:103A830003023B1624636003023B7E7B807A037947
:103A9300B1902FA3A5128007AF90049EA5128007B3
:103AA300B9902FA6A5128007AF90154CE0FFA3E0B5
:103AB300902FA9CFF0A3EF023B6D7B807A0379B6F9
:103AC300902FA3A5128007AF90049EA5128007B97B
:103AD300902FA6A5128007AF90056BE0FAA3E0FB39
:103AE30090154CE0FEA3E0FFAD03AC02A5128005E8
:103AF30015902FA9EEF0A3EFF090154CE0FEA3E094
:103B0300FFAD03AC02A512800515902FABECF0A31B
:103B1300ED80577B807A0379BE902FA3A51280078F
:103B2300AF90049EA5128007B9902FA6A512800717
:103B3300AF90056BE0FAA3E0FB90154CE0FEA3E029
:103B4300FFAD03AC02A512800515902FA9EEF0A3DB
:103B5300EFF090154CE0FEA3E0FFAD03AC02A5121D
:103B6300800515902FABECF0A3EDF07B007A07797D
:103B7300A0A512800CB4902CE1EFF0D21B7B007A4D
:103B83000779A0902FA2A5128007AF902CE1E090B7
:103B93002FA5F07D01E4FFA512809052E47FDC7E27
:103BA30005A512808E187F00023E7FA51280AEC449
:103BB300EF64016003023D13902CE1F07F01A51235
:103BC3008097917E007F147D007B007A0779A0A502
:103BD3001280088690056BE0FEA3E0FFEE6003020F
:103BE3003CE8EF24F6603D24A67003023C80246386
:103BF3006003023CE87B807A0379B1902FA3A5127E
:103C03008007AF90049EA5128007B9902FA6A51236
:103C13008007AF90154CE0FFA3E0902FA9CFF0A34E
:103C2300EF023CD77B807A0379B6902FA3A512804D
:103C330007AF90049EA5128007B9902FA6A5128006
:103C430007AF90056BE0FAA3E0FB90154CE0FEA3F1
:103C5300E0FFAD03AC02A512800515902FA9EEF08D
:103C6300A3EFF090154CE0FEA3E0FFAD03AC02A57B
:103C730012800515902FABECF0A3ED80577B807A73
:103C83000379BE902FA3A5128007AF90049EA512BF
:103C93008007B9902FA6A5128007AF90056BE0FAB5
:103CA300A3E0FB90154CE0FEA3E0FFAD03AC02A53F
:103CB30012800515902FA9EEF0A3EFF090154CE0BC
:103CC300FEA3E0FFAD03AC02A512800515902FAB58
:103CD300ECF0A3EDF07B007A0779A0A512800CB479
:103CE300902CE1EFF0D21B7B007A0779A0902FA2F2
:103CF300A5128007AF902CE1E0902FA5F07D01E4A1
:103D0300FFA512809052E47FDC7E05A512808E18F9
:103D13007F00023E7FA51280AEC4EF640160030200
:103D23003E7D902CE1F07F01A5128097917E007F6C
:103D3300147D007B007A0779A0A512800886900580
:103D43006BE0FEA3E0FFEE6003023E52EF24F66059
:103D53003D24A67003023DEA24636003023E527BC6
:103D6300807A0379B1902FA3A5128007AF90049EA8
:103D7300A5128007B9902FA6A5128007AF90154C06
:103D8300E0FFA3E0902FA9CFF0A3EF023E417B8099
:103D93007A0379B6902FA3A5128007AF90049EA54E
:103DA300128007B9902FA6A5128007AF90056BE08C
:103DB300FAA3E0FB90154CE0FEA3E0FFAD03AC02D9
:103DC300A512800515902FA9EEF0A3EFF090154CE6
:103DD300E0FEA3E0FFAD03AC02A512800515902F12
:103DE300ABECF0A3ED80577B807A0379BE902FA3D1
:103DF300A5128007AF90049EA5128007B9902FA645
:103E0300A5128007AF90056BE0FAA3E0FB90154C79
:103E1300E0FEA3E0FFAD03AC02A512800515902FD1
:103E2300A9EEF0A3EFF090154CE0FEA3E0FFAD0385
:103E3300AC02A512800515902FABECF0A3EDF07B3F
:103E4300007A0779A0A512800CB4902CE1EFF0D290
:103E53001B7B007A0779A0902FA2A5128007AF9051
:103E63002CE1E0902FA5F07D01E4FFA51280905294
:103E7300E47FD07E07A512808E187F00A5229007CD
:103E83009EEEF0A3EFF0E490154CF0A3F0E4902C39
:103E9300E8F0A3F0A3F0A3F0A3F0A3F0A3F0A3042E
:103EA300F0A3F0A3F0E4A3F0A3F0A51280AEC4EF57
:103EB3006401600DA51280AEFCBF01057F000248BE
:103EC300A390154E741BA51280901CA512808E140E
:103ED3007E007F147D007B007A0779A0A5128008FD
:103EE3008690056BE0FEA3E0FFEE6003023FF5EF73
:103EF30024F6603D24A67003023F8D246360030211
:103F03003FF57B807A0379B1902FA3A5128007AF89
:103F130090049EA5128007B9902FA6A5128007AF23
:103F230090079EE0FFA3E0902FA9CFF0A3EF023FFD
:103F3300E47B807A0379B6902FA3A5128007AF9014
:103F4300049EA5128007B9902FA6A5128007AF90F3
:103F5300056BE0FAA3E0FB90079EE0FEA3E0FFAD54
:103F630003AC02A512800515902FA9EEF0A3EFF084
:103F730090079EE0FEA3E0FFAD03AC02A51280050F
:103F830015902FABECF0A3ED80577B807A0379BEBD
:103F9300902FA3A5128007AF90049EA5128007B9A6
:103FA300902FA6A5128007AF90056BE0FAA3E0FB64
:103FB30090079EE0FEA3E0FFAD03AC02A5128005CF
:103FC30015902FA9EEF0A3EFF090079EE0FEA3E07B
:103FD300FFAD03AC02A512800515902FABECF0A347
:103FE300EDF07B007A0779A0A512800CB4902CEE3B
:103FF300EFF0D21B7B007A0779A0902FA2A5128045
:1040030007AF902CEEE0A512808E07901770740115
:10401300F0E4901826F0A3F0A3F0A3F0A51280B467
:10402300A15008E4FDFFA51280B36FA51280C3352C
:10403300902CF3EFF0E4902CE8F0A3F0A3F09007BA
:104043009EE0FEA3E0FF4E7007902CF2F00246A123
:104053007B007A2C79E9902CF9A5128007AF7A2C92
:1040630009902CFCA5128007AF7A2C79E8A5128061
:10407300A80E902CEBEFF07003024112E4F0902CA9
:10408300EBE0FFC39403501DEF25E025E02414F576
:1040930082E4340EF583E0FEA3E04E6008902CEB3F
:1040A300E004F080D9902CEBE0FF7019902CF2041F
:1040B300F090079EE0FDA3E0900532CDF0A3EDF074
:1040C300D22A0246A1EF25E025E02410F582E4344C
:1040D3000EF583E0FEA3E0FF90079EE0FCA3E0FD66
:1040E300C39FEC9E4012902CF27401F0900532ECC9
:1040F300F0A3EDF0D22A800DE4900532F0A3F0C2D4
:104103002A902CF2F0E490079EF0A3F00246A1E47B
:10411300902CECF0A3F0902CE8E0FF70030241D860
:104123007E007A277B4D7D01A512808F46EF707448
:10413300A512808172E4902CEBF0902CEBE0C394F9
:104143000250567C277D4D7F01A5128089C8EF64FC
:1041530001603F902750E0FD54506007902CEFE042
:104163004404F0ED30E507902CEFE04402F0902793
:1041730050E030E307902CEFE04408F07F01A512F4
:10418300814207902CECEEF0A3EFF0E4902CEBF0DF
:104193008007A51280816C80A1902CEBE0C3940270
:1041A30040098000902CEFE04404F0900524E0FCEB
:1041B300A3E0FD902CECE0FEA3E0FFA51280050236
:1041C300C390079FE09FF090079EE09EF090182613
:1041D300EEF0A3EFF0902CECE0FEA3E0FF9011587B
:1041E300EE8FF0A5128005A990114CA51280073718
:1041F300C000900524E0FCA3E0FD902CECE0FEA3BE
:10420300E0FFA512800502E4FCFDD000A5128005A5
:10421300D790114CA51280078B901148A5128007E7
:1042230037C000900524E0FCA3E0FD902CECE0FEF9
:10423300A3E0FFA512800502E4FCFDD000A51280D7
:1042430005D7901148A51280078B902CEFE06401ED
:1042530070030242EFE4902CEEF0902CEEE0FFC3EB
:104263009403506CEF25E025E02416F582E4340E28
:10427300F583E064017051902CEFE0FF30E207908A
:10428300154074018017EF30E307901540740480E4
:104293000C902CEFE030E11A9015407402F0902C52
:1042A300EEE025E025E02417F582E4340EF583746F
:1042B30002F0A51280AEA1902CEEE0B50712901586
:1042C30040E0600CC2258008902CEEE004F0808A68
:1042D300902CEF7401F0902CE8E0FFC3902CEDE0FC
:1042E3009F902CECE09400500302401FE4902CECD0
:1042F300F0A3F0902CE9E0FF70030243B57E007A4F
:10430300277B627D02A512808F46EF7074A5128011
:104313008172E4902CEBF0902CEBE0C394025056A6
:104323007C277D627F02A5128089C8EF6401603F0C
:10433300902765E0FD54506007902CF0E04404F0B2
:10434300ED30E507902CF0E04402F0902765E03073
:10435300E307902CF0E04408F07F02A512814207A6
:10436300902CECEEF0A3EFF0E4902CEBF08007A59B
:104373001280816C80A1902CEBE0C39402400980F1
:1043830000902CF0E04404F0900526E0FCA3E0FD4F
:10439300902CECE0FEA3E0FFA512800502C390077A
:1043A3009FE09FF090079EE09EF0901828EEF0A308
:1043B300EFF0902CECE0FEA3E0FF90115AEE8FF0AB
:1043C300A5128005A9901150A512800737C000904F
:1043D3000526E0FCA3E0FD902CECE0FEA3E0FFA5A6
:1043E30012800502E4FCFDD000A5128005D79011D0
:1043F30050A51280078B901148A512800737C00083
:10440300900526E0FCA3E0FD902CECE0FEA3E0FF8A
:10441300A512800502E4FCFDD000A5128005D7900B
:104423001148A51280078B902CF0E0640170030201
:1044330044CCE4902CEEF0902CEEE0FFC3940350B8
:104443006CEF25E025E02416F582E4340EF583E0D5
:1044530064027051902CF0E0FF30E2079015417434
:10446300018017EF30E3079015417404800C902C02
:10447300F0E030E11A9015417402F0902CEEE02543
:10448300E025E02417F582E4340EF5837402F0A5E9
:104493001280AEA1902CEEE0B50712901541E060BA
:1044A3000CC2258008902CEEE004F0808A902CF05A
:1044B3007401F0902CE9E0FFC3902CEDE09F902C69
:1044C300ECE09400500302401FE4902CECF0A3F0C6
:1044D300902CEAE0FF700302458C7E007A277B77FD
:1044E3007D03A512808F46EF706EA512808172E462
:1044F300902CEBF0902CEBE0C394025050A512806B
:1045030089C2EF6401603F90277AE0FD5450600751
:10451300902CF1E04404F0ED30E507902CF1E044F9
:1045230002F090277AE030E307902CF1E04408F0A2
:104533007F03A512814207902CECEEF0A3EFF0E489
:10454300902CEBF08007A51280816C80A7902CEB58
:10455300E0C3940240098000902CF1E04404F09001
:104563000528E0FCA3E0FD902CECE0FEA3E0FFA512
:1045730012800502C390079FE09FF090079EE09E84
:10458300F090182AEEF0A3EFF0902CECE0FEA3E0FD
:10459300FF90115CEE8FF0A5128005A9901154A530
:1045A30012800737C000900528E0FCA3E0FD902CA3
:1045B300ECE0FEA3E0FFA512800502E4FCFDD000C1
:1045C300A5128005D7901154A51280078B9011482E
:1045D300A512800737C000900528E0FCA3E0FD90FA
:1045E3002CECE0FEA3E0FFA512800502E4FCFDD065
:1045F30000A5128005D7901148A51280078B902C37
:10460300F1E06401700302401FE4902CEEF0902C63
:10461300EEE0FFC39403506CEF25E025E02416F58C
:1046230082E4340EF583E064037051902CF1E0FFD3
:1046330030E20790154274018017EF30E3079015BD
:10464300427404800C902CF1E030E11A901542740E
:1046530002F0902CEEE025E025E02417F582E43407
:104663000EF5837402F0A51280AEA1902CEEE0B596
:104673000712901542E0600CC2258008902CEEE0F2
:1046830004F0808A902CF17401F0902CEAE0FFC3CF
:10469300902CEDE09F902CECE0940002401F9018CA
:1046A30026E0FCA3E0FDD39400EC9400500E901898
:1046B30029E09400901828E09400401A901828E00C
:1046C300FAA3E0FBE4FFA5128155E3E4901826F07A
:1046D300A3F0A3F0A3F0902CF2E070030248A1A58D
:1046E3001280CD1490154E7401A51280901C901564
:1046F3004E7420F07E007F147D007B007A0779A042
:10470300A51280088690154EE0FF25E025E024F5EC
:10471300F582E43403F583E493FD7C00C004C00513
:10472300EF25E025E024F2F582E43403F583A512B6
:104733008007B978A07C077D00D007D006A512803A
:1047430004D690154EE025E025E024F5F582E43407
:1047530003F583E493902CEEF090056BE0FEA3E069
:10476300FFEE6003024877EF24F6604024A670034F
:1047730002480B24636003024877902CEEE024A0E8
:10478300F9E43407FA7B00C003C002C0017B807ADE
:10479300037986902FA3A5128007AF900532E0FF1F
:1047A300A3E0902FA6CFF0A3EF024865902CEEE094
:1047B30024A0F9E43407FA7B00C003C002C0017BE4
:1047C300807A037989902FA3A5128007AF90056B98
:1047D300E0FAA3E0FB900532E0FEA3E0FFAD03ACFB
:1047E30002A512800515902FA6EEF0A3EFF0900519
:1047F30032E0FEA3E0FFAD03AC02A51280051590E5
:104803002FA8ECF0A3ED805A902CEEE024A0F9E45D
:104813003407FA7B00C003C002C0017B807A0379AE
:104823008F902FA3A5128007AF90056BE0FAA3E04A
:10483300FB900532E0FEA3E0FFAD03AC02A51280BE
:104843000515902FA6EEF0A3EFF0900532E0FEA33E
:10485300E0FFAD03AC02A512800515902FA8ECF084
:10486300A3EDF0D001D002D003A512800CB4902C9C
:10487300EEE02FF0D21B7B007A0779A0902FA2A540
:10488300128007AF902CEEE0902FA5F07D01E4FF9E
:10489300A5128090527FD07E07A5128081767F007B
:1048A300A522E4902CE1F0A512809FCC9007B5E0FF
:1048B3004440F090154E740DA51280901C7F01A505
:1048C30022E4902CE1F0903A44F0900002F0A5121B
:1048D3008085F29002077402F0302807A5128097B2
:1048E300C6C228902CBA7401F0E4901774F0FBFA56
:1048F300FD7F05A5128152EBA512809FA95007A544
:1049030012804D8580F29017747401F0E4FBFAFD78
:104913007F06A5128152EBE4900797F0900795F07C
:10492300A3F0902CBAF0D21B90043AA5128007B9D9
:10493300902FA2A5128007AF90043DA51280904945
:10494300D21B7B807A0379E4902FA2A5128007AF54
:10495300902FA57401F0FDE4FFA512809052A512DB
:1049630080967A9002077401F0E49007B4F0A3F004
:10497300D225202807A5128097D4D228D227E490E5
:104983002CE1F0902CE1E0FFC39440505DE0FE2564
:10499300E025E0242AF582E43436F583E0FD75F062
:1049A30006EE900004A512800798E06D7034EF25A1
:1049B300E025E0242CF582E43436F583E0B40122CB
:1049C300902CE1E075F006900006A512800798E0B0
:1049D300FEA3E04E700C9007B4E04404F0A3E0F0B3
:1049E3008008902CE1E004F08099902CE1E0644091
:1049F30060028055A51280AA30E4902CE1F0902C3F
:104A0300E1E0FFC39440501875F006EF900005A550
:104A130012800798E0541FF0902CE1E004F080DE50
:104A230090153EE0700320250D90153FE060079040
:104A330007B5E04402F07D53E4FFA51280D272BFB4
:104A430002079007B5E04440F0E4901878F0900531
:104A530022F0900184F0A3F0A5128159FB7F00A5F9
:104A630022E4902CE1F0A3F0202703024D63A5126A
:104A73008085F290154E7410A51280901CE47F641B
:104A8300A512808E179007B4E0FEA3E0FF30E00983
:104A9300902CE274F1F0024B3DEF30E109902CE2EF
:104AA30074F2F0024B3DEF30E209902CE274F3F024
:104AB300024B3DEF30E308902CE274F4F0807BEF7F
:104AC30030E408902CE274F5F0806FEF30E5089045
:104AD3002CE274F6F08063EF30E608902CE274F772
:104AE300F08057EF30E708902CE274F8F0804BEE3B
:104AF30030E008902CE274F9F0803FEE30E108904A
:104B03002CE274FAF08033EE30E208902CE274FB6E
:104B1300F08027EE30E308902CE274FCF0801BEE6B
:104B230030E408902CE274FDF0800FEE902CE2301C
:104B3300E50574FEF0800374FFF0202A03024CF9AC
:104B4300900532E07002A3E07003024CF97B807A97
:104B53000379E6902FA3A5128007AF902CE2E09093
:104B63002FA6F07B007A0779A0A512800CB4902CB5
:104B7300E1EFF090154E7420F0E0FE25E025E024EF
:104B8300F5F582E43403F583E493FD7C00C004C0AF
:104B930005EE25E025E024F2F582E43403F583A550
:104BA300128007B9C00174A02FF9E43407A801FCEF
:104BB3007D00D001D007D006A5128004D690154EF3
:104BC300E025E025E024F5F582E43403F583E4935E
:104BD300FF902CE1E02FF090056BE0FEA3E0FFEEE9
:104BE3006003024CF5EF24F6604024A67003024CE8
:104BF3008924636003024CF5902CE1E024A0F9E4DE
:104C03003407FA7B00C003C002C0017B807A0379BA
:104C130086902FA3A5128007AF900532E0FFA3E093
:104C2300902FA6CFF0A3EF024CE3902CE1E024A059
:104C3300F9E43407FA7B00C003C002C0017B807A29
:104C4300037989902FA3A5128007AF90056BE0FA33
:104C5300A3E0FB900532E0FEA3E0FFAD03AC02A5A9
:104C630012800515902FA6EEF0A3EFF0900532E029
:104C7300FEA3E0FFAD03AC02A512800515902FA89B
:104C8300ECF0A3ED805A902CE1E024A0F9E4340782
:104C9300FA7B00C003C002C0017B807A03798F9046
:104CA3002FA3A5128007AF90056BE0FAA3E0FB905A
:104CB3000532E0FEA3E0FFAD03AC02A512800515AB
:104CC300902FA6EEF0A3EFF0900532E0FEA3E0FFF5
:104CD300AD03AC02A512800515902FA8ECF0A3ED4F
:104CE300F0D001D002D003A512800CB4902CE1E0E7
:104CF3002FF0C22A80267B807A0379E6902FA3A522
:104D0300128007AF902CE2E0902FA6F07B007A0789
:104D130079A0A512800CB4902CE1EFF0D21B7B009C
:104D23007A0779A0902FA2A5128007AF902CE1E01B
:104D3300902FA5F07D01E4FFA512809052E47F64DB
:104D4300A512808E17900001E004F0E0C3940240A6
:104D530004C227E4F09002077402F0A51280967A49
:104D6300900549E0B40117900002E0700CA5128091
:104D73009F48EF700404F08005A51280B7BE7F0141
:104D8300A522E4902CE4F0D217A3F0A3F00254314F
:104D9300902CE5E06003025441F0D217A5128096EF
:104DA3007AD21B901B28A5128007B9902FA2A512B7
:104DB3008007AF901B2BA512809049D21B901B2C10
:104DC300A5128007B9902FA2A5128007AF901B2FC1
:104DD300A5128095E2902CE27401F0A304F0201751
:104DE3000302513AA51280B580902CE6EFF024F32C
:104DF3007003024F7D24F27003024F7824CB7003BB
:104E0300024ECC24086003025129902CE3E0640293
:104E1300702DD21A902F1F7402F0D21BE4FDFFA550
:104E2300128095FF902CE37401F0902CE2E0700661
:104E3300740AF0025129902CE2E014F0025129D2B5
:104E43001B902CE2E0FF25E025E02428F582E434E2
:104E53001BF583A5128007B9902FA2A5128007AF77
:104E6300EF25E025E0242BF582E4341BF583E4935E
:104E7300902FA5F07D01E4FFA512809052902CE2C3
:104E8300E07005740AF08006902CE2E014F0D21B67
:104E9300902CE2E0FF25E025E02428F582E4341B92
:104EA300F583A5128007B9902FA2A5128007AFEF53
:104EB30025E025E0242BF582E4341BA512809047DE
:104EC300902CE37401F0025129902CE3E06401700B
:104ED3001AA5128095F1902CE2E0B40A05E4F002E1
:104EE3004F6F902CE2E004F0024F6FD21B902CE244
:104EF300E0FF25E025E02428F582E4341BF583A5B3
:104F0300128007B9902FA2A5128007AFEF25E025E5
:104F1300E0242BF582E4341BA512809047902CE209
:104F2300E0B40A04E4F08006902CE2E004F0D21B23
:104F3300902CE2E0FF25E025E02428F582E4341BF1
:104F4300F583A5128007B9902FA2A5128007AFEFB2
:104F530025E025E0242BF582E4341BF583E49390CC
:104F63002FA5F07D01E4FFA512809052902CE374ED
:104F730002F0025129C217025129C21AE4902F1FCD
:104F8300F0D21BFDA512809674902CE2E0A512804E
:104F930007C64FB4004FBB014FC2024FC9034FD0E6
:104FA300064FD7074FDE084FE5094FEC0A00004FC5
:104FB300F1A51280EFF88036A5128168DD802FA558
:104FC30012816F498028A5128167C58021A51280AF
:104FD300D7A9801AA51280F36B8013A512806420D1
:104FE300800CA5128077278005A51280C7F9902C25
:104FF300E3E064026003025088902CE2E07017D271
:105003001B901B50A5128007B9902FA2A5128007F1
:10501300AF901B53802FD21B902CE2E0FF25E0259D
:10502300E02424F582E4341BF583A5128007B990AC
:105033002FA2A5128007AFEF25E025E02427F582F4
:10504300E4341BF583A512809049D21B902CE2E037
:10505300FF25E025E02428F582E4341BF583A5121F
:105063008007B9902FA2A5128007AFEF25E025E0B6
:10507300242BF582E4341BF583E493902FA5F07D74
:1050830001E402511B902CE2E0B40A17D21B901BDF
:1050930028A5128007B9902FA2A5128007AF901BF5
:1050A3002B802FD21B902CE2E0FF25E025E0242C5F
:1050B300F582E4341BF583A5128007B9902FA2A5CE
:1050C300128007AFEF25E025E0242FF582E4341B9F
:1050D300F583E493902FA5F07D01E4FFA512809062
:1050E30052D21B902CE2E0FF25E025E02428F58234
:1050F300E4341BF583A5128007B9902FA2A5128073
:1051030007AFEF25E025E0242BF582E4341BF5837C
:10511300E493902FA5F0E4FDFFA512809052902C0C
:10512300E3A512809666A512808FD27F0A7E00A522
:105133001280827A024DE1E47F2C7E01FDFC902FE8
:10514300D67427F0A37438F0A512808E20A512819F
:105153004240D21AE4902F1FF0D21BFDFFA512800C
:1051630095FFD21AE4902F1FF0D21BFD7F01A512E9
:105173008095FF903A40E07003302D4ED21B7B8028
:105183007A1A79F6902FA2A5128007AF902FA574F3
:105193000AA51280904ED21B7B807A1B7901902F37
:1051A300A2A5128007AF902FA57401F0FDE4FFA51F
:1051B30012809052E47FDC7E05FDFC902FD674278D
:1051C300F0A37438F0A512808E20903A40E070036B
:1051D3000252A9A51280E7CCE47F64A512808E1742
:1051E300A51280CCD4E47F64A512808E177E017F44
:1051F300807D007B007A2C79E7A5128008867F806A
:105203007E027D087C0075382C7539E7753A017587
:105213003B80A51280A0FDE4902CE4F0902CE4E008
:10522300FF75F006902CEBA512800798E0FE75F051
:1052330006EF900008A512800798E06E7057902C37
:10524300E4E075F006902CE8A512800798E0FE755F
:10525300F006EF900005A512800798E0B50636909A
:105263002CE4E075F006902CE9A512800798E0FC89
:10527300A3E0FD75F006EF900006A512800798E005
:10528300FEA3E0B5050FEEB5040B902CE4E004F0AB
:10529300E064407087902CE4E064406004A37401F0
:1052A300F0E4903A40F0202D0302539CA51280CDE8
:1052B30014E47F64A512808E177E007F547D007BEB
:1052C300007A2E7967A5128008867F807E017D088B
:1052D3007C0075382E753967753A00753B54A512F5
:1052E30080A0FD902E67E0FF900523E06F6003022E
:1052F3005394902E68E0FEA3E0FF900524E06E70C7
:1053030003A3E06F6003025394902E6AE0FEA3E0D0
:10531300FF900526E06E7003A3E06F7074902E6C0F
:10532300E0FEA3E0FF900528E06E7003A3E06F703A
:1053330060902E6EE0FF90052AE06F7054902E6F00
:10534300E0FF90052BE06F7048902E70E0FEA3E025
:10535300FF90052CE0B50639A3E0B50734902E7213
:10536300E0FEA3E0FF90052EE0B50625A3E0B50718
:1053730020902E76E0FEA3E0FF900532E0B5061103
:10538300A3E0B5070C902EBAE0FF900576E06F60BE
:1053930006902CE57401F0C22D902CE5E070030219
:1053A3005438A51280967AD21B7B807A1B7903909E
:1053B3002FA2A5128007AF902FA57413A51280907A
:1053C3004ED21B7B807A1B7917902FA2A5128007E0
:1053D300AF902FA57410F07D01E4FFA512809052C9
:1053E300751D0FE4902CE4F0E51D603BA51280B918
:1053F300D8A51280B580902CE6EFF0F460EA902CEB
:10540300E6E024E56010240E70DEE4902CE5F090D5
:105413002CE404F0800A902CE57401F0902CE4F065
:10542300902CE4E0B401C1E51D6003024D93902C80
:10543300E5F0024D93902CE57401F0024D93A50223
:1054430080967A902ED6EDF0902ED5EFF0E4902E44
:10545300D7F0EF14602B14603A14605314606C247B
:10546300F870030254F0240C600302551290153EA9
:10547300E0FF30E702807EEF20E00302550D025586
:105483000590153FE0FF30E702806AEF30E00280CD
:10549300718077901540E0FF30E7028058EF5406A3
:1054A30060028036901540E030E0028055805B90CA
:1054B3001541E0FF30E702803CEF54066002801A9A
:1054C300901541E030E0028039803F901542E0FFC3
:1054D30030E7028020EF54066008902ED77403F063
:1054E300802D901542E030E0028017801D90154B0F
:1054F300E0FF30E708902ED77402F08012EF5403D8
:105503006008902ED77401F08005E4902ED7F03018
:1055130019030255F8902ED5E0FF25E025E024F38A
:10552300F582E4340BF583E493FD7C00C004C005ED
:10553300EF25E025E024F0F582E4340BF583A51292
:105543008007B978D87C2E7D00D007D006A51280BD
:1055530004D6902ED7E0FF25E025E0242BF582E446
:10556300340CF583E493FD7C00C004C005EF25E013
:1055730025E02428F582E4340CF583A5128007B9CD
:10558300C001902ED5E025E025E024F3F582E43434
:105593000BF583E49324D8F9E4342EA801FC7D00B1
:1055A300D001D007D006A5128004D6902ED6E0FDF8
:1055B300D21B7B007A2E79D8902FA2A5128007AF39
:1055C300902ED7E025E025E0242BF582E4340CF57A
:1055D30083E493FF902ED5E025E025E024F3F582C4
:1055E300E4340BF583E4932F902FA5F0E4FFA51289
:1055F3008090528005902ED7E0FFA522902EBBE02D
:10560300FF7D01902ED4EDF0902ED3EFF0601BE0E0
:10561300FF64016015EF64026010EF6403600BEF39
:1056230064046006EF6003B40C11902ED3E0FFA373
:10563300E0FDC219A5128054468041902ED4E0FDAE
:10564300D21B902ED3E0FF25E025E024F0F582E481
:10565300340BF583A5128007B9902FA2A5128007FA
:10566300AFEF25E025E024F3F582E4340BF583E482
:1056730093902FA5F0E4FFA512809052A522E49009
:105683002EFDF0A3F0A3F0A3F0A3740AF0A3740219
:10569300F0902F0414F0E4A3F0902F0374FFF0A50F
:1056A3001280967AA5128095F1902F027402F0E48D
:1056B300902EFDF0902EFDE0FFC39440501D75F039
:1056C30006EF900004A512800798E0600E902F0566
:1056D300E004F0902EFDE004F080D9902F04E070F8
:1056E300030259DA7E007F157D007B007A2E79D381
:1056F300A5128008867E007F157D007B007A2E79B7
:10570300E8A512800886E4902EFEF0902EFDF0901E
:105713002F00E0902EFDF0902F01E0FF902EFDE092
:10572300FEC39F400302595C902F00E02405FDE473
:1057330033FCEEC39DEC6480F874809840030258F8
:105743003A902EFDE075F006900004A512800798AC
:10575300E07003025953902EFEE075F004A424D3A5
:10576300F9742E35F0FA7B00C003C002C0017B80C0
:105773007A0B7955902FA3A5128007AF902EFDE0E9
:1057830075F006900004A512800798E0902FA6F00C
:10579300D001D002D003A512800CB4E4902EFFF008
:1057A300902EFDE075F006900005A512800798E0A5
:1057B300FF7006902EFFF0803EEF540A6008902E93
:1057C300FF7402F08031902EFDE0FF75F00690002B
:1057D30005A512800798E020E20F75F006EF900010
:1057E30008A512800798E07008902EFF7403F080DC
:1057F30006902EFF7401F0902EFFE0FF25E025E0D8
:10580300243BF582E4340CF583E493FD7C00C0046F
:10581300C005EF25E025E02438F582E4340CF58358
:10582300A5128007B9C001902EFEE075F004A424F0
:10583300D5F9742E02593B902F05E0FF902EFDE021
:10584300FEC39F400302595C75F006EE900004A569
:1058530012800798E07003025953902EFEE075F012
:1058630004A424D4F9742E35F0FA7B00C003C002DB
:10587300C0017B807A0B7955902FA3A5128007AFC7
:10588300902EFDE075F006900004A512800798E0C5
:10589300902FA6F0D001D002D003A512800CB4E45F
:1058A300902EFFF0902EFDE075F006900005A512F6
:1058B300800798E0FF7006902EFFF0803EEF540AB9
:1058C3006008902EFF7402F08031902EFDE0FF758A
:1058D300F006900005A512800798E020E20F75F00E
:1058E30006EF900008A512800798E07008902EFF3D
:1058F3007403F08006902EFF7401F0902EFFE0FFFA
:1059030025E025E0243BF582E4340CF583E493FDA4
:105913007C00C004C005EF25E025E02438F582E4CF
:10592300340CF583A5128007B9C001902EFEE075F3
:10593300F004A424D6F9742E35F0A801FC7D00D020
:1059430001D007D006A5128004D6902EFEE004F005
:10595300902EFDE004F002571A7B007A2E79D3A52E
:1059630012800010EF4E70127B007A2E79E8A51298
:10597300800010EF4E7003025A7ED21B7B007A2EFA
:1059830079D3902FA2A5128007AF902FA57414A5E9
:105993001280904ED21B7B007A2E79E8902FA2A51D
:1059A300128007AF902EFEE024FB25E025E0902F28
:1059B300A5F07D01E4FFA512809052902F02E01420
:1059C300FDD21A902F1F7402F0D21BE4FFA51280A0
:1059D30095FFE4902F04F0A51280B580902F03EF7C
:1059E300F024E57003025A7E24CB60462408707AC3
:1059F300902F02E0B4021AD21A902F1F7402F0D231
:105A03001BE4FDFFA5128095FF902F027401F08027
:105A130059902F00E0D394004050902F00E024FBD6
:105A2300F0A3E024FBF0902F047401F0902F02F018
:105A33008038902F02E0B4010DA5128095F1902FCC
:105A4300027402F08024902F05E0FF902F01E0C341
:105A53009F5017902F00E02405F0A3E02405F09059
:105A63002F047401F0902F0204F0A512808FD27FCF
:105A73000A7E00A51280827A0256DEA522902ED3DA
:105A8300EFF0A3EDF0E4902EEAF0A3F0902F9EF058
:105A9300A3F0FE7F15FD7B007A2E79D5A512800831
:105AA30086900549E0640160567B807A0B795C90AF
:105AB3002FA3A5128007AF7B007A2E79D5A512807C
:105AC3000CB4902EEBEFF0902ED4E014FDD21B7BA0
