:020000040000FA
:10000000021FB2080001009600A522A5028125BCAE
:10001000E4FFFEA54860090FEF70010EA56980F3AB
:02002000A52217
:10002300A502806CE9EFB40A09740DA512800035AE
:10003300740A309811A899B8130CC2983098FDA887
:0F00430099C298B811F63099FDC299F599A52286
:10005300A5028139F4202020202020BBB6D3ADB9DE
:10006300E2C1D900202020202020C1E3C7AEB2BBCB
:10007300D7E30020202020D1A1D4F1C9CCC6B7B347
:10008300ACCAB120202020002020C7EBB2E5C8EB8A
:10009300B8FCD0A1C3E6B6EED6BDB1D2002020C7CE
:1000A300EBD1A1BBF5BBF2BCCCD0F8CDB6B1D2211C
:1000B30000C8B7B6A8454E54455220C8A1CFFB434C
:1000C300414E43454C0020202020C7EBC8A1C1E38B
:1000D300C7AE00C8A1CFFB43414E43454C0020208F
:1000E3002020CAE4C8EBB4EDCEF300C8B7B6A845E8
:1000F3004E544552002020C7EBCDB6C8EBD6BDB158
:10010300D2BBF2D3B2B1D200BFCDBBA7D3E0B6EE20
:100113003A00D1A1D4F1C6E4CBFCC9CCC6B7C2F036
:100123003F200020202020BBFAC6F7B9CAD5CF0054
:100133002020C9CCC6B7D2D1CADBCDEA002020200B
:10014300202020D0BBD0BB2100202020202020D481
:10015300DDCDA3B7FECEF10020202020D5D2C1E310
:10016300C6F7B9CAD5CF002020C7EBC9D4BAF32E3E
:100173002E2E00BDF0B6EEB2BBD7E32C20BCD3C706
:10018300AEC2F03F20002020D5FDD4DAB3F6BBF594
:100193002E2E2E002020D5FDD4DAD5D2C1E32E2E6B
:1001A3002E0020202020D5D2C1E3CAA7B0DC002036
:1001B300202020486F772061726520796F752100B8
:1001C300C7EBCAE4C8EBC6E4CBFCC9CCC6B7B1E005
:1001D300BAC5002020C7EBD1A1D4F1C6E4CBFCC93A
:1001E300CCC6B7002020C7EBC8A1BBF52E2E2E002E
:1001F3002020C7EBC8A1D7DFCDCBB1D22E2E2E0046
:100203002020C9CCC6B7BBF5B5C0B9CAD5CF00202D
:1002130020D1A1D4F1C6E4CBFCC9CCC6B7C2F03F10
:1002230000202020202020B2D9D7F7B3ACCAB100D8
:1002330020202020D5FDD4DACDCBBFEE00C7B7BF39
:10024300EE3A0020202020C7EBCDB6C8EBD3B2B1E5
:10025300D20020202020C7EBB2E5C8EBD6BDB1D237
:100263000028323031342D30392D323229004A758D
:100273006E70656E672D7A6F6E6768652D312E30EF
:10028300002020BBB9D2AAB9BAC2F2C9CCC6B7C240
:10029300F03F00202020202020CEDEC1E3B1D20099
:1002A3002020C9CCC6B7BCDBB8F13A002020CBF97B
:1002B300D1A1C9CCC6B7D4DDCAB100C8B1BBF50062
:1002C3002020B9CAD5CF002020CDCBB1D2BDF0B606
:1002D300EE3A002020B5B1C7B0BDF0B6EE3A00202B
:1002E30020C7EBCBA2BFA82E2E2E002020CDB6B167
:1002F300D22D3ED1A1BBF52D3EC8A1BBF5202000D8
:100303002020CCF9BFA82D3ED1A1BBF52D3EC8A11D
:10031300BBF52020002020BFA8D3E0B6EEB2BBD7A8
:10032300E32E2E2E002020B6C1BFA8CAA7B0DC2E14
:100333002E2E002020BFA8D3E0B6EE3A002020BD29
:10034300F0B6EEB2BBD7E32E2E2E002020202020C5
:1003530020CFD6BDF0CFFBB7D10020202020202016
:10036300CBA2BFA8CFFBB7D1002020C7EBD1A1BB45
:10037300F521002020B1BEBBFAD4DDCDA3CFD6BD7D
:10038300F0BDBBD2D700BBF5B5C03A20002020B8E2
:10039300C3BBF5B5C0D4DDCDA3B7FECEF10020209D
:1003A300B7C7CFD6BDF0CADBC2F400C1E3B1D2B246
:1003B300BBD7E3A3ACCEDEB7A8B9BAC2F200CAE496
:1003C300C8EBC9CCC6B7B1E0BAC53A2000564D4414
:1003D300455600564D5245430025750025752E257B
:1003E300750025752E253032750049734E65656499
:1003F300436C65617200436C6561724F4B002573FA
:1004030020B5B9BCC6CAB15B25755D0025732562ED
:10041300750025732025750025732025752E2575F8
:100423000025732025752E25303275002000257395
:10043300257500257325752E257500257325752EC5
:1004430025303275002573256C75002573256C7571
:100453002E256C75002573256C752E2530326C7531
:10046300005B253032627825303262785D202025AA
:1004730073008000580E8000670E800076148000A1
:100483008B148000A0138000B4148000C90C80007A
:10049300D60A8000E10C8000EE098000F81280018A
:1004A3000B09800115108001260C8001330C80019B
:1004B300400B80014C0E80015B0E80016A0C8001B1
:1004C30076128001890D8001970D8001A50C8001B2
:1004D300B2108001C3128001D6108001E70B8001A6
:1004E300F30F8002030E800212118002240E800299
:1004F300330C800240058002460E8002550E8002B6
:10050300640C80027112800284118002960C8002B6
:10051300A30B8002AF0E8002BE048002C3088002D8
:10052300CA0B8002D60B8002E20B8002EE1480031A
:1005330003148003180F8003280D800336098003FA
:10054300400D80034E0E80035D0E80036C09800313
:10055300761280038906800390108003A10C800328
:10056300AE148003C10E8003D0058003D6050000BE
:100573006432190A05000305010000000000000AA7
:100583000500000000312ED5FBBBFAB9CAD5CFB2A6
:10059300E9BFB400322EB3F6BBF5B2E2CAD40033DE
:1005A3002ED6BDB1D2C6F7D7B4CCAC3A2000342E88
:1005B300D3B2B1D2C6F7D7B4CCAC3A2000352ECEE5
:1005C300E5BDC7D3E0B6EE3A2000362ED2BBD4AA9F
:1005D300D3E0B6EE3A2000372ED1A1BBF5B0B4C5B7
:1005E300A5BCECB2E200382ED3CECFB7B0B4C5A5CC
:1005F300BCECB2E200392ECDCBB1D2B0B4C5A5BCB0
:10060300ECB2E20031302E20B3F6BBF5C8B7C8CF49
:10061300B2E2CAD40031312E20D5D5C3F7B2E2CA33
:10062300D40031322E20D1B9CBF5BBFAB2E2CAD411
:1006330000D5FDB3A300B9CAD5CF00CEDE00B2BB4F
:10064300D7E300CEB400D5FD00B9CA00C8B100C8D5
:10065300B7B6A8454E54455220C8A1CFFB43414EDF
:1006630043454C00C0DBBCC6B2E2CAD4B4CECAFD1B
:100673003A20257500BBF5B5C02530326275B9CA7D
:10068300D5CFB4CECAFD3A257500D5FDD4DABCEC7E
:10069300B2E220253032627520BBF5B5C0002020C0
:1006A3002020C7EBC9D4B5C82E2E2E002020BBF5C1
:1006B300B5C0B0E53A20B9CAD5CF2020200020200C
:1006C300BBF5B5C025303262753A20B9CAD5CF2003
:1006D3002020002020BBF5B5C025303262753A20BA
:1006E300CEDEBBF5202020002020BBF5B5C02025A1
:1006F300303262753A2020D5FDB3A320002020209C
:1007030020D3B2B1D2C6F7B2E2CAD400C7EBCDB69A
:10071300B1D23A002020B1D2B6B7D2D1C2FA2C203E
:10072300C7EBB4A6C0ED2100D2D1CDB6C8EBBDF066
:10073300B6EE3A20257500D2D1CDB6C8EBBDF0B6E2
:10074300EE3A2025752E257500D2D1CDB6C8EBBD66
:10075300F0B6EE3A2025752E25303275002020D3D1
:10076300B2B1D2C6F7CAC7B7F1D5FDB3A33F0025CF
:10077300730041434443C4A3CABDCEB4BFAAC6F465
:1007830000D5B9CABEB5C600D1B9CBF5BBFA0020B6
:10079300202573B2E2CAD400312DB4F2BFAA2020BF
:1007A300322DB9D8B1D5002573D2D1B4F2BFAAA3E3
:1007B300ACC7EBC8B7C8CF002573D2D1B9D8B1D570
:1007C300A3ACC7EBC8B7C8CF00C7EBB2BBD2AACBA9
:1007D300E6D2E2B9D8B1D5C9E8B1B8A3A1002020C7
:1007E3002020D6BDB1D2C6F7B2E2CAD4002020D6AB
:1007F300BDB1D2C6F7CAC7B7F1D5FDB3A33F00D683
:10080300BDB1D2C6F7CEB4BFAAC6F400D3B2B1D23B
:10081300C6F7CEB4BFAAC6F4002020CEE5BDC7CD2F
:10082300CBB1D2A3ACD2BBB4CEC1BDC3B6002020E2
:10083300D2BBD4AACDCBB1D2A3ACD2BBB4CEC1BDB3
:10084300C3B60020202020B0B4C5A5B2E2CAD4218B
:1008530000CAE4C8EBB0B4C5A53A00CAE4C8EBB01B
:10086300B4C5A53A202562750020202020D3CECF21
:10087300B7B0B4C5A5B2E2CAD42100D3D0BCFCB092
:10088300B4CFC22C20D4F2C3F9BDD0D2BBC9F90076
:10089300B3F6BBF5C8B7C8CFCEB4BFAAC6F400B38E
:1008A300F6BBF5C8B7C8CF0020202020BCECB2E2CD
:1008B300B5BDD3D0D5DAB5B20020202020C7EBD503
:1008C300DAB5B2C1BDC3EB0020202020CDCBB1D21D
:1008D300B0B4C5A5B2E2CAD4210020202020202034
:1008E300C3BBD3D0B0B4CFC20020202020B0B4CF3C
:1008F300C2CDCBB1D2B0B4C5A50025750025752EE8
:1009030025750025752E2530327500BBF5B5C0253C
:10091300303262753A20257300CEDEB9CAD5CFBB1B
:10092300F5B5C000B9CAD5CFBBF5B5C02530326225
:1009330075B8F600253032627520005B25303262CF
:100943007825303262785D00B3F6BBF5C8B7C8CFFF
:10095300B0E5BFAAC6F400B3F6BBF5C8B7C8CFB0BD
:10096300E5B9CAD5CFB9D8B1D500B3F6BBF5C8B789
:10097300C8CFB0E5CEB4BFAAC6F4008005880E8008
:1009830005970A8005A20E8005B10E8005C00C8074
:1009930005CD0C8005DA0E8005E90E8005F8108080
:1009A3000607108006180C8006250E800634048086
:1009B30006390480063E0280064104800646028012
:1009C30006490280064C0280064F028F828E83ED19
:1009D300F5F0FFECFEE8FDE58260020583458360E8
:1009E3000EA548A55CA569A56DD582F5D583F2ABA7
:1009F300F0ECFAE8F9A522EF8DF0A4A8F0CF8CF083
:100A0300A428CE8DF0A42EFEA522BC000CBE002B84
:100A1300EF8DF084FFADF0A522E4CCF875F008EF7C
:100A23002FFFEE33FEEC33FCEE9DEC984005FCEE1D
:100A33009DFE0FD5F0E9E4CEFDA522EDF8F5F0EE2D
:100A43008420D21DFEADF075F008EF2FFFED33FDCE
:100A53004008985007D5F0F2A522C398FD0FD5F0B2
:100A6300E9A522C2D5EC30E709B2D5E4C39DFDE484
:100A73009CFCEE30E717B2D5E4C39FFFE49EFEA5CE
:100A830012800A0DC3E49DFDE49CFC8005A5128041
:100A93000A0D30D507C3E49FFFE49EFEA522C5F0EF
:100AA300F8A3E028F0C5F0F8E582158270021583FB
:100AB300E038F0A522A3F8E0C5F025F0F0E58215B3
:100AC3008270021583E0C838F0E8A522EF2BFFEE11
:100AD3003AFEED39FDEC38FCA522E88FF0A4CC8B6F
:100AE300F0A42CFCE98EF0A42CFC8AF0EDA42CFCE1
:100AF300EA8EF0A4CDA8F08BF0A42DCC3825F0FD20
:100B0300E98FF0A42CCD35F0FCEB8EF0A4FEA9F018
:100B1300EB8FF0A4CFC5F02ECD39FEE43CFCEAA464
:100B23002DCE35F0FDE43CFCA52275F0087582005E
:100B3300EF2FFFEE33FECD33CDCC33CCC58233C59F
:100B4300829BED9AEC99E58298400CF582EE9BFE30
:100B5300ED9AFDEC99FC0FD5F0D6E4CEFBE4CDFA8B
:100B6300E4CCF9A882A522B800C0B9005BBA002E74
:100B7300EC8BF084CFCECDFCE5F0CBF97818EF2FDA
:100B8300FFEE33FEED33FDEC33FCEB33FB10D70309
:100B9300994004EB99FB0FD8E5E4F9FAA5227818FC
:100BA300EF2FFFEE33FEED33FDEC33FCC933C910F9
:100BB300D7059BE99A4007EC9BFCE99AF90FD8E02B
:100BC300E4C9FAE4CCFBA52275F010EF2FFFEE3356
:100BD300FEED33FDCC33CCC833C810D7079BEC9A5A
:100BE300E899400AED9BFDEC9AFCE899F80FD5F0E3
:100BF300DAE4CDFBE4CCFAE4C8F9A522EB9FF5F0E7
:100C0300EA9E42F0E99D42F0EC6480C86480984516
:100C1300F0A522EB9FF5F0EA9E42F0E99D42F0E851
:100C23009C45F0A522E8600FECC313FCED13FDEE29
:100C330013FEEF13FFD8F1A522A548FCA549FDA596
:100C43004AFEA54BFFA522ECA558EDA559EEA55AE2
:100C5300EFA55BA522E0FCA3E0FDA3E0FEA3E0FF7C
:100C6300A522E493FC740193FD740293FE74039331
:100C7300FFA522E0F8A3E0F9A3E0FAA3E0FBA52295
:100C8300E493F8740193F9740293FA740393FBA544
:100C930022A548F8A549F582A54AF583A54BFBA9EA
:100CA30082AA83A5227401FF3395E0FEFDFCA3A372
:100CB300A3E0CF2FF0E582158270021583E0CE3ECC
:100CC300F0E582158270021583E0CD3DF0E58215D3
:100CD3008270021583E0CC3CF0A522ECF0A3EDF08A
:100CE300A3EEF0A3EFF0A522A42582F582E5F0356B
:100CF30083F583A522E0FBA3E0FAA3E0F9A522EBA9
:100D0300F0A3EAF0A3E9F0A522E493FB740193FABC
:100D1300740293F9A522F8D0E0F5834480FBD0E078
:100D2300FAD0E0F9A5487012A549700EA56AA54945
:100D3300C0E0A548C0E0C083A522A54A6860EFA52E
:100D43006B80E1F8D0E0F5834480FBD0E0FAD0E09B
:100D5300F9A5487012A549700EA56AA549C0E0A57A
:100D630048C0E0C083A522A54AB5F005A54B68603D
:100D7300EAA56880DC8F828E83EDFFECFEE8FDE55B
:100D83008260020583458370047F00A522A548F590
:100D9300F0A54CA569A56DB5F006D582F0D583ED18
:100DA3007FFFB5F0030FA52240027F01A522EF4E7E
:100DB3006019EF60010EED89828A838BF0A558A537
:100DC30069DFFADEF88BF0A982AA83A522F8E0FB9B
:100DD300A3A3E0F925F0F0E582158270021583E004
:100DE300FA38F0A522E527245DF582E4341FF58364
:100DF300E0052722901F5A301A03901F5DE475F017
:100E030001A512800DD0A548222013E77F2ED2130F
:100E13008018EF540F2490D43440D4FF30170BEFD5
:100E230024BFB41A0050032461FFE528600215288B
:100E3300052BE52B7002052A301A10901F5AE47512
:100E4300F001A512800DD0EFA55822A5128000282D
:100E5300227403D21A8003E4C21AF527901F5AA5FD
:100E630012800D02E4F528F52AF52BE52860097FA9
:100E730020A512800E2D80F37529FFC214C213C260
:100E830015C216C218C219C21B120DF7FF700E301D
:100E93001A057F00120E3EAF2BAE2AA522B4255FA2
:100EA300C2D5C217120DF7FF24D0B40A00501A7529
:100EB300F00A782830D50508B6FF0106C6A426F641
:100EC30020D5047002D21680D924CFB41A00EF5073
:100ED30004C2E5D217021055D21480C6D21380C0C3
:100EE300D21580BCD2D580BAD21880B47F20120E1E
:100EF3002D2015077401B5280040F1120DE8FF12EB
:100F03000E2D020E6ED21BD2198095120DE8FB1224
:100F13000DE8FA120DE8F94A4B700679287A117B2D
:100F23008020153AE52860367E00E9C0E02EF9EA14
:100F3300C0E03400FAA548F9D0E0FAD0E0C9600671
:100F43000EEE652970E4C2D5EBC0E0EAC0E0E9C06B
:100F5300E0EE12109ED0E0F9D0E0FAD0E0FBA54815
:100F6300FF609FEBC0E0EAC0E0E9C0E0120E2DD0C5
:100F7300E02401F9D0E03400FAD0E0FBE529046075
:100F8300DDD529DA020F057B807A10799AD2158094
:100F930090791080027908C219C21B8008D2D579D2
:100FA3000A8004790AC2D5E529047002F529E4FA16
:100FB300FDFEFF120DE8FC7B08201413120DE8FD63
:100FC3007B1030130A120DE8FE120DE8FF7B20ECB4
:100FD3003382D592D55013C3E43013069FFFE49EAA
:100FE300FEE42014039DFDE49CFCE4CBF8C214EC66
:100FF300700CCFCECDCCE824F8F870F38017C3EF94
:1010030033FFEE33FEED33FDEC33FCEB33FB994062
:1010130002FB0FD8E9EB301405F8D0E0C448B21452
:10102300C0E00AEC4D4E4F78207B0070C2EAB52930
:101033000040BCC0E01210A0D0F0D0E0201404C4E3
:10104300C0E0C4B214C0F0120E16D0F0D5F0EB021B
:101053000E6EA512800D190F0E530F94580EDF4C10
:101063000EDB420F984F0FA0440FA0490EF4430F1D
:10107300A6550F8A460F8A450F8A471143500EE340
:101083002D0EE72E0F0A2B0EEB230F082011312A0A
:101093000EA34800000F023F3F3F00790AA2D5206C
:1010A3001614301809B910020404B9080104A2D5B2
:1010B3002019025001042015689215B528005034F8
:1010C300C0E07F203016197F30A2157219721850B4
:1010D3000F1210F7C215C219C218C21B7F30800F3E
:1010E300301803E9C0E0120E2D301803D0E0F9D018
:1010F300E0B528CC3018177F30B9100C120E2D7FB5
:10110300583017077F788003B90803120E2D301566
:10111300057F2D020E2D7F20201BF87F2B2019F336
:1011230022921580CF286E756C6C2900D214120D93
:10113300E83014F8C214782830D50108F6020EA35B
:10114300120DE8C0E0C4120E16D0E0120E16743A67
:10115300120E1ED216752804020F9441154A00413F
:1011630001C9004210CA000041024B014110CC00EA
:101173004206EE000041000600C11FC120C19DC10F
:10118300214110CD00C11E4100000041000100417A
:10119300000200410003004100040041000500413A
:1011A30030B0004230AE00004130B1004130B200F7
:1011B3004130B300C1244130B8014130B700411A76
:1011C300D000413076004130770041307800C100D3
:1011D30041307A0041307B0041307C0041307D005A
:1011E30041307E0041307F00C103C104C105C10607
:1011F300C107C108C109C10AC10BC10CC10DC10E90
:1012030041308000462FB708000100960041304965
:1012130000C1280115004130B900411F8900411F59
:101223008500411F8D01411F8701C122C123411F39
:101233008B0062002A3900008005800F000A801BA2
:10124300001E0014801180330036003C80390028D2
:10125300802D8027002280630066006C80690078FF
:10126300807D8077007200508055805F005A804BEC
:10127300004E0044804180C300C600CC80C900D822
:1012830080DD80D700D200F080F580FF00FA80EB8C
:1012930000EE00E480E100A080A580AF00AA80BB3F
:1012A30000BE00B480B180930096009C80990088B2
:1012B300808D8087008281830186018C81890198DA
:1012C300819D8197019201B081B581BF01BA81AB44
:1012D30001AE01A481A101E081E581EF01EA81FB77
:1012E30001FE01F481F181D301D601DC81D901C86A
:1012F30081CD81C701C201408145814F014A815B94
:10130300015E0154815181730176017C8179016809
:10131300816D8167016281230126012C81290138B6
:10132300813D8137013201108115811F011A810B23
:10133300010E0104810183030306030C83090318CF
:10134300831D8317031203308335833F033A832BB3
:10135300032E0324832103608365836F036A837BE6
:10136300037E0374837183530356035C83590348D9
:10137300834D8347034203C083C583CF03CA83DB03
:1013830003DE03D483D183F303F603FC83F903E879
:1013930083ED83E703E283A303A603AC83A903B826
:1013A30083BD83B703B203908395839F039A838B93
:1013B300038E0384838102808285828F028A829BCB
:1013C300029E0294829182B302B602BC82B902A841
:1013D30082AD82A702A282E302E602EC82E902F86E
:1013E30082FD82F702F202D082D582DF02DA82CB5B
:1013F30002CE02C482C182430246024C8249025891
:10140300825D8257025202708275827F027A826BFA
:10141300026E0264826102208225822F022A823BAD
:10142300023E0234823182130216021C8219020820
:10143300820D82070202412A3700412A380000CF79
:10144300B5CDB3D5FDD4DAC6F4B6AF2C20C7EBC9FE
:10145300D4B5C800D5FDD4DAB8FCB8C4C9CCC6B776
:10146300D3E0C1BF2E2E2E00C9CCC6B7D3E0C1BF77
:10147300B8FCB8C4CAA7B0DC210020202020C4E3F4
:10148300C8B7B6A8B8FCB8C4C2F03F00C8B7B6A87E
:10149300454E54455220C8A1CFFB43414E43454CD2
:1014A30000D5FDD4DAB8FCB8C4C9CCC6B7BCDBB828
:1014B300F12E2E2E00C9CCC6B7BCDBB8F1B8FCB8F0
:1014C300C4CAA7B0DC2100C9CCC6B7BCDBB8F1B82D
:1014D300FCB8C4B3C9B9A6210020202020C4E3C8A6
:1014E300B7B6A8CCEDC2FAC2F03F00D5FDD4DACC32
:1014F300EDC2FA2E2E2E00CCEDC2FAB2D9D7F7CA1E
:10150300A7B0DC2100CCEDC2FAB2D9D7F7B3C9B981
:10151300A62100CAE4C8EBB2E3BCDCB1E0BAC53A29
:1015230000B1E0BAC5CAE4C8EBB4EDCEF300C7EB33
:10153300CAE4C8EBC6E4CBFCB1E0BAC500C4E3C857
:10154300B7B6A8CCEDC2FAB4CBB2E3BCDCC2F03F71
:1015530000D5FDD4DACCEDC2FAB5B1C7B0B2E3BC65
:10156300DC2E2E2E00B2E3BCDCCCEDC2FAB2D9D70E
:10157300F7CAA7B0DC2100B2E3BCDCCCEDC2FAB2FF
:10158300D9D7F7B3C9B9A62100257300B2B9D3B22D
:10159300B1D200C8A1D6BDB1D2002020C4E3C8B7E0
:1015A300B6A82573C2F03F002020D5FDD4DA2573F9
:1015B300002573CAA7B0DC21002573B3C9B9A621DE
:1015C3000020202020CDACB2BDCAA7B0DC00202073
:1015D3002020202020202020202020202020202008
:1015E30020200020202020C4E3C8B7B6A8CDACB289
:1015F300BDC2F03F00D5FDD4DACDACB2BD2C20C7BF
:10160300EBC9D4B5C82E2E2E00CDACB2BDB2D9D7FE
:10161300F7B3C9B9A6210020202020C4E3C8B7B678
:10162300A8B2B9BBF5C2F03F00D5FDD4DAB2B9BB5D
:10163300F52C20C7EBC9D4B5C82E2E2E00B2B9BBEA
:10164300F5B2D9D7F7CAA7B0DC2100B2B9BBF5B25E
:10165300D9D7F7B3C9B9A621002020C4E3C8B7B6C8
:10166300A8C7E5B5E3C2F03F00D5FDD4DAC7E5B5B9
:10167300E32C20C7EBC9D4B5C82E2E2E00C7E5B581
:10168300E3CDEAB1CFA3ACC7EBBACBB6D42100C745
:10169300E5B5E3BDF0B6EE3A20257500C7E5B5E341
:1016A300BDF0B6EE3A2025752E257500C7E5B5E3E6
:1016B300BDF0B6EE3A2025752E25303275000000B8
:1016C3000A0500000000010204050708090B1213B4
:1016D300141516FE2000202020202020202020206A
:1016E3002020202020202020202000C7EBCAE4C88F
:1016F300EBB1E0BAC53A2000B1E0BAC5CAE4C8EB21
:10170300B4EDCEF300C7EBCAE4C8EBC6E4CBFCB13F
:10171300E0BAC500202020202020202020202020E7
:1017230020202020202020200000000000000000B6
:1017330000000000000000000000000000000000A6
:101743000000000000000000000000000000000096
:101753000000000000000000000000000000000086
:101763000000000000000000000000000000000076
:101773000000000000000000000000000000000066
:101783000000000000000000000000000000000056
:101793000000000000000000000000000000000046
:1017A3000000000000000000000000000000000036
:1017B3000000000000000000000000000000000026
:1017C3000000000000000000000000000000000016
:1017D3000000000000000000000000000000000006
:1017E30000000000000000000000000000000000F6
:1017F30000000000000000000000000000000000E6
:1018030000000000000000000000000000000000D5
:1018130000000000000000000000000000000000C5
:1018230000000000000000000000000000000000B5
:1018330000000000000000000000000000000000A5
:101843000000000000000000000000000000000095
:101853000000000000000000000000000000000085
:101863000000000000000000000000000000000075
:101873000000000000000000000000000000000065
:101883000000000000000000000000000000000055
:101893000000000000000000000000000000000045
:1018A300000000000000000000312EBFAAC6F4D6DD
:1018B300C6C0E43A00322ED7D4B6AFCDCBB1D23ABC
:1018C30000332EBFAAC6F4B3F6BBF5C8B7C8CF3AE8
:1018D30000342EC7B7CCF53A00352ED4CAD0EDB6B6
:1018E300E0B4CEB9BAC2F23A00362EB2BBC2F2BBF2
:1018F300F5CDCBB1D23A00372ED3E0B6EECFC2CF7F
:10190300DE3A00382EBFAAC6F4D6BDB1D2C6F73A26
:1019130000392EBFAAC6F4D3B2B1D2C6F73A00310A
:10192300302E20BFAAC6F441434443C4A3BFE93ABF
:101933000031312E202331D6BDB1D23A0031322EBF
:10194300202332D6BDB1D23A0031332E202333D6F1
:10195300BDB1D23A0031342E202334D6BDB1D23AB0
:101963000031352E202335D6BDB1D23A0031362E83
:10197300202336D6BDB1D23A0031372E202331D3BE
:10198300B2B1D23A0031382E202332D3B2B1D23A97
:101993000031392E202333D3B2B1D23A0032302E64
:1019A300202334D3B2B1D23A0025627500257500E5
:1019B3002D2575002D25752E2575002D25752E25B4
:1019C3003032750025752E25750025752E2530328C
:1019D30075008018AC0B8018B80B8018C40F8018E2
:1019E300D4078018DC0F8018EC0D8018FA0B8019CF
:1019F300060D8019140D801922118019340B8019DA
:101A0300400B80194C0B8019580B8019640B8019FB
:101A1300700B80197C0B8019880B8019940B80192B
:101A2300A00B0005000500010001000100050005F1
:101A3300000500010005000500050005000500057F
:101A4300000500050005000500050005000500056B
:101A53000001000500010001000100020001000176
:101A6300000100012020C4E3C8B7B6A8C2F03F00BC
:101A7300C8B7B6A8454E54455220C8A1CFFB434131
:101A83004E43454C002020C3BBD3D0BDBBD2D7BCF3
:101A9300C7C2BC00D6BDCAD53A00CFD6D6BDCAD5BB
:101AA3003A003159CAD53A00CFD63159CAD53A008E
:101AB300354ACAD53A00CFD6354ACAD53A00315944
:101AC300D5D23A00CFD63159D5D23A00354AD5D2FC
:101AD3003A00CFD6354AD5D23A00C8ABB2BFC1BF60
:101AE3003A00C8ABB2BFB6EE3A00CFD6BDF0C1BF25
:101AF3003A00CFD6BDF0B6EE3A00D3CECFB7C1BFD2
:101B03003A00D3CECFB7B6EE3A00CBA2BFA8C1BF3F
:101B13003A00CBA2BFA8B6EE3A00D4DACFDFC1BFFA
:101B23003A00D4DACFDFB6EE3A00D3B2B1D2CDB6B3
:101B3300C8EB3A00D6BDB1D2CDB6C8EB3A00D3B2AA
:101B4300B1D2B3F6B1D23A00C7F8BCE4D3B2B1D242
:101B5300CDB6C8EB3A00C7F8BCE4D6BDB1D2CDB61A
:101B6300C8EB3A00C7F8BCE4D3B2B1D2B3F6B1D2F2
:101B73003A0025303575202573256C752E253032B6
:101B83006C7500256C752E2530326C7500256C75CF
:101B93000025627500801A670B801A7314801A88F7
:101BA3000E801A9706801A9D08801AA506801AAB24
:101BB30008801AB306801AB908801AC106801AC7AA
:101BC30008801ACF06801AD508801ADD07801AE527
:101BD30007801AED07801AF507801AFD07801B0599
:101BE30007801B0D07801B1507801B1D07801B2506
:101BF30007801B2D09801B3709801B4109801B4B64
:101C03000D801B590D801B670D312ED7DCCFFACA0F
:101C1300DBCDB3BCC600322EBBF5B5C0B2CECAFD18
:101C230000332EBBF5B5C0D7B4CCACB2E9BFB4001A
:101C3300342EBCD3C2FAC8ABB2BFBBF5B5C00035B6
:101C43002EB2B9D3B2B1D2CDEAB3C900362EC8ABE6
:101C5300CFB5CDB3CDACB2BD00372EBCD3C2FAB233
:101C6300E3BCDCBBF5B5C000382EC8A1D6BDB1D2EC
:101C7300CDEAB3C900392EC9E8B1B8B9DCC0ED006B
:101C830031302E20CFB5CDB3B2CECAFD0031312EC7
:101C930020BBF5BCDCC5E4D6C30031322E20B3F63D
:101CA300B3A7C4ACC8CFC5E4D6C30031332E20C715
:101CB300E5C1E3C7F8BCE4CFFACADBCDB3BCC600C9
:101CC30031342E20B2B9BBF5C7A9B5BD002020C859
:101CD300B7B6A8B3F6B3A7C5E4D6C3C2F03F00C8EE
:101CE300B7B6A8454E54455220C8A1CFFB43414E39
:101CF30043454C0030002020D5FDD4DAB1A3B4E62F
:101D0300002000B1A3B4E6CAA7B0DCA3ACD6D8D0F8
:101D1300C2C9E8D6C33F002020454E544552202077
:101D23002043414E43454C00801C0C0C801C190A77
:101D3300801C240E801C330E801C420C801C4F0C14
:101D4300801C5C0E801C6B0C801C780A801C830C2E
:101D5300801C900C801C9D10801CAE14801CC30C36
:101D6300B3F6BBF5B3C9B9A600CABEDDB4EDCEF375
:101D730000BBF5B5C0CEDEBBF500BBF5B5C0BFA853
:101D8300BBF500C8A1BBF5C3C5C3BBBFAAC6F4005E
:101D9300BBF5CEEFCEB4C8A1D7DF00BBF5B9F1B424
:101DA300F3C3C5B1BBB4F2BFAA00C9BDB5BBFAB991
:101DB300B9B9CAD5CF00D5FBBBFAB9CAD5CF00C9CB
:101DC300BDB5BBFAB9CAD5CF00C8A1BBF5B5E7BB52
:101DD300FAB9CAD5CF00D3C3BBA7B5E7B6AFC3C55E
:101DE300B9CAD5CF00B5AFB1D2BBFAB9B9B9CAD563
:101DF300CF00B7C0B5C1C4A3BFE9B9CAD5CF00BB33
:101E0300F5B5BDBFD8D6C6C6F7B9CAD5CF00BBF5A1
:101E1300B5C0B4F3C3C5B9CAD5CF00D7B4CCACB23F
:101E2300E9D1AFB3ACCAB100B3F6BBF5C3FCC1EEA5
:101E3300B7A2CBCDCAA7B0DC00B3F6BBF5BDE1B901
:101E4300FBB2E9D1AFB3ACCAB100C6E4CBFBB9CAAC
:101E5300D5CF00CDA8D0C5B9CAD5CF0000000000AA
:101E6300000000000000000000000000000000006F
:101E7300000000000000000000000000000000005F
:101E8300000000000000000000000000312EB2E35B
:101E9300BCDCB1E0BAC53A00322ECAC7B7F1C6F40A
:101EA300D3C33A00332ED7EEB4F3B4E6BBF5C1BFC8
:101EB3003A00342EB5DAD2BBBBF5B5C03A00352EA5
:101EC300B5DAB6FEBBF5B5C03A00362EB5DAC8FDB5
:101ED300BBF5B5C03A00372EB5DACBC4BBF5B5C0F8
:101EE3003A00382EB5DACEE5BBF5B5C03A00392E47
:101EF300B5DAC1F9BBF5B5C03A0031302E20B5DAF9
:101F0300C6DFBBF5B5C03A0031312E20B5DAB0CB10
:101F1300BBF5B5C03A00C7EBCAE4C8EBC3DCC2EB00
:101F23003A00C3DCC2EBB4EDCEF3210025627500A9
:101F33002020200020002020202000CAE4C8EBB28B
:101F4300E3BCDCB1E0BAC53A00B1E0BAC5CAE4C843
:101F5300EBB4EDCEF300C7EBCAE4C8EBC6E4CBFCAD
:101F6300B1E0BAC500801E8F0B801E9B0B801EA79D
:101F73000D801EB50B801EC10B801ECD0B801ED99C
:101F83000B801EE50B801EF10B801EFD0D801F0BC9
:101F93000D801F190B801F2509000100010002009D
:101FA300010001000100010001000100010001A581
:101FB30075FF07758E0378FEE4F6D8FD758187A556
:101FC30075FB00759008A502801FF9A502806FE7D5
:101FD300E493A3F85407240CC8C333C4540F442018
:101FE300C8834004F456800146F6DFE4800B010207
:101FF30004081020408090115EE47E019360CCA31E
:10200300FF543F30E509541FFEE493A360010ECF54
:1020130054E0B4E01CE493FBA3E493FAA3E493F940
:10202300A3E493A558A309E970010ADFF4DEF28063
:10203300C854C025E060254097E493A3FAE493A332
:10204300F8E493A3C8C582C8CAC583CAF0A3C8C5A8
:1020530082C8CAC583CADFE9DEE7809DE493A3F89B
:10206300E493A34003F68001F208DFF4808B312E62
:10207300BBF5B5C0B1E0BAC53A2000322EC9CCC613
:10208300B7D3E0C1BF3A2000332EC9CCC6B7B1E005
:10209300BAC53A2000342EB5A5BCDB3A2000352E54
:1020A300BBF5B5C0D7B4CCAC3A200025303262754D
:1020B300002533627500253262750025750025758C
:1020C3002E25750025752E25303275002562750085
:1020D3008020710C80207E0C80208B0C802098083F
:1020E3008020A10CC2D5E830E70FB2D5E4C39BFB37
:1020F300E49AFAE499F9E498F8EC30E71BB2D5A531
:1021030012802123A512800B6AE4C39BFBE49AFA95
:10211300E499F9E498F88005A512800B6A30D50D8F
:10212300E4C39FFFE49EFEE49DFDE49CFCA5229096
:102133001F54E0FFA3E0FEA3E0CF901F5DF0A3EEEA
:10214300F0A3EFF0901F57E0CBF0A3E0CAF0A3E0B9
:10215300C9F07F22901F60AD82AC83A5488D828C2D
:1021630083F0A3A569DFF0901F57E0FBA3E0FAA378
:10217300E0F9A502800E5447423233313200574909
:102183004E31323532000D51961052640505050566
:102193000505050504040404080807FF01010101FE
:1021A3000101010102020202030306FF50505050D5
:1021B300505050501B1B1B1B0D0D18FF090909091B
:1021C300090909092E2E2E2E000048FF00000001E8
:1021D3000000000A00000064000003E8000027106C
:1021E300000186A0000F42400098968005F5E100AB
:1021F300080001009600000000000000000000003D
:1022030000000000000001000000000200030405BC
:10221300080001009600A5128088C09010CAE0FE55
:10222300A3E0FF901B4FEEF0A3EFF0E4A3F0A3F0C5
:10223300A3F09006CFE0B401139006CDE0FEA3E037
:10224300FF901B4FEE8FF0A512800AA1D3901B5075
:10225300E09400901B4FE0940050057F000225237B
:102263009010CC742CF07E007F147D007B007A06E6
:1022730079DAA512800DB19010CCE0FF25E025E0BE
:102283002478F582E43404F583E493901B51F0FD44
:102293007C00C004C005EF25E025E02475F582E449
:1022A3003404F583A512800D0C78DA7C067D00D00A
:1022B30007D006A5128009CE901B51E0FF24DAF562
:1022C30082E43406F5837420F0900490E0FCA3E0EC
:1022D300FDEC60030223E4ED24F6603D24A67003C5
:1022E300022378246360030223E474DB2FF9E434CC
:1022F30006FA7B00C003C002C0017B807A0379DC4D
:10230300901F5DA512800D02901B4FE0FFA3E0908C
:102313001F60CFF0A3EF0223D2901B51E024DBF91F
:10232300E43406FA7B00C003C002C0017B807A0359
:1023330079DF901F5DA512800D02900490E0FAA34F
:10234300E0FB901B4FE0FEA3E0FFAD03AC02A51240
:10235300800A0D901F60EEF0A3EFF0901B4FE0FE9C
:10236300A3E0FFAD03AC02A512800A0D901F62EC3F
:10237300F0A3ED805A901B51E024DBF9E43406FA14
:102383007B00C003C002C0017B807A0379E5901F04
:102393005DA512800D02900490E0FAA3E0FB901B70
:1023A3004FE0FEA3E0FFAD03AC02A512800A0D903F
:1023B3001F60EEF0A3EFF0901B4FE0FEA3E0FFAD34
:1023C30003AC02A512800A0D901F62ECF0A3EDF09E
:1023D300D001D002D003A512800E54901B51E02FE0
:1023E300F0901B51E004F0D2137B007A0679DA9067
:1023F3001DB0A512800D02901B51E0A512807B6BCE
:10240300900452E0FEA3E0FFC3901B50E09F901B9B
:102413004FE09E40509010CC7436F0D213E0FF256D
:10242300E025E02475F582E43404F583A512800DDC
:102433000C901DB0A512800D02EF25E025E0247855
:10244300F582E43404F583E493901DB3F07D01E455
:10245300FFA512807B729006CFE064017048A5123D
:1024630080879C80419010CC7404F0D213E0FF2548
:10247300E025E02475F582E43404F583A512800D8C
:102483000C901DB0A512800D02EF25E025E0247805
:10249300F582E43404F583E493901DB3F07D01E405
:1024A300FFA512807B7290149AE0B4011A90149CD9
:1024B300E0FCA3E0FDE4FFA5128085CCE490149A30
:1024C300F090149CF0A3F090149BE0B4011A9014C4
:1024D3009EE0FCA3E0FD7F01A5128085CCE490146F
:1024E3009BF090149EF0A3F09014A0E0B4011A9016
:1024F30014A2E0FCA3E0FD7F64A5128085CCE490E8
:1025030014A0F09014A2F0A3F09014A1E0B4010E73
:10251300A5128085C4E49014A1F0A3F0A3F07F007A
:10252300A522E4901B0EF0FE7F68FD7B007A047900
:1025330047A512800DB17E047F7B7D007B007A105E
:1025430079CFA512800DB19013047401F0A3F07E2E
:10255300027F297D007B007A0479AFA512800DB13B
:102563009006B77401F07E037F137D007B007A0D24
:10257300795AA512800DB1E47F64FEA512807473AD
:102583007E017F207D007B007A037926A512800DD2
:10259300B1D211E4901DABF0D212FDFFA512807AE7
:1025A300BFD211E4901DABF0D212FD7F01A51280C2
:1025B3007ABFD213900505A512800D0C901DB0A50E
:1025C30012800D02900508A512807B69D213900535
:1025D30001A512800D0C901DB0A512800D0290056F
:1025E30004E493901DB3F07D01E4FFA512807B7298
:1025F300E47F64FEA5128074737F00A522E4901B20
:102603000EF0A3F0FE7F14FD7B007A0679DAA512A3
:10261300800DB19010CC743CF09010CEE0FF7003AD
:102623000226BC7B807A04790F901F5DA512800D72
:10263300029010CCE025E025E02475F582E4340413
:10264300F583A512800D0C901F60A512800D0290DA
:102653001F63EFF07B007A0679DAA512800E54909F
:102663001B0FEFF0D2137B007A0679DA901DB0A529
:1026730012800D02EF04A512807B6B9010CEE0C395
:10268300940A50227F02A512807E92901B0FE0FFD6
:10269300D211901DAB7401F0D212E4FDA512807A21
:1026A300BF7F01022758D211E4901DABF0D2127DF7
:1026B30001FFA512807ABF8013D211E4901DABF005
:1026C300D2127D01FFA512807ABF8072A512807A93
:1026D300309010CEE0FFD394635005EF9400500C7C
:1026E300A512807B26A51280742D8052E4901B0EC8
:1026F300F0A3F0901B0FE0FFC39440502FEF25E0B1
:1027030025E02438F582E4342DF583E0FF9010CEE4
:10271300E0B50710901B0FE09010CEF0901B0E74E5
:1027230001F08008901B0FE004F080C7901B0EE0BF
:102733007021D211A512807B29A51280742DC21E8F
:10274300E490309FF09010CEF090154B7406F07F1C
:102753000180027F00A522EF24FE6011146015148E
:102763006019240370329010CC742A80269010CC08
:102773007439801F9010CC743A8018A51280A21D62
:10278300E47FC8FEA512807473A51280A21D901069
:10279300CC740EA512807B3C9010CC7419F0D2132C
:1027A300E0FF25E025E02475F582E43404F583A5F4
:1027B30012800D0C901DB0A512800D02EF25E025AF
:1027C300E02478F582E43404F583E493901DB3F0B8
:1027D3007D01E4FFA512807B72E47FD07E07FDFCC0
:1027E300901DE4F0A3F0A50280747BE4901B0EF02F
:1027F300301E0B90309FE060057F01022A26E49093
:1028030010CEF09006EEE07002A3E0700590024B4C
:1028130004F090024BE0640160030229E89012F493
:10282300E064016003022902C39012F3E094F49080
:1028330012F2E094015003022902E4F0A3F0901095
:10284300CC7434A512807B3CE47F32FEA5128074E5
:10285300739010CC742EF0D213E0FF25E025E02412
:1028630075F582E43404F583A512800D0C901DB038
:10287300A512800D02EF25E025E02478F582E434EB
:1028830004F583E493901DB3F07D01E4FFA512806A
:102893007B72E47F32FEA512807473A51280FFEA77
:1028A300EF64016003022A09D2139010CCE0FF25E4
:1028B300E025E02475F582E43404F583A512800D48
:1028C3000C901DB0A512800D02EF25E025E02478C1
:1028D300F582E43404F583E493901DB3F07D01E4C1
:1028E300FFA512807B72E47F32FEA512807473A56C
:1028F3001280FFEAEF64016003022A090229DA90D9
:1029030012F4E064016003022A09C39012F3E09415
:10291300FA9012F2E094005003022A099010CC744A
:1029230034A512807B3CE47F32FEA5128074739041
:1029330010CC742EF0D213E0FF25E025E02475F5CA
:1029430082E43404F583A512800D0C901DB0A5120A
:10295300800D02EF25E025E02478F582E43404F5C8
:1029630083E493901DB3F07D01E4FFA512807B7295
:10297300E47F32FEA512807473A51280FFEAEF6430
:10298300016003022A09D2139010CCE0FF25E02551
:10299300E02475F582E43404F583A512800D0C90D0
:1029A3001DB0A512800D02EF25E025E02478F58205
:1029B300E43404F583E493901DB3F07D01E4FFA5B3
:1029C30012807B72E47F32FEA512807473A512809D
:1029D300FFEAEF6401702F9006EEE04402F0A3E0FB
:1029E300F07F01803E90024BE0640160199014FC7B
:1029F300E0640160119010CC7410A512807B3C7FC1
:102A030002A512807E9290154BE004F0A51280B7C8
:102A1300F6BF01047F02800BE47F32FEA5128074AF
:102A2300737F01A522E4901B0EF0A3F0FE7F14FD3B
:102A33007B007A0679DAA512800DB19010CC743C34
:102A4300F09010CEE0FF7003022AE47B807A0479D1
:102A53000F901F5DA512800D029010CCE025E0259C
:102A6300E02475F582E43404F583A512800D0C90FF
:102A73001F60A512800D02901F63EFF07B007A06A2
:102A830079DAA512800E54901B0FEFF0D2137B005E
:102A93007A0679DA901DB0A512800D02EF04A51213
:102AA300807B6B9010CEE0C3940A50227F02A51264
:102AB300807E92901B0FE0FFD211901DAB7401F04A
:102AC300D212E4FDA512807ABF7F01022B80D211BE
:102AD300E4901DABF0D2127D01FFA512807ABF8076
:102AE30013D211E4901DABF0D2127D01FFA5128029
:102AF3007ABF8072A512807A309010CEE0FFD39413
:102B0300635005EF9400500CA512807B26A512801C
:102B1300742D8052E4901B0EF0A3F0901B0FE0FF86
:102B2300C39440502FEF25E025E02438F582E434A8
:102B33002DF583E0FF9010CEE0B50710901B0FE05A
:102B43009010CEF0901B0E7401F08008901B0FE0E4
:102B530004F080C7901B0EE07021D211A512807B78
:102B630029A51280742DC21EE490309FF09010CEE0
:102B7300F090154B7406F07F0180027F00A522E4DC
:102B8300901B0EF0A3F0A3F0A3F0A3F0A3F0A3F027
:102B930078197C1B7D007B807A057971FE7F02A505
:102BA300128009CEE4901B1BF09006CFE0B401180D
:102BB3009006CDE0FEA3E0FF9010CBE02FFF901036
:102BC300CAE03E901B0F800B9010CAE0FFA3E09079
:102BD3001B0FCFF0A3EFF09010CEE075F00790003D
:102BE3000AA512800CEBE0FEA3E0FF901B0FE0FCB4
:102BF300A3E0FDD3EF9DEE9C5003022D8C9010CCEF
:102C03007433A512807B3C9010CC7427F090049011
:102C1300E0FEA3E0FFEE6003022D6FEF24F66057A2
:102C230024A67003022CED24636003022D6F7B80C6
:102C33007A047915901F5DA512800D029010CCE0E7
:102C430025E025E02475F582E43404F583A512809C
:102C53000D0C901F60A512800D029010CEE075F050
:102C63000790000AA512800CEBE0FFA3E0901F631E
:102C7300CFF0A3EF022D5E7B807A04791B901F5D5A
:102C8300A512800D029010CCE025E025E02475F517
:102C930082E43404F583A512800D0C901F60A51205
:102CA300800D029010CEE075F00790000AA5128007
:102CB3000CEBE0FAA3E0FB900490E0FCA3E0FDAF93
:102CC30003AE02A512800A0D901F63EEF0A3EFF08E
:102CD300900490E0FCA3E0FDAF03AE02A512800ACE
:102CE3000D901F65ECF0A3ED80717B807A0479244D
:102CF300901F5DA512800D029010CCE025E025E029
:102D03002475F582E43404F583A512800D0C901F1D
:102D130060A512800D029010CEE075F00790000AB6
:102D2300A512800CEBE0FAA3E0FB900490E0FCA377
:102D3300E0FDAF03AE02A512800A0D901F63EEF013
:102D4300A3EFF0900490E0FCA3E0FDAF03AE02A577
:102D530012800A0D901F65ECF0A3EDF07B007A065C
:102D630079DAA512800E54901B0EEFF0D2137B007C
:102D73007A0679DA901DB0A512800D02901B0EE041
:102D8300901DB3F07D01E4807490042DE0700890F1
:102D93000441E0640170749010CEE075F007900078
:102DA3000AA512800CEBE0FEA3E0FFD39400EE949F
:102DB300004058901B0FE0FCA3E0FDEF6D7002EEA6
:102DC3006C60489010CC7401F0D213E0FF25E0252D
:102DD300E02475F582E43404F583A512800D0C908C
:102DE3001DB0A512800D02EF25E025E02478F582C1
:102DF300E43404F583E493901DB3F0E4FDFFA512DE
:102E0300807B72E47FDC7E05022F259010CEE07577
:102E1300F00790000AA512800CEBE0FEA3E0FF9000
:102E230010CAE0FCA3E0FDD3EF9DEE9C5003022EFD
:102E3300C2EF9DFFEE9C901B15F0A3EFF09006CF21
:102E4300E064016003022F3B901B15E0FEA3E0FF4B
:102E5300C39006CEE09FFF9006CDE09EFE901B152B
:102E6300F0A3EFF0A3EEA51280C633901B14EFF08E
:102E73006018901B1B7401F0901B17E0FFA3E090F8
:102E830014A4CFF0A3EFF0022F3B9010CC743BA51A
:102E930012807B3C9010CC7419F0D2137B807A049F
:102EA300792F901DB0A512800D02901DB37401F00F
:102EB300FDE4FFA512807B72E47FD07E07806390E0
:102EC30010CEE075F00790000AA512800CEBE0FE2F
:102ED300A3E0FFC39010CBE09FFF9010CAE09EFEDB
:102EE300901B15A51280C633901B14EFF070499008
:102EF30010CC743BA512807B3C9010CC7419F0D29B
:102F0300137B807A04792F901DB0A512800D029057
:102F13001DB37401F0FDE4FFA512807B72E47FD042
:102F23007E07A512807473E49010CEF09012F7E040
:102F33004401F07F010231489006CFE06401600351
:102F430002313E901B1BE06401600302313E7F01AE
:102F5300A512808685901B13EFF060030231049065
:102F630012E2F0A37405F09012E2E07002A3E070A5
:102F73000302301AA51280C973901B14EFF0640189
:102F83006003023012A51280B68D90149B7401F079
:102F9300901B11E0FEA3E0FF90149EEE8FF0A512AC
:102FA300800AA17E007F247D007B007A03794EA5F1
:102FB30012800DB1E4900426F0900428F090042BC5
:102FC300F09006CFF09006CDF0A3F090149AE0B401
:102FD300011A90149CE0FCA3E0FDE4FFA512808598
:102FE300CCE490149AF090149CF0A3F090149BE01E
:102FF300B4012490149EE0FCA3E0FD7F01A51280A0
:1030030085CCE490149BF090149EF0A3F08008A567
:1030130012806E0C022F6A9012E2E07002A3E0604D
:103023000302313EA51280746FA51280BEFB90048B
:1030330042E0640160030230CAA51280B68D901489
:103043009B7401F0901B11E0FEA3E0FF90149EEE31
:103053008FF0A512800AA17E007F247D007B007A79
:1030630003794EA512800DB1E4900426F090042854
:10307300F090042BF09006CFF09006CDF0A3F090E3
:10308300149AE0B4011A90149CE0FCA3E0FDE4FF61
:10309300A5128085CCE490149AF090149CF0A3F0D0
:1030A30090149BE06401600302313E90149EE0FCA7
:1030B300A3E0FD7F01A5128085CCE490149BF090E2
:1030C300149EF0A3F08074A5128085A5E49014A14A
:1030D300F0A3F0A3F0A51280221E9010CEE075F0AD
:1030E3000790000AA512800CEBE0FEA3E0FF90100E
:1030F300CAE0FCA3E0FDD3EF9DEE9C403E7F018040
:1031030044A5128085A5E49014A1F0A3F0A3F0A533
:103113001280221E9010CEE075F00790000AA512CF
:10312300800CEBE0FEA3E0FF9010CAE0FCA3E0FDFF
:10313300D3EF9DEE9C40047F01800AE49006CCF01F
:103143009006C6F0FFA5227F01901B17EFF0E4A3C2
:10315300F0A3F0A3F0A3F0A3F0A51280800F9006D4
:10316300CFE0B401189006CDE0FEA3E0FF9010CBB2
:10317300E02FFF9010CAE03E901B1B800B9010CAFB
:10318300E0FFA3E0901B1BCFF0A3EFF09014FB74C0
:1031930001F0901B17E060030232CD9010CC741441
:1031A300A512807B3C7E007F147D007B007A06792C
:1031B300DAA512800DB1900490E0FEA3E0FFEE606B
:1031C300030232CAEF24F6603D24A6700302326282
:1031D300246360030234257B807A047931901F5D78
:1031E300A512800D02900525A512800D0C901F607D
:1031F300A512800D02901B1BE0FFA3E0901F63CF7D
:10320300F0A3EF0232B97B807A047936901F5DA573
:1032130012800D02900525A512800D0C901F60A54C
:1032230012800D02900490E0FAA3E0FB901B1BE0D8
:10323300FEA3E0FFAD03AC02A512800A0D901F634D
:10324300EEF0A3EFF0901B1BE0FEA3E0FFAD03AC99
:1032530002A512800A0D901F65ECF0A3ED80577B49
:10326300807A04793E901F5DA512800D029005259A
:10327300A512800D0C901F60A512800D0290049082
:10328300E0FAA3E0FB901B1BE0FEA3E0FFAD03AC61
:1032930002A512800A0D901F63EEF0A3EFF0901BBE
:1032A3001BE0FEA3E0FFAD03AC02A512800A0D9064
:1032B3001F65ECF0A3EDF07B007A0679DAA51280A6
:1032C3000E54901B19EFF0023425901B17E0640293
:1032D30060030234759010CC7414A512807B3C7E7D
:1032E300007F147D007B007A0679DAA512800DB188
:1032F300900490E0FEA3E0FFEE6003023425EF2488
:10330300F6603A24A670030233A9246360030234EF
:10331300257B807A047948901F5DA512800D029069
:10332300053DA512800D0C901F60A512800D029023
:103333000F69A512800C58901F630234107B807AAA
:1033430004794E901F5DA512800D0290053DA512D4
:10335300800D0C901F60A512800D02900490E0FE7A
:10336300A3E0FFFBAA06E4F9F8900F69A512800C0D
:1033730058A512800B6A901F63A512800CDE90047F
:1033830090E0FEA3E0FFFBAA06E4F9F8900F69A51D
:1033930012800C58A512800B6AAC00AD01AE02AFCF
:1033A30003901F6780677B807A047958901F5DA51F
:1033B30012800D0290053DA512800D0C901F60A593
:1033C30012800D02900490E0FEA3E0FFFBAA06E446
:1033D300F9F8900F69A512800C58A512800B6A901A
:1033E3001F63A512800CDE900490E0FEA3E0FFFBB8
:1033F300AA06E4F9F8900F69A512800C58A512806B
:103403000B6AAC00AD01AE02AF03901F67A512803B
:103413000CDE7B007A0679DAA512800E54901B1914
:10342300EFF0D2137B007A0679DA901DB0A51280F3
:103433000D02901B19E0901DB3F07D01E4FFA5126E
:10344300807B72E47F64FEA5128074739010CEE0DB
:10345300FF9014B8F0E4A3F075F007EF90000AA50D
:1034630012800CEBE0FFA3E09014BACFF0A3EFF0CF
:10347300802A901B17E0640170229010CC7414A56D
:1034830012807B3C7F02A512807E92E47F64FEA5BE
:10349300128074739014B8E09010CEF0E49014B7D7
:1034A300F09010CEE025E025E02438F582E4342DB9
:1034B300F583E0FF7D50A51280D949901B18EFF0EA
:1034C300E4FD7F01A51280F1C0901B18E0A51280D6
:1034D3000D1934F1003802013802023A17033A1782
:1034E3000434F1053A17073A730800003AF5901BC4
:1034F30017E06003B402219010CEE075F00790004E
:103503000AA512800CEBE0FEA3E0FFC39010CBE012
:103513009FF09010CAE09EF0901B17E0B401229038
:1035230014BAE0FEA3E0FF9010CAE0FCA3E0FDC3E1
:103533009FEC9E400CED9FFFEC9E9010CAF0A3EF12
:10354300F09010CC741AA512807B3C901B17E0609E
:10355300030236D2A512809449EF702790044FE0FE
:10356300B40116B4011DA3E0FEA3E0FFC39010CB8A
:10357300E09F9010CAE09E500A7F02A512807E92BF
:103583000236D27E007F147D007B007A0679DAA5AD
:1035930012800DB1900490E0FEA3E0FFEE60030201
:1035A30036A8EF24F6603D24A67003023640246358
:1035B30060030236A87B807A047931901F5DA512DF
:1035C300800D02900525A512800D0C901F60A51299
:1035D300800D02901B1BE0FFA3E0901F63CFF0A3BD
:1035E300EF0236977B807A047936901F5DA51280AF
:1035F3000D02900525A512800D0C901F60A5128069
:103603000D02900490E0FAA3E0FB901B1BE0FEA3E5
:10361300E0FFAD03AC02A512800A0D901F63EEF02C
:10362300A3EFF0901B1BE0FEA3E0FFAD03AC02A5EC
:1036330012800A0D901F65ECF0A3ED80577B807A12
:1036430004793E901F5DA512800D02900525A512F9
:10365300800D0C901F60A512800D02900490E0FA7B
:10366300A3E0FB901B1BE0FEA3E0FFAD03AC02A5B0
:1036730012800A0D901F63EEF0A3EFF0901B1BE086
:10368300FEA3E0FFAD03AC02A512800A0D901F65F7
:10369300ECF0A3EDF07B007A0679DAA512800E54E4
:1036A300901B19EFF0D2137B007A0679DA901DB0E4
:1036B300A512800D02901B19E0901DB3F07D01E46B
:1036C300FFA512807B72E47FC8FEA51280747390FD
:1036D30010CEE0FF75F007900009A512800CEB7483
:1036E30001F075F007EF90000CA512800CEBE0D30E
:1036F300940040399010CEE0FF75F00790000CA5C0
:1037030012800CEBE014F075F007EF90000CA5129B
:10371300800CEBE070129010CEE075F0079000097A
:10372300A512800CEB7405F0A51280746EA51280AF
:10373300F7DEA51280AFDF901B17E0B401059014EC
:10374300BF80039014BEA5128155C7E49014B7F04F
:10375300901508E0B4013D9010B2A512800C58EF0B
:103763002401FFE43EFEE43DFDE43CFC9010B2A5E1
:1037730012800CDE9010B6A512800C769014BAE07D
:10378300FEA3E0FFE4FCFDA512800ACF9010B6A5CE
:1037930012800CDE9010CEE075F00790000CA5129D
:1037A300800CEBE0901B22F09014B8E0FDA3E0FB4B
:1037B300A3E0FFA3E0901B20CFF0A3EFF09014B79A
:1037C300E0FFA51281631AA51280A92E9012DCE4F2
:1037D300F0A37464F09012DCE07002A3E0601BA518
:1037E300128087C35008E4FDFFA51280A243A512EF
:1037F30080F1E3901B1AEFF080DB7F00023B2A90FD
:1038030010CC741CA512807B3C9010CEE0FF75F0A9
:103813000790000CA512800CEBE0D3940040369087
:1038230010CEE0FE75F00790000CA512800CEBE0C3
:1038330014F075F007EE90000CA512800CEBE0700D
:103843000F75F007EF900009A512800CEB7405F0DB
:10385300A51280746EA512816507901B17E0FF60A7
:1038630007640260030239E8A512809449EF6401FA
:1038730060030239BBFE7F14FD7B007A0679DAA56B
:1038830012800DB1900490E0FEA3E0FFEE6003020E
:103893003998EF24F6603D24A6700302393024637F
:1038A30060030239987B807A047931901F5DA512F9
:1038B300800D02900525A512800D0C901F60A512A6
:1038C300800D029010CAE0FFA3E0901F63CFF0A326
:1038D300EF0239877B807A047936901F5DA51280C9
:1038E3000D02900525A512800D0C901F60A5128076
:1038F3000D02900490E0FAA3E0FB9010CAE0FEA34F
:10390300E0FFAD03AC02A512800A0D901F63EEF039
:10391300A3EFF09010CAE0FEA3E0FFAD03AC02A555
:1039230012800A0D901F65ECF0A3ED80577B807A1F
:1039330004793E901F5DA512800D02900525A51206
:10394300800D0C901F60A512800D02900490E0FA88
:10395300A3E0FB9010CAE0FEA3E0FFAD03AC02A519
:1039630012800A0D901F63EEF0A3EFF09010CAE0EF
:10397300FEA3E0FFAD03AC02A512800A0D901F6504
:10398300ECF0A3EDF07B007A0679DAA512800E54F1
:10399300901B19EFF0D2137B007A0679DA901DB0F1
:1039A300A512800D02901B19E0901DB3F07D01E478
:1039B300FFA512807B7280077F02A512807E92E4AE
:1039C3007FE87E03A5128074739010CAE0FFA3E022
:1039D3009006D8CFF0A3EFF0E49010CAF0A3F0FF65
:1039E300A512803B49A51280F7DEA51280AFDFA5A3
:1039F3001280A92E901B17E0B401059014BF800319
:103A03009014BEE0FFA5128155C9A5128162E97F1A
:103A130002023B2A9010CC741CA512807B3C9010B0
:103A2300CEE0FF75F007900009A512800CEB74033C
:103A3300F075F007EF90000CA512800CEBE4F0A5F5
:103A43001280746FA51280F7DEA512816507901BA3
:103A530017E0B401059014BF80039014BEE0FFA5E6
:103A6300128155C9A5128162E9E47FC47E09807978
:103A73009010CC741CA512807B3C9010CEE0FF7597
:103A8300F00790000CA512800CEBE0D394004036B5
:103A93009010CEE0FE75F00790000CA512800CEBA1
:103AA300E014F075F007EE90000CA512800CEBE02B
:103AB300700F75F007EF900009A512800CEB7405E9
:103AC300F0A51280746EA51280F7DE901B17E0B488
:103AD30001059014BF80039014BEA5128155C7A59C
:103AE300128162E9E47FE87E03A5128074737F008C
:103AF30080359010CEE075F00790000CA512800C75
:103B0300EBE0901B22F09014B8E0FDA3E0FBA3E0F0
:103B1300FFA3E0901B20CFF0A3EFF09014B7E0FFDA
:103B2300A51281631A7F00A5229014AAE0FFA3E0E7
:103B33009006D8CFF0A3EFF0E49014AAF0A3F0A579
:103B43001280800F7F01901B26EFF0E4A3F0A3F017
:103B5300A3F0A3F0A3F0A3F0A3F0A304F0A3F0A3B6
:103B6300F0E4A3F0A3F0901B34F0A3F0A3F0A3F0D0
:103B730078387C1B7D007B807A057986FE7F02A5E1
:103B8300128009CEE4901B3AF0A3F0A3F0A3F0A3B4
:103B9300F07FF47E01A512807473E4FD7F02A51209
:103BA30080F1C0E47F64FEA512807473A512808740
:103BB3009CA51280CF5D9010CC741BA512807B3C1A
:103BC300E47F32FEA5128074737E007F147D007B38
:103BD300007A0679DAA512800DB1900490E0FEA375
:103BE300E0FFEE6003023CEEEF24F6603D24A67096
:103BF30003023C8624636003023CEE7B807A0479F3
:103C030031901F5DA512800D02900521A512800D34
:103C13000C901F60A512800D029006D8E0FFA3E070
:103C2300901F63CFF0A3EF023CDD7B807A047936EB
:103C3300901F5DA512800D02900521A512800D0C29
:103C4300901F60A512800D02900490E0FAA3E0FBA0
:103C53009006D8E0FEA3E0FFAD03AC02A512800AF4
:103C63000D901F63EEF0A3EFF09006D8E0FEA3E003
:103C7300FFAD03AC02A512800A0D901F65ECF0A303
:103C8300ED80577B807A04793E901F5DA512800DED
:103C930002900521A512800D0C901F60A512800DC6
:103CA30002900490E0FAA3E0FB9006D8E0FEA3E0C4
:103CB300FFAD03AC02A512800A0D901F63EEF0A3C3
:103CC300EFF09006D8E0FEA3E0FFAD03AC02A5122F
:103CD300800A0D901F65ECF0A3EDF07B007A067966
:103CE300DAA512800E54901B2DEFF0D2137B007ACD
:103CF3000679DA901DB0A512800D02901B2DE0907D
:103D03001DB3F07D01E4FFA512807B72E47F32FED8
:103D1300A5128074739012F67401F0E4901494F079
:103D2300A3F0A3F0A3F09006D8E0FEA3E0FF7C008D
:103D33007D0AA512800A0D901B34EEF0FCA3EFF070
:103D4300FD7B007A1B7938A51280C650901B33EF98
:103D5300F064016003023F62901B2DF0901B2DE085
:103D6300FFC394024003023F6274382FF582E434A8
:103D73001BF583E07003023F59901B2DE02438F5B7
:103D830082E4341BF583E07003023F59D3940F4060
:103D93001A901B3A740FF0901B2DE02438F582E43F
:103DA300341BF583E0C3940FF08023901B2DE0FFB9
:103DB3002438F582E4341BF583E0FE901B3AF0FDD2
:103DC30074382FF582E4341BF583C3EE9DF0901B0A
:103DD3002DE07009901B3AE0FD7F01800E901B2DB2
:103DE300E0B40111901B3AE0FDE4FFA51280CC5131
:103DF300901B33EFF0E47FE87E03A5128074739089
:103E03001B33E06003023F32901B3AE02414FEE4CC
:103E1300339014F5F0A3CEF09014F5E07002A3E014
:103E23007003023D7C7B007A1B7936A51280CDA6F8
:103E3300901B33EFF06003023F217B007A04792764
:103E4300901D8BA512800D027A037972A51280CD85
:103E5300EA901B33EFF0BF01BF900372E0F9D394F4
:103E6300004052E9FF7E0090043AEEF0A3EFF07CAD
:103E7300007D32A5128009FA901494EEF0FCA3EFB2
:103E8300F0FD901B3BEC8DF0A512800AA17B007A1C
:103E9300107986A51280B6C3901494E0FCA3E0FDCC
:103EA300C39006D9E09DF09006D8E09CF07B007AA1
:103EB30010798A805A900373E0F9D394004055E94E
:103EC300FF7E0090043CEEF0A3EFF07C007D64A540
:103ED300128009FA901496EEF0FCA3EFF0FD901B0C
:103EE3003DEC8DF0A512800AA17B007A10798EA596
:103EF3001280B6C3901496E0FCA3E0FDC39006D9EC
:103F0300E09DF09006D8E09CF07B007A107992A5B2
:103F13001280B6C3E49014F5F0A3F0023E1B7FE8D1
:103F23007E03A512806E10A5128087D2023E1B90DD
:103F33001B33E064806003023D7C901B37E004F098
:103F4300E0C394034003023D7CE47F2C7E01A51271
:103F5300807473023D29901B2DE004F0023D5F90B5
:103F630006D8E0FEA3E0FFD39400EE940040469011
:103F73001B317401F0D3EF9430EE94754016900426
:103F8300587401F074FF9F900457F074FF9E9004DF
:103F930056F0801DE4900458F09006D8E0FAA3E0B0
:103FA300FB900456EAF0A3EBF0E4FDFFA512816257
:103FB30062D2218005E4901B31F0901B26E0901B18
:103FC3003B6014E0FCA3E0FDA3E0FAA3E0FBE4FF05
:103FD300A51281607C8012E0FCA3E0FDA3E0FAA3BC
:103FE300E0FBE4FFA51281613DE4901494F0A3F09B
:103FF300A3F0A3F0901B31E070030241BFA5128030
:10400300FF4C9010CC7401A512807B3C9010CC74B3
:1040130020F07E007F147D007B007A0679DAA512FA
:10402300800DB19010CCE0FF25E025E02478F582E7
:10403300E43404F583E493FD7C00C004C005EF255C
:10404300E025E02475F582E43404F583A512800DA0
:104053000C78DA7C067D00D007D006A5128009CE45
:104063009010CCE025E025E02478F582E43404F5D3
:1040730083E493901B2DF0900490E0FEA3E0FFEE09
:104083006003024195EF24F6604024A670030241C9
:104093002924636003024195901B2DE024DAF9E49F
:1040A3003406FA7B00C003C002C0017B807A037927
:1040B300DC901F5DA512800D02900456E0FFA3E083
:1040C300901F60CFF0A3EF024183901B2DE024DA11
:1040D300F9E43406FA7B00C003C002C0017B807A96
:1040E3000379DF901F5DA512800D02900490E0FA22
:1040F300A3E0FB900456E0FEA3E0FFAD03AC02A5F2
:1041030012800A0D901F60EEF0A3EFF0900456E0CA
:10411300FEA3E0FFAD03AC02A512800A0D901F625F
:10412300ECF0A3ED805A901B2DE024DAF9E4340679
:10413300FA7B00C003C002C0017B807A0379E5905B
:104143001F5DA512800D02900490E0FAA3E0FB909E
:104153000456E0FEA3E0FFAD03AC02A512800A0DF6
:10416300901F60EEF0A3EFF0900456E0FEA3E0FF93
:10417300AD03AC02A512800A0D901F62ECF0A3ED13
:10418300F0D001D002D003A512800E54901B2DE075
:104193002FF0D2137B007A0679DA901DB0A5128036
:1041A3000D02901B2DE0901DB3F07D01E4FFA512DD
:1041B300807B727FD07E07A512806E107FF47E0114
:1041C300A512806E10A51280BDD4900438E0FEA322
:1041D300E0FF9014A6EEF0A3EFF0E49014A4F0A394
:1041E300F0900492E06401601690042DE07010C317
:1041F300EF94F4EE940140079006EFE054F7F07F5C
:1042030000A522E4901B0EF0A51280A92E9006EFC4
:10421300E04440F09010C9E04401F09010CC740DDC
:10422300A512807B3C7F01A522E4901B17F0A3F02D
:10423300A3F0A51280A21DE47FC8FEA512807473AB
:10424300A51280A21DE49030A6F0900006F0900421
:104253004EE0B40105A51280800F90024B7402F06A
:10426300301F07A512808814C21F901AE77401F04B
:10427300E49006EEF0A3F09012FCF0FBFAFD7F054C
:10428300A512815255A51280F1BC9015077401F057
:10429300A512815CAAA512813926A512804554A5D1
:1042A30012808F3440EF9012FD7401F09012FCF0F5
:1042B300E4FBFAFD7F06A512815255E4FD7F05A5B7
:1042C3001280F1C0E4901507F0A51280BDD4E490EC
:1042D30006CFF09006CDF0A3F0901AE7F0D213903A
:1042E30004BDA512800D0C901DB0A512800D029087
:1042F30004C0A512807B69D2137B807A04792F9046
:104303001DB0A512800D02901DB37401F0FDE4FFF2
:10431300A512807B72A512807A3090024B7401F053
:10432300E49006EEF0A3F0D21D201F07A512807FB4
:10433300E9D21FA512808FD3A51280B625BF020E26
:104343009006EFE04440F09010C9E04401F0E4909F
:10435300154BF0900446F09001C8F0A3F0A512812C
:1043630037D7901B18EEF0A3EFF07F00A522E4905F
:104373001B0EF0A3F0A3F0901B25F0901505E06051
:104383000302444A9006CFE064017053FFA51280F4
:104393008685901B25EFF09014A17401F09006CD53
:1043A300E0FFA3E09014A2CFF0A3EFF0E49006CFD8
:1043B300F09006CDF0A3F09014A1E0B4010EA51285
:1043C3008085C4E49014A1F0A3F0A3F0901B25E032
:1043D30070028001E49006CFF09006CDF0A3F09038
:1043E30010CAE0FEA3E0FFD39400EE94004027A59B
:1043F300128085FF7E007F247D007B007A03797223
:10440300A512800DB17E007F247D007B007A0379A5
:104413004EA512800DB19014FBE0B40102E4F090BC
:1044230006CFE064016005A512808683A512808013
:104433000FE49014E5F090150504F0901504E07076
:104443000604A512815CA97E007F147D007B007A9F
:104453001B7911A512800DB19006EEE0FEA3E0FFDB
:1044630030E608901B0F74F7F08051EF30E70890A7
:104473001B0F74F8F08045EE30E008901B0F74F9C1
:10448300F08039EE30E108901B0F74FAF0802DEEC6
:1044930030E408901B0F74FDF08021EE30E50E90A0
:1044A3001B107470F0901B0F7402F0800FEE901BC2
:1044B3000F30E60574E1F0800374FFF0901B0FE00A
:1044C3009014FDF09010CDE070759010CC7410A591
:1044D30012807B3CE47F14FEA5128074737B807A88
:1044E300047964901F5DA512800D02901B10E0906B
:1044F3001F60F0901B0FE0901F61F07B007A1B7927
:1045030011A3A512800D027A0679DAA512800E5442
:10451300901B0EEFF0D2137B007A0679DA901DB070
:10452300A512800D02901B0EE0901DB3F07D01E4F7
:10453300FFA512807B72E47F14FEA5128074739032
:104543000005E004F0E0C394024002E4F07F01A51B
:1045530022E4901B1CF0D20FA3F0A3F0024C769040
:104563001B1DE06003024C86F0D20FA512807A3047
:10457300D213901D2BA512800D0C901DB0A5128097
:104583000D02901D2EA512807B69D213901D2FA5BD
:1045930012800D0C901DB0A512800D02901D32E407
:1045A30093901DB3F07D01E4FFA512807B72A512E9
:1045B300807AB1901B1A7401F0A304F0200F030258
:1045C3004975A51280A512901B1EEFF024F370030A
:1045D30002475B24F2700302475624CB7003024662
:1045E300AA24086003024952901B1BE06402702D49
:1045F300D211901DAB7402F0D212E4FDFFA512801C
:104603007ABF901B1B7401F0901B1AE07006740DA7
:10461300F0024952901B1AE014F0024952D213904F
:104623001B1AE0FF25E025E0242BF582E4341DF579
:1046330083A512800D0C901DB0A512800D02EF25ED
:10464300E025E0242EF582E4341DF583E493901DE8
:10465300B3F07D01E4FFA512807B72901B1AE0701A
:1046630005740DF08006901B1AE014F0D213901B12
:104673001AE0FF25E025E0242BF582E4341DF583C1
:10468300A512800D0C901DB0A512800D02EF25E040
:1046930025E0242EF582E4341DA512807B67901B50
:1046A3001B7401F0024952901B1BE06401701AA5B0
:1046B30012807AB1901B1AE0B40D05E4F002474D65
:1046C300901B1AE004F002474DD213901B1AE0FF2F
:1046D30025E025E0242BF582E4341DF583A5128023
:1046E3000D0C901DB0A512800D02EF25E025E024EE
:1046F3002EF582E4341DA512807B67901B1AE0B46B
:104703000D04E4F08006901B1AE004F0D213901B12
:104713001AE0FF25E025E0242BF582E4341DF58320
:10472300A512800D0C901DB0A512800D02EF25E09F
:1047330025E0242EF582E4341DF583E493901DB324
:10474300F07D01E4FFA512807B72901B1B7402F0C5
:10475300024952C20F024952C211E4901DABF0D27A
:1047630012FDFFA512807ABFA512807A30901B1A22
:10477300E0A512800D1947A70047AE0147B50247D0
:10478300BC0347C30447C70547CE0647D50747DEE3
:104793000847E50947EC0A47F30B47FA0C48010DB4
:1047A30000004806A5128116EB8058A51280FD1E55
:1047B3008051A512804FF9804AA512807EC880439C
:1047C3007F018010A5128169A88038A5128075AE7B
:1047D30080317F02A5128167518028A51280EF5591
:1047E3008021A512811596801AA51280648D8013ED
:1047F300A51280AB8F800CA51280AFE18005A512B6
:1048030081660A901B1BE06402600302489D901BB3
:104813001AE07017D213901D5FA512800D0C901D26
:10482300B0A512800D02901D62802FD213901B1A27
:10483300E0FF25E025E02427F582E4341DF583A578
:1048430012800D0C901DB0A512800D02EF25E025FE
:10485300E0242AF582E4341DF583A512807B69D216
:1048630013901B1AE0FF25E025E0242BF582E434A6
:104873001DF583A512800D0C901DB0A512800D02AD
:10488300EF25E025E0242EF582E4341DF583E4933F
:10489300901DB3F07D01E4024930901B1AE0B40D82
:1048A30017D213901D2BA512800D0C901DB0A512CD
:1048B300800D02901D2E802FD213901B1AE0FF252E
:1048C300E025E0242FF582E4341DF583A512800D45
:1048D3000C901DB0A512800D02EF25E025E02432D7
:1048E300F582E4341DF583E493901DB3F07D01E478
:1048F300FFA512807B72D213901B1AE0FF25E025DF
:10490300E0242BF582E4341DF583A512800D0C9071
:104913001DB0A512800D02EF25E025E0242EF582BF
:10492300E4341DF583E493901DB3F0E4FDFFA51279
:10493300807B72901B1BE014FDD211901DAB74029F
:10494300F0D212E4FFA512807ABFA512807A30A5B7
:10495300128073027F0A7E00A512806E969012DA8F
:10496300E07002A3E060030245BFA51280F1B40228
:1049730045BFE47F2C7E01FDFC901DE47415F0A37C
:104983007450F0A51280747BA51280DFB9D211E4B4
:10499300901DABF0D212FDFFA512807ABFD211E4B5
:1049A300901DABF0D212FD7F01A512807ABF90302B
:1049B300B2E0700330244ED2137B807A1C79F990D5
:1049C3001DB0A512800D02901DB3740AA512807B41
:1049D3006ED2137B807A1D7904901DB0A512800DD1
:1049E30002901DB37401F0FDE4FFA512807B72E415
:1049F3007FC47E09FDFC901DE47415F0A37450F090
:104A0300A51280747B9030B2E07003024AE6A512CF
:104A130080FFACE47F64FEA512807473A51280F757
:104A2300DEE47F64FEA5128074737E017FC07D0087
:104A33007B007A1B791FA512800DB17F807E027DDA
:104A4300087C0075371B75381F753901753AC0A589
:104A530012809C7CE4901B1CF0901B1CE0FF75F003
:104A630007901B23A512800CEBE0FE75F007EF9077
:104A7300000CA512800CEBE06E7057901B1CE075C8
:104A8300F007901B20A512800CEBE0FE75F007EFFA
:104A9300900009A512800CEBE0B50636901B1CE0D4
:104AA30075F007901B21A512800CEBE0FCA3E0FD41
:104AB30075F007EF90000AA512800CEBE0FEA3E06F
:104AC300B5050FEEB5040B901B1CE004F0E0644049
:104AD3007087901B1CE064406004A37401F0E490B1
:104AE30030B2F0202403024BDAA51280FF4CE47F9E
:104AF30064FEA5128074737E007F687D007B007A5C
:104B03001C79DFA512800DB17F807E017D087C00BA
:104B130075371C7538DF753900753A68A512809CA6
:104B23007C901CDFE0FF900447E06F6003024BD2F0
:104B3300901CE0E0FEA3E0FF900448E06E7003A346
:104B4300E06F6003024BD2901CE2E0FEA3E0FF9013
:104B5300044AE06E7003A3E06F7074901CE4E0FEFF
:104B6300A3E0FF90044CE06E7003A3E06F706090CD
:104B73001CE6E0FF90044EE06F7054901CE7E0FFEA
:104B830090044FE06F7048901CE8E0FEA3E0FF90B4
:104B93000450E0B50639A3E0B50734901CEAE0FE03
:104BA300A3E0FF900452E0B50625A3E0B5072090EB
:104BB3001CEEE0FEA3E0FF900456E0B50611A3E06F
:104BC300B5070C901D46E0FF9004AEE06F600690C1
:104BD3001B1D7401F0C224901B1DE07003024C7D69
:104BE300A512807A30D2137B807A1D7906901DB08E
:104BF300A512800D02901DB37413A512807B6ED293
:104C0300137B807A1D791A901DB0A512800D029036
:104C13001DB37410F07D01E4FFA512807B72903008
:104C2300AB740FF0E4901B1CF09030ABE0603BA53D
:104C330012807307A51280A512901B1EEFF0F4607B
:104C4300E8901B1EE024E56010240E70DCE4901B4A
:104C53001DF0901B1C04F0800A901B1D7401F09042
:104C63001B1CF0901B1CE0B401BF9030ABE0600351
:104C7300024562901B1DF0024562901B1D7401F0FA
:104C8300024562A502807A30901D62EDF0901D61AD
:104C9300EFF0E4901D63F0901D84F0EF24FD601DA0
:104CA30014602514603514605124FC606624086088
:104CB30003024D3890042CE030E075806B90042D96
:104CC300E030E0028062806890042DE030E00280F2
:104CD30057E4901D63F0900434801190042DE0306C
:104CE300E0028044E4901D63F0900436E0FFA3E00B
:104CF300901D82CFF0A3EFF0803B9010BEE0FF54F5
:104D0300066008901D637403F0802AEF30E0028090
:104D130017801D9010C7E0FF30E708901D637402F1
:104D2300F08012EF54036008901D637401F0800556
:104D3300E4901D63F0301103024F7A901D61E0FF90
:104D430025E025E02481F582E43409F583E493FD2D
:104D53007C00C004C005EF25E025E0247EF582E455
:104D63003409F583A512800D0C78647C1D7D00D079
:104D730007D006A5128009CE901D61E0FF64046090
:104D830008EF64056003024ED7901D63E0600302E1
:104D93004ED7900490E0FEA3E0FFEE6003024E7452
:104DA300EF24F6602A24A6606F24636003024E7426
:104DB3007B807A0879FD901F5DA512800D02901DFE
:104DC30082E0FFA3E0901F60CFF0A3EF024E627B6F
:104DD300807A097900901F5DA512800D02900490DE
:104DE300E0FAA3E0FB901D82E0FEA3E0FFAD03AC7D
:104DF30002A512800A0D901F60EEF0A3EFF0901D44
:104E030082E0FEA3E0FFAD03AC02A512800A0D9081
:104E13001F62ECF0A3ED80477B807A097906901F2F
:104E23005DA512800D02900490E0FAA3E0FB901DB3
:104E330082E0FEA3E0FFAD03AC02A512800A0D9051
:104E43001F60EEF0A3EFF0901D82E0FEA3E0FFAD44
:104E530003AC02A512800A0D901F62ECF0A3EDF0E3
:104E63007B007A1D7978A512800E54901D84E02F63
:104E7300F0901D84E0FF7E00901D61E025E025E0B9
:104E83002481F582E43409F583E4932464F9E4345A
:104E93001DA801FC7D007B007A1D7978A51280098D
:104EA300CE901D62E0FDD2137B007A1D7964901DC4
:104EB300B0A512800D02901D61E025E025E024815C
:104EC300F582E43409F583E493FF901D84E0FEEF5B
:104ED3002E024F6D901D63E0FF25E025E024B1F520
:104EE30082E43409F583E493FD7C00C004C005EF3C
:104EF30025E025E024AEF582E43409F583A512808C
:104F03000D0CC001901D61E025E025E02481F582B0
:104F1300E43409F583E4932464F9E4341DA801FC23
:104F23007D00D001D007D006A5128009CE901D6266
:104F3300E0FDD2137B007A1D7964901DB0A5128029
:104F43000D02901D63E025E025E024B1F582E434F1
:104F530009F583E493FF901D61E025E025E02481BA
:104F6300F582E43409F583E4932F901DB3F0E4FF55
:104F7300A512807B728005901D63E0FFA522901D22
:104F830047E0FF7D01901D60EDF0901D5FEFF06441
:104F930002600FE0FF64036009EF64046004EFB490
:104FA3000511901D5FE0FFA3E0FDC211A512804C27
:104FB3008B8041901D60E0FDD213901D5FE0FF25C3
:104FC300E025E0247EF582E43409F583A512800D03
:104FD3000C901DB0A512800D02EF25E025E0248181
:104FE300F582E43409F583E493901DB3F0E4FFA55F
:104FF30012807B72A522E4901D71F0A3F0A3F0A3AD
:10500300F0A3740AF0A37402F0901D7814F0E4A3E3
:10501300F0A3F0901D8FF0901D71F0901D71E0FFD3
:10502300C39440503175F007EF900008A512800C2F
:10503300EBE0601A901D71E075F007900009A5126E
:10504300800CEBE0540A6006901D7AE004F0901D9A
:1050530071E004F080C57E007F147D007B007A1D23
:10506300797BA512800DB1901D7AE070107B807A58
:1050730009791C901F5DA512800D0280167B807A32
:10508300097927901F5DA512800D02901D7AE0908B
:105093001F60F07B007A1D797BA512800E54901D52
:1050A3008FEFF0D2137B007A1D797B901DB0A51290
:1050B300800D02901D8FE0A512807B6B7F02A512ED
:1050C300807E92E47FB87E0BA512807473901D7767
:1050D300A512807AA9901D767402F0E4901D71F0F8
:1050E300901D71E0FFC39440501FEF25E025E0249D
:1050F30038F582E4342DF583E0600E901D79E004E9
:10510300F0901D71E004F080D7901D78E0700302E9
:1051130054147E007F157D007B007A1D7947A5120C
:10512300800DB17E007F157D007B007A1D795CA523
:1051330012800DB1E4901D72F0901D71F0901D74FA
:10514300E0901D71F0901D75E0FF901D71E0FEC3AE
:105153009F4003025396901D74E02405FDE433FC45
:10516300EEC39DEC6480F8748098400302526E9005
:105173001D71E025E025E02438F582E4342DF58324
:10518300E0700302538D901D72E075F004A4244770
:10519300F9741D35F0FA7B00C003C002C0017B80A7
:1051A3007A097937901F5DA512800D02901D71E079
:1051B30025E025E02438F582E4342DF583E0901FC3
:1051C30060F0D001D002D003A512800E54E4901DEC
:1051D30073F0901D71E075F007900009A512800C23
:1051E300EBE0FF20E007E4901D73F0803EEF540AEC
:1051F3006008901D737402F08031901D71E0FF759B
:10520300F007900009A512800CEBE020E20F75F087
:1052130007EF90000CA512800CEBE07008901D7353
:105223007403F08006901D737401F0901D73E0FF0A
:1052330025E025E024C1F582E43409F583E493FDF8
:105243007C00C004C005EF25E025E024BEF582E420
:105253003409F583A512800D0CC001901D72E07511
:10526300F004A42449F9741D025375901D79E0FFDD
:10527300901D71E0FEC39F4003025396EE25E02587
:10528300E02438F582E4342DF583E0700302538D76
:10529300901D72E075F004A42448F9741D35F0FAEA
:1052A3007B00C003C002C0017B807A097937901F5D
:1052B3005DA512800D02901D71E025E025E02438E4
:1052C300F582E4342DF583E0901F60F0D001D00225
:1052D300D003A512800E54E4901D73F0901D71E06D
:1052E30075F007900009A512800CEBE0FF20E007A2
:1052F300E4901D73F0803EEF540A6008901D7374B0
:1053030002F08031901D71E0FF75F007900009A550
:1053130012800CEBE020E20F75F007EF90000CA574
:1053230012800CEBE07008901D737403F0800690FC
:105333001D737401F0901D73E0FF25E025E024C187
:10534300F582E43409F583E493FD7C00C004C005D1
:10535300EF25E025E024BEF582E43409F583A512A8
:10536300800D0CC001901D72E075F004A4244AF96D
:10537300741D35F0A801FC7D00D001D007D006A52F
:10538300128009CE901D72E004F0901D71E004F0CC
:105393000251487B007A1D7947A512800010EF4E19
:1053A30070127B007A1D795CA512800010EF4E709D
:1053B300030254CAD2137B007A1D7947901DB0A50E
:1053C30012800D02901DB37414A512807B6ED2134C
:1053D3007B007A1D795C901DB0A512800D02901D93
:1053E30072E024FB25E025E0901DB3F07D01E4FF8E
:1053F300A512807B72901D76E014FDD211901DAB37
:105403007402F0D212E4FFA512807ABFE4901D78F3
:10541300F0A51280A512901D77EFF024E57003022A
:1054230054CA24CB60462408707A901D76E0B402F7
:105433001AD211901DAB7402F0D212E4FDFFA51233
:10544300807ABF901D767401F08059901D74E0D36B
:1054530094004050901D74E024FBF0A3E024FBF083
:10546300901D787401F0901D76F08038901D76E0E1
:10547300B4010DA512807AB1901D767402F08024D8
:10548300901D79E0FF901D75E0C39F5017901D7428
:10549300E02405F0A3E02405F0901D787401F0905A
:1054A3001D7604F0A5128073027F0A7E00A5128088
:1054B3006E969012DAE07002A3E0600302510CA52D
:1054C3001280F1B402510CA522901D50E0FDD211BF
:1054D3007F01901D54EFF0A3EDF0E4901D77F0A34E
:1054E300F0901D6CF0FE7F16FD7B007A1D7956A5AA
:1054F30012800DB1901D55E0640370030255CFE097
:10550300FF25E025E024D6F582E43420F583E493F7
:10551300FD7C00C004C005EF25E025E024D3F5821F
:10552300E43420F583A512800D0C78567C1D7D0094
:10553300D007D006A5128009CE30115DA5128102D5
:105543006E901D55E025E025E024D6F582E4342055
:10555300F583E493901D78F0901D6CE0FF901D7728
:10556300E0C39F5025E0FF04F0746D2FF582E4340F
:105573001DF583E0FF901D78E0FE04F074562EF5D0
:1055830082E4341DF583EFF080CE901D78E024563D
:10559300F582E4341DF583E4F0901D54E0FDD2134D
:1055A3007B007A1D7956901DB0A512800D02901DC7
:1055B30055E025E025E024D6F582E43420F583E4A4
:1055C30093FF901D6CE0FEEF2E0256CF20113AD2CE
:1055D30013901D55E0FF25E025E024D3F582E43444
:1055E30020F583A512800D0C901DB0A512800D022D
:1055F300EF25E025E024D6F582E43420F583E49317
:10560300901DB3F0E4FD0256D4901D55E0FF25E054
:1056130025E024D6F582E43420F583E493FD7C0071
:10562300C004C005EF25E025E024D3F582E434204F
:10563300F583A512800D0C78567C1D7D00D007D014
:1056430006A5128009CEA51281026E901D55E02594
:10565300E025E024D6F582E43420F583E493901D1D
:1056630078F0901D6CE0FF901D77E0C39F5025E01C
:10567300FE04F0746D2EF582E4341DF583E0FE9094
:105683001D78E0FD04F074562DF582E4341DF58396
:10569300EEF080CE901D78E02456F582E4341DF5BB
:1056A30083E4F0901D54E0FDD2137B007A1D7956FC
:1056B300901DB0A512800D02901D55E025E025E058
:1056C30024D6F582E43420F583E4932F901DB3F0C0
:1056D300E4FFA512807B72A522901D4BEFF0A3ED92
:1056E300F0E4901D57F0A37405F07E007F0A7D005F
:1056F3007B007A1D794DA512800DB1901D4BE0FF03
:1057030064027057EF25E025E024D3F582E43420CA
:10571300F583A512800D0CC003C002C001EF25E084
:1057230025E024D6F582E43420F583E493FD901D2F
:105733004CE0901D71F07B007A1D794DA3A512807A
:105743000D027A1D7958901D75A512800D02D001A6
:10575300D002D003A51280DB4F8059901D4BE0FF90
:1057630025E025E024D3F582E43420F583A51280D7
:105773000D0CC003C002C001EF25E025E024D6F5DF
:1057830082E43420F583E493FD901D4CE0901D8A60
:10579300F07B007A1D794DA3A512800D027A1D7945
:1057A30058901D8EA512800D02D001D002D003A502
:1057B3001280F890901D57EFF0A512807A30901D5B
:1057C30057E064017031C211901DABF0D212FDFF9E
:1057D300A512807ABF901D4BE0FF7A1D7B4D901D73
:1057E3007E741DF0A37458F0D212E4FDFCA512815F
:1057F3000286A512807A30C3A522901D51E0FDD206
:1058030011E4FF901D56EFF0A3EDF0E4A3F0FE7F4B
:105813002CFD7B007A30794AA512800DB120113717
:10582300D213901D57E0FF25E025E024D5F582E44F
:105833003419F583A512800D0C901DB0A512800DAF
:1058430002EF25E025E024D8F582E43419A512807F
:105853007B677F0002595A901D57E0FF25E025E042
:1058630024D8F582E43419F583E493FD7C00C00465
:10587300C005EF25E025E024D5F582E43419F5834E
:10588300A512800D0C784A7C307D00D007D006A588
:10589300128009CE901D57E0FF25E025E024D8F5BE
:1058A30082E43419F583E493244AF582E43430AD79
:1058B30082FC901D72741DF0A37458F0C212E4FBB5
:1058C300FAA512810A36901D56E0FDD2137B007AA9
:1058D30030794A901DB0A512800D02901D57E02526
:1058E300E025E024D8F582E43419F583E493FF90AE
:1058F3001D58E0FEEF2E901DB3F0E4FFA512807B50
:1059030072901D57E0FF25E025E024D8F582E434AA
:1059130019F583E493FE901D58E0FDEE2D244AF51E
:1059230082E43430F583E4F0EF25E025E024D8F574
:1059330082E43419F583E493FF2DFDE433FCD3EDC6
:105943009414EC64809480400C901D58E0FEEF2E7C
:1059530024ECFF80027F00A522901D4BEFF0A3ED06
:10596300F0E4901D6BF0A3F0C210901D4BE0FF25F7
:10597300E02425F582E4341AF583740193901D6CB9
:10598300F0EF601864016014EF6402600FEF6407C6
:10599300600AEF64086005EF6409705B901D4BE0DB
:1059A300FF25E025E024D5F582E43419F583A5121B
:1059B300800D0CC003C002C001EF25E025E024D810
:1059C300F582E43419F583E493FD901D4CE0901DBA
:1059D30071F07B007A1D794DA3A512800D027A1D0B
:1059E300796C901D75A512800D02D001D002D003F1
:1059F300A51280DB4F8059901D4BE0FF25E025E089
:105A030024D5F582E43419F583A512800D0CC00367
:105A1300C002C001EF25E025E024D8F582E4341963
:105A2300F583E493FD901D4CE0901D8AF07B007A92
:105A33001D794DA3A512800D027A1D796C901D8EE0
:105A4300A512800D02D001D002D003A51280F890D8
:105A5300901D6BEFF0A512807A30901D6BE064010E
:105A63007031C211901DABF0D212FDFFA512807AE6
:105A7300BF901D4BE0FF7A1D7B4D901D72741DF08E
:105A8300A3746CF0D212E4FDFCA512810A36A512B0
:105A9300807A30A210A522901D48E0FD7F01901D61
:105AA3004BEFF0A3EDF0E4A3F0FE7F1AFD7B007A49
:105AB3001D794EA512800DB1901D4CE0A512800DED
:105AC300195AF8005B6F015BF4025C6B035CF00432
