:020000040000FA
:09000000021B40080001009600FB
:10000B00A50281310BE4FFFEA54860090FEF7001DB
:07001B000EA56980F3A52288
:10002300A502807E60EFB40A09740DA51280003525
:10003300740A309811A899B8130CC2983098FDA887
:0F00430099C298B811F63099FDC299F599A52286
:10005300A502814E9F202020202020BBB6D3ADB91E
:10006300E2C1D9002020C1E3C7AEB2BBD7E3202051
:1000730020200020202020D1A1D4F1C9CCC6B7B3C1
:10008300ACCAB120202020002020C7EBB2E5C8EB8A
:10009300B8FCD0A1C3E6B6EED6BDB1D2002020C7CE
:1000A300EBD1A1BBF5BBF2BCCCD0F8CDB6B1D2211C
:1000B30000C8B7B6A8454E54455220C8A1CFFB434C
:1000C300414E43454C0020202020C7EBC8A1C1E38B
:1000D300C7AE00C8A1CFFB43414E43454C0020208F
:1000E3002020CAE4C8EBB4EDCEF300C8B7B6A845E8
:1000F3004E544552002020C7EBCDB6C8EBD6BDB158
:10010300D2BBF2D3B2B1D200BFCDBBA7D3E0B6EE20
:100113003A00D1A1D4F1C6E4CBFCC9CCC6B7C2F036
:100123003F200020202020BBFAC6F7B9CAD5CF0054
:100133002020C9CCC6B7D2D1CADBCDEA002020200B
:10014300202020D0BBD0BB2100202020202020D481
:10015300DDCDA3B7FECEF10020202020D5D2C1E310
:10016300C6F7B9CAD5CF002020C7EBC9D4BAF22E3F
:100173002E2E00BDF0B6EEB2BBD7E32C20BCD3C706
:10018300AEC2F03F20002020D5FDD4DAB3F6BBF594
:100193002E2E2E002020D5FDD4DAD5D2C1E32E2E6B
:1001A3002E0020202020D5D2C1E3CAA7B0DC002036
:1001B300202020486F772061726520796F752100B8
:1001C300C7EBCAE4C8EBC6E4CBFCC9CCC6B7B1E005
:1001D300BAC5002020C7EBD1A1D4F1C6E4CBFCC93A
:1001E300CCC6B7002020C7EBC8A1BBF52E2E2E002E
:1001F3002020C7EBC8A1D7DFCDCBB1D22E2E2E0046
:100203002020C9CCC6B7BBF5B5C0B9CAD5CF00202D
:1002130020D1A1D4F1C6E4CBFCC9CCC6B7C2F03F10
:1002230000202020202020B2D9D7F7B3ACCAB100D8
:1002330020202020D5FDD4DACDCBBFEE00C7B7BF39
:10024300EE3A0020202020C7EBCDB6C8EBD3B2B1E5
:10025300D20020202020C7EBB2E5C8EBD6BDB1D237
:1002630000B2BBD5D2C1E3A3ACB9BAC2F2C7EBCDDE
:10027300B6B1D20020204556373733362D554220AC
:1002830056312E32002020BBB9D2AAB9BAC2F2C964
:10029300CCC6B7C2F03F00202020202020CEDEC1F4
:1002A300E3B1D2002020C9CCC6B7BCDBB8F13A0019
:1002B3002020CBF9D1A1C9CCC6B7D4DDCAB100C8BF
:1002C300B1BBF5002020B9CAD5CF002020CDCBB1DA
:1002D300D2BDF0B6EE3A002020B5B1C7B0BDF0B63E
:1002E300EE3A002020C7EBCBA2BFA82E2E2E002073
:1002F30020CDB6B1D22D3ED1A1BBF52D3EC8A1BBB9
:10030300F52020002020CCF9BFA82D3ED1A1BBF5BC
:100313002D3EC8A1BBF52020002020BFA8D3E0B606
:10032300EEB2BBD7E32E2E2E002020B6C1BFA8CA43
:10033300A7B0DC2E2E2E002020BFA8D3E0B6EE3AC5
:10034300002020BDF0B6EEB2BBD7E32E2E2E002048
:100353002020202020CFD6BDF0CFFBB7D100202016
:1003630020202020CBA2BFA8CFFBB7D1002020C7DD
:10037300EBD1A1BBF52100564D44455600564D52D5
:1003830045430025750025752E25750025752E25F9
:100393003032750025732025750025732025752EB1
:1003A30025750025732025752E253032750025739C
:1003B300257500257325752E257500257325752E46
:1003C30025303275002573256C75002573256C75F2
:1003D3002E256C75002573256C752E2530326C75B2
:1003E300002000B4FAC2EB3D253032627820008051
:1003F30000580E8000670E8000761480008B1480F6
:1004030000A0138000B4148000C90C8000D60A80B9
:1004130000E10C8000EE098000F81280010B0980D6
:100423000115108001260C8001330C8001400B80E4
:10043300014C0E80015B0E80016A0B8001761280F5
:1004430001890D8001970D8001A50C8001B21080F8
:1004530001C3128001D6108001E70B8001F30F80E6
:1004630002030E800212118002240E8002330C80DC
:100473000240058002460E8002550E8002641280FF
:100483000277108002881180029A0C8002A70B80E9
:1004930002B30E8002C2048002C7088002CE0B8022
:1004A30002DA0B8002E60B8002F214800307148049
:1004B300031C0F80032C0D80033A098003440D8035
:1004C30003520E8003610E8003700980037A058056
:1004D3000380058F828E83EDF5F0FFECFEE8FDE5EA
:1004E30082600205834583600EA548A55CA569A5C6
:1004F3006DD582F5D583F2ABF0ECFAE8F9A522EFDE
:100503008DF0A4A8F0CF8CF0A428CE8DF0A42EFEFD
:10051300A522BC000CBE002BEF8DF084FFADF0A52F
:1005230022E4CCF875F008EF2FFFEE33FEEC33FC3A
:10053300EE9DEC984005FCEE9DFE0FD5F0E9E4CE70
:10054300FDA522EDF8F5F0EE8420D21DFEADF07589
:10055300F008EF2FFFED33FD4008985007D5F0F278
:10056300A522C398FD0FD5F0E9A522C2D5EC30E74B
:1005730009B2D5E4C39DFDE49CFCEE30E717B2D588
:10058300E4C39FFFE49EFEA512800515C3E49DFD11
:10059300E49CFC8005A51280051530D507C3E49FB4
:1005A300FFE49EFEA522C5F0F8A3E028F0C5F0F80D
:1005B300E582158270021583E038F0A522A3F8E0E6
:1005C300C5F025F0F0E582158270021583E0C83886
:1005D300F0E8A522EF2BFFEE3AFEED39FDEC38FCF7
:1005E300A522E88FF0A4CC8BF0A42CFCE98EF0A418
:1005F3002CFC8AF0EDA42CFCEA8EF0A4CDA8F08BA1
:10060300F0A42DCC3825F0FDE98FF0A42CCD35F0E6
:10061300FCEB8EF0A4FEA9F0EB8FF0A4CFC5F02E77
:10062300CD39FEE43CFCEAA42DCE35F0FDE43CFCE0
:10063300A52275F008758200EF2FFFEE33FECD3350
:10064300CDCC33CCC58233C5829BED9AEC99E58240
:1006530098400CF582EE9BFEED9AFDEC99FC0FD5CC
:10066300F0D6E4CEFBE4CDFAE4CCF9A882A522B817
:1006730000C0B9005BBA002EEC8BF084CFCECDFC6A
:10068300E5F0CBF97818EF2FFFEE33FEED33FDECF9
:1006930033FCEB33FB10D703994004EB99FB0FD8E2
:1006A300E5E4F9FAA5227818EF2FFFEE33FEED33D8
:1006B300FDEC33FCC933C910D7059BE99A4007EC1D
:1006C3009BFCE99AF90FD8E0E4C9FAE4CCFBA52234
:1006D30075F010EF2FFFEE33FEED33FDCC33CCC8B6
:1006E30033C810D7079BEC9AE899400AED9BFDECC1
:1006F3009AFCE899F80FD5F0DAE4CDFBE4CCFAE400
:10070300C8F9A522EB9FF5F0EA9E42F0E99D42F07D
:10071300E89C45F0A522E0FCA3E0FDA3E0FEA3E0F6
:10072300FFA522E493FC740193FD740293FE74030A
:1007330093FFA522E0F8A3E0F9A3E0FAA3E0FBA569
:1007430022E493F8740193F9740293FA740393FB0C
:10075300A5227401FF3395E0FEFDFCA3A3A3E0CF24
:100763002FF0E582158270021583E0CE3EF0E5821C
:10077300158270021583E0CD3DF0E582158270028B
:100783001583E0CC3CF0A522ECF0A3EDF0A3EEF052
:10079300A3EFF0A522A42582F582E5F03583F58346
:1007A300A522E0FBA3E0FAA3E0F9A522EBF0A3EA7C
:1007B300F0A3E9F0A522E493FB740193FA74029386
:1007C300F9A522F8D0E0F5834480FBD0E0FAD0E02D
:1007D300F9A5487012A549700EA56AA549C0E0A500
:1007E30048C0E0C083A522A54A6860EFA56B80E1FD
:1007F300F8D0E0F5834480FBD0E0FAD0E0F9A548D7
:100803007012A549700EA56AA549C0E0A548C0E0CD
:10081300C083A522A54AB5F005A54B6860EAA56883
:1008230080DCE8CDFFECFEA548F5F0A54CA569A555
:100833006DB5F00670F17F00A52263F0806480D36C
:1008430095F07FFF40027F01A5228F828E83EDFF0B
:10085300ECFEE8FDE58260020583458370047F00BA
:10086300A522A548F5F0A54CA569A56DB5F006D55B
:1008730082F0D583ED7FFFB5F0030FA52240027F01
:1008830001A522EF4E6019EF60010EED89828A8384
:100893008BF0A558A569DFFADEF88BF0A982AA834D
:1008A300A522F8E0FBA3A3E0F925F0F0E582158289
:1008B30070021583E0FA38F0A522312ED6BDB1D2ED
:1008C300C6F7D7B4CCAC3A2000322ED3B2B1D2C6DD
:1008D300F7D7B4CCAC3A2000332E2331D5D2C1E3C1
:1008E300C6F7D7B4CCAC3A2000342E2332D5D2C1CC
:1008F300E3C6F7D7B4CCAC3A2000352E2333D5D298
:10090300C1E3C6F7D7B4CCAC3A2000362ECAD6BB67
:10091300FAC4A3BFE9D7B4CCACB2E2CAD400372E31
:10092300B6CCD0C5B2E2CAD400382EBBF5B5C0D719
:10093300B4CCAC00392EBBF5B5C0BCECB2E200318F
:10094300302E20D1A1BBF5B0B4C5A5BCECB2E200FA
:1009530031312E20D3CECFB7B0B4C5A5BCECB2E2B3
:100963000031322E20CDCBB1D2B0B4C5A5BCECB290
:10097300E20031332E20B6C1BFA8C6F7B2E2CAD413
:100983003A200031342E20BBF5B5C0B2E2CAD4BD43
:10099300E1B9FB00D5FDB3A300B9CAD5CF00CEDEC4
:1009A30000B2BBD7E300CEB400D500B9CA00C8B1CA
:1009B30000C8B7B6A8454E54455220C8A1CFFB4343
:1009C300414E43454C00C0DBBCC6B2E2CAD4B4CEF0
:1009D300CAFD3A20257500BBF5B5C02530326275D6
:1009E300B9CAD5CFB4CECAFD3A257500D5FDD4DA40
:1009F300BCECB2E220253032627520BBF5B5C000F5
:100A030020202020C7EBC9D4B5C82E2E2E002020CD
:100A1300BBF5B5C0B0E53A20B9CAD5CF2020200038
:100A23002020BBF5B5C025303262753A20B9CAD54E
:100A3300CF202020002020BBF5B5C02530326275C1
:100A43003A20CEDEBBF5202020002020BBF5B5C028
:100A53002025303262753A2020D5FDB3A320002033
:100A6300202020D3B2B1D2C6F7B2E2CAD400C7EB7A
:100A7300CDB6B1D23A002020B1D2B6B7D2D1C2FAA4
:100A83002C20C7EBB4A6C0ED2100D2D1CDB6C8EB64
:100A9300BDF0B6EE3A20257500D2D1CDB6C8EBBD78
:100AA300F0B6EE3A2025752E257500D2D1CDB6C805
:100AB300EBBDF0B6EE3A2025752E253032750020B9
:100AC30020D3B2B1D2C6F7CAC7B7F1D5FDB3A33F9E
:100AD3000020202020D6BDB1D2C6F7B2E2CAD4008E
:100AE3002020D6BDB1D2C6F7CAC7B7F1D5FDB3A38F
:100AF3003F0020202020B0B4C5A5B2E2CAD4210013
:100B0300CAE4C8EBB0B4C5A53A00CAE4C8EBB0B4B4
:100B1300C5A53A202562750020202020D3CECFB76B
:100B2300B0B4C5A5B2E2CAD42100D3D0BCFCB0B4E2
:100B3300CFC22C20D4F2C3F9BDD0D2BBC9F9002057
:100B4300202020CDCBB1D2B0B4C5A5B2E2CAD42106
:100B5300002530326275200020202020C4A3BFE985
:100B6300C3BBD3D0BFAAC6F400C4A3BFE9D5FDC39A
:100B7300A6A3ACC9D4BAF3D4D9CAD400C4A3BFE9D9
:100B8300B2E2CAD4CAA7B0DC00C4A3BFE9D5FDB39F
:100B9300A300564D4D534725627825627825627828
:100BA30025627825627800B2E2CAD4B6CCD0C5B744
:100BB300A2CBCDB3C9B9A600B2E2CAD4B6CCD0C5D4
:100BC300B7A2CBCDCAA7B0DC00B9CAD5CFB4FAC29D
:100BD300EB203D20257500D5FDD4DAB3F5CABCBBA7
:100BE300AFA3ACC9D4BAF3D4D9CAD4008008BD0E1C
:100BF3008008CC0E8008DB108008EC108008FD1004
:100C030080090E128009210A80092C0A8009370AFB
:100C130080094210800953108009641080097510FF
:100C2300800986108009970480099C048009A10229
:100C33008009A4048009A9028009AC028009AE02DC
:100C43008009B102E528249BF582E4342FF583E083
:100C5300052822902F98302203902F9BE475F001F2
:100C6300A5128008A5A54822201BE77F2ED21B8052
:100C730018EF540F2490D43440D4FF301F0BEF24CB
:100C8300BFB41A0050032461FFE52960021529054A
:100C93002CE52C7002052B302210902F98E475F070
:100CA30001A5128008A5EFA55822A51280002822CD
:100CB3007403D2228003E4C222F528902F98A51250
:100CC3008007AFE4F529F52BF52CE52960097F2092
:100CD300A512800C8C80F3752AFFC21CC21BC21D97
:100CE300C21EC220C221C223120C56FF700E302234
:100CF300057F00120C9DAF2CAE2BA522B4255FC23D
:100D0300D5C21F120C56FF24D0B40A00501A75F036
:100D13000A782930D50508B6FF0106C6A426F620B1
:100D2300D5047002D21E80D924CFB41A00EF500428
:100D3300C2E5D21F020EB4D21C80C6D21B80C0D221
:100D43001D80BCD2D580BAD22080B47F20120C8CF7
:100D5300201D077401B5290040F1120C47FF120C46
:100D63008C020CCDD223D2218095120C47FB120C9E
:100D730047FA120C47F94A4B700679877A0F7B8042
:100D8300201D3AE52960367E00E9C0E02EF9EAC06D
:100D9300E03400FAA548F9D0E0FAD0E0C960060EC5
:100DA300EE652A70E4C2D5EBC0E0EAC0E0E9C0E03A
:100DB300EE120EFDD0E0F9D0E0FAD0E0FBA548FF3B
:100DC300609FEBC0E0EAC0E0E9C0E0120C8CD0E029
:100DD3002401F9D0E03400FAD0E0FBE52A0460DD19
:100DE300D52ADA020D647B807A0E79F9D21D8090C0
:100DF300791080027908C221C2238008D2D5790AEA
:100E03008004790AC2D5E52A047002F52AE4FAFDC2
:100E1300FEFF120C47FC7B08201C13120C47FD7BC2
:100E230010301B0A120C47FE120C47FF7B20EC33D9
:100E330082D592D55013C3E4301B069FFFE49EFE78
:100E4300E4201C039DFDE49CFCE4CBF8C21CEC7085
:100E53000CCFCECDCCE824F8F870F38017C3EF3372
:100E6300FFEE33FEED33FDEC33FCEB33FB99400235
:100E7300FB0FD8E9EB301C05F8D0E0C448B21CC026
:100E8300E00AEC4D4E4F78207B0070C2EAB52A0091
:100E930040BCC0E0120EFFD0F0D0E0201C04C4C060
:100EA300E0C4B21CC0F0120C75D0F0D5F0EB020C0C
:100EB300CDA5128007C60D6D530DF3580D3E4C0D95
:100EC3003A420DF74F0DFF440DFF490D53430E05F5
:100ED300550DE9460DE9450DE9470FA2500D422D89
:100EE3000D462E0D692B0D4A230D67200F902A0DF9
:100EF300024800000D613F3F3F00790AA2D5201E42
:100F030014302009B910020404B9080104A2D52041
:100F13002102500104201D68921DB529005034C0E0
:100F2300E07F20301E197F30A21D72217220500FE6
:100F3300120F56C21DC221C220C2237F30800F3040
:100F43002003E9C0E0120C8C302003D0E0F9D0E09C
:100F5300B529CC3020177F30B9100C120C8C7F5878
:100F6300301F077F788003B90803120C8C301D05EE
:100F73007F2D020C8C7F202023F87F2B2021F3224E
:100F8300921D80CF286E756C6C2900D21C120C4701
:100F9300301CF8C21C782930D50108F6020D021264
:100FA3000C47C0E0C4120C75D0E0120C75743A12F1
:100FB3000C7DD21E752904020DF3410187004215F1
:100FC30047000041020901411549004207AF0000F3
:100FD30041000400C128C129C1A5C12AC1A7C12656
:100FE30041000000420001000041000300413A4279
:100FF30000413A3700413A3800413A3900C12D41A6
:101003003A4101413A4000412CB100413A130041B9
:101013003A1400413A1500C108413A1700413A1801
:1010230000413A1900413A1A00413A1B00413A1C67
:1010330000C10BC10CC10DC10EC10FC110C111C143
:1010430012C113C114C115C116413A1D00014D103F
:101053004639A00800010096004139E600C131017C
:101063004F004120DE004119FC004119F800411CEA
:10107300C9014119FA01C12BC12C4119FE004119C3
:10108300FF014120CA004120DB00411872004119D1
:10109300F3006200332300008005800F000A801BE9
:1010A300001E0014801180330036003C8039002874
:1010B300802D8027002280630066006C80690078A1
:1010C300807D8077007200508055805F005A804B8E
:1010D300004E0044804180C300C600CC80C900D8C4
:1010E30080DD80D700D200F080F580FF00FA80EB2E
:1010F30000EE00E480E100A080A580AF00AA80BBE1
:1011030000BE00B480B180930096009C8099008853
:10111300808D8087008281830186018C818901987B
:10112300819D8197019201B081B581BF01BA81ABE5
:1011330001AE01A481A101E081E581EF01EA81FB18
:1011430001FE01F481F181D301D601DC81D901C80B
:1011530081CD81C701C201408145814F014A815B35
:10116300015E0154815181730176017C81790168AB
:10117300816D8167016281230126012C8129013858
:10118300813D8137013201108115811F011A810BC5
:10119300010E0104810183030306030C8309031871
:1011A300831D8317031203308335833F033A832B55
:1011B300032E0324832103608365836F036A837B88
:1011C300037E0374837183530356035C835903487B
:1011D300834D8347034203C083C583CF03CA83DBA5
:1011E30003DE03D483D183F303F603FC83F903E81B
:1011F30083ED83E703E283A303A603AC83A903B8C8
:1012030083BD83B703B203908395839F039A838B34
:10121300038E0384838102808285828F028A829B6C
:10122300029E0294829182B302B602BC82B902A8E2
:1012330082AD82A702A282E302E602EC82E902F80F
:1012430082FD82F702F202D082D582DF02DA82CBFC
:1012530002CE02C482C182430246024C8249025832
:10126300825D8257025202708275827F027A826B9C
:10127300026E0264826102208225822F022A823B4F
:10128300023E0234823182130216021C82190208C2
:10129300820D8207020200312E2331D5D2C1E3C66B
:1012A300F7C3E6D6B53A00322E2332D5D2C1E3C610
:1012B300F7C3E6D6B53A00332E2333D5D2C1E3C6FE
:1012C300F7C3E6D6B53A00342ED4CAD0EDB6E0B4AF
:1012D300CEB9BAC2F23A00352EB2BBC2F2BBF5CDDB
:1012E300CBB1D23A00362EBFAAC6F4D6BDB1D2C610
:1012F300F73A00372EBFAAC6F4CAD6BBFAC4A3BFB7
:10130300E93A00382ED3E0B6EECFC2CFDE3A003949
:101313002ECAD5B1D2C9CFCFDE3A0031302E20D27A
:10132300C9CECABDF0B6EE3A0031312E20BBFAC6A3
:10133300F7B1E0BAC53A200031322E47534DBAC552
:10134300C2EB3A0031332E20C7B7CCF53A00313423
:101353002E20D0A1CAFDB5E33A0031352E2023312A
:10136300D6BDB1D23A0031362E202332D6BDB1D20A
:101373003A0031372E202333D6BDB1D23A0031386B
:101383002E202334D6BDB1D23A0031392E20233555
:10139300D6BDB1D23A0032302E202336D6BDB1D2DB
:1013A3003A0032312E202337D6BDB1D23A00323241
:1013B3002E202338D6BDB1D23A0032332E2023312A
:1013C300D3B2B1D23A0032342E202332D3B2B1D2C7
:1013D3003A0032352E202333D3B2B1D23A0032361B
:1013E3002E202334D3B2B1D23A0032372E20233504
:1013F300D3B2B1D23A0032382E202336D3B2B1D28F
:101403003A0032392E20BFAAC6F4B3F6BBF5C8B7EB
:10141300C8CF3A0033302E20BDBBD2D7CAB1BCE40B
:101423003A0033312E20B2BBD5D2C1E3C4A3CABD27
:101433003A0033322E20BFAAC6F4D3B2B1D2C6F7D4
:101443003A0033332E20BFAAC6F4B9ABBDBBBFA845
:101453003A0033342E20B6C1BFA8CAB1BCE43A0067
:1014630025750025752E25750025752E25303275B9
:1014730000256275002532627800253032627800DB
:1014830080129A0F8012AA0F8012BA0F8012CA0F0D
:101493008012DA0D8012E80D8012F60F8013060B0E
:1014A3008013120B80131E0D80132C0D80133B0B26
:1014B300801347098013510B80135D0B8013690B55
:1014C3008013750B8013810B80138D0B8013990B85
:1014D3008013A50B8013B10B8013BD0B8013C90BB5
:1014E3008013D50B8013E10B8013ED0B8013F90BE5
:1014F300801405118014170D8014250F8014350FE7
:101503008014450F8014550D0005000500050001EA
:1015130000010001000100050005000500050010A1
:101523000001000100050005000500050005000598
:101533000005000500050005000500050005000580
:10154300000100050001000100010002312EBBF57E
:10155300B1D2CAD5D6A700322EC9CCC6B700332E16
:10156300C7E5BFD5BCC7C2BC00312EBBF5B1D2D7CE
:10157300DCCAD5C8EB3A00322ED6BDB1D2CAD5C823
:10158300EB3A00332ED3B2B1D2CAD5C8EB3A00340A
:101593002EBDBBD2D7D7DCBDF0B6EE3A00352ED583
:1015A300D2C1E3D7DCBDF0B6EE3A00362E2331B319
:1015B300F6B1D2D7DCBDF0B6EE3A00372E2332B304
:1015C300F6B1D2D7DCBDF0B6EE3A00382E2333B3F2
:1015D300F6B1D2D7DCBDF0B6EE3A00392E2331B3E3
:1015E300F6B1D2C3B6CAFD3A0031302E202332B34E
:1015F300F6B1D2C3B6CAFD3A0031312E202333B33C
:10160300F6B1D2C3B6CAFD3A0031322E20BFA8BD0F
:10161300BBD2D7D0F2BAC53A00312EB3C9B9A6BDF1
:10162300BBD2D7B4CECAFD3A00322ED2C9CECABD80
:10163300BBD2D7B4CECAFD3A00332EB5A5BBF5B5A0
:10164300C0BDBBD2D7CDB3BCC600312EBBF5B5C030
:10165300B1E0BAC53A00322EB3C9B9A6BDBBD2D7E1
:10166300CDB3BCC63A00332ED2C9CECABDBBD2D786
:10167300B4CECAFD3A002020C4E3C8B7B6A8C2F06E
:101683003F00C8B7B6A8454E54455220C8A1CFFB6A
:1016930043414E43454C002020C3BBD3D0BDBBD2F6
:1016A300D7BCC7C2BC0025750025627500B1E0BA7E
:1016B300C5CAE4C8EBB4EDCEF300C7EBCAE4C8EB8C
:1016C300C6E4CBFCB1E0BAC500256C7500256C758A
:1016D3002E256C7500256C752E2530326C750080B7
:1016E300154F0A80155A068015610A80156C0D8006
:1016F300157A0B8015860B8015920D8015A00D8031
:1017030015AE0F8015BE0F8015CE0F8015DE0D8030
:1017130015EC0F8015FC0F80160C0F80161C0F8024
:10172300162C0F80163C1080164D0B8016590F8017
:1017330016690F8016790B8016851480169A0ECFC2
:10174300B5CDB3D5FDD4DAC6F4B6AF2C20C7EBC9FB
:10175300D4B5C80020202020C4E3C8B7B6A8B8FC7D
:10176300B8C4C2F03F00C8B7B6A8454E544552208E
:10177300C8A1CFFB43414E43454C00D5FDD4DAB855
:10178300FCB8C4C9CCC6B7D3E0C1BF2E2E2E00C946
:10179300CCC6B7D3E0C1BFB8FCB8C4CAA7B0DC217C
:1017A30000C9CCC6B7D3E0C1BFB8FCB8C4B3C9B98C
:1017B300A62100D5FDD4DAB8FCB8C4C9CCC6B7BCE1
:1017C300DBB8F12E2E2E00C9CCC6B7BCDBB8F1B8FE
:1017D300FCB8C4CAA7B0DC2100C9CCC6B7BCDBB80F
:1017E300F1B8FCB8C4B3C9B9A6210020202020C495
:1017F300E3C8B7B6A8CCEDC2FAC2F03F00D5FDD41A
:10180300DACCEDC2FA2E2E2E00CCEDC2FAB2D9D725
:10181300F7CAA7B0DC2100CCEDC2FAB2D9D7F7B32F
:10182300C9B9A6210020202020C4E3C8B7B6A8BDAB
:10183300E1D5CAC2F03F00D5FDD4DACCEDBCD3BDAF
:10184300E1D5CAB5E32E2E2E00CCEDBCD3BDE1D538
:10185300CAB5E3CAA7B0DC2100CCEDBCD3BDE1D54A
:10186300CAB5E3B3C9B9A6210020202020C4E3C828
:10187300B7B6A8CDACB2BDC2F03F00D5FDD4DACD2A
:10188300ACB2BD2C20C7EBC9D4B5C82E2E2E00CDCB
:10189300ACB2BDB2D9D7F7B3C9B9A621002020C4D1
:1018A300E3C8B7B6A8C7E5B5E3C2F03F00D5FDD49A
:1018B300DAC7E5B5E32C20C7EBC9D4B5C82E2E2E65
:1018C30000C7E5B5E3CDEAB1CFA3ACC7EBBACBB65E
:1018D300D42100C7E5B5E3BDF0B6EE3A2025750087
:1018E300C7E5B5E3BDF0B6EE3A2025752E257500A4
:1018F300C7E5B5E3BDF0B6EE3A2025752E253032A7
:101903007500312EB2E3BCDCB1E0BAC53A00322E29
:10191300CAC7B7F1C6F4D3C33A00332ED7EEB4F334
:10192300B4E6BBF5C1BF3A00342EB5DAD2BBBBF582
:10193300B5C03A00352EB5DAB6FEBBF5B5C03A00F0
:10194300362EB5DAC8FDBBF5B5C03A00372EB5DA89
:10195300CBC4BBF5B5C03A00382EB5DACEE5BBF53E
:10196300B5C03A00392EB5DAC1F9BBF5B5C03A00B6
:1019730031302E20B5DAC6DFBBF5B5C03A003131C0
:101983002E20B5DAB0CBBBF5B5C03A00C7EBCAE43D
:10199300C8EBC3DCC2EB3A00C3DCC2EBB4EDCEF35D
:1019A3002100256275002020200020002020202017
:1019B30000CAE4C8EBB2E3BCDCB1E0BAC53A00B19B
:1019C300E0BAC5CAE4C8EBB4EDCEF300C7EBCAE492
:1019D300C8EBC6E4CBFCB1E0BAC5008019050B80A7
:1019E30019110B80191D0D80192B0B8019370B80D2
:1019F30019430B80194F0B80195B0B8019670B8000
:101A030019730D8019810D80198F0B80199B0900A3
:101A130001000100020001000100010001000100BA
:101A23000100010001312EBBF5B5C0B2CECAFD00E5
:101A3300322EBCD3C2FAC8ABB2BFBBF5B5C00033BC
:101A43002ECCEDBCD3BDE1D5CAB5E300342EC8AB73
:101A5300CFB5CDB3CDACB2BD00352E3520BDC7D388
:101A6300B2B1D2C7E5B5E300362E3120D4AAD3B242
:101A7300B1D2C7E5B5E300372EC9E8B1B8B9DCC0C8
:101A8300ED00382ECFB5CDB3B2CECAFD00392EBD91
:101A9300BBD2D7BCC7C2BC0031302E20BBF5BCDCE7
:101AA300C5E4D6C30031312E20B3F6B3A7C4ACC806
:101AB300CFC5E4D6C3002020C8B7B6A8B3F6B3A7F2
:101AC300C5E4D6C3C2F03F00C8B7B6A8454E5445D7
:101AD3005220C8A1CFFB43414E43454C0030002068
:101AE30020D5FDD4DAB1A3B4E6002000B1A3B4E657
:101AF300CAA7B0DCA3ACD6D8D0C2C9E8D6C33F00CE
:101B03002020454E54455220202043414E43454C0E
:101B130000801A280A801A330E801A420C801A4F4A
:101B23000C801A5C0E801A6B0E801A7A0A801A8552
:101B33000A801A900A801A9B0C801AA810A575FFB8
:101B430007758E0378FEE4F6D8FD75818FA575FBC6
:101B530000759008A502801B87A50280D050E493EE
:101B6300A3F85407240CC8C333C4540F4420C883B8
:101B73004004F456800146F6DFE4800B01020408BA
:101B830010204080900FBDE47E019360CCA3FF54EE
:101B93003F30E509541FFEE493A360010ECF54E0E8
:101BA300B4E01CE493FBA3E493FAA3E493F9A3E462
:101BB30093A558A309E970010ADFF4DEF280C85443
:101BC300C025E060254097E493A3FAE493A3F8E4E7
:101BD30093A3C8C582C8CAC583CAF0A3C8C582C8AF
:101BE300CAC583CADFE9DEE7809DE493A3F8E493E3
:101BF300A34003F68001F208DFF4808B312EBBF59E
:101C0300B5C0B1E0BAC53A2000322EC9CCC6B7D3AD
:101C1300E0C1BF3A2000332EB5A5BCDB3A20003427
:101C23002EBBF5B5C0D7B4CCAC3A2000352EC9CC09
:101C3300C6B7B1E0BAC53A20002530326275002537
:101C43003362750025750025752E25750025752EC3
:101C53002530327500256275002532627500801BC0
:101C6300FF0C801C0C0C801C1908801C220C801C8F
:101C73002F0C200020202020202020202020202086
:101C8300202020202020202000C7EBCAE4C8EBB18D
:101C9300E0BAC53A2000B1E0BAC5CAE4C8EBB4ED76
:101CA300CEF300C7EBCAE4C8EBC6E4CBFCB1E0BAA1
:101CB300C50020202020202020202020202020209C
:101CC30020202020202000C2D5E830E70FB2D5E441
:101CD300C39BFBE49AFAE499F9E498F8EC30E71B28
:101CE300B2D5A512801D06A512800672E4C39BFB24
:101CF300E49AFAE499F9E498F88005A5128006724B
:101D030030D50DE4C39FFFE49EFEE49DFDE49CFCFF
:101D1300A5224742323331320057494E31323532F0
:101D2300000D5196105264050505050505050504CA
:101D3300040404080807FF01010101010101010274
:101D4300020202030306FF50505050505050501BE4
:101D53001B1B1B0D0D18FF09090909090909092E88
:101D63002E2E2E000048FF000000010000000A0094
:101D7300000064000003E800002710000186A000B3
:101D83000F42400098968005F5E100070201009696
:101D930000000100020005000A0014003200640084
:101DA3000000000101010000000800010096000886
:101DB3000001009600080001009600901547E0FE20
:101DC300A3E0FF902CDEEEF0A3EFF0E4A3F0D3EF5B
:101DD3009400EE940050057F000220329015497460
:101DE3002CF07E007F147D007B007A07799BA5127F
:101DF300800886901549E0FF25E025E024F5F5826B
:101E0300E43403F583E493902CE0F0FD7C00C004FC
:101E1300C005EF25E025E024F2F582E43403F583E1
:101E2300A5128007B9789B7C077D00D007D006A553
:101E3300128004D6902CE0E0FF249BF582E4340763
:101E4300F5837420F090056DE0FCA3E0FDEC6003E6
:101E5300021F60ED24F6603D24A67003021EF424E5
:101E6300636003021F60749C2FF9E43407FA7B005C
:101E7300C003C002C0017B807A037986902F9BA5A3
:101E8300128007AF902CDEE0FFA3E0902F9ECFF0EF
:101E9300A3EF021F4E902CE0E0249CF9E43407FAF0
:101EA3007B00C003C002C0017B807A037989902F35
:101EB3009BA5128007AF90056DE0FAA3E0FB902C81
:101EC300DEE0FEA3E0FFAD03AC02A5128005159092
:101ED3002F9EEEF0A3EFF0902CDEE0FEA3E0FFAD2B
:101EE30003AC02A512800515902FA0ECF0A3ED80A2
:101EF3005A902CE0E0249CF9E43407FA7B00C003F9
:101F0300C002C0017B807A03798F902F9BA512803A
:101F130007AF90056DE0FAA3E0FB902CDEE0FEA393
:101F2300E0FFAD03AC02A512800515902F9EEEF0E5
:101F3300A3EFF0902CDEE0FEA3E0FFAD03AC02A51F
:101F430012800515902FA0ECF0A3EDF0D001D00284
:101F5300D003A512800CB3902CE0E02FF0902CE07E
:101F6300E004F0D21B7B007A07799B902F9AA5128D
:101F73008007AF902CE0E0A51280904A900530E0F6
:101F8300FEA3E0FFC3901548E09F901547E09E90A5
:101F930015494004743680027404F0D21BE0FF2517
:101FA300E025E024F2F582E43403F583A5128007EB
:101FB300B9902F9AA5128007AFEF25E025E024F50D
:101FC300F582E43403F583E493902F9DF07D01E4DF
:101FD300FFA512809051E47F64FEFDFC902FCE7428
:101FE30027F0A37431F0A5128084AF901825E0B4D4
:101FF300011A901827E0FCA3E0FDE4FFA51281512C
:10200300B7E4901825F0901827F0A3F0901826E075
:10201300B4011A901829E0FCA3E0FD7F01A5128109
:1020230051B7E4901826F0901829F0A3F07F00A58B
:1020330022E4902CDAF0FE7F53FD7B007A057925AC
:10204300A5128008867E037F267D007B007A1579A2
:102053004BA5128008867E037FDE7D007B007A110C
:10206300795BA5128008869017747401F0A3F07E43
:10207300027F217D007B007A057978A5128008868E
:102083009007807401F07E037F137D007B007A0E3E
:10209300791BA512800886E47F64A5128084A6D2EA
:1020A3001B900482A5128007B9902F9AA51280076E
:1020B300AF900485A512809048D21B90043AA512D4
:1020C3008007B9902F9AA5128007AF90043DE4933F
:1020D300902F9DF07D01E4FFA512809051E47F6471
:1020E300A5128084A67F00A522E4902CDAF0A3F049
:1020F300A3F0A3F0FE7F14FD7B007A07799BA51262
:10210300800886901777E0FF75F037901160A5126D
:10211300800798E0D39400401875F037EF90119141
:10212300A512800798E0FFF4601990154AEFF0803C
:1021330012901777E075F037901191A512800798E8
:1021430074FFF0901777E075F037901191A5128026
:102153000798E0F47002804190154AE075F006900C
:10216300000AA512800798E07002802D90154AE0BE
:10217300FF75F006900007A512800798E0FE540A49
:10218300701775F006EF900008A512800798E0FC21
:10219300A3E04C6004EE20E041901549740EA512B3
:1021A30080901B9015497419F0D21BE0FF25E025A0
:1021B300E024F2F582E43403F583A5128007B99095
:1021C3002F9AA5128007AFEF25E025E024F5F582CD
:1021D300E43403F583E4930224C49015497427F08F
:1021E30090056DE0FEA3E0FFEE6003022342EF24BF
:1021F300F6605724A670030222C0246360030223FF
:10220300427B807A037997902F9BA5128007AF902A
:102213001549E025E025E024F2F582E43403F58353
:10222300A5128007B9902F9EA5128007AF90154A7B
:10223300E075F006900008A512800798E0FFA3E080
:10224300902FA1CFF0A3EF0223317B807A03799DF6
:10225300902F9BA5128007AF901549E025E025E05C
:1022630024F2F582E43403F583A5128007B9902F95
:102273009EA5128007AF90154AE075F006900008FE
:10228300A512800798E0FAA3E0FB90056DE0FCA39C
:10229300E0FDAF03AE02A512800515902FA1EEF06D
:1022A300A3EFF090056DE0FCA3E0FDAF03AE02A544
:1022B30012800515902FA3ECF0A3ED80717B807A3B
:1022C3000379A6902F9BA5128007AF901549E025AF
:1022D300E025E024F2F582E43403F583A5128007B8
:1022E300B9902F9EA5128007AF90154AE075F006AE
:1022F300900008A512800798E0FAA3E0FB90056D13
:10230300E0FCA3E0FDAF03AE02A512800515902FFC
:10231300A1EEF0A3EFF090056DE0FCA3E0FDAF03A9
:10232300AE02A512800515902FA3ECF0A3EDF07B70
:10233300007A07799BA512800CB3902CDAEFF0A5F5
:1023430012808A07C226E4F5149018717406F0907F
:102353000575E064016003022491901546E054FB87
:102363006003022491D21B7B007A07799B902F9AFA
:10237300A5128007AF902CDAE0902F9DF07D01E449
:10238300FFA512809051902CDC742DA51280901B18
:10239300900576E0FF7E007C037DE8A512800502B0
:1023A300E4FCFDA5128084A9901159E475F001A500
:1023B300128005A990154AE075F006900008A51251
:1023C300800798E0FEA3E0FF901159E0FCA3E0FD35
:1023D300A512816FE3902CDDEFF07076901028E06A
:1023E30064A07045A51280C18FA51280CF9290156D
:1023F3004AE075F006900008A512800798E0FCA358
:10240300E0FD7F02A5128151B790154AE075F006F1
:10241300900008A512800798E0FFA3E0901547CF2E
:10242300F0A3EFF07F010224F1901028E064A17083
:10243300079015497430801F901028E0FF64A56051
:102443000AEF64A66005EF64A7706E9015497431B6
:1024530080059015497431F0D21BE0FF25E025E09B
:1024630024F2F582E43403F583A5128007B9902F93
:102473009AA5128007AFEF25E025E024F5F582E465
:102483003403F583E493902F9DF0E4FD801BD21B6E
:102493007B007A07799B902F9AA5128007AF902C27
:1024A300DAE0902F9DF07D01E4FFA512809051E4C6
:1024B3007FD07E07A5128084A7E490154AF0FF80A1
:1024C3002D902F9DF07D01E4FFA512809051E47FB4
:1024D300D07E07A5128084A7A512808A07C226E4AE
:1024E300F51490154AF09018717406F07F00A52238
:1024F300E4902CDAF09007AFE07002A3E07005904F
:10250300020904F0900209E06401600302260390CB
:102513001767E0640160030225B1C3901766E09476
:10252300F4901765E0940150030225B1E4F0A3F0A1
:10253300900575E064017047901546E054FB703FC9
:102543009015497435A51280901BA5128084A39021
:102553001549742FA512808467A51280FFEFEF64DD
:10256300016003022614D21B901549A51280846AC8
:10257300A51280FFEFEF64016003022614807390BD
:1025830015497434A51280901BA512808451A5129D
:1025930080FFEFEF64017079D21B901549A512807B
:1025A300846AA51280FFEFEF640170658044901781
:1025B30067E06401705BC3901766E094FA90176557
:1025C300E09400404C9015497434A51280901BA5EB
:1025D30012808451A51280FFEFEF64017033D21B88
:1025E300901549A51280846AA51280FFEFEF64015C
:1025F300701F9007AFE04402F0A3E0F07F01802A50
:102603009015497410A51280901B7F02A512809724
:1026130055901871E004F0A51280A928BF01047F2A
:10262300028007A5128084A37F01A522E4902CDAFF
:10263300F0A3F0A3F0A3F0902CDAF0A3F0900780BE
:10264300E064016016D3901548E09400901547E0CC
:10265300940040077F01A51280B698302807A51281
:102663008089E2C2282026030226F5D21AE4902F9D
:1026730017F0D21B7D01FFA512808C3AC226E4F528
:102683001490154AF0806B902CDCE07002A3E0609C
:1026930070902CDCE0FEA3E0FF901547EE8FF0A5D1
:1026A300128005A990112FA512800737E4FCFDA520
:1026B300128005D790112FA51280078B901137A593
:1026C30012800737902CDCE0FEA3E0FFE4FCFDA5BD
:1026D300128005D7901137A51280078B90182574A7
:1026E30001F0902CDCA51280AAA0E47FC8A512807B
:1026F30084A6A51280AA6F902CDCEEF0A3EFF080E5
:102703008690052CE0640160030227A6900780E011
:10271300640160030227A690078DE020E3030227EC
:10272300A6900790E0FFA3E0902CDACFF0A3EFF0A0
:10273300902CDAE0FEA3E0FF901547EE8FF0A51290
:102743008005A990112FA512800737E4FCFDA5127F
:102753008005D790112FA51280078B901133A512F6
:10276300800737902CDAE0FEA3E0FFE4FCFDA5121E
:102773008005D7901133A51280078B90182674011A
:10278300F0902CDAE0FEA3E0FF901829EE8FF0A57D
:10279300128005A9900572E0FFA3E0901758CFF0CF
:1027A300A3EFF090052CE0640160030228FA900780
:1027B30080E0640170030228FAA51280AFC9EF70AC
:1027C300030228FAA51281465A902CDAEEF0A3EF01
:1027D300F04E7008A51280A7F80228F2902CDAE0D8
:1027E300FEA3E0FF901548E02FFF901547E03EFE63
:1027F300C3900531E09F900530E09E503490154919
:102803007403A51280901B7F02A512809755E47F65
:10281300DC7E05A5128084A7A51280A7F890154732
:10282300E0FCA3E0FD4C70028049AF05AE04022A30
:1028330004A51280E683751D0AE51D600FA51281AC
:102843004651EF7007A51280AABF80EDE51D702CDD
:10285300A51280A7F8902CDAE0FFA3E0900532CF11
:10286300F0A3EFF0A51280EF6E901547E07002A37E
:10287300E0707C901871F07F02022A0B902CDAE052
:10288300FEA3E0FF901547EE8FF0A5128005A990F7
:10289300112FA512800737E4FCFDA5128005D79000
:1028A300112FA51280078B901133A5128007379043
:1028B3002CDAE0FEA3E0FFE4FCFDA5128005D7902F
:1028C3001133A51280078B9018267401F0902CDA2F
:1028D300E0FEA3E0FF901829EE8FF0A5128005A972
:1028E300900572E0FFA3E0901758CFF0A3EFF0E458
:1028F3007F14A5128084A6900530E0FEA3E0FFC3F9
:10290300901548E09F901547E09E50030229FCA5CF
:10291300128084A3751690E51670030229B4A512DC
:1029230080AA6F902CDCEEF0A3EFF04E607B902C2E
:10293300DCE0FEA3E0FF901547EE8FF0A5128005C3
:10294300A990112FA512800737E4FCFDA51280057D
:10295300D790112FA51280078B901137A5128007EE
:1029630037902CDCE0FEA3E0FFE4FCFDA51280051C
:10297300D7901137A51280078B9018257401F0901A
:102983002CDCE0FEA3E0FF901827EE8FF0A5128069
:1029930005A9900572E0FFA3E0901758CFF0A3EFCD
:1029A300F0751690A51280AABFA51280AABF0229AE
:1029B3001AA51280A4D4A512801DBE90052CE06434
:1029C300017028900780E064016020751D01E51DFA
:1029D3006019A51280AFC9EF6007A51280A7F88020
:1029E3000AE47F0AA5128084A680E3E47FF47E01D3
:1029F300A5128084A77F01800F901547E0FEA3E016
:102A0300FFA512801DC67F00A522901777E0FF75F2
:102A1300F037901160A512800798E0D3940040220C
:102A230075F037EF901191A512800798E0FFF460DD
:102A330023901777E0FE90154AEFF0900208EEF02E
:102A43008012901777E075F037901191A5128007E7
:102A53009874FFF0901777E075F037901191A512F5
:102A6300800798E0F47002801290154AE075F00632
:102A730090000AA512800798E07066901549740EBD
:102A8300A51280901B9015497419F0D21BE0FF2505
:102A9300E025E024F2F582E43403F583A5128007F0
:102AA300B9902F9AA5128007AFEF25E025E024F512
:102AB300F582E43403F583E493902F9DF07D01E4E4
:102AC300FFA512809051E47FD07E07A5128084A7D2
:102AD300E490154AF090176AE04401F07F02022B5C
:102AE3007D90154AE075F006900007A512800798BF
:102AF300E030E01A540A701690154AE075F006901B
:102B03000008A512800798E0FEA3E04E706A9015B6
:102B130049740EA51280901B9015497419F0D21BAD
:102B2300E0FF25E025E024F2F582E43403F583A5F4
:102B3300128007B9902F9AA5128007AFEF25E025E1
:102B4300E024F5F582E43403F583E493902F9DF0BC
:102B53007D01E4FFA512809051E47FD07E07A5128A
:102B63008084A7E490154AF090176AE04401F0E4EA
:102B730090154AF07F0180027F00A522E4902CDAB1
:102B8300F090154AE075F006900008A512800798AA
:102B9300E0FEA3E0FF901547E0FCA3E0FDD3EF9D2B
:102BA300EE9C5003022D52A37433A51280901B9008
:102BB30015497427F090056DE0FEA3E0FFEE600376
:102BC300022D17EF24F6605724A67003022C9524D8
:102BD300636003022D177B807A037997902F9BA55F
:102BE300128007AF901549E025E025E024F2F58235
:102BF300E43403F583A5128007B9902F9EA51280B4
:102C030007AF90154AE075F006900008A5128007FB
:102C130098E0FFA3E0902FA1CFF0A3EF022D067B56
:102C2300807A03799D902F9BA5128007AF90154959
:102C3300E025E025E024F2F582E43403F583A512D0
:102C43008007B9902F9EA5128007AF90154AE075B3
:102C5300F006900008A512800798E0FAA3E0FB9025
:102C6300056DE0FCA3E0FDAF03AE02A512800515E0
:102C7300902FA1EEF0A3EFF090056DE0FCA3E0FD33
:102C8300AF03AE02A512800515902FA3ECF0A3EDC0
:102C930080717B807A0379A6902F9BA5128007AF62
:102CA300901549E025E025E024F2F582E43403F5AC
:102CB30083A5128007B9902F9EA5128007AF9015A8
:102CC3004AE075F006900008A512800798E0FAA381
:102CD300E0FB90056DE0FCA3E0FDAF03AE02A5129F
:102CE300800515902FA1EEF0A3EFF090056DE0FCA9
:102CF300A3E0FDAF03AE02A512800515902FA3EC50
:102D0300F0A3EDF07B007A07799BA512800CB390BA
:102D13002CDAEFF0D21B7B007A07799B902F9AA5D0
:102D2300128007AF902CDAE0902F9DF07D01E4FF35
:102D3300A512809051E47FDC7E05A5128084A7E470
:102D430090154AF090176AE04401F07F0180027FFA
:102D530000A5227F01902CDDEFF0E4A3F0A3F0A304
:102D6300A51280A4D3902CDDE06003022EA0901561
:102D7300497414A51280901B7E007F147D007B0094
:102D83007A07799BA51280088690056DE0FEA3E083
:102D9300FFEE6003022E9DEF24F6603D24A6700330
:102DA300022E3524636003022FF87B807A0379B106
:102DB300902F9BA5128007AF9004A2A5128007B99C
:102DC300902F9EA5128007AF901547E0FFA3E090D8
:102DD3002FA1CFF0A3EF022E8C7B807A0379B690DC
:102DE3002F9BA5128007AF9004A2A5128007B9906C
:102DF3002F9EA5128007AF90056DE0FAA3E0FB902C
:102E03001547E0FEA3E0FFAD03AC02A51280051554
:102E1300902FA1EEF0A3EFF0901547E0FEA3E0FFA3
:102E2300AD03AC02A512800515902FA3ECF0A3ED22
:102E330080577B807A0379BE902F9BA5128007AFC2
:102E43009004A2A5128007B9902F9EA5128007AF08
:102E530090056DE0FAA3E0FB901547E0FEA3E0FFC9
:102E6300AD03AC02A512800515902FA1EEF0A3EFE0
:102E7300F0901547E0FEA3E0FFAD03AC02A512807E
:102E83000515902FA3ECF0A3EDF07B007A07799B57
:102E9300A512800CB3902CDFEFF0022FF8902CDDFD
:102EA300E0640260030230479015497414A5128050
:102EB300901B7E007F147D007B007A07799BA5120F
:102EC30080088690056DE0FEA3E0FFEE6003022F0D
:102ED300F8EF24F6603A24A67003022F7C24636083
:102EE30003022FF87B807A0379C8902F9BA5128069
:102EF30007AF9004BAA5128007B9902F9EA5128040
:102F030007AF90102AA512800719902FA1022FE373
:102F13007B807A0379CE902F9BA5128007AF900414
:102F2300BAA5128007B9902F9EA5128007AF90050E
:102F33006DE0FEA3E0FFFBAA06E4F9F890102AA5D2
:102F430012800719A512800672902FA1A51280077F
:102F53008B90056DE0FEA3E0FFFBAA06E4F9F89071
:102F6300102AA512800719A512800672AC00AD01C4
:102F7300AE02AF03902FA580677B807A0379D89048
:102F83002F9BA5128007AF9004BAA5128007B990B2
:102F93002F9EA5128007AF90056DE0FEA3E0FFFB17
:102FA300AA06E4F9F890102AA512800719A5128041
:102FB3000672902FA1A51280078B90056DE0FEA3EA
:102FC300E0FFFBAA06E4F9F890102AA5128007197E
:102FD300A512800672AC00AD01AE02AF03902FA51F
:102FE300A51280078B7B007A07799BA512800CB30F
:102FF300902CDFEFF0D21B7B007A07799B902F9AFE
:10300300A5128007AF902CDFE0902F9DF07D01E4A7
:10301300FFA512809051E47F64A5128084A69015C9
:103023004AE0FF901831F0E4A3F075F006EF90004A
:1030330008A512800798E0FFA3E0901833CFF0A310
:10304300EFF08029902CDDE0640170219015497424
:1030530014A51280901B7F02A512809755E47F640C
:10306300A5128084A6901831E090154AF0E49018D8
:1030730030A512809E5A902CDEEFF0BF0704E402C5
:1030830035D7902CDEE0A5128007C630AA00338B1B
:1030930001338B0235670335670430AA05356707AB
:1030A300359308000035E4902CDDE06003B4022181
:1030B30090154AE075F006900008A512800798E085
:1030C300FEA3E0FFC3901548E09FF0901547E09EF4
:1030D300F0902CDDE0B40122901833E0FEA3E0FF72
:1030E300901547E0FCA3E0FDC39FEC9E400CED9FD1
:1030F300FFEC9E901547F0A3EFF0901549741AA5C5
:103103001280901B902CDDE0600302328AA51280AE
:10311300BA75EF702790052DE0B40116B4011DA315
:10312300E0FEA3E0FFC3901548E09F901547E09EA3
:10313300500A7F02A51280975502328A7E007F14BF
:103143007D007B007A07799BA51280088690056D28
:10315300E0FEA3E0FFEE6003023261EF24F6603D80
:1031630024A670030231F9246360030232617B8079
:103173007A0379B1902F9BA5128007AF9004A2A583
:10318300128007B9902F9EA5128007AF901547E0D4
:10319300FFA3E0902FA1CFF0A3EF0232507B807A00
:1031A3000379B6902F9BA5128007AF9004A2A512B6
:1031B3008007B9902F9EA5128007AF90056DE0FAA6
:1031C300A3E0FB901547E0FEA3E0FFAD03AC02A52F
:1031D30012800515902FA1EEF0A3EFF0901547E0B4
:1031E300FEA3E0FFAD03AC02A512800515902FA34B
:1031F300ECF0A3ED80577B807A0379BE902F9BA5DB
:10320300128007AF9004A2A5128007B9902F9EA544
:10321300128007AF90056DE0FAA3E0FB901547E03D
:10322300FEA3E0FFAD03AC02A512800515902FA10C
:10323300EEF0A3EFF0901547E0FEA3E0FFAD03AC83
:1032430002A512800515902FA3ECF0A3EDF07B00EF
:103253007A07799BA512800CB3902CDFEFF0D21B79
:103263007B007A07799B902F9AA5128007AF902C49
:10327300DFE0902F9DF07D01E4FFA512809051E4E3
:103283007FC8A5128084A690154AE0FF75F00690CA
:10329300000AA512800798E014F075F006EF90007D
:1032A3000AA512800798E0701390154AE075F0069E
:1032B300900007A512800798E04404F0902CDEE00C
:1032C300B4051390154AE075F006900007A5128027
:1032D3000798E04402F0A51280EF3290113BA5124B
:1032E30080073790154AE075F006900008A5128014
:1032F3000798E0FEA3E0FFE4FCFDA5128005D7904C
:10330300113BA51280078B90113FE475F001A512C4
:103313008005A990154AE075F0099002CDA51280A9
:10332300EFCE902CDDE0B4010590183780039018A0
:1033330036A512815ED0E4901830F0A3E0FDA3E03F
:10334300FBA3E0FFA3E0902CE4CFF0A3EFF0E4FFB6
:10335300A512815125901756E4F0A37464F09017D9
:1033630056E07002A3E0601BA51280A7D25008E4C8
:10337300FDFFA51280802DA51280CA0F902CE0EFCF
:10338300F080DB7F00023605A51280901690154A67
:10339300E075F006900007A512800798E04402F05C
:1033A300902CDDE0FF600764026003023522A51262
:1033B30080BA75EF64016003023501FE7F14FD7B63
:1033C300007A07799BA51280088690056DE0FEA31D
:1033D300E0FFEE60030234DEEF24F6603D24A670C6
:1033E30003023476246360030234DE7B807A03793C
:1033F300B1902F9BA5128007AF9004A2A51280075E
:10340300B9902F9EA5128007AF901547E0FFA3E068
:10341300902FA1CFF0A3EF0234CD7B807A0379B64E
:10342300902F9BA5128007AF9004A2A5128007B925
:10343300902F9EA5128007AF90056DE0FAA3E0FBE5
:10344300901547E0FEA3E0FFAD03AC02A512800593
:1034530015902FA1EEF0A3EFF0901547E0FEA3E047
:10346300FFAD03AC02A512800515902FA3ECF0A3CA
:10347300ED80577B807A0379BE902F9BA51280073E
:10348300AF9004A2A5128007B9902F9EA5128007C2
:10349300AF90056DE0FAA3E0FB901547E0FEA3E0D3
:1034A300FFAD03AC02A512800515902FA1EEF0A38A
:1034B300EFF0901547E0FEA3E0FFAD03AC02A512C9
:1034C300800515902FA3ECF0A3EDF07B007A07792C
:1034D3009BA512800CB3902CDFEFF0D21B7B007AFC
:1034E30007799B902F9AA5128007AF902CDFE0906D
:1034F3002F9DF07D01E4FFA51280905180077F028C
:10350300A512809755E47FE87E03A5128084A790D7
:103513001547E0FFA3E0900799CFA512803C8FA544
:103523001280EF1F901141E475F001A5128005A9E7
:1035330090154AE075F0099002CFA51280EFCEA551
:103543001280B6DA902CDDE0B401059018378003C1
:10355300901836E0FFA512815ED2A51281510A7F31
:1035630002023605A512809016A51280EF1F902C3B
:10357300DDE0B401059018378003901836E0FFA50D
:1035830012815ED2A51281510AE47FC47E09803B79
:10359300A51280901690154AE075F006900007A5D5
:1035A30012800798E04404F0A51280EF32902CDDDE
:1035B300E0B401059018378003901836A512815E98
:1035C300D0A51281510AE47FE87E03A5128084A767
:1035D3007F00802EA512809E5A902CDEEFF00230E1
:1035E30085901831E0FDA3E0FBA3E0FFA3E0902C5E
:1035F300E4CFF0A3EFF0901830E0FFA5128151253E
:103603007F00A522E4902CDAF0A3F0A3F0A51280AA
:10361300A7D25008E4FDFFA51280802DA51280CA11
:103623000F902CDCEFF0901547E07002A3E07004DC
:10363300FF023C8990052DE064016014A51280BA55
:1036430070BF01077F01A5128097557F00023C8957
:1036530090052EE0FEA3E0FFC3901548E09F901570
:1036630047E09E5003023B22EF4E7003023B22A52C
:103673001280BAADEF640160030239B8D21B900423
:1036830086A5128007B9902F9AA5128007AF9004E0
:1036930089A512809048D21B900406A5128007B911
:1036A300902F9AA5128007AF900409E493902F9D61
:1036B300F07D01E4FFA512809051751E1EE51E707A
:1036C3000302384EA5128084A3A51280C10A902C50
:1036D300DAEFF024E5600E240E70E2A512801DBE21
:1036E3007F01023C89A51280BA70EF640160030276
:1036F30038497F01A5128097557E007F147D007B9A
:10370300007A07799BA51280088690056DE0FEA3D9
:10371300E0FFEE600302381EEF24F6603D24A6703E
:10372300030237B62463600302381E7B807A037971
:10373300B1902F9BA5128007AF90049EA51280071E
:10374300B9902F9EA5128007AF901547E0FFA3E025
:10375300902FA1CFF0A3EF02380D7B807A0379B6C7
:10376300902F9BA5128007AF90049EA5128007B9E6
:10377300902F9EA5128007AF90056DE0FAA3E0FBA2
:10378300901547E0FEA3E0FFAD03AC02A512800550
:1037930015902FA1EEF0A3EFF0901547E0FEA3E004
:1037A300FFAD03AC02A512800515902FA3ECF0A387
:1037B300ED80577B807A0379BE902F9BA5128007FB
:1037C300AF90049EA5128007B9902F9EA512800783
:1037D300AF90056DE0FAA3E0FB901547E0FEA3E090
:1037E300FFAD03AC02A512800515902FA1EEF0A347
:1037F300EFF0901547E0FEA3E0FFAD03AC02A51286
:10380300800515902FA3ECF0A3EDF07B007A0779E8
:103813009BA512800CB3902CDAEFF0D21B7B007ABD
:1038230007799B902F9AA5128007AF902CDAE0902E
:103833002F9DF07D01E4FFA512809051E47FDC7E93
:1038430005A5128084A77F00023C89A51280BA7562
:10385300EF640160030239B3902CDAF07F01A51203
:103863008097557E007F147D007B007A07799BA5A6
:103873001280088690056DE0FEA3E0FFEE60030270
:103883003988EF24F6603D24A670030239202463AF
:1038930060030239887B807A0379B1902F9BA5124C
:1038A3008007AF90049EA5128007B9902F9EA512A2
:1038B3008007AF901547E0FFA3E0902FA1CFF0A3BF
:1038C300EF0239777B807A0379B6902F9BA512801C
:1038D30007AF90049EA5128007B9902F9EA5128072
:1038E30007AF90056DE0FAA3E0FB901547E0FEA358
:1038F300E0FFAD03AC02A512800515902FA1EEF0F9
:10390300A3EFF0901547E0FEA3E0FFAD03AC02A5E3
:1039130012800515902FA3ECF0A3ED80577B807ADE
:103923000379BE902F9BA5128007AF90049EA5122A
:103933008007B9902F9EA5128007AF90056DE0FA1E
:10394300A3E0FB901547E0FEA3E0FFAD03AC02A5A7
:1039530012800515902FA1EEF0A3EFF0901547E02C
:10396300FEA3E0FFAD03AC02A512800515902FA3C3
:10397300ECF0A3EDF07B007A07799BA512800CB3E2
:10398300902CDAEFF0D21B7B007A07799B902F9A69
:10399300A5128007AF902CDAE0902F9DF07D01E413
:1039A300FFA512809051E47FDC7E05A5128084A7D9
:1039B3007F00023C89A51280BA75EF64016003029F
:1039C3003B1D902CDAF07F01A5128097557E007F76
:1039D300147D007B007A07799BA5128008869005E9
:1039E3006DE0FEA3E0FFEE6003023AF2EF24F6601F
:1039F3003D24A67003023A8A24636003023AF27BF1
:103A0300807A0379B1902F9BA5128007AF90049E13
:103A1300A5128007B9902F9EA5128007AF90154776
:103A2300E0FFA3E0902FA1CFF0A3EF023AE17B8068
:103A33007A0379B6902F9BA5128007AF90049EA5B9
:103A4300128007B9902F9EA5128007AF90056DE0F5
:103A5300FAA3E0FB901547E0FEA3E0FFAD03AC0241
:103A6300A512800515902FA1EEF0A3EFF090154756
:103A7300E0FEA3E0FFAD03AC02A512800515902F75
:103A8300A3ECF0A3ED80577B807A0379BE902F9B44
:103A9300A5128007AF90049EA5128007B9902F9EB0
:103AA300A5128007AF90056DE0FAA3E0FB901547E0
:103AB300E0FEA3E0FFAD03AC02A512800515902F35
:103AC300A1EEF0A3EFF0901547E0FEA3E0FFAD03F6
:103AD300AC02A512800515902FA3ECF0A3EDF07BAB
:103AE300007A07799BA512800CB3902CDAEFF0D201
:103AF3001B7B007A07799B902F9AA5128007AF90C2
:103B03002CDAE0902F9DF07D01E4FFA51280905107
:103B1300E47FDC7E05A5128084A77F00023C89A593
:103B23001280BA75EF64016003023C87902CDAF0CF
:103B33007F01A5128097557E007F147D007B007A5C
:103B430007799BA51280088690056DE0FEA3E0FF30
:103B5300EE6003023C5CEF24F6603D24A670030292
:103B63003BF424636003023C5C7B807A0379B1906D
:103B73002F9BA5128007AF90049EA5128007B990D2
:103B83002F9EA5128007AF901547E0FFA3E0902F6B
:103B9300A1CFF0A3EF023C4B7B807A0379B6902F41
:103BA3009BA5128007AF90049EA5128007B9902FA2
:103BB3009EA5128007AF90056DE0FAA3E0FB901578
:103BC30047E0FEA3E0FFAD03AC02A512800515900C
:103BD3002FA1EEF0A3EFF0901547E0FEA3E0FFADB9
:103BE30003AC02A512800515902FA3ECF0A3ED8082
:103BF300577B807A0379BE902F9BA5128007AF90E5
:103C0300049EA5128007B9902F9EA5128007AF903E
:103C1300056DE0FAA3E0FB901547E0FEA3E0FFADDE
:103C230003AC02A512800515902FA1EEF0A3EFF0CF
:103C3300901547E0FEA3E0FFAD03AC02A51280059B
:103C430015902FA3ECF0A3EDF07B007A07799BA5E9
:103C530012800CB3902CDAEFF0D21B7B007A077939
:103C63009B902F9AA5128007AF902CDAE0902F9D9E
:103C7300F07D01E4FFA512809051E47FD07E07A57B
:103C8300128084A77F00A522900799EEF0A3EFF09E
:103C9300E4901547F0A3F0E4902CE1F0A3F0A3F037
:103CA300A3F0A3F0A3F0A3F0A304F0A3F0A3F0E424
:103CB300A3F0A3F0A51280BA75EF6401600DA512FD
:103CC30080BAADBF01057F000246AD901549741B54
:103CD300A51280901BA5128084A37E007F147D0013
:103CE3007B007A07799BA51280088690056DE0FE1C
:103CF300A3E0FFEE6003023DFFEF24F6603D24A640
:103D03007003023D9724636003023DFF7B807A03C7
:103D130079B1902F9BA5128007AF90049EA51280C6
:103D230007B9902F9EA5128007AF900799E0FFA3D4
:103D3300E0902FA1CFF0A3EF023DEE7B807A0379D1
:103D4300B6902F9BA5128007AF90049EA512800703
:103D5300B9902F9EA5128007AF90056DE0FAA3E0FE
:103D6300FB900799E0FEA3E0FFAD03AC02A5128030
:103D73000515902FA1EEF0A3EFF0900799E0FEA3B5
:103D8300E0FFAD03AC02A512800515902FA3ECF064
:103D9300A3ED80577B807A0379BE902F9BA5128079
:103DA30007AF90049EA5128007B9902F9EA512809D
:103DB30007AF90056DE0FAA3E0FB900799E0FEA33F
:103DC300E0FFAD03AC02A512800515902FA1EEF024
:103DD300A3EFF0900799E0FEA3E0FFAD03AC02A5CB
:103DE30012800515902FA3ECF0A3EDF07B007A076A
:103DF300799BA512800CB3902CE7EFF0D21B7B00CC
:103E03007A07799B902F9AA5128007AF902CE7E051
:103E1300A5128084969017697401F0E490181FF03E
:103E2300A3F0A3F0A3F0A51280A7D25008E4FDFFEE
:103E3300A51280802DA51280CA0F902CECEFF0E420
:103E4300902CE1F0A3F0A3F0900799E0FEA3E0FF2C
:103E53004E7007902CEBF00244AB7B007A2C79E296
:103E6300902CF2A5128007AF7A2C09902CF5A5129D
:103E73008007AF7A2C79E1A51280B830902CE4EF5B
:103E8300F07003023F1CE4F0902CE4E0FFC39403C2
:103E9300501DEF25E025E0240FF582E4340EF58371
:103EA300E0FEA3E04E6008902CE4E004F080D9909B
:103EB3002CE4E0FF7019902CEB04F0900799E0FDDF
:103EC300A3E0900534CDF0A3EDF0D22A0244ABEF8A
:103ED30025E025E0240BF582E4340EF583E0FEA310
:103EE300E0FF900799E0FCA3E0FDC39FEC9E401226
:103EF300902CEB7401F0900534ECF0A3EDF0D22A92
:103F0300800DE4900534F0A3F0C22A902CEBF0E48A
:103F1300900799F0A3F00244ABE4902CE5F0A3F0F2
:103F2300902CE1E0FF7003023FE27E007A277B469C
:103F33007D01A51280EB43EF7074A512807FB2E47C
:103F4300902CE4F0902CE4E0C3940250567C277D3F
:103F5300467F01A512808057EF6401603F90274997
:103F6300E0FD54506007902CE8E04404F0ED30E5A8
:103F730007902CE8E04402F0902749E030E30790F3
:103F83002CE8E04408F07F01A512814017902CE54E
:103F9300EEF0A3EFF0E4902CE4F08007A512807F0D
:103FA300AC80A1902CE4E0C3940240098000902CE3
:103FB300E8E04404F0900526E0FCA3E0FD902CE546
:103FC300E0FEA3E0FFA512800502C390079AE09FDD
:103FD300F0900799E09EF090181FEEF0A3EFF09099
:103FE3002CE5E0FEA3E0FF901153EE8FF0A51280C5
:103FF30005A9901147A512800737C000900526E058
:10400300FCA3E0FD902CE5E0FEA3E0FFA5128005F4
:1040130002E4FCFDD000A5128005D7901147A5123C
:1040230080078B901143A512800737C000900526A7
:10403300E0FCA3E0FD902CE5E0FEA3E0FFA51280E9
:104043000502E4FCFDD000A5128005D7901143A51D
:104053001280078B902CE8E0640170030240F9E4BE
:10406300902CE7F0902CE7E0FFC39403506CEF250E
:10407300E025E02411F582E4340EF583E064017059
:1040830051902CE8E0FF30E20790153B7401801754
:10409300EF30E30790153B7404800C902CE8E0307C
:1040A300E11A90153B7402F0902CE7E025E025E03F
:1040B3002412F582E4340EF5837402F0A51280BA5B
:1040C30052902CE7E0B5071290153BE0600CC22537
:1040D3008008902CE7E004F0808A902CE87401F0CB
:1040E300902CE1E0FFC3902CE6E09F902CE5E09458
:1040F300005003023E29E4902CE5F0A3F0902CE25B
:10410300E0FF70030241BF7E007A277B5B7D02A53F
:104113001280EB43EF7074A512807FB2E4902CE41D
:10412300F0902CE4E0C3940250567C277D5B7F0221
:10413300A512808057EF6401603F90275EE0FD5435
:10414300506007902CE9E04404F0ED30E507902C33
:10415300E9E04402F090275EE030E307902CE9E0C9
:104163004408F07F02A512814017902CE5EEF0A3DE
:10417300EFF0E4902CE4F08007A512807FAC80A1DF
:10418300902CE4E0C3940240098000902CE9E044C1
:1041930004F0900528E0FCA3E0FD902CE5E0FEA3ED
:1041A300E0FFA512800502C390079AE09FF09007F5
:1041B30099E09EF0901821EEF0A3EFF0902CE5E04B
:1041C300FEA3E0FF901155EE8FF0A5128005A99094
:1041D300114BA512800737C000900528E0FCA3E02F
:1041E300FD902CE5E0FEA3E0FFA512800502E4FCB0
:1041F300FDD000A5128005D790114BA51280078B27
:10420300901143A512800737C000900528E0FCA356
:10421300E0FD902CE5E0FEA3E0FFA512800502E49B
:10422300FCFDD000A5128005D7901143A51280078D
:104233008B902CE9E0640170030242D6E4902CE7F2
:10424300F0902CE7E0FFC39403506CEF25E025E0EA
:104253002411F582E4340EF583E064027051902C4E
:10426300E9E0FF30E20790153C74018017EF30E37B
:104273000790153C7404800C902CE9E030E11A900F
:10428300153C7402F0902CE7E025E025E02412F5BC
:1042930082E4340EF5837402F0A51280BA52902C96
:1042A300E7E0B5071290153CE0600CC2258008904A
:1042B3002CE7E004F0808A902CE97401F0902CE262
:1042C300E0FFC3902CE6E09F902CE5E094005003C0
:1042D300023E29E4902CE5F0A3F0902CE3E0FF707C
:1042E300030243967E007A277B707D03A51280EB41
:1042F30043EF706EA512807FB2E4902CE4F0902C13
:10430300E4E0C394025050A512808051EF64016031
:104313003F902773E0FD54506007902CEAE044047B
:10432300F0ED30E507902CEAE04402F0902773E0CB
:1043330030E307902CEAE04408F07F03A5128140A4
:1043430017902CE5EEF0A3EFF0E4902CE4F0800757
:10435300A512807FAC80A7902CE4E0C394024009AF
:104363008000902CEAE04404F090052AE0FCA3E0EE
:10437300FD902CE5E0FEA3E0FFA512800502C390AB
:10438300079AE09FF0900799E09EF0901823EEF0D3
:10439300A3EFF0902CE5E0FEA3E0FF901157EE8F22
:1043A300F0A5128005A990114FA512800737C00010
:1043B30090052AE0FCA3E0FD902CE5E0FEA3E0FFDE
:1043C300A512800502E4FCFDD000A5128005D7905C
:1043D300114FA51280078B901143A512800737C098
:1043E3000090052AE0FCA3E0FD902CE5E0FEA3E0AD
:1043F300FFA512800502E4FCFDD000A5128005D7BD
:10440300901143A51280078B902CEAE0640170039E
:10441300023E29E4902CE7F0902CE7E0FFC39403DD
:10442300506CEF25E025E02411F582E4340EF5838A
:10443300E064037051902CEAE0FF30E20790153DF1
:1044430074018017EF30E30790153D7404800C90DE
:104453002CEAE030E11A90153D7402F0902CE7E06D
:1044630025E025E02412F582E4340EF5837402F08E
:10447300A51280BA52902CE7E0B5071290153DE0E3
:10448300600CC2258008902CE7E004F0808A902C11
:10449300EA7401F0902CE3E0FFC3902CE6E09F90D8
:1044A3002CE5E09400023E2990181FE0FCA3E0FDF8
:1044B300D39400EC9400500E901822E094009018CE
:1044C30021E09400401A901821E0FAA3E0FBE4FFF6
:1044D300A5128163A4E490181FF0A3F0A3F0A3F046
:1044E300902CEBE070030246ABA51280EF6E9015A3
:1044F300497401A51280901B9015497420F07E0029
:104503007F147D007B007A07799BA5128008869033
:104513001549E0FF25E025E024F5F582E43403F5B1
:1045230083E493FD7C00C004C005EF25E025E0246F
:10453300F2F582E43403F583A5128007B9789B7CF6
:10454300077D00D007D006A5128004D6901549E058
:1045530025E025E024F5F582E43403F583E4939024
:104563002CE7F090056DE0FEA3E0FFEE600302464A
:1045730081EF24F6604024A670030246152463608D
:1045830003024681902CE7E0249BF9E43407FA7B8D
:1045930000C003C002C0017B807A037986902F9B01
:1045A300A5128007AF900534E0FFA3E0902F9ECFC4
:1045B300F0A3EF02466F902CE7E0249BF9E4340765
:1045C300FA7B00C003C002C0017B807A0379899023
:1045D3002F9BA5128007AF90056DE0FAA3E0FB9037
:1045E3000534E0FEA3E0FFAD03AC02A51280051580
:1045F300902F9EEEF0A3EFF0900534E0FEA3E0FFD2
:10460300AD03AC02A512800515902FA0ECF0A3ED2D
:10461300805A902CE7E0249BF9E43407FA7B00C02E
:1046230003C002C0017B807A03798F902F9BA51270
:104633008007AF90056DE0FAA3E0FB900534E0FE40
:10464300A3E0FFAD03AC02A512800515902F9EEEEB
:10465300F0A3EFF0900534E0FEA3E0FFAD03AC025E
:10466300A512800515902FA0ECF0A3EDF0D001D09A
:1046730002D003A512800CB3902CE7E02FF0D21BDD
:104683007B007A07799B902F9AA5128007AF902C15
:10469300E7E0902F9DF07D01E4FFA5128090517F0C
:1046A300D07E07A512807FB67F00A522E4902CDA86
:1046B300F0A51280B6DA9007B0E04440F0901549B7
:1046C300740DA51280901B7F01A522E4902CDAF0D3
:1046D300903A3CF0900004F0A51280A4D490020913
:1046E3007402F0302807A5128089E2C228902CB307
:1046F3007401F0E490176DF0FBFAFD7F05A51281BC
:104703005236A51280BF985007A512804BC580F280
:1047130090176D7401F0E4FBFAFD7F06A512815238
:1047230036E4902CB3F0D21B90043AA5128007B95B
:10473300902F9AA5128007AF90043DA51280904850
:10474300D21B7B807A0379E4902F9AA5128007AF5E
:10475300902F9D7401F0FDE4FFA512809051A512E6
:10476300808A079002097401F0E49007AFF0A3F088
:10477300D225202807A51280B828D228D227E49072
:104783002CDAF0902CDAE0FFC39440505DE0FE2574
:10479300E025E02422F582E43436F583E0FD75F06C
:1047A30006EE900006A512800798E06D7034EF25A1
:1047B300E025E02424F582E43436F583E0B40122D5
:1047C300902CDAE075F006900008A512800798E0B7
:1047D300FEA3E04E700C9007AFE04404F0A3E0F0BA
:1047E3008008902CDAE004F08099902CDAE06440A1
:1047F30060028055A5128099A3E4902CDAF0902CE6
:10480300DAE0FFC39440501875F006EF900007A557
:1048130012800798E0541FF0902CDAE004F080DE59
:10482300901539E0700320250D90153AE06007904C
:1048330007B0E04402F07D53E4FFA512809E70BFF1
:1048430002079007B0E04440F0E4901871F090053F
:1048530024F0900186F0A3F0A512815A257F00A5CC
:1048630022E4902CDAF0A3F090000175F001A51278
:104873008005A9C3900002E09458900001E09402DF
:1048830040269007AFE030E31FE4900001F0A3F06F
:104893007D517F01A512809E70BF02079007B0E093
:1048A3004440F0A51280A4D4202703024BA3A512F1
:1048B30080A4D49015497410A51280901BE47F64E2
:1048C300A5128084A69007AFE0FEA3E0FF30E009C5
:1048D300902CDB74F1F002497DEF30E109902CDB81
:1048E30074F2F002497DEF30E209902CDB74F3F0AF
:1048F30002497DEF30E308902CDB74F4F0807BEF0A
:1049030030E408902CDB74F5F0806FEF30E508900D
:104913002CDB74F6F08063EF30E608902CDB74F741
:10492300F08057EF30E708902CDB74F8F0804BEE03
:1049330030E008902CDB74F9F0803FEE30E1089012
:104943002CDB74FAF08033EE30E208902CDB74FB3E
:10495300F08027EE30E308902CDB74FCF0801BEE34
:1049630030E408902CDB74FDF0800FEE902CDB30EC
:10497300E50574FEF0800374FFF0202A03024B392F
:10498300900534E07002A3E07003024B397B807A18
:104993000379E6902F9BA5128007AF902CDBE09064
:1049A3002F9EF07B007A07799BA512800CB3902C85
:1049B300DAEFF09015497420F0E0FE25E025E024BD
:1049C300F5F582E43403F583E493FD7C00C004C071
:1049D30005EE25E025E024F2F582E43403F583A512
:1049E300128007B9C001749B2FF9E43407A801FCB6
:1049F3007D00D001D007D006A5128004D6901549BA
:104A0300E025E025E024F5F582E43403F583E4931F
:104A1300FF902CDAE02FF090056DE0FEA3E0FFEEAF
:104A23006003024B35EF24F6604024A67003024A6C
:104A3300C924636003024B35902CDAE0249BF9E42C
:104A43003407FA7B00C003C002C0017B807A03797C
:104A530086902F9BA5128007AF900534E0FFA3E05B
:104A6300902F9ECFF0A3EF024B23902CDAE0249BF0
:104A7300F9E43407FA7B00C003C002C0017B807AEB
:104A8300037989902F9BA5128007AF90056DE0FAFB
:104A9300A3E0FB900534E0FEA3E0FFAD03AC02A569
:104AA30012800515902F9EEEF0A3EFF0900534E0F1
:104AB300FEA3E0FFAD03AC02A512800515902FA065
:104AC300ECF0A3ED805A902CDAE0249BF9E4340750
:104AD300FA7B00C003C002C0017B807A03798F9008
:104AE3002F9BA5128007AF90056DE0FAA3E0FB9022
:104AF3000534E0FEA3E0FFAD03AC02A5128005156B
:104B0300902F9EEEF0A3EFF0900534E0FEA3E0FFBC
:104B1300AD03AC02A512800515902FA0ECF0A3ED18
:104B2300F0D001D002D003A512800CB3902CDAE0B0
:104B33002FF0C22A80267B807A0379E6902F9BA5EB
:104B4300128007AF902CDBE0902F9EF07B007A075A
:104B5300799BA512800CB3902CDAEFF0D21B7B006B
:104B63007A07799B902F9AA5128007AF902CDAE0F1
:104B7300902F9DF07D01E4FFA512809051E47F64A6
:104B8300A5128084A6900003E004F0E0C3940240E1
:104B930004C227E4F09002097402F0A512808A0788
:104BA30090054BE0B40117900004E0700CA512804F
:104BB3008FF0EF700404F08005A51280C0767F01AA
:104BC300A522E4902CDDF0D217A3F0A3F0025271DA
:104BD300902CDEE06003025281F0D217A512808A86
:104BE30007D21B901B14A5128007B9902F9AA51208
:104BF3008007AF901B17A512809048D21B901B18FB
:104C0300A5128007B9902F9AA5128007AF901B1B9E
:104C1300A512808C1D902CDB7401F0A304F02017E7
:104C230003024F7AA51280C10A902CDFEFF024F320
:104C33007003024DBD24F27003024DB824CB700300
:104C4300024D0C24086003024F69902CDCE06402DF
:104C5300702DD21A902F177402F0D21BE4FDFFA51A
:104C630012808C3A902CDC7401F0902CDBE07006FF
:104C7300740AF0024F69902CDBE014F0024F69D202
:104C83001B902CDBE0FF25E025E02414F582E434BF
:104C93001BF583A5128007B9902F9AA5128007AF41
:104CA300EF25E025E02417F582E4341BF583E49334
:104CB300902F9DF07D01E4FFA512809051902CDB95
:104CC300E07005740AF08006902CDBE014F0D21B30
:104CD300902CDBE0FF25E025E02414F582E4341B6F
:104CE300F583A5128007B9902F9AA5128007AFEF1D
:104CF30025E025E02417F582E4341BA512809046B5
:104D0300902CDC7401F0024F69902CDCE06401709C
:104D13001AA512808C2C902CDBE0B40A05E4F00277
:104D23004DAF902CDBE004F0024DAFD21B902CDB97
:104D3300E0FF25E025E02414F582E4341BF583A588
:104D4300128007B9902F9AA5128007AFEF25E025AF
:104D5300E02417F582E4341BA512809046902CDBE7
:104D6300E0B40A04E4F08006902CDBE004F0D21BEC
:104D7300902CDBE0FF25E025E02414F582E4341BCE
:104D8300F583A5128007B9902F9AA5128007AFEF7C
:104D930025E025E02417F582E4341BF583E49390A2
:104DA3002F9DF07D01E4FFA512809051902CDC74BF
:104DB30002F0024F69C217024F69C21AE4902F171B
:104DC300F0D21BFDA512808A01902CDBE0A5128096
:104DD30007C64DF4004DFB014E02024E09034E106F
:104DE300064E17074E1E084E25094E2C0A00004E8C
:104DF30031A51280EE198036A5128164A4802FA5F7
:104E0300128169938028A5128155898021A512807A
:104E13008C9E801AA51280FA8E8013A51280626080
:104E2300800CA5128075678005A51280D339902C5C
:104E3300DCE064026003024EC8902CDBE07017D202
:104E43001B901B3CA5128007B9902F9AA5128007CF
:104E5300AF901B3F802FD21B902CDBE0FF25E0257A
:104E6300E02410F582E4341BF583A5128007B99082
:104E73002F9AA5128007AFEF25E025E02413F582D2
:104E8300E4341BF583A512809048D21B902CDBE001
:104E9300FF25E025E02414F582E4341BF583A512F5
:104EA3008007B9902F9AA5128007AFEF25E025E080
:104EB3002417F582E4341BF583E493902F9DF07D52
:104EC30001E4024F5B902CDBE0B40A17D21B901B6A
:104ED30014A5128007B9902F9AA5128007AF901BD3
:104EE30017802FD21B902CDBE0FF25E025E0241850
:104EF300F582E4341BF583A5128007B9902F9AA598
:104F0300128007AFEF25E025E0241BF582E4341B74
:104F1300F583E493902F9DF07D01E4FFA51280902B
:104F230051D21B902CDBE0FF25E025E02414F58211
:104F3300E4341BF583A5128007B9902F9AA512803C
:104F430007AFEF25E025E02417F582E4341BF58352
:104F5300E493902F9DF0E4FDFFA512809051902CD7
:104F6300DCA5128089F3A5128085D77F0A7E00A570
:104F730012808F7D024C21E47F2C7E01FDFC902F5B
:104F8300CE7427F0A37431F0A5128084AFA51280EC
:104F9300E753D21AE4902F17F0D21BFDFFA512801E
:104FA3008C3AD21AE4902F17F0D21BFD7F01A51281
:104FB300808C3A903A38E07003302D4ED21B7B80C0
:104FC3007A1A79E2902F9AA5128007AF902F9D74D9
:104FD3000AA51280904DD21B7B807A1A79ED902F0F
:104FE3009AA5128007AF902F9D7401F0FDE4FFA5F1
:104FF30012809051E47FDC7E05FDFC902FCE742758
:10500300F0A37431F0A5128084AF903A38E07003B6
:105013000250E9A51280EFF5E47F64A5128084A60F
:10502300A51280EF32E47F64A5128084A67E017FFF
:10503300807D007B007A2C79E0A5128008867F8032
:105043007E027D087C0075382C7539E0753A017550
:105053003B80A512812F24E4902CDDF0902CDDE021
:10506300FF75F006902CE4A512800798E0FE75F01A
:1050730006EF90000AA512800798E06E7057902CF7
:10508300DDE075F006902CE1A512800798E0FE752F
:10509300F006EF900007A512800798E0B50636905A
:1050A3002CDDE075F006902CE2A512800798E0FC59
:1050B300A3E0FD75F006EF900008A512800798E0C5
:1050C300FEA3E0B5050FEEB5040B902CDDE004F074
:1050D300E064407087902CDDE064406004A37401B9
:1050E300F0E4903A38F0202D030251DCA51280EF52
:1050F3006EE47F64A5128084A67E007F537D007BCF
:10510300007A2E7960A5128008867F807E017D0853
:105113007C0075382E753960753A00753B53A512BE
:10512300812F24902E60E0FF900525E06F6003023D
:1051330051D4902E61E0FEA3E0FF900526E06E704F
:1051430003A3E06F60030251D4902E63E0FEA3E05B
:10515300FF900528E06E7003A3E06F7074902E65D6
:10516300E0FEA3E0FF90052AE06E7003A3E06F70FA
:1051730060902E67E0FF90052CE06F7054902E68CE
:10518300E0FF90052DE06F7048902E69E0FEA3E0EC
:10519300FF90052EE0B50639A3E0B50734902E6BDA
:1051A300E0FEA3E0FF900530E0B50625A3E0B507D8
:1051B30020902E6FE0FEA3E0FF900534E0B50611CA
:1051C300A3E0B5070C902EB2E0FF900577E06F6087
:1051D30006902CDE7401F0C22D902CDEE0700302E9
:1051E3005278A512808A07D21B7B807A1A79EF90B6
:1051F3002F9AA5128007AF902F9D7413A51280904C
:105203004DD21B7B807A1B7903902F9AA5128007BE
:10521300AF902F9D7410F07D01E4FFA51280905193
:10522300751D0FE4902CDDF0E51D603BA51280AAEF
:10523300BFA51280C10A902CDFEFF0F460EA902C36
:10524300DFE024E56010240E70DEE4902CDEF090A5
:105253002CDD04F0800A902CDE7401F0902CDDF03C
:10526300902CDDE0B401C1E51D6003024BD3902C0B
:10527300DEF0024BD3902CDE7401F0024BD3A50277
:10528300808A07902ECEEDF0902ECDEFF0E4902E95
:10529300CFF0EF14602B14603A14605314606C2445
:1052A300F87003025330240C6003025352901539F3
:1052B300E0FF30E702807EEF20E00302534D02530C
:1052C3004590153AE0FF30E702806AEF30E0028054
:1052D30071807790153BE0FF30E7028058EF54066A
:1052E3006002803690153BE030E0028055805B9091
:1052F300153CE0FF30E702803CEF54066002801A61
:1053030090153CE030E0028039803F90153DE0FF8E
:1053130030E7028020EF54066008902ECF7403F02C
:10532300802D90153DE030E0028017801D901546DA
:10533300E0FF30E708902ECF7402F08012EF5403A1
:105343006008902ECF7401F08005E4902ECFF030EA
:105353001903025438902ECDE0FF25E025E024F216
:10536300F582E4340BF583E493FD7C00C004C005AF
:10537300EF25E025E024EFF582E4340BF583A51255
:105383008007B978D07C2E7D00D007D006A5128087
:1053930004D6902ECFE0FF25E025E0242AF582E411
:1053A300340CF583E493FD7C00C004C005EF25E0D5
:1053B30025E02427F582E4340CF583A5128007B990
:1053C300C001902ECDE025E025E024F2F582E434FF
:1053D3000BF583E49324D0F9E4342EA801FC7D007B
:1053E300D001D007D006A5128004D6902ECEE0FDC2
:1053F300D21B7B007A2E79D0902F9AA5128007AF0B
:10540300902ECFE025E025E0242AF582E4340CF544
:1054130083E493FF902ECDE025E025E024F2F5828E
:10542300E4340BF583E4932F902F9DF0E4FFA51252
:105433008090518005902ECFE0FFA522902EB3E0FF
:10544300FF7D01902ECCEDF0902ECBEFF0601BE0B2
:10545300FF64016015EF64026010EF6403600BEFFB
:1054630064046006EF6003B40C11902ECBE0FFA33D
:10547300E0FDC219A5128052868041902ECCE0FD3A
:10548300D21B902ECBE0FF25E025E024EFF582E44C
:10549300340BF583A5128007B9902F9AA5128007C4
:1054A300AFEF25E025E024F2F582E4340BF583E445
:1054B30093902F9DF0E4FFA512809051A522E490D4
:1054C3002EF5F0A3F0A3F0A3F0A3740AF0A37402E3
:1054D300F0902EFC14F0E4A3F0902EFB74FFF0A5E3
:1054E30012808A07A512808C2C902EFA7402F0E4A5
:1054F300902EF5F0902EF5E0FFC39440501D75F00B
:1055030006EF900006A512800798E0600E902EFD2E
:10551300E004F0902EF5E004F080D9902EFCE070CA
:105523000302581A7E007F157D007B007A2E79CB0B
:10553300A5128008867E007F157D007B007A2E7978
:10554300E0A512800886E4902EF6F0902EF5F090F8
:105553002EF8E0902EF5F0902EF9E0FF902EF5E076
:10556300FEC39F400302579C902EF8E02405FDE400
:1055730033FCEEC39DEC6480F874809840030256BC
:105583007A902EF5E075F006900006A51280079834
:10559300E07003025793902EF6E075F004A424CB39
:1055A300F9742E35F0FA7B00C003C002C0017B8082
:1055B3007A0B7954902F9BA5128007AF902EF5E0BC
:1055C30075F006900006A512800798E0902F9EF0D4
:1055D300D001D002D003A512800CB3E4902EF7F0D3
:1055E300902EF5E075F006900007A512800798E06D
:1055F300FF7006902EF7F0803EEF540A6008902E5D
:10560300F77402F08031902EF5E0FF75F0069000FC
:1056130007A512800798E020E20F75F006EF9000CF
:105623000AA512800798E07008902EF77403F080A3
:1056330006902EF77401F0902EF7E0FF25E025E0A9
:10564300243AF582E4340CF583E493FD7C00C00432
:10565300C005EF25E025E02437F582E4340CF5831B
:10566300A5128007B9C001902EF6E075F004A424BA
:10567300CDF9742E02577B902EFDE0FF902EF5E0BE
:10568300FEC39F400302579C75F006EE900006A5EB
:1056930012800798E07003025793902EF6E075F09E
:1056A30004A424CCF9742E35F0FA7B00C003C002A5
:1056B300C0017B807A0B7954902F9BA5128007AF92
:1056C300902EF5E075F006900006A512800798E08D
:1056D300902F9EF0D001D002D003A512800CB3E42A
:1056E300902EF7F0902EF5E075F006900007A512C6
:1056F300800798E0FF7006902EF7F0803EEF540A83
:105703006008902EF77402F08031902EF5E0FF755B
:10571300F006900007A512800798E020E20F75F0CD
:1057230006EF90000AA512800798E07008902EF704
:105733007403F08006902EF77401F0902EF7E0FFCB
:1057430025E025E0243AF582E4340CF583E493FD67
:105753007C00C004C005EF25E025E02437F582E492
:10576300340CF583A5128007B9C001902EF6E075BD
:10577300F004A424CEF9742E35F0A801FC7D00D0EA
:1057830001D007D006A5128004D6902EF6E004F0CF
:10579300902EF5E004F002555A7B007A2E79CBA5C2
:1057A30012800010EF4E70127B007A2E79E0A51262
:1057B300800010EF4E70030258BED21B7B007A2E7E
:1057C30079CB902F9AA5128007AF902F9D7414A5C3
:1057D3001280904DD21B7B007A2E79E0902F9AA5F0
:1057E300128007AF902EF6E024FB25E025E0902FF2
:1057F3009DF07D01E4FFA512809051902EFAE014F4
:10580300FDD21A902F177402F0D21BE4FFA5128069
:105813008C3AE4902EFCF0A51280C10A902EFBEF87
:10582300F024E570030258BE24CB60462408707A46
:10583300902EFAE0B4021AD21A902F177402F0D203
:105843001BE4FDFFA512808C3A902EFA7401F080C0
:1058530059902EF8E0D394004050902EF8E024FBAA
:10586300F0A3E024FBF0902EFC7401F0902EFAF0EC
:105873008038902EFAE0B4010DA512808C2C902E66
:10588300FA7402F08024902EFDE0FF902EF9E0C31D
:105893009F5017902EF8E02405F0A3E02405F09024
:1058A3002EFC7401F0902EFA04F0A5128085D77FA8
:1058B3000A7E00A512808F7D02551EA522902ECB55
:1058C300EFF0A3EDF0E4902EE2F0A3F0902F96F02A
:1058D300A3F0FE7F15FD7B007A2E79CDA5128008FB
:1058E3008690054BE0640160567B807A0B795B9070
:1058F3002F9BA5128007AF7B007A2E79CDA512804E
:105903000CB3902EE3EFF0902ECCE014FDD21B7B72
:10591300007A2E79CD902F9AA5128007AF902EE3AF
:10592300E0902F9DF0E4FFA512809051E47FDC7E90
:1059330005A5128084A79015417480F0025C6790DE
:105943002ECBE064016003025A297B807A0A790333
:10595300902F9BA5128007AF7B007A2E79CDA512DD
:10596300800CB3902EE3EFF0902ECCE014FDD21B0D
:105973007B007A2E79CD902F9AA5128007AF902EB7
:10598300E3E0902F9DF0E4FFA512809051E47FF4B3
:105993007E01A5128084A7A512814A22902EE2EFF0
:1059A300F0BF03087B807A0B796C8015902EE2E0C0
:1059B300B401087B807A0B797F80067B807A0B7930
:1059C3008C902F9BA5128007AF7B007A2E79CDA5F3
:1059D30012800CB3902EE3EFF0902ECCE014FDD2A6
:1059E3001B7B007A2E79CD902F9AA5128007AF905A
:1059F3002EE3E0902F9DF0E4FFA512809051E47F09
:105A0300DC7E05A5128084A7902ECCE014FDD21B6A
:105A1300900C03A5128007B9902F9AA5128007AFA7
:105A2300900C06025C5AA512815A364003025BEDC4
:105A33007B807A0A7903902F9BA5128007AF7B00A6
:105A43007A2E79CDA512800CB3902EE3EFF0902E31
:105A5300CCE014FDD21B7B007A2E79CD902F9AA532
:105A6300128007AF902EE3E0902F9DF0E4FFA51284
:105A7300809051E47FF47E01A5128084A77E007F8D
:105A8300A07D007B007A2E79F6A5128008867B80A4
:105A93007A0B7995902F9BA5128007AF900536E07E
:105AA300902F9EF0900537E0902F9FF0900538E0FF
:105AB300902FA0F0900539E0902FA1F090053AE0E7
:105AC300902FA2F090053BE0902FA3F07B007A2E5D
