:020000040000FA
:10000000021ACC080001009600A522A502812A1E32
:10001000E4FFFEA54860090FEF70010EA56980F3AB
:02002000A52217
:10002300A502806691EFB40A09740DA5128000350C
:10003300740A309811A899B8130CC2983098FDA887
:0F00430099C298B811F63099FDC299F599A52286
:10005300A502814872202020202020BBB6D3ADB951
:10006300E2C1D9002020C1E3C7AEB2BBD7E3202051
:1000730020200020202020D1A1D4F1C9CCC6B7B3C1
:10008300ACCAB120202020002020C7EBB2E5C8EB8A
:10009300B8FCD0A1C3E6B6EED6BDB1D2002020C7CE
:1000A300EBD1A1BBF5BBF2BCCCD0F8CDB6B1D2211C
:1000B30000C8B7B6A8454E54455220C8A1CFFB434C
:1000C300414E43454C0020202020C7EBC8A1C1E38B
:1000D300C7AE00C8A1CFFB43414E43454C0020208F
:1000E3002020CAE4C8EBB4EDCEF300C8B7B6A845E8
:1000F3004E544552002020C7EBCDB6C8EBD6BDB158
:10010300D2BBF2D3B2B1D200BFCDBBA7D3E0B6EE20
:100113003A00D1A1D4F1C6E4CBFCC9CCC6B7C2F036
:100123003F200020202020BBFAC6F7B9CAD5CF0054
:100133002020C9CCC6B7D2D1CADBCDEA002020200B
:10014300202020D0BBD0BB2100202020202020D481
:10015300DDCDA3B7FECEF10020202020D5D2C1E310
:10016300C6F7B9CAD5CF002020C7EBC9D4BAF22E3F
:100173002E2E00BDF0B6EEB2BBD7E32C20BCD3C706
:10018300AEC2F03F20002020D5FDD4DAB3F6BBF594
:100193002E2E2E002020D5FDD4DAD5D2C1E32E2E6B
:1001A3002E0020202020D5D2C1E3CAA7B0DC002036
:1001B300202020486F772061726520796F752100B8
:1001C300C7EBCAE4C8EBC6E4CBFCC9CCC6B7B1E005
:1001D300BAC5002020C7EBD1A1D4F1C6E4CBFCC93A
:1001E300CCC6B7002020C7EBC8A1BBF52E2E2E002E
:1001F3002020C7EBC8A1D7DFCDCBB1D22E2E2E0046
:100203002020C9CCC6B7BBF5B5C0B9CAD5CF00202D
:1002130020D1A1D4F1C6E4CBFCC9CCC6B7C2F03F10
:1002230000202020202020B2D9D7F7B3ACCAB100D8
:1002330020202020D5FDD4DACDCBBFEE00C7B7BF39
:10024300EE3A0020202020C7EBCDB6C8EBD3B2B1E5
:10025300D20020202020C7EBB2E5C8EBD6BDB1D237
:1002630000B2BBD5D2C1E3A3ACB9BAC2F2C7EBCDDE
:10027300B6B1D20020204556373733362D554220AC
:1002830056312E3636002020BBB9D2AAB9BAC2F2F3
:10029300C9CCC6B7C2F03F00202020202020CEDEEC
:1002A300C1E3B1D2002020C9CCC6B7BCDBB8F13A58
:1002B300002020CBF9D1A1C9CCC6B7D4DDCAB10087
:1002C300C8B1BBF5002020B9CAD5CF002020CDCBC3
:1002D300B1D2BDF0B6EE3A002020B5B1C7B0BDF043
:1002E300B6EE3A002020C7EBCBA2BFA82E2E2E00DD
:1002F3002020CDB6B1D22D3ED1A1BBF52D3EC8A154
:10030300BBF52020002020CCF9BFA82D3ED1A1BBF6
:10031300F52D3EC8A1BBF52020002020BFA8D3E0C7
:10032300B6EEB2BBD7E32E2E2E002020B6C1BFA857
:10033300CAA7B0DC2E2E2E002020BFA8D3E0B6EE35
:100343003A002020BDF0B6EEB2BBD7E32E2E2E002E
:10035300202020202020CFD6BDF0CFFBB7D1002016
:100363002020202020CBA2BFA8CFFBB7D100202084
:10037300C7EBD1A1BBF52100564D44455600564D60
:100383005245430025750025752E25750025752ECC
:1003930025303275002573202575002573202575BA
:1003A3002E25750025732025752E253032750025E1
:1003B30073257500257325752E2575002573257501
:1003C3002E25303275002573256C75002573256C39
:1003D300752E256C75002573256C752E2530326CB2
:1003E30075002000B4FAC2EB3D253032627820005C
:1003F3008000580E8000670E8000761480008B14F6
:100403008000A0138000B4148000C90C8000D60AB9
:100413008000E10C8000EE098000F81280010B09D6
:10042300800115108001260C8001330C8001400BE4
:1004330080014C0E80015B0E80016A0B80017612F5
:100443008001890D8001970D8001A50C8001B210F8
:100453008001C3128001D6108001E70B8001F30FE6
:100463008002030E800212118002240E8002330CDC
:10047300800240058002460E8002550E80026412FF
:10048300800277118002891180029B0C8002A80BE5
:100493008002B40E8002C3048002C8088002CF0B1E
:1004A3008002DB0B8002E70B8002F3148003081445
:1004B30080031D0F80032D0D80033B098003450D31
:1004C3008003530E8003620E8003710980037B0552
:1004D300800381058F828E83EDF5F0FFECFEE8FD4E
:1004E300E582600205834583600EA548A55CA56986
:1004F300A56DD582F5D583F2ABF0ECFAE8F9A52228
:10050300EF8DF0A4A8F0CF8CF0A428CE8DF0A42E0C
:10051300FEA522BC000CBE002BEF8DF084FFADF0D6
:10052300A522E4CCF875F008EF2FFFEE33FEEC3391
:10053300FCEE9DEC984005FCEE9DFE0FD5F0E9E442
:10054300CEFDA522EDF8F5F0EE8420D21DFEADF030
:1005530075F008EF2FFFED33FD4008985007D5F0F5
:10056300F2A522C398FD0FD5F0E9A522C2D5EC3040
:10057300E709B2D5E4C39DFDE49CFCEE30E717B276
:10058300D5E4C39FFFE49EFEA512800516C3E49D38
:10059300FDE49CFC8005A51280051630D507C3E455
:1005A3009FFFE49EFEA522C5F0F8A3E028F0C5F066
:1005B300F8E582158270021583E038F0A522A3F8CE
:1005C300E0C5F025F0F0E582158270021583E0C8DE
:1005D30038F0E8A522EF2BFFEE3AFEED39FDEC38BB
:1005E300FCA522E88FF0A4CC8BF0A42CFCE98EF0C0
:1005F300A42CFC8AF0EDA42CFCEA8EF0A4CDA8F088
:100603008BF0A42DCC3825F0FDE98FF0A42CCD354B
:10061300F0FCEB8EF0A4FEA9F0EB8FF0A4CFC5F0B5
:100623002ECD39FEE43CFCEAA42DCE35F0FDE43CAE
:10063300FCA52275F008758200EF2FFFEE33FECD87
:1006430033CDCC33CCC58233C5829BED9AEC99E58F
:100653008298400CF582EE9BFEED9AFDEC99FC0F1F
:10066300D5F0D6E4CEFBE4CDFAE4CCF9A882A522FA
:10067300B800C0B9005BBA002EEC8BF084CFCECDAE
:10068300FCE5F0CBF97818EF2FFFEE33FEED33FDE9
:10069300EC33FCEB33FB10D703994004EB99FB0FCE
:1006A300D8E5E4F9FAA5227818EF2FFFEE33FEED33
:1006B30033FDEC33FCC933C910D7059BE99A4007D6
:1006C300EC9BFCE99AF90FD8E0E4C9FAE4CCFBA56A
:1006D3002275F010EF2FFFEE33FEED33FDCC33CC5C
:1006E300C833C810D7079BEC9AE899400AED9BFDE5
:1006F300EC9AFCE899F80FD5F0DAE4CDFBE4CCFAF8
:10070300E4C8F9A522EB9FF5F0EA9E42F0E99D4289
:10071300F0E89C45F0A522E0FCA3E0FDA3E0FEA3E6
:10072300E0FFA522E493FC740193FD740293FE742D
:100733000393FFA522E0F8A3E0F9A3E0FAA3E0FB0B
:10074300A522E493F8740193F9740293FA74039362
:10075300FBA5227401FF3395E0FEFDFCA3A3A3E0F8
:10076300CF2FF0E582158270021583E0CE3EF0E5CF
:1007730082158270021583E0CD3DF0E5821582700B
:10078300021583E0CC3CF0A522ECF0A3EDF0A3EE40
:10079300F0A3EFF0A522A42582F582E5F03583F5D9
:1007A30083A522E0FBA3E0FAA3E0F9A522EBF0A3E3
:1007B300EAF0A3E9F0A522E493FB740193FA74022F
:1007C30093F9A522F8D0E0F5834480FBD0E0FAD07A
:1007D300E0F9A5487012A549700EA56AA549C0E0C5
:1007E300A548C0E0C083A522A54A6860EFA56B8039
:1007F300E1F8D0E0F5834480FBD0E0FAD0E0F9A53E
:10080300487012A549700EA56AA549C0E0A548C065
:10081300E0C083A522A54AB5F005A54B6860EAA50B
:100823006880DC8F828E83EDFFECFEE8FDE582605D
:10083300020583458370047F00A522A548F5F0A532
:100843004CA569A56DB5F006D582F0D583ED7FFF84
:10085300B5F0030FA52240027F01A522EF4E6019D8
:10086300EF60010EED89828A838BF0A558A569DFBD
:10087300FADEF88BF0A982AA83A522F8E0FBA3A3F2
:10088300E0F925F0F0E582158270021583E0FA386D
:10089300F0A522312ED6BDB1D2C6F7D7B4CCAC3A2F
:1008A3002000322ED3B2B1D2C6F7D7B4CCAC3A20A3
:1008B30000332E2331D5D2C1E3C6F7D7B4CCAC3A3B
:1008C3002000342E2332D5D2C1E3C6F7D7B4CCAC43
:1008D3003A2000352E2333D5D2C1E3C6F7D7B4CCA3
:1008E300AC3A2000362ECAD6BBFAC4A3BFE9D7B4AC
:1008F300CCACB2E2CAD400372EB6CCD0C5B2E2CA71
:10090300D400382EBBF5B5C0D7B4CCAC00392EBB60
:10091300F5B5C0BCECB2E20031302E20BBF5B5C05A
:10092300B2E2CAD4BDE1B9FB0031312E20D1A1BB63
:10093300F5B0B4C5A5BCECB2E20031322E20D3CE63
:10094300CFB7B0B4C5A5BCECB2E20031332E20CD95
:10095300CBB1D2B0B4C5A5BCECB2E20031342E2089
:10096300B6C1BFA8C6F7B2E2CAD43A200031352EC9
:1009730020D1B9CBF5BBFAB2E2CAD40031362E206E
:10098300D5B9CABEB5C6B2E2CAD400D5FDB3A30079
:10099300B9CAD5CF00CEDE00B2BBD7E300CEB4B226
:1009A300E2CAD400C8B1BBF500C8B7B6A8454E54D7
:1009B300455220C8A1CFFB43414E43454C00C0DB09
:1009C300BCC6B2E2CAD4B4CECAFD3A20257500BB78
:1009D300F5B5C02530326275B9CAD5CFB4CECAFDDC
:1009E3003A257500D5FDD4DABCECB2E220253032CD
:1009F300627520BBF5B5C00020202020C7EBC9D409
:100A0300B5C82E2E2E002020BBF5B5C0B0E53A2088
:100A1300B9CAD5CF202020002020BBF5B5C0253092
:100A23003262753A20B9CAD5CF202020002020BBDE
:100A3300F5B5C025303262753A20CEDEBBF52020F5
:100A430020002020BBF5B5C02025303262753A2046
:100A530020D5FDB3A3200020202020D3B2B1D2C6DD
:100A6300F7B2E2CAD400C7EBCDB6B1D23A00202028
:100A7300B1D2B6B7D2D1C2FA2C20C7EBB4A6C0ED1F
:100A83002100D2D1CDB6C8EBBDF0B6EE3A20257524
:100A930000D2D1CDB6C8EBBDF0B6EE3A2025752E07
:100AA300257500D2D1CDB6C8EBBDF0B6EE3A202500
:100AB300752E25303275002020D3B2B1D2C6F7CAC5
:100AC300C7B7F1D5FDB3A33F00257300D5B9CABE9F
:100AD300B5C600D1B9CBF5BBFA0020202573B2E22D
:100AE300CAD400312DB4F2BFAA2020322DB9D8B117
:100AF300D5002573D2D1B4F2BFAAA3ACC7EBC8B754
:100B0300C8CF002573D2D1B9D8B1D5A3ACC7EBC830
:100B1300B7C8CF00C7EBB2BBD2AACBE6D2E2B9D8F3
:100B2300B1D5C9E8B1B8A3A10020202020D6BDB11A
:100B3300D2C6F7B2E2CAD4002020D6BDB1D2C6F7DE
:100B4300CAC7B7F1D5FDB3A33F0020202020B0B41E
:100B5300C5A5B2E2CAD42100CAE4C8EBB0B4C5A5A6
:100B63003A00CAE4C8EBB0B4C5A53A2025627500C3
:100B730020202020D3CECFB7B0B4C5A5B2E2CAD4CB
:100B83002100D3D0BCFCB0B4CFC22C20D4F2C3F923
:100B9300BDD0D2BBC9F90020202020CDCBB1D2B02B
:100BA300B4C5A5B2E2CAD42100BBF5B5C025303225
:100BB30062753A202573008008960E8008A50E8082
:100BC30008B4108008C5108008D6108008E712808A
:100BD30008FA0A8009050A8009100A80091B108097
:100BE300092C1080093D1080094E1080095F108088
:100BF30009700E80097F0E80098E0480099304809A
:100C030009980280099B048009A00680098E04804C
:100C13000993048009A704E52724A9F582E4342273
:100C2300F583E00527229022A6301A039022A9E437
:100C330075F001A51280087EA548222013E77F2EB8
:100C4300D2138018EF540F2490D43440D4FF3017BC
:100C53000BEF24BFB41A0050032461FFE5286002A0
:100C63001528052BE52B7002052A301A109022A6B1
:100C7300E475F001A51280087EEFA55822A5128025
:100C83000028227403D21A8003E4C21AF5279022A3
:100C9300A6A5128007B0E4F528F52AF52BE5286010
:100CA300097F20A512800C5F80F37529FFC214C24F
:100CB30013C215C216C218C219C21B120C29FF7027
:100CC3000E301A057F00120C70AF2BAE2AA522B48A
:100CD300255FC2D5C217120C29FF24D0B40A0050D5
:100CE3001A75F00A782830D50508B6FF0106C6A4A0
:100CF30026F620D5047002D21680D924CFB41A0068
:100D0300EF5004C2E5D217020E87D21480C6D21365
:100D130080C0D21580BCD2D580BAD21880B47F20CF
:100D2300120C5F2015077401B5280040F1120C1A4C
:100D3300FF120C5F020CA0D21BD2198095120C1A61
:100D4300FB120C1AFA120C1AF94A4B7006795A7AEA
:100D53000F7B8020153AE52860367E00E9C0E02E3F
:100D6300F9EAC0E03400FAA548F9D0E0FAD0E0C9C6
:100D730060060EEE652970E4C2D5EBC0E0EAC0E080
:100D8300E9C0E0EE120ED0D0E0F9D0E0FAD0E0FBFB
:100D9300A548FF609FEBC0E0EAC0E0E9C0E0120CA9
:100DA3005FD0E02401F9D0E03400FAD0E0FBE5297C
:100DB3000460DDD529DA020D377B807A0E79CCD237
:100DC300158090791080027908C219C21B8008D25D
:100DD300D5790A8004790AC2D5E529047002F52978
:100DE300E4FAFDFEFF120C1AFC7B08201413120C0C
:100DF3001AFD7B1030130A120C1AFE120C1AFF7B19
:100E030020EC3382D592D55013C3E43013069FFFF1
:100E1300E49EFEE42014039DFDE49CFCE4CBF8C2B5
:100E230014EC700CCFCECDCCE824F8F870F3801717
:100E3300C3EF33FFEE33FEED33FDEC33FCEB33FB5B
:100E4300994002FB0FD8E9EB301405F8D0E0C44811
:100E5300B214C0E00AEC4D4E4F78207B0070C2EA1A
:100E6300B5290040BCC0E0120ED2D0F0D0E020146F
:100E730004C4C0E0C4B214C0F0120C48D0F0D5F0E2
:100E8300EB020CA0A5128007C70D40530DC6580DE9
:100E9300114C0D0D420DCA4F0DD2440DD2490D26F2
:100EA300430DD8550DBC460DBC450DBC470F7550C1
:100EB3000D152D0D192E0D3C2B0D1D230D3A200F55
:100EC300632A0CD54800000D343F3F3F00790AA246
:100ED300D5201614301809B910020404B908010406
:100EE300A2D52019025001042015689215B52800D7
:100EF3005034C0E07F203016197F30A2157219726A
:100F030018500F120F29C215C219C218C21B7F3005
:100F1300800F301803E9C0E0120C5F301803D0E0F3
:100F2300F9D0E0B528CC3018177F30B9100C120C6B
:100F33005F7F583017077F788003B90803120C5F6F
:100F43003015057F2D020C5F7F20201BF87F2B209F
:100F530019F322921580CF286E756C6C2900D21478
:100F6300120C1A3014F8C214782830D50108F6028E
:100F73000CD5120C1AC0E0C4120C48D0E0120C4875
:100F8300743A120C50D216752804020DC6312E2362
:100F930031D5D2C1E3C6F7C3E6D6B53A00322E2324
:100FA30032D5D2C1E3C6F7C3E6D6B53A00332E2312
:100FB30033D5D2C1E3C6F7C3E6D6B53A00342ED44F
:100FC300CAD0EDB6E0B4CEB9BAC2F23A00352EB209
:100FD300BBC2F2BBF5CDCBB1D23A00362EBFAAC607
:100FE300F4D6BDB1D2C6F73A00372EBFAAC6F4CAAB
:100FF300D6BBFAC4A3BFE93A00382ED3E0B6EECF8E
:10100300C2CFDE3A00392ECAD5B1D2C9CFCFDE3A2C
:101013000031302E20D2C9CECABDF0B6EE3A00312F
:10102300312E20BBFAC6F7B1E0BAC53A20003132FF
:101033002E47534DBAC5C2EB3A0031332E20C7B702
:10104300CCF53A0031342E20D0A1CAFDB5E33A00E5
:1010530031352E202331D6BDB1D23A0031362E2080
:101063002332D6BDB1D23A0031372E202333D6BD39
:10107300B1D23A0031382E202334D6BDB1D23A0052
:1010830031392E202335D6BDB1D23A0032302E204D
:101093002336D6BDB1D23A0032312E202337D6BD06
:1010A300B1D23A0032322E202338D6BDB1D23A0023
:1010B30032332E202331D3B2B1D23A0032342E2030
:1010C3002332D3B2B1D23A0032352E202333D3B2F6
:1010D300B1D23A0032362E202334D3B2B1D23A0001
:1010E30032372E202335D3B2B1D23A0032382E20F4
:1010F3002336D3B2B1D23A0032392E20BFAAC6F476
:10110300B3F6BBF5C8B7C8CF3A0033302E20BDBB0A
:10111300D2D7CAB1BCE43A0033312E20B2BBD5D208
:10112300C1E3C4A3CABD3A0033322E20BFAAC6F41A
:10113300D3B2B1D2C6F73A0033332E20BFAAC6F4D6
:10114300B9ABBDBBBFA83A0033342E20B6C1BFA88C
:10115300CAB1BCE43A0033352E20D4DDB4E6D6BDA3
:10116300B1D2C4A3CABD3A0033362E20CEE5D4AAE9
:10117300D6BDB1D2D4DDB4E63A0033372E20CAAEA1
:10118300D4AAD6BDB1D2D4DDB4E63A0033382E208A
:10119300BFAAC6F441434443C4A3BFE93A0025753B
:1011A3000025752E25750025752E253032750025F1
:1011B3006275002532627800253032627800800F34
:1011C300900F800FA00F800FB00F800FC00F800F04
:1011D300D00D800FDE0D800FEC0F800FFC0B801005
:1011E300080B8010140D8010220D8010310B80101D
:1011F3003D098010470B8010530B80105F0B80104C
:101203006B0B8010770B8010830B80108F0B80107B
:101213009B0B8010A70B8010B30B8010BF0B8010AB
:10122300CB0B8010D70B8010E30B8010EF0B8010DB
:10123300FB1180110D0D80111B0F80112B0F8011DD
:101243003B0F80114B0D8011591180116B118011CF
:101253007D1180118F1100050005000500010001BB
:101263000001000100050005000500050010000154
:101273000001000500050005000500050005000547
:101283000005000500050005000500050005000137
:10129300000500010001000100020001000100013E
:1012A3000001410185004213400000410207014152
:1012B300134200420579000041000200C120C12110
:1012C300C19DC122C19FC11E410000004100010018
:1012D300412DA700412D9F00412DA000412DA100CC
:1012E300C125412DA601412DA500411C0800412D1A
:1012F3006800412D6900412D6A00C100412D6C0039
:10130300412D6D00412D6E00412D6F00412D700068
:10131300412D7100C103C104C105C106C107C10844
:10132300C109C10AC10BC10CC10DC10E412D72000F
:10133300462CF5080001009600412D3B00C1290110
:101343001500412DA800411C4D00411C4900411CC2
:101353005101411C4B01C123C124411C4F006200B8
:10136300267800008005800F000A801B001E0014F1
:10137300801180330036003C80390028802D80277F
:10138300002280630066006C80690078807D80772E
:10139300007200508055805F005A804B004E00441D
:1013A300804180C300C600CC80C900D880DD80D7CF
:1013B30000D200F080F580FF00FA80EB00EE00E43D
:1013C30080E100A080A580AF00AA80BB00BE00B46E
:1013D30080B180930096009C80990088808D8087DF
:1013E300008281830186018C81890198819D819787
:1013F300019201B081B581BF01BA81AB01AE01A4F5
:1014030081A101E081E581EF01EA81FB01FE01F4A5
:1014130081F181D301D601DC81D901C881CD81C796
:1014230001C201408145814F014A815B015E015444
:10143300815181730176017C81790168816D8167B6
:10144300016281230126012C81290138813D8137E5
:10145300013201108115811F011A810B010E010454
:10146300810183030306030C83090318831D831778
:10147300031203308335833F033A832B032E032464
:10148300832103608365836F036A837B037E037415
:10149300837183530356035C83590348834D834706
:1014A300034203C083C583CF03CA83DB03DE03D4B4
:1014B30083D183F303F603FC83F903E883ED83E726
:1014C30003E283A303A603AC83A903B883BD83B755
:1014D30003B203908395839F039A838B038E0384C4
:1014E300838102808285828F028A829B029E02947C
:1014F300829182B302B602BC82B902A882AD82A7EE
:1015030002A282E302E602EC82E902F882FD82F79C
:1015130002F202D082D582DF02DA82CB02CE02C48B
:1015230082C182430246024C82490258825D82573D
:10153300025202708275827F027A826B026E0264AB
:10154300826102208225822F022A823B023E0234DC
:10155300823182130216021C82190208820D82074D
:10156300020200CFB5CDB3D5FDD4DAC6F4B6AF2CA5
:1015730020C7EBC9D4B5C80020202020C4E3C8B7D6
:10158300B6A8B8FCB8C4C2F03F00C8B7B6A8454E69
:1015930054455220C8A1CFFB43414E43454C00D58F
:1015A300FDD4DAB8FCB8C4C9CCC6B7D3E0C1BF2EEA
:1015B3002E2E00C9CCC6B7D3E0C1BFB8FCB8C4CA8D
:1015C300A7B0DC2100C9CCC6B7D3E0C1BFB8FCB813
:1015D300C4B3C9B9A62100D5FDD4DAB8FCB8C4C9CF
:1015E300CCC6B7BCDBB8F12E2E2E00C9CCC6B7BC17
:1015F300DBB8F1B8FCB8C4CAA7B0DC2100C9CCC6BB
:10160300B7BCDBB8F1B8FCB8C4B3C9B9A621002094
:10161300202020C4E3C8B7B6A8CCEDC2FAC2F03F7D
:1016230000D5FDD4DACCEDC2FA2E2E2E00CCEDC2BD
:10163300FAB2D9D7F7CAA7B0DC2100CCEDC2FAB20F
:10164300D9D7F7B3C9B9A62100CAE4C8EBB2E3BC42
:10165300DCB1E0BAC53A00B1E0BAC5CAE4C8EBB43C
:10166300EDCEF300C7EBCAE4C8EBC6E4CBFCB1E0B4
:10167300BAC500C4E3C8B7B6A8CCEDC2FAB4CBB2BE
:10168300E3BCDCC2F03F00D5FDD4DACCEDC2FAB541
:10169300B1C7B0B2E3BCDC2E2E2E00B2E3BCDCCC6F
:1016A300EDC2FAB2D9D7F7CAA7B0DC2100B2E3BCC6
:1016B300DCCCEDC2FAB2D9D7F7B3C9B9A62100255C
:1016C3007300B2B9D3B2B1D200C8A1D6BDB1D200B2
:1016D3002020C4E3C8B7B6A82573C2F03F0020207A
:1016E300D5FDD4DA2573002573CAA7B0DC21002504
:1016F30073B3C9B9A6210020202020C4E3C8B7B61C
:10170300A8CDACB2BDC2F03F00D5FDD4DACDACB2AA
:10171300BD2C20C7EBC9D4B5C82E2E2E00CDACB23C
:10172300BDB2D9D7F7B3C9B9A621002020C4E3C8F5
:10173300B7B6A8C7E5B5E3C2F03F00D5FDD4DAC715
:10174300E5B5E32C20C7EBC9D4B5C82E2E2E00C7B0
:10175300E5B5E3CDEAB1CFA3ACC7EBBACBB6D421A1
:1017630000C7E5B5E3BDF0B6EE3A20257500C7E541
:10177300B5E3BDF0B6EE3A2025752E257500C7E515
:10178300B5E3BDF0B6EE3A2025752E25303275004F
:10179300312EBBF5B5C0B2CECAFD00322EBCD3C2CA
:1017A300FAC8ABB2BFBBF5B5C000332EB2B9D3B2E2
:1017B300B1D2CDEAB3C900342EC8ABCFB5CDB3CDCA
:1017C300ACB2BD00352EBCD3C2FAB2E3BCDCBBF570
:1017D300B5C000362EC8A1D6BDB1D2CDEAB3C9007B
:1017E300372E3520BDC7D3B2B1D2C7E5B5E3003834
:1017F3002E3120D4AAD3B2B1D2C7E5B5E300392E36
:10180300C9E8B1B8B9DCC0ED0031302E20CFB5CD79
:10181300B3B2CECAFD0031312E20BDBBD2D7BCC777
:10182300C2BC0031322E20BBF5BCDCC5E4D6C300FC
:1018330031332E20B3F6B3A7C4ACC8CFC5E4D6C3A7
:101843000031342E20B4D3BBFACCEDBBF5002020FD
:10185300C8B7B6A8B3F6B3A7C5E4D6C3C2F03F0072
:10186300C8B7B6A8454E54455220C8A1CFFB434143
:101873004E43454C0030002020D5FDD4DAB1A3B44B
:10188300E6002000B1A3B4E6CAA7B0DCA3ACD6D867
:10189300D0C2C9E8D6C33F002020454E544552204C
:1018A300202043414E43454C008017930A80179EE6
:1018B3000E8017AD0C8017BA0C8017C70E8017D691
:1018C3000C8017E30E8017F20E8018010A80180CA3
:1018D3000C8018190C8018260C80183310801844BB
:1018E3000C312EB2E3BCDCB1E0BAC53A00322ECAE9
:1018F300C7B7F1C6F4D3C33A00332ED7EEB4F3B46B
:10190300E6BBF5C1BF3A00342EB5DAD2BBBBF5B5A1
:10191300C03A00352EB5DAB6FEBBF5B5C03A00368F
:101923002EB5DAC8FDBBF5B5C03A00372EB5DACB14
:10193300C4BBF5B5C03A00382EB5DACEE5BBF5B574
:10194300C03A00392EB5DAC1F9BBF5B5C03A00315A
:10195300302E20B5DAC6DFBBF5B5C03A0031312EE3
:1019630020B5DAB0CBBBF5B5C03A00C7EBCAE4C8C3
:10197300EBC3DCC2EB3A00C3DCC2EBB4EDCEF32124
:101983000025627500202020002000202020200058
:10199300CAE4C8EBB2E3BCDCB1E0BAC53A00B1E0DB
:1019A300BAC5CAE4C8EBB4EDCEF300C7EBCAE4C8CA
:1019B300EBC6E4CBFCB1E0BAC5008018E40B801899
:1019C300F00B8018FC0D80190A0B8019160B801977
:1019D300220B80192E0B80193A0B8019460B8019A4
:1019E300520D8019600D80196E0B80197A09000160
:1019F30000010002000100010001000100010001DB
:101A0300000100012020C4E3C8B7B6A8C2F03F001C
:101A1300C8B7B6A8454E54455220C8A1CFFB434191
:101A23004E43454C002020C3BBD3D0BDBBD2D7BC53
:101A3300C7C2BC00D6BDCAD53A00CFD6D6BDCAD51B
:101A43003A003159CAD53A00CFD63159CAD53A00EE
:101A5300354ACAD53A00CFD6354ACAD53A003159A4
:101A6300D5D23A00CFD63159D5D23A00354AD5D25C
:101A73003A00CFD6354AD5D23A00253035752025E0
:101A830073256C752E2530326C7500256C752E25EB
:101A930030326C7500801A070B801A1314801A28D1
:101AA3000E801A3706801A3D08801A4506801A4BA5
:101AB30008801A5306801A5908801A6106801A672B
:101AC30008801A6F06801A7508A575FF07758E03BF
:101AD30078FEE4F6D8FD758187A575FB007590083F
:101AE300A502801B13A50280A7E5E493A3F854077E
:101AF300240CC8C333C4540F4420C8834004F45691
:101B0300800146F6DFE4800B0102040810204080C8
:101B13009012A5E47E019360CCA3FF543F30E50906
:101B2300541FFEE493A360010ECF54E0B4E01CE421
:101B330093FBA3E493FAA3E493F9A3E493A558A333
:101B430009E970010ADFF4DEF280C854C025E060C1
:101B5300254097E493A3FAE493A3F8E493A3C8C5B9
:101B630082C8CAC583CAF0A3C8C582C8CAC583CA06
:101B7300DFE9DEE7809DE493A3F8E493A34003F653
:101B83008001F208DFF4808B312EBBF5B5C0B1E0E4
:101B9300BAC53A2000322EC9CCC6B7D3E0C1BF3A8A
:101BA3002000332EB5A5BCDB3A2000342EBBF5B59F
:101BB300C0D7B4CCAC3A2000352EC9CCC6B7B1E0FF
:101BC300BAC53A20002530326275002533627500AC
:101BD30025750025752E25750025752E2530327542
:101BE30000256275002532627500BBF5B5C025304E
:101BF300326275D3E0C1BFA3BA00801B8B0C801B7C
:101C0300980C801BA508801BAE0C801BBB0C20000E
:101C130020202020202020202020202020202020C1
:101C23002020202000C7EBCAE4C8EBB1E0BAC53AD4
:101C33002000B1E0BAC5CAE4C8EBB4EDCEF300C7E7
:101C4300EBCAE4C8EBC6E4CBFCB1E0BAC500202084
:101C53002020202020202020202020202020202081
:101C6300202000C2D5E830E70FB2D5E4C39BFBE4E4
:101C73009AFAE499F9E498F8EC30E71BB2D5A51287
:101C8300801CA2A512800673E4C39BFBE49AFAE4CA
:101C930099F9E498F88005A51280067330D50DE410
:101CA300C39FFFE49EFEE49DFDE49CFCA522474206
:101CB300323331320057494E31323532000D5196AD
:101CC300105264050505050505050504040404080B
:101CD3000807FF01010101010101010202020203E0
:101CE3000306FF50505050505050501B1B1B1B0DF0
:101CF3000D18FF09090909090909092E2E2E2E00BD
:101D03000048FF000000010000000A00000064001A
:101D13000003E800002710000186A0000F424000E6
:101D230098968005F5E1000800010096000800017F
:101D3300009600080001009600A5128155EF90134C
:101D430040E0FEA3E0FF90205DEEF0A3EFF0E4A3FC
:101D5300F0A3F0A3F090055AE0B40113900558E006
:101D6300FEA3E0FF90205DEE8FF0A5128005AAD3BD
:101D730090205EE0940090205DE0940050057F0089
:101D830002201B901342742CF07E007F147D007B95
:101D9300007A057965A51280085F901342E0FF255C
:101DA300E025E024F6F582E43403F583E493902000
:101DB3005FF0FD7C00C004C005EF25E025E024F3BF
:101DC300F582E43403F583A5128007BA78657C05B0
:101DD3007D00D007D006A5128004D790205FE0FFD6
:101DE3002465F582E43405F5837420F090032BE039
:101DF300FCA3E0FDEC6003021F07ED24F6603D2425
:101E0300A67003021E9B24636003021F0774662FE0
:101E1300F9E43405FA7B00C003C002C0017B807A79
:101E23000379879022A9A5128007B090205DE0FF77
:101E3300A3E09022ACCFF0A3EF021EF590205FE069
:101E43002466F9E43405FA7B00C003C002C0017BB9
:101E5300807A03798A9022A9A5128007B090032B78
:101E6300E0FAA3E0FB90205DE0FEA3E0FFAD03AC4E
:101E730002A5128005169022ACEEF0A3EFF090209D
:101E83005DE0FEA3E0FFAD03AC02A5128005169052
:101E930022AEECF0A3ED805A90205FE02466F9E4D3
:101EA3003405FA7B00C003C002C0017B807A03794A
:101EB300909022A9A5128007B090032BE0FAA3E02B
:101EC300FB90205DE0FEA3E0FFAD03AC02A5128012
:101ED30005169022ACEEF0A3EFF090205DE0FEA398
:101EE300E0FFAD03AC02A5128005169022AEECF024
:101EF300A3EDF0D001D002D003A512800C86902070
:101F03005FE02FF090205FE004F0D2137B007A05AE
:101F130079659022A8A5128007B090205FE0A512F2
:101F2300808D669002EEE0FEA3E0FFC390205EE0AA
:101F33009F90205DE09E40509013427436F0D21380
:101F4300E0FF25E025E024F3F582E43403F583A5DF
:101F5300128007BA9022A8A5128007B0EF25E025CA
:101F6300E024F6F582E43403F583E4939022ABF0A6
:101F73007D01E4FFA512808D6D90055AE064017028
:101F830048A51280BFDD80419013427404F0D21340
:101F9300E0FF25E025E024F3F582E43403F583A58F
:101FA300128007BA9022A8A5128007B0EF25E0257A
:101FB300E024F6F582E43403F583E4939022ABF056
:101FC3007D01E4FFA512808D6DE47F64FEFDFC902E
:101FD30022DC7416F0A37488F0A51280735B90164C
:101FE30022E0B4011A901624E0FCA3E0FDE4FFA56F
:101FF30012814CC1E4901622F0901624F0A3F090C5
:102003001623E0B40110A512814CB7E4901623F017
:10201300901626F0A3F07F00A522E4902054F0FE52
:102023007F57FD7B007A0279E3A51280085F7E0368
:102033007F3F7D007B007A137944A51280085F7E81
:10204300037FDE7D007B007A0F7953A51280085F42
:1020530090156F7401F0A3F07E027F297D007B0051
:102063007A03793AA51280085F9005427401F07EE5
:10207300037F137D007B007A0B79E5A51280085F4F
:10208300E47F64A512807352D211E49022A8F0D2A7
:1020930012FDFFA512808E78D211E49022A8F0D20F
:1020A30012FD7F01A512808E78D213900483A512AE
:1020B3008007BA9022A8A5128007B0900486A512C3
:1020C300808D64D21390043BA5128007BA9022A896
:1020D300A5128007B090043EE4939022ABF07D01FB
:1020E300E4FFA512808D6DE47F64A5128073527F97
:1020F30000A522E4902054F0A3F0A3F0A3F0FE7F08
:1021030014FD7B007A057965A51280085F9015722E
:10211300E0FF75F037900F58A512800799E0D3942C
:1021230000401875F037EF900F89A512800799E0EA
:10213300FFF46019901343EFF08012901572E0756D
:10214300F037900F89A51280079974FFF0901572EC
:10215300E075F037900F89A512800799E0F47002BB
:10216300802D901343E075F006900008A5128007B8
:1021730099E070028019901343E075F00690000512
:10218300A512800799E0FF540A7004EF20E0419004
:102193001342740EA512808D379013427419F0D236
:1021A30013E0FF25E025E024F3F582E43403F5830F
:1021B300A5128007BA9022A8A5128007B0EF25E0E8
:1021C30025E024F6F582E43403F583E4930224DA6C
:1021D3009013427427F090032BE0FEA3E0FFEE6020
:1021E30003022338EF24F6605724A670030222B6B5
:1021F300246360030223387B807A0379989022A9B1
:10220300A5128007B0901342E025E025E024F3F502
:1022130082E43403F583A5128007BA9022ACA51299
:102223008007B0901343E075F006900006A5128076
:102233000799E0FFA3E09022AFCFF0A3EF0223279B
:102243007B807A03799E9022A9A5128007B0901310
:1022530042E025E025E024F3F582E43403F583A589
:10226300128007BA9022ACA5128007B0901343E006
:1022730075F006900006A512800799E0FAA3E0FB2B
:1022830090032BE0FCA3E0FDAF03AE02A512800593
:10229300169022AFEEF0A3EFF090032BE0FCA3E047
:1022A300FDAF03AE02A5128005169022B1ECF0A398
:1022B300ED80717B807A0379A79022A9A51280070C
:1022C300B0901342E025E025E024F3F582E43403E3
:1022D300F583A5128007BA9022ACA5128007B090AF
:1022E3001343E075F006900006A512800799E0FA03
:1022F300A3E0FB90032BE0FCA3E0FDAF03AE02A53C
:10230300128005169022AFEEF0A3EFF090032BE0BE
:10231300FCA3E0FDAF03AE02A5128005169022B127
:10232300ECF0A3EDF07B007A057965A512800C86AD
:10233300902054EFF0A512808826C21EE4902D90C1
:10234300F09016837406F0900333E0640160030297
:1023530024A790133EE054FB60030224A790134389
:10236300E075F006900006A512800799E0FEA3E051
:10237300D39400EE940050030224A7D2137B007A77
:102383000579659022A8A5128007B0902054E090AB
:1023930022ABF07D01E4FFA512808D6D9020567471
:1023A3002DA512808D37900334E0FF7E007C037DE2
:1023B300E8A512800503E4FCFDA512807355900F78
:1023C30013E475F001A5128005AA901343E075F09C
:1023D30006900006A512800799E0FEA3E0FF900F88
:1023E30013E0FCA3E0FDA512816C26902057EFF0CB
:1023F3007076900DF2E064A07045A512807F60A511
:1024030012815EBB901343E075F006900006A5129F
:10241300800799E0FCA3E0FD7F02A512814CC190E7
:102423001343E075F006900006A512800799E0FFBC
:10243300A3E0901340CFF0A3EFF07F0102250990B2
:102443000DF2E064A170079013427430801F900D69
:10245300F2E0FF64A5600AEF64A66005EF64A7706D
:102463006E901342743180059013427431F0D2138D
:10247300E0FF25E025E024F3F582E43403F583A5AA
:10248300128007BA9022A8A5128007B0EF25E02595
:10249300E024F6F582E43403F583E4939022ABF071
:1024A300E4FD801BD2137B007A0579659022A8A5F1
:1024B300128007B0902054E09022ABF07D01E4FF3E
:1024C300A512808D6DE47FD07E07A512807353E43F
:1024D300901343F0FF802F9022ABF07D01E4FFA522
:1024E30012808D6DE47FD07E07A512807353A512F1
:1024F300808826C21EE4902D90F0901343F090162E
:10250300837406F07F00A522E4902054F0900579AF
:10251300E07002A3E0700590020704F0900207E068
:102523006401600302261B901562E06401600302EC
:1025330025C9C3901561E094F4901560E0940150AF
:10254300030225C9E4F0A3F0900333E0640170476C
:1025530090133EE054FB703F9013427435A51280F4
:102563008D37A51280734F901342742FA512807379
:1025730013A512813ACDEF6401600302262CD21316
:10258300901342A512807316A512813ACDEF640110
:10259300600302262C80739013427434A512808D3D
:1025A30037A5128072FDA512813ACDEF64017079CF
:1025B300D213901342A512807316A512813ACDEF60
:1025C300640170658044901562E06401705BC390A0
:1025D3001561E094FA901560E09400404C9013422A
:1025E3007434A512808D37A5128072FDA512813A2D
:1025F300CDEF64017033D213901342A5128073168A
:10260300A512813ACDEF6401701F900579E0440271
:10261300F0A3E0F07F01802A9013427410A512808A
:102623008D377F02A5128076E0901683E004F0A533
:102633001280B8DFBF01047F028007A51280734FA9
:102643007F01A522E4902054F0A3F0A3F0A3F0A30C
:10265300F0A3F0A3F0902054F0A3F0900542E064BF
:10266300016016D3901341E09400901340E094006E
:1026730040077F01A51280B688302007A512808805
:1026830011C220201E03022732D211E49022A8F0A7
:10269300D2127D01FFA512808E78C21EE4902D9088
:1026A300F0901343F0022732902056E07002A3E02B
:1026B300700302274290205A7401F0902056E0FEE6
:1026C300A3E0FF901340EE8FF0A5128005AA900EB1
:1026D300F9A512800738E4FCFDA5128005D8900EF9
:1026E300F9A51280078C900EFDA512800738902063
:1026F30056E0FEA3E0FFE4FCFDA5128005D8900E92
:10270300FDA51280078C9016227401F0902056E0EC
:10271300FEA3E0FF901624EE8FF0A5128005AA9089
:102723002058A51280BBCBE47FC8A512807352A5A5
:102733001280BB9A902056EEF0A3EFF00226AB90E6
:10274300205AE06401705A90031CE0FEA3E0FF905E
:102753002058E0B50622A3E0B5071D900F1FA51270
:10276300800738902058E0FEA3E0FFE4FCFDA512AB
:102773008005D8900F1F801B900F29A51280073862
:10278300902058E0FEA3E0FFE4FCFDA5128005D8ED
:10279300900F29A51280078CE4902058F0A3F0A392
:1027A300F09002EAE064016003022881900542E0B0
:1027B30064016003022881900551E0FF20E20302D7
:1027C3002881900557E020E0030228819002EEE083
:1027D300FCA3E0FDC3901341E09D901340E09C40B7
:1027E30003022881EF54FB900551F0900557E05404
:1027F300FEF0900554E0FFA3E0902054CFF0A3EF48
:10280300F0902054E0FEA3E0FF901340EE8FF0A57C
:10281300128005AA900EF9A512800738E4FCFDA5E5
:10282300128005D8900EF9A51280078C900F15A57C
:1028330012800738902054E0FEA3E0FFE4FCFDA5DE
:10284300128005D8900F15A51280078C901623745B
:1028530001F0902054E0FEA3E0FF901626EE8FF0E7
:10286300A5128005AA900330E0FFA3E0901551CF95
:10287300F0A3EFF09005617401F0A37468F0900287
:10288300EAE0640160030229DC900542E064017020
:10289300030229DCA51280BFECEF70030229DCA53B
:1028A30012813B47902054EEF0A3EFF04E7008A541
:1028B3001280725B0229D4902054E0FEA3E0FF90C3
:1028C3001341E02FFF901340E03EFEC39002EFE080
:1028D3009F9002EEE09E50349013427403A5128041
:1028E3008D377F02A5128076E0E47FDC7E05A5129A
:1028F300807353A51280725B901340E0FCA3E0FD4C
:102903004C70028050AF05AE04022B79A512813BB7
:102913000D902D9C740AF0902D9CE0600FA5128100
:102923003B3EEF7007A51280BBE280EB902D9CE04D
:10293300702CA51280725B902054E0FFA3E09002FC
:10294300F0CFF0A3EFF0A51280C5E2901340E07042
:1029530002A3E0707C901683F07F02022B8090200C
:1029630054E0FEA3E0FF901340EE8FF0A512800524
:10297300AA900EF9A512800738E4FCFDA512800584
:10298300D8900EF9A51280078C900F15A512800719
:1029930038902054E0FEA3E0FFE4FCFDA51280057F
:1029A300D8900F15A51280078C9016237401F09010
:1029B3002054E0FEA3E0FF901626EE8FF0A51280D0
:1029C30005AA900330E0FFA3E0901551CFF0A3EFE9
:1029D300F0E47F14A512807352E490205AF0902003
:1029E30058F0A3F09002EEE0FEA3E0FFC390134182
:1029F300E09F901340E09E5003022B71A512807359
:102A03004F902D9274C8F0902D92E07003022B1F0B
:102A1300A51280BB9A902056EEF0A3EFF04E700300
:102A2300022AB590205A7401F0902056E0FEA3E0EC
:102A3300FF901340EE8FF0A5128005AA900EF9A522
:102A430012800738E4FCFDA5128005D8900EF9A585
:102A53001280078C900EFDA512800738902056E057
:102A6300FEA3E0FFE4FCFDA5128005D8900EFDA5B2
:102A73001280078C9016227401F0902056E0FEA37A
:102A8300E0FF901624EE8FF0A5128005AA9020583F
:102A9300EE8FF0A5128005AA900330E0FFA3E0902B
:102AA3001551CFF0A3EFF0902D9274C8F0A51280CA
:102AB300BBE290205AE06401705A90031CE0FEA32D
:102AC300E0FF902058E0B50622A3E0B5071D900F64
:102AD3001FA512800738902058E0FEA3E0FFE4FC16
:102AE300FDA5128005D8900F1F801B900F29A512FA
:102AF300800738902058E0FEA3E0FFE4FCFDA51218
:102B03008005D8900F29A51280078CE4902058F0F7
:102B1300A3F0A3F0A51280BBE2022A0AA512806EDD
:102B230082A512801D41A5128155EF9002EAE0644F
:102B330001702D900542E064016025902D9C740185
:102B4300F0902D9CE06019A51280BFECEF6007A503
:102B53001280725B800AE47F0AA51280735280E1BF
:102B6300E47FF47E01A5128073537F01800F9013DD
:102B730040E0FEA3E0FFA512801D497F00A522903F
:102B83001572E0FF75F037900F58A512800799E092
:102B9300D39400402275F037EF900F89A512800778
:102BA30099E0FFF46023901572E0FE901343EFF079
:102BB300900206EEF08012901572E075F037900FD8
:102BC30089A51280079974FFF0901572E075F037AC
:102BD300900F89A512800799E0F470028012901378
:102BE30043E075F006900008A512800799E070662F
:102BF300901342740EA512808D379013427419F00E
:102C0300D213E0FF25E025E024F3F582E43403F555
:102C130083A5128007BA9022A8A5128007B0EF25DA
:102C2300E025E024F6F582E43403F583E49390226F
:102C3300ABF07D01E4FFA512808D6DE47FD07E07AC
:102C4300A512807353E4901343F0901565E044019B
:102C5300F07F02022CF8901343E075F00690000514
:102C6300A512800799E030E004540A60679013428C
:102C7300740EA512808D379013427419F0D213E0AD
:102C8300FF25E025E024F3F582E43403F583A51260
:102C93008007BA9022A8A5128007B0EF25E025E0AF
:102CA30024F6F582E43403F583E4939022ABF07DBC
:102CB30001E4FFA512808D6DE47FD07E07A512800D
:102CC3007353E4901343F0901565E04401F0E490EE
:102CD3001343801A901343E075F006900006A51283
:102CE300800799E0FEA3E04E7009901343F0F07F54
:102CF3000180027F00A522E4902054F0A3F0A3F00A
:102D0300A3F090055AE0B40118900558E0FEA3E043
:102D1300FF901341E02FFF901340E03E9020558039
:102D23000B901340E0FFA3E0902055CFF0A3EFF00A
:102D3300901343E075F006900006A512800799E012
:102D4300FEA3E0FF902055E0FCA3E0FDD3EF9DEE52
:102D53009C5003022F049013427433A512808D37C5
:102D63009013427427F090032BE0FEA3E0FFEE6084
:102D730003022EC8EF24F6605724A67003022E46E2
:102D830024636003022EC87B807A0379989022A97A
:102D9300A5128007B0901342E025E025E024F3F567
:102DA30082E43403F583A5128007BA9022ACA512FE
:102DB3008007B0901343E075F006900006A51280DB
:102DC3000799E0FFA3E09022AFCFF0A3EF022EB765
:102DD3007B807A03799E9022A9A5128007B0901375
:102DE30042E025E025E024F3F582E43403F583A5EE
:102DF300128007BA9022ACA5128007B0901343E06B
:102E030075F006900006A512800799E0FAA3E0FB8F
:102E130090032BE0FCA3E0FDAF03AE02A5128005F7
:102E2300169022AFEEF0A3EFF090032BE0FCA3E0AB
:102E3300FDAF03AE02A5128005169022B1ECF0A3FC
:102E4300ED80717B807A0379A79022A9A512800770
:102E5300B0901342E025E025E024F3F582E4340347
:102E6300F583A5128007BA9022ACA5128007B09013
:102E73001343E075F006900006A512800799E0FA67
:102E8300A3E0FB90032BE0FCA3E0FDAF03AE02A5A0
:102E9300128005169022AFEEF0A3EFF090032BE023
:102EA300FCA3E0FDAF03AE02A5128005169022B18C
:102EB300ECF0A3EDF07B007A057965A512800C8612
:102EC300902054EFF0D2137B007A0579659022A805
:102ED300A5128007B0902054E09022ABF07D01E46E
:102EE300FFA512808D6DE47FDC7E05A512807353F0
:102EF300E4901343F0901565E04401F07F01023044
:102F03004090055AE06401600302300EA512816807
:102F13001E902057EFF06003022FD7900558E0FF73
:102F2300A3E0902055CFF0A3EFF0902055E0FEA34F
:102F3300E0FF901340EE8FF0A5128005AA900EF9E2
:102F4300A512800738E4FCFDA5128005D8900EF980
:102F5300A51280078C900F15A51280073890205575
:102F6300E0FEA3E0FFE4FCFDA5128005D8900F1559
:102F7300A51280078C9016237401F0902055E0FE73
:102F8300A3E0FF901626EE8FF0A5128005AAE49029
:102F9300055AF0900558F0A3F0901622E0B4011AF8
:102FA300901624E0FCA3E0FDE4FFA512814CC1E4EC
:102FB300901622F0901624F0A3F0901623E06401FB
:102FC3007062A512814CB7E4901623F0901626F098
:102FD300A3F08050E490055AF0900558F0A3F0A5B3
:102FE30012801D41901343E075F006900006A51270
:102FF300800799E0FEA3E0FF901340E0FCA3E0FD0F
:10300300D3EF9DEE9C401D7F0180329002EAE0B435
:103013000112900542E0B4010B900557E030E00443
:103023007F018019E4900557F0900551F07F2C7EC5
:1030330001A512807353A51280AF987F00A5227F4C
:1030430001902057EFF0E4A3F0A3F0A3F0A51280C2
:10305300AF98A512806E82902057E06003023192F0
:103063009013427414A512808D377E007F147D0067
:103073007B007A057965A51280085F90032BE0FE3B
:10308300A3E0FFEE600302318FEF24F6603D24A638
:103093007003023127246360030232EA7B807A03E0
:1030A30079B29022A9A5128007B09004A3A512803B
:1030B30007BA9022ACA5128007B0901340E0FFA39B
:1030C300E09022AFCFF0A3EF02317E7B807A0379C9
:1030D300B79022A9A5128007B09004A3A512800778
:1030E300BA9022ACA5128007B090032BE0FAA3E0BC
:1030F300FB901340E0FEA3E0FFAD03AC02A51280FA
:1031030005169022AFEEF0A3EFF0901340E0FEA37C
:10311300E0FFAD03AC02A5128005169022B1ECF0DE
:10312300A3ED80577B807A0379BF9022A9A51280F3
:1031330007B09004A3A5128007BA9022ACA5128011
:1031430007B090032BE0FAA3E0FB901340E0FEA34B
:10315300E0FFAD03AC02A5128005169022AFEEF09E
:10316300A3EFF0901340E0FEA3E0FFAD03AC02A594
:10317300128005169022B1ECF0A3EDF07B007A05E6
:103183007965A512800C86902059EFF00232EA90FF
:103193002057E0640260030233399013427414A58C
:1031A30012808D377E007F147D007B007A05796560
:1031B300A51280085F90032BE0FEA3E0FFEE6003FF
:1031C3000232EAEF24F6603A24A6700302326E2438
:1031D3006360030232EA7B807A0379C99022A9A54E
:1031E300128007B09004BBA5128007BA9022ACA549
:1031F300128007B0900DF4A51280071A9022AF0237
:1032030032D57B807A0379CF9022A9A5128007B0AB
:103213009004BBA5128007BA9022ACA5128007B018
:1032230090032BE0FEA3E0FFFBAA06E4F9F8900D60
:10323300F4A51280071AA5128006739022AFA51277
:1032430080078C90032BE0FEA3E0FFFBAA06E4F9C2
:10325300F8900DF4A51280071AA512800673AC002E
:10326300AD01AE02AF039022B380677B807A03790E
:10327300D99022A9A5128007B09004BBA51280079C
:10328300BA9022ACA5128007B090032BE0FEA3E016
:10329300FFFBAA06E4F9F8900DF4A51280071AA51E
:1032A300128006739022AFA51280078C90032BE047
:1032B300FEA3E0FFFBAA06E4F9F8900DF4A5128043
:1032C300071AA512800673AC00AD01AE02AF0390DE
:1032D30022B3A51280078C7B007A057965A512803D
:1032E3000C86902059EFF0D2137B007A0579659014
:1032F30022A8A5128007B0902059E09022ABF07D60
:1033030001E4FFA512808D6DE47F64A512807352E2
:10331300901343E0FF90162EF0E4A3F075F006EF50
:10332300900006A512800799E0FFA3E0901630CF26
:10333300F0A3EFF08029902057E0640170219013EF
:10334300427414A512808D377F02A5128076E0E4C3
:103353007F64A51280735290162EE0901343F0E41D
:1033630090162DF0A51280AF98A51280CBDF902088
:1033730058EFF0BF0704E40238BB902058E0A512D1
:103383008007C733A200367901367902384B0338F8
:103393004B0433A205384B07387708000038C9902F
:1033A3002057E06003B40221901343E075F00690C8
:1033B3000006A512800799E0FEA3E0FFC390134126
:1033C300E09FF0901340E09EF0902057E0B401227C
:1033D300901630E0FEA3E0FF901340E0FCA3E0FD75
:1033E300C39FEC9E400CED9FFFEC9E901340F0A317
:1033F300EFF0901342741AA512808D37902057E096
:103403006003023582A512809231EF70279002EBA0
:10341300E0B40116B4011DA3E0FEA3E0FFC39013C3
:1034230041E09F901340E09E500A7F02A5128076F0
:10343300E00235827E007F147D007B007A0579658A
:10344300A51280085F90032BE0FEA3E0FFEE60036C
:10345300023559EF24F6603D24A670030234F124AB
:103463006360030235597B807A0379B29022A9A560
:10347300128007B09004A3A5128007BA9022ACA5CE
:10348300128007B0901340E0FFA3E09022AFCFF08B
:10349300A3EF0235487B807A0379B79022A9A5125E
:1034A3008007B09004A3A5128007BA9022ACA5129E
:1034B3008007B090032BE0FAA3E0FB901340E0FEFB
:1034C300A3E0FFAD03AC02A5128005169022AFEE78
:1034D300F0A3EFF0901340E0FEA3E0FFAD03AC02D6
:1034E300A5128005169022B1ECF0A3ED80577B80E6
:1034F3007A0379BF9022A9A5128007B09004A3A5EF
:10350300128007BA9022ACA5128007B090032BE07B
:10351300FAA3E0FB901340E0FEA3E0FFAD03AC028F
:10352300A5128005169022AFEEF0A3EFF0901340A2
:10353300E0FEA3E0FFAD03AC02A5128005169022C6
:10354300B1ECF0A3EDF07B007A057965A512800C50
:1035530086902059EFF0D2137B007A05796590228B
:10356300A8A5128007B0902059E09022ABF07D010E
:10357300E4FFA512808D6DE47FC8A512807352907D
:103583001343E0FF75F006900008A512800799E049
:1035930014F075F006EF900008A512800799E0700B
:1035A30013901343E075F006900005A51280079968
:1035B300E04404F0902058E0B40513901343E07501
:1035C300F006900005A512800799E04402F0A512C9
:1035D30080C5B7900F01A512800738901343E0759B
:1035E300F006900006A512800799E0FEA3E0FFE431
:1035F300FCFDA5128005D8900F01A51280078C90C1
:103603000F05E475F001A5128005AAA51280C5E097
:10361300902057E0B401059016348003901633A52B
:10362300128158E4E490162DF0A3E0FDA3E0FBA380
:10363300E0FFA3E090205ECFF0A3EFF0E4FFA5123C
:10364300814AF890154FE4F0A37464F090154FE0AD
:103653007002A3E0601BA512807F835008E4FDFF86
:10366300A51280685EA5128096AF90205AEFF08075
:10367300DB7F000238EAA512808D32901343E07598
:10368300F006900005A512800799E04402F090200F
:1036930057E0FF600764026003023810A5128092AE
:1036A30031EF640160030237EFFE7F14FD7B007A84
:1036B300057965A51280085F90032BE0FEA3E0FF68
:1036C300EE60030237CCEF24F6603D24A6700302BC
:1036D3003764246360030237CC7B807A0379B2902A
:1036E30022A9A5128007B09004A3A5128007BA905F
:1036F30022ACA5128007B0901340E0FFA3E0902214
:10370300AFCFF0A3EF0237BB7B807A0379B7902268
:10371300A9A5128007B09004A3A5128007BA90222E
:10372300ACA5128007B090032BE0FAA3E0FB901343
:1037330040E0FEA3E0FFAD03AC02A51280051690A6
:1037430022AFEEF0A3EFF0901340E0FEA3E0FFAD55
:1037530003AC02A5128005169022B1ECF0A3ED8014
:10376300577B807A0379BF9022A9A5128007B09076
:1037730004A3A5128007BA9022ACA5128007B090CB
:10378300032BE0FAA3E0FB901340E0FEA3E0FFADC0
:1037930003AC02A5128005169022AFEEF0A3EFF062
:1037A300901340E0FEA3E0FFAD03AC02A512800539
:1037B300169022B1ECF0A3EDF07B007A057965A5B4
:1037C30012800C86902059EFF0D2137B007A057992
:1037D300659022A8A5128007B0902059E09022ABF3
:1037E300F07D01E4FFA512808D6D80077F02A51295
:1037F3008076E0E47FE87E03A51280735390134044
:10380300E0FFA3E0900563CFA5128038F0A51280F6
:10381300C5A4900F07E475F001A5128005AAA512AF
:1038230080C5E0A512806F5C902057E0B40105903D
:1038330016348003901633E0FFA5128158E6A512D3
:10384300814ADD7F020238EAA512808D32A51280FB
:10385300C5A4902057E0B401059016348003901658
:1038630033E0FFA5128158E6A512814ADDE47FC447
:103873007E09803BA512808D32901343E075F006DC
:10388300900005A512800799E04404F0A51280C5B5
:10389300B7902057E0B40105901634800390163397
:1038A300A5128158E4A512814ADDE47FE87E03A5D1
:1038B300128073537F00802FF0A51280CBDF9020FE
:1038C30058EFF002337D90162EE0FDA3E0FBA3E05A
:1038D300FFA3E090205ECFF0A3EFF090162DE0FF62
:1038E300A512814AF87F00A522900563EEF0A3EFAD
:1038F300F0E4901340F0A3F0E490205BF0A3F0A376
:10390300F0A3F0A3F0A3F0A3F0A304F0A3F0A3F0BB
:10391300E4A3F0A3F0A512809231EF6401600DA53A
:10392300128095F6BF01057F00024329901342746C
:103933001BA512808D37A51280734F7E007F147DE7
:10394300007B007A057965A51280085F90032BE060
:10395300FEA3E0FFEE6003023A60EF24F6603D242D
:10396300A670030239F824636003023A607B807A0D
:103973000379B29022A9A5128007B090049FA512E3
:103983008007BA9022ACA5128007B0900563E0FFD0
:10399300A3E09022AFCFF0A3EF023A4F7B807A03EC
:1039A30079B79022A9A5128007B090049FA5128031
:1039B30007BA9022ACA5128007B090032BE0FAA3BC
:1039C300E0FB900563E0FEA3E0FFAD03AC02A512AC
:1039D3008005169022AFEEF0A3EFF0900563E0FEB2
:1039E300A3E0FFAD03AC02A5128005169022B1EC53
:1039F300F0A3ED80577B807A0379BF9022A9A512AB
:103A03008007B090049FA5128007BA9022ACA5123C
:103A13008007B090032BE0FAA3E0FB900563E0FE80
:103A2300A3E0FFAD03AC02A5128005169022AFEE12
:103A3300F0A3EFF0900563E0FEA3E0FFAD03AC025B
:103A4300A5128005169022B1ECF0A3EDF07B007A6D
:103A5300057965A512800C86902061EFF0D2137B67
:103A6300007A0579659022A8A5128007B09020619D
:103A7300E0A5128073429015647401F0E490161C63
:103A8300F0A3F0A3F0A3F0A512807F835008E4FD18
:103A9300FFA51280685EA5128096AF902066EFF0B6
:103AA300E490205BF0A3F0A3F0900563E0FEA3E0B5
:103AB300FF4E7007902065F002410C7B007A20795D
:103AC3005C90206CA5128007B07A200990206FA526
:103AD300128007B07A20795BA512808FF190205E67
:103AE300EFF07003023B7DE4F090205EE0FFC394AF
:103AF30003501DEF25E025E024D9F582E4340BF5CE
:103B030083E0FEA3E04E600890205EE004F080D9DD
:103B130090205EE0FF701990206504F0900563E04B
:103B2300FDA3E09002F2CDF0A3EDF0D22202410C0E
:103B3300EF25E025E024D5F582E4340BF583E0FEA0
:103B4300A3E0FF900563E0FCA3E0FDC39FEC9E4070
:103B5300129020657401F09002F2ECF0A3EDF0D224
:103B630022800DE49002F2F0A3F0C222902065F0CF
:103B7300E4900563F0A3F002410CE490205FF0A30E
:103B8300F090205BE0FF7003023C437E007A167BDB
:103B93009D7D01A5128084A8EF7074A5128067E350
:103BA300E490205EF090205EE0C3940250567C16B1
:103BB3007D9D7F01A512807494EF6401603F901690
:103BC300A0E0FD54506007902062E04404F0ED3023
:103BD300E507902062E04402F09016A0E030E3078E
:103BE300902062E04408F07F01A5128139AC902057
:103BF3005FEEF0A3EFF0E490205EF08007A5128063
:103C030067DD80A190205EE0C394024009800090AC
:103C13002062E04404F09002E4E0FCA3E0FD902085
:103C23005FE0FEA3E0FFA512800503C3900564E0F7
:103C33009FF0900563E09EF090161CEEF0A3EFF06A
:103C430090205FE0FEA3E0FF900F0DEE8FF0A51232
:103C53008005AA900F33A512800738C0009002E4B4
:103C6300E0FCA3E0FD90205FE0FEA3E0FFA512804F
:103C73000503E4FCFDD000A5128005D8900F33A501
:103C83001280078C900F09A512800738C00090029C
:103C9300E4E0FCA3E0FD90205FE0FEA3E0FFA512BB
:103CA300800503E4FCFDD000A5128005D8900F0920
:103CB300A51280078C902062E064017003023D5AD4
:103CC300E4902061F0902061E0FFC39403506CEF17
:103CD30025E025E024DBF582E4340BF583E0640181
:103CE3007051902062E0FF30E2079013337401803B
:103CF30017EF30E3079013337404800C902062E0D5
:103D030030E11A9013337402F0902061E025E0252E
:103D1300E024DCF582E4340BF5837402F0A5128011
:103D23009213902061E0B50712901333E0600CC248
:103D33001D8008902061E004F0808A902062740165
:103D4300F090205BE0FFC3902060E09F90205FE055
:103D530094005003023A8AE490205FF0A3F090208D
:103D63005CE0FF7003023E207E007A167BB27D0288
:103D7300A5128084A8EF7074A5128067E3E49020F5
:103D83005EF090205EE0C3940250567C167DB27FB5
:103D930002A512807494EF6401603F9016B5E0FDB4
:103DA30054506007902063E04404F0ED30E5079041
:103DB3002063E04402F09016B5E030E307902063FF
:103DC300E04408F07F02A5128139AC90205FEEF049
:103DD300A3EFF0E490205EF08007A5128067DD80FA
:103DE300A190205EE0C3940240098000902063E02C
:103DF3004404F09002E6E0FCA3E0FD90205FE0FEC7
:103E0300A3E0FFA512800503C3900564E09FF09033
:103E13000563E09EF090161EEEF0A3EFF090205F96
:103E2300E0FEA3E0FF900F0FEE8FF0A5128005AA2E
:103E3300900F3DA512800738C0009002E6E0FCA376
:103E4300E0FD90205FE0FEA3E0FFA512800503E400
:103E5300FCFDD000A5128005D8900F3DA512800768
:103E63008C900F09A512800738C0009002E6E0FC91
:103E7300A3E0FD90205FE0FEA3E0FFA51280050311
:103E8300E4FCFDD000A5128005D8900F09A512808F
:103E9300078C902063E064017003023F37E49020B5
:103EA30061F0902061E0FFC39403506CEF25E0259F
:103EB300E024DBF582E4340BF583E0640270519077
:103EC3002063E0FF30E20790133474018017EF3072
:103ED300E3079013347404800C902063E030E11AFC
:103EE3009013347402F0902061E025E025E024DC97
:103EF300F582E4340BF5837402F0A51280921390DB
:103F03002061E0B50712901334E0600CC21D8008F5
:103F1300902061E004F0808A9020637401F0902087
:103F23005CE0FFC3902060E09F90205FE09400502E
:103F330003023A8AE490205FF0A3F090205DE0FF53
:103F43007003023FF77E007A167BC77D03A51280BC
:103F530084A8EF706EA5128067E3E490205EF09072
:103F6300205EE0C394025050A51280748EEF64016A
:103F7300603F9016CAE0FD54506007902064E0440F
:103F830004F0ED30E507902064E04402F09016CA97
:103F9300E030E307902064E04408F07F03A512813A
:103FA30039AC90205FEEF0A3EFF0E490205EF08058
:103FB30007A5128067DD80A790205EE0C3940240CE
:103FC300098000902064E04404F09002E8E0FCA340
:103FD300E0FD90205FE0FEA3E0FFA512800503C390
:103FE300900564E09FF0900563E09EF0901620EE4C
:103FF300F0A3EFF090205FE0FEA3E0FF900F11EE3F
:104003008FF0A5128005AA900F47A512800738C02C
:10401300009002E8E0FCA3E0FD90205FE0FEA3E057
:10402300FFA512800503E4FCFDD000A5128005D88E
:10403300900F47A51280078C900F09A512800738AF
:10404300C0009002E8E0FCA3E0FD90205FE0FEA347
:10405300E0FFA512800503E4FCFDD000A512800556
:10406300D8900F09A51280078C902064E06401703A
:1040730003023A8AE4902061F0902061E0FFC39448
:1040830003506CEF25E025E024DBF582E4340BF5E7
:1040930083E064037051902064E0FF30E2079013E3
:1040A3003574018017EF30E3079013357404800CE7
:1040B300902064E030E11A9013357402F09020618F
:1040C300E025E025E024DCF582E4340BF58374027B
:1040D300F0A512809213902061E0B507129013357A
:1040E300E0600CC21D8008902061E004F0808A909B
:1040F30020647401F090205DE0FFC3902060E09F96
:1041030090205FE09400023A8A90161CE0FCA3E042
:10411300FDD39400EC9400500E90161FE094009091
:10412300161EE09400401A90161EE0FAA3E0FBE48A
:10413300FFA512814E7AE490161CF0A3F0A3F0A31E
:10414300F0902065E0700302430CA51280C5E29055
:1041530013427401A512808D379013427420F07EB0
:10416300007F147D007B007A057965A51280085FC6
:10417300901342E0FF25E025E024F6F582E43403C2
:10418300F583E493FD7C00C004C005EF25E025E042
:1041930024F3F582E43403F583A5128007BA786526
:1041A3007C057D00D007D006A5128004D79013426A
:1041B300E025E025E024F6F582E43403F583E49377
:1041C300902061F090032BE0FEA3E0FFEE6003027A
:1041D30042E2EF24F6604024A67003024276246391
:1041E30060030242E2902061E02465F9E43405FAB9
:1041F3007B00C003C002C0017B807A0379879022D1
:10420300A9A5128007B09002F2E0FFA3E09022ACD0
:10421300CFF0A3EF0242D0902061E02465F9E434AB
:1042230005FA7B00C003C002C0017B807A03798A50
:104233009022A9A5128007B090032BE0FAA3E0FB1C
:104243009002F2E0FEA3E0FFAD03AC02A5128005ED
:10425300169022ACEEF0A3EFF09002F2E0FEA3E0A2
:10426300FFAD03AC02A5128005169022AEECF0A3BD
:10427300ED805A902061E02465F9E43405FA7B006F
:10428300C003C002C0017B807A0379909022A9A564
:10429300128007B090032BE0FAA3E0FB9002F2E058
:1042A300FEA3E0FFAD03AC02A5128005169022AC7D
:1042B300EEF0A3EFF09002F2E0FEA3E0FFAD03AC5B
:1042C30002A5128005169022AEECF0A3EDF0D0010A
:1042D300D002D003A512800C86902061E02FF0D28B
:1042E300137B007A0579659022A8A5128007B09008
:1042F3002061E09022ABF07D01E4FFA512808D6D7B
:104303007FD07E07A5128067E790032DE0640160EC
:1043130013901333E090057A6006E04408F08004BC
:10432300E054F7F07F00A522E4902054F0A512801A
:104333006F5C90057AE04440F0901342740DA5122F
:10434300808D377F01A522E4902054F0A3F0A3F0E1
:10435300902D97F0900002F0A512806E82900207D4
:104363007402F0302007A512808811C220901C1F10
:104373007401F0E4901568F0FBFAFD7F05A5128146
:104383004BFBA5128147A4A51280477CA512809FF1
:104393009440EF9015687401F0E4FBFAFD7F06A5E5
:1043A30012814BFBE490055AF0900558F0A3F0906E
:1043B3001C1FF0D21390043BA5128007BA9022A8C9
:1043C300A5128007B090043EA512808D64D2137BA2
:1043D300807A0379E59022A8A5128007B09022ABDA
:1043E3007401F0FDE4FFA512808D6DA5128088266F
:1043F3009002077401F0E4900579F0A3F0D21D2038
:104403002007A512808FE9D220D21FA51280790D33
:10441300901331E07003201D0D901332E06007907C
:10442300057AE04402F07D53E4FFA51280CBF4BF8C
:10443300020790057AE04440F0E4901683F090027E
:10444300E2F0900184A51280BB97902055EEF0A373
:10445300EFF07F00A522E4902054F0A3F0201F0387
:1044630002475AA512806E829013427410A51280DF
:104473008D37E47FC8A512807352900579E0FEA3BF
:10448300E0FF30E00990205574F1F002453FEF3032
:10449300E10990205574F2F002453FEF30E20990B4
:1044A300205574F3F002453FEF30E3099020557433
:1044B300F4F002453FEF30E40890205574F5F080A6
:1044C3007BEF30E50890205574F6F0806FEF30E60F
:1044D3000890205574F7F08063EF30E7089020557B
:1044E30074F8F08057EE30E00890205574F9F080AE
:1044F3004BEE30E10890205574FAF0803FEE30E245
:104503000890205574FBF08033EE30E3089020557B
:1045130074FCF08027EE30E40890205574FDF080A1
:104523001BEE30E50890205574FEF0800FEE9020CE
:104533005530E60574E1F0800374FFF02022030296
:1045430046FB9002F2E07002A3E070030246FB7B9D
:10455300807A0379E79022A9A5128007B0902055AD
:10456300E09022ACF07B007A057965A512800C8679
:10457300902054EFF09013427420F0E0FE25E025E4
:10458300E024F6F582E43403F583E493FD7C00C074
:1045930004C005EE25E025E024F3F582E43403F5B9
:1045A30083A5128007BAC00174652FF9E43405A806
:1045B30001FC7D00D001D007D006A5128004D7905E
:1045C3001342E025E025E024F6F582E43403F58385
:1045D300E493FF902054E02FF090032BE0FEA3E040
:1045E300FFEE60030246F7EF24F6604024A6700353
:1045F30002468B246360030246F7902054E024654F
:10460300F9E43405FA7B00C003C002C0017B807A61
:104613000379879022A9A5128007B09002F2E0FFE8
:10462300A3E09022ACCFF0A3EF0246E5902054E044
:104633002465F9E43405FA7B00C003C002C0017BA2
:10464300807A03798A9022A9A5128007B090032B60
:10465300E0FAA3E0FB9002F2E0FEA3E0FFAD03ACBF
:1046630002A5128005169022ACEEF0A3EFF09002A3
:10467300F2E0FEA3E0FFAD03AC02A51280051690A5
:1046830022AEECF0A3ED805A902054E02465F9E4C7
:104693003405FA7B00C003C002C0017B807A037932
:1046A300909022A9A5128007B090032BE0FAA3E013
:1046B300FB9002F2E0FEA3E0FFAD03AC02A5128083
:1046C30005169022ACEEF0A3EFF09002F2E0FEA309
:1046D300E0FFAD03AC02A5128005169022AEECF00C
:1046E300A3EDF0D001D002D003A512800C86902058
:1046F30054E02FF0C22280267B807A0379E7902250
:10470300A9A5128007B0902055E09022ACF07B0061
:104713007A057965A512800C86902054EFF0D213A8
:104723007B007A0579659022A8A5128007B09020B6
:1047330054E09022ABF07D01E4FFA512808D6DE47F
:104743007FC8A512807352900001E004F0E0C39487
:10475300024004C21FE4F0900309E0B40117900083
:1047630002E0700CA512809C87EF700404F08005B2
:10477300A51280B79A7F01A522E4902059F0D20FA9
:10478300A3F0A3F0024E7590205AE06003024E8519
:10479300F0D20FA512808826D2139018ACA51280F0
:1047A30007BA9022A8A5128007B09018AFA512806F
:1047B3008D64D2139018B0A5128007BA9022A8A5D1
:1047C300128007B09018B3E4939022ABF07D01E41C
:1047D300FFA512808D6DA512808E6A9020577401FB
:1047E300F0A304F0200F03024B77A51280A0D8900A
:1047F300205BEFF024F3700302498324F270030279
:10480300497E24CB70030248D224086003024B661E
:10481300902058E06402702DD2119022A87402F007
:10482300D212E4FDFFA512808E789020587401F017
:10483300902057E07006740DF0024B66902057E00D
:1048430014F0024B66D213902057E0FF25E025E0D9
:1048530024ACF582E43418F583A5128007BA9022BC
:10486300A8A5128007B0EF25E025E024AFF582E488
:104873003418F583E4939022ABF07D01E4FFA51295
:10488300808D6D902057E07005740DF080069020A8
:1048930057E014F0D213902057E0FF25E025E024E1
:1048A300ACF582E43418F583A5128007BA9022A8E8
:1048B300A5128007B0EF25E025E024AFF582E434AC
:1048C30018A512808D629020587401F0024B6690F7
:1048D3002058E06401701AA512808E6A902057E078
:1048E300B40D05E4F0024975902057E004F0024945
:1048F30075D213902057E0FF25E025E024ACF58224
:10490300E43418F583A5128007BA9022A8A5128073
:1049130007B0EF25E025E024AFF582E43418A512B3
:10492300808D62902057E0B40D04E4F0800690205F
:1049330057E004F0D213902057E0FF25E025E02450
:10494300ACF582E43418F583A5128007BA9022A847
:10495300A5128007B0EF25E025E024AFF582E4340B
:1049630018F583E4939022ABF07D01E4FFA5128058
:104973008D6D9020587402F0024B66C20F024B6695
:10498300C211E49022A8F0D212FDFFA512808E7806
:10499300A512808826902057E0A5128007C749C931
:1049A3000049D00149D70249DB0349E20449E9053B
:1049B30049F20849F9094A000A4A070B4A0E0C4A08
:1049C300150D00004A1AA512808EDC804AA51281BB
:1049D300468E80437F018010A512814D408038A50B
:1049E3001281625180317F02A5128164898028A5DA
:1049F3001280D6F18021A51280F489801AA5128035
:104A0300F5D78013A512805E1A800CA51280C121F0
:104A13008005A51280E6BA902058E0640260030284
:104A23004AB1902057E07017D2139018E0A5128076
:104A330007BA9022A8A5128007B09018E3802FD25E
:104A430013902057E0FF25E025E024A8F582E43405
:104A530018F583A5128007BA9022A8A5128007B083
:104A6300EF25E025E024ABF582E43418F583A512A5
:104A7300808D64D213902057E0FF25E025E024AC1D
:104A8300F582E43418F583A5128007BA9022A8A50D
:104A9300128007B0EF25E025E024AFF582E4341857
:104AA300F583E4939022ABF07D01E4024B44902024
:104AB30057E0B40D17D2139018ACA5128007BA9023
:104AC30022A8A5128007B09018AF802FD213902090
:104AD30057E0FF25E025E024B0F582E43418F583A0
:104AE300A5128007BA9022A8A5128007B0EF25E08F
:104AF30025E024B3F582E43418F583E4939022ABE4
:104B0300F07D01E4FFA512808D6DD213902057E054
:104B1300FF25E025E024ACF582E43418F583A512E3
:104B23008007BA9022A8A5128007B0EF25E025E000
:104B330024AFF582E43418F583E4939022ABF0E4D8
:104B4300FDFFA512808D6D902058E014FDD21190C9
:104B530022A87402F0D212E4FFA512808E78A51267
:104B6300808826A512806E7C7F0A7E00A51280A411
:104B7300840247E7E47F2C7E01FDFC9022DC74165F
:104B8300F0A37488F0A51280735BA5128139E5D276
:104B930011E49022A8F0D212FDFFA512808E78D2E4
:104BA30011E49022A8F0D212FD7F01A512808E7825
:104BB300902DA0E0700330254ED2137B807A1879B4
:104BC3007A9022A8A5128007B09022AB740AA5128E
:104BD300808D69D2137B807A1879859022A8A512DB
:104BE3008007B09022AB7401F0FDE4FFA512808D25
:104BF3006DE47FC47E09FDFC9022DC7416F0A3747F
:104C030088F0A51280735B902DA0E07003024CE640
:104C1300A51280E9FEE47F64A512807352A5128079
:104C2300C5B7E47F64A5128073527E017F807D0047
:104C33007B007A20795CA51280085F7F807E027DED
:104C4300087C0075372075385C753901753A80A585
:104C53001280E8D2E4902059F0902059E0FF75F0DB
:104C630006902060A512800799E0FE75F006EF908C
:104C73000008A512800799E06E7057902059E075DF
:104C8300F00690205DA512800799E0FE75F006EF0F
:104C9300900005A512800799E0B50636902059E0EB
:104CA30075F00690205EA512800799E0FCA3E0FD55
:104CB30075F006EF900006A512800799E0FEA3E0C9
:104CC300B5050FEEB5040B902059E004F0E0644005
:104CD3007087902059E064406004A37401F0E4906D
:104CE3002DA0F0202503024DD9A51280C5E2E47F53
:104CF30064A5128073527E007F577D007B007A216A
:104D030079DCA51280085F7F807E017D087C0075B9
:104D130037217538DC753900753A57A51280E8D20A
:104D23009021DCE0FF9002E3E06F6003024DD1903D
:104D330021DDE0FEA3E0FF9002E4E06E7003A3E058
:104D43006F6003024DD19021DFE0FEA3E0FF9002EC
:104D5300E6E06E7003A3E06F70749021E1E0FEA3C0
:104D6300E0FF9002E8E06E7003A3E06F70609021B3
:104D7300E3E0FF9002EAE06F70549021E4E0FF90DB
:104D830002EBE06F70489021E5E0FEA3E0FF9002A4
:104D9300ECE0B50639A3E0B507349021E7E0FEA3C4
:104DA300E0FF9002EEE0B50625A3E0B507209021D1
:104DB300EBE0FEA3E0FF9002F2E0B50611A3E0B53D
:104DC300070C902232E0FF900339E06F60069020D9
:104DD3005A7401F0C22590205AE07003024E7CA55C
:104DE30012808826D2137B807A1879879022A8A50F
:104DF300128007B09022AB7413A512808D69D21371
:104E03007B807A18799B9022A8A5128007B0902204
:104E1300AB7410F07D01E4FFA512808D6D902D9C85
:104E2300740FF0E4902059F0902D9CE0603BA512A4
:104E330080BBE2A51280A0D890205BEFF0F460E87D
:104E430090205BE024E56010240E70DCE490205A8F
:104E5300F090205904F0800A90205A7401F09020B9
:104E630059F0902059E0B401BF902D9CE0600302FB
:104E7300478A90205AF002478A90205A7401F00220
:104E8300478AA50280882690224EEDF090224DEFAE
:104E9300F0E490224FF0EF14602B14603A14605347
:104EA30014606C24F77003024F34240D6003024F27
:104EB30056901331E0FF30E702807EEF20E00302DB
:104EC3004F51024F49901332E0FF30E702806AEFFF
:104ED30030E00280718077901333E0FF30E7028087
:104EE30058EF540660028036901333E030E00280BE
:104EF30055805B901334E0FF30E702803CEF5406AB
:104F03006002801A901334E030E0028039803F90D1
:104F13001335E0FF30E7028020EF5406600890224B
:104F23004F7403F0802D901335E030E0028017803A
:104F33001D90133EE0FF30E70890224F7402F0808B
:104F430012EF5403600890224F7401F08005E4903F
:104F5300224FF030110302503C90224DE0FF25E038
:104F630025E024BDF582E4340BF583E493FD7C0056
:104F7300C004C005EF25E025E024BAF582E4340B34
:104F8300F583A5128007BA78507C227D00D007D024
:104F930006A5128004D790224FE0FF25E025E024E8
:104FA300FDF582E4340BF583E493FD7C00C004C07B
:104FB30005EF25E025E024FAF582E4340BF583A51B
:104FC300128007BAC00190224DE025E025E024BD00
:104FD300F582E4340BF583E4932450F9E43422A8F6
:104FE30001FC7D00D001D007D006A5128004D79024
:104FF300224EE0FDD2137B007A2279509022A8A59D
:10500300128007B090224FE025E025E024FDF582D1
:10501300E4340BF583E493FF90224DE025E025E093
:1050230024BDF582E4340BF583E4932F9022ABF097
:10503300E4FFA512808D6D800590224FE0FFA5222D
:10504300902233E0FF7D0190224CEDF090224BEF54
:10505300F0601BE0FF64016015EF64026010EF6411
:1050630003600BEF64046006EF6003B40D1190223C
:105073004BE0FFA3E0FDC211A512804E8A80419050
:10508300224CE0FDD21390224BE0FF25E025E024E3
:10509300BAF582E4340BF583A5128007BA9022A8EF
:1050A300A5128007B0EF25E025E024BDF582E434A6
:1050B3000BF583E4939022ABF0E4FFA512808D6D92
:1050C300A52290223CE0FDD2117F01902240EFF017
:1050D300A3EDF0E4902259F0A3F0902258F0FE7F64
:1050E30016FD7B007A227942A51280085F90224147
:1050F300E064037003025192E0FF25E025E0240001
:10510300F582E4341CF583E493FD7C00C004C00500
:10511300EF25E025E024FDF582E4341BF583A51299
:105123008007BA78427C227D00D007D006A5128082
:1051330004D7301105A51280EA17902241E0FF251C
:10514300E025E02400F582E4341CF583E493FE902B
:105153002258E0FCEE2C2442F582E43422F583E469
:10516300F0902240E0FDD2137B007A227942902214
:10517300A8A5128007B0EF25E025E02400F582E41E
:10518300341CF583E4932C9022ABF0E402526320A9
:10519300113AD213902241E0FF25E025E024FDF5EA
:1051A30082E4341BF583A5128007BA9022A8A512C6
:1051B3008007B0EF25E025E02400F582E4341CF5F8
:1051C30083E4939022ABF0E4FD025263902241E02A
:1051D300FF25E025E02400F582E4341CF583E49305
:1051E300FD7C00C004C005EF25E025E024FDF58229
:1051F300E4341BF583A5128007BA78427C227D0034
:10520300D007D006A5128004D7A51280EA179022F2
:1052130041E0FF25E025E02400F582E4341CF5831A
:10522300E493FE902258E0FCEE2C2442F582E43411
:1052330022F583E4F0902240E0FDD2137B007A2232
:1052430079429022A8A5128007B0EF25E025E0243B
:1052530000F582E4341CF583E4932C9022ABF0E454
:10526300FFA512808D6DA522902237EFF0A3EDF0FC
:10527300E4902243F0A37405F07E007F0A7D007B57
:10528300007A227939A51280085F902237E0FF6403
:10529300027057EF25E025E024FDF582E4341BF589
:1052A30083A5128007BAC003C002C001EF25E02521
:1052B300E02400F582E4341CF583E493FD90223866
:1052C300E090225DF07B007A227939A3A512800752
:1052D300B07A227944902261A5128007B0D001D020
:1052E30002D003A51280DCBF8059902237E0FF254E
:1052F300E025E024FDF582E4341BF583A512800745
:10530300BAC003C002C001EF25E025E02400F58206
:10531300E4341CF583E493FD902238E0902276F088
:105323007B007A227939A3A5128007B07A227944C7
:1053330090227AA5128007B0D001D002D003A51223
:1053430080DF77902243EFF0A512808826902243D6
:10535300E064017031C2119022A8F0D212FDFFA5C2
:1053630012808E78902237E0FF7A227B3990226078
:105373007422F0A37444F0D212E4FDFCA51280EA77
:1053830044A512808826C3A52290223DE0FDD211B8
:10539300E4FF902242EFF0A3EDF0E4A3F0FE7F2CB4
:1053A300FD7B007A2D793CA51280085F201137D24E
:1053B30013902243E0FF25E025E024C1F582E43485
:1053C30011F583A5128007BA9022A8A5128007B011
:1053D300EF25E025E024C4F582E43411A512808D85
:1053E300627F000254E9902243E0FF25E025E02498
:1053F300C4F582E43411F583E493FD7C00C004C05A
:1054030005EF25E025E024C1F582E43411F583A5F9
:10541300128007BA783C7C2D7D00D007D006A512F8
:105423008004D7902243E0FF25E025E024C4F582E1
:10543300E43411F583E493243CF582E4342DAD8206
:10544300FC90225E7422F0A37444F0C212E4FBFACF
:10545300A512810000902242E0FDD2137B007A2D39
:10546300793C9022A8A5128007B0902243E025E062
:1054730025E024C4F582E43411F583E493FF9022FC
:1054830044E0FEEF2E9022ABF0E4FFA512808D6D79
:10549300902243E0FF25E025E024C4F582E43411A3
:1054A300F583E493FE902244E0FDEE2D243CF58247
:1054B300E4342DF583E4F0EF25E025E024C4F58200
:1054C300E43411F583E493FF2DFDE433FCD3ED9431
:1054D30014EC64809480400C902244E0FEEF2E2470
:1054E300ECFF80027F00A522902237EFF0A3EDF0BE
:1054F300E4902257F0A3F0C210902237E0FF25E09A
:105503002459F582E43412F583740193902258F000
:10551300EF601864016014EF6402600FEF640760CA
:105523000AEF64086005EF6409705B902237E0FFBF
:1055330025E025E024C1F582E43411F583A512802A
:1055430007BAC003C002C001EF25E025E024C4F57B
:1055530082E43411F583E493FD902238E090225DD8
:10556300F07B007A227939A3A5128007B07A2279D9
:1055730058902261A5128007B0D001D002D003A5B4
:105583001280DCBF8059902237E0FF25E025E0241C
:10559300C1F582E43411F583A5128007BAC003C0B4
:1055A30002C001EF25E025E024C4F582E43411F5BF
:1055B30083E493FD902238E0902276F07B007A22F8
:1055C3007939A3A5128007B07A22795890227AA557
:1055D300128007B0D001D002D003A51280DF7790EC
:1055E3002257EFF0A512808826902257E0640170BD
:1055F30031C2119022A8F0D212FDFFA512808E783D
:10560300902237E0FF7A227B3990225E7422F0A346
:105613007458F0D212E4FDFCA512810000A512809B
:105623008826A210A522902234E0FD7F0190223724
:10563300EFF0A3EDF0E4A3F0FE7F1AFD7B007A22E6
:10564300793AA51280085F902238E0A5128007C737
:1056530056750056E701578F0258010358A904599C
:105663001B0559C3065A35075ADD085B7909000043
:105673005C497B807A1A797D9022A9A5128007B0B4
:10568300900F1DE0FFA3E09022ACCFF0A3EFF090CA
:105693002238E025E025E024A4F582E4341AF583DA
:1056A300A5128007BA9022AEA5128007B090032BF3
:1056B300E0FEA3E0FFFBAA06E4F9F8900F19A51298
:1056C30080071AA5128006739022B1A51280078C59
:1056D30090032BE0FEA3E0FFFBAA06E4F9F8900F8A
:1056E30019025B4C902238E0FF25E025E024A7F562
:1056F30082E4341AF583E493FD7C00C004C005EF13
:1057030025E025E024A4F582E4341AF583A512806C
:1057130007BA783A7C227D00D007D006A512800410
:10572300D7902238E025E025E024A7F582E4341A57
:10573300F583E493902239F0243AF9E43422FA7B96
:1057430000C003C002C0017B807A1A798E9022A91F
:10575300A5128007B090032BE0FEA3E0FFFBAA068F
:10576300E4F9F8900F15A51280071AA512800673A5
:105773009022ACA51280078C90032BE0FEA3E0FFE0
:10578300FBAA06E4F9F8900F15025C1E7B807A1AD7
:10579300797D9022A9A5128007B0900F31E0FFA375
:1057A300E09022ACCFF0A3EFF0902238E025E02583
:1057B300E024A4F582E4341AF583A5128007BA9095
:1057C30022AEA5128007B090032BE0FEA3E0FFFBFF
:1057D300AA06E4F9F8900F2DA51280071AA51280E6
:1057E30006739022B1A51280078C90032BE0FEA3D1
:1057F300E0FFFBAA06E4F9F8900F2D025B4C902220
:1058030038E0FF25E025E024A7F582E4341AF58388
:10581300E493FD7C00C004C005EF25E025E024A44B
:10582300F582E4341AF583A5128007BA783A7C220C
:105833007D00D007D006A5128004D7902238E0253A
:10584300E025E024A7F582E4341AF583E49390225B
:1058530039F0243AF9E43422FA7B00C003C002C0D1
:10586300017B807A1A798E9022A9A5128007B090C5
:10587300032BE0FEA3E0FFFBAA06E4F9F8900F294F
:10588300A51280071AA5128006739022ACA5128078
:10589300078C90032BE0FEA3E0FFFBAA06E4F9F8D4
:1058A300900F29025C1E7B807A1A797D9022A9A52C
:1058B300128007B0900F27E0FFA3E09022ACCFF057
:1058C300A3EFF0902238E025E025E024A4F582E45C
:1058D300341AF583A5128007BA9022AEA512800769
:1058E300B090032BE0FEA3E0FFFBAA06E4F9F890D7
:1058F3000F23A51280071AA5128006739022B1A563
:105903001280078C90032BE0FEA3E0FFFBAA06E4C2
:10591300F9F8900F23025B4C902238E0FF25E02535
:10592300E024A7F582E4341AF583E493FD7C00C0F8
:1059330004C005EF25E025E024A4F582E4341AF53C
:1059430083A5128007BA783A7C227D00D007D0065F
:10595300A5128004D7902238E025E025E024A7F59E
:1059630082E4341AF583E493902239F0243AF9E47B
:105973003422FA7B00C003C002C0017B807A1A790B
:105983008E9022A9A5128007B090032BE0FEA3E01E
:10599300FFFBAA06E4F9F8900F1FA51280071AA5CA
:1059A300128006739022ACA51280078C90032BE023
:1059B300FEA3E0FFFBAA06E4F9F8900F1F025C1EAA
:1059C3007B807A1A797D9022A9A5128007B0900F67
:1059D30045E0FFA3E09022ACCFF0A3EFF090223894
:1059E300E025E025E024A4F582E4341AF583A5122A
:1059F3008007BA9022AEA5128007B090032BE0FE79
:105A0300A3E0FFFBAA06E4F9F8900F41A512800773
:105A13001AA5128006739022B1A51280078C9003F9
:105A23002BE0FEA3E0FFFBAA06E4F9F8900F410286
:105A33005B4C902238E0FF25E025E024A7F582E4C3
:105A4300341AF583E493FD7C00C004C005EF25E020
:105A530025E024A4F582E4341AF583A5128007BA5D
:105A6300783A7C227D00D007D006A5128004D79017
:105A73002238E025E025E024A7F582E4341AF583F3
:105A8300E493902239F0243AF9E43422FA7B00C0FB
:105A930003C002C0017B807A1A798E9022A9A512D5
:105AA3008007B090032BE0FEA3E0FFFBAA06E4F916
:105AB300F8900F3DA51280071AA512800673902255
:105AC300ACA51280078C90032BE0FEA3E0FFFBAA9A
