:020000040000FA
:10000000021BFA080001009600A522A502813DF816
:10001000E4FFFEA54860090FEF70010EA56980F3AB
:02002000A52217
:10002300A50280795EEFB40A09740DA5128000352C
:10003300740A309811A899B8130CC2983098FDA887
:0F00430099C298B811F63099FDC299F599A52286
:10005300A5028155E0202020202020BBB6D3ADB9D6
:10006300E2C1D9002020C1E3C7AEB2BBD7E3202051
:1000730020200020202020D1A1D4F1C9CCC6B7B3C1
:10008300ACCAB120202020002020C7EBB2E5C8EB8A
:10009300B8FCD0A1C3E6B6EED6BDB1D2002020C7CE
:1000A300EBD1A1BBF5BBF2BCCCD0F8CDB6B1D2211C
:1000B30000C8B7B6A8454E54455220C8A1CFFB434C
:1000C300414E43454C0020202020C7EBC8A1C1E38B
:1000D300C7AE00C8A1CFFB43414E43454C0020208F
:1000E3002020CAE4C8EBB4EDCEF300C8B7B6A845E8
:1000F3004E544552002020C7EBCDB6C8EBD6BDB158
:10010300D2BBF2D3B2B1D200BFCDBBA7D3E0B6EE20
:100113003A00D1A1D4F1C6E4CBFCC9CCC6B7C2F036
:100123003F200020202020BBFAC6F7B9CAD5CF0054
:100133002020C9CCC6B7D2D1CADBCDEA002020200B
:10014300202020D0BBD0BB2100202020202020D481
:10015300DDCDA3B7FECEF10020202020D5D2C1E310
:10016300C6F7B9CAD5CF002020C7EBC9D4BAF22E3F
:100173002E2E00BDF0B6EEB2BBD7E32C20BCD3C706
:10018300AEC2F03F20002020D5FDD4DAB3F6BBF594
:100193002E2E2E002020D5FDD4DAD5D2C1E32E2E6B
:1001A3002E0020202020D5D2C1E3CAA7B0DC002036
:1001B300202020486F772061726520796F752100B8
:1001C300C7EBCAE4C8EBC6E4CBFCC9CCC6B7B1E005
:1001D300BAC5002020C7EBD1A1D4F1C6E4CBFCC93A
:1001E300CCC6B7002020C7EBC8A1BBF52E2E2E002E
:1001F3002020C7EBC8A1D7DFCDCBB1D22E2E2E0046
:100203002020C9CCC6B7BBF5B5C0B9CAD5CF00202D
:1002130020D1A1D4F1C6E4CBFCC9CCC6B7C2F03F10
:1002230000202020202020B2D9D7F7B3ACCAB100D8
:1002330020202020D5FDD4DACDCBBFEE00C7B7BF39
:10024300EE3A0020202020C7EBCDB6C8EBD3B2B1E5
:10025300D20020202020C7EBB2E5C8EBD6BDB1D237
:1002630000B2BBD5D2C1E3A3ACB9BAC2F2C7EBCDDE
:10027300B6B1D20020204556373733362D554220AC
:1002830056312E3632002020BBB9D2AAB9BAC2F2F7
:10029300C9CCC6B7C2F03F00202020202020CEDEEC
:1002A300C1E3B1D2002020C9CCC6B7BCDBB8F13A58
:1002B300002020CBF9D1A1C9CCC6B7D4DDCAB10087
:1002C300C8B1BBF5002020B9CAD5CF002020CDCBC3
:1002D300B1D2BDF0B6EE3A002020B5B1C7B0BDF043
:1002E300B6EE3A002020C7EBCBA2BFA82E2E2E00DD
:1002F3002020CDB6B1D22D3ED1A1BBF52D3EC8A154
:10030300BBF52020002020CCF9BFA82D3ED1A1BBF6
:10031300F52D3EC8A1BBF52020002020BFA8D3E0C7
:10032300B6EEB2BBD7E32E2E2E002020B6C1BFA857
:10033300CAA7B0DC2E2E2E002020BFA8D3E0B6EE35
:100343003A002020BDF0B6EEB2BBD7E32E2E2E002E
:10035300202020202020CFD6BDF0CFFBB7D1002016
:100363002020202020CBA2BFA8CFFBB7D100202084
:10037300C7EBD1A1BBF52100564D44455600564D60
:100383005245430025750025752E25750025752ECC
:1003930025303275002573202575002573202575BA
:1003A3002E25750025732025752E253032750025E1
:1003B30073257500257325752E2575002573257501
:1003C3002E25303275002573256C75002573256C39
:1003D300752E256C75002573256C752E2530326CB2
:1003E30075002000B4FAC2EB3D253032627820005C
:1003F3008000580E8000670E8000761480008B14F6
:100403008000A0138000B4148000C90C8000D60AB9
:100413008000E10C8000EE098000F81280010B09D6
:10042300800115108001260C8001330C8001400BE4
:1004330080014C0E80015B0E80016A0B80017612F5
:100443008001890D8001970D8001A50C8001B210F8
:100453008001C3128001D6108001E70B8001F30FE6
:100463008002030E800212118002240E8002330CDC
:10047300800240058002460E8002550E80026412FF
:10048300800277118002891180029B0C8002A80BE5
:100493008002B40E8002C3048002C8088002CF0B1E
:1004A3008002DB0B8002E70B8002F3148003081445
:1004B30080031D0F80032D0D80033B098003450D31
:1004C3008003530E8003620E8003710980037B0552
:1004D300800381058F828E83EDF5F0FFECFEE8FD4E
:1004E300E582600205834583600EA548A55CA56986
:1004F300A56DD582F5D583F2ABF0ECFAE8F9A52228
:10050300EF8DF0A4A8F0CF8CF0A428CE8DF0A42E0C
:10051300FEA522BC000CBE002BEF8DF084FFADF0D6
:10052300A522E4CCF875F008EF2FFFEE33FEEC3391
:10053300FCEE9DEC984005FCEE9DFE0FD5F0E9E442
:10054300CEFDA522EDF8F5F0EE8420D21DFEADF030
:1005530075F008EF2FFFED33FD4008985007D5F0F5
:10056300F2A522C398FD0FD5F0E9A522C2D5EC3040
:10057300E709B2D5E4C39DFDE49CFCEE30E717B276
:10058300D5E4C39FFFE49EFEA512800516C3E49D38
:10059300FDE49CFC8005A51280051630D507C3E455
:1005A3009FFFE49EFEA522C5F0F8A3E028F0C5F066
:1005B300F8E582158270021583E038F0A522A3F8CE
:1005C300E0C5F025F0F0E582158270021583E0C8DE
:1005D30038F0E8A522EF2BFFEE3AFEED39FDEC38BB
:1005E300FCA522E88FF0A4CC8BF0A42CFCE98EF0C0
:1005F300A42CFC8AF0EDA42CFCEA8EF0A4CDA8F088
:100603008BF0A42DCC3825F0FDE98FF0A42CCD354B
:10061300F0FCEB8EF0A4FEA9F0EB8FF0A4CFC5F0B5
:100623002ECD39FEE43CFCEAA42DCE35F0FDE43CAE
:10063300FCA52275F008758200EF2FFFEE33FECD87
:1006430033CDCC33CCC58233C5829BED9AEC99E58F
:100653008298400CF582EE9BFEED9AFDEC99FC0F1F
:10066300D5F0D6E4CEFBE4CDFAE4CCF9A882A522FA
:10067300B800C0B9005BBA002EEC8BF084CFCECDAE
:10068300FCE5F0CBF97818EF2FFFEE33FEED33FDE9
:10069300EC33FCEB33FB10D703994004EB99FB0FCE
:1006A300D8E5E4F9FAA5227818EF2FFFEE33FEED33
:1006B30033FDEC33FCC933C910D7059BE99A4007D6
:1006C300EC9BFCE99AF90FD8E0E4C9FAE4CCFBA56A
:1006D3002275F010EF2FFFEE33FEED33FDCC33CC5C
:1006E300C833C810D7079BEC9AE899400AED9BFDE5
:1006F300EC9AFCE899F80FD5F0DAE4CDFBE4CCFAF8
:10070300E4C8F9A522EB9FF5F0EA9E42F0E99D4289
:10071300F0E89C45F0A522E0FCA3E0FDA3E0FEA3E6
:10072300E0FFA522E493FC740193FD740293FE742D
:100733000393FFA522E0F8A3E0F9A3E0FAA3E0FB0B
:10074300A522E493F8740193F9740293FA74039362
:10075300FBA5227401FF3395E0FEFDFCA3A3A3E0F8
:10076300CF2FF0E582158270021583E0CE3EF0E5CF
:1007730082158270021583E0CD3DF0E5821582700B
:10078300021583E0CC3CF0A522ECF0A3EDF0A3EE40
:10079300F0A3EFF0A522A42582F582E5F03583F5D9
:1007A30083A522E0FBA3E0FAA3E0F9A522EBF0A3E3
:1007B300EAF0A3E9F0A522E493FB740193FA74022F
:1007C30093F9A522F8D0E0F5834480FBD0E0FAD07A
:1007D300E0F9A5487012A549700EA56AA549C0E0C5
:1007E300A548C0E0C083A522A54A6860EFA56B8039
:1007F300E1F8D0E0F5834480FBD0E0FAD0E0F9A53E
:10080300487012A549700EA56AA549C0E0A548C065
:10081300E0C083A522A54AB5F005A54B6860EAA50B
:100823006880DC8F828E83EDFFECFEE8FDE582605D
:10083300020583458370047F00A522A548F5F0A532
:100843004CA569A56DB5F006D582F0D583ED7FFF84
:10085300B5F0030FA52240027F01A522EF4E6019D8
:10086300EF60010EED89828A838BF0A558A569DFBD
:10087300FADEF88BF0A982AA83A522F8E0FBA3A3F2
:10088300E0F925F0F0E582158270021583E0FA386D
:10089300F0A522312ED6BDB1D2C6F7D7B4CCAC3A2F
:1008A3002000322ED3B2B1D2C6F7D7B4CCAC3A20A3
:1008B30000332E2331D5D2C1E3C6F7D7B4CCAC3A3B
:1008C3002000342E2332D5D2C1E3C6F7D7B4CCAC43
:1008D3003A2000352E2333D5D2C1E3C6F7D7B4CCA3
:1008E300AC3A2000362ECAD6BBFAC4A3BFE9D7B4AC
:1008F300CCACB2E2CAD400372EB6CCD0C5B2E2CA71
:10090300D400382EBBF5B5C0D7B4CCAC00392EBB60
:10091300F5B5C0BCECB2E20031302E20BBF5B5C05A
:10092300B2E2CAD4BDE1B9FB0031312E20D1A1BB63
:10093300F5B0B4C5A5BCECB2E20031322E20D3CE63
:10094300CFB7B0B4C5A5BCECB2E20031332E20CD95
:10095300CBB1D2B0B4C5A5BCECB2E20031342E2089
:10096300B6C1BFA8C6F7B2E2CAD43A200031352EC9
:1009730020D1B9CBF5BBFAB2E2CAD40031362E206E
:10098300D5B9CABEB5C6B2E2CAD400D5FDB3A30079
:10099300B9CAD5CF00CEDE00B2BBD7E300CEB4B226
:1009A300E2CAD400C8B1BBF500C8B7B6A8454E54D7
:1009B300455220C8A1CFFB43414E43454C00C0DB09
:1009C300BCC6B2E2CAD4B4CECAFD3A20257500BB78
:1009D300F5B5C02530326275B9CAD5CFB4CECAFDDC
:1009E3003A257500D5FDD4DABCECB2E220253032CD
:1009F300627520BBF5B5C00020202020C7EBC9D409
:100A0300B5C82E2E2E002020BBF5B5C0B0E53A2088
:100A1300B9CAD5CF202020002020BBF5B5C0253092
:100A23003262753A20B9CAD5CF202020002020BBDE
:100A3300F5B5C025303262753A20CEDEBBF52020F5
:100A430020002020BBF5B5C02025303262753A2046
:100A530020D5FDB3A3200020202020D3B2B1D2C6DD
:100A6300F7B2E2CAD400C7EBCDB6B1D23A00202028
:100A7300B1D2B6B7D2D1C2FA2C20C7EBB4A6C0ED1F
:100A83002100D2D1CDB6C8EBBDF0B6EE3A20257524
:100A930000D2D1CDB6C8EBBDF0B6EE3A2025752E07
:100AA300257500D2D1CDB6C8EBBDF0B6EE3A202500
:100AB300752E25303275002020D3B2B1D2C6F7CAC5
:100AC300C7B7F1D5FDB3A33F00257300D5B9CABE9F
:100AD300B5C600D1B9CBF5BBFA0020202573B2E22D
:100AE300CAD400312DB4F2BFAA2020322DB9D8B117
:100AF300D5002573D2D1B4F2BFAAA3ACC7EBC8B754
:100B0300C8CF002573D2D1B9D8B1D5A3ACC7EBC830
:100B1300B7C8CF00C7EBB2BBD2AACBE6D2E2B9D8F3
:100B2300B1D5C9E8B1B8A3A10020202020D6BDB11A
:100B3300D2C6F7B2E2CAD4002020D6BDB1D2C6F7DE
:100B4300CAC7B7F1D5FDB3A33F0020202020B0B41E
:100B5300C5A5B2E2CAD42100CAE4C8EBB0B4C5A5A6
:100B63003A00CAE4C8EBB0B4C5A53A2025627500C3
:100B730020202020D3CECFB7B0B4C5A5B2E2CAD4CB
:100B83002100D3D0BCFCB0B4CFC22C20D4F2C3F923
:100B9300BDD0D2BBC9F90020202020CDCBB1D2B02B
:100BA300B4C5A5B2E2CAD42100BBF5B5C025303225
:100BB30062753A202573008008960E8008A50E8082
:100BC30008B4108008C5108008D6108008E712808A
:100BD30008FA0A8009050A8009100A80091B108097
:100BE300092C1080093D1080094E1080095F108088
:100BF30009700E80097F0E80098E0480099304809A
:100C030009980280099B048009A00680098E04804C
:100C13000993048009A704E52724AFF582E434246B
:100C2300F583E00527229024AC301A039024AFE427
:100C330075F001A51280087EA548222013E77F2EB8
:100C4300D2138018EF540F2490D43440D4FF3017BC
:100C53000BEF24BFB41A0050032461FFE5286002A0
:100C63001528052BE52B7002052A301A109024ACA9
:100C7300E475F001A51280087EEFA55822A5128025
:100C83000028227403D21A8003E4C21AF5279024A1
:100C9300ACA5128007B0E4F528F52AF52BE528600A
:100CA300097F20A512800C5F80F37529FFC214C24F
:100CB30013C215C216C218C219C21B120C29FF7027
:100CC3000E301A057F00120C70AF2BAE2AA522B48A
:100CD300255FC2D5C217120C29FF24D0B40A0050D5
:100CE3001A75F00A782830D50508B6FF0106C6A4A0
:100CF30026F620D5047002D21680D924CFB41A0068
:100D0300EF5004C2E5D217020E87D21480C6D21365
:100D130080C0D21580BCD2D580BAD21880B47F20CF
:100D2300120C5F2015077401B5280040F1120C1A4C
:100D3300FF120C5F020CA0D21BD2198095120C1A61
:100D4300FB120C1AFA120C1AF94A4B7006795A7AEA
:100D53000F7B8020153AE52860367E00E9C0E02E3F
:100D6300F9EAC0E03400FAA548F9D0E0FAD0E0C9C6
:100D730060060EEE652970E4C2D5EBC0E0EAC0E080
:100D8300E9C0E0EE120ED0D0E0F9D0E0FAD0E0FBFB
:100D9300A548FF609FEBC0E0EAC0E0E9C0E0120CA9
:100DA3005FD0E02401F9D0E03400FAD0E0FBE5297C
:100DB3000460DDD529DA020D377B807A0E79CCD237
:100DC300158090791080027908C219C21B8008D25D
:100DD300D5790A8004790AC2D5E529047002F52978
:100DE300E4FAFDFEFF120C1AFC7B08201413120C0C
:100DF3001AFD7B1030130A120C1AFE120C1AFF7B19
:100E030020EC3382D592D55013C3E43013069FFFF1
:100E1300E49EFEE42014039DFDE49CFCE4CBF8C2B5
:100E230014EC700CCFCECDCCE824F8F870F3801717
:100E3300C3EF33FFEE33FEED33FDEC33FCEB33FB5B
:100E4300994002FB0FD8E9EB301405F8D0E0C44811
:100E5300B214C0E00AEC4D4E4F78207B0070C2EA1A
:100E6300B5290040BCC0E0120ED2D0F0D0E020146F
:100E730004C4C0E0C4B214C0F0120C48D0F0D5F0E2
:100E8300EB020CA0A5128007C70D40530DC6580DE9
:100E9300114C0D0D420DCA4F0DD2440DD2490D26F2
:100EA300430DD8550DBC460DBC450DBC470F7550C1
:100EB3000D152D0D192E0D3C2B0D1D230D3A200F55
:100EC300632A0CD54800000D343F3F3F00790AA246
:100ED300D5201614301809B910020404B908010406
:100EE300A2D52019025001042015689215B52800D7
:100EF3005034C0E07F203016197F30A2157219726A
:100F030018500F120F29C215C219C218C21B7F3005
:100F1300800F301803E9C0E0120C5F301803D0E0F3
:100F2300F9D0E0B528CC3018177F30B9100C120C6B
:100F33005F7F583017077F788003B90803120C5F6F
:100F43003015057F2D020C5F7F20201BF87F2B209F
:100F530019F322921580CF286E756C6C2900D21478
:100F6300120C1A3014F8C214782830D50108F6028E
:100F73000CD5120C1AC0E0C4120C48D0E0120C4875
:100F8300743A120C50D216752804020DC6312E2362
:100F930031D5D2C1E3C6F7C3E6D6B53A00322E2324
:100FA30032D5D2C1E3C6F7C3E6D6B53A00332E2312
:100FB30033D5D2C1E3C6F7C3E6D6B53A00342ED44F
:100FC300CAD0EDB6E0B4CEB9BAC2F23A00352EB209
:100FD300BBC2F2BBF5CDCBB1D23A00362EBFAAC607
:100FE300F4D6BDB1D2C6F73A00372EBFAAC6F4CAAB
:100FF300D6BBFAC4A3BFE93A00382ED3E0B6EECF8E
:10100300C2CFDE3A00392ECAD5B1D2C9CFCFDE3A2C
:101013000031302E20D2C9CECABDF0B6EE3A00312F
:10102300312E20BBFAC6F7B1E0BAC53A20003132FF
:101033002E47534DBAC5C2EB3A0031332E20C7B702
:10104300CCF53A0031342E20D0A1CAFDB5E33A00E5
:1010530031352E202331D6BDB1D23A0031362E2080
:101063002332D6BDB1D23A0031372E202333D6BD39
:10107300B1D23A0031382E202334D6BDB1D23A0052
:1010830031392E202335D6BDB1D23A0032302E204D
:101093002336D6BDB1D23A0032312E202337D6BD06
:1010A300B1D23A0032322E202338D6BDB1D23A0023
:1010B30032332E202331D3B2B1D23A0032342E2030
:1010C3002332D3B2B1D23A0032352E202333D3B2F6
:1010D300B1D23A0032362E202334D3B2B1D23A0001
:1010E30032372E202335D3B2B1D23A0032382E20F4
:1010F3002336D3B2B1D23A0032392E20BFAAC6F476
:10110300B3F6BBF5C8B7C8CF3A0033302E20BDBB0A
:10111300D2D7CAB1BCE43A0033312E20B2BBD5D208
:10112300C1E3C4A3CABD3A0033322E20BFAAC6F41A
:10113300D3B2B1D2C6F73A0033332E20BFAAC6F4D6
:10114300B9ABBDBBBFA83A0033342E20B6C1BFA88C
:10115300CAB1BCE43A0033352E20D4DDB4E6D6BDA3
:10116300B1D2C4A3CABD3A0033362E20CEE5D4AAE9
:10117300D6BDB1D2D4DDB4E63A0033372E20CAAEA1
:10118300D4AAD6BDB1D2D4DDB4E63A0033382E208A
:10119300BFAAC6F441434443C4A3BFE93A0025753B
:1011A3000025752E25750025752E253032750025F1
:1011B3006275002532627800253032627800800F34
:1011C300900F800FA00F800FB00F800FC00F800F04
:1011D300D00D800FDE0D800FEC0F800FFC0B801005
:1011E300080B8010140D8010220D8010310B80101D
:1011F3003D098010470B8010530B80105F0B80104C
:101203006B0B8010770B8010830B80108F0B80107B
:101213009B0B8010A70B8010B30B8010BF0B8010AB
:10122300CB0B8010D70B8010E30B8010EF0B8010DB
:10123300FB1180110D0D80111B0F80112B0F8011DD
:101243003B0F80114B0D8011591180116B118011CF
:101253007D1180118F1100050005000500010001BB
:101263000001000100050005000500050010000154
:101273000001000500050005000500050005000547
:101283000005000500050005000500050005000137
:10129300000500010001000100020001000100013E
:1012A300000141018500421552000041020701413E
:1012B3001554004207B9000041000200C120C121BA
:1012C300C19DC122C19FC11E410000004100010018
:1012D300412F9D00412F9200412F9300412F9400F5
:1012E300C125412F9C01412F9B00411E1000412F1E
:1012F3006E00412F6F00412F7000C100412F72001B
:10130300412F7300412F7400412F7500412F760048
:10131300412F7700C103C104C105C106C107C1083C
:10132300C109C10AC10BC10CC10DC10E412F780007
:10133300462EFB080001009600412F4100C1290100
:101343004D00412F9E00411E5500411E5100411E7C
:101353005901411E5301C123C124411E570062009C
:10136300287E00008005800F000A801B001E0014E9
:10137300801180330036003C80390028802D80277F
:10138300002280630066006C80690078807D80772E
:10139300007200508055805F005A804B004E00441D
:1013A300804180C300C600CC80C900D880DD80D7CF
:1013B30000D200F080F580FF00FA80EB00EE00E43D
:1013C30080E100A080A580AF00AA80BB00BE00B46E
:1013D30080B180930096009C80990088808D8087DF
:1013E300008281830186018C81890198819D819787
:1013F300019201B081B581BF01BA81AB01AE01A4F5
:1014030081A101E081E581EF01EA81FB01FE01F4A5
:1014130081F181D301D601DC81D901C881CD81C796
:1014230001C201408145814F014A815B015E015444
:10143300815181730176017C81790168816D8167B6
:10144300016281230126012C81290138813D8137E5
:10145300013201108115811F011A810B010E010454
:10146300810183030306030C83090318831D831778
:10147300031203308335833F033A832B032E032464
:10148300832103608365836F036A837B037E037415
:10149300837183530356035C83590348834D834706
:1014A300034203C083C583CF03CA83DB03DE03D4B4
:1014B30083D183F303F603FC83F903E883ED83E726
:1014C30003E283A303A603AC83A903B883BD83B755
:1014D30003B203908395839F039A838B038E0384C4
:1014E300838102808285828F028A829B029E02947C
:1014F300829182B302B602BC82B902A882AD82A7EE
:1015030002A282E302E602EC82E902F882FD82F79C
:1015130002F202D082D582DF02DA82CB02CE02C48B
:1015230082C182430246024C82490258825D82573D
:10153300025202708275827F027A826B026E0264AB
:10154300826102208225822F022A823B023E0234DC
:10155300823182130216021C82190208820D82074D
:10156300020200CFB5CDB3D5FDD4DAC6F4B6AF2CA5
:1015730020C7EBC9D4B5C80020202020C4E3C8B7D6
:10158300B6A8B8FCB8C4C2F03F00C8B7B6A8454E69
:1015930054455220C8A1CFFB43414E43454C00D58F
:1015A300FDD4DAB8FCB8C4C9CCC6B7D3E0C1BF2EEA
:1015B3002E2E00C9CCC6B7D3E0C1BFB8FCB8C4CA8D
:1015C300A7B0DC2100C9CCC6B7D3E0C1BFB8FCB813
:1015D300C4B3C9B9A62100D5FDD4DAB8FCB8C4C9CF
:1015E300CCC6B7BCDBB8F12E2E2E00C9CCC6B7BC17
:1015F300DBB8F1B8FCB8C4CAA7B0DC2100C9CCC6BB
:10160300B7BCDBB8F1B8FCB8C4B3C9B9A621002094
:10161300202020C4E3C8B7B6A8CCEDC2FAC2F03F7D
:1016230000D5FDD4DACCEDC2FA2E2E2E00CCEDC2BD
:10163300FAB2D9D7F7CAA7B0DC2100CCEDC2FAB20F
:10164300D9D7F7B3C9B9A62100CAE4C8EBB2E3BC42
:10165300DCB1E0BAC53A00B1E0BAC5CAE4C8EBB43C
:10166300EDCEF300C7EBCAE4C8EBC6E4CBFCB1E0B4
:10167300BAC500C4E3C8B7B6A8CCEDC2FAB4CBB2BE
:10168300E3BCDCC2F03F00D5FDD4DACCEDC2FAB541
:10169300B1C7B0B2E3BCDC2E2E2E00B2E3BCDCCC6F
:1016A300EDC2FAB2D9D7F7CAA7B0DC2100B2E3BCC6
:1016B300DCCCEDC2FAB2D9D7F7B3C9B9A62100255C
:1016C3007300B2B9D3B2B1D200C8A1D6BDB1D200B2
:1016D3002020C4E3C8B7B6A82573C2F03F0020207A
:1016E300D5FDD4DA2573002573CAA7B0DC21002504
:1016F30073B3C9B9A6210020202020C4E3C8B7B61C
:10170300A8CDACB2BDC2F03F00D5FDD4DACDACB2AA
:10171300BD2C20C7EBC9D4B5C82E2E2E00CDACB23C
:10172300BDB2D9D7F7B3C9B9A621002020C4E3C8F5
:10173300B7B6A8C7E5B5E3C2F03F00D5FDD4DAC715
:10174300E5B5E32C20C7EBC9D4B5C82E2E2E00C7B0
:10175300E5B5E3CDEAB1CFA3ACC7EBBACBB6D421A1
:1017630000C7E5B5E3BDF0B6EE3A20257500C7E541
:10177300B5E3BDF0B6EE3A2025752E257500C7E515
:10178300B5E3BDF0B6EE3A2025752E25303275004F
:10179300312EBBF5B1D2CAD5D6A700322EC9CCC6DD
:1017A300B700332EC7E5BFD5BCC7C2BC00312EBBC3
:1017B300F5B1D2D7DCCAD5C8EB3A00322ED6BDB1CB
:1017C300D2CAD5C8EB3A00332ED3B2B1D2CAD5C8E8
:1017D300EB3A00342EBDBBD2D7D7DCBDF0B6EE3A20
:1017E30000352ED5D2C1E3D7DCBDF0B6EE3A0036D4
:1017F3002E2331B3F6B1D2D7DCBDF0B6EE3A0037C3
:101803002E2332B3F6B1D2D7DCBDF0B6EE3A0038B0
:101813002E2333B3F6B1D2D7DCBDF0B6EE3A00399E
:101823002E2331B3F6B1D2C3B6CAFD3A0031302EFE
:10183300202332B3F6B1D2C3B6CAFD3A0031312EFA
:10184300202333B3F6B1D2C3B6CAFD3A0031322EE8
:1018530020BFA8BDBBD2D7D0F2BAC53A00312EB350
:10186300C9B9A6BDBBD2D7B4CECAFD3A00322ED277
:10187300C9CECABDBBD2D7B4CECAFD3A00332EB54A
:10188300A5BBF5B5C0BDBBD2D7CDB3BCC600312E09
:10189300BBF5B5C0B1E0BAC53A00322EB3C9B9A69B
:1018A300BDBBD2D7CDB3BCC63A00332ED2C9CECA44
:1018B300BDBBD2D7B4CECAFD3A002020C4E3C8B71B
:1018C300B6A8C2F03F00C8B7B6A8454E544552204B
:1018D300C8A1CFFB43414E43454C002020C3BBD39B
:1018E300D0BDBBD2D7BCC7C2BC002575002562756D
:1018F30000B1E0BAC5CAE4C8EBB4EDCEF300C7EB60
:10190300CAE4C8EBC6E4CBFCB1E0BAC500256C75EC
:1019130000256C752E256C7500256C752E253032CF
:101923006C75008017930A80179E068017A50A809E
:1019330017B00D8017BE0B8017CA0B8017D60D800A
:1019430017E40D8017F20F8018020F8018120F8012
:1019530018220D8018300F8018400F8018500F8008
:1019630018600F8018700F801880108018910B80FA
:10197300189D0F8018AD0F8018BD0B8018C91480F7
:1019830018DE0E312EBBF5B5C0B2CECAFD00322E25
:10199300BCD3C2FAC8ABB2BFBBF5B5C000332EB2DD
:1019A300B9D3B2B1D2CDEAB3C900342EC8ABCFB5E7
:1019B300CDB3CDACB2BD00352EBCD3C2FAB2E3BCBD
:1019C300DCBBF5B5C000362EC8A1D6BDB1D2CDEA79
:1019D300B3C900372E3520BDC7D3B2B1D2C7E5B5E1
:1019E300E300382E3120D4AAD3B2B1D2C7E5B5E390
:1019F30000392EC9E8B1B8B9DCC0ED0031302E2072
:101A0300CFB5CDB3B2CECAFD0031312E20BDBBD28E
:101A1300D7BCC7C2BC0031322E20BBF5BCDCC5E449
:101A2300D6C30031332E20B3F6B3A7C4ACC8CFC599
:101A3300E4D6C30031342E20B4D3BBFACCEDBBF5CE
:101A4300002020C8B7B6A8B3F6B3A7C5E4D6C3C26F
:101A5300F03F00C8B7B6A8454E54455220C8A1CFA1
:101A6300FB43414E43454C0030002020D5FDD4DAE2
:101A7300B1A3B4E6002000B1A3B4E6CAA7B0DCA3C7
:101A8300ACD6D8D0C2C9E8D6C33F002020454E54B7
:101A9300455220202043414E43454C008019860A7D
:101AA3008019910E8019A00C8019AD0C8019BA0E03
:101AB3008019C90C8019D60E8019E50E8019F40A15
:101AC3008019FF0C801A0C0C801A190C801A26102E
:101AD300801A370C312EB2E3BCDCB1E0BAC53A0050
:101AE300322ECAC7B7F1C6F4D3C33A00332ED7EEAA
:101AF300B4F3B4E6BBF5C1BF3A00342EB5DAD2BBBA
:101B0300BBF5B5C03A00352EB5DAB6FEBBF5B5C0A8
:101B13003A00362EB5DAC8FDBBF5B5C03A00372E0C
:101B2300B5DACBC4BBF5B5C03A00382EB5DACEE58D
:101B3300BBF5B5C03A00392EB5DAC1F9BBF5B5C06E
:101B43003A0031302E20B5DAC6DFBBF5B5C03A0016
:101B530031312E20B5DAB0CBBBF5B5C03A00C7EBB7
:101B6300CAE4C8EBC3DCC2EB3A00C3DCC2EBB4ED9E
:101B7300CEF32100256275002020200020002020C4
:101B8300202000CAE4C8EBB2E3BCDCB1E0BAC53A3A
:101B930000B1E0BAC5CAE4C8EBB4EDCEF300C7EBBD
:101BA300CAE4C8EBC6E4CBFCB1E0BAC500801AD7DF
:101BB3000B801AE30B801AEF0D801AFD0B801B09B3
:101BC3000B801B150B801B210B801B2D0B801B39DE
:101BD3000B801B450D801B530D801B610B801B6D00
:101BE30009000100010002000100010001000100E1
:101BF30001000100010001A575FF07758E0378FE42
:101C0300E4F6D8FD75818DA575FB00759008A502D6
:101C1300801C41A50280CA21E493A3F85407240C35
:101C2300C8C333C4540F4420C8834004F45680010E
:101C330046F6DFE4800B0102040810204080901276
:101C4300A5E47E019360CCA3FF543F30E509541F04
:101C5300FEE493A360010ECF54E0B4E01CE493FBD5
:101C6300A3E493FAA3E493F9A3E493A558A309E99E
:101C730070010ADFF4DEF280C854C025E06025401D
:101C830097E493A3FAE493A3F8E493A3C8C582C8A3
:101C9300CAC583CAF0A3C8C582C8CAC583CADFE957
:101CA300DEE7809DE493A3F8E493A34003F6800169
:101CB300F208DFF4808B312EBBF5B5C0B1E0BAC5B5
:101CC3003A2000322EC9CCC6B7D3E0C1BF3A2000B8
:101CD300332EB5A5BCDB3A2000342EBBF5B5C0D7F7
:101CE300B4CCAC3A2000352EC9CCC6B7B1E0BAC5E6
:101CF3003A20002530326275002533627500257560
:101D03000025752E25750025752E25303275002585
:101D13006275002532627500BBF5B5C025303262AD
:101D230075D3E0C1BFA3BA00801CB90C801CC60CDC
:101D3300801CD308801CDC0C801CE90C20002020B4
:101D43002020202020202020202020202020202090
:101D5300202000C7EBCAE4C8EBB1E0BAC53A2000C3
:101D6300B1E0BAC5CAE4C8EBB4EDCEF300C7EBCA21
:101D7300E4C8EBC6E4CBFCB1E0BAC50020202020C8
:101D83002020202020202020202020202020202050
:101D930000C2D5E830E70FB2D5E4C39BFBE49AFA5F
:101DA300E499F9E498F8EC30E71BB2D5A512801D4D
:101DB300D0A512800673E4C39BFBE49AFAE499F975
:101DC300E498F88005A51280067330D50DE4C39F0F
:101DD300FFE49EFEE49DFDE49CFCA52247423233D2
:101DE30031320057494E31323532000D519610527F
:101DF300640505050505050505040404040808072D
:101E0300FF010101010101010102020202030306B4
:101E1300FF50505050505050501B1B1B1B0D0D18A2
:101E2300FF09090909090909092E2E2E2E00004868
:101E3300FF000000010000000A000000640000032E
:101E4300E800002710000186A0000F42400098968A
:101E53008005F5E1000800010096000800010096E6
:101E630000080001009600902461EBF0A3EAF0A3C0
:101E7300E9F0902467EBF0A3EAF0A3E9F090246182
:101E8300E0FBA3E475F001A5128005C1A9F0FAA552
:101E93004870EA90246274FFF5F0A5128005AA90B9
:101EA3002464E0FBA3E475F001A5128005C1A9F049
:101EB300FAA548FF902461E0FBA3E475F001A512A5
:101EC3008005C1A9F0FAEFA55870D4902467E0FB10
:101ED300A3E0FAA3E0F9A522A5128161C0901552EF
:101EE300E0FEA3E0FF902262EEF0A3EFF0E4A3F0A4
:101EF300A3F0A3F090079AE0B40113900798E0FED3
:101F0300A3E0FF902262EE8FF0A5128005AAD39082
:101F13002263E09400902262E0940050057F000267
:101F230021BA901554742CF07E007F147D007B0041
:101F33007A0779A5A51280085F901554E0FF25E084
:101F430025E024F6F582E43403F583E493902264D8
:101F5300F0FD7C00C004C005EF25E025E024F3F587
:101F630082E43403F583A5128007BA78A57C077D44
:101F730000D007D006A5128004D7902264E0FF2486
:101F8300A5F582E43407F5837420F090056BE0FC3B
:101F9300A3E0FDEC60030220A6ED24F6603D24A639
:101FA300700302203A246360030220A674A62FF96B
:101FB300E43407FA7B00C003C002C0017B807A03CC
:101FC30079879024AFA5128007B0902262E0FFA327
:101FD300E09024B2CFF0A3EF022094902264E02497
:101FE300A6F9E43407FA7B00C003C002C0017B807A
:101FF3007A03798A9024AFA5128007B090056BE02D
:10200300FAA3E0FB902262E0FEA3E0FFAD03AC0283
:10201300A5128005169024B2EEF0A3EFF090226291
:10202300E0FEA3E0FFAD03AC02A5128005169024E9
:10203300B4ECF0A3ED805A902264E024A6F9E434D2
:1020430007FA7B00C003C002C0017B807A0379904A
:102053009024AFA5128007B090056BE0FAA3E0FBD4
:10206300902262E0FEA3E0FFAD03AC02A51280055F
:10207300169024B2EEF0A3EFF0902262E0FEA3E00C
:10208300FFAD03AC02A5128005169024B4ECF0A3B7
:10209300EDF0D001D002D003A512800C869022640B
:1020A300E02FF0902264E004F0D2137B007A0779EA
:1020B300A59024AEA5128007B0902264E0A51280FB
:1020C300920090052EE0FEA3E0FFC3902263E09F01
:1020D300902262E09E40509015547436F0D213E083
:1020E300FF25E025E024F3F582E43403F583A5120C
:1020F3008007BA9024AEA5128007B0EF25E025E053
:1021030024F6F582E43403F583E4939024B1F07D5F
:1021130001E4FFA51280920790079AE064017048DA
:10212300A512807FE280419015547404F0D213E02D
:10213300FF25E025E024F3F582E43403F583A512BB
:102143008007BA9024AEA5128007B0EF25E025E002
:1021530024F6F582E43403F583E4939024B1F07D0F
:1021630001E4FFA512809207E47F64FEFDFC902446
:10217300E27418F0A37490F0A51280861A901834B4
:10218300E0B4011A901836E0FCA3E0FDE4FFA512C9
:10219300815BC7E4901834F0901836F0A3F09018E0
:1021A30035E0B40110A512815BBDE4901835F090C1
:1021B3001838F0A3F07F00A522E490225CF0FE7FA4
:1021C30057FD7B007A057923A51280085F7E037F84
:1021D300357D007B007A157956A51280085F7E0352
:1021E3007FDE7D007B007A117965A51280085F9000
:1021F30017817401F0A3F07E027F297D007B007AB2
:1022030005797AA51280085F9007827401F07E0336
:102213007F137D007B007A0E7925A51280085FE489
:102223007F64A512808611D213900483A5128007C0
:10223300BA9024AEA5128007B0900486A5128091AF
:10224300FED21390043BA5128007BA9024AEA512C8
:102253008007B090043EE4939024B1F07D01E4FF45
:10226300A512809207E47F64A5128086117F00A5E2
:1022730022E490225CF0A3F0A3F0A3F0FE7F14FD10
:102283007B007A0779A5A51280085F901784E0FF89
:1022930075F03790116AA512800799E0D394004036
:1022A3001875F037EF90119BA512800799E0FFF4A2
:1022B3006019901555EFF08012901784E075F03790
:1022C30090119BA51280079974FFF0901784E07515
:1022D300F03790119BA512800799E0F47002802DCE
:1022E300901555E075F006900008A512800799E057
:1022F30070028019901555E075F006900005A5123F
:10230300800799E0FF540A7004EF20E041901554D0
:10231300740EA5128091D19015547419F0D213E064
:10232300FF25E025E024F3F582E43403F583A512C9
:102333008007BA9024AEA5128007B0EF25E025E010
:1023430024F6F582E43403F583E4930226569015CC
:10235300547427F090056BE0FEA3E0FFEE600302E8
:1023630024B6EF24F6605724A670030224342463B2
:1023730060030224B67B807A0379989024AFA51278
:102383008007B0901554E025E025E024F3F582E4BE
:102393003403F583A5128007BA9024B2A5128007EF
:1023A300B0901555E075F006900006A512800799C8
:1023B300E0FFA3E09024B5CFF0A3EF0224A57B8038
:1023C3007A03799E9024AFA5128007B0901554E04C
:1023D30025E025E024F3F582E43403F583A5128098
:1023E30007BA9024B2A5128007B0901555E075F096
:1023F30006900006A512800799E0FAA3E0FB90057A
:102403006BE0FCA3E0FDAF03AE02A51280051690BE
:1024130024B5EEF0A3EFF090056BE0FCA3E0FDAF75
:1024230003AE02A5128005169024B7ECF0A3ED804D
:10243300717B807A0379A79024AFA5128007B090AF
:102443001554E025E025E024F3F582E43403F58315
:10245300A5128007BA9024B2A5128007B090155533
:10246300E075F006900006A512800799E0FAA3E054
:10247300FB90056BE0FCA3E0FDAF03AE02A5128069
:1024830005169024B5EEF0A3EFF090056BE0FCA3E6
:10249300E0FDAF03AE02A5128005169024B7ECF061
:1024A300A3EDF07B007A0779A5A512800C86902214
:1024B3005CEFF0A512809E39C21EE4F51490188BD0
:1024C3007406F0900573E0640160030226239015FF
:1024D30050E054FB6003022623901555E075F00687
:1024E300900006A512800799E0FEA3E0D39400EEC6
:1024F30094005003022623D2137B007A0779A59018
:1025030024AEA5128007B090225CE09024B1F07D48
:1025130001E4FFA51280920790225E742DA512801C
:1025230091D1900574E0FF7E007C037DE8A51280C5
:102533000503E4FCFDA512808614901163E475F095
:1025430001A5128005AA901555E075F006900006C6
:10255300A512800799E0FEA3E0FF901163E0FCA3BE
:10256300E0FDA512817C4290225FEFF0707690101F
:1025730032E064A07045A51280B6A1A51281713620
:10258300901555E075F006900006A512800799E0B6
:10259300FCA3E0FD7F02A512815BC7901555E07592
:1025A300F006900006A512800799E0FFA3E09015BE
:1025B30052CFF0A3EFF07F01022683901032E06444
:1025C300A170079015547430801F901032E0FF649F
:1025D300A5600AEF64A66005EF64A7706E901554BA
:1025E300743180059015547431F0D213E0FF25E067
:1025F30025E024F3F582E43403F583A5128007BABA
:102603009024AEA5128007B0EF25E025E024F6F56F
:1026130082E43403F583E4939024B1F0E4FD801B5A
:10262300D2137B007A0779A59024AEA5128007B058
:1026330090225CE09024B1F07D01E4FFA51280922A
:1026430007E47FD07E07A512808612E4901555F02B
:10265300FF802D9024B1F07D01E4FFA51280920745
:10266300E47FD07E07A512808612A512809E39C210
:102673001EE4F514901555F090188B7406F07F0046
:10268300A522E490225CF09007B9E07002A3E07009
:102693000590020704F0900207E06401600302273B
:1026A30095901774E064016003022743C390177386
:1026B300E094F4901772E094015003022743E4F08E
:1026C300A3F0900573E064017047901550E054FB4C
:1026D300703F9015547435A5128091D1A512808650
:1026E3000E901554742FA5128085D2A51280FFEE8B
:1026F300EF640160030227A6D213901554A512803C
:1027030085D5A51280FFEEEF640160030227A68042
:10271300739015547434A5128091D1A5128085BC91
:10272300A51280FFEEEF64017079D213901554A5C2
:10273300128085D5A51280FFEEEF64017065804499
:10274300901774E06401705BC3901773E094FA9080
:102753001772E09400404C9015547434A512809184
:10276300D1A5128085BCA51280FFEEEF6401703302
:10277300D213901554A5128085D5A51280FFEEEFD4
:102783006401701F9007B9E04402F0A3E0F07F01F9
:10279300802A9015547410A5128091D17F02A5123E
:1027A3008094CE90188BE004F0A51280B7D0BF01BF
:1027B300047F028007A51280860E7F01A522E49084
:1027C300225CF0A3F0A3F0A3F090225CF0A3F090BE
:1027D3000782E064016016D3901553E094009015CE
:1027E30052E0940040077F01A512809FEF3020073D
:1027F300A512809E14C220201E03022887D212E451
:102803009024AEF0D2137D01FFA512809F69C21EF2
:10281300E4F514901555F0806B90225EE07002A3EE
:10282300E0607090225EE0FEA3E0FF901552EE8F11
:10283300F0A5128005AA901139A512800738E4FC8F
:10284300FDA5128005D8901139A51280078C90112F
:1028530041A51280073890225EE0FEA3E0FFE4FC6E
:10286300FDA5128005D8901141A51280078C901800
:10287300347401F090225EA51280B467E47FC8A58A
:1028830012808611A51280B40090225EEEF0A3EFB1
:10289300F0808690052AE0640160030229739007A3
:1028A30082E064016003022973900791E0FF20E254
:1028B30003022973900797E020E003022973900530
:1028C3002EE0FCA3E0FDC3901553E09D901552E06C
:1028D3009C4003022973EF54FB900791F0900797F4
:1028E300E054FEF0900794E0FFA3E090225CCFF069
:1028F300A3EFF090225CE0FEA3E0FF901552EE8F71
:10290300F0A5128005AA901139A512800738E4FCBE
:10291300FDA5128005D8901139A51280078C90115E
:102923003DA51280073890225CE0FEA3E0FFE4FCA3
:10293300FDA5128005D890113DA51280078C901833
:10294300357401F090225CE0FEA3E0FF901838EEAE
:102953008FF0A5128005AA900570E0FFA3E0901701
:1029630063CFF0A3EFF09007A17401F0A37468F0B4
:1029730090052AE064016003022AC7900782E0649D
:10298300017003022AC7A51280BA01EF7003022A5D
:10299300C7A51281515690225CEEF0A3EFF04E7062
:1029A30008A512808FE6022ABF90225CE0FEA3E016
:1029B300FF901553E02FFF901552E03EFEC39005A4
:1029C3002FE09F90052EE09E50349015547403A57C
:1029D300128091D17F02A5128094CEE47FDC7E0524
:1029E300A512808612A512808FE6901552E0FCA3F3
:1029F300E0FD4C70028049AF05AE04022BD6A51250
:102A030081511C751D0AE51D600FA51281514DEF03
:102A13007007A51280B48680EDE51D702CA5128089
:102A23008FE690225CE0FFA3E0900530CFF0A3EFA8
:102A3300F0A51280F7DC901552E07002A3E0707CE1
:102A430090188BF07F02022BDD90225CE0FEA3E066
:102A5300FF901552EE8FF0A5128005AA901139A5AB
:102A630012800738E4FCFDA5128005D8901139A522
:102A73001280078C90113DA51280073890225CE0EC
:102A8300FEA3E0FFE4FCFDA5128005D890113DA54F
:102A93001280078C9018357401F090225CE0FEA33D
:102AA300E0FF901838EE8FF0A5128005AA9005700C
:102AB300E0FFA3E0901763CFF0A3EFF0E47F14A54A
:102AC3001280861190052EE0FEA3E0FFC3901553FC
:102AD300E09F901552E09E5003022BCEA5128086F4
:102AE3000E751690E5167003022B81A51280B400B3
:102AF30090225EEEF0A3EFF04E607B90225EE0FE4C
:102B0300A3E0FF901552EE8FF0A5128005AA901155
:102B130039A512800738E4FCFDA5128005D8901171
:102B230039A51280078C901141A512800738902295
:102B33005EE0FEA3E0FFE4FCFDA5128005D8901142
:102B430041A51280078C9018347401F090225EE046
:102B5300FEA3E0FF901836EE8FF0A5128005AA9031
:102B63000570E0FFA3E0901763CFF0A3EFF07516B5
:102B730090A51280B486A51280B486022AE7A51216
:102B8300807DE9A512801EE0A5128161C090052A0F
:102B9300E064017028900782E064016020751D01E4
:102BA300E51D6019A51280BA01EF6007A512808F99
:102BB300E6800AE47F0AA51280861180E3E47FF4AD
:102BC3007E01A5128086127F01800F901552E0FED0
:102BD300A3E0FFA512801EE87F00A522901784E0E2
:102BE300FF75F03790116AA512800799E0D394001E
:102BF300402275F037EF90119BA512800799E0FFF3
:102C0300F46023901784E0FE901555EFF0900206D0
:102C1300EEF08012901784E075F03790119BA512A7
:102C230080079974FFF0901784E075F03790119B3B
:102C3300A512800799E0F470028012901555E07593
:102C4300F006900008A512800799E070669015546D
:102C5300740EA5128091D19015547419F0D213E01B
:102C6300FF25E025E024F3F582E43403F583A51280
:102C73008007BA9024AEA5128007B0EF25E025E0C7
:102C830024F6F582E43403F583E4939024B1F07DD4
:102C930001E4FFA512809207E47FD07E07A512808E
:102CA3008612E4901555F0901777E04401F07F0207
:102CB300022D55901555E075F006900005A512807C
:102CC3000799E030E004540A6067901554740EA528
:102CD300128091D19015547419F0D213E0FF25E0BE
:102CE30025E024F3F582E43403F583A5128007BAC3
:102CF3009024AEA5128007B0EF25E025E024F6F579
:102D030082E43403F583E4939024B1F07D01E4FF7E
:102D1300A512809207E47FD07E07A512808612E475
:102D2300901555F0901777E04401F0E49015558025
:102D33001A901555E075F006900006A512800799C4
:102D4300E0FEA3E04E7009901555F0F07F0180027C
:102D53007F00A522E490225CF0A3F0A3F0A3F090FF
:102D6300079AE0B40118900798E0FEA3E0FF9015DE
:102D730053E02FFF901552E03E90225D800B90159B
:102D830052E0FFA3E090225DCFF0A3EFF090155542
:102D9300E075F006900006A512800799E0FEA3E017
:102DA300FF90225DE0FCA3E0FDD3EF9DEE9C50037A
:102DB300022F619015547433A5128091D19015544C
:102DC3007427F090056BE0FEA3E0FFEE6003022F93
:102DD30025EF24F6605724A67003022EA324636014
:102DE30003022F257B807A0379989024AFA5128064
:102DF30007B0901554E025E025E024F3F582E43490
:102E030003F583A5128007BA9024B2A5128007B0F8
:102E1300901555E075F006900006A512800799E01D
:102E2300FFA3E09024B5CFF0A3EF022F147B807AA9
:102E330003799E9024AFA5128007B0901554E02526
:102E4300E025E024F3F582E43403F583A51280073B
:102E5300BA9024B2A5128007B0901555E075F0061C
:102E6300900006A512800799E0FAA3E0FB90056B9A
:102E7300E0FCA3E0FDAF03AE02A51280051690248B
:102E8300B5EEF0A3EFF090056BE0FCA3E0FDAF031C
:102E9300AE02A5128005169024B7ECF0A3ED807165
:102EA3007B807A0379A79024AFA5128007B0901591
:102EB30054E025E025E024F3F582E43403F583A50B
:102EC300128007BA9024B2A5128007B0901555E07E
:102ED30075F006900006A512800799E0FAA3E0FBBF
:102EE30090056BE0FCA3E0FDAF03AE02A5128005E5
:102EF300169024B5EEF0A3EFF090056BE0FCA3E091
:102F0300FDAF03AE02A5128005169024B7ECF0A323
:102F1300EDF07B007A0779A5A512800C8690225CE0
:102F2300EFF0D2137B007A0779A59024AEA5128027
:102F330007B090225CE09024B1F07D01E4FFA5127C
:102F4300809207E47FDC7E05A512808612E490154B
:102F530055F0901777E04401F07F0102309D900710
:102F63009AE06401600302306BA5128176629022BD
:102F73005FEFF06003023034900798E0FFA3E09026
:102F8300225DCFF0A3EFF090225DE0FEA3E0FF907F
:102F93001552EE8FF0A5128005AA901139A5128063
:102FA3000738E4FCFDA5128005D8901139A51280DD
:102FB300078C90113DA51280073890225DE0FEA397
:102FC300E0FFE4FCFDA5128005D890113DA5128019
:102FD300078C9018357401F090225DE0FEA3E0FFAA
:102FE300901838EE8FF0A5128005AAE490079AF0A6
:102FF300900798F0A3F0901834E0B4011A901836B3
:10300300E0FCA3E0FDE4FFA512815BC7E490183464
:10301300F0901836F0A3F0901835E064017062A5C3
:1030230012815BBDE4901835F0901838F0A3F0805E
:1030330050E490079AF0900798F0A3F0A512801E31
:10304300E0901555E075F006900006A512800799EB
:10305300E0FEA3E0FF901552E0FCA3E0FDD3EF9D5B
:10306300EE9C401D7F01803290052AE0B40112904E
:103073000782E0B4010B900797E030E0047F018002
:1030830019E4900797F0900791F07F2C7E01A51229
:10309300808612A51280BA0A7F00A5227F019022A2
:1030A3005FEFF0E4A3F0A3F0A3F0A51280BA0AA5A2
:1030B30012807DE990225FE060030231EF901554A6
:1030C3007414A5128091D17E007F147D007B007A59
:1030D3000779A5A51280085F90056BE0FEA3E0FFCA
:1030E300EE60030231ECEF24F6603D24A670030288
:1030F3003184246360030233477B807A0379B2907F
:1031030024AFA5128007B09004A3A5128007BA903C
:1031130024B2A5128007B0901552E0FFA3E09024DB
:10312300B5CFF0A3EF0231DB7B807A0379B790242C
:10313300AFA5128007B09004A3A5128007BA90240C
:10314300B2A5128007B090056BE0FAA3E0FB9015DF
:1031530052E0FEA3E0FFAD03AC02A512800516907A
:1031630024B5EEF0A3EFF0901552E0FEA3E0FFAD1F
:1031730003AC02A5128005169024B7ECF0A3ED80F2
:10318300577B807A0379BF9024AFA5128007B09054
:1031930004A3A5128007BA9024B2A5128007B090A9
:1031A300056BE0FAA3E0FB901552E0FEA3E0FFAD50
:1031B30003AC02A5128005169024B5EEF0A3EFF040
:1031C300901552E0FEA3E0FFAD03AC02A51280050B
:1031D300169024B7ECF0A3EDF07B007A0779A5A550
:1031E30012800C86902261EFF002334790225FE059
:1031F300640260030233969015547414A5128091EF
:10320300D17E007F147D007B007A0779A5A512800B
:10321300085F90056BE0FEA3E0FFEE600302334717
:10322300EF24F6603A24A670030232CB24636003D2
:103233000233477B807A0379C99024AFA5128007B4
:10324300B09004BBA5128007BA9024B2A5128007E0
:10325300B0901034A51280071A9024B50233327B44
:10326300807A0379CF9024AFA5128007B09004BB76
:10327300A5128007BA9024B2A5128007B090056BFF
:10328300E0FEA3E0FFFBAA06E4F9F8901034A512D0
:1032930080071AA5128006739024B5A51280078CA7
:1032A30090056BE0FEA3E0FFFBAA06E4F9F890109B
:1032B30034A51280071AA512800673AC00AD01AEC7
:1032C30002AF039024B980677B807A0379D9902475
:1032D300AFA5128007B09004BBA5128007BA902453
:1032E300B2A5128007B090056BE0FEA3E0FFFBAA36
:1032F30006E4F9F8901034A51280071AA512800687
:10330300739024B5A51280078C90056BE0FEA3E0B3
:10331300FFFBAA06E4F9F8901034A51280071AA55A
:1033230012800673AC00AD01AE02AF039024B9A5C1
:103333001280078C7B007A0779A5A512800C8690F2
:103343002261EFF0D2137B007A0779A59024AEA512
:10335300128007B0902261E09024B1F07D01E4FF78
:10336300A512809207E47F64A512808611901555FB
:10337300E0FF901840F0E4A3F075F006EF9000062C
:10338300A512800799E0FFA3E0901842CFF0A3EFC6
:10339300F0802990225FE064017021901554741429
:1033A300A5128091D17F02A5128094CEE47F64A5FB
:1033B30012808611901840E0901555F0E490183F64
:1033C300F0A51280BA0AA51280DB38902260EFF0D4
:1033D300BF0704E402392C902260E0A5128007C7DE
:1033E30033FF0036E00136E00238BC0338BC043357
:1033F300FF0538BC0738E8080000393A90225FE03F
:103403006003B40221901555E075F006900006A5FF
:1034130012800799E0FEA3E0FFC3901553E09FF0ED
:10342300901552E09EF090225FE0B4012290184282
:10343300E0FEA3E0FF901552E0FCA3E0FDC39FEC88
:103443009E400CED9FFFEC9E901552F0A3EFF09081
:103453001554741AA5128091D190225FE060030283
:1034630035DFA51280A81AEF702790052BE0B40171
:1034730016B4011DA3E0FEA3E0FFC3901553E09F24
:10348300901552E09E500A7F02A5128094CE023519
:10349300DF7E007F147D007B007A0779A5A512806B
:1034A300085F90056BE0FEA3E0FFEE60030235B614
:1034B300EF24F6603D24A6700302354E24636003B7
:1034C3000235B67B807A0379B29024AFA5128007C8
:1034D300B09004A3A5128007BA9024B2A512800766
:1034E300B0901552E0FFA3E09024B5CFF0A3EF0214
:1034F30035A57B807A0379B79024AFA5128007B0F6
:103503009004A3A5128007BA9024B2A5128007B035
:1035130090056BE0FAA3E0FB901552E0FEA3E0FFF9
:10352300AD03AC02A5128005169024B5EEF0A3EF0F
:10353300F0901552E0FEA3E0FFAD03AC02A51280AC
:1035430005169024B7ECF0A3ED80577B807A0379BE
:10355300BF9024AFA5128007B09004A3A5128007E3
:10356300BA9024B2A5128007B090056BE0FAA3E0ED
:10357300FB901552E0FEA3E0FFAD03AC02A5128061
:1035830005169024B5EEF0A3EFF0901552E0FEA3DC
:10359300E0FFAD03AC02A5128005169024B7ECF052
:1035A300A3EDF07B007A0779A5A512800C86902203
:1035B30061EFF0D2137B007A0779A59024AEA512B0
:1035C3008007B0902261E09024B1F07D01E4FFA573
:1035D30012809207E47FC8A512808611901555E0EA
:1035E300FF75F006900008A512800799E014F075A6
:1035F300F006EF900008A512800799E0701390156C
:1036030055E075F006900005A512800799E0440483
:10361300F0902260E0B40513901555E075F0069024
:103623000005A512800799E04402F0A51280AF605F
:10363300901145A512800738901555E075F0069056
:103643000006A512800799E0FEA3E0FFE4FCFDA5B8
:10365300128005D8901145A51280078C901149E47A
:1036630075F001A5128005AA901555E075F0099033
:1036730002CBA51280AF9290225FE0B401059018AF
:10368300468003901845A5128163E6E490183FF045
:10369300A3E0FDA3E0FBA3E0FFA3E0902266CFF04D
:1036A300A3EFF0E4FFA512816E5E901761E4F0A32F
:1036B3007464F0901761E07002A3E0601BA51280B0
:1036C3008F125008E4FDFFA512808EEEA51280C470
:1036D300CD902262EFF080DB7F0002395BA5128080
:1036E30091CC901555E075F006900005A512800762
:1036F30099E04402F090225FE0FF600764026003F8
:10370300023877A51280A81AEF64016003023856C5
:10371300FE7F14FD7B007A0779A5A51280085F90D0
:10372300056BE0FEA3E0FFEE6003023833EF24F6FF
:10373300603D24A670030237CB2463600302383351
:103743007B807A0379B29024AFA5128007B09004EE
:10375300A3A5128007BA9024B2A5128007B09015D2
:1037630052E0FFA3E09024B5CFF0A3EF0238227B11
:10377300807A0379B79024AFA5128007B09004A391
:10378300A5128007BA9024B2A5128007B090056BEA
:10379300E0FAA3E0FB901552E0FEA3E0FFAD03AC1B
:1037A30002A5128005169024B5EEF0A3EFF0901554
:1037B30052E0FEA3E0FFAD03AC02A5128005169014
:1037C30024B7ECF0A3ED80577B807A0379BF902474
:1037D300AFA5128007B09004A3A5128007BA902466
:1037E300B2A5128007B090056BE0FAA3E0FB901539
:1037F30052E0FEA3E0FFAD03AC02A51280051690D4
:1038030024B5EEF0A3EFF0901552E0FEA3E0FFAD78
:1038130003AC02A5128005169024B7ECF0A3EDF0DB
:103823007B007A0779A5A512800C86902261EFF0C0
:10383300D2137B007A0779A59024AEA5128007B036
:10384300902261E09024B1F07D01E4FFA512809203
:103853000780077F02A5128094CEE47FE87E03A54C
:1038630012808612901552E0FFA3E09007A3CFA524
:1038730012803FE5A51280AF4D90114BE475F00126
:10388300A5128005AA901555E075F0099002CDA503
:103893001280AF92A51280AEF890225FE0B40105CA
:1038A3009018468003901845E0FFA5128163E8A5B0
:1038B30012816E437F0202395BA5128091CCA5125F
:1038C30080AF4D90225FE0B40105901846800390CD
:1038D3001845E0FFA5128163E8A512816E43E47FDA
:1038E300C47E09803BA5128091CC901555E075F0FC
:1038F30006900005A512800799E04404F0A5128004
:10390300AF6090225FE0B4010590184680039018E1
:1039130045A5128163E6A512816E43E47FE87E0329
:10392300A5128086127F00802FF0A51280DB3890CD
:103933002260EFF00233DA901840E0FDA3E0FBA32E
:10394300E0FFA3E0902266CFF0A3EFF090183FE0F2
:10395300FFA512816E5E7F00A522E490225CF0A396
:10396300F0A3F0A512808F125008E4FDFFA512808A
:103973008EEEA51280C4CD90225EEFF0901552E03A
:103983007002A3E07004FF023FDF90052BE06401A7
:103993006014A51280A815BF01077F01A5128094AA
:1039A300CE7F00023FDF90052CE0FEA3E0FFC39033
:1039B3001553E09F901552E09E5003023E78EF4E60
:1039C3007003023E78A51280A852EF6401600302DF
:1039D3003D0ED213900487A5128007BA9024AEA59A
:1039E300128007B090048AA5128091FED21390042E
:1039F30007A5128007BA9024AEA5128007B09004E1
:103A03000AE4939024B1F07D01E4FFA512809207AC
:103A1300751E1EE51E7003023BA4A51280860EA52B
:103A23001280B61C90225CEFF024E5600E240E7029
:103A3300E2A512801EE07F01023FDFA51280A815D8
:103A4300EF64016003023B9F7F01A5128094CE7E49
:103A5300007F147D007B007A0779A5A51280085F9B
:103A630090056BE0FEA3E0FFEE6003023B74EF24DE
:103A7300F6603D24A67003023B0C24636003023B03
:103A8300747B807A0379B29024AFA5128007B0903B
:103A9300049FA5128007BA9024B2A5128007B090A4
:103AA3001552E0FFA3E09024B5CFF0A3EF023B63F0
:103AB3007B807A0379B79024AFA5128007B0900476
:103AC3009FA5128007BA9024B2A5128007B0900573
:103AD3006BE0FAA3E0FB901552E0FEA3E0FFAD0319
:103AE300AC02A5128005169024B5EEF0A3EFF0907A
:103AF3001552E0FEA3E0FFAD03AC02A5128005164C
:103B03009024B7ECF0A3ED80577B807A0379BF90C4
:103B130024AFA5128007B090049FA5128007BA9026
:103B230024B2A5128007B090056BE0FAA3E0FB90E6
:103B33001552E0FEA3E0FFAD03AC02A5128005160B
:103B43009024B5EEF0A3EFF0901552E0FEA3E0FF52
:103B5300AD03AC02A5128005169024B7ECF0A3EDDB
:103B6300F07B007A0779A5A512800C8690225CEF82
:103B7300F0D2137B007A0779A59024AEA5128007B3
:103B8300B090225CE09024B1F07D01E4FFA51280A7
:103B93009207E47FDC7E05A5128086127F00023F38
:103BA300DFA51280A81AEF64016003023D09902289
:103BB3005CF07F01A5128094CE7E007F147D007B94
:103BC300007A0779A5A51280085F90056BE0FEA334
:103BD300E0FFEE6003023CDEEF24F6603D24A670B6
:103BE30003023C7624636003023CDE7B807A037924
:103BF300B29024AFA5128007B090049FA51280074E
:103C0300BA9024B2A5128007B0901552E0FFA3E04A
:103C13009024B5CFF0A3EF023CCD7B807A0379B734
:103C23009024AFA5128007B090049FA5128007BA15
:103C33009024B2A5128007B090056BE0FAA3E0FBD5
:103C4300901552E0FEA3E0FFAD03AC02A512800580
:103C5300169024B5EEF0A3EFF0901552E0FEA3E02A
:103C6300FFAD03AC02A5128005169024B7ECF0A3B8
:103C7300ED80577B807A0379BF9024AFA51280072C
:103C8300B090049FA5128007BA9024B2A5128007B2
:103C9300B090056BE0FAA3E0FB901552E0FEA3E0C1
:103CA300FFAD03AC02A5128005169024B5EEF0A378
:103CB300EFF0901552E0FEA3E0FFAD03AC02A512B6
:103CC3008005169024B7ECF0A3EDF07B007A07791A
:103CD300A5A512800C8690225CEFF0D2137B007AAC
:103CE3000779A59024AEA5128007B090225CE090DE
:103CF30024B1F07D01E4FFA512809207E47FDC7E0E
:103D030005A5128086127F00023FDFA51280A81A44
:103D1300EF64016003023E7390225CF07F01A51201
:103D23008094CE7E007F147D007B007A0779A5A561
:103D33001280085F90056BE0FEA3E0FFEE600302D4
:103D43003E48EF24F6603D24A67003023DE0246361
:103D53006003023E487B807A0379B29024AFA512B8
:103D63008007B090049FA5128007BA9024B2A512D1
:103D73008007B0901552E0FFA3E09024B5CFF0A3E5
:103D8300EF023E377B807A0379B79024AFA5128088
:103D930007B090049FA5128007BA9024B2A51280A1
:103DA30007B090056BE0FAA3E0FB901552E0FEA389
:103DB300E0FFAD03AC02A5128005169024B5EEF02A
:103DC300A3EFF0901552E0FEA3E0FFAD03AC02A514
:103DD300128005169024B7ECF0A3ED80577B807A10
:103DE3000379BF9024AFA5128007B090049FA5125A
:103DF3008007BA9024B2A5128007B090056BE0FA51
:103E0300A3E0FB901552E0FEA3E0FFAD03AC02A5D7
:103E1300128005169024B5EEF0A3EFF0901552E052
:103E2300FEA3E0FFAD03AC02A5128005169024B7F4
:103E3300ECF0A3EDF07B007A0779A5A512800C8640
:103E430090225CEFF0D2137B007A0779A59024AE21
:103E5300A5128007B090225CE09024B1F07D01E4CC
:103E6300FFA512809207E47FDC7E05A512808612EF
:103E73007F00023FDFA51280A81AEF6401600302EE
:103E83003FDD90225CF07F01A5128094CE7E007FFF
:103E9300147D007B007A0779A5A51280085F900541
:103EA3006BE0FEA3E0FFEE6003023FB2EF24F66097
:103EB3003D24A67003023F4A24636003023FB27BA2
:103EC300807A0379B29024AFA5128007B090049F43
:103ED300A5128007BA9024B2A5128007B09015529C
:103EE300E0FFA3E09024B5CFF0A3EF023FA17B80D6
:103EF3007A0379B79024AFA5128007B090049FA5E9
:103F0300128007BA9024B2A5128007B090056BE027
:103F1300FAA3E0FB901552E0FEA3E0FFAD03AC0271
:103F2300A5128005169024B5EEF0A3EFF09015527C
:103F3300E0FEA3E0FFAD03AC02A5128005169024BA
:103F4300B7ECF0A3ED80577B807A0379BF9024AF61
:103F5300A5128007B090049FA5128007BA9024B2DF
:103F6300A5128007B090056BE0FAA3E0FB90155211
:103F7300E0FEA3E0FFAD03AC02A51280051690247A
:103F8300B5EEF0A3EFF0901552E0FEA3E0FFAD0312
:103F9300AC02A5128005169024B7ECF0A3EDF07BDC
:103FA300007A0779A5A512800C8690225CEFF0D2E7
:103FB300137B007A0779A59024AEA5128007B090F1
:103FC300225CE09024B1F07D01E4FFA5128092070A
:103FD300E47FD07E07A5128086127F00A52290077A
:103FE300A3EEF0A3EFF0E4901552F0A3F0E49022D7
:103FF30063F0A3F0A3F0A3F0A3F0A3F0A3F0A30452
:10400300F0A3F0A3F0E4A3F0A3F0A51280A81AEFA5
:104013006401600DA51280A852BF01057F00024A0A
:104023001E901554741BA5128091D1A51280860E83
:104033007E007F147D007B007A0779A5A512800896
:104043005F90056BE0FEA3E0FFEE6003024155EFD6
:1040530024F6603D24A670030240ED24636003024E
:1040630041557B807A0379B29024AFA5128007B0C3
:1040730090049FA5128007BA9024B2A5128007B0BE
:104083009007A3E0FFA3E09024B5CFF0A3EF024194
:10409300447B807A0379B79024AFA5128007B09050
:1040A300049FA5128007BA9024B2A5128007B0908E
:1040B300056BE0FAA3E0FB9007A3E0FEA3E0FFADEE
:1040C30003AC02A5128005169024B5EEF0A3EFF021
:1040D3009007A3E0FEA3E0FFAD03AC02A5128005A9
:1040E300169024B7ECF0A3ED80577B807A0379BF59
:1040F3009024AFA5128007B090049FA5128007BA41
:104103009024B2A5128007B090056BE0FAA3E0FB00
:104113009007A3E0FEA3E0FFAD03AC02A512800568
:10412300169024B5EEF0A3EFF09007A3E0FEA3E012
:10413300FFAD03AC02A5128005169024B7ECF0A3E3
:10414300EDF07B007A0779A5A512800C8690226991
:10415300EFF0D2137B007A0779A59024AEA51280E5
:1041630007B0902269E0A51280860190177674014A
:10417300F0E490182EF0A3F0A3F0A3F0A512808F23
:10418300125008E4FDFFA512808EEEA51280C4CD67
:1041930090226EEFF0E4902263F0A3F0A3F0900777
:1041A300A3E0FEA3E0FF4E700790226DF0024801EA
:1041B3007B007A227964902274A5128007B07A2258
:1041C30009902277A5128007B07A227963A512801D
:1041D3009FF6902266EFF07003024272E4F09022A1
:1041E30066E0FFC39403501DEF25E025E02419F595
:1041F30082E4340EF583E0FEA3E04E60089022666D
:10420300E004F080D9902266E0FF701990226D04DB
:10421300F09007A3E0FDA3E0900532CDF0A3EDF00D
:10422300D222024801EF25E025E02415F582E4348B
:104233000EF583E0FEA3E0FF9007A3E0FCA3E0FDFF
:10424300C39FEC9E401290226D7401F0900532ECF6
:10425300F0A3EDF0D222800DE4900532F0A3F0C27A
:104263002290226DF0E49007A3F0A3F0024801E44A
:10427300902267F0A3F0902263E0FF7003024338BB
:104283007E007A187BA57D01A512808740EF7074AC
:10429300A512807AB0E4902266F0902266E0C3947F
:1042A3000250567C187DA57F01A5128081C2EF6460
:1042B30001603F9018A8E0FD5450600790226AE027
:1042C3004404F0ED30E50790226AE04402F09018D0
:1042D300A8E030E30790226AE04408F07F01A512CA
:1042E300814FC2902267EEF0A3EFF0E4902266F0D4
:1042F3008007A512807AAA80A1902266E0C3940267
:104303004009800090226AE04404F0900524E0FC18
:10431300A3E0FD902267E0FEA3E0FFA51280050362
:10432300C39007A4E09FF09007A3E09EF090182E9F
:10433300EEF0A3EFF0902267E0FEA3E0FF90115DA3
:10434300EE8FF0A5128005AA901151A512800738AF
:10435300C000900524E0FCA3E0FD902267E0FEA3EB
:10436300E0FFA512800503E4FCFDD000A512800543
:10437300D8901151A51280078C90114DA51280077A
:1043830038C000900524E0FCA3E0FD902267E0FE26
:10439300A3E0FFA512800503E4FCFDD000A5128075
:1043A30005D890114DA51280078C90226AE0640114
:1043B300700302444FE4902269F0902269E0FFC346
:1043C3009403506CEF25E025E0241BF582E4340EC2
:1043D300F583E06401705190226AE0FF30E20790B8
:1043E300154574018017EF30E30790154574048079
:1043F3000C90226AE030E11A9015457402F0902285
:1044030069E025E025E0241CF582E4340EF583748D
:1044130002F0A51280A7F7902269E0B50712901564
:1044230045E0600CC21D8008902269E004F0808A98
:1044330090226A7401F0902263E0FFC3902268E047
:104443009F902267E09400500302417FE49022672B
:10445300F0A3F0902264E0FF70030245157E007A1A
:10446300187BBA7D02A512808740EF7074A5128075
:104473007AB0E4902266F0902266E0C3940250562C
:104483007C187DBA7F02A5128081C2EF6401603F70
:104493009018BDE0FD5450600790226BE04404F097
:1044A300ED30E50790226BE04402F09018BDE03058
:1044B300E30790226BE04408F07F02A512814FC20C
:1044C300902267EEF0A3EFF0E4902266F08007A558
:1044D30012807AAA80A1902266E0C39402400980E8
:1044E3000090226BE04404F0900526E0FCA3E0FD7D
:1044F300902267E0FEA3E0FFA512800503C39007A7
:10450300A4E09FF09007A3E09EF0901830EEF0A394
:10451300EFF0902267E0FEA3E0FF90115FEE8FF0D3
:10452300A5128005AA901155A512800738C00090E6
:104533000526E0FCA3E0FD902267E0FEA3E0FFA5D3
:1045430012800503E4FCFDD000A5128005D890116C
:1045530055A51280078C90114DA512800738C00015
:10456300900526E0FCA3E0FD902267E0FEA3E0FFB8
:10457300A512800503E4FCFDD000A5128005D890A8
:10458300114DA51280078C90226BE0640170030229
:10459300462CE4902269F0902269E0FFC394035013
:1045A3006CEF25E025E0241BF582E4340EF583E06F
:1045B3006402705190226BE0FF30E207901546745D
:1045C300018017EF30E3079015467404800C9022A6
:1045D3006BE030E11A9015467402F0902269E025F1
:1045E300E025E0241CF582E4340EF5837402F0A583
:1045F3001280A7F7902269E0B50712901546E06094
:104603000CC21D8008902269E004F0808A90226B1E
:104613007401F0902264E0FFC3902268E09F90222F
:1046230067E09400500302417FE4902267F0A3F017
:10463300902265E0FF70030246EC7E007A187BCF80
:104643007D03A512808740EF706EA512807AB0E4D7
:10465300902266F0902266E0C394025050A5128027
:1046630081BCEF6401603F9018D2E0FD54506007B5
:1046730090226CE04404F0ED30E50790226CE044B6
:1046830002F09018D2E030E30790226CE04408F087
:104693007F03A512814FC2902267EEF0A3EFF0E4EF
:1046A300902266F08007A512807AAA80A7902266DE
:1046B300E0C394024009800090226CE04404F0902F
:1046C3000528E0FCA3E0FD902267E0FEA3E0FFA540
:1046D30012800503C39007A4E09FF09007A3E09E18
:1046E300F0901832EEF0A3EFF0902267E0FEA3E023
:1046F300FF901161EE8FF0A5128005AA901159A5C4
:1047030012800738C000900528E0FCA3E0FD90224A
:1047130067E0FEA3E0FFA512800503E4FCFDD000E3
:10472300A5128005D8901159A51280078C90114DC0
:10473300A512800738C000900528E0FCA3E0FD9097
:104743002267E0FEA3E0FFA512800503E4FCFDD091
:1047530000A5128005D890114DA51280078C9022D8
:104763006CE06401700302417FE4902269F09022BF
:1047730069E0FFC39403506CEF25E025E0241BF5AB
:1047830082E4340EF583E06403705190226CE0FF01
:1047930030E20790154774018017EF30E307901557
:1047A300477404800C90226CE030E11A9015477432
:1047B30002F0902269E025E025E0241CF582E43430
:1047C3000EF5837402F0A51280A7F7902269E0B575
:1047D3000712901547E0600CC21D8008902269E023
:1047E30004F0808A90226C7401F0902265E0FFC38C
:1047F300902268E09F902267E0940002417F901826
:104803002EE0FCA3E0FDD39400EC9400500E90182E
:1048130031E09400901830E09400401A901830E092
:10482300FAA3E0FBE4FFA512816DAFE490182EF02C
:10483300A3F0A3F0A3F090226DE07003024A01A558
:104843001280F7DC9015547401A5128091D1901554
:10485300547420F07E007F147D007B007A0779A5D5
:10486300A51280085F901554E0FF25E025E024F6AB
:10487300F582E43403F583E493FD7C00C004C005B2
:10488300EF25E025E024F3F582E43403F583A51254
:104893008007BA78A57C077D00D007D006A51280D3
:1048A30004D7901554E025E025E024F6F582E4349E
:1048B30003F583E493902269F090056BE0FEA3E097
:1048C300FFEE60030249D7EF24F6604024A670038D
:1048D30002496B246360030249D7902269E024A54F
:1048E300F9E43407FA7B00C003C002C0017B807A7D
:1048F3000379879024AFA5128007B0900532E0FFBB
:10490300A3E09024B2CFF0A3EF0249C5902269E05F
:1049130024A5F9E43407FA7B00C003C002C0017B7D
:10492300807A03798A9024AFA5128007B090056B33
:10493300E0FAA3E0FB900532E0FEA3E0FFAD03AC99
:1049430002A5128005169024B2EEF0A3EFF09005B5
:1049530032E0FEA3E0FFAD03AC02A5128005169082
:1049630024B4ECF0A3ED805A902269E024A5F9E485
:104973003407FA7B00C003C002C0017B807A03794D
:10498300909024AFA5128007B090056BE0FAA3E0E6
:10499300FB900532E0FEA3E0FFAD03AC02A512805D
:1049A30005169024B2EEF0A3EFF0900532E0FEA3DB
:1049B300E0FFAD03AC02A5128005169024B4ECF021
:1049C300A3EDF0D001D002D003A512800C86902273
:1049D30069E02FF0D2137B007A0779A59024AEA566
:1049E300128007B0902269E09024B1F07D01E4FFCA
:1049F300A5128092077FD07E07A512807AB4900516
:104A03006DE064016013901545E09007BA6006E01D
:104A13004408F08004E054F7F07F00A522E49022DC
:104A23005CF0A51280AEF89007BAE04440F0901510
:104A330054740DA5128091D17F01A522E490225CCC
:104A4300F0902F97F0900002F0A512807DE990027C
:104A5300077402F0302007A512809E14C220901E16
:104A6300277401F0E490177AF0FBFAFD7F05A51295
:104A7300815B01A512804E9290177A7401F0E4FBDA
:104A8300FAFD7F06A512815B01E490079AF0900777
:104A930098F0A3F0901E27F0D21390043BA5128048
:104AA30007BA9024AEA5128007B090043EA51280E9
:104AB30091FED2137B807A0379E59024AEA5128010
:104AC30007B09024B17401F0FDE4FFA512809207B2
:104AD300A512809E399002077401F0E49007B9F0A3
:104AE300A3F0D21D202007A512809E0CD220D21F36
:104AF30090225CE0644060028055A51280A218E415
:104B030090225CF090225CE0FFC39440501875F053
:104B130006EF900005A512800799E0541FF090223C
:104B23005CE004F080DE901543E07003201D0D90DF
:104B33001544E060079007BAE04402F07D53E4FFB8
:104B4300A51280DB4DBF02079007BAE04440F0E4B2
:104B530090188BF0900522F0900184F0A3F0FFA54C
:104B630022E490225CF0A3F0201F03024E70A512F2
:104B7300807DE99015547410A5128091D1E47F646F
:104B8300A5128086119007B9E0FEA3E0FF30E0098B
:104B930090225D74F1F0024C4AEF30E10990225DFE
:104BA30074F2F0024C4AEF30E20990225D74F3F0A4
:104BB300024C4AEF30E30990225D74F4F0024C4A50
:104BC300EF30E40890225D74F5F0807BEF30E50868
:104BD30090225D74F6F0806FEF30E60890225D74EA
:104BE300F7F08063EF30E70890225D74F8F08057A8
:104BF300EE30E00890225D74F9F0804BEE30E1086E
:104C030090225D74FAF0803FEE30E20890225D74EA
:104C1300FBF08033EE30E30890225D74FCF08027D4
:104C2300EE30E40890225D74FDF0801BEE30E50861
:104C330090225D74FEF0800FEE90225D30E60574E5
:104C4300E1F0800374FFF0202203024E0690053248
:104C5300E07002A3E07003024E067B807A0379E7DB
:104C63009024AFA5128007B090225DE09024B2F0AB
:104C73007B007A0779A5A512800C8690225CEFF061
:104C83009015547420F0E0FE25E025E024F6F5822B
:104C9300E43403F583E493FD7C00C004C005EE25F2
:104CA300E025E024F3F582E43403F583A5128007BD
:104CB300BAC00174A52FF9E43407A801FC7D00D024
:104CC30001D007D006A5128004D7901554E025E043
:104CD30025E024F6F582E43403F583E493FF902280
:104CE3005CE02FF090056BE0FEA3E0FFEE600302B3
:104CF3004E02EF24F6604024A67003024D9624630F
:104D03006003024E0290225CE024A5F9E43407FA22
:104D13007B00C003C002C0017B807A0379879024A3
:104D2300AFA5128007B0900532E0FFA3E09024B254
:104D3300CFF0A3EF024DF090225CE024A5F9E43418
:104D430007FA7B00C003C002C0017B807A03798A23
:104D53009024AFA5128007B090056BE0FAA3E0FBA7
:104D6300900532E0FEA3E0FFAD03AC02A51280057F
:104D7300169024B2EEF0A3EFF0900532E0FEA3E02C
:104D8300FFAD03AC02A5128005169024B4ECF0A38A
:104D9300ED805A90225CE024A5F9E43407FA7B0005
:104DA300C003C002C0017B807A0379909024AFA531
:104DB300128007B090056BE0FAA3E0FB900532E0A8
:104DC300FEA3E0FFAD03AC02A5128005169024B24A
:104DD300EEF0A3EFF0900532E0FEA3E0FFAD03ACED
:104DE30002A5128005169024B4ECF0A3EDF0D001D7
:104DF300D002D003A512800C8690225CE02FF0C273
:104E03002280267B807A0379E79024AFA51280075E
:104E1300B090225DE09024B2F07B007A0779A5A5DB
:104E230012800C8690225CEFF0D2137B007A077914
:104E3300A59024AEA5128007B090225CE09024B127
:104E4300F07D01E4FFA512809207E47F64A5128040
:104E53008611900001E004F0E0C394024004C21FF5
:104E6300E4F09002077402F0A512809E3990054980
:104E7300E0B40117900002E0700CA512809FE7EFE9
:104E8300700404F08005A51280B7C77F01A522E452
:104E930090225FF0D20FA3F0A3F002555B90226043
:104EA300E0600302556BF0D20FA512809E39D21336
:104EB300901A9FA5128007BA9024AEA5128007B05E
:104EC300901AA2A5128091FED213901AA3A5128064
:104ED30007BA9024AEA5128007B0901AA6A5128037
:104EE3009F4C90225D7401F0A304F0200F03025243
:104EF30064A51280B61C902261EFF024F3700302C4
:104F0300508A24F2700302508524CB7003024FD9D8
:104F13002408600302525390225EE06402702DD293
:104F2300129024AE7402F0D213E4FDFFA512809F09
:104F33006990225E7401F090225DE07006740DF0BA
:104F430002525390225DE014F0025253D213902286
:104F53005DE0FF25E025E0249FF582E4341AF58324
:104F6300A5128007BA9024AEA5128007B0EF25E002
:104F730025E024A2F582E4341AF583E4939024B166
:104F8300F07D01E4FFA51280920790225DE0700599
:104F9300740DF0800690225DE014F0D21390225D30
:104FA300E0FF25E025E0249FF582E4341AF583A58C
:104FB300128007BA9024AEA5128007B0EF25E02532
:104FC300E024A2F582E4341AA5128091FC90225EBB
:104FD3007401F002525390225EE06401701AA5122C
:104FE300809F5B90225DE0B40D05E4F002507C905D
:104FF300225DE004F002507CD21390225DE0FF2595
:10500300E025E0249FF582E4341AF583A512800796
:10501300BA9024AEA5128007B0EF25E025E024A2C4
:10502300F582E4341AA5128091FC90225DE0B40D60
:1050330004E4F0800690225DE004F0D21390225D38
:10504300E0FF25E025E0249FF582E4341AF583A5EB
:10505300128007BA9024AEA5128007B0EF25E02591
:10506300E024A2F582E4341AF583E4939024B1F0AA
:105073007D01E4FFA51280920790225E7402F00284
:105083005253C20F025253C212E49024AEF0D21311
:10509300FDA512809E3390225DE0A5128007C750C4
:1050A300CA0050D10150D80250DC0350E30450EA47
:1050B3000550F30850FA0951010A51080B510F0C1E
:1050C30051160D0000511BA51281015F804AA512E4
:1050D3008096D280437F018010A512815C46803880
:1050E300A512816B7780317F02A51281714F8028D1
:1050F300A51280E19B8021A512812E3F801AA51263
:10510300806BD28013A5128070E7800CA51280CD2E
:10511300268005A51281025990225EE06402600395
:105123000251B290225DE07017D213901AD3A512E8
:105133008007BA9024AEA5128007B0901AD6802FAC
:10514300D21390225DE0FF25E025E0249BF582E465
:10515300341AF583A5128007BA9024AEA5128007EE
:10516300B0EF25E025E0249EF582E4341AF583A50B
:10517300128091FED21390225DE0FF25E025E0240A
:105183009FF582E4341AF583A5128007BA9024AE02
:10519300A5128007B0EF25E025E024A2F582E434D0
:1051A3001AF583E4939024B1F07D01E40252459013
:1051B300225DE0B40D17D213901A9FA5128007BA8F
:1051C3009024AEA5128007B0901AA2802FD213901C
:1051D300225DE0FF25E025E024A3F582E4341AF5FF
:1051E30083A5128007BA9024AEA5128007B0EF25DD
:1051F300E025E024A6F582E4341AF583E4939024B1
:10520300B1F07D01E4FFA512809207D21390225DD5
:10521300E0FF25E025E0249FF582E4341AF583A519
:10522300128007BA9024AEA5128007B0EF25E025BF
:10523300E024A2F582E4341AF583E4939024B1F0D8
:10524300E4FDFFA51280920790225EA512809E25A1
:10525300A512809B157F0A7E00A512807CA2024EB8
:10526300EEE47F2C7E01FDFC9024E27418F0A3741D
:1052730090F0A51280861AA512814FFBD212E490FA
:1052830024AEF0D213FDFFA512809F69D212E490E1
:1052930024AEF0D213FD7F01A512809F69902F9356
:1052A300E0700330254ED2137B807A1A796D9024F7
:1052B300AEA5128007B09024B1740AA512809203A0
:1052C300D2137B807A1A79789024AEA5128007B026
:1052D3009024B17401F0FDE4FFA512809207E47FEE
:1052E300DC7E05FDFC9024E27418F0A37490F0A515
:1052F3001280861A902F93E070030253D3A5128075
:10530300AF79E47F64A512808611A51280AF60E4B3
:105313007F64A5128086117E017F807D007B007AE9
:10532300227962A51280085F7F807E027D087C005F
:10533300753722753862753901753A80A51280ACCC
:105343009DE490225FF090225FE0FF75F0069022CB
:1053530066A512800799E0FE75F006EF900008A598
:1053630012800799E06E705790225FE075F0069007
:105373002263A512800799E0FE75F006EF90000501
:10538300A512800799E0B5063690225FE075F00616
:10539300902264A512800799E0FCA3E0FD75F00656
:1053A300EF900006A512800799E0FEA3E0B5050F74
:1053B300EEB5040B90225FE004F0E0644070879048
:1053C300225FE064406004A37401F0E4902F93F043
:1053D3002025030254C6A51280F7DCE47F64A512DE
:1053E3008086117E007F577D007B007A2379E2A5BA
:1053F3001280085F7F807E017D087C0075372375EE
:1054030038E2753900753A57A51280AC9D9023E2B6
:10541300E0FF900523E06F60030254BE9023E3E0B6
:10542300FEA3E0FF900524E06E7003A3E06F60032A
:105433000254BE9023E5E0FEA3E0FF900526E06E54
:105443007003A3E06F70749023E7E0FEA3E0FF9086
:105453000528E06E7003A3E06F70609023E9E0FF1E
:1054630090052AE06F70549023EAE0FF90052BE04B
:105473006F70489023EBE0FEA3E0FF90052CE0B5AE
:105483000639A3E0B507349023EDE0FEA3E0FF90D7
:10549300052EE0B50625A3E0B507209023F1E0FE35
:1054A300A3E0FF900532E0B50611A3E0B5070C9029
:1054B3002438E0FF900579E06F6006902260740164
:1054C300F0C225902260E07003025562A512809E0F
:1054D30039D2137B807A1A797A9024AEA512800789
:1054E300B09024B17413A512809203D2137B807AF7
:1054F3001A798E9024AEA5128007B09024B174104F
:10550300F07D01E4FFA512809207751D0FE4902240
:105513005FF0E51D603BA51280B486A51280B61C22
:10552300902261EFF0F460EA902261E024E56010DC
:10553300240E70DEE4902260F090225F04F0800A73
:105543009022607401F090225FF090225FE0B4013A
:10555300C1E51D6003024EA0902260F0024EA090B0
:1055630022607401F0024EA0A502809E399024545B
:10557300EDF0902453EFF0E4902455F0EF14602BFA
:1055830014603A14605314606C24F7700302561AC3
:10559300240D600302563C901543E0FF30E7028080
:1055A3007EEF20E00302563702562F901544E0FFAA
:1055B30030E702806AEF30E0028071807790154512
:1055C300E0FF30E7028058EF540660028036901502
:1055D30045E030E0028055805B901546E0FF30E700
:1055E30002803CEF54066002801A901546E030E0DA
:1055F300028039803F901547E0FF30E7028020EFBB
:10560300540660089024557403F0802D901547E0EC
:1056130030E0028017801D901550E0FF30E70890BE
:1056230024557402F08012EF5403600890245574DB
:1056330001F08005E4902455F030110302572290C5
:105643002453E0FF25E025E024BDF582E4340BF587
:1056530083E493FD7C00C004C005EF25E025E0242E
:10566300BAF582E4340BF583A5128007BA78567C29
:10567300247D00D007D006A5128004D7902455E0DE
:10568300FF25E025E024FDF582E4340BF583E49364
:10569300FD7C00C004C005EF25E025E024FAF58277
:1056A300E4340BF583A5128007BAC001902453E0BC
:1056B30025E025E024BDF582E4340BF583E493244F
:1056C30056F9E43424A801FC7D00D001D007D006AC
:1056D300A5128004D7902454E0FDD2137B007A24D2
:1056E30079569024AEA5128007B0902455E025E0AA
:1056F30025E024FDF582E4340BF583E493FF902445
:1057030053E025E025E024BDF582E4340BF583E482
:10571300932F9024B1F0E4FFA512809207800590A7
:105723002455E0FFA522902439E0FF7D0190245207
:10573300EDF0902451EFF0601BE0FF64016015EF82
:1057430064026010EF6403600BEF64046006EF60B3
:1057530003B40D11902451E0FFA3E0FDC211A51283
:105763008055708041902452E0FDD213902451E083
:10577300FF25E025E024BAF582E4340BF583A51276
:105783008007BA9024AEA5128007B0EF25E025E08C
:1057930024BDF582E4340BF583E4939024B1F0E463
:1057A300FFA512809207A522902442E0FDD2117F2B
:1057B30001902446EFF0A3EDF0E490245EF0FE7F29
:1057C30016FD7B007A247948A51280085F90244750
:1057D300E064037003025872E0FF25E025E0242E05
:1057E300F582E4341DF583E493FD7C00C004C00519
:1057F300EF25E025E0242BF582E4341DF583A51283
:105803008007BA78487C247D00D007D006A5128093
:1058130004D7301122A51280F83C90245FE0FEA348
:10582300E0AA06F97B00902464A5128007B07A24CD
:105833007948A512801E6A902446E0FDD2137B00AE
:105843007A2479489024AEA5128007B0902447E0CB
:1058530025E025E0242EF582E4341DF583E493FF4F
:1058630090245EE0FEEF2E9024B1F0E40259432031
:10587300113AD213902447E0FF25E025E0242BF5CD
:1058830082E4341DF583A5128007BA9024AEA512D5
:105893008007B0EF25E025E0242EF582E4341DF5E2
:1058A30083E4939024B1F0E4FD025943902447E04C
:1058B300FF25E025E0242EF582E4341DF583E493EF
:1058C300FD7C00C004C005EF25E025E0242BF58214
:1058D300E4341DF583A5128007BA78487C247D0043
:1058E300D007D006A5128004D7A51280F83C9024D7
:1058F3005FE0FEA3E0AA06F97B00902464A5128072
:1059030007B07A247948A512801E6A902446E0FDE8
:10591300D2137B007A2479489024AEA5128007B075
:10592300902447E025E025E0242EF582E4341DF59C
:1059330083E493FF90245EE0FEEF2E9024B1F0E425
:10594300FFA512809207A52290243DEFF0A3EDF06E
:10595300E4902449F0A37405F07E007F0A7D007B68
:10596300007A24793FA51280085F90243DE0FF640C
:10597300027057EF25E025E0242BF582E4341DF572
:1059830083A5128007BAC003C002C001EF25E0253A
:10599300E0242EF582E4341DF583E493FD90243E48
:1059A300E0902463F07B007A24793FA3A51280075B
:1059B300B07A24794A902467A5128007B0D001D029
:1059C30002D003A51280F2A5805990243DE0FF2563
:1059D300E025E0242BF582E4341DF583A51280072E
:1059E300BAC003C002C001EF25E025E0242EF582F2
:1059F300E4341DF583E493FD90243EE090247CF091
:105A03007B007A24793FA3A5128007B07A24794AD0
:105A1300902480A5128007B0D001D002D003A51234
:105A230080EFA3902449EFF0A512809E399024497A
:105A3300E064017031C2129024AEF0D213FDFFA5D1
:105A430012809F6990243DE0FF7A247B3F90246677
:105A53007424F0A3744AF0D212E4FDFCA51280F87A
:105A630058A512809E39C3A522902443E0FDD2118C
:105A7300E4FF902448EFF0A3EDF0E4A3F0FE7F2CC5
:105A8300FD7B007A2F7942A51280085F201137D25F
:105A930013902449E0FF25E025E024C1F582E43496
:105AA30011F583A5128007BA9024AEA5128007B022
:105AB300EF25E025E024C4F582E43411A51280919A
:105AC300FC7F00025BC9902449E0FF25E025E02428
